:040000002DEF00F0F0
:100008005F82F2A40AEF00F00CEF00F02BEF00F093
:10001800FD0ED76E110ED66E0001E54BE62BE34BB5
:10002800E42BE80EE35D030EE459D8A01EEF00F0C0
:1000380020EF00F02AEF00F0000EE46F000EE36FEF
:10004800010EDB27000EDC23DD23DE23F2945F9212
:060058001100B7EF9BF060
:10C97A00004361703A3534306D4168004379636C25
:10C98A00653A322F34004375723A3233306D4100C2
:10C99A00566F6C3A332C333556000E0000000000F7
:10C9AA00000000000000000000000000000000007D
:10C9BA00000000000000000000000000000000006D
:10C9CA00000000000000000000000000000000005D
:10C9DA00000000000000000000000000000000004D
:10C9EA00000000000000000000000000000000003D
:10C9FA00000000000000000000000000000000002D
:10CA0A000000000000000005000000000000000017
:10CA1A00FC7F0E00FC7F0F00FC7F07000000000077
:10CA2A0000000000000000000000000000000000FC
:10CA3A0000000000000000000000000000000000EC
:10CA4A0000000000000000000000000000000000DC
:10CA5A0000000000000000000000000000000000CC
:10CA6A0000000000000000000000000000000000BC
:10CA7A0000000000090000000000000000FC0100A6
:10CA8A0000FC01000000000000000000000000009F
:10CA9A0000FC010000FC0100000000000000000092
:10CAAA00000000000000000000000000000000007C
:10CABA00000000000000000000000000000000006C
:10CACA00000000000000000000000000000000005C
:10CADA00000000000000000000000000000000004C
:10CAEA000011000000000060000080610000806109
:10CAFA000C0080E10F0080FD0F00807F0000F86FBE
:10CB0A000000FC610C008CE10F0080FD0F00807FAB
:10CB1A000000F86F0000FC6100008C6100008021B9
:10CB2A00000080010000000000000000000000007A
:10CB3A0000000000000000000000000000000000EB
:10CB4A0000000000000000000000000000001100CA
:10CB5A0000000000830100C0C70300E08F030070DB
:10CB6A000C0700300C0600180C060018040600FF1B
:10CB7A00FF7F00FEFF3F0018060600180603001894
:10CB8A000603003886030070FE010070FC000000F6
:10CB9A007800000000000000000000000000000013
:10CBAA00000000000000000000000000000000007B
:10CBBA000000000000000000000000150000000056
:10CBCA00E0000000F0010000F80300001C0304006C
:10CBDA000C030E008C830F00FCC10300F8F0000068
:10CBEA00707C0000001E000080070300E08307003D
:10CBFA00F0C00F003CC00C001C600C0008600C0068
:10CC0A000060060000E0070000C003000080010089
:10CC1A00000000000000000000000000000000000A
:10CC2A000000000000000000160000000000E00301
:10CC3A000000F0070000F80700701C0E00F80E0C48
:10CC4A0000F80F0C00DC070C008C070C000C0F0C12
:10CC5A00000C1F06008C1F0600CC390700F8710370
:10CC6A0000F8F0030070E0010000E0010000F803A2
:10CC7A0000003C070000180E0000000E000000072C
:10CC8A00000000000000000000000000000000009A
:10CC9A000000000000040000000000000000FC0189
:10CCAA000000FC010000000000000000000000007D
:10CCBA00000000000000000000000000000000006A
:10CCCA00000000000000000000000000000000005A
:10CCDA00000000000000000000000000000000004A
:10CCEA00000000000000000000000000000000003A
:10CCFA00000000000000000000000000000000002A
:10CD0A0000000B000000000000000000FC0300000F
:10CD1A00FF1F00C0FF3F00E003FC00F000E0013805
:10CD2A0000C0013C0080031C0080030800000000D2
:10CD3A0000000000000000000000000000000000E9
:10CD4A0000000000000000000000000000000000D9
:10CD5A0000000000000000000000000000000000C9
:10CD6A000000000000000000000000000000000AAF
:10CD7A0000000000080000001C0080033C00800343
:10CD8A003800C001F000F001E003FC00C0FF3F00E2
:10CD9A0000FF1F0000FC030000000000000000006C
:10CDAA000000000000000000000000000000000079
:10CDBA000000000000000000000000000000000069
:10CDCA000000000000000000000000000000000059
:10CDDA000000000000000000000000000A0000003F
:10CDEA0000C0000000C00000004C020000D8030090
:10CDFA0000F0010000FC000000AC0100003003005C
:10CE0A0000300000000000000000000000000000E8
:10CE1A000000000000000000000000000000000008
:10CE2A0000000000000000000000000000000000F8
:10CE3A0000000000000000000000000000000000E8
:10CE4A000000000000000000000E0000000000408A
:10CE5A000000006000000060000000600000006048
:10CE6A00000000FF0F0000FF0F0000FF0F0000602E
:10CE7A000000006000000060000000600000006028
:10CE8A000000000000000000000000000000000098
:10CE9A000000000000000000000000000000000088
:10CEAA000000000000000000000000000000000078
:10CEBA0000000000000005000000000000660000FD
:10CECA00006F0000003F0000001E0000000000008C
:10CEDA000000000000000000000000000000000048
:10CEEA000000000000000000000000000000000038
:10CEFA000000000000000000000000000000000028
:10CF0A000000000000000000000000000000000017
:10CF1A000000000000000000000000000000000007
:10CF2A000000000A0000000000300000007000004D
:10CF3A000030000000300000003000000030000027
:10CF4A000030000000300000003000000000000047
:10CF5A0000000000000000000000000000000000C7
:10CF6A0000000000000000000000000000000000B7
:10CF7A0000000000000000000000000000000000A7
:10CF8A000000000000000000000000000000000097
:10CF9A0005000000000000000000000E0000000F65
:10CFAA000000000700000000000000000000000070
:10CFBA000000000000000000000000000000000067
:10CFCA000000000000000000000000000000000057
:10CFDA000000000000000000000000000000000047
:10CFEA000000000000000000000000000000000037
:10CFFA00000000000000000000000000000B00001C
:10D00A0000000000040000000F0000C00F0000F83C
:10D01A000100007E0000801F0000E0070000FC0104
:10D02A0000007C0000001C0000000000000000005E
:10D03A0000000000000000000000000000000000E6
:10D04A0000000000000000000000000000000000D6
:10D05A0000000000000000000000000000000000C6
:10D06A0000000000000000000000160000000000A0
:10D07A00F8010000FF030080FF0700C0030700E07B
:10D08A00010E0070000C0030000C0038000C001873
:10D09A00000C0008000C000C000C000C0006000C30
:10D0AA000006000C0007000C0003001C8003001897
:10D0BA00C0010038F00000F07F0000E03F0000C02F
:10D0CA000F00000000000000000000000000000047
:10D0DA000000000000000010000000000000000036
:10D0EA0000000000000000000001000080030000B2
:10D0FA00C0030000C0010000E0000000E0000000E2
:10D10A00700000007000000038000000F8FF0F00F7
:10D11A00FCFF0F00FCFF0F000000000000000000F1
:10D12A0000000000000000000000000000000000F5
:10D13A0000000000000000000000000000000000E5
:10D14A0000000000140000000000000000000000C1
:10D15A0000E0000E00E0000F00F0C00F0038E00D04
:10D16A000018E00C0018700C000C300C000C380C85
:10D17A00000C380C000C1C0C000C1C0C000C0C0CC9
:10D18A00000C0E0C00180F0C00F8070E00F8030F25
:10D19A0000E0010E00000000000000000000000096
:10D1AA000000000000000000000000000000000075
:10D1BA000015000000000000000000C003007CC051
:10D1CA0007007CC007007C000E000C000C000C005D
:10D1DA000C000C0E0C000C060C000C070C000C07C3
:10D1EA000C008C030C00CC030600EC0306007C0345
:10D1FA0006003C0303001CC703000CFE010000FEEE
:10D20A000000007C00000000000000000000000098
:10D21A0000000000000000000000000000001600EE
:10D22A00C0000000E0000000F0000000F80000006C
:10D23A00F8000000FC000000EE000000670000801B
:10D24A00630000C0610000E0600000706000003808
:10D25A00700000FCFF0F00FCFF0F00FCFF0F000036
:10D26A0030000000300000003000000038000000EC
:10D27A003800000038000000000000000000000034
:10D28A00000000000000000000000015000000007F
:10D29A000000000000080300F81F0700F81F07003D
:10D2AA00F80D0E00080E0C0008060C0008060C000B
:10D2BA0008020C0008030C0008030C0008030C0009
:10D2CA00080306000C0306000C0307000C07030002
:10D2DA000CC603000CFE010000FC000000780000F0
:10D2EA000000000000000000000000000000000034
:10D2FA000000000000000000160000000000780096
:10D30A000000FE030080FF0300C0C70700E0E1073A
:10D31A000060700E0070300C0038380C00181C0CBD
:10D32A0000180C0C000C0C0C000C060C000C060E61
:10D33A00000C0606000C0606000C0607000C060385
:10D34A0000388E030078FC010030FC0000007800F1
:10D35A0000000000000000000000000000000000C3
:10D36A00000000000016000000000000000000009D
:10D37A000000F8010000FC010000FC0000000C00A5
:10D38A0000000C0000000C0000000C000E000C80D5
:10D39A000F000CE007000CF001000CFC00000C3E32
:10D3AA0000008C1F0000EC070000FC030000FC00DA
:10D3BA0000003C0000000C00000004000000000017
:10D3CA000000000000000000000000000000000053
:10D3DA000000160000000000C0010000E003000089
:10D3EA00F00700C0790600F03B0E00F81F0C003869
:10D3FA000E0C00180C0C001C0C0C000C060C000C7B
:10D40A00060C000C0606000C0606000C0606001C9C
:10D41A00070300F8070300F886030070CE01000036
:10D42A00FC000000FC0000003800000000000000C2
:10D43A0000000000000000000000000000000016CC
:10D44A00000000000000010080830300E08707005D
:10D45A00F00F0700700C0E00381C0C0018180C0096
:10D46A001C180C000C180C000C180C000C180C00E2
:10D47A000C1804000C0C06000C0C06001C0C07000F
:10D48A001886030038C70300F0E30100F0FF00002C
:10D49A00E07F0000001F0000000000000000000004
:10D4AA00000000000000000000000000050000006D
:10D4BA000000000000000C0E00001E0F00000C0708
:10D4CA000000000000000000000000000000000052
:10D4DA000000000000000000000000000000000042
:10D4EA000000000000000000000000000000000032
:10D4FA000000000000000000000000000000000022
:10D50A000000000000000000000000000000000011
:10D51A0000000000000000000005000000000000FC
:10D52A006600000C6F00001E3F00000E1E00000087
:10D53A0000000000000000000000000000000000E1
:10D54A0000000000000000000000000000000000D1
:10D55A0000000000000000000000000000000000C1
:10D56A0000000000000000000000000000000000B1
:10D57A0000000000000000000000000000000000A1
:10D58A000000000000000D00000000000000000084
:10D59A006000000070000000F0000000F8010000C8
:10D5AA00D80100009C0300000C0300000E070000D5
:10D5BA00070E0000070E0000020200000000000033
:10D5CA000000000000000000000000000000000051
:10D5DA000000000000000000000000000000000041
:10D5EA000000000000000000000000000000000031
:10D5FA000000000D00000000008C0100008C0100FA
:10D60A00008C0100008C0100008C0100008C0100DC
:10D61A00008C0100008C0100008C0100008C0100CC
:10D62A00008C0100008C01000000000000000000D6
:10D63A0000000000000000000000000000000000E0
:10D64A0000000000000000000000000000000000D0
:10D65A0000000000000000000000000000000000C0
:10D66A000D00000000000000000002020000070E8A
:10D67A000000070E00000E0700000C0300009C03C8
:10D68A000000D8010000F8010000F000000070005E
:10D69A000000600000000000000000000000000020
:10D6AA000000000000000000000000000000000070
:10D6BA000000000000000000000000000000000060
:10D6CA000000000000000000000000000010000040
:10D6DA0000002000000070000000F00000007870D8
:10D6EA00000018F8000018FC1C000CDC1E000CCE10
:10D6FA000E000CC700000CF700008C730000DC2140
:10D70A000000F8010000F8000000700000000000AE
:10D71A0000000000000000000000000000000000FF
:10D72A0000000000000000000000000000000000EF
:10D73A00000000000000000000001B0000000000C4
:10D74A0080070000E01F0000783800001C3000004D
:10D75A000E70000006670000C3670080E36F008058
:10D76A00716C0080396C00C0186C00C00C6600C077
:10D77A000C36006004330060863B0060861100604E
:10D78A00C6070060FE0F0060FE0F00600E0C00600E
:10D79A00000C00C0000600C00106008083030000E0
:10D7AA00FF0100007C00001500000E0000800F0041
:10D7BA0000C00F0000F0010000780000003E0000E9
:10D7CA00001F0000801F0000E01B0000F818000086
:10D7DA007C1800007C180000F8180000E01B00000C
:10D7EA00801F0000001F0000007C000000F80100FC
:10D7FA0000E00F0000800F0000000E000000000093
:10D80A00000000000000000000000000000000000E
:10D81A0000000000150000000000000000F8FF0FE3
:10D82A0000FCFF0F00F8FF0F0018060C0018060C8A
:10D83A000018070C000C0704000C0306000C030672
:10D84A00008C0306008C030700CC030300CC0303FF
:10D85A0000FC83030078C3010038E7010000FE00E2
:10D86A0000007E0000001C00000000000000000014
:10D87A00000000000000000000000000000000009E
:10D88A00001200000000007C000000FF0100C0FF41
:10D89A000700E0830700F0000E0030000E00380099
:10D8AA000C0018000C000C000C000C000C000C0002
:10D8BA000C000C0006000C0007000C00070018C042
:10D8CA00030038C0010038C0010000000000000059
:10D8DA00000000000000000000000000000000003E
:10D8EA000000000000000000000000000000150019
:10D8FA0000000000000000FCFF0F00FCFF0F00FC0E
:10D90A00FF0F0038000C0018000C0018000C001C57
:10D91A000006000C0006000C0006000C0007000CB4
:10D92A000003000C8003000C8003001CC0010018D7
:10D93A00E0010078F80000F07F0000E01F0000C05E
:10D94A0007000000000000000000000000000000C6
:10D95A0000000000000000000000001300000000AA
:10D96A0010000000FCFF0F00FCFF0F00FCFF0F007F
:10D97A00180C0600180C0600180C0600180C0600F5
:10D98A00180C0600180C0600180C0600180C0600E5
:10D99A00180E06001C0E06001C0406001C000700D8
:10D9AA000000070000000200000000000000000064
:10D9BA00000000000000000000000000000000005D
:10D9CA00000000000000000011000000000000003C
:10D9DA0000F8FF0F00FCFF0F00FCFF0F00381C00CF
:10D9EA0000381C0000380C0000180C0000180C004D
:10D9FA0000180C0000180C0000180E00001C0E0085
:10DA0A00001C0E00001C0E00001C0000000000009C
:10DA1A0000000000000000000000000000000000FC
:10DA2A0000000000000000000000000000000000EC
:10DA3A000000000000170000000000F8000000FECF
:10DA4A00010080FF0300C0870700E0010600E00034
:10DA5A000E0070000C0030000C0038000C0018009A
:10DA6A000C0018000C000C100C000C1806000C1806
:10DA7A0006000C1806000C1803000C9803001CCCB6
:10DA8A00010018EC010038FC0000107C0000001CAA
:10DA9A00000000000000000000000000000000007C
:10DAAA0000001400000000000C0000FCFF0F00FC46
:10DABA00FF0F00FCFF0F00000E0000000E00000028
:10DACA000E0000000E0000000E0000000E00000014
:10DADA000E0000000600000006000000060000001C
:10DAEA0006000000060000FCFF0F00FCFF0F00FC10
:10DAFA00FF0F00000000000000000000000000000E
:10DB0A000000000000000000000000000000000506
:10DB1A000000000000000000FCFF0F00FCFF0F00E7
:10DB2A00FCFF0F00000000000000000000000000E1
:10DB3A0000000000000000000000000000000000DB
:10DB4A0000000000000000000000000000000000CB
:10DB5A0000000000000000000000000000000000BB
:10DB6A0000000000000000000000000000000000AB
:10DB7A00000000000000000000000000100000008B
:10DB8A00000080030000C0070000C00F0000001C56
:10DB9A00000000180000001800000018000000181B
:10DBAA00000000180000001C0000000E0000000F1A
:10DBBA0000FCFF0700FCFF0300FCFF01000000005F
:10DBCA00000000000000000000000000000000004B
:10DBDA00000000000000000000000000000000003B
:10DBEA000000000000000000001300000000000018
:10DBFA000000FCFF0F00FCFF0F00FCFF0F00800F6E
:10DC0A000000800F0000C01D0000E0380000E0782E
:10DC1A0000007070000030E0000038C0010018C039
:10DC2A0003000C8003000C00070000000E00000037
:10DC3A000E000000040000000000000000000000C8
:10DC4A0000000000000000000000000000000000CA
:10DC5A000000000000000F0000000000000000FCAF
:10DC6A00FF0F00FCFF0F00FCFF0F0000000E00007A
:10DC7A00000E00000006000000060000000600007A
:10DC8A00000600000007000000070000000700006F
:10DC9A000007000000000000000000000000000073
:10DCAA00000000000000000000000000000000006A
:10DCBA00000000000000000000000000000000005A
:10DCCA00000000190000000000000000F8FF0F002B
:10DCDA00FCFF0F00FCFF0F00F0010000C003000072
:10DCEA00800F0000001E0000007C000000F8010008
:10DCFA0000E0070000800F0000800F0000E007002E
:10DD0A0000F0010000F80000003C0000001E0000C6
:10DD1A00000F0000C0030000E0010000FCFF0F003C
:10DD2A00FCFF0F00FCFF0F000000000000000000D5
:10DD3A00130000000000000000FCFF0F00FCFF0FB2
:10DD4A0000FCFF0F00F0010000C003000080070084
:10DD5A0000000F0000001E0000003C000000380018
:10DD6A00000070000000F0000000E0010000C003A5
:10DD7A0000FCFF0700FCFF0F00FCFF0F0000000083
:10DD8A000000000000000000000000000000000089
:10DD9A000000000000000000000000000015000064
:10DDAA00000000F8000000FE010080FF0300C083AD
:10DDBA000700E001060070000E0030000C00380079
:10DDCA000C0018000C000C000C000C000C000C00DD
:10DDDA0006000C0006000C0007001C00030018C017
:10DDEA00030078E00100F0FF0000E07F0000801FE0
:10DDFA000000000000000000000000000000000019
:10DE0A00000000000000000000001300000000C035
:10DE1A00000000FCFF0F00FCFF0F00FCFF0F0038A2
:10DE2A001C0000380C0000180C0000180C00000838
:10DE3A000E00000C0E00000C0600000C0700000C7F
:10DE4A000300008C030000CC010000FC010000F874
:10DE5A000000003800000000000000000000000080
:10DE6A0000000000000000000000000000000000A8
:10DE7A0000000000000000170000000000F8000089
:10DE8A0000FE030080FF0700C0070700E0010E0044
:10DE9A00E0000C0070000C0030000C0018000C00B0
:10DEAA0018000C000C200C000C700E000CF0060080
:10DEBA000CE006000CC007001CC003001CC00700D1
:10DECA0078F00700F0FF0E00E03F1C00C00F1C00B6
:10DEDA000000080000000000000000000000000030
:10DEEA00000000001500000000E0000000FCFF0F29
:10DEFA0000FCFF0F00FCFF0F00381C0000183E005A
:10DF0A0000183E0000187600000C7600000CE600AF
:10DF1A00000CE300000CC300008CC301008C8101DB
:10DF2A0000CC810300FC000300F80007003800065B
:10DF3A000000000E0000000E0000000000000000BB
:10DF4A0000000000000000000000000000000000C7
:10DF5A0000150000000000070300C0870700E00F5B
:10DF6A000700700C0E00300C0C00180C0C00180C7A
:10DF7A000C00180C0C000C040C000C040C000C0611
:10DF8A000E000C0606000C0606000C0607001C060E
:10DF9A0007003886030038C6030010FE010000FCA3
:10DFAA00000000380000000000000000000000002F
:10DFBA000000000000000000000000000000123015
:10DFCA000000003000000030000000300000003087
:10DFDA000000001000000010000000F8FF0F00F819
:10DFEA00FF0F00F8FF0F00180000000800000008EB
:10DFFA00000000080000000C0000000C0000000CEB
:10E00A000000000C000000000000000000000000FA
:10E01A0000000000000000000000000000000000F6
:10E02A0000000000000000000000001200000000D4
:10E03A0000000000FCFF0300FCFF0700F8FF0700D8
:10E04A0000000E0000000C0000000C0000000C0094
:10E05A0000000C0000000C0000000E00000006008A
:10E06A000000070000000700FCFF0300FCFF01009E
:10E07A00FCFF00000000000000000000000000009B
:10E08A000000000000000000000000000000000086
:10E09A00000000000000000013000000003C000027
:10E0AA0000FC010000F8070000C01F0000007F000C
:10E0BA000000F80F0000C00F0000C00F0000F000C1
:10E0CA0000007C0000001E0000000F0000C00300DA
:10E0DA0000E0010000F0000000780000003C0000B1
:10E0EA00001800000000000000000000000000000E
:10E0FA000000000000000000000000000000000016
:10E10A0000000000001B000000007C000000FC036F
:10E11A000000FC1F000000FF000000F80F0000E0F4
:10E12A000F0000C00F0000F0010000780000003E60
:10E13A000000800F0000F8030000F8000000F80358
:10E14A000000800F0000003E000000FC000000F00C
:10E15A00070000800F0000C00F0000F80300007ED7
:10E16A000000801F0000FC070000FC0100003C00CA
:10E17A00000011000004001C000E003C000F007C8F
:10E18A00C00700F8E00300F0F10000C07B00008047
:10E19A003F0000001F0000001F0000C07F0000E0D9
:10E1AA00F10000F0E0010078C003003C800F001C81
:10E1BA00000F00180004000000000000000000002A
:10E1CA000000000000000000000000000000000045
:10E1DA000000000000000000000000000000001520
:10E1EA00180000001C0000003C000000780000003D
:10E1FA00F0000000E0010000C00100008003000000
:10E20A000007000000FF0F0000FE0F0000FE0F00D5
:10E21A000007000080030000C0010000E0010000C8
:10E22A00E000000070000000380000003C00000020
:10E23A001C000000000000000000000000000000B8
:10E24A0000000000000000000000000014000000B0
:10E25A000000000E0038000F003C800F001CC00FA9
:10E26A00000CC00D000CE00C000C700C000C380CFB
:10E27A00000C3C0C000C1E0C000C0F0C008C070C44
:10E28A0000CC030C00EC010C00EC000C00FC000CB0
:10E29A00007C000E003C000F001C0006000000007D
:10E2AA000000000000000000000000000000000064
:10E2BA000000000000000000000C00000000000048
:10E2CA00000000000000F8FFFF03FCFFFF03FCFF53
:10E2DA00FF030C0000030C0000030C0000030C00F9
:10E2EA0000030C0080030000000100000000000091
:10E2FA000000000000000000000000000000000014
:10E30A000000000000000000000000000000000003
:10E31A0000000000000000000000000000000000F3
:10E32A000000000000000B080000001C0000007C38
:10E33A00000000F0010000C0070000001F000000FC
:10E34A007C000000F0010000C00F0000000F000078
:10E35A0000040000000000000000000000000000AF
:10E36A0000000000000000000000000000000000A3
:10E37A000000000000000000000000000000000093
:10E38A000000000000000000000000000000000083
:10E39A0000000009000000000C0000030C0000034C
:10E3AA000C0000030C0000030C000003FCFFFF0339
:10E3BA00FCFFFF03FCFFFF03000000000000000059
:10E3CA000000000000000000000000000000000043
:10E3DA000000000000000000000000000000000033
:10E3EA000000000000000000000000000000000023
:10E3FA000000000000000000000000000000000013
:10E40A000D000000000001000080030000C00300AE
:10E41A0000E0010000F0000000780000001C00008D
:10E42A00007C000000F0000000E0030000C00300D0
:10E43A0000000300000000000000000000000000CF
:10E44A0000000000000000000000000000000000C2
:10E45A0000000000000000000000000000000000B2
:10E46A00000000000000000000000000000D000095
:10E47A00C0000000C0000000C0000000C000000092
:10E48A00C0000000C0000000C0000000C000000082
:10E49A00C0000000C0000000C0000000C000000072
:10E4AA00C0000000000000000000000000000000A2
:10E4BA000000000000000000000000000000000052
:10E4CA000000000000000000000000000000000042
:10E4DA00000000000000000000000800000000002A
:10E4EA000000000C0000001C0000001800000030B2
:10E4FA000000006000000060000000000000000052
:10E50A000000000000000000000000000000000001
:10E51A0000000000000000000000000000000000F1
:10E52A0000000000000000000000000000000000E1
:10E53A0000000000000000000000000000000000D1
:10E54A00000000000000000F0000000000000600AC
:10E55A0000800F0000CC0F0000CE0C0000C60C009B
:10E56A0000660C0000630400002306000033060066
:10E57A000033030000B3010000FF0F0000FE0F008C
:10E58A0000FE0F0000000000000000000000000074
:10E59A000000000000000000000000000000000071
:10E5AA000000000000000000000000000000000061
:10E5BA0000000000100000000000000000FCFF0F37
:10E5CA0000FCFF0F00FCFF0F00001C0C00000E0CEB
:10E5DA00000006060000060600000203000083038E
:10E5EA000000C3010000E30000007F0000003F00BC
:10E5FA0000000E0000000000000000000000000003
:10E60A000000000000000000000000000000000000
:10E61A0000000000000000000000000000000000F0
:10E62A00000F0000000000E0030000F0070000F8FF
:10E63A000700003C0E00000E0C0000060C0000074C
:10E64A000C0000030C0000030C000003060000038A
:10E65A00070000870700008603000086010000000B
:10E66A0000000000000000000000000000000000A0
:10E67A000000000000000000000000000000000090
:10E68A000000000000000000000000000000100070
:10E69A000000000080070000C0070000E00F000033
:10E6AA00780C0000380C00001C0C00000C0C000058
:10E6BA000C060000060600000603000086030000A0
:10E6CA00C60100FCFF0F00FCFF0F00FCFF0F00005B
:10E6DA000000000000000000000000000000000030
:10E6EA000000000000000000000000000000000020
:10E6FA000000000000000000000000100000000000
:10E70A0000C0030000F0070000F80F00007C0E00B4
:10E71A00006C0C0000660C0000660C0000330C0054
:10E72A0000330C0000330E000033060000330600ED
:10E73A00009E0300009E0300000C01000000000080
:10E74A0000000000000000000000000000000000BF
:10E75A0000000000000000000000000000000000AF
:10E76A0000000000000000000D00040000000C0082
:10E77A0000000C0000000C0000C0FF0F00F0FF0FAB
:10E78A0000F8FF0F001C0600000C0600000C060033
:10E79A00000C0600003807000018070000000000FF
:10E7AA00000000000000000000000000000000005F
:10E7BA00000000000000000000000000000000004F
:10E7CA00000000000000000000000000000000003F
:10E7DA0000000000000F000000000080070000E0B9
:10E7EA000F0000F0CF010078CC01001C8C03000C54
:10E7FA000C0300060603000607030002030300C316
:10E80A00830300F3C00100FFFF0100FFFF0000FFC8
:10E81A003F000000000000000000000000000000AF
:10E82A0000000000000000000000000000000000DE
:10E83A0000000000000000000000000000000000CE
:10E84A0000000F0000000000000000FCFF0F00FCA9
:10E85A00FF0F00FCFF0F00001C0000000E0000006C
:10E86A00060000000600000003000000030000008C
:10E87A0003000000FF0F0000FF0F0000FE0F000062
:10E88A00000000000000000000000000000000007E
:10E89A00000000000000000000000000000000006E
:10E8AA000000000000000000000000000000000559
:10E8BA00000000000000000070FF0F0078FF0F004A
:10E8CA0038FF0F00000000000000000000000000F8
:10E8DA00000000000000000000000000000000002E
:10E8EA00000000000000000000000000000000001E
:10E8FA00000000000000000000000000000000000E
:10E90A0000000000000000000000000000000000FD
:10E91A0000000000000000000000000006000000E7
:10E92A00060000000700FFFF0318FFFF033CFFFF7C
:10E93A00011C0000000000000000000000000000B0
:10E94A0000000000000000000000000000000000BD
:10E95A0000000000000000000000000000000000AD
:10E96A00000000000000000000000000000000009D
:10E97A00000000000000000000000000000000008D
:10E98A000000000000000000000E0000000000006F
:10E99A000000FCFF0F00FCFF0F00FCFF0F000070DF
:10E9AA00000000F8000000DC010000DC0100008E1D
:10E9BA000300000707008007070080030E0000011C
:10E9CA000C00000000000000000000000000000031
:10E9DA00000000000000000000000000000000002D
:10E9EA00000000000000000000000000000000001D
:10E9FA00000000000000050000000000000000FC0C
:10EA0A00FF0F00FCFF0F00FCFF0F000000000000DA
:10EA1A0000000000000000000000000000000000EC
:10EA2A0000000000000000000000000000000000DC
:10EA3A0000000000000000000000000000000000CC
:10EA4A0000000000000000000000000000000000BC
:10EA5A0000000000000000000000000000000000AC
:10EA6A0000000018000000000000000000FF0F0076
:10EA7A0000FF0F0000FF0F00001C0000000C000048
:10EA8A00000600000006000000020000000300006B
:10EA9A0000FF0F0000FF0F0000FE0F00001800002B
:10EAAA00000C0000000C000000060000000200003C
:10EABA00000300000003000000FF0F0000FF0F002A
:10EACA0000FE0F000000000000000000000000002F
:10EADA000F000000000000000000FF0F0000FF0F01
:10EAEA000000FF0F00001C0000000C0000000E00D8
:10EAFA0000000600000002000000030000000300FE
:10EB0A000000FF0F0000FF0F0000FE0F00000000D2
:10EB1A0000000000000000000000000000000000EB
:10EB2A0000000000000000000000000000000000DB
:10EB3A0000000000000000000000000000100000BB
:10EB4A00000000C0030000F0070000F80700001CE6
:10EB5A000E00000E0C0000060C0000060C0000035C
:10EB6A000C0000030E0000030600000307000087E4
:10EB7A00030000FE010000FE000000780000000013
:10EB8A00000000000000000000000000000000007B
:10EB9A00000000000000000000000000000000006B
:10EBAA00000000000000000000001100000000004A
:10EBBA0000000000FFFF0F00FFFF0F00FFFF0F0024
:10EBCA00380C00001C0C00000E0C0000060C0000A3
:10EBDA00030E000003060000030700008303000081
:10EBEA00C7030000FF010000FE0000003C00000017
:10EBFA00000000000000000000000000000000000B
:10EC0A0000000000000000000000000000000000FA
:10EC1A0000000000000000140000000000E00300F3
:10EC2A0000F0070000F80F00001C0E00000E0C0098
:10EC3A0000060C0000070C00000306000003070092
:10EC4A000083030000C3010000F3000000FFFF0778
:10EC5A0000FFFF0F00FEFF0F000000060000000388
:10EC6A000000800300008001000000000000000096
:10EC7A00000000000000000000000000000000008A
:10EC8A00000000000D000000000000000000FF0F5F
:10EC9A000000FF0F0000FF0F0000180000000C002A
:10ECAA0000000600000002000000030000001F0030
:10ECBA0000001F0000000E0000000000000000001D
:10ECCA00000000000000000000000000000000003A
:10ECDA00000000000000000000000000000000002A
:10ECEA00000000000000000000000000000000001A
:10ECFA0000110000000000380600007C0700007CBC
:10ED0A000600006E0C0000660C0000660C00006332
:10ED1A000C0000230C0000330C0000330600003303
:10ED2A000600003306000033030000F2030000E08F
:10ED3A00010000E0000000000000000000000000E8
:10ED4A0000000000000000000000000000000000B9
:10ED5A000000000000000000000000000000110098
:10ED6A000000000006000000060000000600000087
:10ED7A00070000E0FF0700E0FF0F00E0FF0F0000C0
:10ED8A00030C0000030C00000304000003060080CB
:10ED9A000107008001030000C1030000C001000058
:10EDAA0080000000000000000000000000000000D9
:10EDBA000000000000000000000000000000000049
:10EDCA0000000000000000000000000F000000002A
:10EDDA000000000000FF070000FF070000FF0F000F
:10EDEA0000000C0000000C0000000C0000000600EF
:10EDFA0000000600000007000080030000FF0F006B
:10EE0A0000FF0F0000FF0F000000000000000000DC
:10EE1A0000000000000000000000000000000000E8
:10EE2A0000000000000000000000000000000000D8
:10EE3A0000000000000000000F00060000001F0094
:10EE4A0000007F000000FE030000E00F0000800FBA
:10EE5A000000000F0000C0070000E0010000F00001
:10EE6A0000003C0000001E0000000F000000070028
:10EE7A000000030000000000000000000000000085
:10EE8A000000000000000000000000000000000078
:10EE9A000000000000000000000000000000000068
:10EEAA000000000000160000000000070000001F1C
:10EEBA00000000FF000000F0070000C00F00000083
:10EECA000F0000C0070000E0010000F80000003F4A
:10EEDA000000001F0000007F000000F8010000E0B1
:10EEEA00070000800F0000800F0000E0030000F020
:10EEFA000100007E0000001F000000070000000063
:10EF0A0000000000000000000000000000000000F7
:10EF1A0000000F000000000002060000070E0000BB
:10EF2A000F0700009C030000F8010000F801000030
:10EF3A00F0000000F0000000F8010000DC01000011
:10EF4A008E03000007070000070E0000000C0000F7
:10EF5A0000000000000000000000000000000000A7
:10EF6A000000000000000000000000000000000097
:10EF7A000000000000000000000000000000001077
:10EF8A000002E0000007E001001F8001003E80014E
:10EF9A000078800100F0C00100E0E1000080F70085
:10EFAA0000007F0000001F0000C00F0000F00300F7
:10EFBA0000FC0000003F0000000F000000030000FA
:10EFCA000000000000000000000000000000000037
:10EFDA000000000000000000000000000000000027
:10EFEA000000000000000000000000000F00000800
:10EFFA0000000E0C00000E0E0000060F0000060FA7
:10F00A000000860F0000C60D0000E60C0000760C1A
:10F01A0000003E0C00003E0C00001E0C00000E0C0E
:10F02A000000070E0000030E0000000000000000B0
:10F03A0000000000000000000000000000000000C6
:10F04A0000000000000000000000000000000000B6
:10F05A000000000000000000000D00000000006039
:10F06A000000006000000060000000E0000000F006
:10F07A00FF01E0FFFF01F81FFF03F80F00031C0068
:10F08A0000030C0000030C0000030C000001000048
:10F09A000000000000000000000000000000000066
:10F0AA000000000000000000000000000000000056
:10F0BA000000000000000000000000000000000046
:10F0CA00000000000000050000000000000000FF32
:10F0DA00FFFF07FFFFFF07FFFFFF07000000000019
:10F0EA000000000000000000000000000000000016
:10F0FA000000000000000000000000000000000006
:10F10A0000000000000000000000000000000000F5
:10F11A0000000000000000000000000000000000E5
:10F12A0000000000000000000000000000000000D5
:10F13A000000000C080000030C0000030C00000390
:10F14A000C0080030C00FF01FC8FFF01F8FF7F0019
:10F15A00F0FF000000700000006000000060000086
:10F16A000060000000000000000000000000000035
:10F17A000000000000000000000000000000000085
:10F18A000000000000000000000000000000000075
:10F19A000000000000000000000000000000000065
:10F1AA000D000000000080000000E0010000E00007
:10F1BA000000300000003000000070000000600015
:10F1CA000000C0000000C0000000E000000078005D
:10F1DA0000003800000000000000000000000000ED
:10F1EA000000000000000000000000000000000015
:10F1FA000000000000000000000000000000000005
:10F20A0000000000000000000000000000080000EC
:10F21A000000FEFF1F00FEFF1F0002001000020098
:10F22A00100002001000FEFF1F00FEFF1F0000007A
:10F23A0000000000000000000000000000000000C4
:10F24A0000000000000000000000000000000000B4
:10F25A0000000000000000000000000000000000A4
:10F26A000000000000000000000000000000000094
:10F27A00000000000000000000000600000000007E
:10F28A000000000000000000000000000000000074
:10F29A00000200007E0300000000000000000000E1
:10F2AA0000000000000000000400000F0000000F32
:10F2BA00000000000000000000000000000000083C
:10F2CA00000040004803F8004E03F8004E00080012
:10F2DA000000000000000618022402FF0F44024446
:10F2EA00028401000000000000000000000B000082
:10F2FA001C00220022029C0160001000CC012202A4
:10F30A002002C00108CC0132022202220252028CDF
:10F31A0001E00100020000000000000200000F00EE
:10F32A0000000000000000000000000000000000D3
:10F33A000000050000F0010C0602080110000000A0
:10F34A0000000000000000000004011002080C0682
:10F35A00F0010000000000000000000000000000B2
:10F36A000600000A0004001F0004000A0000000052
:10F37A000000000000000007200020002000FC011F
:10F38A002000200020000000000000000000020011
:10F39A000800070000000000000000000000000054
:10F3AA0000000000000420002000200020000000CF
:10F3BA000000000000000000000000000200000041
:10F3CA000300000000000000000000000000000030
:10F3DA0000000005000C800360001C000300000010
:10F3EA000000000000000000000006FC010202020A
:10F3FA000202020202FC01000000000000000000FC
:10F40A000006000004020402FE03000200020000DB
:10F41A0000000000000000000604038202420242CB
:10F42A000222021C02000000000000000000000688
:10F43A0004010202220222022202DC010000000070
:10F44A00000000000000066000500048004400FE72
:10F45A0003400000000000000000000000061E013A
:10F46A001202120212021202E2010000000000005F
:10F47A000000000006F8011402120212021202E051
:10F48A000100000000000000000000060200020265
:10F49A00820162001A00060000000000000000005D
:10F4AA00000006DC012202220222022202DC010002
:10F4BA00000000000000000000063C004202420278
:10F4CA0042024201FC0000000000000000000000AF
:10F4DA000300000000180300000000000000000004
:10F4EA0000000000000000030000000818070000E8
:10F4FA0000000000000000000000000000000800FA
:10F50A0000200020005000500088008800040100FC
:10F51A000000000000080000900090009000900099
:10F52A009000900090000000000000000800000415
:10F53A0001880088005000500020002000000000D0
:10F54A000000000504004203220012000C00000023
:10F55A00000000000000000000000BF0000C030493
:10F56A0002F2040A050A050A05FA0504010C01F06B
:10F57A0000070003E000980086009800E0000003FE
:10F58A00000000000000000006FE03220222022200
:10F59A00023C02C001000000000000000000000759
:10F5AA00F80004010202020202020202040100003F
:10F5BA0000000000000007FE03020202020202022B
:10F5CA00020401F800000000000000000006FE032B
:10F5DA00220222022202220222020000000000006D
:10F5EA000000000006FE0322002200220022002260
:10F5FA00000000000000000000000007F8000401FD
:10F60A000202020242024202C40300000000000099
:10F61A00000007FE0320002000200020002000FE3A
:10F62A00030000000000000000030202FE030202C1
:10F63A0000000000000000000000000000000000C0
:10F64A0004000202020202FE0100000000000000A3
:10F65A000000000000000006FE03200050008800A1
:10F66A00040102020000000000000000000005FE84
:10F67A000300020002000200020000000000000075
:10F68A00000000000009FE03060018006000800167
:10F69A00600018000600FE030000000007FE0306D3
:10F6AA000018002000C0000003FE03000000000054
:10F6BA0000000008F800040102020202020202022B
:10F6CA000401F80000000000000006FE03220022E8
:10F6DA0000220022001C00000000000000000000C0
:10F6EA000008F8000401020202020206020A0409E2
:10F6FA00F80800000000000007FE03220022006252
:10F70A0000A2001C01000200000000000000000727
:10F71A001C0122022202220222022202C401000049
:10F72A0000000000000007020002000200FE0302BF
:10F73A000002000200000000000000000007FE00B6
:10F74A0000010002000200020001FE0000000000A9
:10F75A0000000000070E003000C0000003C00030A7
:10F76A00000E0000000000000000000B1E00E00177
:10F77A000002C001380006003800C0010002E001A2
:10F78A001E000702020401D8002000D8000401026A
:10F79A000200000000000000000702000C00100038
:10F7AA00E00310000C00020000000000000000004E
:10F7BA000602038202620212020A02060200000024
:10F7CA0000000000000000040000FF0F010801080B
:10F7DA000000000000000000000000000000050317
:10F7EA00001C0060008003000C0000000000000004
:10F7FA00000000000004000001080108FF0F0000DB
:10F80A0000000000000000000000000009000010D5
:10F81A0000080004000200020004000800100000B2
:10F82A000000000700080008000800080008000897
:10F83A0000080000000000000000050000000000B1
:10F84A0000010002000000000000000000000000AB
:10F85A00000680014802480248024801F0030000FD
:10F86A00000000000000000006FF03100208020862
:10F87A00020802F00100000000000000000000057C
:10F88A00F001080208020802080200000000000055
:10F89A0000000000000006F0010802080208020841
:10F8AA0001FF030000000000000000000006F00154
:10F8BA0048024802480248027001000000000000A5
:10F8CA0000000000050800FE03090009000100000D
:10F8DA00000000000000000000000006F00108120D
:10F8EA00081208120811F80F0000000000000000BA
:10F8FA00000006FF031000080008000800F00300DB
:10F90A00000000000000000000020000FA030000EE
:10F91A0000000000000000000000000000000000DD
:10F92A000300100810FA0F00000000000000000099
:10F93A000000000000000005FF034000A0001001C5
:10F94A0008020000000000000000000000000200A1
:10F95A0000FF03000000000000000000000000009B
:10F96A0000000000000A0000F80310000800080068
:10F97A00F003100008000800F003000006F8031066
:10F98A0000080008000800F0030000000000000062
:10F99A0000000006F0010802080208020802F0014D
:10F9AA000000000000000000000006F81F10020816
:10F9BA000208020802F00100000000000000000036
:10F9CA000006F0010802080208020801F81F0000F8
:10F9DA00000000000000000004F8031000080008FE
:10F9EA000000000000000000000000000000000508
:10F9FA00300148024802480290010000000000005D
:10FA0A00000000000000040800FE010802080200CD
:10FA1A000000000000000000000000000006F801DD
:10FA2A000002000200020001F803000000000000CA
:10FA3A0000000000051800E0000003E000180000C4
:10FA4A000000000000000000000000091800E000AB
:10FA5A000003E0001800E0000003E00018000000C6
:10FA6A000000050802B0014000B0010802000000D1
:10FA7A00000000000000000000051800E018000760
:10FA8A00E000180000000000000000000000000074
:10FA9A000508038802480228021802000000000034
:10FAAA00000000000000000540004000BE070108F9
:10FABA000108000000000000000000000000030030
:10FACA00000000FF0F00000000000000000000001E
:10FADA0000000000000501080108BE0740004000C0
:10FAEA0000000000000000000000000008000060A4
:10FAFA00001000100020004000400030000000000C
:10FB0A0000000003FF030102FF03000000000000E1
:10FB1A0000000000000000000000050000000000D6
:10FB2A000500005F000005000700070005147F14A8
:10FB3A007F1405242A7F2A120523130864620536D6
:10FB4A004956205005080703000005001C22410001
:10FB5A00050041221C000514083E08140508083E49
:10FB6A0008080500B0700000050808080808050024
:10FB7A0060600000052010080402053E5149453E18
:10FB8A000500427F4000057249494946052141491D
:10FB9A004D33051814127F10052745454539053C94
:10FBAA004A4949310541211109070536494949366A
:10FBBA0005464949291E0500001400000500403485
:10FBCA0000000508142241000514141414140541F8
:10FBDA0022140800050201590906053E415D594EE5
:10FBEA00057C1211127C057F49494936053E41417F
:10FBFA004122057F4141413E057F49494949057FE7
:10FC0A0009090909053E41415173057F0808087F22
:10FC1A000500417F4100052040413F01057F08144E
:10FC2A002241057F40404040057F020C027F057F4C
:10FC3A000408107F053E4141413E057F0909090636
:10FC4A00053E4151215E057F091929460526494984
:10FC5A0049320501017F0101053F4040403F051F30
:10FC6A002040201F053F4038403F056314081463B5
:10FC7A0005030478040305615149454305007F41A2
:10FC8A004100050204081020050041417F000504D7
:10FC9A000201020405404040404005070B000000F5
:10FCAA00052054547840057F284444380538444494
:10FCBA00442805384444287F05385454541805000C
:10FCCA00087E09020518A4A49C78057F0804047814
:10FCDA000500447D4000052040403D00057F102876
:10FCEA0044000500417F4000057C04780478057CC7
:10FCFA000804047805384444443805FC18242418B8
:10FD0A000518242418FC057C0804040805485454E2
:10FD1A0054240504043F4424053C4040207C051C2F
:10FD2A002040201C053C4030403C05442810284413
:10FD3A00054C9090907C054464544C440500083668
:10FD4A00410005000077000005004136080005045F
:10FD5A000204080405007F417F004D6F64653A2064
:10FD6A0043686172672F44697363682F53746F72B3
:10FD7A0000566F6C3A25752E253032752F25752E53
:10FD8A002530327556004D61782054696D653A20E8
:10FD9A002530327568253032756D004D696E4469BB
:10FDAA007363566F6C3A25752E2530327556004DA1
:10FDBA006F64653A2043686172672F4469736368A8
:10FDCA00004261747420747970653A204C692D4937
:10FDDA006F6E004261747420747970653A204E69BE
:10FDEA002D4D4800547269636B6C65566F6C3A25E9
:10FDFA003032755600547269636B6C654375723A9A
:10FE0A0025756D41002530327568253032756D25AE
:10FE1A0030327573004469736343757220323A2530
:10FE2A00752525004368726743757220323A257535
:10FE3A002525004469736343757220333A25752575
:10FE4A0025004368726743757220333A2575252564
:10FE5A00004469736343757220343A257525250079
:10FE6A004368726743757220343A25752525004424
:10FE7A0069736343757220313A25756D4100436891
:10FE8A00726743757220313A25756D410044697372
:10FE9A006343757220323A25756D41004368726773
:10FEAA0043757220323A25756D4100446973634384
:10FEBA00757220333A25756D410043687267437540
:10FECA007220333A25756D41004469736343757234
:10FEDA0020343A25756D4100436872674375722074
:10FEEA00343A25756D41004D6F64653A2043686167
:10FEFA007267696E67004261747420747970653A3A
:10FF0A002050420043656C6C20436F756E743A252D
:10FF1A0075004F4E2F4F46463A202558200A0D00AD
:10FF2A0052455345543A202558200A0D004375720C
:10FF3A003A25752F25756D41004361703A25303495
:10FF4A00756D4168004379636C653A25752F25758F
:10FF5A0000425553593A202558200A0D0054656D20
:10FF6A00703A253032754300534156452645584963
:10FF7A0054004F7074696F6E732031004F7074694A
:10FF8A006F6E732032004F7074696F6E7320330086
:10FF9A004F7074696F6E732034004F7074696F6E9E
:10FFAA00732035004379636C653A257500424154E4
:10FFBA0020310042415420320053544152540042ED
:10FFCA0041434B004E455854004449534300494469
:10FFDA004C4500434852470054455354004D454E42
:10FFEA005500575D002E20003120002564004E0088
:05FFFA00500052000060
:020000040001F9
:10000000FDEC84F0000EBCECA0F00009D8A40BEFCE
:1000100080F00DEF80F021EF80F0010EBCECA0F03D
:100020000009D8A416EF80F018EF80F021EF80F0DF
:100030000001E851D8A41FEF80F021EF80F052EFCB
:1000400081F0010E0001E86FEA51D8A42AEF80F098
:100050002CEF80F052EF80F0FA05D8A432EF80F058
:1000600034EF80F03FEF80F0FA51D3EC8EF0000EC9
:100070000001FA6F010E0001E96F50EF81F0FA51B3
:10008000D8A445EF80F047EF80F050EF81F0FA51AF
:10009000D3EC8EF0010E0001FA6F000E0001E96F43
:1000A00050EF81F0EA05D8A458EF80F05AEF80F0C5
:1000B0008BEF80F0020EFA19D8A461EF80F063EFA5
:1000C00080F079EF80F0FA5116EC8EF0000E00010E
:1000D000FA6F000EBCECA0F00009D8B472EF80F00B
:1000E00074EF80F050EF81F0020E0001E96F50EFE5
:1000F00081F0FA51D8A47FEF80F081EF80F050EFCB
:1001000081F0FA5116EC8EF0020E0001FA6F4DEFFD
:1001100080F050EF81F0020EEA19D8B492EF80F02F
:1001200094EF80F0A6EF80F0030EEA19D8B49BEFAD
:1001300080F09DEF80F0A6EF80F0040EEA19D8A4BD
:10014000A4EF80F0A6EF80F02BEF81F0000EBCEC66
:10015000A0F00009D8B4AFEF80F0B1EF80F0B5EFB8
:1001600080F00001E707B7EF80F00001E72BE751CF
:10017000D8A4BDEF80F0BFEF80F0C3EF80F0030E96
:10018000E76FEAEF80F0040EE719D8A4CAEF80F019
:10019000CCEF80F0D0EF80F0010EE76FEAEF80F057
:1001A000040EE765D6EF80F0D8EF80F0DCEF80F04A
:1001B000020EE76FEAEF80F0EAEF80F0010EFA6FCF
:1001C00003EF81F0000EFA6F03EF81F0020EFA6F79
:1001D00003EF81F0E751806F816B8151000AD8B441
:1001E000F4EF80F003EF81F08051010AD8B4DEEF24
:1001F00080F0030AD8B4E2EF80F0010AD8B4E6EF49
:1002000080F003EF81F0FA05D8A409EF81F00BEF3D
:1002100081F010EF81F0FA510DEC87F03AEF80F0A9
:10022000FA51D8A416EF81F018EF81F01DEF81F09C
:10023000FA510DEC87F04DEF80F0020EFA19D8A4B8
:1002400024EF81F026EF81F089EF80F0FA510DEC78
:1002500087F074EF80F0050EEA19D8A432EF81F030
:1002600034EF81F050EF81F0020EFA19D8B43BEF71
:1002700081F03DEF81F042EF81F0010E59EC8DF0FD
:1002800074EF80F0020EFA19D8A449EF81F04BEF19
:1002900081F050EF81F0FA5159EC8DF03AEF80F097
:1002A0006AEC9EF0040EBCECA0F00009D8B45BEF41
:1002B00081F05DEF81F098EF82F06AEC9EF0000132
:1002C000EA51D8A466EF81F068EF81F07FEF81F00A
:1002D000E951D8A46EEF81F070EF81F098EF82F0D1
:1002E000010EEA6F000EFA6F7EC07BF07FC07CF0DB
:1002F00089EC95F0000E0001E86F98EF82F0EA05B6
:10030000D8A485EF81F087EF81F0B4EF81F0E95157
:10031000D8A48DEF81F08FEF81F09DEF81F0020E78
:10032000EA6F000EFA6F000EE86F7EC07BF07FC0B0
:100330007CF029EC95F098EF82F0020EE919D8A430
:10034000A4EF81F0A6EF81F098EF82F0000EEA6F43
:10035000010EFA6F7EC07BF07FC07CF0ECEC91F078
:100360007AEF81F098EF82F0020EEA19D8A4BBEF81
:1003700081F0BDEF81F0FAEF81F0E951D8A4C3EF2D
:1003800081F0C5EF81F0D6EF81F07EC07BF07FC0B9
:100390007CF04DEC99F0030E0001EA6F000EFA6F4D
:1003A000000EE86F020EE76F98EF82F0E905D8A41F
:1003B000DCEF81F0DEEF81F0EFEF81F0010EEA6F0C
:1003C000000EFA6F7EC07BF07FC07CF089EC95F068
:1003D000000E0001E86F010EE76F98EF82F0020E49
:1003E000E919D8A4F6EF81F0F8EF81F0B2EF81F0CF
:1003F000A6EF81F0030EEA19D8A401EF82F003EF13
:1004000082F035EF82F0E951D8A409EF82F00BEFCA
:1004100082F016EF82F07EC07CF07FC07DF09AEC17
:1004200093F0040E0001EA6FCEEF81F0E905D8A445
:100430001CEF82F01EEF82F02AEF82F0020EEA6FCC
:10044000000EFA6F7EC07BF07FC07CF029EC95F047
:10045000E8EF81F0020EE919D8A431EF82F033EF12
:1004600082F0B2EF81F0A6EF81F0040EEA19D8A471
:100470003CEF82F03EEF82F070EF82F0E951D8A4B9
:1004800044EF82F046EF82F051EF82F07EC07CF0C4
:100490007FC07DF05CEC92F0050E0001EA6FCEEFBC
:1004A00081F0E905D8A457EF82F059EF82F065EFAB
:1004B00082F0030EEA6F000EFA6F7EC07BF07FC001
:1004C0007CF04DEC99F0E8EF81F0020EE919D8A428
:1004D0006CEF82F06EEF82F0B2EF81F0A6EF81F068
:1004E000050EEA19D8A477EF82F079EF82F098EF41
:1004F00082F0E905D8A47FEF82F081EF82F08DEFE2
:1005000082F0040EEA6F020EFA6F7EC07CF07FC0AC
:100510007DF09AEC93F0E8EF81F0020EE919D8A48F
:1005200094EF82F096EF82F098EF82F0A6EF81F0E0
:1005300012000F6E000E126E12C01DF01DC01AF0D8
:100540001AC017F017C016F016C01CF01CC01BF024
:100550001BC010F010C011F011C013F013C018F040
:10056000196AD1C013F0D2C010F010C011F0200EE3
:100570000F5E0001D651D803F3CF09F0F4CF0AF093
:10058000010E0924016E000E0A20026E0FC003F056
:10059000046A38ECA1F001C014F002C015F0145048
:1005A0000001D425096E1550D5210A6E09C0F6FF49
:1005B0000AC0F7FF000EF86E0800F5CF16F0144AD7
:1005C000152AD15116241D6E7F0E1D64EAEF82F0AC
:1005D000ECEF82F0EFEF82F01D50800F165ED251EB
:1005E000070B1A6ED7511AC009F00A6A0926000EC5
:1005F0000A22D851080D0950F35CF450800A0B6EA2
:100600000A50800A0B58D8B008EF83F00AEF83F045
:100610000EEF83F0D829176E10EF83F0D8C017F0D3
:10062000D2C001F0026A000E046E080E036EC7EC21
:1006300094F0015017241D6E080E1D6422EF83F004
:1006400024EF83F027EF83F01D50F80F175E14C0DE
:1006500018F015C019F0000E1C6EEBEF84F011C0FD
:1006600002F01350ECECA1F0000E1B6EB9EF84F019
:100670001C50D8A43EEF83F040EF83F0A4EF83F04A
:100680000001DA51D8A447EF83F049EF83F065EF1A
:1006900083F0D8511B02F3CF09F0F4CF0AF00950D0
:1006A000D4250B6E0A50D5210C6E18500B2619500C
:1006B0000C220BC0F6FF0CC0F7FF000EF86E08000E
:1006C000F550FF0A1D6E7EEF83F0D8511B02F3CF69
:1006D00009F0F4CF0AF00950D4250B6E0A50D52149
:1006E0000C6E18500B2619500C220BC0F6FF0CC0D4
:1006F000F7FF000EF86E0800F5CF1DF01A28096EFE
:1007000084EF83F0D8901D36092E82EF83F000012C
:10071000DA51D8A48EEF83F090EF83F08FEF84F05E
:100720001A500808096EFF0E0A6E000E0B6E092A99
:100730009DEF83F00B340B320A32092E9AEF83F0CF
:100740000A501D128FEF84F00001DA51D8A4ABEFEC
:1007500083F0ADEF83F0D3EF83F0D8511B02F3CFDA
:1007600009F0F4CF0AF00950D4250B6E0A50D521B8
:100770000C6E1C500B26000E0C2218500B26195024
:100780000C22FF0E0B240D6EFF0E0C200E6E0DC002
:10079000F6FF0EC0F7FF000EF86E0800F550FF0AD6
:1007A0001D6EF6EF83F0D8511B02F3CF09F0F4CFA2
:1007B0000AF00950D4250B6E0A50D5210C6E1C503E
:1007C0000B26000E0C2218500B2619500C22FF0E7F
:1007D0000B240D6EFF0E0C200E6E0DC0F6FF0EC02A
:1007E000F7FF000EF86E0800F5CF1DF01A5008084C
:1007F000096E09280A6EFFEF83F0D8901D320A2E89
:10080000FDEF83F0010E0001D86509EF84F00BEFD6
:1008100084F05BEF84F0DA51D8A411EF84F013EF89
:1008200084F033EF84F0D8511B02F3CF09F0F4CFFA
:100830000AF00950D4250B6E0A50D5210C6E1C50BD
:100840000B26000E0C2218500B2619500C220BC040
:10085000F6FF0CC0F7FF000EF86E0800F550FF0A17
:10086000126E50EF84F0D8511B02F3CF09F0F4CF91
:100870000AF00950D4250B6E0A50D5210C6E1C507D
:100880000B26000E0C2218500B2619500C220BC000
:10089000F6FF0CC0F7FF000EF86E0800F5CF12F05F
:1008A0001A28096E56EF84F0D8901236092E54EFAC
:1008B00084F012501D120001DA51D8A462EF84F0C6
:1008C00064EF84F08FEF84F01C50096E0A6AFF0E0B
:1008D00017240B6E0C6AFF0E0C2209500B1807E14F
:1008E0000A500C18D8A477EF84F079EF84F08FEFDA
:1008F00084F01A50D8B47FEF84F081EF84F08FEF4A
:1009000084F01AC009F0FF0E0A6E092A8AEF84F0FB
:10091000D8900A36092E88EF84F00A501D12000183
:10092000D905D8A496EF84F098EF84F0AEEF84F068
:10093000DA51D8A49EEF84F0A0EF84F0A8EF84F001
:10094000D2C001F0D151F2ECA0F01D16AEEF84F050
:10095000D2C001F0D151F2ECA0F01D12D2C001F0D2
:100960001DC002F00001D151D8ECA0F00001D12B44
:100970001B2A16501B5CD8A0C0EF84F0C2EF84F095
:1009800038EF83F00001D951D8A4C9EF84F0CBEF40
:1009900084F0DAEF84F0DA51D8A4D1EF84F0D3EF09
:1009A00084F0D6EF84F01D68E0EF84F0000E1D6E39
:1009B000E0EF84F0D2C001F0D151F2ECA0F01D6E56
:1009C000D2C001F01DC002F00001D151D8ECA0F05E
:1009D000080E11261C2A17501C5CD8A0F2EF84F0D8
:1009E000F4EF84F02FEF83F010C002F013501624C0
:1009F000096E0928ECECA1F01200000E136E000144
:100A0000E65109E10A0EE55DD8A009EF85F00BEF8C
:100A100085F00CEF87F0FFEF86F01350090DF3CF50
:100A200008F0F4CF09F008500001EB250A6E0950D8
:100A3000EC210B6E060E0A24D96E000E0B20DA6E26
:100A400002D82DEF85F00500FA6EDE50FD6EDE5007
:100A5000FE6EDE50FF6EFA5012000009D8B433EF7C
:100A600085F036EF85F0010E37EF85F0000E126E3F
:100A70001204D8A43EEF85F040EF85F011EF86F028
:100A80001350090DF3CF08F0F4CF09F0085000011E
:100A9000EB25D96E0950EC21DA6EDFB852EF85F004
:100AA00054EF85F084EF85F0EDC001F0EE513EEC9F
:100AB0009DF0086E1350090DF3CF09F0F4CF0AF042
:100AC00009500001EB250B6E0A50EC210C6E010E53
:100AD0000B24D96E000E0C20DA6EDF2A0850DE5C83
:100AE000D8A075EF85F077EF85F084EF85F013508F
:100AF000090DF3CF08F0F4CF09F00850EB25D96EBB
:100B00000950EC21DA6EDF881350090DF3CF08F09D
:100B1000F4CF09F00850EB25D96E0950EC21DA6EBC
:100B2000DFA895EF85F097EF85F0FAEF85F0135089
:100B3000090DF3CF08F0F4CF09F00850EB25D96E7A
:100B40000950EC21DA6EDF30E832030BE806D8A456
:100B5000ACEF85F0AEEF85F0FAEF85F01350090D9C
:100B6000F3CF08F0F4CF09F00850EB250A6E0950D6
:100B7000EC210B6E040E0A24D96E000E0B20DA6EE7
:100B8000DECF01F0DDCF02F0EDC003F0046AA2EC8D
:100B90009CF01350090DF3CF0CF0F4CF0DF00C5076
:100BA0000001EB250E6E0D50EC210F6E020E0E248F
:100BB000D96E000E0F20DA6EDE2A000EDD22015003
:100BC000DE5C0250DE58D8A0E8EF85F0EAEF85F051
:100BD000FAEF85F01350090DF3CF08F0F4CF09F0C8
:100BE0000850EB25D96E0950EC21DA6EDF50FC0B72
:100BF0000209DF6E12C008F01350090DF3CF09F09F
:100C0000F4CF0AF00950EB25D96E0A50EC21DA6EC8
:100C100008460846DF500818F30B0818DF6EFEEF91
:100C200086F01250D8A417EF86F019EF86F0FEEF89
:100C300086F01350090DF3CF08F0F4CF09F00850F7
:100C40000001EB25D96E0950EC21DA6EDFA82BEFFD
:100C500086F02DEF86F0E8EF86F01350090DF3CF04
:100C600008F0F4CF09F00850EB250A6E0950EC218A
:100C70000B6E010E0A24D96E000E0B20DA6EDF50C7
:100C8000D8B445EF86F047EF86F05CEF86F013505E
:100C9000090DF3CF08F0F4CF09F00850EB250A6EE8
:100CA0000950EC210B6E010E0A24D96E000E0B20A8
:100CB000DA6EDF06FEEF86F01350090DF3CF08F071
:100CC000F4CF09F00850EB25D96E0950EC21DA6E0B
:100CD000DF981350090DF3CF08F0F4CF09F0085056
:100CE000EB250A6E0950EC210B6E040E0A24D96E16
:100CF000000E0B20DA6EDECF01F0DDCF02F0EDC08A
:100D000003F0046AA2EC9CF01350090DF3CF0CF031
:100D1000F4CF0DF00C500001EB250E6E0D50EC21C0
:100D20000F6E020E0E24D96E000E0F20DA6E0150E7
:100D3000DE5C0250DE58D8B0A0EF86F0A2EF86F05D
:100D4000CEEF86F01350090DF3CF08F0F4CF09F081
:100D50000850EB250A6E0950EC210B6E010E0A2497
:100D6000D96E000E0B20DA6EDF50D8A4BAEF86F0F1
:100D7000BCEF86F0FEEF86F01350090DF3CF08F0BC
:100D8000F4CF09F00850EB25D96E0950EC21DA6E4A
:100D9000DF50FC0B0109DF6EFEEF86F01350090DEA
:100DA000F3CF08F0F4CF09F00850EB25D96E0950C5
:100DB000EC21DA6EDF50030B020AD8A4E2EF86F0D2
:100DC000E4EF86F0E6EF86F0FEEF86F0FEEF86F0C9
:100DD0001350090DF3CF08F0F4CF09F00850EB25BC
:100DE0000A6E0950EC210B6E020E0A24D96E000E19
:100DF0000B20DA6E000EDE6E000EDD6E132A040E7E
:100E0000136405EF87F007EF87F00DEF85F0000E14
:100E10000001E66F000EE56F1200266E2604D8A4CE
:100E200014EF87F016EF87F09AEF87F0330E1C6E01
:100E30001A0E1D6E3F0E1E6EFF0E1F6E000E5DEC35
:100E4000A1F0240E096EFB0E0A6E050E0B6E080E45
:100E50000C6E010E0D6E000E0E6EE0EC99F0360E6B
:100E6000026E020EECECA1F0C90E1E6EFF0E1F6E9C
:100E700097EC99F0330E1C6E370E1D6E3F0E1E6EF2
:100E8000000E1F6E1D0E5DECA1F0330E216E370EAD
:100E9000226E3F0E236EFF0E246E1D0E28EC9AF07C
:100EA000240E096EFB0E0A6E050E0B6E080E0C6EFC
:100EB000010E0D6E010E0E6EE0EC99F0360E026E14
:100EC0001F0EECECA1F0CE0E1E6EFF0E1F6E97EC07
:100ED00099F0330E1C6E730E1D6E3F0E1E6E000ECB
:100EE0001F6E3A0E5DECA1F0330E216E730E226E72
:100EF0003F0E236EFF0E246E3A0E28EC9AF0240E5D
:100F0000096EFB0E0A6E050E0B6E080E0C6E010EBE
:100F10000D6E010E0E6EE0EC99F0360E026E3C0E78
:100F2000ECECA1F0720E1E6EFF0E1F6E97EC99F0A6
:100F3000B1EF88F02650D8A4A0EF87F0A2EF87F099
:100F400026EF88F0330E1C6E1A0E1D6E3F0E1E6EBD
:100F5000000E1F6E000E5DECA1F0330E216E1A0E16
:100F6000226E3F0E236EFF0E246E000E28EC9AF0C8
:100F7000240E096EFB0E0A6E050E0B6E080E0C6E2B
:100F8000010E0D6E010E0E6EE0EC99F0360E026E43
:100F9000020EECECA1F0C90E1E6EFF0E1F6E97EC58
:100FA00099F0330E1C6E370E1D6E3F0E1E6EFF0E37
:100FB0001F6E1D0E5DECA1F0240E096EFB0E0A6E75
:100FC000050E0B6E080E0C6E010E0D6E000E0E6EF1
:100FD000E0EC99F0360E026E1F0EECECA1F0CE0E96
:100FE0001E6EFF0E1F6E97EC99F0330E1C6E730E83
:100FF0001D6E3F0E1E6E000E1F6E3A0E5DECA1F0D0
:10100000330E216E730E226E3F0E236EFF0E246E82
:101010003A0E28EC9AF0240E096EFB0E0A6E050EAD
:101020000B6E080E0C6E010E0D6E010E0E6EE0ECD6
:1010300099F0360E026E3C0EECECA1F0720E1E6EB4
:10104000FF0E1F6E97EC99F0B1EF88F0020E261894
:10105000D8A42DEF88F02FEF88F0B1EF88F0330E91
:101060001C6E1A0E1D6E3F0E1E6E000E1F6E000EC1
:101070005DECA1F0330E216E1A0E226E3F0E236E30
:10108000FF0E246E000E28EC9AF0240E096EFB0E63
:101090000A6E050E0B6E080E0C6E010E0D6E010E23
:1010A0000E6EE0EC99F0360E026E020EECECA1F042
:1010B000C90E1E6EFF0E1F6E97EC99F0330E1C6E5C
:1010C000370E1D6E3F0E1E6E000E1F6E1D0E5DEC68
:1010D000A1F0330E216E370E226E3F0E236EFF0EEF
:1010E000246E1D0E28EC9AF0240E096EFB0E0A6E7B
:1010F000050E0B6E080E0C6E010E0D6E010E0E6EBF
:10110000E0EC99F0360E026E1F0EECECA1F0CE0E64
:101110001E6EFF0E1F6E97EC99F0330E1C6E730E51
:101120001D6E3F0E1E6EFF0E1F6E3A0E5DECA1F09F
:10113000240E096EFB0E0A6E050E0B6E080E0C6E69
:10114000010E0D6E000E0E6EE0EC99F0360E026E82
:101150003C0EECECA1F0720E1E6EFF0E1F6E97ECB3
:1011600099F00EEC9DF0120040C0D9FF41C0DAFFAB
:10117000DECFF6FFDDCFF7FF000EF86E0800F5506A
:10118000250AD8A4C6EF88F0C8EF88F02CEF8AF0C3
:1011900040C0D9FF41C0DAFFDE2A000EDD22000E7A
:1011A0000001E06F000EDF6FDFC05EF0E169E26911
:1011B000000E516E000E506E0AEF89F05E8240C044
:1011C000D9FF41C0DAFFDE2A000EDD220AEF89F0E6
:1011D000000E516E010E506E0AEF89F040C0D9FF2B
:1011E00041C0DAFFDECFF6FFDDCFF7FF000EF86E6D
:1011F0000800F550446E456A4550000AD8B403EF24
:1012000089F0E8EF88F04450300AD8B4DEEF88F077
:10121000E8EF88F050505110D8B411EF89F013EF77
:1012200089F0EEEF88F040C0D9FF41C0DAFFDECF91
:10123000F6FFDDCFF7FF000EF86E0800F5502A0A22
:10124000D8A425EF89F027EF89F051EF89F040C04D
:10125000D9FF41C0DAFFDE2A000EDD2242C0D9FFED
:1012600043C0DAFFDFCF44F0020EDE26DFCF45F0C9
:10127000000EDD2244C0D9FF45C0DAFFDECFDFF02B
:10128000DDCFE0F00001E0BF4AEF89F048EF89F0E0
:1012900086EF89F05E80DF6DE01FD8B0E02B86EF2F
:1012A00089F040C0D9FF41C0DAFFDECF07F0DDCFC3
:1012B00008F046EC90F007C0DFF008C0E0F068EFFF
:1012C00089F040C0D9FF41C0DAFFDE2A000EDD22DE
:1012D00040C0D9FF41C0DAFFDECFF6FFDDCFF7FF18
:1012E000000EF86E0800F5CF44F0D00E4424456E91
:1012F000466AFF0E4622465009E10A0E455CD8A018
:1013000084EF89F086EF89F061EF89F040C0D9FF62
:1013100041C0DAFFDECF52F0DDCF53F052C0F6FF0E
:1013200053C0F7FF000EF86E0800F550750AD8A4F8
:101330009CEF89F09EEF89F0FCEF89F042C0D9FF65
:1013400043C0DAFFDFCF44F0020EDE26DFCF45F0E8
:10135000000EDD2244C0D9FF45C0DAFFDECF46F0E3
:10136000DDCF47F046C048F047C049F04A6A4B6AB3
:101370004C6A4D6A4E6A4F6A010E5224446E000E4A
:101380005320456E40C0D9FF41C0DAFF44C0DEFFA4
:1013900045C0DDFFE4EF89F03EC01EF03FC01FF006
:1013A00048C020F049C021F04AC022F04BC023F0D1
:1013B0004CC024F04DC025F04EC026F04FC027F0A1
:1013C0007BEC8BF042EF8AF052C0F6FF53C0F7FF80
:1013D000000EF86E0800F550446E456A4550000A4C
:1013E000D8B4F5EF89F0FCEF89F04450750AD8B411
:1013F000CCEF89F0FCEF89F040C0D9FF41C0DAFFA3
:10140000DECFF6FFDDCFF7FF000EF86E0800F550D7
:10141000250AD8A40EEF8AF010EF8AF023EF8AF0A5
:1014200040C0D9FF41C0DAFFDE2A000EDD22000EE7
:10143000046E250E036E3EC005F03FC006F000ECC2
:1014400094F042EF8AF040C0D9FF41C0DAFFDE2AB3
:10145000000EDD2242EF8AF040C0D9FF41C0DAFF22
:10146000DECFF6FFDDCFF7FF000EF86E0800F55077
:10147000036E046A3EC005F03FC006F000EC94F035
:1014800023EF8AF01200186E800E18604AEF8AF07F
:101490004CEF8AF07AEF8BF0800E086052EF8AF002
:1014A00054EF8AF07AEF8BF0400E07605AEF8AF023
:1014B0005CEF8AF07AEF8BF0400E096062EF8AF001
:1014C00064EF8AF07AEF8BF00750095C0B6E0B2803
:1014D0001A6E1850085C0B6E0B28146E0750070B21
:1014E000166E1650075E1968080E0B6E000E0C6E15
:1014F00016500B5E000E0C5A1A500D6E0E6A0B50F1
:101500000D5C0E50800A0F6E0C50800A0F58D8B038
:101510008CEF8AF08EEF8AF09EEF8AF01A5008085E
:101520000B6E0B280C6E97EF8AF0D89019320C2EA8
:1015300095EF8AF01AC015F0A1EF8AF0165008084E
:10154000156E16280B6EA7EF8AF0D89019360B2E61
:10155000A5EF8AF007C002F01850ECECA1F0000EE5
:10156000176EDEEF8AF0D2C001F00001D151F2EC2B
:10157000A0F01B6E0A28D8B4C0EF8AF0C2EF8AF040
:10158000CBEF8AF01950FF0A1B140B6E0B50106E34
:10159000116AD1EF8AF01B5019100B6E0B50106EB0
:1015A000116A10C01BF0D2C001F01BC002F0000194
:1015B000D151D8ECA0F00001D12B172A1450175CA0
:1015C000D8A0E5EF8AF0E7EF8AF0B3EF8AF00AEFF0
:1015D0008BF0080E1526080E072607C002F01850DB
:1015E000ECECA1F0000E176E01EF8BF0D2C001F011
:1015F0000AC002F00001D151D8ECA0F00001D12BBB
:10160000172A1450175CD8A008EF8BF00AEF8BF064
:10161000F6EF8AF015500B6E0C6A080E0B26000EC2
:101620000C221A500D6E0E6A0B500D5C0E50800A83
:101630000F6E0C50800A0F58D8B021EF8BF023EFBB
:101640008BF0E9EF8AF01A50155CD8B02AEF8BF0D6
:101650002CEF8BF07AEF8BF015501A5C0B6EFF0EAF
:101660000C6E0B2A36EF8BF0D8900C360B2E34EF25
:101670008BF00C50FF0A196E0750080F026E1850BD
:10168000ECECA1F0000E176E71EF8BF0D2C001F000
:101690000001D151F2ECA0F01B6E0A28D8B453EF30
:1016A0008BF055EF8BF05EEF8BF01950FF0A1B1497
:1016B0000B6E0B50126E136A64EF8BF01B501910F7
:1016C0000B6E0B50126E136A12C01BF0D2C001F0E9
:1016D0001BC002F00001D151D8ECA0F00001D12BC9
:1016E000172A1450175CD8A078EF8BF07AEF8BF0A4
:1016F00046EF8BF012000001E2BF81EF8BF083EF29
:101700008BF084EF8BF05E92E2BF91EF8BF0E251B1
:1017100006E1E105D8B08FEF8BF091EF8BF097EFFA
:101720008BF0000E316E010E306E9BEF8BF0E1C03E
:1017300030F0E2C031F0DFC032F0E0C033F020C062
:1017400034F021C035F022C036F023C037F024C079
:1017500038F025C039F026C03AF027C03BF0000E23
:101760003D6E1F0E3C6E000E0101586F2EEF8CF087
:101770003C06D8A03D06390E3C24D96E010E3D2012
:10178000DA6E34C001F035C002F036C003F037C065
:1017900004F038C005F039C006F03AC007F03BC08D
:1017A00008F00A0E096E000E0A6E000E0B6E000E97
:1017B0000C6E000E0D6E000E0E6E000E0F6E000E03
:1017C000106E32EC93F001C028F002C029F003C083
:1017D0002AF004C02BF005C02CF006C02DF007C085
:1017E0002EF008C02FF02850300FDF6E3006D8A042
:1017F00031063206D8A0330634C001F035C002F0FD
:1018000036C003F037C004F038C005F039C006F028
:101810003AC007F03BC008F00A0E096E000E0A6ECF
:10182000000E0B6E000E0C6E000E0D6E000E0E6E96
:10183000000E0F6E000E106E74EC91F001C034F0CB
:1018400002C035F003C036F004C037F005C038F0F0
:1018500006C039F007C03AF008C03BF03C503D10DC
:10186000D8B435EF8CF037EF8CF067EF8CF0345054
:10187000351036103710381039103A103B10D8A4F4
:1018800044EF8CF046EF8CF0B8EF8BF031BE53EFA5
:101890008CF0315006E13004D8B051EF8CF053EFAA
:1018A0008CF0B8EF8BF033BE5EEF8CF0335008E174
:1018B0003204D8A05EEF8CF060EF8CF067EF8CF014
:1018C0005EB265EF8CF067EF8CF0B8EF8BF01EC066
:1018D00013F01FC014F0390E3C24156E010E3D208C
:1018E000166E32C017F033C018F09DEC96F012005F
:1018F000948C948E9880988898860001ED51D8A495
:1019000084EF8CF086EF8CF08CEF8CF0000E086E7C
:101910000A0E076E8FEF8CF0EDC007F0086A07C063
:10192000EDF0EE51D8A497EF8CF099EF8CF09FEF8B
:101930008CF0000E0A6E140E096EA2EF8CF0EEC051
:1019400009F00A6A09C0EEF0EF51F011D8A4ABEF2C
:101950008CF0ADEF8CF0B3EF8CF0030E0C6EE80E54
:101960000B6EB7EF8CF0EFC00BF0F0C00CF00BC0BB
:10197000EFF00CC0F0F0000E0F6E0F50090DF3CF1A
:1019800001F0F4CF02F00150EB25D96E0250EC21AA
:10199000DA6EDF980F50090DF3CF01F0F4CF02F0AB
:1019A0000150EB25D96E0250EC21DA6EF30EDF16F2
:1019B0000F50090DF3CF01F0F4CF02F00150EB25E9
:1019C000036E0250EC21046E020E0324D96E000E49
:1019D0000420DA6E000EDE6E000EDD6E0F50090D73
:1019E000F3CF01F0F4CF02F00150EB25036E02506B
:1019F000EC21046E010E0324D96E000E0420DA6E71
:101A0000000EDF6E0F50090DF3CF01F0F4CF02F09E
:101A10000150EB25036E0250EC21046E040E0324EA
:101A2000D96E000E0420DA6EDE50DE10D8A41BEF53
:101A30008DF01DEF8DF023EF8DF0EFC00DF0F0C0B5
:101A40000EF039EF8DF00F50090DF3CF01F0F4CF08
:101A500002F00150EB25036E0250EC21046E040EDF
:101A60000324D96E000E0420DA6EDECF0DF0DDCF38
:101A70000EF00F50090DF3CF01F0F4CF02F001503A
:101A8000EB25036E0250EC21046E040E0324D96E84
:101A9000000E0420DA6E0DC0DEFF0EC0DDFF0F2A3F
:101AA000040E0F6456EF8DF058EF8DF0BDEF8CF003
:101AB0001200266E2650D8A460EF8DF062EF8DF0F4
:101AC000B7EF8DF0330E1C6E1A0E1D6E3F0E1E6E9C
:101AD000FF0E1F6E000E5DECA1F0240E096EFB0ED2
:101AE0000A6E050E0B6E080E0C6E010E0D6E000ECA
:101AF0000E6EE0EC99F0360E026E020EECECA1F0E8
:101B0000C90E1E6EFF0E1F6E97EC99F0330E1C6E01
:101B1000560E1D6E3F0E1E6E000E1F6E1D0E5DECEE
:101B2000A1F0330E216E560E226E3F0E236EFF0E75
:101B3000246E1D0E28EC9AF0240E096EFB0E0A6E20
:101B4000050E0B6E080E0C6E010E0D6E010E0E6E64
:101B5000E0EC99F0360E026E1F0EECECA1F0720E66
:101B60001E6EFF0E1F6E97EC99F013EF8EF0020EB3
:101B70002618D8A4BEEF8DF0C0EF8DF013EF8EF0D5
:101B8000330E1C6E1A0E1D6E3F0E1E6E000E1F6E63
:101B9000000E5DECA1F0330E216E1A0E226E3F0E88
:101BA000236EFF0E246E000E28EC9AF0240E096EB0
:101BB000FB0E0A6E050E0B6E080E0C6E010E0D6EFE
:101BC000010E0E6EE0EC99F0360E026E020EECEC99
:101BD000A1F0C90E1E6EFF0E1F6E97EC99F0330E2A
:101BE0001C6E560E1D6E3F0E1E6EFF0E1F6E1D0EDE
:101BF0005DECA1F0240E096EFB0E0A6E050E0B6E55
:101C0000080E0C6E010E0D6E000E0E6EE0EC99F0DB
:101C1000360E026E1F0EECECA1F0720E1E6EFF0E61
:101C20001F6E97EC99F00EEC9DF01200266E265078
:101C3000D8A41DEF8EF01FEF8EF074EF8EF0330EF0
:101C40001C6E1A0E1D6E3F0E1E6EFF0E1F6E000ED6
:101C50005DECA1F0240E096EFB0E0A6E050E0B6EF4
:101C6000080E0C6E010E0D6E000E0E6EE0EC99F07B
:101C7000360E026E020EECECA1F0CE0E1E6EFF0EC2
:101C80001F6E97EC99F0330E1C6E560E1D6E3F0EB4
:101C90001E6E000E1F6E1D0E5DECA1F0330E216E48
:101CA000560E226E3F0E236EFF0E246E1D0E28EC84
:101CB0009AF0240E096EFB0E0A6E050E0B6E080ECE
:101CC0000C6E010E0D6E010E0E6EE0EC99F0360EEC
:101CD000026E1F0EECECA1F0720E1E6EFF0E1F6E58
:101CE00097EC99F0D0EF8EF0020E2618D8A47BEF77
:101CF0008EF07DEF8EF0D0EF8EF0330E1C6E1A0E4C
:101D00001D6E3F0E1E6E000E1F6E000E5DECA1F0EC
:101D1000330E216E1A0E226E3F0E236EFF0E246EBE
:101D2000000E28EC9AF0240E096EFB0E0A6E050ECA
:101D30000B6E080E0C6E010E0D6E010E0E6EE0ECB9
:101D400099F0360E026E020EECECA1F0CE0E1E6E75
:101D5000FF0E1F6E97EC99F0330E1C6E560E1D6E23
:101D60003F0E1E6EFF0E1F6E1D0E5DECA1F0240EC9
:101D7000096EFB0E0A6E050E0B6E080E0C6E010E40
:101D80000D6E000E0E6EE0EC99F0360E026E1F0E18
:101D9000ECECA1F0720E1E6EFF0E1F6E97EC99F028
:101DA0000EEC9DF01200266E2604D8A4DAEF8EF019
:101DB000DCEF8EF031EF8FF0330E1C6E200E1D6EB7
:101DC0003F0E1E6EFF0E1F6E000E5DECA1F0240E86
:101DD000096EFB0E0A6E050E0B6E080E0C6E010EE0
:101DE0000D6E000E0E6EE0EC99F0360E026E020ED5
:101DF000ECECA1F0C30E1E6EFF0E1F6E97EC99F077
:101E0000330E1C6E3D0E1D6E3F0E1E6E000E1F6EBD
:101E1000230E5DECA1F0330E216E3D0E226E3F0EBF
:101E2000236EFF0E246E230E28EC9AF0240E096E0A
:101E3000FB0E0A6E050E0B6E080E0C6E010E0D6E7B
:101E4000010E0E6EE0EC99F0360E026E250EECECF3
:101E5000A1F0E70E1E6EFF0E1F6E97EC99F08CEF4F
:101E60008FF02650D8A437EF8FF039EF8FF08CEF3A
:101E70008FF0330E1C6E200E1D6E3F0E1E6E000E78
:101E80001F6E000E5DECA1F0330E216E200E226E4F
:101E90003F0E236EFF0E246E000E28EC9AF0240EE7
:101EA000096EFB0E0A6E050E0B6E080E0C6E010E0F
:101EB0000D6E010E0E6EE0EC99F0360E026E020E03
:101EC000ECECA1F0C30E1E6EFF0E1F6E97EC99F0A6
:101ED000330E1C6E3D0E1D6E3F0E1E6EFF0E1F6EEE
:101EE000230E5DECA1F0240E096EFB0E0A6E050EAA
:101EF0000B6E080E0C6E010E0D6E000E0E6EE0ECF9
:101F000099F0360E026E250EECECA1F0E70E1E6E77
:101F1000FF0E1F6E97EC99F00EEC9DF0120001C0C1
:101F2000D9FF02C0DAFF010EDF6E20EE01F0015092
:101F3000D9260250DA22010EDF6E20EE02F00150A7
:101F4000D9260250DA22140EDF6E20EE03F0015083
:101F5000D9260250DA22230EDF6E20EE04F0015063
:101F6000D9260250DA22000EDF6E20EE05F0015075
:101F7000D9260250DA22460EDF6E20EE06F001501E
:101F8000D9260250DA22010EDF6E20EE07F0015052
:101F9000D9260250DA22010EDF6E20EE1EF001502B
:101FA000D9260250DA22D20EDE6E040EDD6E20EE4D
:101FB0001EF00150D9260250DA22BA0EDE6E080E4B
:101FC000DD6E20EE1EF00150D9260250DA22A20E5C
:101FD000DE6E0C0EDD6E20EE1EF00150D926025092
:101FE000DA228A0EDE6E100EDD6E20EE0EF001504B
:101FF000D9260250DA22A40EDE6E010EDD6E20EE2E
:1020000010F00150D9260250DA22E80EDE6E030EDF
:10201000DD6E20EE12F00150D9260250DA22720E47
:10202000DE6E010EDD6E20EE14F00150D926025056
:10203000DA22AE0EDE6E010EDD6E20EE16F00150DD
:10204000D9260250DA220E0EDE6E010EDD6E20EE73
:1020500018F00150D9260250DA221E0EDE6E000E54
:10206000DD6E20EE1AF00150D9260250DA220E0E53
:10207000DE6E010EDD6E20EE1CF00150D9260250FE
:10208000DA22E80EDE6E030EDD6E1200000E0F6E19
:10209000000E0E6E000E0D6E000E0C6E52EF90F0E4
:1020A000074A082A07C0F6FF08C0F7FF000EF86EBF
:1020B0000800F550200AD8B460EF90F062EF90F07D
:1020C00050EF90F007C0F6FF08C0F7FF000EF86E63
:1020D0000800F5CF09F0F70E09240A6E0B6AFF0E0F
:1020E0000B220B5009E1050E0A5CD8A07AEF90F0A4
:1020F0007CEF90F050EF90F086EF90F0000E0D6EB8
:10210000010E0C6E074A082ABFEF90F007C0F6FFD9
:1021100008C0F7FF000EF86E0800F550096E0A6A55
:102120000A50000AD8B497EF90F0BFEF90F0095032
:102130002B0AD8B482EF90F0060AD8B47EEF90F064
:10214000BFEF90F00EC001F00FC002F0000E046E61
:102150000A0E036E38ECA1F007C0F6FF08C0F7FFC7
:10216000000EF86E0800F550015E000E025A300EA7
:1021700001240E6E000E02200F6E82EF90F007C059
:10218000F6FF08C0F7FF000EF86E0800F5CF09F063
:10219000D00E09240A6E0B6AFF0E0B220B5009E1C8
:1021A0000A0E0A5CD8A0D7EF90F0D9EF90F0A2EF1A
:1021B00090F00C500D10D8A4E0EF90F0E2EF90F00A
:1021C000F0EF90F00EC009F00FC00AF0091E0A1ED1
:1021D000094A0A2A09C007F00AC008F0F4EF90F093
:1021E0000EC007F00FC008F01200360E000179256E
:1021F000606F000E7A21616F0F0E626FFE0E636FCB
:1022000020EE2EF07951D9267A51DA22DECF0AF06B
:10221000DECF0BF0DECF0CF0DECF0DF0100E0E6E29
:102220000E0E0F6E000E106E000E116EF2EC96F098
:102230000AC064F00BC065F0100E056E0E0E066E3F
:10224000000E076E000E086E000120EE2EF0795190
:10225000D9267A51DA22DECF01F0DECF02F0DECFCE
:1022600003F0DECF04F06EEC9AF001C00AF002C079
:102270000BF003C00CF004C00DF03C0E0E6E000E0F
:102280000F6E000E106E000E116EF2EC96F00AC08A
:1022900066F00BC067F0000120EE2EF07951D926D0
:1022A0007A51DA22DECF01F0DECF02F0DECF03F08A
:1022B000DECF04F03C0E056E000E066E000E076EBB
:1022C000000E086E6EEC9AF001C068F002C069F072
:1022D00018EC9EF0360E000179251E6E000E7A2154
:1022E0001F6E97EC99F0120020EE11F0070EDE6AD7
:1022F000E806FDE209500A100B100C100D100E102C
:102300000F101010D8B487EF91F089EF91F0DBEF48
:1023100091F0010E196E97EF91F0D89009360A36B8
:102320000B360C360D360E360F361036192A10AE17
:102330009CEF91F09EEF91F08DEF91F0D8901136D7
:102340001236133614361536163617361836095027
:10235000015C0A5002580B5003580C5004580D50A1
:1023600005580E5006580F50075810500858D8A05E
:10237000BCEF91F0BEEF91F0CFEF91F00950015E0C
:102380000A50025A0B50035A0C50045A0D50055A69
:102390000E50065A0F50075A1050085A1180D89004
:1023A00010320F320E320D320C320B320A32093239
:1023B000192E9EEF91F011C001F012C002F013C06F
:1023C00003F014C004F015C005F016C006F017C0E5
:1023D00007F018C008F012004BECA1F0240E096EB3
:1023E000FB0E0A6E050E0B6E080E0C6E010E0D6EC6
