:040000002DEF00F0F0
:100008005F82F2A40AEF00F00CEF00F02BEF00F093
:10001800FD0ED76E110ED66E0001C64BC72BC44B12
:10002800C52BE80EC45D030EC559D8A01EEF00F01D
:1000380020EF00F02AEF00F0000EC56F000EC46F2D
:10004800010EBC27000EBD23BE23BF23F2945F928E
:060058001100AEEF91F073
:10CB1600004361703A3534306D4168004379636C87
:10CB2600653A322F34004375723A3233306D410024
:10CB3600566F6C3A332C333556000E000000000059
:10CB460000000000000000000000000000000000DF
:10CB560000000000000000000000000000000000CF
:10CB660000000000000000000000000000000000BF
:10CB760000000000000000000000000000000000AF
:10CB8600000000000000000000000000000000009F
:10CB9600000000000000000000000000000000008F
:10CBA600000000000000000500000000000000007A
:10CBB600FC7F0E00FC7F0F00FC7F070000000000DA
:10CBC600000000000000000000000000000000005F
:10CBD600000000000000000000000000000000004F
:10CBE600000000000000000000000000000000003F
:10CBF600000000000000000000000000000000002F
:10CC0600000000000000000000000000000000001E
:10CC160000000000090000000000000000FC010008
:10CC260000FC010000000000000000000000000001
:10CC360000FC010000FC01000000000000000000F4
:10CC460000000000000000000000000000000000DE
:10CC560000000000000000000000000000000000CE
:10CC660000000000000000000000000000000000BE
:10CC760000000000000000000000000000000000AE
:10CC8600001100000000006000008061000080616B
:10CC96000C0080E10F0080FD0F00807F0000F86F20
:10CCA6000000FC610C008CE10F0080FD0F00807F0E
:10CCB6000000F86F0000FC6100008C61000080211C
:10CCC60000008001000000000000000000000000DD
:10CCD600000000000000000000000000000000004E
:10CCE600000000000000000000000000000011002D
:10CCF60000000000830100C0C70300E08F0300703E
:10CD06000C0700300C0600180C060018040600FF7D
:10CD1600FF7F00FEFF3F00180606001806030018F6
:10CD26000603003886030070FE010070FC00000058
:10CD36007800000000000000000000000000000075
:10CD460000000000000000000000000000000000DD
:10CD560000000000000000000000001500000000B8
:10CD6600E0000000F0010000F80300001C030400CE
:10CD76000C030E008C830F00FCC10300F8F00000CA
:10CD8600707C0000001E000080070300E08307009F
:10CD9600F0C00F003CC00C001C600C0008600C00CA
:10CDA6000060060000E0070000C0030000800100EC
:10CDB600000000000000000000000000000000006D
:10CDC6000000000000000000160000000000E00364
:10CDD6000000F0070000F80700701C0E00F80E0CAB
:10CDE60000F80F0C00DC070C008C070C000C0F0C75
:10CDF600000C1F06008C1F0600CC390700F87103D3
:10CE060000F8F0030070E0010000E0010000F80304
:10CE160000003C070000180E0000000E000000078E
:10CE260000000000000000000000000000000000FC
:10CE36000000000000040000000000000000FC01EB
:10CE46000000FC01000000000000000000000000DF
:10CE560000000000000000000000000000000000CC
:10CE660000000000000000000000000000000000BC
:10CE760000000000000000000000000000000000AC
:10CE8600000000000000000000000000000000009C
:10CE9600000000000000000000000000000000008C
:10CEA60000000B000000000000000000FC03000072
:10CEB600FF1F00C0FF3F00E003FC00F000E0013868
:10CEC60000C0013C0080031C008003080000000035
:10CED600000000000000000000000000000000004C
:10CEE600000000000000000000000000000000003C
:10CEF600000000000000000000000000000000002C
:10CF06000000000000000000000000000000000A11
:10CF160000000000080000001C0080033C008003A5
:10CF26003800C001F000F001E003FC00C0FF3F0044
:10CF360000FF1F0000FC03000000000000000000CE
:10CF460000000000000000000000000000000000DB
:10CF560000000000000000000000000000000000CB
:10CF660000000000000000000000000000000000BB
:10CF76000000000000000000000000000A000000A1
:10CF860000C0000000C00000004C020000D80300F2
:10CF960000F0010000FC000000AC010000300300BE
:10CFA600003000000000000000000000000000004B
:10CFB600000000000000000000000000000000006B
:10CFC600000000000000000000000000000000005B
:10CFD600000000000000000000000000000000004B
:10CFE6000000000000000000000E000000000040ED
:10CFF60000000060000000600000006000000060AB
:10D00600000000FF0F0000FF0F0000FF0F00006090
:10D01600000000600000006000000060000000608A
:10D0260000000000000000000000000000000000FA
:10D0360000000000000000000000000000000000EA
:10D0460000000000000000000000000000000000DA
:10D05600000000000000050000000000006600005F
:10D06600006F0000003F0000001E000000000000EE
:10D0760000000000000000000000000000000000AA
:10D08600000000000000000000000000000000009A
:10D09600000000000000000000000000000000008A
:10D0A600000000000000000000000000000000007A
:10D0B600000000000000000000000000000000006A
:10D0C6000000000A000000000030000000700000B0
:10D0D600003000000030000000300000003000008A
:10D0E60000300000003000000030000000000000AA
:10D0F600000000000000000000000000000000002A
:10D106000000000000000000000000000000000019
:10D116000000000000000000000000000000000009
:10D1260000000000000000000000000000000000F9
:10D1360005000000000000000000000E0000000FC7
:10D1460000000007000000000000000000000000D2
:10D1560000000000000000000000000000000000C9
:10D1660000000000000000000000000000000000B9
:10D1760000000000000000000000000000000000A9
:10D186000000000000000000000000000000000099
:10D19600000000000000000000000000000B00007E
:10D1A60000000000040000000F0000C00F0000F89F
:10D1B6000100007E0000801F0000E0070000FC0167
:10D1C60000007C0000001C000000000000000000C1
:10D1D6000000000000000000000000000000000049
:10D1E6000000000000000000000000000000000039
:10D1F6000000000000000000000000000000000029
:10D206000000000000000000000016000000000002
:10D21600F8010000FF030080FF0700C0030700E0DD
:10D22600010E0070000C0030000C0038000C0018D5
:10D23600000C0008000C000C000C000C0006000C92
:10D246000006000C0007000C0003001C80030018F9
:10D25600C0010038F00000F07F0000E03F0000C091
:10D266000F000000000000000000000000000000A9
:10D276000000000000000010000000000000000098
:10D286000000000000000000000100008003000014
:10D29600C0030000C0010000E0000000E000000044
:10D2A600700000007000000038000000F8FF0F005A
:10D2B600FCFF0F00FCFF0F00000000000000000054
:10D2C6000000000000000000000000000000000058
:10D2D6000000000000000000000000000000000048
:10D2E6000000000014000000000000000000000024
:10D2F60000E0000E00E0000F00F0C00F0038E00D67
:10D306000018E00C0018700C000C300C000C380CE7
:10D31600000C380C000C1C0C000C1C0C000C0C0C2B
:10D32600000C0E0C00180F0C00F8070E00F8030F87
:10D3360000E0010E000000000000000000000000F8
:10D3460000000000000000000000000000000000D7
:10D356000015000000000000000000C003007CC0B3
:10D3660007007CC007007C000E000C000C000C00BF
:10D376000C000C0E0C000C060C000C070C000C0725
:10D386000C008C030C00CC030600EC0306007C03A7
:10D3960006003C0303001CC703000CFE010000FE50
:10D3A6000000007C000000000000000000000000FB
:10D3B6000000000000000000000000000000160051
:10D3C600C0000000E0000000F0000000F8000000CF
:10D3D600F8000000FC000000EE000000670000807E
:10D3E600630000C0610000E060000070600000386B
:10D3F600700000FCFF0F00FCFF0F00FCFF0F000099
:10D40600300000003000000030000000380000004E
:10D416003800000038000000000000000000000096
:10D4260000000000000000000000001500000000E1
:10D436000000000000080300F81F0700F81F07009F
:10D44600F80D0E00080E0C0008060C0008060C006D
:10D4560008020C0008030C0008030C0008030C006B
:10D46600080306000C0306000C0307000C07030064
:10D476000CC603000CFE010000FC00000078000052
:10D486000000000000000000000000000000000096
:10D4960000000000000000001600000000007800F8
:10D4A6000000FE030080FF0300C0C70700E0E1079D
:10D4B6000060700E0070300C0038380C00181C0C20
:10D4C60000180C0C000C0C0C000C060C000C060EC4
:10D4D600000C0606000C0606000C0607000C0603E8
:10D4E60000388E030078FC010030FC000000780054
:10D4F6000000000000000000000000000000000026
:10D5060000000000001600000000000000000000FF
:10D516000000F8010000FC010000FC0000000C0007
:10D5260000000C0000000C0000000C000E000C8037
:10D536000F000CE007000CF001000CFC00000C3E94
:10D5460000008C1F0000EC070000FC030000FC003C
:10D5560000003C0000000C00000004000000000079
:10D5660000000000000000000000000000000000B5
:10D576000000160000000000C0010000E0030000EB
:10D58600F00700C0790600F03B0E00F81F0C0038CB
:10D596000E0C00180C0C001C0C0C000C060C000CDD
:10D5A600060C000C0606000C0606000C0606001CFF
:10D5B600070300F8070300F886030070CE01000099
:10D5C600FC000000FC000000380000000000000025
:10D5D600000000000000000000000000000000162F
:10D5E600000000000000010080830300E0870700C0
:10D5F600F00F0700700C0E00381C0C0018180C00F9
:10D606001C180C000C180C000C180C000C180C0044
:10D616000C1804000C0C06000C0C06001C0C070071
:10D626001886030038C70300F0E30100F0FF00008E
:10D63600E07F0000001F0000000000000000000066
:10D6460000000000000000000000000005000000CF
:10D656000000000000000C0E00001E0F00000C076A
:10D6660000000000000000000000000000000000B4
:10D6760000000000000000000000000000000000A4
:10D686000000000000000000000000000000000094
:10D696000000000000000000000000000000000084
:10D6A6000000000000000000000000000000000074
:10D6B600000000000000000000050000000000005F
:10D6C6006600000C6F00001E3F00000E1E000000EA
:10D6D6000000000000000000000000000000000044
:10D6E6000000000000000000000000000000000034
:10D6F6000000000000000000000000000000000024
:10D706000000000000000000000000000000000013
:10D716000000000000000000000000000000000003
:10D726000000000000000D000000000000000000E6
:10D736006000000070000000F0000000F80100002A
:10D74600D80100009C0300000C0300000E07000037
:10D75600070E0000070E0000020200000000000095
:10D7660000000000000000000000000000000000B3
:10D7760000000000000000000000000000000000A3
:10D786000000000000000000000000000000000093
:10D796000000000D00000000008C0100008C01005C
:10D7A600008C0100008C0100008C0100008C01003F
:10D7B600008C0100008C0100008C0100008C01002F
:10D7C600008C0100008C0100000000000000000039
:10D7D6000000000000000000000000000000000043
:10D7E6000000000000000000000000000000000033
:10D7F6000000000000000000000000000000000023
:10D806000D00000000000000000002020000070EEC
:10D816000000070E00000E0700000C0300009C032A
:10D826000000D8010000F8010000F00000007000C0
:10D836000000600000000000000000000000000082
:10D8460000000000000000000000000000000000D2
:10D8560000000000000000000000000000000000C2
:10D8660000000000000000000000000000100000A2
:10D8760000002000000070000000F000000078703A
:10D88600000018F8000018FC1C000CDC1E000CCE72
:10D896000E000CC700000CF700008C730000DC21A2
:10D8A6000000F8010000F800000070000000000011
:10D8B6000000000000000000000000000000000062
:10D8C6000000000000000000000000000000000052
:10D8D600000000000000000000001B000000000027
:10D8E60080070000E01F0000783800001C300000B0
:10D8F6000E70000006670000C3670080E36F0080BB
:10D90600716C0080396C00C0186C00C00C6600C0D9
:10D916000C36006004330060863B006086110060B0
:10D92600C6070060FE0F0060FE0F00600E0C006070
:10D93600000C00C0000600C0010600808303000042
:10D94600FF0100007C00001500000E0000800F00A3
:10D9560000C00F0000F0010000780000003E00004B
:10D96600001F0000801F0000E01B0000F8180000E8
:10D976007C1800007C180000F8180000E01B00006E
:10D98600801F0000001F0000007C000000F801005E
:10D9960000E00F0000800F0000000E0000000000F5
:10D9A6000000000000000000000000000000000071
:10D9B60000000000150000000000000000F8FF0F46
:10D9C60000FCFF0F00F8FF0F0018060C0018060CED
:10D9D6000018070C000C0704000C0306000C0306D5
:10D9E600008C0306008C030700CC030300CC030362
:10D9F60000FC83030078C3010038E7010000FE0045
:10DA060000007E0000001C00000000000000000076
:10DA16000000000000000000000000000000000000
:10DA2600001200000000007C000000FF0100C0FFA3
:10DA36000700E0830700F0000E0030000E003800FB
:10DA46000C0018000C000C000C000C000C000C0064
:10DA56000C000C0006000C0007000C00070018C0A4
:10DA6600030038C0010038C00100000000000000BB
:10DA760000000000000000000000000000000000A0
:10DA8600000000000000000000000000000015007B
:10DA960000000000000000FCFF0F00FCFF0F00FC70
:10DAA600FF0F0038000C0018000C0018000C001CBA
:10DAB6000006000C0006000C0006000C0007000C17
:10DAC6000003000C8003000C8003001CC00100183A
:10DAD600E0010078F80000F07F0000E01F0000C0C1
:10DAE6000700000000000000000000000000000029
:10DAF600000000000000000000000013000000000D
:10DB060010000000FCFF0F00FCFF0F00FCFF0F00E1
:10DB1600180C0600180C0600180C0600180C060057
:10DB2600180C0600180C0600180C0600180C060047
:10DB3600180E06001C0E06001C0406001C0007003A
:10DB460000000700000002000000000000000000C6
:10DB560000000000000000000000000000000000BF
:10DB6600000000000000000011000000000000009E
:10DB760000F8FF0F00FCFF0F00FCFF0F00381C0031
:10DB860000381C0000380C0000180C0000180C00AF
:10DB960000180C0000180C0000180E00001C0E00E7
:10DBA600001C0E00001C0E00001C000000000000FF
:10DBB600000000000000000000000000000000005F
:10DBC600000000000000000000000000000000004F
:10DBD6000000000000170000000000F8000000FE32
:10DBE600010080FF0300C0870700E0010600E00097
:10DBF6000E0070000C0030000C0038000C001800FD
:10DC06000C0018000C000C100C000C1806000C1868
:10DC160006000C1806000C1803000C9803001CCC18
:10DC2600010018EC010038FC0000107C0000001C0C
:10DC360000000000000000000000000000000000DE
:10DC460000001400000000000C0000FCFF0F00FCA8
:10DC5600FF0F00FCFF0F00000E0000000E0000008A
:10DC66000E0000000E0000000E0000000E00000076
:10DC76000E0000000600000006000000060000007E
:10DC860006000000060000FCFF0F00FCFF0F00FC72
:10DC9600FF0F000000000000000000000000000070
:10DCA6000000000000000000000000000000000569
:10DCB6000000000000000000FCFF0F00FCFF0F004A
:10DCC600FCFF0F0000000000000000000000000044
:10DCD600000000000000000000000000000000003E
:10DCE600000000000000000000000000000000002E
:10DCF600000000000000000000000000000000001E
:10DD0600000000000000000000000000000000000D
:10DD160000000000000000000000000010000000ED
:10DD2600000080030000C0070000C00F0000001CB8
:10DD3600000000180000001800000018000000187D
:10DD4600000000180000001C0000000E0000000F7C
:10DD560000FCFF0700FCFF0300FCFF0100000000C1
:10DD660000000000000000000000000000000000AD
:10DD7600000000000000000000000000000000009D
:10DD8600000000000000000000130000000000007A
:10DD96000000FCFF0F00FCFF0F00FCFF0F00800FD0
:10DDA6000000800F0000C01D0000E0380000E07891
:10DDB60000007070000030E0000038C0010018C09C
:10DDC60003000C8003000C00070000000E0000009A
:10DDD6000E0000000400000000000000000000002B
:10DDE600000000000000000000000000000000002D
:10DDF6000000000000000F0000000000000000FC12
:10DE0600FF0F00FCFF0F00FCFF0F0000000E0000DC
:10DE1600000E0000000600000006000000060000DC
:10DE260000060000000700000007000000070000D1
:10DE360000070000000000000000000000000000D5
:10DE460000000000000000000000000000000000CC
:10DE560000000000000000000000000000000000BC
:10DE6600000000190000000000000000F8FF0F008D
:10DE7600FCFF0F00FCFF0F00F0010000C0030000D4
:10DE8600800F0000001E0000007C000000F801006A
:10DE960000E0070000800F0000800F0000E0070090
:10DEA60000F0010000F80000003C0000001E000029
:10DEB600000F0000C0030000E0010000FCFF0F009F
:10DEC600FCFF0F00FCFF0F00000000000000000038
:10DED600130000000000000000FCFF0F00FCFF0F15
:10DEE60000FCFF0F00F0010000C0030000800700E7
:10DEF60000000F0000001E0000003C00000038007B
:10DF0600000070000000F0000000E0010000C00307
:10DF160000FCFF0700FCFF0F00FCFF0F00000000E5
:10DF260000000000000000000000000000000000EB
:10DF360000000000000000000000000000150000C6
:10DF4600000000F8000000FE010080FF0300C0830F
:10DF56000700E001060070000E0030000C003800DB
:10DF66000C0018000C000C000C000C000C000C003F
:10DF760006000C0006000C0007001C00030018C079
:10DF8600030078E00100F0FF0000E07F0000801F42
:10DF9600000000000000000000000000000000007B
:10DFA600000000000000000000001300000000C098
:10DFB600000000FCFF0F00FCFF0F00FCFF0F003805
:10DFC6001C0000380C0000180C0000180C0000089B
:10DFD6000E00000C0E00000C0600000C0700000CE2
:10DFE6000300008C030000CC010000FC010000F8D7
:10DFF60000000038000000000000000000000000E3
:10E00600000000000000000000000000000000000A
:10E0160000000000000000170000000000F80000EB
:10E0260000FE030080FF0700C0070700E0010E00A6
:10E03600E0000C0070000C0030000C0018000C0012
:10E0460018000C000C200C000C700E000CF00600E2
:10E056000CE006000CC007001CC003001CC0070033
:10E0660078F00700F0FF0E00E03F1C00C00F1C0018
:10E076000000080000000000000000000000000092
:10E08600000000001500000000E0000000FCFF0F8B
:10E0960000FCFF0F00FCFF0F00381C0000183E00BC
:10E0A60000183E0000187600000C7600000CE60012
:10E0B600000CE300000CC300008CC301008C81013E
:10E0C60000CC810300FC000300F8000700380006BE
:10E0D6000000000E0000000E00000000000000001E
:10E0E600000000000000000000000000000000002A
:10E0F60000150000000000070300C0870700E00FBE
:10E106000700700C0E00300C0C00180C0C00180CDC
:10E116000C00180C0C000C040C000C040C000C0673
:10E126000E000C0606000C0606000C0607001C0670
:10E1360007003886030038C6030010FE010000FC05
:10E146000000003800000000000000000000000091
:10E156000000000000000000000000000000123077
:10E1660000000030000000300000003000000030E9
:10E176000000001000000010000000F8FF0F00F87B
:10E18600FF0F00F8FF0F001800000008000000084D
:10E19600000000080000000C0000000C0000000C4D
:10E1A6000000000C0000000000000000000000005D
:10E1B6000000000000000000000000000000000059
:10E1C6000000000000000000000000120000000037
:10E1D60000000000FCFF0300FCFF0700F8FF07003B
:10E1E60000000E0000000C0000000C0000000C00F7
:10E1F60000000C0000000C0000000E0000000600ED
:10E206000000070000000700FCFF0300FCFF010000
:10E21600FCFF0000000000000000000000000000FD
:10E2260000000000000000000000000000000000E8
:10E23600000000000000000013000000003C000089
:10E2460000FC010000F8070000C01F0000007F006E
:10E256000000F80F0000C00F0000C00F0000F00023
:10E2660000007C0000001E0000000F0000C003003C
:10E2760000E0010000F0000000780000003C000013
:10E286000018000000000000000000000000000070
:10E296000000000000000000000000000000000078
:10E2A60000000000001B000000007C000000FC03D2
:10E2B6000000FC1F000000FF000000F80F0000E057
:10E2C6000F0000C00F0000F0010000780000003EC3
:10E2D6000000800F0000F8030000F8000000F803BB
:10E2E6000000800F0000003E000000FC000000F06F
:10E2F600070000800F0000C00F0000F80300007E3A
:10E306000000801F0000FC070000FC0100003C002C
:10E31600000011000004001C000E003C000F007CF1
:10E32600C00700F8E00300F0F10000C07B000080A9
:10E336003F0000001F0000001F0000C07F0000E03B
:10E34600F10000F0E0010078C003003C800F001CE3
:10E35600000F00180004000000000000000000008C
:10E3660000000000000000000000000000000000A7
:10E376000000000000000000000000000000001582
:10E38600180000001C0000003C000000780000009F
:10E39600F0000000E0010000C00100008003000062
:10E3A6000007000000FF0F0000FE0F0000FE0F0038
:10E3B6000007000080030000C0010000E00100002B
:10E3C600E000000070000000380000003C00000083
:10E3D6001C0000000000000000000000000000001B
:10E3E6000000000000000000000000001400000013
:10E3F6000000000E0038000F003C800F001CC00F0C
:10E40600000CC00D000CE00C000C700C000C380C5D
:10E41600000C3C0C000C1E0C000C0F0C008C070CA6
:10E4260000CC030C00EC010C00EC000C00FC000C12
:10E43600007C000E003C000F001C000600000000DF
:10E4460000000000000000000000000000000000C6
:10E456000000000000000000000C000000000000AA
:10E46600000000000000F8FFFF03FCFFFF03FCFFB5
:10E47600FF030C0000030C0000030C0000030C005B
:10E4860000030C00800300000001000000000000F3
:10E496000000000000000000000000000000000076
:10E4A6000000000000000000000000000000000066
:10E4B6000000000000000000000000000000000056
:10E4C6000000000000000B080000001C0000007C9B
:10E4D600000000F0010000C0070000001F0000005F
:10E4E6007C000000F0010000C00F0000000F0000DB
:10E4F6000004000000000000000000000000000012
:10E506000000000000000000000000000000000005
:10E5160000000000000000000000000000000000F5
:10E5260000000000000000000000000000000000E5
:10E5360000000009000000000C0000030C000003AE
:10E546000C0000030C0000030C000003FCFFFF039B
:10E55600FCFFFF03FCFFFF030000000000000000BB
:10E5660000000000000000000000000000000000A5
:10E576000000000000000000000000000000000095
:10E586000000000000000000000000000000000085
:10E596000000000000000000000000000000000075
:10E5A6000D000000000001000080030000C0030011
:10E5B60000E0010000F0000000780000001C0000F0
:10E5C600007C000000F0000000E0030000C0030033
:10E5D6000000030000000000000000000000000032
:10E5E6000000000000000000000000000000000025
:10E5F6000000000000000000000000000000000015
:10E60600000000000000000000000000000D0000F7
:10E61600C0000000C0000000C0000000C0000000F4
:10E62600C0000000C0000000C0000000C0000000E4
:10E63600C0000000C0000000C0000000C0000000D4
:10E64600C000000000000000000000000000000004
:10E6560000000000000000000000000000000000B4
:10E6660000000000000000000000000000000000A4
:10E67600000000000000000000000800000000008C
:10E686000000000C0000001C000000180000003014
:10E6960000000060000000600000000000000000B4
:10E6A6000000000000000000000000000000000064
:10E6B6000000000000000000000000000000000054
:10E6C6000000000000000000000000000000000044
:10E6D6000000000000000000000000000000000034
:10E6E600000000000000000F00000000000006000F
:10E6F60000800F0000CC0F0000CE0C0000C60C00FE
:10E7060000660C00006304000023060000330600C8
:10E716000033030000B3010000FF0F0000FE0F00EE
:10E7260000FE0F00000000000000000000000000D6
:10E7360000000000000000000000000000000000D3
:10E7460000000000000000000000000000000000C3
:10E7560000000000100000000000000000FCFF0F99
:10E7660000FCFF0F00FCFF0F00001C0C00000E0C4D
:10E7760000000606000006060000020300008303F0
:10E786000000C3010000E30000007F0000003F001E
:10E7960000000E0000000000000000000000000065
:10E7A6000000000000000000000000000000000063
:10E7B6000000000000000000000000000000000053
:10E7C600000F0000000000E0030000F0070000F862
:10E7D6000700003C0E00000E0C0000060C000007AF
:10E7E6000C0000030C0000030C00000306000003ED
:10E7F600070000870700008603000086010000006E
:10E806000000000000000000000000000000000002
:10E8160000000000000000000000000000000000F2
:10E8260000000000000000000000000000001000D2
:10E836000000000080070000C0070000E00F000095
:10E84600780C0000380C00001C0C00000C0C0000BA
:10E856000C06000006060000060300008603000002
:10E86600C60100FCFF0F00FCFF0F00FCFF0F0000BD
:10E876000000000000000000000000000000000092
:10E886000000000000000000000000000000000082
:10E896000000000000000000000000100000000062
:10E8A60000C0030000F0070000F80F00007C0E0017
:10E8B600006C0C0000660C0000660C0000330C00B7
:10E8C60000330C0000330E00003306000033060050
:10E8D600009E0300009E0300000C010000000000E3
:10E8E6000000000000000000000000000000000022
:10E8F6000000000000000000000000000000000012
:10E9060000000000000000000D00040000000C00E4
:10E9160000000C0000000C0000C0FF0F00F0FF0F0D
:10E9260000F8FF0F001C0600000C0600000C060095
:10E93600000C060000380700001807000000000061
:10E9460000000000000000000000000000000000C1
:10E9560000000000000000000000000000000000B1
:10E9660000000000000000000000000000000000A1
:10E9760000000000000F000000000080070000E01B
:10E986000F0000F0CF010078CC01001C8C03000CB6
:10E996000C0300060603000607030002030300C378
:10E9A600830300F3C00100FFFF0100FFFF0000FF2B
:10E9B6003F00000000000000000000000000000012
:10E9C6000000000000000000000000000000000041
:10E9D6000000000000000000000000000000000031
:10E9E60000000F0000000000000000FCFF0F00FC0C
:10E9F600FF0F00FCFF0F00001C0000000E000000CF
:10EA060006000000060000000300000003000000EE
:10EA160003000000FF0F0000FF0F0000FE0F0000C4
:10EA260000000000000000000000000000000000E0
:10EA360000000000000000000000000000000000D0
:10EA460000000000000000000000000000000005BB
:10EA5600000000000000000070FF0F0078FF0F00AC
:10EA660038FF0F000000000000000000000000005A
:10EA76000000000000000000000000000000000090
:10EA86000000000000000000000000000000000080
:10EA96000000000000000000000000000000000070
:10EAA6000000000000000000000000000000000060
:10EAB600000000000000000000000000060000004A
:10EAC600060000000700FFFF0318FFFF033CFFFFDF
:10EAD600011C000000000000000000000000000013
:10EAE6000000000000000000000000000000000020
:10EAF6000000000000000000000000000000000010
:10EB060000000000000000000000000000000000FF
:10EB160000000000000000000000000000000000EF
:10EB26000000000000000000000E000000000000D1
:10EB36000000FCFF0F00FCFF0F00FCFF0F00007041
:10EB4600000000F8000000DC010000DC0100008E7F
:10EB56000300000707008007070080030E0000017E
:10EB66000C00000000000000000000000000000093
:10EB7600000000000000000000000000000000008F
:10EB8600000000000000000000000000000000007F
:10EB9600000000000000050000000000000000FC6E
:10EBA600FF0F00FCFF0F00FCFF0F0000000000003D
:10EBB600000000000000000000000000000000004F
:10EBC600000000000000000000000000000000003F
:10EBD600000000000000000000000000000000002F
:10EBE600000000000000000000000000000000001F
:10EBF600000000000000000000000000000000000F
:10EC060000000018000000000000000000FF0F00D8
:10EC160000FF0F0000FF0F00001C0000000C0000AA
:10EC260000060000000600000002000000030000CD
:10EC360000FF0F0000FF0F0000FE0F00001800008D
:10EC4600000C0000000C000000060000000200009E
:10EC5600000300000003000000FF0F0000FF0F008C
:10EC660000FE0F0000000000000000000000000091
:10EC76000F000000000000000000FF0F0000FF0F63
:10EC86000000FF0F00001C0000000C0000000E003A
:10EC96000000060000000200000003000000030060
:10ECA6000000FF0F0000FF0F0000FE0F0000000035
:10ECB600000000000000000000000000000000004E
:10ECC600000000000000000000000000000000003E
:10ECD600000000000000000000000000001000001E
:10ECE600000000C0030000F0070000F80700001C49
:10ECF6000E00000E0C0000060C0000060C000003BF
:10ED06000C0000030E000003060000030700008746
:10ED1600030000FE010000FE000000780000000075
:10ED260000000000000000000000000000000000DD
:10ED360000000000000000000000000000000000CD
:10ED460000000000000000000000110000000000AC
:10ED560000000000FFFF0F00FFFF0F00FFFF0F0086
:10ED6600380C00001C0C00000E0C0000060C000005
:10ED7600030E0000030600000307000083030000E3
:10ED8600C7030000FF010000FE0000003C00000079
:10ED9600000000000000000000000000000000006D
:10EDA600000000000000000000000000000000005D
:10EDB60000000000000000140000000000E0030056
:10EDC60000F0070000F80F00001C0E00000E0C00FB
:10EDD60000060C0000070C000003060000030700F5
:10EDE6000083030000C3010000F3000000FFFF07DB
:10EDF60000FFFF0F00FEFF0F0000000600000003EB
:10EE060000008003000080010000000000000000F8
:10EE160000000000000000000000000000000000EC
:10EE2600000000000D000000000000000000FF0FC1
:10EE36000000FF0F0000FF0F0000180000000C008C
:10EE460000000600000002000000030000001F0092
:10EE560000001F0000000E0000000000000000007F
:10EE6600000000000000000000000000000000009C
:10EE7600000000000000000000000000000000008C
:10EE8600000000000000000000000000000000007C
:10EE960000110000000000380600007C0700007C1E
:10EEA6000600006E0C0000660C0000660C00006395
:10EEB6000C0000230C0000330C0000330600003366
:10EEC6000600003306000033030000F2030000E0F2
:10EED600010000E00000000000000000000000004B
:10EEE600000000000000000000000000000000001C
:10EEF60000000000000000000000000000001100FB
:10EF060000000000060000000600000006000000E9
:10EF1600070000E0FF0700E0FF0F00E0FF0F000022
:10EF2600030C0000030C000003040000030600802D
:10EF36000107008001030000C1030000C0010000BA
:10EF4600800000000000000000000000000000003B
:10EF560000000000000000000000000000000000AB
:10EF660000000000000000000000000F000000008C
:10EF76000000000000FF070000FF070000FF0F0071
:10EF860000000C0000000C0000000C000000060051
:10EF960000000600000007000080030000FF0F00CD
:10EFA60000FF0F0000FF0F0000000000000000003F
:10EFB600000000000000000000000000000000004B
:10EFC600000000000000000000000000000000003B
:10EFD60000000000000000000F00060000001F00F7
:10EFE60000007F000000FE030000E00F0000800F1D
:10EFF6000000000F0000C0070000E0010000F00064
:10F0060000003C0000001E0000000F00000007008A
:10F0160000000300000000000000000000000000E7
:10F0260000000000000000000000000000000000DA
:10F0360000000000000000000000000000000000CA
:10F046000000000000160000000000070000001F7E
:10F05600000000FF000000F0070000C00F000000E5
:10F066000F0000C0070000E0010000F80000003FAC
:10F076000000001F0000007F000000F8010000E013
:10F08600070000800F0000800F0000E0030000F082
:10F096000100007E0000001F0000000700000000C5
:10F0A600000000000000000000000000000000005A
:10F0B60000000F000000000002060000070E00001E
:10F0C6000F0700009C030000F8010000F801000093
:10F0D600F0000000F0000000F8010000DC01000074
:10F0E6008E03000007070000070E0000000C00005A
:10F0F600000000000000000000000000000000000A
:10F1060000000000000000000000000000000000F9
:10F1160000000000000000000000000000000010D9
:10F126000002E0000007E001001F8001003E8001B0
:10F136000078800100F0C00100E0E1000080F700E7
:10F1460000007F0000001F0000C00F0000F0030059
:10F1560000FC0000003F0000000F0000000300005C
:10F166000000000000000000000000000000000099
:10F176000000000000000000000000000000000089
:10F186000000000000000000000000000F00000862
:10F1960000000E0C00000E0E0000060F0000060F09
:10F1A6000000860F0000C60D0000E60C0000760C7D
:10F1B60000003E0C00003E0C00001E0C00000E0C71
:10F1C6000000070E0000030E000000000000000013
:10F1D6000000000000000000000000000000000029
:10F1E6000000000000000000000000000000000019
:10F1F6000000000000000000000D0000000000609C
:10F206000000006000000060000000E0000000F068
:10F21600FF01E0FFFF01F81FFF03F80F00031C00CA
:10F2260000030C0000030C0000030C0000010000AA
:10F2360000000000000000000000000000000000C8
:10F2460000000000000000000000000000000000B8
:10F2560000000000000000000000000000000000A8
:10F26600000000000000050000000000000000FF94
:10F27600FFFF07FFFFFF07FFFFFF0700000000007B
:10F286000000000000000000000000000000000078
:10F296000000000000000000000000000000000068
:10F2A6000000000000000000000000000000000058
:10F2B6000000000000000000000000000000000048
:10F2C6000000000000000000000000000000000038
:10F2D6000000000C080000030C0000030C000003F3
:10F2E6000C0080030C00FF01FC8FFF01F8FF7F007C
:10F2F600F0FF0000007000000060000000600000E9
:10F306000060000000000000000000000000000097
:10F3160000000000000000000000000000000000E7
:10F3260000000000000000000000000000000000D7
:10F3360000000000000000000000000000000000C7
:10F346000D000000000080000000E0010000E00069
:10F356000000300000003000000070000000600077
:10F366000000C0000000C0000000E00000007800BF
:10F37600000038000000000000000000000000004F
:10F386000000000000000000000000000000000077
:10F396000000000000000000000000000000000067
:10F3A600000000000000000000000000000800004F
:10F3B6000000FEFF1F00FEFF1F00020010000200FB
:10F3C600100002001000FEFF1F00FEFF1F000000DD
:10F3D6000000000000000000000000000000000027
:10F3E6000000000000000000000000000000000017
:10F3F6000000000000000000000000000000000007
:10F4060000000000000000000000000000000000F6
:10F4160000000000000000000000060000000000E0
:10F4260000000000000000000000000000000000D6
:10F43600000200007E030000000000000000000043
:10F4460000000000000000000400000F0000000F94
:10F45600000000000000000000000000000000089E
:10F46600000040004803F8004E03F8004E00080074
:10F476000000000000000618022402FF0F440244A8
:10F48600028401000000000000000000000B0000E4
:10F496001C00220022029C0160001000CC01220206
:10F4A6002002C00108CC0132022202220252028C42
:10F4B60001E00100020000000000000200000F0051
:10F4C6000000000000000000000000000000000036
:10F4D6000000050000F0010C060208011000000003
:10F4E60000000000000000000004011002080C06E5
:10F4F600F001000000000000000000000000000015
:10F506000600000A0004001F0004000A00000000B4
:10F516000000000000000007200020002000FC0181
:10F526002000200020000000000000000000020073
:10F5360008000700000000000000000000000000B6
:10F546000000000000042000200020002000000031
:10F5560000000000000000000000000002000000A3
:10F566000300000000000000000000000000000092
:10F5760000000005000C800360001C000300000072
:10F586000000000000000000000006FC010202026C
:10F596000202020202FC010000000000000000005E
:10F5A6000006000004020402FE030002000200003E
:10F5B600000000000000000006040382024202422E
:10F5C6000222021C020000000000000000000006EB
:10F5D60004010202220222022202DC0100000000D3
:10F5E600000000000000066000500048004400FED5
:10F5F60003400000000000000000000000061E019D
:10F606001202120212021202E201000000000000C1
:10F616000000000006F8011402120212021202E0B3
:10F6260001000000000000000000000602000202C7
:10F63600820162001A0006000000000000000000BF
:10F64600000006DC012202220222022202DC010064
:10F65600000000000000000000063C0042024202DA
:10F6660042024201FC000000000000000000000011
:10F676000300000000180300000000000000000066
:10F68600000000000000000300000008180700004A
:10F69600000000000000000000000000000008005C
:10F6A600002000200050005000880088000401005F
:10F6B60000000000000800009000900090009000FC
:10F6C6009000900090000000000000000800000478
:10F6D6000188008800500050002000200000000033
:10F6E6000000000504004203220012000C00000086
:10F6F600000000000000000000000BF0000C0304F6
:10F7060002F2040A050A050A05FA0504010C01F0CD
:10F7160000070003E000980086009800E000000360
:10F72600000000000000000006FE03220222022262
:10F73600023C02C0010000000000000000000007BB
:10F74600F8000401020202020202020204010000A1
:10F7560000000000000007FE03020202020202028D
:10F76600020401F800000000000000000006FE038D
:10F7760022022202220222022202000000000000CF
:10F786000000000006FE03220022002200220022C2
:10F79600000000000000000000000007F80004015F
:10F7A6000202020242024202C403000000000000FC
:10F7B600000007FE0320002000200020002000FE9D
:10F7C600030000000000000000030202FE03020224
:10F7D6000000000000000000000000000000000023
:10F7E60004000202020202FE010000000000000006
:10F7F6000000000000000006FE0320005000880004
:10F80600040102020000000000000000000005FEE6
:10F8160003000200020002000200000000000000D7
:10F82600000000000009FE030600180060008001C9
:10F83600600018000600FE030000000007FE030635
:10F846000018002000C0000003FE030000000000B6
:10F8560000000008F800040102020202020202028D
:10F866000401F80000000000000006FE032200224A
:10F8760000220022001C0000000000000000000022
:10F886000008F8000401020202020206020A040944
:10F89600F80800000000000007FE032200220062B4
:10F8A60000A2001C0100020000000000000000078A
:10F8B6001C0122022202220222022202C4010000AC
:10F8C60000000000000007020002000200FE030222
:10F8D6000002000200000000000000000007FE0019
:10F8E60000010002000200020001FE00000000000C
:10F8F60000000000070E003000C0000003C000300A
:10F90600000E0000000000000000000B1E00E001D9
:10F916000002C001380006003800C0010002E00104
:10F926001E000702020401D8002000D800040102CC
:10F936000200000000000000000702000C0010009A
:10F94600E00310000C0002000000000000000000B0
:10F956000602038202620212020A02060200000086
:10F9660000000000000000040000FF0F010801086D
:10F976000000000000000000000000000000050379
:10F98600001C0060008003000C0000000000000066
:10F99600000000000004000001080108FF0F00003D
:10F9A6000000000000000000000000000900001038
:10F9B6000008000400020002000400080010000015
:10F9C60000000007000800080008000800080008FA
:10F9D6000008000000000000000005000000000014
:10F9E600000100020000000000000000000000000E
:10F9F600000680014802480248024801F003000060
:10FA0600000000000000000006FF031002080208C4
:10FA1600020802F0010000000000000000000005DE
:10FA2600F0010802080208020802000000000000B7
:10FA360000000000000006F00108020802080208A3
:10FA460001FF030000000000000000000006F001B6
:10FA56004802480248024802700100000000000007
:10FA660000000000050800FE03090009000100006F
:10FA7600000000000000000000000006F00108126F
:10FA8600081208120811F80F00000000000000001C
:10FA9600000006FF031000080008000800F003003D
:10FAA600000000000000000000020000FA03000051
:10FAB6000000000000000000000000000000000040
:10FAC6000300100810FA0F000000000000000000FC
:10FAD6000000000000000005FF034000A000100128
:10FAE6000802000000000000000000000000020004
:10FAF60000FF0300000000000000000000000000FE
:10FB060000000000000A0000F803100008000800CA
:10FB1600F003100008000800F003000006F80310C8
:10FB260000080008000800F00300000000000000C4
:10FB360000000006F0010802080208020802F001AF
:10FB46000000000000000000000006F81F10020878
:10FB56000208020802F00100000000000000000098
:10FB66000006F0010802080208020801F81F00005A
:10FB7600000000000000000004F803100008000860
:10FB8600000000000000000000000000000000056A
:10FB960030014802480248029001000000000000BF
:10FBA600000000000000040800FE01080208020030
:10FBB6000000000000000000000000000006F80140
:10FBC6000002000200020001F8030000000000002D
:10FBD60000000000051800E0000003E00018000027
:10FBE6000000000000000000000000091800E0000E
:10FBF6000003E0001800E0000003E0001800000029
:10FC06000000050802B0014000B001080200000033
:10FC1600000000000000000000051800E0180007C2
:10FC2600E0001800000000000000000000000000D6
:10FC36000508038802480228021802000000000096
:10FC4600000000000000000540004000BE0701085B
:10FC56000108000000000000000000000000030092
:10FC6600000000FF0F000000000000000000000080
:10FC760000000000000501080108BE074000400022
:10FC86000000000000000000000000000800006006
:10FC9600001000100020004000400030000000006E
:10FCA60000000003FF030102FF0300000000000044
:10FCB6000000000000000000000005000000000039
:10FCC6000500005F000005000700070005147F140B
:10FCD6007F1405242A7F2A12052313086462053639
:10FCE6004956205005080703000005001C22410064
:10FCF600050041221C000514083E08140508083EAC
:10FD060008080500B0700000050808080808050086
:10FD160060600000052010080402053E5149453E7A
:10FD26000500427F4000057249494946052141497F
:10FD36004D33051814127F10052745454539053CF6
:10FD46004A494931054121110907053649494936CC
:10FD560005464949291E05000014000005004034E7
:10FD6600000005081422410005141414141405415A
:10FD760022140800050201590906053E415D594E47
:10FD8600057C1211127C057F49494936053E4141E1
:10FD96004122057F4141413E057F49494949057F49
:10FDA60009090909053E41415173057F0808087F85
:10FDB6000500417F4100052040413F01057F0814B1
:10FDC6002241057F40404040057F020C027F057FAF
:10FDD6000408107F053E4141413E057F0909090699
:10FDE600053E4151215E057F0919294605264949E7
:10FDF60049320501017F0101053F4040403F051F93
:10FE06002040201F053F4038403F05631408146317
:10FE160005030478040305615149454305007F4104
:10FE26004100050204081020050041417F00050439
:10FE36000201020405404040404005070B00000057
:10FE4600052054547840057F2844443805384444F6
:10FE5600442805384444287F05385454541805006E
:10FE6600087E09020518A4A49C78057F0804047876
:10FE76000500447D4000052040403D00057F1028D8
:10FE860044000500417F4000057C04780478057C29
:10FE96000804047805384444443805FC182424181A
:10FEA6000518242418FC057C080404080548545445
:10FEB60054240504043F4424053C4040207C051C92
:10FEC6002040201C053C4030403C05442810284476
:10FED600054C9090907C054464544C4405000836CB
:10FEE60041000500007700000500413608000504C2
:10FEF6000204080405007F417F00566F6C3A2575A1
:10FF06002E253032752F25752E2530327556004335
:10FF1600686172672F44697363682F53746F720048
:10FF26004375723A253034752F253034756D41008E
:10FF36002530327568253032756D2530327573007F
:10FF46004F4E2F4F46463A202558200A0D0052455F
:10FF56005345543A202558200A0D004361703A252E
:10FF66003034756D41680043686172672F44697368
:10FF76006368004379636C653A25752F25750042E1
:10FF86005553593A202558200A0D0054656D703A8C
:10FF96002530327543004F7074696F6E73203100DF
:10FFA6004368617267696E67004C692D496F6E0020
:10FFB6004241542031004241542032004E692D4DB9
:10FFC6004800535441525400444953430049444C59
:10FFD6004500434852470054455354004D454E553D
:10FFE60000504200575D002E20003120002564009D
:09FFF6004B004E005000520000C7
:020000040001F9
:100000000F6E000E126E12C01DF01DC01AF01AC045
:1000100017F017C016F016C01CF01CC01BF01BC058
:1000200010F010C011F011C013F013C018F0196ACD
:10003000B2C013F0B3C010F010C011F0200E0F5E6C
:100040000001B751B903F3CF09F0F4CF0AF0010E64
:100050000924016E000E0A20026E0FC003F0046A2C
:100060002FEC95F001C014F002C015F014500001FF
:10007000B525096E1550B6210A6E09C0F6FF0AC0F3
:10008000F7FF000EF86E0800F5CF16F0144A152A97
:10009000B25116241D6E7F0E1D6451EF80F053EF98
:1000A00080F056EF80F01D50800F165EB351070BA5
:1000B0001A6EB8511AC009F00A6A0926000E0A22FF
:1000C000B951080D0950F35CF450800A0B6E0A50C8
:1000D000800A0B58D8B06FEF80F071EF80F075EFA9
:1000E00080F0B929176E77EF80F0B9C017F0B3C070
:1000F00001F0026A000E046E080E036E8FEC8DF0A4
:10010000015017241D6E080E1D6489EF80F08BEFDF
:1001100080F08EEF80F01D50F80F175E14C018F0BD
:1001200015C019F0000E1C6E52EF82F011C002F0E3
:100130001350DBEC95F0000E1B6E20EF82F01C508C
:10014000D8A4A5EF80F0A7EF80F00BEF81F00001BD
:10015000BB51D8A4AEEF80F0B0EF80F0CCEF80F0D0
:10016000B9511B02F3CF09F0F4CF0AF00950B525BD
:100170000B6E0A50B6210C6E18500B2619500C222B
:100180000BC0F6FF0CC0F7FF000EF86E0800F5502C
:10019000FF0A1D6EE5EF80F0B9511B02F3CF09F0A5
:1001A000F4CF0AF00950B5250B6E0A50B6210C6E3B
:1001B00018500B2619500C220BC0F6FF0CC0F7FF8D
:1001C000000EF86E0800F5CF1DF01A28096EEBEF4F
:1001D00080F0D8901D36092EE9EF80F00001BB5168
:1001E000D8A4F5EF80F0F7EF80F0F6EF81F01A5029
:1001F0000808096EFF0E0A6E000E0B6E092A04EF46
:1002000081F00B340B320A32092E01EF81F00A50D3
:100210001D12F6EF81F00001BB51D8A412EF81F05E
:1002200014EF81F03AEF81F0B9511B02F3CF09F0DE
:10023000F4CF0AF00950B5250B6E0A50B6210C6EAA
:100240001C500B26000E0C2218500B2619500C22A5
:10025000FF0E0B240D6EFF0E0C200E6E0DC0F6FF70
:100260000EC0F7FF000EF86E0800F550FF0A1D6E75
:100270005DEF81F0B9511B02F3CF09F0F4CF0AF022
:100280000950B5250B6E0A50B6210C6E1C500B267A
:10029000000E0C2218500B2619500C22FF0E0B24B6
:1002A0000D6EFF0E0C200E6E0DC0F6FF0EC0F7FF98
:1002B000000EF86E0800F5CF1DF01A500808096E00
:1002C00009280A6E66EF81F0D8901D320A2E64EF7D
:1002D00081F0010E0001B96570EF81F072EF81F0DD
:1002E000C2EF81F0BB51D8A478EF81F07AEF81F0B2
:1002F0009AEF81F0B9511B02F3CF09F0F4CF0AF065
:100300000950B5250B6E0A50B6210C6E1C500B26F9
:10031000000E0C2218500B2619500C220BC0F6FFB1
:100320000CC0F7FF000EF86E0800F550FF0A126EC1
:10033000B7EF81F0B9511B02F3CF09F0F4CF0AF007
:100340000950B5250B6E0A50B6210C6E1C500B26B9
:10035000000E0C2218500B2619500C220BC0F6FF71
:100360000CC0F7FF000EF86E0800F5CF12F01A2847
:10037000096EBDEF81F0D8901236092EBBEF81F0E7
:1003800012501D120001BB51D8A4C9EF81F0CBEF70
:1003900081F0F6EF81F01C50096E0A6AFF0E1724F7
:1003A0000B6E0C6AFF0E0C2209500B1807E10A5065
:1003B0000C18D8A4DEEF81F0E0EF81F0F6EF81F0C9
:1003C0001A50D8B4E6EF81F0E8EF81F0F6EF81F053
:1003D0001AC009F0FF0E0A6E092AF1EF81F0D890D9
:1003E0000A36092EEFEF81F00A501D120001BA05FE
:1003F000D8A4FDEF81F0FFEF81F015EF82F0BB5143
:10040000D8A405EF82F007EF82F00FEF82F0B3C0BF
:1004100001F0B251E9EC94F01D1615EF82F0B3C073
:1004200001F0B251E9EC94F01D12B3C001F01DC00F
:1004300002F00001B251CFEC94F00001B22B1B2A64
:1004400016501B5CD8A027EF82F029EF82F09FEFB7
:1004500080F00001BA51D8A430EF82F032EF82F080
:1004600041EF82F0BB51D8A438EF82F03AEF82F02E
:100470003DEF82F01D6847EF82F0000E1D6E47EFE2
:1004800082F0B3C001F0B251E9EC94F01D6EB3C03C
:1004900001F01DC002F00001B251CFEC94F0080E43
:1004A00011261C2A17501C5CD8A059EF82F05BEF74
:1004B00082F096EF80F010C002F013501624096EFF
:1004C0000928DBEC95F01200000E136E0001C751F5
:1004D00009E10A0EC65DD8A070EF82F072EF82F0DB
:1004E00073EF84F066EF84F01350090DF3CF08F03A
:1004F000F4CF09F008500001E8250A6E0950E921FF
:100500000B6E060E0A24D96E000E0B20DA6E02D88E
:1005100094EF82F00500FA6EDE50FD6EDE50FE6E46
:10052000DE50FF6EFA5012000009D8B49AEF82F044
:100530009DEF82F0010E9EEF82F0000E126E12040B
:10054000D8A4A5EF82F0A7EF82F078EF83F01350E4
:10055000090DF3CF08F0F4CF09F008500001E825A9
:10056000D96E0950E921DA6EDFB8B9EF82F0BBEF3E
:1005700082F0EBEF82F0EAC001F0EB5146EC92F032
:10058000086E1350090DF3CF09F0F4CF0AF00950AB
:100590000001E8250B6E0A50E9210C6E010E0B24B8
:1005A000D96E000E0C20DA6EDF2A0850DE5CD8A06F
:1005B000DCEF82F0DEEF82F0EBEF82F01350090DFA
:1005C000F3CF08F0F4CF09F00850E825D96E0950B0
:1005D000E921DA6EDF881350090DF3CF08F0F4CF6C
:1005E00009F00850E825D96E0950E921DA6EDFA834
:1005F000FCEF82F0FEEF82F061EF83F01350090D03
:10060000F3CF08F0F4CF09F00850E825D96E09506F
:10061000E921DA6EDF30E832030BE806D8A413EFE5
:1006200083F015EF83F061EF83F01350090DF3CFE2
:1006300008F0F4CF09F00850E8250A6E0950E921C6
:100640000B6E040E0A24D96E000E0B20DA6EDECF7C
:1006500001F0DDCF02F0EAC003F0046A74EC91F01F
:100660001350090DF3CF0CF0F4CF0DF00C50000136
:10067000E8250E6E0D50E9210F6E020E0E24D96E84
:10068000000E0F20DA6EDE2A000EDD220150DE5C45
:100690000250DE58D8A04FEF83F051EF83F061EFA6
:1006A00083F01350090DF3CF08F0F4CF09F0085090
:1006B000E825D96E0950E921DA6EDF50FC0B0209FA
:1006C000DF6E12C008F01350090DF3CF09F0F4CF1C
:1006D0000AF00950E825D96E0A50E921DA6E084679
:1006E0000846DF500818F30B0818DF6E65EF84F03A
:1006F0001250D8A47EEF83F080EF83F065EF84F092
:100700001350090DF3CF08F0F4CF09F008500001A1
:10071000E825D96E0950E921DA6EDFA892EF83F05F
:1007200094EF83F04FEF84F01350090DF3CF08F0EE
:10073000F4CF09F00850E8250A6E0950E9210B6E44
:10074000010E0A24D96E000E0B20DA6EDF50D8B4E9
:10075000ACEF83F0AEEF83F0C3EF83F01350090DDD
:10076000F3CF08F0F4CF09F00850E8250A6E0950DD
:10077000E9210B6E010E0A24D96E000E0B20DA6EF1
:10078000DF0665EF84F01350090DF3CF08F0F4CFC6
:1007900009F00850E825D96E0950E921DA6EDF9892
:1007A0001350090DF3CF08F0F4CF09F00850E825F5
:1007B0000A6E0950E9210B6E040E0A24D96E000E50
:1007C0000B20DA6EDECF01F0DDCF02F0EAC003F0DD
:1007D000046A74EC91F01350090DF3CF0CF0F4CFD0
:1007E0000DF00C500001E8250E6E0D50E9210F6E42
:1007F000020E0E24D96E000E0F20DA6E0150DE5C60
:100800000250DE58D8B007EF84F009EF84F035EFDE
:1008100084F01350090DF3CF08F0F4CF09F008501D
:10082000E8250A6E0950E9210B6E010E0A24D96EE3
:10083000000E0B20DA6EDF50D8A421EF84F023EFF6
:1008400084F065EF84F01350090DF3CF08F0F4CF76
:1008500009F00850E825D96E0950E921DA6EDF5019
:10086000FC0B0109DF6E65EF84F01350090DF3CF27
:1008700008F0F4CF09F00850E825D96E0950E921B5
:10088000DA6EDF50030B020AD8A449EF84F04BEF75
:1008900084F04DEF84F065EF84F065EF84F0135041
:1008A000090DF3CF08F0F4CF09F00850E8250A6EDF
:1008B0000950E9210B6E020E0A24D96E000E0B209E
:1008C000DA6E000EDE6E000EDD6E132A040E136467
:1008D0006CEF84F06EEF84F074EF82F0000E000194
:1008E000C76F000EC66F120040C0D9FF41C0DAFFCB
:1008F000DECFF6FFDDCFF7FF000EF86E0800F550F3
:10090000250AD8A486EF84F088EF84F0C5EF85F03F
:1009100040C0D9FF41C0DAFFDE2A000EDD22000E02
:100920000001C16F000EC06FC0C05EF0C269C36934
:10093000000E516E000E506ECAEF84F05E8240C011
:10094000D9FF41C0DAFFDE2A000EDD22CAEF84F0B3
:10095000000E516E010E506ECAEF84F040C0D9FFF8
:1009600041C0DAFFDECFF6FFDDCFF7FF000EF86EF5
:100970000800F550446E456A4550000AD8B4C3EFEC
:1009800084F0A8EF84F04450300AD8B49EEF84F08D
:10099000A8EF84F050505110D8B4D1EF84F0D3EFC9
:1009A00084F0AEEF84F040C0D9FF41C0DAFFDECF63
:1009B000F6FFDDCFF7FF000EF86E0800F5502A0AAB
:1009C000D8A4E5EF84F0E7EF84F011EF85F040C0A4
:1009D000D9FF41C0DAFFDE2A000EDD2242C0D9FF76
:1009E00043C0DAFFDFCF44F0020EDE26DFCF45F052
:1009F000000EDD2244C0D9FF45C0DAFFDECFC0F0D3
:100A0000DDCFC1F00001C1BF0AEF85F008EF85F02E
:100A100046EF85F05E80C06DC11FD8B0C12B46EF98
:100A200085F040C0D9FF41C0DAFFDECF07F0DDCF4F
:100A300008F0B2EC8AF007C0C0F008C0C1F028EF9F
:100A400085F040C0D9FF41C0DAFFDE2A000EDD226A
:100A500040C0D9FF41C0DAFFDECFF6FFDDCFF7FFA0
:100A6000000EF86E0800F5CF44F0D00E4424456E19
:100A7000466AFF0E4622465009E10A0E455CD8A0A0
:100A800044EF85F046EF85F021EF85F040C0D9FFB7
:100A900041C0DAFFDECF52F0DDCF53F052C0F6FF97
:100AA00053C0F7FF000EF86E0800F550750AD8A481
:100AB0005CEF85F05EEF85F0BCEF85F042C0D9FFBA
:100AC00043C0DAFFDFCF44F0020EDE26DFCF45F071
:100AD000000EDD2244C0D9FF45C0DAFFDECF46F06C
:100AE000DDCF47F046C048F047C049F04A6A4B6A3C
:100AF0004C6A4D6A4E6A4F6A010E5224446E000ED3
:100B00005320456E40C0D9FF41C0DAFF44C0DEFF2C
:100B100045C0DDFFA4EF85F03EC01EF03FC01FF0D2
:100B200048C020F049C021F04AC022F04BC023F059
:100B30004CC024F04DC025F04EC026F04FC027F029
:100B400014EC87F0DBEF85F052C0F6FF53C0F7FFDF
:100B5000000EF86E0800F550446E456A4550000AD4
:100B6000D8B4B5EF85F0BCEF85F04450750AD8B421
:100B70008CEF85F0BCEF85F040C0D9FF41C0DAFFB3
:100B8000DE2A000EDD22DBEF85F040C0D9FF41C038
:100B9000DAFFDECFF6FFDDCFF7FF000EF86E0800BC
:100BA000F550036E046A3EC005F03FC006F02AEC23
:100BB0008DF0BCEF85F01200186E800E1860E3EF28
:100BC00085F0E5EF85F013EF87F0800E0860EBEF1E
:100BD00085F0EDEF85F013EF87F0400E0760F3EF3F
:100BE00085F0F5EF85F013EF87F0400E0960FBEF1D
:100BF00085F0FDEF85F013EF87F00750095C0B6E71
:100C00000B281A6E1850085C0B6E0B28146E0750D8
:100C1000070B166E1650075E1968080E0B6E000E55
:100C20000C6E16500B5E000E0C5A1A500D6E0E6AAA
:100C30000B500D5C0E50800A0F6E0C50800A0F583E
:100C4000D8B025EF86F027EF86F037EF86F01A5000
:100C500008080B6E0B280C6E30EF86F0D890193216
:100C60000C2E2EEF86F01AC015F03AEF86F01650D3
:100C70000808156E16280B6E40EF86F0D8901936CE
:100C80000B2E3EEF86F007C002F01850DBEC95F01B
:100C9000000E176E77EF86F0B3C001F00001B2517D
:100CA000E9EC94F01B6E0A28D8B459EF86F05BEF9C
:100CB00086F064EF86F01950FF0A1B140B6E0B5080
:100CC000106E116A6AEF86F01B5019100B6E0B50F4
:100CD000106E116A10C01BF0B3C001F01BC002F00F
:100CE0000001B251CFEC94F00001B22B172A14503E
:100CF000175CD8A07EEF86F080EF86F04CEF86F090
:100D0000A3EF86F0080E1526080E072607C002F08E
:100D10001850DBEC95F0000E176E9AEF86F0B3C01A
:100D200001F00AC002F00001B251CFEC94F00001D2
:100D3000B22B172A1450175CD8A0A1EF86F0A3EFAE
:100D400086F08FEF86F015500B6E0C6A080E0B269E
:100D5000000E0C221A500D6E0E6A0B500D5C0E50D8
:100D6000800A0F6E0C50800A0F58D8B0BAEF86F088
:100D7000BCEF86F082EF86F01A50155CD8B0C3EF56
:100D800086F0C5EF86F013EF87F015501A5C0B6EF6
:100D9000FF0E0C6E0B2ACFEF86F0D8900C360B2E80
:100DA000CDEF86F00C50FF0A196E0750080F026E47
:100DB0001850DBEC95F0000E176E0AEF87F0B3C009
:100DC00001F00001B251E9EC94F01B6E0A28D8B48E
:100DD000ECEF86F0EEEF86F0F7EF86F01950FF0AA1
:100DE0001B140B6E0B50126E136AFDEF86F01B5036
:100DF00019100B6E0B50126E136A12C01BF0B3C0A9
:100E000001F01BC002F00001B251CFEC94F00001E0
:100E1000B22B172A1450175CD8A011EF87F013EFEC
:100E200087F0DFEF86F012000001C3BF1AEF87F0F2
:100E30001CEF87F01DEF87F05E92C3BF2AEF87F0AB
:100E4000C35106E1C205D8B028EF87F02AEF87F03A
:100E500030EF87F0000E316E010E306E34EF87F008
:100E6000C2C030F0C3C031F0C0C032F0C1C033F0F6
:100E700020C034F021C035F022C036F023C037F056
:100E800024C038F025C039F026C03AF027C03BF026
:100E9000000E3D6E1F0E3C6E000EE76FC6EF87F032
:100EA0003C06D8A03D06C80E3C24D96E000E3D205D
:100EB000DA6E34C001F035C002F036C003F037C03E
:100EC00004F038C005F039C006F03AC007F03BC066
:100ED00008F00A0E096E000E0A6E000E0B6E000E70
:100EE0000C6E000E0D6E000E0E6E000E0F6E000EDC
:100EF000106EC2EC8CF001C028F002C029F003C0D3
:100F00002AF004C02BF005C02CF006C02DF007C05D
:100F10002EF008C02FF02850300FDF6E3006D8A01A
:100F200031063206D8A0330634C001F035C002F0D5
:100F300036C003F037C004F038C005F039C006F001
:100F40003AC007F03BC008F00A0E096E000E0A6EA8
:100F5000000E0B6E000E0C6E000E0D6E000E0E6E6F
:100F6000000E0F6E000E106EE0EC8BF001C034F03E
:100F700002C035F003C036F004C037F005C038F0C9
:100F800006C039F007C03AF008C03BF03C503D10B5
:100F9000D8B4CDEF87F0CFEF87F0FFEF87F0345074
:100FA000351036103710381039103A103B10D8A4CD
:100FB000DCEF87F0DEEF87F050EF87F031BEEBEF2C
:100FC00087F0315006E13004D8B0E9EF87F0EBEF5D
:100FD00087F050EF87F033BEF6EF87F0335008E12B
:100FE0003204D8A0F6EF87F0F8EF87F0FFEF87F034
:100FF0005EB2FDEF87F0FFEF87F050EF87F01EC085
:1010000013F01FC014F0C80E3C24156E000E3D20D6
:10101000166E32C017F033C018F0A5EC8EF0120037
:10102000040E0001896FD20E886F010E876FA20E29
:10103000866F050E916FF60E906F040E856FB00EE1
:10104000846F010E836FA90E826F200E7D6F610E7B
:10105000926F8B0E936F000E946F000E956F030EC0
:101060007C6F040E7B6F42EC95F0C00E096EFC0E97
:101070000A6E050E0B6E080E0C6E010E0D6E010E43
:101080000E6EE2EC8FF0000E226E020E4DEC8EF032
:10109000020E026E020EDBEC95F0B60E1E6EFF0E17
:1010A0001F6E99EC8FF0000E216E1F0E226E0A0E3D
:1010B000236EFF0E246E000E2AEC90F0330E1C6E91
:1010C000200E1D6E3F0E1E6EFF0E1F6E000E54ECA6
:1010D00095F0360E026E020EDBEC95F0C00E096E36
:1010E000FC0E0A6E050E0B6E080E0C6E010E0D6ED8
:1010F000000E0E6EE2EC8FF0C80E1E6EFF0E1F6E1D
:1011000099EC8FF0C00E096EFC0E0A6E050E0B6E88
:10111000080E0C6E010E0D6E010E0E6EE2EC8FF0DD
:10112000360E026E250EDBEC95F0E20E1E6EFF0E03
:101130001F6E99EC8FF0330E216E3D0E226E3F0E26
:10114000236EFF0E246E230E2AEC90F00D0E026E1D
:10115000000EDBEC95F07B0E0001796F000E7A6FCC
:1011600058EC8CF0160E026E000EDBEC95F07B0E48
:101170000001796F000E7A6FCCEC92F01F0E026EB8
:10118000000EDBEC95F07B0E0001796F000E7A6F9C
:10119000FCEC93F0280E026E000EDBEC95F07B0E5B
:1011A0000001796F000E7A6FA1EC92F0000E026ED2
:1011B0004A0EDBEC95F07B0E0001796F000E7A6F22
:1011C00061EC8BF0280E026E4E0EDBEC95F07B0E80
:1011D0000001796F000E7A6FB8EC93F016EC92F084
:1011E0001200948C948E9880988898860001EA5119
:1011F000D8A4FDEF88F0FFEF88F005EF89F0000E2E
:10120000086E0A0E076E08EF89F0EAC007F0086A58
:1012100007C0EAF0EB51D8A410EF89F012EF89F083
:1012200018EF89F0000E0A6E140E096E1BEF89F09C
:10123000EBC009F00A6A09C0EBF0EC51ED11D8A43B
:1012400024EF89F026EF89F02CEF89F0030E0C6E65
:10125000E80E0B6E30EF89F0ECC00BF0EDC00CF037
:101260000BC0ECF00CC0EDF0000E0F6E0F50090D2E
:10127000F3CF01F0F4CF02F00150E825D96E02500F
:10128000E921DA6EDF980F50090DF3CF01F0F4CFAA
:1012900002F00150E825D96E0250E921DA6EF30E12
:1012A000DF160F50090DF3CF01F0F4CF02F001501B
:1012B000E825036E0250E921046E020E0324D96E64
:1012C000000E0420DA6E000EDE6E000EDD6E0F5092
:1012D000090DF3CF01F0F4CF02F00150E825036EC1
:1012E0000250E921046E010E0324D96E000E042081
:1012F000DA6E000EDF6E0F50090DF3CF01F0F4CF60
:1013000002F00150E825036E0250E921046E040E3C
:101310000324D96E000E0420DA6EDE50DE10D8A44D
:1013200094EF89F096EF89F09CEF89F0ECC00DF016
:10133000EDC00EF0B2EF89F00F50090DF3CF01F0C0
:10134000F4CF02F00150E825036E0250E921046E4B
:10135000040E0324D96E000E0420DA6EDECF0DF0E9
:10136000DDCF0EF00F50090DF3CF01F0F4CF02F0F6
:101370000150E825036E0250E921046E040E032497
:10138000D96E000E0420DA6E0DC0DEFF0EC0DDFF48
:101390000F2A040E0F64CFEF89F0D1EF89F036EFFA
:1013A00089F01200F7EC95F0FAEC95F0B4EC90F0BF
:1013B000D3EC95F0EBEC95F0C1EC95F0F1EC88F006
:1013C00085EC95F0898C10EC88F0000E0001A56F7B
:1013D00064EC82F0040EB3EC94F00009D8B4F3EF9F
:1013E00089F0F5EF89F0E8EF89F049EC93F000011E
:1013F000A551D8B4FEEF89F000EF8AF057EF8AF0DC
:10140000330E1C6E200E1D6E3F0E1E6EFF0E1F6EE5
:10141000000E54EC95F0C00E096EFC0E0A6E050E1F
:101420000B6E080E0C6E010E0D6E000E0E6EE2ECD1
:101430008FF0360E026E020EDBEC95F0C80E1E6EBB
:10144000FF0E1F6E99EC8FF0330E1C6E3D0E1D6E5D
:101450003F0E1E6E000E1F6E230E54EC95F0330EE1
:10146000216E3D0E226E3F0E236EFF0E246E230E64
:101470002AEC90F0C00E096EFC0E0A6E050E0B6E83
:10148000080E0C6E010E0D6E010E0E6EE2EC8FF06A
:10149000360E026E250EDBEC95F0E20E1E6EFF0E90
:1014A0001F6E99EC8FF016EC92F0E5EF89F0010ECB
:1014B000A56F330E1C6E200E1D6E3F0E1E6E000EAD
:1014C0001F6E000E54EC95F0330E216E200E226E2E
:1014D0003F0E236EFF0E246E000E2AEC90F0C00E1D
:1014E000096EFC0E0A6E050E0B6E080E0C6E010ED8
:1014F0000D6E010E0E6EE2EC8FF0360E026E020ED5
:10150000DBEC95F0C80E1E6EFF0E1F6E99EC8FF08F
:10151000330E1C6E3D0E1D6E3F0E1E6EFF0E1F6EB7
:10152000230E54EC95F0C00E096EFC0E0A6E050EEB
:101530000B6E080E0C6E010E0D6E000E0E6EE2ECC0
:101540008FF0360E026E250EDBEC95F0E20E1E6E6D
:10155000FF0E1F6E99EC8FF016EC92F0E8EF89F019
:101560002DEF00F0000E0F6E000E0E6E000E0D6ED1
:10157000000E0C6EBEEF8AF0074A082A07C0F6FF7D
:1015800008C0F7FF000EF86E0800F550200AD8B426
:10159000CCEF8AF0CEEF8AF0BCEF8AF007C0F6FFFE
:1015A00008C0F7FF000EF86E0800F5CF09F0F70E3F
:1015B00009240A6E0B6AFF0E0B220B5009E1050E7F
:1015C0000A5CD8A0E6EF8AF0E8EF8AF0BCEF8AF078
:1015D000F2EF8AF0000E0D6E010E0C6E074A082A1B
:1015E0002BEF8BF007C0F6FF08C0F7FF000EF86E78
:1015F0000800F550096E0A6A0A50000AD8B403EFD1
:101600008BF02BEF8BF009502B0AD8B4EEEF8AF059
:10161000060AD8B4EAEF8AF02BEF8BF00EC001F087
:101620000FC002F0000E046E0A0E036E2FEC95F050
:1016300007C0F6FF08C0F7FF000EF86E0800F5506F
:10164000015E000E025A300E01240E6E000E0220C2
:101650000F6EEEEF8AF007C0F6FF08C0F7FF000E2E
:10166000F86E0800F5CF09F0D00E09240A6E0B6A57
:10167000FF0E0B220B5009E10A0E0A5CD8A043EFC3
:101680008BF045EF8BF00EEF8BF00C500D10D8A4C3
:101690004CEF8BF04EEF8BF05CEF8BF00EC009F04F
:1016A0000FC00AF0091E0A1E094A0A2A09C007F0DB
:1016B0000AC008F060EF8BF00EC007F00FC008F012
:1016C00012001B0E00017925606F000E7A21616FF8
:1016D000360E626FFF0E636F20EE17F07951D92638
:1016E0007A51DA22DECF0AF0DECF0BF0DECF0CF03B
:1016F000DECF0DF0100E0E6E0E0E0F6E000E106E81
:10170000000E116EFAEC8EF00AC064F00BC065F0AA
:10171000100E056E0E0E066E000E076E000E086EA1
:10172000000120EE17F07951D9267A51DA22DECF66
:1017300001F0DECF02F0DECF03F0DECF04F070EC7C
:1017400090F001C00AF002C00BF003C00CF004C01E
:101750000DF03C0E0E6E000E0F6E000E106E000EA1
:10176000116EFAEC8EF00AC066F00BC067F0000153
:1017700020EE17F07951D9267A51DA22DECF01F026
:10178000DECF02F0DECF03F0DECF04F03C0E056EBC
:10179000000E066E000E076E000E086E70EC90F0E4
:1017A00001C068F002C069F0F7EC92F01B0E000176
:1017B00079251E6E000E7A211F6E99EC8FF01200B3
:1017C00020EE11F0070EDE6AE806FDE209500A106D
:1017D0000B100C100D100E100F101010D8B4F3EFEA
:1017E0008BF0F5EF8BF047EF8CF0010E196E03EFE5
:1017F0008CF0D89009360A360B360C360D360E367C
:101800000F361036192A10AE08EF8CF00AEF8CF064
:10181000F9EF8BF0D8901136123613361436153690
:101820001636173618360950015C0A5002580B500C
:1018300003580C5004580D5005580E5006580F50C0
:10184000075810500858D8A028EF8CF02AEF8CF0D9
:101850003BEF8CF00950015E0A50025A0B50035ABC
:101860000C50045A0D50055A0E50065A0F50075A84
:101870001050085A1180D89010320F320E320D32AB
:101880000C320B320A320932192E0AEF8CF011C0D9
:1018900001F012C002F013C003F014C004F015C030
:1018A00005F016C006F017C007F018C008F01200C7
:1018B0001B0E00017925606F000E7A21616F000E0A
:1018C000626FFF0E636F20EE07F07951D9267A51CF
:1018D000DA22DECF01F0DDCF02F0000E046E640EDE
:1018E000036E74EC91F001C064F002C065F0000179
:1018F00020EE07F07951D9267A51DA22DECF01F0B5
:10190000DDCF02F0000E046E640E036EE4EC91F085
:1019100001C066F002C067F0000120EE0BF07951C3
:10192000D9267A51DA22DECF01F0DDCF02F0000EA7
:10193000046E640E036E74EC91F001C068F002C096
:1019400069F0000120EE0BF07951D9267A51DA22A4
:10195000DECF01F0DDCF02F0000E046E640E036EE8
:10196000E4EC91F001C06AF002C06BF0F7EC92F089
:101970001B0E000179251E6E000E7A211F6E99EC58
:101980008FF0120009500A100B100C100D100E10E1
:101990000F101010D8B4CFEF8CF0D1EF8CF019EFFE
:1019A0008DF0010E116EDFEF8CF0D89009360A36FB
:1019B0000B360C360D360E360F361036112A10AE99
:1019C000E4EF8CF0E6EF8CF0D5EF8CF00950015C81
:1019D0000A5002580B5003580C5004580D5005582B
:1019E0000E5006580F50075810500858D8A0FBEF5B
:1019F0008CF0FDEF8CF00DEF8DF00950015E0A5078
:101A0000025A0B50035A0C50045A0D50055A0E50EE
:101A1000065A0F50075A1050085AD89010320F32F9
:101A20000E320D320C320B320A320932112EE6EF31
:101A30008CF001C001F002C002F003C003F004C04A
:101A400004F005C005F006C006F007C007F008C0A6
:101A500008F0120005500610D8B431EF8DF033EFC6
:101A60008DF03CEF8DF005500610D8A43AEF8DF0C4
:101A70003CEF8DF041EF8DF00350F2EC95F08EEFDE
:101A80008DF020EE09F00550D9260650DA22DE50FE
:101A9000DE10D8B44EEF8DF050EF8DF06BEF8DF07F
:101AA00020EE09F00550D9260650DA2210EE03F098
:101AB0000550E1260650E222DE50E65CE650800A40
:101AC0000B6EDE50800A0B58D8B069EF8DF06BEFCB
:101AD0008DF08EEF8DF020EE03F00550D9260650E4
:101AE000DA22DECF07F0DDCF08F005C0D9FF06C04F
:101AF000DAFFDECF09F0DDCF0AF007500924D96EF6
:101B000008500A20DA6E03C0DFFF20EE03F0055014
:101B1000D9260650DA22DE2A000EDD221200000E3F
:101B2000066E04BE98EF8DF096EF8DF09EEF8DF06F
:101B3000036C041ED8B0042A010E066E02BEA5EF87
:101B40008DF0A3EF8DF0ABEF8DF0016C021ED8B0DD
:101B5000022A010E061A000E086E000E076E0350D0
:101B60000410D8B4B6EF8DF0B8EF8DF0E0EF8DF043
:101B7000010E056EC0EF8DF0D89003360436052AAD
:101B800004AEC5EF8DF0C7EF8DF0BCEF8DF0D890AF
:101B9000073608360350015C04500258D8A0D3EF32
:101BA0008DF0D5EF8DF0DAEF8DF00350015E04502B
:101BB000025A0780D89004320332052EC7EF8DF009
:101BC0000650D8B4E6EF8DF0E8EF8DF0ECEF8DF035
:101BD000076C081ED8B0082A07C001F008C002F040
:101BE0001200016E01A0F7EF8DF0F9EF8DF0FCEF20
:101BF0008DF08D80FDEF8DF08D9001A202EF8EF0C3
:101C000004EF8EF007EF8EF08D8208EF8EF08D924C
:101C100001A40DEF8EF00FEF8EF012EF8EF08D8499
:101C200013EF8EF08D9401A618EF8EF01AEF8EF060
:101C30001DEF8EF08D861EEF8EF08D9601A823EF9E
:101C40008EF025EF8EF028EF8EF08D8829EF8EF044
:101C50008D9801AA2EEF8EF030EF8EF033EF8EF0DC
:101C60008D8A34EF8EF08D9A01AC39EF8EF03BEF18
:101C70008EF03EEF8EF08D8C3FEF8EF08D9C01AE9E
:101C800044EF8EF046EF8EF049EF8EF08D8E4AEFE6
:101C90008EF08D9ECAEC95F01200256E5EEF8EF0F0
:101CA000020E026E230EDBEC95F08BEF8EF0020E2F
:101CB000026E660EDBEC95F08BEF8EF02250236EF9
:101CC000246A2450000AD8B468EF8EF08BEF8EF0AF
:101CD0002350000AD8B450EF8EF0010AD8B457EF61
:101CE0008EF08BEF8EF0D80E1E6EFF0E1F6E99ECED
:101CF0008FF0A4EF8EF0CE0E1E6EFF0E1F6E99ECCD
:101D00008FF0A4EF8EF0D30E1E6EFF0E1F6E99ECB7
:101D10008FF0A4EF8EF02550236E246A2450000A21
:101D2000D8B495EF8EF0A4EF8EF02350000AD8B40B
:101D300073EF8EF0010AD8B47BEF8EF0030AD8B4AB
:101D400083EF8EF0A4EF8EF012005EA0AAEF8EF06B
:101D5000ACEF8EF0B6EF8EF015C00CF016C00DF0A3
:101D600013C00EF014C00FF0DAEC93F018BEBBEF06
:101D70008EF0BDEF8EF0C3EF8EF017C01CF018C0D0
:101D80001DF0C7EF8EF0000E1D6E000E1C6E000ED3
:101D90001B6E000E1A6ED9EF8EF0000E046E200E30
:101DA000036E13C005F014C006F02AEC8DF01A4A39
:101DB0001B2A1C501A5C1B50800A196E1D50800A89
:101DC0001958D8A0E6EF8EF0E8EF8EF0CDEF8EF048
:101DD0005EB0EDEF8EF0EFEF8EF0F9EF8EF015C004
:101DE0000CF016C00DF013C00EF014C00FF0DAECBA
:101DF00093F01200000E126E000E136E000E146EA1
:101E0000000E156E0E500F1010101110D8B40BEFFD
:101E10008FF00DEF8FF043EF8FF0010E166E17EF7E
:101E20008FF0D8900E360F3610361136162A11AEB6
:101E30001CEF8FF01EEF8FF011EF8FF0D89012365D
:101E40001336143615360E500A5C0F500B581050CE
:101E50000C5811500D58D8A030EF8FF032EF8FF0A2
:101E60003BEF8FF00E500A5E0F500B5A10500C5A79
:101E700011500D5A1280D890113210320F320E329A
:101E8000162E1EEF8FF012C00AF013C00BF014C014
:101E90000CF015C00DF01200146E020E0F18D8B41D
:101EA00054EF8FF056EF8FF05BEF8FF00F5074EC24
:101EB00092F061EF8FF0000E74EC92F0010E74EC72
:101EC00092F00F503DEC94F08C888C960001B40594
:101ED000D8B46DEF8FF06FEF8FF078EF8FF0145074
:101EE000106E116A101C126E111C136E7BEF8FF0B6
:101EF00014C012F0136A1250F1EC8DF00001B22BF5
:101F0000400EB219D8A487EF8FF089EF8FF08EEFD3
:101F10008FF0B25139EC91F098EF8FF07F0EB265EF
:101F200094EF8FF096EF8FF098EF8FF07F0EB26FF7
:101F30001200C8EF8FF00001B751B2C020F0216A43
:101F40002026000E212221BEAFEF8FF0215009E1A3
:101F5000800E205CD8A0AFEF8FF0B1EF8FF0B3EF21
:101F60008FF0E1EF8FF01EC0F6FF1FC0F7FF000EED
:101F7000F86E0F0EF76403D00800F55005D0F6CFC9
:101F8000E9FFF7CFEAFFEF5000EC80F01E4A1F2A6E
:101F90001EC0F6FF1FC0F7FF000EF86E0F0EF764AD
:101FA00003D00800F55005D0F6CFE9FFF7CFEAFFE0
:101FB000EF500009D8A4DFEF8FF0E1EF8FF09BEF37
:101FC0008FF01200800E0B60E8EF8FF0EAEF8FF0D9
:101FD00029EF90F0400E0C60F0EF8FF0F2EF8FF0F1
:101FE00029EF90F00D50D8B4F8EF8FF0FAEF8FF0A2
:101FF00002EF90F00D04D8A400EF90F002EF90F003
:1020000029EF90F009C0B5F00AC0B6F00BC0B7F0E8
:102010000CC0B8F00CC00FF0070E0F16D8A413EFC9
:1020200090F017EF90F0106A102A18EF90F0106AF5
:102030000CC001F0026A000E046E080E036E8FECF5
:102040008DF0015010240001B96F0DC0BAF00EC020
:10205000BBF01200256E800E256031EF90F033EF5B
:1020600090F06FEF90F0800E226039EF90F03BEF30
:1020700090F06FEF90F0400E216041EF90F043EF51
:1020800090F06FEF90F0400E236049EF90F04BEF2F
:1020900090F06FEF90F022C00DF021C00EF024C040
:1020A0000FF0255071EC93F022C00DF023C00EF01C
:1020B00024C00FF0255071EC93F023C01CF025C014
:1020C0001DF024C01EF0215097EC94F023C01CF0AA
:1020D00022C01DF024C01EF0215097EC94F0120095
:1020E0000550061007100810D8B479EF90F07BEF78
:1020F00090F0ABEF90F0010E096E85EF90F0D89064
:102100000536063607360836092A08AE8AEF90F0FB
:102110008CEF90F07FEF90F00550015C0650025874
:102120000750035808500458D8A099EF90F09BEF3F
:1021300090F0A3EF90F00550015E0650025A075050
:10214000035A0850045AD890083207320632053232
:10215000092E8CEF90F001C001F002C002F003C024
:1021600003F004C004F0120096909692969496960E
:102170009698969A969C969E959095929598959EEF
:10218000959695948C988C968C9E8C94270E086EC0
:10219000F50EE82EFED7082EFCD700F08C84020E38
:1021A000096E860E086E990EE82EFED7082EFCD713
:1021B000092EFAD700F0020E066E3F0E5CEC94F08A
:1021C000020E066EC00E5CEC94F0000E026E000E65
:1021D000DBEC95F0010E0001B46F000EB96FB9C0D1
:1021E000B8F0B8C0B7F0B7C0B3F0B3C0B2F01200E7
:1021F0000B6E07C002F00B50DBEC95F0B3C001F0A2
:102200000001B251E9EC94F00C6E0828D8A40BEF51
:1022100091F00DEF91F01FEF91F007C009F0070E5C
:102220000916010E0A6E092A18EF91F0D8900A36A5
:10223000092E16EF91F00A500C1230EF91F007C002
:1022400009F0070E0916010E0A6E092A2AEF91F00D
:10225000D8900A36092E28EF91F00A50FF0A0C1682
:10226000B3C001F00CC002F00001B251CFEC94F009
:1022700012000E6E800E0E6040EF91F042EF91F072
:1022800073EF91F0400E0E6048EF91F04BEF91F03C
:10229000010E4CEF91F0000E0D6E0D50D8B453EFBF
:1022A00091F055EF91F062EF91F0C00E0E24086EA0
:1022B000096AFF0E0922400E08100A6E09500B6EC3
:1022C0006AEF91F0400E0EC008F0096A08100A6E1D
:1022D00009500B6E0AC00CF00EC0B2F00DC006F033
:1022E0000C505CEC94F01200000E066E000E056EB1
:1022F00003500410D8B47FEF91F081EF91F0A9EF73
:1023000091F0010E076E89EF91F0D89003360436F4
:10231000072A04AE8EEF91F090EF91F085EF91F0E7
:10232000D890053606360350015C04500258D8A0F8
:102330009CEF91F09EEF91F0A3EF91F00350015EBE
:102340000450025A0580D89004320332072E90EFD1
:1023500091F005C001F006C002F01200040EF66E06
:102360002A0EF76E010EF86E01EE00F010EE2DF061
:102370000900F5CFEEFFE550E150FAE1C60EF66E2A
:102380002B0EF76E010EF86E00EEE8F010EE0FF077
:102390000900F5CFEEFFE550E150FAE101EE2DF036
:1023A00014EE00F0EE6AE550E150FCE1E250FAE193
:1023B00000EEA6F0420EEE6AE806FDE15E6A5F906E
:1023C0005F920001D2EF89F003500410D8B4EBEF14
:1023D00091F0EDEF91F011EF92F0010E056EF5EF37
:1023E00091F0D89003360436052A04AEFAEF91F046
:1023F000FCEF91F0F1EF91F00350015C04500258B2
:10240000D8A005EF92F007EF92F00BEF92F0035097
:10241000015E0450025AD89004320332052EFCEFBC
:1024200091F001C001F002C002F01200000E156E22
:10243000000E39EC91F015507AEC94F0000E166E07
:10244000400E166026EF92F029EF92F0010E2AEF6F
:1024500092F0000E0F6EB3C001F01650E9EC94F04C
:102460004CEC8FF0162A7F0E166439EF92F03BEF9A
:1024700092F020EF92F0080E15263F0E156443EF00
:1024800092F045EF92F018EF92F01200026E000EFB
:10249000046E0150D8B44FEF92F051EF92F072EF0A
:1024A00092F0010E036E58EF92F0D8900136032A95
:1024B00001AE5DEF92F05FEF92F055EF92F0D890A1
:1024C00004360150025CD8A068EF92F06AEF92F0F7
:1024D0006DEF92F00150025E0480D8900132032E1D
:1024E0005FEF92F004501200046E04503DEC94F043
:1024F000968E8C988C868C9E140EE82EFED78C8E31
:10250000140EE82EFED784BE88EF92F08CEF92F086
:10251000036A032A8DEF92F0036A000E03B0800E67
:10252000036E0350056E8C9EA00EE82EFED705BEEE
:102530009CEF92F09EEF92F07FEF92F08C96969E39
:1025400012001B0E00017925606F000E7A21616F69
:10255000790E626FFF0E636F20EE01F07951D9267C
:102560007A51DA22DF505C6E5C50646F656B79C023
:10257000D9FF7AC0DAFFDF505D6E5D50666F676B22
:10258000F7EC92F01B0E000179251E6E000E7A21E9
