:040000002EEF00F0EF
:100008005F82F2A40AEF00F00CEF00F02CEF00F092
:10001800FD0ED76E110ED66E0001E34BE42BE14BBB
:10002800E22BE80EE15D030EE259D8A01EEF00F0C6
:1000380020EF00F02BEF00F0000EE26F000EE16FF2
:10004800010E01010C27000E0D230E230F23F2943D
:080058005F921100FBEFA8F01C
:10C9A600004361703A3534306D4168004379636CF9
:10C9B600653A322F34004375723A3233306D410096
:10C9C600566F6C3A332C333556000E0000000000CB
:10C9D6000000000000000000000000000000000051
:10C9E6000000000000000000000000000000000041
:10C9F6000000000000000000000000000000000031
:10CA06000000000000000000000000000000000020
:10CA16000000000000000000000000000000000010
:10CA26000000000000000000000000000000000000
:10CA360000000000000000050000000000000000EB
:10CA4600FC7F0E00FC7F0F00FC7F0700000000004B
:10CA560000000000000000000000000000000000D0
:10CA660000000000000000000000000000000000C0
:10CA760000000000000000000000000000000000B0
:10CA860000000000000000000000000000000000A0
:10CA96000000000000000000000000000000000090
:10CAA60000000000090000000000000000FC01007A
:10CAB60000FC010000000000000000000000000073
:10CAC60000FC010000FC0100000000000000000066
:10CAD6000000000000000000000000000000000050
:10CAE6000000000000000000000000000000000040
:10CAF6000000000000000000000000000000000030
:10CB0600000000000000000000000000000000001F
:10CB160000110000000000600000806100008061DC
:10CB26000C0080E10F0080FD0F00807F0000F86F91
:10CB36000000FC610C008CE10F0080FD0F00807F7F
:10CB46000000F86F0000FC6100008C61000080218D
:10CB5600000080010000000000000000000000004E
:10CB660000000000000000000000000000000000BF
:10CB7600000000000000000000000000000011009E
:10CB860000000000830100C0C70300E08F030070AF
:10CB96000C0700300C0600180C060018040600FFEF
:10CBA600FF7F00FEFF3F0018060600180603001868
:10CBB6000603003886030070FE010070FC000000CA
:10CBC60078000000000000000000000000000000E7
:10CBD600000000000000000000000000000000004F
:10CBE600000000000000000000000015000000002A
:10CBF600E0000000F0010000F80300001C03040040
:10CC06000C030E008C830F00FCC10300F8F000003B
:10CC1600707C0000001E000080070300E083070010
:10CC2600F0C00F003CC00C001C600C0008600C003B
:10CC36000060060000E0070000C00300008001005D
:10CC460000000000000000000000000000000000DE
:10CC56000000000000000000160000000000E003D5
:10CC66000000F0070000F80700701C0E00F80E0C1C
:10CC760000F80F0C00DC070C008C070C000C0F0CE6
:10CC8600000C1F06008C1F0600CC390700F8710344
:10CC960000F8F0030070E0010000E0010000F80376
:10CCA60000003C070000180E0000000E0000000700
:10CCB600000000000000000000000000000000006E
:10CCC6000000000000040000000000000000FC015D
:10CCD6000000FC0100000000000000000000000051
:10CCE600000000000000000000000000000000003E
:10CCF600000000000000000000000000000000002E
:10CD0600000000000000000000000000000000001D
:10CD1600000000000000000000000000000000000D
:10CD260000000000000000000000000000000000FD
:10CD360000000B000000000000000000FC030000E3
:10CD4600FF1F00C0FF3F00E003FC00F000E00138D9
:10CD560000C0013C0080031C0080030800000000A6
:10CD660000000000000000000000000000000000BD
:10CD760000000000000000000000000000000000AD
:10CD8600000000000000000000000000000000009D
:10CD96000000000000000000000000000000000A83
:10CDA60000000000080000001C0080033C00800317
:10CDB6003800C001F000F001E003FC00C0FF3F00B6
:10CDC60000FF1F0000FC0300000000000000000040
:10CDD600000000000000000000000000000000004D
:10CDE600000000000000000000000000000000003D
:10CDF600000000000000000000000000000000002D
:10CE06000000000000000000000000000A00000012
:10CE160000C0000000C00000004C020000D8030063
:10CE260000F0010000FC000000AC0100003003002F
:10CE360000300000000000000000000000000000BC
:10CE460000000000000000000000000000000000DC
:10CE560000000000000000000000000000000000CC
:10CE660000000000000000000000000000000000BC
:10CE76000000000000000000000E0000000000405E
:10CE8600000000600000006000000060000000601C
:10CE9600000000FF0F0000FF0F0000FF0F00006002
:10CEA60000000060000000600000006000000060FC
:10CEB600000000000000000000000000000000006C
:10CEC600000000000000000000000000000000005C
:10CED600000000000000000000000000000000004C
:10CEE60000000000000005000000000000660000D1
:10CEF600006F0000003F0000001E00000000000060
:10CF0600000000000000000000000000000000001B
:10CF1600000000000000000000000000000000000B
:10CF260000000000000000000000000000000000FB
:10CF360000000000000000000000000000000000EB
:10CF460000000000000000000000000000000000DB
:10CF56000000000A00000000003000000070000021
:10CF660000300000003000000030000000300000FB
:10CF7600003000000030000000300000000000001B
:10CF8600000000000000000000000000000000009B
:10CF9600000000000000000000000000000000008B
:10CFA600000000000000000000000000000000007B
:10CFB600000000000000000000000000000000006B
:10CFC60005000000000000000000000E0000000F39
:10CFD6000000000700000000000000000000000044
:10CFE600000000000000000000000000000000003B
:10CFF600000000000000000000000000000000002B
:10D00600000000000000000000000000000000001A
:10D01600000000000000000000000000000000000A
:10D02600000000000000000000000000000B0000EF
:10D0360000000000040000000F0000C00F0000F810
:10D046000100007E0000801F0000E0070000FC01D8
:10D0560000007C0000001C00000000000000000032
:10D0660000000000000000000000000000000000BA
:10D0760000000000000000000000000000000000AA
:10D08600000000000000000000000000000000009A
:10D096000000000000000000000016000000000074
:10D0A600F8010000FF030080FF0700C0030700E04F
:10D0B600010E0070000C0030000C0038000C001847
:10D0C600000C0008000C000C000C000C0006000C04
:10D0D6000006000C0007000C0003001C800300186B
:10D0E600C0010038F00000F07F0000E03F0000C003
:10D0F6000F0000000000000000000000000000001B
:10D106000000000000000010000000000000000009
:10D116000000000000000000000100008003000085
:10D12600C0030000C0010000E0000000E0000000B5
:10D13600700000007000000038000000F8FF0F00CB
:10D14600FCFF0F00FCFF0F000000000000000000C5
:10D1560000000000000000000000000000000000C9
:10D1660000000000000000000000000000000000B9
:10D176000000000014000000000000000000000095
:10D1860000E0000E00E0000F00F0C00F0038E00DD8
:10D196000018E00C0018700C000C300C000C380C59
:10D1A600000C380C000C1C0C000C1C0C000C0C0C9D
:10D1B600000C0E0C00180F0C00F8070E00F8030FF9
:10D1C60000E0010E0000000000000000000000006A
:10D1D6000000000000000000000000000000000049
:10D1E6000015000000000000000000C003007CC025
:10D1F60007007CC007007C000E000C000C000C0031
:10D206000C000C0E0C000C060C000C070C000C0796
:10D216000C008C030C00CC030600EC0306007C0318
:10D2260006003C0303001CC703000CFE010000FEC1
:10D236000000007C0000000000000000000000006C
:10D2460000000000000000000000000000001600C2
:10D25600C0000000E0000000F0000000F800000040
:10D26600F8000000FC000000EE00000067000080EF
:10D27600630000C0610000E06000007060000038DC
:10D28600700000FCFF0F00FCFF0F00FCFF0F00000A
:10D2960030000000300000003000000038000000C0
:10D2A6003800000038000000000000000000000008
:10D2B6000000000000000000000000150000000053
:10D2C6000000000000080300F81F0700F81F070011
:10D2D600F80D0E00080E0C0008060C0008060C00DF
:10D2E60008020C0008030C0008030C0008030C00DD
:10D2F600080306000C0306000C0307000C070300D6
:10D306000CC603000CFE010000FC000000780000C3
:10D316000000000000000000000000000000000007
:10D326000000000000000000160000000000780069
:10D336000000FE030080FF0300C0C70700E0E1070E
:10D346000060700E0070300C0038380C00181C0C91
:10D3560000180C0C000C0C0C000C060C000C060E35
:10D36600000C0606000C0606000C0607000C060359
:10D3760000388E030078FC010030FC0000007800C5
:10D386000000000000000000000000000000000097
:10D396000000000000160000000000000000000071
:10D3A6000000F8010000FC010000FC0000000C0079
:10D3B60000000C0000000C0000000C000E000C80A9
:10D3C6000F000CE007000CF001000CFC00000C3E06
:10D3D60000008C1F0000EC070000FC030000FC00AE
:10D3E60000003C0000000C000000040000000000EB
:10D3F6000000000000000000000000000000000027
:10D406000000160000000000C0010000E00300005C
:10D41600F00700C0790600F03B0E00F81F0C00383C
:10D426000E0C00180C0C001C0C0C000C060C000C4E
:10D43600060C000C0606000C0606000C0606001C70
:10D44600070300F8070300F886030070CE0100000A
:10D45600FC000000FC000000380000000000000096
:10D4660000000000000000000000000000000016A0
:10D47600000000000000010080830300E087070031
:10D48600F00F0700700C0E00381C0C0018180C006A
:10D496001C180C000C180C000C180C000C180C00B6
:10D4A6000C1804000C0C06000C0C06001C0C0700E3
:10D4B6001886030038C70300F0E30100F0FF000000
:10D4C600E07F0000001F00000000000000000000D8
:10D4D6000000000000000000000000000500000041
:10D4E6000000000000000C0E00001E0F00000C07DC
:10D4F6000000000000000000000000000000000026
:10D506000000000000000000000000000000000015
:10D516000000000000000000000000000000000005
:10D5260000000000000000000000000000000000F5
:10D5360000000000000000000000000000000000E5
:10D5460000000000000000000005000000000000D0
:10D556006600000C6F00001E3F00000E1E0000005B
:10D5660000000000000000000000000000000000B5
:10D5760000000000000000000000000000000000A5
:10D586000000000000000000000000000000000095
:10D596000000000000000000000000000000000085
:10D5A6000000000000000000000000000000000075
:10D5B6000000000000000D00000000000000000058
:10D5C6006000000070000000F0000000F80100009C
:10D5D600D80100009C0300000C0300000E070000A9
:10D5E600070E0000070E0000020200000000000007
:10D5F6000000000000000000000000000000000025
:10D606000000000000000000000000000000000014
:10D616000000000000000000000000000000000004
:10D626000000000D00000000008C0100008C0100CD
:10D63600008C0100008C0100008C0100008C0100B0
:10D64600008C0100008C0100008C0100008C0100A0
:10D65600008C0100008C01000000000000000000AA
:10D6660000000000000000000000000000000000B4
:10D6760000000000000000000000000000000000A4
:10D686000000000000000000000000000000000094
:10D696000D00000000000000000002020000070E5E
:10D6A6000000070E00000E0700000C0300009C039C
:10D6B6000000D8010000F8010000F0000000700032
:10D6C60000006000000000000000000000000000F4
:10D6D6000000000000000000000000000000000044
:10D6E6000000000000000000000000000000000034
:10D6F6000000000000000000000000000010000014
:10D7060000002000000070000000F00000007870AB
:10D71600000018F8000018FC1C000CDC1E000CCEE3
:10D726000E000CC700000CF700008C730000DC2113
:10D736000000F8010000F800000070000000000082
:10D7460000000000000000000000000000000000D3
:10D7560000000000000000000000000000000000C3
:10D76600000000000000000000001B000000000098
:10D7760080070000E01F0000783800001C30000021
:10D786000E70000006670000C3670080E36F00802C
:10D79600716C0080396C00C0186C00C00C6600C04B
:10D7A6000C36006004330060863B00608611006022
:10D7B600C6070060FE0F0060FE0F00600E0C0060E2
:10D7C600000C00C0000600C00106008083030000B4
:10D7D600FF0100007C00001500000E0000800F0015
:10D7E60000C00F0000F0010000780000003E0000BD
:10D7F600001F0000801F0000E01B0000F81800005A
:10D806007C1800007C180000F8180000E01B0000DF
:10D81600801F0000001F0000007C000000F80100CF
:10D8260000E00F0000800F0000000E000000000066
:10D8360000000000000000000000000000000000E2
:10D8460000000000150000000000000000F8FF0FB7
:10D8560000FCFF0F00F8FF0F0018060C0018060C5E
:10D866000018070C000C0704000C0306000C030646
:10D87600008C0306008C030700CC030300CC0303D3
:10D8860000FC83030078C3010038E7010000FE00B6
:10D8960000007E0000001C000000000000000000E8
:10D8A6000000000000000000000000000000000072
:10D8B600001200000000007C000000FF0100C0FF15
:10D8C6000700E0830700F0000E0030000E0038006D
:10D8D6000C0018000C000C000C000C000C000C00D6
:10D8E6000C000C0006000C0007000C00070018C016
:10D8F600030038C0010038C001000000000000002D
:10D906000000000000000000000000000000000011
:10D9160000000000000000000000000000001500EC
:10D9260000000000000000FCFF0F00FCFF0F00FCE1
:10D93600FF0F0038000C0018000C0018000C001C2B
:10D946000006000C0006000C0006000C0007000C88
:10D956000003000C8003000C8003001CC0010018AB
:10D96600E0010078F80000F07F0000E01F0000C032
:10D97600070000000000000000000000000000009A
:10D98600000000000000000000000013000000007E
:10D9960010000000FCFF0F00FCFF0F00FCFF0F0053
:10D9A600180C0600180C0600180C0600180C0600C9
:10D9B600180C0600180C0600180C0600180C0600B9
:10D9C600180E06001C0E06001C0406001C000700AC
:10D9D6000000070000000200000000000000000038
:10D9E6000000000000000000000000000000000031
:10D9F6000000000000000000110000000000000010
:10DA060000F8FF0F00FCFF0F00FCFF0F00381C00A2
:10DA160000381C0000380C0000180C0000180C0020
:10DA260000180C0000180C0000180E00001C0E0058
:10DA3600001C0E00001C0E00001C00000000000070
:10DA460000000000000000000000000000000000D0
:10DA560000000000000000000000000000000000C0
:10DA66000000000000170000000000F8000000FEA3
:10DA7600010080FF0300C0870700E0010600E00008
:10DA86000E0070000C0030000C0038000C0018006E
:10DA96000C0018000C000C100C000C1806000C18DA
:10DAA60006000C1806000C1803000C9803001CCC8A
:10DAB600010018EC010038FC0000107C0000001C7E
:10DAC6000000000000000000000000000000000050
:10DAD60000001400000000000C0000FCFF0F00FC1A
:10DAE600FF0F00FCFF0F00000E0000000E000000FC
:10DAF6000E0000000E0000000E0000000E000000E8
:10DB06000E000000060000000600000006000000EF
:10DB160006000000060000FCFF0F00FCFF0F00FCE3
:10DB2600FF0F0000000000000000000000000000E1
:10DB360000000000000000000000000000000005DA
:10DB46000000000000000000FCFF0F00FCFF0F00BB
:10DB5600FCFF0F00000000000000000000000000B5
:10DB660000000000000000000000000000000000AF
:10DB7600000000000000000000000000000000009F
:10DB8600000000000000000000000000000000008F
:10DB9600000000000000000000000000000000007F
:10DBA600000000000000000000000000100000005F
:10DBB600000080030000C0070000C00F0000001C2A
:10DBC60000000018000000180000001800000018EF
:10DBD600000000180000001C0000000E0000000FEE
:10DBE60000FCFF0700FCFF0300FCFF010000000033
:10DBF600000000000000000000000000000000001F
:10DC0600000000000000000000000000000000000E
:10DC160000000000000000000013000000000000EB
:10DC26000000FCFF0F00FCFF0F00FCFF0F00800F41
:10DC36000000800F0000C01D0000E0380000E07802
:10DC460000007070000030E0000038C0010018C00D
:10DC560003000C8003000C00070000000E0000000B
:10DC66000E0000000400000000000000000000009C
:10DC7600000000000000000000000000000000009E
:10DC86000000000000000F0000000000000000FC83
:10DC9600FF0F00FCFF0F00FCFF0F0000000E00004E
:10DCA600000E00000006000000060000000600004E
:10DCB6000006000000070000000700000007000043
:10DCC6000007000000000000000000000000000047
:10DCD600000000000000000000000000000000003E
:10DCE600000000000000000000000000000000002E
:10DCF600000000190000000000000000F8FF0F00FF
:10DD0600FCFF0F00FCFF0F00F0010000C003000045
:10DD1600800F0000001E0000007C000000F80100DB
:10DD260000E0070000800F0000800F0000E0070001
:10DD360000F0010000F80000003C0000001E00009A
:10DD4600000F0000C0030000E0010000FCFF0F0010
:10DD5600FCFF0F00FCFF0F000000000000000000A9
:10DD6600130000000000000000FCFF0F00FCFF0F86
:10DD760000FCFF0F00F0010000C003000080070058
:10DD860000000F0000001E0000003C0000003800EC
:10DD9600000070000000F0000000E0010000C00379
:10DDA60000FCFF0700FCFF0F00FCFF0F0000000057
:10DDB600000000000000000000000000000000005D
:10DDC6000000000000000000000000000015000038
:10DDD600000000F8000000FE010080FF0300C08381
:10DDE6000700E001060070000E0030000C0038004D
:10DDF6000C0018000C000C000C000C000C000C00B1
:10DE060006000C0006000C0007001C00030018C0EA
:10DE1600030078E00100F0FF0000E07F0000801FB3
:10DE260000000000000000000000000000000000EC
:10DE3600000000000000000000001300000000C009
:10DE4600000000FCFF0F00FCFF0F00FCFF0F003876
:10DE56001C0000380C0000180C0000180C0000080C
:10DE66000E00000C0E00000C0600000C0700000C53
:10DE76000300008C030000CC010000FC010000F848
:10DE86000000003800000000000000000000000054
:10DE9600000000000000000000000000000000007C
:10DEA60000000000000000170000000000F800005D
:10DEB60000FE030080FF0700C0070700E0010E0018
:10DEC600E0000C0070000C0030000C0018000C0084
:10DED60018000C000C200C000C700E000CF0060054
:10DEE6000CE006000CC007001CC003001CC00700A5
:10DEF60078F00700F0FF0E00E03F1C00C00F1C008A
:10DF06000000080000000000000000000000000003
:10DF1600000000001500000000E0000000FCFF0FFC
:10DF260000FCFF0F00FCFF0F00381C0000183E002D
:10DF360000183E0000187600000C7600000CE60083
:10DF4600000CE300000CC300008CC301008C8101AF
:10DF560000CC810300FC000300F80007003800062F
:10DF66000000000E0000000E00000000000000008F
:10DF7600000000000000000000000000000000009B
:10DF860000150000000000070300C0870700E00F2F
:10DF96000700700C0E00300C0C00180C0C00180C4E
:10DFA6000C00180C0C000C040C000C040C000C06E5
:10DFB6000E000C0606000C0606000C0607001C06E2
:10DFC60007003886030038C6030010FE010000FC77
:10DFD6000000003800000000000000000000000003
:10DFE60000000000000000000000000000001230E9
:10DFF600000000300000003000000030000000305B
:10E006000000001000000010000000F8FF0F00F8EC
:10E01600FF0F00F8FF0F00180000000800000008BE
:10E02600000000080000000C0000000C0000000CBE
:10E036000000000C000000000000000000000000CE
:10E0460000000000000000000000000000000000CA
:10E0560000000000000000000000001200000000A8
:10E0660000000000FCFF0300FCFF0700F8FF0700AC
:10E0760000000E0000000C0000000C0000000C0068
:10E0860000000C0000000C0000000E00000006005E
:10E096000000070000000700FCFF0300FCFF010072
:10E0A600FCFF00000000000000000000000000006F
:10E0B600000000000000000000000000000000005A
:10E0C600000000000000000013000000003C0000FB
:10E0D60000FC010000F8070000C01F0000007F00E0
:10E0E6000000F80F0000C00F0000C00F0000F00095
:10E0F60000007C0000001E0000000F0000C00300AE
:10E1060000E0010000F0000000780000003C000084
:10E1160000180000000000000000000000000000E1
:10E1260000000000000000000000000000000000E9
:10E1360000000000001B000000007C000000FC0343
:10E146000000FC1F000000FF000000F80F0000E0C8
:10E156000F0000C00F0000F0010000780000003E34
:10E166000000800F0000F8030000F8000000F8032C
:10E176000000800F0000003E000000FC000000F0E0
:10E18600070000800F0000C00F0000F80300007EAB
:10E196000000801F0000FC070000FC0100003C009E
:10E1A600000011000004001C000E003C000F007C63
:10E1B600C00700F8E00300F0F10000C07B0000801B
:10E1C6003F0000001F0000001F0000C07F0000E0AD
:10E1D600F10000F0E0010078C003003C800F001C55
:10E1E600000F0018000400000000000000000000FE
:10E1F6000000000000000000000000000000000019
:10E2060000000000000000000000000000000015F3
:10E21600180000001C0000003C0000007800000010
:10E22600F0000000E0010000C001000080030000D3
:10E236000007000000FF0F0000FE0F0000FE0F00A9
:10E246000007000080030000C0010000E00100009C
:10E25600E000000070000000380000003C000000F4
:10E266001C0000000000000000000000000000008C
:10E276000000000000000000000000001400000084
:10E286000000000E0038000F003C800F001CC00F7D
:10E29600000CC00D000CE00C000C700C000C380CCF
:10E2A600000C3C0C000C1E0C000C0F0C008C070C18
:10E2B60000CC030C00EC010C00EC000C00FC000C84
:10E2C600007C000E003C000F001C00060000000051
:10E2D6000000000000000000000000000000000038
:10E2E6000000000000000000000C0000000000001C
:10E2F600000000000000F8FFFF03FCFFFF03FCFF27
:10E30600FF030C0000030C0000030C0000030C00CC
:10E3160000030C0080030000000100000000000064
:10E3260000000000000000000000000000000000E7
:10E3360000000000000000000000000000000000D7
:10E3460000000000000000000000000000000000C7
:10E356000000000000000B080000001C0000007C0C
:10E36600000000F0010000C0070000001F000000D0
:10E376007C000000F0010000C00F0000000F00004C
:10E386000004000000000000000000000000000083
:10E396000000000000000000000000000000000077
:10E3A6000000000000000000000000000000000067
:10E3B6000000000000000000000000000000000057
:10E3C60000000009000000000C0000030C00000320
:10E3D6000C0000030C0000030C000003FCFFFF030D
:10E3E600FCFFFF03FCFFFF0300000000000000002D
:10E3F6000000000000000000000000000000000017
:10E406000000000000000000000000000000000006
:10E4160000000000000000000000000000000000F6
:10E4260000000000000000000000000000000000E6
:10E436000D000000000001000080030000C0030082
:10E4460000E0010000F0000000780000001C000061
:10E45600007C000000F0000000E0030000C00300A4
:10E4660000000300000000000000000000000000A3
:10E476000000000000000000000000000000000096
:10E486000000000000000000000000000000000086
:10E49600000000000000000000000000000D000069
:10E4A600C0000000C0000000C0000000C000000066
:10E4B600C0000000C0000000C0000000C000000056
:10E4C600C0000000C0000000C0000000C000000046
:10E4D600C000000000000000000000000000000076
:10E4E6000000000000000000000000000000000026
:10E4F6000000000000000000000000000000000016
:10E5060000000000000000000000080000000000FD
:10E516000000000C0000001C000000180000003085
:10E526000000006000000060000000000000000025
:10E5360000000000000000000000000000000000D5
:10E5460000000000000000000000000000000000C5
:10E5560000000000000000000000000000000000B5
:10E5660000000000000000000000000000000000A5
:10E57600000000000000000F000000000000060080
:10E5860000800F0000CC0F0000CE0C0000C60C006F
:10E5960000660C000063040000230600003306003A
:10E5A6000033030000B3010000FF0F0000FE0F0060
:10E5B60000FE0F0000000000000000000000000048
:10E5C6000000000000000000000000000000000045
:10E5D6000000000000000000000000000000000035
:10E5E60000000000100000000000000000FCFF0F0B
:10E5F60000FCFF0F00FCFF0F00001C0C00000E0CBF
:10E606000000060600000606000002030000830361
:10E616000000C3010000E30000007F0000003F008F
:10E6260000000E00000000000000000000000000D6
:10E6360000000000000000000000000000000000D4
:10E6460000000000000000000000000000000000C4
:10E65600000F0000000000E0030000F0070000F8D3
:10E666000700003C0E00000E0C0000060C00000720
:10E676000C0000030C0000030C000003060000035E
:10E6860007000087070000860300008601000000DF
:10E696000000000000000000000000000000000074
:10E6A6000000000000000000000000000000000064
:10E6B6000000000000000000000000000000100044
:10E6C6000000000080070000C0070000E00F000007
:10E6D600780C0000380C00001C0C00000C0C00002C
:10E6E6000C06000006060000060300008603000074
:10E6F600C60100FCFF0F00FCFF0F00FCFF0F00002F
:10E706000000000000000000000000000000000003
:10E7160000000000000000000000000000000000F3
:10E7260000000000000000000000001000000000D3
:10E7360000C0030000F0070000F80F00007C0E0088
:10E74600006C0C0000660C0000660C0000330C0028
:10E7560000330C0000330E000033060000330600C1
:10E76600009E0300009E0300000C01000000000054
:10E776000000000000000000000000000000000093
:10E786000000000000000000000000000000000083
:10E7960000000000000000000D00040000000C0056
:10E7A60000000C0000000C0000C0FF0F00F0FF0F7F
:10E7B60000F8FF0F001C0600000C0600000C060007
:10E7C600000C0600003807000018070000000000D3
:10E7D6000000000000000000000000000000000033
:10E7E6000000000000000000000000000000000023
:10E7F6000000000000000000000000000000000013
:10E8060000000000000F000000000080070000E08C
:10E816000F0000F0CF010078CC01001C8C03000C27
:10E826000C0300060603000607030002030300C3E9
:10E83600830300F3C00100FFFF0100FFFF0000FF9C
:10E846003F00000000000000000000000000000083
:10E8560000000000000000000000000000000000B2
:10E8660000000000000000000000000000000000A2
:10E8760000000F0000000000000000FCFF0F00FC7D
:10E88600FF0F00FCFF0F00001C0000000E00000040
:10E896000600000006000000030000000300000060
:10E8A60003000000FF0F0000FF0F0000FE0F000036
:10E8B6000000000000000000000000000000000052
:10E8C6000000000000000000000000000000000042
:10E8D600000000000000000000000000000000052D
:10E8E600000000000000000070FF0F0078FF0F001E
:10E8F60038FF0F00000000000000000000000000CC
:10E906000000000000000000000000000000000001
:10E9160000000000000000000000000000000000F1
:10E9260000000000000000000000000000000000E1
:10E9360000000000000000000000000000000000D1
:10E9460000000000000000000000000006000000BB
:10E95600060000000700FFFF0318FFFF033CFFFF50
:10E96600011C000000000000000000000000000084
:10E976000000000000000000000000000000000091
:10E986000000000000000000000000000000000081
:10E996000000000000000000000000000000000071
:10E9A6000000000000000000000000000000000061
:10E9B6000000000000000000000E00000000000043
:10E9C6000000FCFF0F00FCFF0F00FCFF0F000070B3
:10E9D600000000F8000000DC010000DC0100008EF1
:10E9E6000300000707008007070080030E000001F0
:10E9F6000C00000000000000000000000000000005
:10EA06000000000000000000000000000000000000
:10EA160000000000000000000000000000000000F0
:10EA2600000000000000050000000000000000FCDF
:10EA3600FF0F00FCFF0F00FCFF0F000000000000AE
:10EA460000000000000000000000000000000000C0
:10EA560000000000000000000000000000000000B0
:10EA660000000000000000000000000000000000A0
:10EA76000000000000000000000000000000000090
:10EA86000000000000000000000000000000000080
:10EA960000000018000000000000000000FF0F004A
:10EAA60000FF0F0000FF0F00001C0000000C00001C
:10EAB600000600000006000000020000000300003F
:10EAC60000FF0F0000FF0F0000FE0F0000180000FF
:10EAD600000C0000000C0000000600000002000010
:10EAE600000300000003000000FF0F0000FF0F00FE
:10EAF60000FE0F0000000000000000000000000003
:10EB06000F000000000000000000FF0F0000FF0FD4
:10EB16000000FF0F00001C0000000C0000000E00AB
:10EB260000000600000002000000030000000300D1
:10EB36000000FF0F0000FF0F0000FE0F00000000A6
:10EB460000000000000000000000000000000000BF
:10EB560000000000000000000000000000000000AF
:10EB6600000000000000000000000000001000008F
:10EB7600000000C0030000F0070000F80700001CBA
:10EB86000E00000E0C0000060C0000060C00000330
:10EB96000C0000030E0000030600000307000087B8
:10EBA600030000FE010000FE0000007800000000E7
:10EBB600000000000000000000000000000000004F
:10EBC600000000000000000000000000000000003F
:10EBD600000000000000000000001100000000001E
:10EBE60000000000FFFF0F00FFFF0F00FFFF0F00F8
:10EBF600380C00001C0C00000E0C0000060C000077
:10EC0600030E000003060000030700008303000054
:10EC1600C7030000FF010000FE0000003C000000EA
:10EC260000000000000000000000000000000000DE
:10EC360000000000000000000000000000000000CE
:10EC460000000000000000140000000000E00300C7
:10EC560000F0070000F80F00001C0E00000E0C006C
:10EC660000060C0000070C00000306000003070066
:10EC76000083030000C3010000F3000000FFFF074C
:10EC860000FFFF0F00FEFF0F00000006000000035C
:10EC9600000080030000800100000000000000006A
:10ECA600000000000000000000000000000000005E
:10ECB600000000000D000000000000000000FF0F33
:10ECC6000000FF0F0000FF0F0000180000000C00FE
:10ECD60000000600000002000000030000001F0004
:10ECE60000001F0000000E000000000000000000F1
:10ECF600000000000000000000000000000000000E
:10ED060000000000000000000000000000000000FD
:10ED160000000000000000000000000000000000ED
:10ED260000110000000000380600007C0700007C8F
:10ED36000600006E0C0000660C0000660C00006306
:10ED46000C0000230C0000330C00003306000033D7
:10ED56000600003306000033030000F2030000E063
:10ED6600010000E0000000000000000000000000BC
:10ED7600000000000000000000000000000000008D
:10ED8600000000000000000000000000000011006C
:10ED9600000000000600000006000000060000005B
:10EDA600070000E0FF0700E0FF0F00E0FF0F000094
:10EDB600030C0000030C000003040000030600809F
:10EDC6000107008001030000C1030000C00100002C
:10EDD60080000000000000000000000000000000AD
:10EDE600000000000000000000000000000000001D
:10EDF60000000000000000000000000F00000000FE
:10EE06000000000000FF070000FF070000FF0F00E2
:10EE160000000C0000000C0000000C0000000600C2
:10EE260000000600000007000080030000FF0F003E
:10EE360000FF0F0000FF0F000000000000000000B0
:10EE460000000000000000000000000000000000BC
:10EE560000000000000000000000000000000000AC
:10EE660000000000000000000F00060000001F0068
:10EE760000007F000000FE030000E00F0000800F8E
:10EE86000000000F0000C0070000E0010000F000D5
:10EE960000003C0000001E0000000F0000000700FC
:10EEA6000000030000000000000000000000000059
:10EEB600000000000000000000000000000000004C
:10EEC600000000000000000000000000000000003C
:10EED6000000000000160000000000070000001FF0
:10EEE600000000FF000000F0070000C00F00000057
:10EEF6000F0000C0070000E0010000F80000003F1E
:10EF06000000001F0000007F000000F8010000E084
:10EF1600070000800F0000800F0000E0030000F0F3
:10EF26000100007E0000001F000000070000000036
:10EF360000000000000000000000000000000000CB
:10EF460000000F000000000002060000070E00008F
:10EF56000F0700009C030000F8010000F801000004
:10EF6600F0000000F0000000F8010000DC010000E5
:10EF76008E03000007070000070E0000000C0000CB
:10EF8600000000000000000000000000000000007B
:10EF9600000000000000000000000000000000006B
:10EFA600000000000000000000000000000000104B
:10EFB6000002E0000007E001001F8001003E800122
:10EFC6000078800100F0C00100E0E1000080F70059
:10EFD60000007F0000001F0000C00F0000F00300CB
:10EFE60000FC0000003F0000000F000000030000CE
:10EFF600000000000000000000000000000000000B
:10F0060000000000000000000000000000000000FA
:10F016000000000000000000000000000F000008D3
:10F0260000000E0C00000E0E0000060F0000060F7A
:10F036000000860F0000C60D0000E60C0000760CEE
:10F0460000003E0C00003E0C00001E0C00000E0CE2
:10F056000000070E0000030E000000000000000084
:10F06600000000000000000000000000000000009A
:10F07600000000000000000000000000000000008A
:10F086000000000000000000000D0000000000600D
:10F096000000006000000060000000E0000000F0DA
:10F0A600FF01E0FFFF01F81FFF03F80F00031C003C
:10F0B60000030C0000030C0000030C00000100001C
:10F0C600000000000000000000000000000000003A
:10F0D600000000000000000000000000000000002A
:10F0E600000000000000000000000000000000001A
:10F0F600000000000000050000000000000000FF06
:10F10600FFFF07FFFFFF07FFFFFF070000000000EC
:10F1160000000000000000000000000000000000E9
:10F1260000000000000000000000000000000000D9
:10F1360000000000000000000000000000000000C9
:10F1460000000000000000000000000000000000B9
:10F1560000000000000000000000000000000000A9
:10F166000000000C080000030C0000030C00000364
:10F176000C0080030C00FF01FC8FFF01F8FF7F00ED
:10F18600F0FF00000070000000600000006000005A
:10F196000060000000000000000000000000000009
:10F1A6000000000000000000000000000000000059
:10F1B6000000000000000000000000000000000049
:10F1C6000000000000000000000000000000000039
:10F1D6000D000000000080000000E0010000E000DB
:10F1E60000003000000030000000700000006000E9
:10F1F6000000C0000000C0000000E0000000780031
:10F2060000003800000000000000000000000000C0
:10F2160000000000000000000000000000000000E8
:10F2260000000000000000000000000000000000D8
:10F2360000000000000000000000000000080000C0
:10F246000000FEFF1F00FEFF1F000200100002006C
:10F25600100002001000FEFF1F00FEFF1F0000004E
:10F266000000000000000000000000000000000098
:10F276000000000000000000000000000000000088
:10F286000000000000000000000000000000000078
:10F296000000000000000000000000000000000068
:10F2A6000000000000000000000006000000000052
:10F2B6000000000000000000000000000000000048
:10F2C600000200007E0300000000000000000000B5
:10F2D60000000000000000000400000F0000000F06
:10F2E6000000000000000000000000000000000810
:10F2F600000040004803F8004E03F8004E000800E6
:10F306000000000000000618022402FF0F44024419
:10F31600028401000000000000000000000B000055
:10F326001C00220022029C0160001000CC01220277
:10F336002002C00108CC0132022202220252028CB3
:10F3460001E00100020000000000000200000F00C2
:10F3560000000000000000000000000000000000A7
:10F366000000050000F0010C060208011000000074
:10F3760000000000000000000004011002080C0656
:10F38600F001000000000000000000000000000086
:10F396000600000A0004001F0004000A0000000026
:10F3A6000000000000000007200020002000FC01F3
:10F3B60020002000200000000000000000000200E5
:10F3C6000800070000000000000000000000000028
:10F3D60000000000000420002000200020000000A3
:10F3E6000000000000000000000000000200000015
:10F3F6000300000000000000000000000000000004
:10F4060000000005000C800360001C0003000000E3
:10F416000000000000000000000006FC01020202DD
:10F426000202020202FC01000000000000000000CF
:10F436000006000004020402FE03000200020000AF
:10F44600000000000000000006040382024202429F
:10F456000222021C0200000000000000000000065C
:10F4660004010202220222022202DC010000000044
:10F47600000000000000066000500048004400FE46
:10F4860003400000000000000000000000061E010E
:10F496001202120212021202E20100000000000033
:10F4A6000000000006F8011402120212021202E025
:10F4B6000100000000000000000000060200020239
:10F4C600820162001A000600000000000000000031
:10F4D600000006DC012202220222022202DC0100D6
:10F4E600000000000000000000063C00420242024C
:10F4F60042024201FC000000000000000000000083
:10F5060003000000001803000000000000000000D7
:10F5160000000000000000030000000818070000BB
:10F5260000000000000000000000000000000800CD
:10F5360000200020005000500088008800040100D0
:10F54600000000000008000090009000900090006D
:10F5560090009000900000000000000008000004E9
:10F5660001880088005000500020002000000000A4
:10F576000000000504004203220012000C000000F7
:10F58600000000000000000000000BF0000C030467
:10F5960002F2040A050A050A05FA0504010C01F03F
:10F5A60000070003E000980086009800E0000003D2
:10F5B600000000000000000006FE032202220222D4
:10F5C600023C02C00100000000000000000000072D
:10F5D600F800040102020202020202020401000013
:10F5E60000000000000007FE0302020202020202FF
:10F5F600020401F800000000000000000006FE03FF
:10F606002202220222022202220200000000000040
:10F616000000000006FE0322002200220022002233
:10F62600000000000000000000000007F8000401D0
:10F636000202020242024202C4030000000000006D
:10F64600000007FE0320002000200020002000FE0E
:10F65600030000000000000000030202FE03020295
:10F666000000000000000000000000000000000094
:10F6760004000202020202FE010000000000000077
:10F686000000000000000006FE0320005000880075
:10F69600040102020000000000000000000005FE58
:10F6A6000300020002000200020000000000000049
:10F6B600000000000009FE0306001800600080013B
:10F6C600600018000600FE030000000007FE0306A7
:10F6D6000018002000C0000003FE03000000000028
:10F6E60000000008F80004010202020202020202FF
:10F6F6000401F80000000000000006FE03220022BC
:10F7060000220022001C0000000000000000000093
:10F716000008F8000401020202020206020A0409B5
:10F72600F80800000000000007FE03220022006225
:10F7360000A2001C010002000000000000000007FB
:10F746001C0122022202220222022202C40100001D
:10F7560000000000000007020002000200FE030293
:10F766000002000200000000000000000007FE008A
:10F7760000010002000200020001FE00000000007D
:10F7860000000000070E003000C0000003C000307B
:10F79600000E0000000000000000000B1E00E0014B
:10F7A6000002C001380006003800C0010002E00176
:10F7B6001E000702020401D8002000D8000401023E
:10F7C6000200000000000000000702000C0010000C
:10F7D600E00310000C000200000000000000000022
:10F7E6000602038202620212020A020602000000F8
:10F7F60000000000000000040000FF0F01080108DF
:10F8060000000000000000000000000000000503EA
:10F81600001C0060008003000C00000000000000D7
:10F82600000000000004000001080108FF0F0000AE
:10F8360000000000000000000000000009000010A9
:10F846000008000400020002000400080010000086
:10F85600000000070008000800080008000800086B
:10F866000008000000000000000005000000000085
:10F87600000100020000000000000000000000007F
:10F88600000680014802480248024801F0030000D1
:10F89600000000000000000006FF03100208020836
:10F8A600020802F001000000000000000000000550
:10F8B600F001080208020802080200000000000029
:10F8C60000000000000006F0010802080208020815
:10F8D60001FF030000000000000000000006F00128
:10F8E6004802480248024802700100000000000079
:10F8F60000000000050800FE0309000900010000E1
:10F90600000000000000000000000006F0010812E0
:10F91600081208120811F80F00000000000000008D
:10F92600000006FF031000080008000800F00300AE
:10F93600000000000000000000020000FA030000C2
:10F9460000000000000000000000000000000000B1
:10F956000300100810FA0F0000000000000000006D
:10F966000000000000000005FF034000A000100199
:10F976000802000000000000000000000000020075
:10F9860000FF03000000000000000000000000006F
:10F9960000000000000A0000F8031000080008003C
:10F9A600F003100008000800F003000006F803103A
:10F9B60000080008000800F0030000000000000036
:10F9C60000000006F0010802080208020802F00121
:10F9D6000000000000000000000006F81F100208EA
:10F9E6000208020802F0010000000000000000000A
:10F9F6000006F0010802080208020801F81F0000CC
:10FA0600000000000000000004F8031000080008D1
:10FA160000000000000000000000000000000005DB
:10FA26003001480248024802900100000000000030
:10FA3600000000000000040800FE010802080200A1
:10FA46000000000000000000000000000006F801B1
:10FA56000002000200020001F8030000000000009E
:10FA660000000000051800E0000003E00018000098
:10FA76000000000000000000000000091800E0007F
:10FA86000003E0001800E0000003E000180000009A
:10FA96000000050802B0014000B0010802000000A5
:10FAA600000000000000000000051800E018000734
:10FAB600E000180000000000000000000000000048
:10FAC6000508038802480228021802000000000008
:10FAD600000000000000000540004000BE070108CD
:10FAE6000108000000000000000000000000030004
:10FAF600000000FF0F0000000000000000000000F2
:10FB060000000000000501080108BE074000400093
:10FB16000000000000000000000000000800006077
:10FB260000100010002000400040003000000000DF
:10FB360000000003FF030102FF03000000000000B5
:10FB460000000000000000000000050000000000AA
:10FB56000500005F000005000700070005147F147C
:10FB66007F1405242A7F2A120523130864620536AA
:10FB76004956205005080703000005001C224100D5
:10FB8600050041221C000514083E08140508083E1D
:10FB960008080500B07000000508080808080500F8
:10FBA60060600000052010080402053E5149453EEC
:10FBB6000500427F400005724949494605214149F1
:10FBC6004D33051814127F10052745454539053C68
:10FBD6004A4949310541211109070536494949363E
:10FBE60005464949291E0500001400000500403459
:10FBF60000000508142241000514141414140541CC
:10FC060022140800050201590906053E415D594EB8
:10FC1600057C1211127C057F49494936053E414152
:10FC26004122057F4141413E057F49494949057FBA
:10FC360009090909053E41415173057F0808087FF6
:10FC46000500417F4100052040413F01057F081422
:10FC56002241057F40404040057F020C027F057F20
:10FC66000408107F053E4141413E057F090909060A
:10FC7600053E4151215E057F091929460526494958
:10FC860049320501017F0101053F4040403F051F04
:10FC96002040201F053F4038403F05631408146389
:10FCA60005030478040305615149454305007F4176
:10FCB6004100050204081020050041417F000504AB
:10FCC6000201020405404040404005070B000000C9
:10FCD600052054547840057F284444380538444468
:10FCE600442805384444287F0538545454180500E0
:10FCF600087E09020518A4A49C78057F08040478E8
:10FD06000500447D4000052040403D00057F102849
:10FD160044000500417F4000057C04780478057C9A
:10FD26000804047805384444443805FC182424188B
:10FD36000518242418FC057C0804040805485454B6
:10FD460054240504043F4424053C4040207C051C03
:10FD56002040201C053C4030403C054428102844E7
:10FD6600054C9090907C054464544C44050008363C
:10FD76004100050000770000050041360800050433
:10FD86000204080405007F417F00566F6C3A257512
:10FD96002E253032752F25752E2530327556004D9D
:10FDA60061782054696D653A2025303275682530B2
:10FDB60032756D0043686172672F44697363682FFB
:10FDC60053746F72002530327568253032756D2593
:10FDD60030327573004469736343757220323A2575
:10FDE600752525004368726743757220323A25757A
:10FDF6002525004469736343757220333A257525BA
:10FE060025004368726743757220333A25752525A8
:10FE1600004469736343757220343A2575252500BD
:10FE26004368726743757220343A25752525004468
:10FE360069736343757220313A25756D41004368D5
:10FE4600726743757220313A25756D4100446973B6
:10FE56006343757220323A25756D410043687267B7
:10FE660043757220323A25756D41004469736343C8
:10FE7600757220333A25756D410043687267437584
:10FE86007220333A25756D41004469736343757278
:10FE960020343A25756D41004368726743757220B8
:10FEA600343A25756D41004F4E2F4F46463A202570
:10FEB60058200A0D0052455345543A202558200A29
:10FEC6000D0043656C6C20566F6C74613A004D6989
:10FED6006E44697363566F6C3A00547269636B6C57
:10FEE60065566F6C3A00547269636B6C6543757244
:10FEF6003A0043656C6C20436F756E743A00437527
:10FF0600723A25752F25756D41004361703A25308B
:10FF160034756D41680043686172672F4469736385
:10FF260068004379636C653A25752F25750042553F
:10FF360053593A202558200A0D00426174742074E2
:10FF46007970653A0054656D703A25303275430014
:10FF5600534156452645584954004F7074696F6E93
:10FF6600732031004F7074696F6E732032004F70CA
:10FF760074696F6E732033004F7074696F6E7320EF
:10FF860034004F7074696F6E732035004368617278
:10FF960067696E67004379636C653A004C692D4961
:10FFA6006F6E004241542031004241542032004DD0
:10FFB6006F64653A004E692D4D48005354415254C2
:10FFC600004241434B004E455854004449534300B8
:10FFD60049444C4500434852470054455354004D4C
:10FFE600454E5500504200575D002E20003120003E
:0AFFF6002564004E00500052000088
:020000040001F9
:1000000077EC8FF0020E08ECADF00009D8A40BEFEE
:1000100080F00DEF80F018EF80F0030E08ECADF0EB
:100020000009D8B416EF80F018EF80F068EF82F086
:100030000001E905D8A41FEF80F021EF80F035EF33
:1000400081F0020E08ECADF00009D8B42AEF80F080
:100050002CEF80F030EF80F00001F9073DEF80F0E9
:10006000030E08ECADF00009D8B439EF80F03BEF97
:1000700080F03DEF80F00001F92B0001F951D8A488
:1000800044EF80F046EF80F04AEF80F0050EF96F04
:1000900054EF80F0050EF96550EF80F052EF80F0DC
:1000A00054EF80F0010EF96FF905D8A45AEF80F0F3
:1000B0005CEF80F083EF80F0010E4EEC94F07EC098
:1000C00022F07FC023F0010E246E13EC9CF07EC062
:1000D00079F07FC07AF0000E00017B6F4BEC9DF051
:1000E0007EC022F07FC023F0000E246EAFEC9CF0A7
:1000F0007EC079F07FC07AF0000E00017B6F54EC77
:100100009EF064EF82F0020EF919D8A48AEF80F015
:100110008CEF80F0A2EF80F0010E4EEC94F07EC0E8
:1001200022F07FC023F0000E246E13EC9CF07EC002
:1001300079F07FC07AF0010E00017B6F4BEC9DF0EF
:1001400070EF80F0030EF919D8A4A9EF80F0ABEF9F
:1001500080F0D2EF80F0010E4EEC94F07EC022F0E1
:100160007FC023F0000E246E13EC9CF07EC079F06B
:100170007FC07AF0000E00017B6F4BEC9DF07EC0DB
:1001800022F07FC023F0010E246EAFEC9CF07EC005
:1001900079F07FC07AF0000E00017B6F54EC9EF086
:1001A00064EF82F0040EF919D8A4D9EF80F0DBEFE8
:1001B00080F002EF81F0010E4EEC94F07EC022F050
:1001C0007FC023F0000E246E13EC9CF07EC079F00B
:1001D0007FC07AF0000E00017B6F4BEC9DF07EC07B
:1001E00022F07FC023F0000E246EAFEC9CF07EC0A6
:1001F00079F07FC07AF0010E00017B6F54EC9EF025
:1002000064EF82F0050EF919D8A409EF81F00BEF25
:1002100081F033EF81F07EC022F07FC023F0000E2A
:10022000246E13EC9CF07EC079F07FC07AF0000E53
:1002300000017B6F4BEC9DF00001E8514EEC94F017
:100240007EC022F07FC023F0000E246EAFEC9CF045
:100250007EC079F07FC07AF0000E00017B6F54EC15
:100260009EF064EF82F064EF82F0020EE919D8A4E8
:100270003CEF81F03EEF81F064EF82F0020E08EC7B
:10028000ADF00009D8B447EF81F049EF81F04DEFB0
:1002900081F00001F9075AEF81F0030E08ECADF090
:1002A0000009D8B456EF81F058EF81F05AEF81F091
:1002B0000001F92B0001F951D8A461EF81F063EF3F
:1002C00081F067EF81F0050EF96F71EF81F0050E97
:1002D000F9656DEF81F06FEF81F071EF81F0010E44
:1002E000F96FF905D8A477EF81F079EF81F0A1EFEC
:1002F00081F07EC079F07FC07AF0010E7B6FCDEC8B
:100300009AF07EC079F07FC07AF0000E00017B6F1A
:1003100070EC9BF07EC079F07FC07AF0000E000197
:100320007B6FD0EC9DF07EC079F07FC07AF0000E3C
:1003300000017B6F2AEC9AF0010E39EC8DF064EF2E
:1003400082F0020EF919D8A4A8EF81F0AAEF81F08B
:10035000D2EF81F07EC079F07FC07AF0000E7B6F23
:10036000CDEC9AF07EC079F07FC07AF0010E0001EA
:100370007B6F70EC9BF07EC079F07FC07AF0000E4E
:1003800000017B6FD0EC9DF07EC079F07FC07AF0E9
:10039000000E00017B6F2AEC9AF0010E39EC8DF013
:1003A00064EF82F0030EF919D8A4D9EF81F0DBEFE6
:1003B00081F003EF82F07EC079F07FC07AF0000E0A
:1003C0007B6FCDEC9AF07EC079F07FC07AF0000EA2
:1003D00000017B6F70EC9BF07EC079F07FC07AF0FB
:1003E000000E00017B6FD0EC9DF07EC079F07FC0E5
:1003F0007AF0010E00017B6F2AEC9AF0010E39ECC5
:100400008DF064EF82F0040EF919D8A40AEF82F09F
:100410000CEF82F034EF82F07EC079F07FC07AF08A
:10042000000E7B6FCDEC9AF07EC079F07FC07AF041
:10043000000E00017B6F70EC9BF07EC079F07FC0F6
:100440007AF0010E00017B6FD0EC9DF07EC079F058
:100450007FC07AF0000E00017B6F2AEC9AF0010E4B
:1004600039EC8DF064EF82F0050EF919D8A43BEF5A
:1004700082F03DEF82F033EF81F07EC079F07FC0F3
:100480007AF0000E7B6FCDEC9AF07EC079F07FC0E1
:100490007AF0000E00017B6F70EC9BF07EC079F06B
:1004A0007FC07AF0000E00017B6FD0EC9DF07EC023
:1004B00079F07FC07AF0000E00017B6F2AEC9AF091
:1004C0000001E85139EC8DF0DEECA9F03AECABF02C
:1004D000000E08ECADF00009D8A471EF82F073EFC4
:1004E00082F087EF82F0010E08ECADF00009D8A48D
:1004F0007CEF82F07EEF82F087EF82F00001E7511F
:10050000D8A485EF82F087EF82F077EF89F0010EB3
:100510000001E76FE951D8A490EF82F092EF82F0EA
:10052000BAEF82F0FA05D8A498EF82F09AEF82F041
:10053000A5EF82F0FA510AEC98F0000E0001FA6F74
:10054000010E0001E86F73EF89F0FA51D8A4ABEF08
:1005500082F0ADEF82F073EF89F0FA510AEC98F077
:10056000010E0001FA6F000E0001E86F73EF89F0D1
:1005700073EF89F0E905D8A4C0EF82F0C2EF82F0F2
:100580000CEF85F0050EF919D8A4C9EF82F0CBEF76
:1005900082F0EFEF82F0020EFA19D8A4D2EF82F0C7
:1005A000D4EF82F0DFEF82F0FA514EEC94F0000EBF
:1005B0000001FA6F020E0001E86F73EF89F0FA5143
:1005C000D8A4E5EF82F0E7EF82F0B8EF82F0FA51BD
:1005D0004EEC94F0020E0001FA6FB3EF82F0F905D1
:1005E000D8A4F5EF82F0F7EF82F09AEF83F005EFF1
:1005F00083F0010EE56F24EF83F0020EE56F24EF28
:1006000083F0030EE56F24EF83F020EE04F07E51BB
:10061000D9267F51DA22DF50806F816B8151000A29
:10062000D8B415EF83F024EF83F08051000AD8B4DA
:10063000F9EF82F0010AD8B4FDEF82F0030AD8B4D2
:1006400001EF83F024EF83F0010E08ECADF0000918
:10065000D8B42DEF83F02FEF83F033EF83F0000158
:10066000E52B40EF83F0000E08ECADF00009D8B4A4
:100670003CEF83F03EEF83F040EF83F00001E507AD
:100680000001E551D8A447EF83F049EF83F04DEF27
:1006900083F0030EE56F77EF83F0030EE56553EF0C
:1006A00083F055EF83F077EF83F0010EE56F77EF7E
:1006B00083F020EE04F07E51D9267F51DA22000E1D
:1006C000DF6E90EF83F020EE04F07E51D9267F514B
:1006D000DA22010EDF6E90EF83F020EE04F07E51FF
:1006E000D9267F51DA22020EDF6E90EF83F0E551BA
:1006F000806F816B8151000AD8B481EF83F090EF55
:1007000083F08051010AD8B459EF83F0030AD8B4BA
:1007100063EF83F0010AD8B46DEF83F090EF83F0BC
:100720007EC022F07FC023F0010E246E13EC9CF0FB
:1007300073EF89F0020EF919D8A4A1EF83F0A3EFAB
:1007400083F004EF84F0010E08ECADF00009D8B49A
:10075000ACEF83F0AEEF83F0B8EF83F0000120EE52
:1007600007F07E51D9267F51DA22DF2ACBEF83F0C2
:10077000000E08ECADF00009D8B4C1EF83F0C3EF70
:1007800083F0CBEF83F0000120EE07F07E51D926F5
:100790007F51DA22DF06000120EE07F07E51D926D4
:1007A0007F51DA22DF50D8A4D8EF83F0DAEF83F05C
:1007B000E4EF83F020EE07F07E51D9267F51DA2254
:1007C000050EDF6EFAEF83F020EE07F07E51D9269A
:1007D0007F51DA22050EDF64F0EF83F0F2EF83F051
:1007E000FAEF83F020EE07F07E51D9267F51DA220E
:1007F000010EDF6E7EC079F07FC07AF0010E7B6F54
:100800004BEC9DF073EF89F0030EF919D8A40BEFB0
:1008100084F00DEF84F0B0EF84F01BEF84F0010E54
:10082000E56F3AEF84F0020EE56F3AEF84F0030EC5
:10083000E56F3AEF84F020EE06F07E51D9267F5125
:10084000DA22DF50806F816B8151000AD8B42BEF20
:1008500084F03AEF84F08051000AD8B40FEF84F0AE
:10086000010AD8B413EF84F0030AD8B417EF84F068
:100870003AEF84F0010E08ECADF00009D8B443EF74
:1008800084F045EF84F049EF84F00001E52B56EF4A
:1008900084F0000E08ECADF00009D8B452EF84F0FB
:1008A00054EF84F056EF84F00001E5070001E551B4
:1008B000D8A45DEF84F05FEF84F063EF84F0030E63
:1008C000E56F8DEF84F0030EE56569EF84F06BEF63
:1008D00084F08DEF84F0010EE56F8DEF84F020EE53
:1008E00006F07E51D9267F51DA22000EDF6EA6EF88
:1008F00084F020EE06F07E51D9267F51DA22010ED7
:10090000DF6EA6EF84F020EE06F07E51D9267F51EF
:10091000DA22020EDF6EA6EF84F0E551806F816B64
:100920008151000AD8B497EF84F0A6EF84F080518B
:10093000010AD8B46FEF84F0030AD8B479EF84F0D9
:10094000010AD8B483EF84F0A6EF84F07EC022F0D1
:100950007FC023F0010E246EAFEC9CF073EF89F0A2
:10096000040EF919D8A4B7EF84F0B9EF84F0B8EF0A
:1009700082F0010E08ECADF00009D8B4C2EF84F0AB
:10098000C4EF84F0CBEF84F07EC0D9FF7FC0DAFFE4
:10099000DF2ADBEF84F0000E08ECADF00009D8B4DC
:1009A000D4EF84F0D6EF84F0DBEF84F07EC0D9FF83
:1009B0007FC0DAFFDF067EC0D9FF7FC0DAFFDF50DD
:1009C000D8A4E5EF84F0E7EF84F0EFEF84F07EC089
:1009D000D9FF7FC0DAFF040EDF6E01EF85F07EC025
:1009E000D9FF7FC0DAFF040EDF64F9EF84F0FBEF7C
:1009F00084F001EF85F07EC0D9FF7FC0DAFF010EE1
:100A0000DF6E7EC079F07FC07AF0010E00017B6F4F
:100A100054EC9EF073EF89F0020EE919D8A413EF9D
:100A200085F015EF85F013EF88F0050EF919D8A4BD
:100A30001CEF85F01EEF85F0AFEF85F0000E08EC9F
:100A4000ADF00009D8B427EF85F029EF85F02DEF40
:100A500085F00001E6073AEF85F0010E08ECADF0F5
:100A60000009D8B436EF85F038EF85F03AEF85F01D
:100A70000001E62B0001E651D8A441EF85F043EFD9
:100A800085F047EF85F0030EE66F6EEF85F0040EFC
:100A9000E619D8A44EEF85F050EF85F054EF85F0BD
:100AA000010EE66F6EEF85F0040EE6655AEF85F0F5
:100AB0005CEF85F060EF85F0020EE66F6EEF85F07B
:100AC0006EEF85F0010EFA6F87EF85F0000EFA6F7A
:100AD00087EF85F0020EFA6F87EF85F0E651806FA1
:100AE000816B8151000AD8B478EF85F087EF85F0EB
:100AF0008051010AD8B462EF85F0030AD8B466EFDA
:100B000085F0010AD8B46AEF85F087EF85F0FA0521
:100B1000D8A48DEF85F08FEF85F094EF85F0FA5132
:100B200039EC8DF0A0EF82F0FA51D8A49AEF85F05D
:100B30009CEF85F0A1EF85F0FA5139EC8DF0B3EF21
:100B400082F0020EFA19D8A4A8EF85F0AAEF85F07A
:100B5000B8EF82F0FA5139EC8DF0DAEF82F0F90556
:100B6000D8A4B5EF85F0B7EF85F046EF86F0010E1B
:100B700008ECADF00009D8B4C0EF85F0C2EF85F005
:100B8000DDEF85F0000120EE0EF07E51D9267F5179
:100B9000DA22DECF80F0DDCF81F0050E8027000E57
:100BA000812320EE0EF07E51D9267F51DA2280C0BB
:100BB000DEFF81C0DDFF03EF86F0000E08ECADF034
:100BC0000009D8B4E6EF85F0E8EF85F003EF86F092
:100BD000000120EE0EF07E51D9267F51DA22DECFC1
:100BE00080F0DDCF81F0FB0E8025826FFF0E81212A
:100BF000836F20EE0EF07E51D9267F51DA2282C01B
:100C0000DEFF83C0DDFF000120EE0EF07E51D9260D
:100C10007F51DA22990EDE5C010EDE58D8B013EF58
:100C200086F015EF86F021EF86F020EE0EF07E5173
:100C3000D9267F51DA22AE0EDE6E010EDD6E3CEF5C
:100C400086F020EE0EF07E51D9267F51DA22B00ECA
:100C5000DE5C010EDE58D8A030EF86F032EF86F071
:100C60003CEF86F020EE0EF07E51D9267F51DA223D
:100C70009A0EDE6E010EDD6E7EC079F07FC07AF0D6
:100C8000010E7B6FCDEC9AF073EF89F0020EF9192B
:100C9000D8A44DEF86F04FEF86F0DFEF86F0010E1F
:100CA00008ECADF00009D8B458EF86F05AEF86F0A2
:100CB00075EF86F0000120EE1AF07E51D9267F51A3
:100CC000DA22DECF80F0DDCF81F0050E8027000E26
:100CD000812320EE1AF07E51D9267F51DA2280C07E
:100CE000DEFF81C0DDFF9BEF86F0000E08ECADF06B
:100CF0000009D8B47EEF86F080EF86F09BEF86F097
:100D0000000120EE1AF07E51D9267F51DA22DECF83
:100D100080F0DDCF81F0FB0E8025826FFF0E8121F8
:100D2000836F20EE1AF07E51D9267F51DA2282C0DD
:100D3000DEFF83C0DDFF000120EE1AF07E51D926D0
:100D40007F51DA22010EDB5007E1F90EDE5CD8B0EC
:100D5000ACEF86F0AEEF86F0BAEF86F020EE1AF038
:100D60007E51D9267F51DA22400EDE6E010EDD6EF5
:100D7000D5EF86F020EE1AF07E51D9267F51DA2287
:100D8000420EDE5C010EDE58D8A0C9EF86F0CBEF34
:100D900086F0D5EF86F020EE1AF07E51D9267F51ED
:100DA000DA22FA0EDE6E000EDD6E7EC079F07FC0B4
:100DB0007AF0010E7B6F70EC9BF073EF89F0030EFD
:100DC000F919D8A4E6EF86F0E8EF86F079EF87F01E
:100DD000010E08ECADF00009D8B4F1EF86F0F3EFA6
:100DE00086F00EEF87F0000120EE16F07E51D92636
:100DF0007F51DA22DECF80F0DDCF81F0050E802733
:100E0000000E812320EE16F07E51D9267F51DA2282
:100E100080C0DEFF81C0DDFF34EF87F0000E08ECFC
:100E2000ADF00009D8B417EF87F019EF87F034EF71
:100E300087F0000120EE16F07E51D9267F51DA228C
:100E4000DECF80F0DDCF81F0FB0E8025826FFF0EBC
:100E50008121836F20EE16F07E51D9267F51DA2250
:100E600082C0DEFF83C0DDFF000120EE16F07E5160
:100E7000D9267F51DA22010EDB5007E1B30EDE5C8A
:100E8000D8B045EF87F047EF87F053EF87F020EEBB
:100E900016F07E51D9267F51DA22FA0EDE6E000E50
:100EA000DD6E6FEF87F020EE16F07E51D9267F5170
:100EB000DA22010EDB5009E1FC0EDE5CD8A063EF04
:100EC00087F065EF87F06FEF87F020EE16F07E5128
:100ED000D9267F51DA22B40EDE6E000EDD6E7EC0A2
:100EE00079F07FC07AF0010E7B6F2AEC9AF073EFF5
:100EF00089F0040EF919D8A480EF87F082EF87F00B
:100F0000B8EF82F0010E08ECADF00009D8B48BEF19
:100F100087F08DEF87F0A8EF87F0000120EE18F042
:100F20007E51D9267F51DA22DECF80F0DDCF81F0ED
:100F3000050E8027000E812320EE18F07E51D92661
:100F40007F51DA2280C0DEFF81C0DDFFCEEF87F067
:100F5000000E08ECADF00009D8B4B1EF87F0B3EFA4
:100F600087F0CEEF87F0000120EE18F07E51D926F1
:100F70007F51DA22DECF80F0DDCF81F0FB0E8025BD
:100F8000826FFF0E8121836F20EE18F07E51D926EB
:100F90007F51DA2282C0DEFF83C0DDFF000120EE38
:100FA00018F07E51D9267F51DA22010EDB5007E17D
:100FB000040EDE5CD8B0DFEF87F0E1EF87F0EDEFF5
:100FC00087F020EE18F07E51D9267F51DA22320EBA
:100FD000DE6E000EDD6E09EF88F020EE18F07E5117
:100FE000D9267F51DA22010EDB5009E1340EDE5C96
:100FF000D8A0FDEF87F0FFEF87F009EF88F020EE33
:1010000018F07E51D9267F51DA22050EDE6E000ED1
:10101000DD6E7EC079F07FC07AF0010E7B6FD0EC80
:101020009DF073EF89F0030EE919D8A41AEF88F048
:101030001CEF88F0ADEF88F0000E08ECADF0000971
:10104000D8B425EF88F027EF88F02BEF88F0000167
:10105000E60738EF88F0010E08ECADF00009D8B4CF
:1010600034EF88F036EF88F038EF88F00001E62B97
:101070000001E651D8A43FEF88F041EF88F045EF3A
:1010800088F0030EE66F6CEF88F0040EE619D8A422
:101090004CEF88F04EEF88F052EF88F0010EE66FCB
:1010A0006CEF88F0040EE66558EF88F05AEF88F090
:1010B0005EEF88F0020EE66F6CEF88F06CEF88F060
:1010C000010EFA6F85EF88F0000EFA6F85EF88F059
:1010D000020EFA6F85EF88F0E651806F816B8151C7
:1010E000000AD8B476EF88F085EF88F08051010AC5
:1010F000D8B460EF88F0030AD8B464EF88F0010A2E
:10110000D8B468EF88F085EF88F0FA05D8A48BEFA3
:1011100088F08DEF88F092EF88F0FA5139EC8DF07D
:10112000A0EF82F0FA51D8A498EF88F09AEF88F0F7
:101130009FEF88F0FA5139EC8DF0B3EF82F0020E98
:10114000FA19D8A4A6EF88F0A8EF88F0B8EF82F0DB
:10115000FA5139EC8DF0DAEF82F0040EE919D8A4D7
:10116000B4EF88F0B6EF88F047EF89F0000E08EC96
:10117000ADF00009D8B4BFEF88F0C1EF88F0C5EF3B
:1011800088F00001E607D2EF88F0010E08ECADF020
:101190000009D8B4CEEF88F0D0EF88F0D2EF88F015
:1011A0000001E62B0001E651D8A4D9EF88F0DBEF6F
:1011B00088F0DFEF88F0030EE66F06EF89F0040E8B
:1011C000E619D8A4E6EF88F0E8EF88F0ECEF88F0B5
:1011D000010EE66F06EF89F0040EE665F2EF88F087
:1011E000F4EF88F0F8EF88F0020EE66F06EF89F072
:1011F00006EF89F0010EFA6F1FEF89F0000EFA6F0B
:101200001FEF89F0020EFA6F1FEF89F0E651806F31
:10121000816B8151000AD8B410EF89F01FEF89F07B
:101220008051010AD8B4FAEF88F0030AD8B4FEEF6F
:1012300088F0010AD8B402EF89F01FEF89F0FA05AF
:10124000D8A425EF89F027EF89F02CEF89F0FA5127
:1012500039EC8DF0A0EF82F0FA51D8A432EF89F08A
:1012600034EF89F039EF89F0FA5139EC8DF0B3EFB2
:1012700082F0020EFA19D8A440EF89F042EF89F00B
:10128000B8EF82F0FA5139EC8DF0DAEF82F0050E0A
:10129000E919D8A44EEF89F050EF89F073EF89F087
:1012A000FA05D8A456EF89F058EF89F062EF89F07B
:1012B000FA514FEC97F0010E0001E86F020EFA6F41
:1012C00073EF89F0020EFA19D8A469EF89F06BEF79
:1012D00089F073EF89F0FA514FEC97F0020E00019C
:1012E000E86F010EFA6FDEECA9F03AECABF0040EF9
:1012F00008ECADF00009D8B480EF89F082EF89F0F6
:10130000D4EF8AF03AECABF00001E951D8A48BEFAE
:1013100089F08DEF89F0A4EF89F0E851D8A493EF1C
:1013200089F095EF89F0D2EF8AF0010EE96F000E97
:10133000FA6F7EC07CF07FC07DF064ECA4F0000EFC
:101340000001E76FD2EF8AF0E905D8A4AAEF89F08F
:10135000ACEF89F0E4EF89F0050EF919D8A4B3EFEA
:1013600089F0B5EF89F0E4EF89F0E851D8A4BBEF3C
:1013700089F0BDEF89F0CDEF89F0020EE96F000E24
:10138000FA6F000EE76F020EE66F7EC07CF07FC042
:101390007DF0B9ECA3F0D2EF8AF0020EE819D8A4E0
:1013A000D4EF89F0D6EF89F0D2EF8AF0000EE96F22
:1013B000010EFA6F7EC07BF07FC07CF0CEEC9FF018
:1013C0009FEF89F0D2EF8AF0020EE919D8A4EBEF73
:1013D00089F0EDEF89F02FEF8AF0E851D8A4F3EF10
:1013E00089F0F5EF89F004EF8AF07EC07BF07FC0D2
:1013F0007CF05CECA7F0030E0001E96F000EE76FD4
:10140000020EE66FD2EF8AF0E805D8A40AEF8AF060
:101410000CEF8AF019EF8AF0010EE96F7EC07CF0C4
:101420007FC07DF064ECA4F0020E0001FA6F9FEF24
:1014300089F0020EE819D8A420EF8AF022EF8AF092
:10144000E2EF89F0000EE96F7EC07BF07FC07CF098
:10145000CEEC9FF0010E0001FA6F9FEF89F0030EB2
:10146000E919D8A436EF8AF038EF8AF06DEF8AF0E8
:10147000E851D8A43EEF8AF040EF8AF04BEF8AF0B3
:101480007EC07CF07FC07DF0DDECA1F0040E000199
:10149000E96FFEEF89F0E805D8A451EF8AF053EF29
:1014A0008AF062EF8AF0020EE96F7EC07CF07FC0A6
:1014B0007DF0B9ECA3F0000E0001E76F010EE66FBE
:1014C000D2EF8AF0020EE819D8A469EF8AF06BEF28
:1014D0008AF0E2EF89F022EF8AF0040EE919D8A42D
:1014E00074EF8AF076EF8AF0AAEF8AF0E851D8A478
:1014F0007CEF8AF07EEF8AF08DEF8AF07EC07CF080
:101500007FC07DF0A6ECA0F0050E0001E96F000E93
:10151000E76F020EFA6FD2EF8AF0E805D8A493EFD6
:101520008AF095EF8AF09FEF8AF0030EE96F7EC094
:101530007BF07FC07CF05CECA7F05BEF8AF0020EE2
:10154000E819D8A4A6EF8AF0A8EF8AF0E2EF89F0B4
:1015500022EF8AF0050EE919D8A4B1EF8AF0B3EFB3
:101560008AF0D2EF8AF0E805D8A4B9EF8AF0BBEF91
:101570008AF0C7EF8AF0040EE96F020EFA6F7EC0A0
:101580007CF07FC07DF0DDECA1F05BEF8AF0020E15
:10159000E819D8A4CEEF8AF0D0EF8AF0D2EF8AF023
:1015A000D6EF89F0DEECA9F012000F6E000E126E7D
:1015B00012C01DF01DC01AF01AC017F017C016F0A7
:1015C00016C01CF01CC01BF01BC010F010C011F0A6
:1015D00011C013F013C018F0196AD3C013F0D4C0AF
:1015E00010F010C011F0200E0F5E0001D851DA0388
:1015F000F3CF09F0F4CF0AF0010E0924016E000EBA
:101600000A20026E0FC003F0046A84ECADF001C042
:1016100014F002C015F014500001D625096E1550C3
:10162000D7210A6E09C0F6FF0AC0F7FF000EF86E58
:101630000800F5CF16F0144A152AD35116241D6E52
:101640007F0E1D6426EF8BF028EF8BF02BEF8BF0D5
:101650001D50800F165ED451070B1A6ED9511AC057
:1016600009F00A6A0926000E0A22DA51080D09500B
:10167000F35CF450800A0B6E0A50800A0B58D8B005
:1016800044EF8BF046EF8BF04AEF8BF0DA29176EC0
:101690004CEF8BF0DAC017F0D4C001F0026A000EF4
:1016A000046E080E036EA3ECA2F0015017241D6E09
:1016B000080E1D645EEF8BF060EF8BF063EF8BF034
:1016C0001D50F80F175E14C018F015C019F0000E69
:1016D0001C6E27EF8DF011C002F0135039ECAEF004
:1016E000000E1B6EF5EF8CF01C50D8A47AEF8BF037
:1016F0007CEF8BF0E0EF8BF00001DC51D8A483EF9E
:101700008BF085EF8BF0A1EF8BF0DA511B02F3CF5A
:1017100009F0F4CF0AF00950D6250B6E0A50D721F4
:101720000C6E18500B2619500C220BC0F6FF0CC083
:10173000F7FF000EF86E0800F550FF0A1D6EBAEFB5
:101740008BF0DA511B02F3CF09F0F4CF0AF0095005
:10175000D6250B6E0A50D7210C6E18500B26195047
:101760000C220BC0F6FF0CC0F7FF000EF86E08004D
:10177000F5CF1DF01A28096EC0EF8BF0D8901D36FA
:10178000092EBEEF8BF00001DC51D8A4CAEF8BF01C
:10179000CCEF8BF0CBEF8CF01A500808096EFF0EDF
:1017A0000A6E000E0B6E092AD9EF8BF00B340B3248
:1017B0000A32092ED6EF8BF00A501D12CBEF8CF0B7
:1017C0000001DC51D8A4E7EF8BF0E9EF8BF00FEFCD
:1017D0008CF0DA511B02F3CF09F0F4CF0AF0095074
:1017E000D6250B6E0A50D7210C6E1C500B26000E0E
:1017F0000C2218500B2619500C22FF0E0B240D6ED4
:10180000FF0E0C200E6E0DC0F6FF0EC0F7FF000E8F
:10181000F86E0800F550FF0A1D6E32EF8CF0DA51B9
:101820001B02F3CF09F0F4CF0AF00950D6250B6E56
:101830000A50D7210C6E1C500B26000E0C2218509B
:101840000B2619500C22FF0E0B240D6EFF0E0C20E0
:101850000E6E0DC0F6FF0EC0F7FF000EF86E08000A
:10186000F5CF1DF01A500808096E09280A6E3BEFE3
:101870008CF0D8901D320A2E39EF8CF0010E000149
:10188000DA6545EF8CF047EF8CF097EF8CF0DC5188
:10189000D8A44DEF8CF04FEF8CF06FEF8CF0DA5155
:1018A0001B02F3CF09F0F4CF0AF00950D6250B6ED6
:1018B0000A50D7210C6E1C500B26000E0C2218501B
:1018C0000B2619500C220BC0F6FF0CC0F7FF000EC0
:1018D000F86E0800F550FF0A126E8CEF8CF0DA51AA
:1018E0001B02F3CF09F0F4CF0AF00950D6250B6E96
:1018F0000A50D7210C6E1C500B26000E0C221850DB
:101900000B2619500C220BC0F6FF0CC0F7FF000E7F
:10191000F86E0800F5CF12F01A28096E92EF8CF0DD
:10192000D8901236092E90EF8CF012501D12000143
:10193000DC51D8A49EEF8CF0A0EF8CF0CBEF8CF0B4
:101940001C50096E0A6AFF0E17240B6E0C6AFF0EFC
:101950000C2209500B1807E10A500C18D8A4B3EF59
:101960008CF0B5EF8CF0CBEF8CF01A50D8B4BBEF05
:101970008CF0BDEF8CF0CBEF8CF01AC009F0FF0EAD
:101980000A6E092AC6EF8CF0D8900A36092EC4EFE9
:101990008CF00A501D120001DB05D8A4D2EF8CF0A8
:1019A000D4EF8CF0EAEF8CF0DC51D8A4DAEF8CF0B5
:1019B000DCEF8CF0E4EF8CF0D4C001F0D3513EECBE
:1019C000ADF01D16EAEF8CF0D4C001F0D3513EEC1F
:1019D000ADF01D12D4C001F01DC002F00001D351C2
:1019E00024ECADF00001D32B1B2A16501B5CD8A0B1
:1019F000FCEF8CF0FEEF8CF074EF8BF00001DB510C
:101A0000D8A405EF8DF007EF8DF016EF8DF0DC51C7
:101A1000D8A40DEF8DF00FEF8DF012EF8DF01D6853
:101A20001CEF8DF0000E1D6E1CEF8DF0D4C001F088
:101A3000D3513EECADF01D6ED4C001F01DC002F0DC
:101A40000001D35124ECADF0080E11261C2A1750CA
:101A50001C5CD8A02EEF8DF030EF8DF06BEF8BF08B
:101A600010C002F013501624096E092839ECAEF0AC
:101A70001200266E2604D8A440EF8DF042EF8DF0C0
:101A8000C6EF8DF0330E1C6E1A0E1D6E3F0E1E6ECD
:101A9000FF0E1F6E000EA9ECADF0500E096EFB0E8E
:101AA0000A6E050E0B6E080E0C6E010E0D6E000E0A
:101AB0000E6EA4ECA7F0360E026E020E39ECAEF0FC
:101AC000C70E1E6EFF0E1F6E13ECA7F0330E1C6EBA
:101AD000370E1D6E3F0E1E6E000E1F6E1D0EA9EC02
:101AE000ADF0330E216E370E226E3F0E236EFF0EC9
:101AF000246E1D0EECECA7F0500E096EFB0E0A6E64
:101B0000050E0B6E080E0C6E010E0D6E010E0E6EA4
:101B1000A4ECA7F0360E026E1F0E39ECAEF0CC0E20
:101B20001E6EFF0E1F6E13ECA7F0330E1C6E730EAD
:101B30001D6E3F0E1E6E000E1F6E3A0EA9ECADF02C
:101B4000330E216E730E226E3F0E236EFF0E246E37
:101B50003A0EECECA7F0500E096EFB0E0A6E050E65
:101B60000B6E080E0C6E010E0D6E010E0E6EA4ECC7
:101B7000A7F0360E026E3C0E39ECAEF0560E1E6E1D
:101B8000FF0E1F6E13ECA7F076EF8FF02650D8A44F
:101B9000CCEF8DF0CEEF8DF052EF8EF0330E1C6E49
:101BA0001A0E1D6E3F0E1E6E000E1F6E000EA9EC6B
:101BB000ADF0330E216E1A0E226E3F0E236EFF0E15
:101BC000246E000EECECA7F0500E096EFB0E0A6EB0
:101BD000050E0B6E080E0C6E010E0D6E010E0E6ED4
:101BE000A4ECA7F0360E026E020E39ECAEF0C70E72
:101BF0001E6EFF0E1F6E13ECA7F0330E1C6E370E19
:101C00001D6E3F0E1E6EFF0E1F6E1D0EA9ECADF079
:101C1000500E096EFB0E0A6E050E0B6E080E0C6E52
:101C2000010E0D6E000E0E6EA4ECA7F0360E026EC5
:101C30001F0E39ECAEF0CC0E1E6EFF0E1F6E13ECB5
:101C4000A7F0330E1C6E730E1D6E3F0E1E6E000E3F
:101C50001F6E3A0EA9ECADF0330E216E730E226E9C
:101C60003F0E236EFF0E246E3A0EECECA7F0500EE2
:101C7000096EFB0E0A6E050E0B6E080E0C6E010E41
:101C80000D6E010E0E6EA4ECA7F0360E026E3C0E29
:101C900039ECAEF0560E1E6EFF0E1F6E13ECA7F061
:101CA00076EF8FF0020E2618D8A459EF8EF05BEF76
:101CB0008EF0DFEF8EF0330E1C6E1A0E1D6E3F0E8F
:101CC0001E6E000E1F6E000EA9ECADF0330E216EDD
:101CD0001A0E226E3F0E236EFF0E246E000EECECE9
:101CE000A7F0500E096EFB0E0A6E050E0B6E080E65
:101CF0000C6E010E0D6E010E0E6EA4ECA7F0360EEA
:101D0000026E020E39ECAEF0C70E1E6EFF0E1F6E95
:101D100013ECA7F0330E1C6E370E1D6E3F0E1E6EB9
:101D2000000E1F6E1D0EA9ECADF0330E216E370EA6
:101D3000226E3F0E236EFF0E246E1D0EECECA7F0FC
:101D4000500E096EFB0E0A6E050E0B6E080E0C6E21
:101D5000010E0D6E010E0E6EA4ECA7F0360E026E93
:101D60001F0E39ECAEF0CC0E1E6EFF0E1F6E13EC84
:101D7000A7F0330E1C6E730E1D6E3F0E1E6EFF0E0F
:101D80001F6E3A0EA9ECADF0500E096EFB0E0A6EF6
:101D9000050E0B6E080E0C6E010E0D6E000E0E6E13
:101DA000A4ECA7F0360E026E3C0E39ECAEF0560EE7
:101DB0001E6EFF0E1F6E13ECA7F076EF8FF0260459
:101DC000D8A4E5EF8EF0E7EF8EF076EF8FF0330ECC
:101DD0001C6E1A0E1D6E3F0E1E6E000E1F6E000E44
:101DE000A9ECADF0330E216E1A0E226E3F0E236E5B
:101DF000FF0E246E000EECECA7F0500E096EFB0EE9
:101E00000A6E050E0B6E080E0C6E010E0D6E010EA5
:101E10000E6EA4ECA7F0360E026E020E39ECAEF098
:101E2000C70E1E6EFF0E1F6E13ECA7F0330E1C6E56
:101E3000370E1D6E3F0E1E6E000E1F6E1D0EA9EC9E
:101E4000ADF0330E216E370E226E3F0E236EFF0E65
:101E5000246E1D0EECECA7F0500E096EFB0E0A6E00
:101E6000050E0B6E080E0C6E010E0D6E010E0E6E41
:101E7000A4ECA7F0360E026E1F0E39ECAEF0CC0EBD
:101E80001E6EFF0E1F6E13ECA7F0330E1C6E730E4A
:101E90001D6E3F0E1E6E000E1F6E3A0EA9ECADF0C9
:101EA000330E216E730E226E3F0E236EFF0E246ED4
:101EB0003A0EECECA7F0500E096EFB0E0A6E050E02
:101EC0000B6E080E0C6E010E0D6E010E0E6EA4EC64
:101ED000A7F0360E026E3C0E39ECAEF0560E1E6EBA
:101EE000FF0E1F6E13ECA7F076EF8FF01200000EBE
:101EF000136E0001E45109E10A0EE35DD8A083EFFF
:101F00008FF085EF8FF086EF91F079EF91F013501D
:101F1000090DF3CF08F0F4CF09F008500001EA25CD
:101F20000A6E0950EB210B6E060E0A24D96E000EC4
:101F30000B20DA6E02D8A7EF8FF00500FA6EDE50A4
:101F4000FD6EDE50FE6EDE50FF6EFA50120000098C
:101F5000D8B4ADEF8FF0B0EF8FF0010EB1EF8FF08E
:101F6000000E126E1204D8A4B8EF8FF0BAEF8FF003
:101F70008BEF90F01350090DF3CF08F0F4CF09F078
:101F800008500001EA25D96E0950EB21DA6EDFB85E
:101F9000CCEF8FF0CEEF8FF0FEEF8FF0ECC001F0C2
:101FA000ED510EECAAF0086E1350090DF3CF09F0B5
:101FB000F4CF0AF009500001EA250B6E0A50EB211C
:101FC0000C6E010E0B24D96E000E0C20DA6EDF2A87
:101FD0000850DE5CD8A0EFEF8FF0F1EF8FF0FEEF4E
:101FE0008FF01350090DF3CF08F0F4CF09F008502B
:101FF000EA25D96E0950EB21DA6EDF881350090DFE
:10200000F3CF08F0F4CF09F00850EA25D96E095053
:10201000EB21DA6EDFA80FEF90F011EF90F074EF84
:1020200090F01350090DF3CF08F0F4CF09F00850E9
:10203000EA25D96E0950EB21DA6EDF30E832030B66
:10204000E806D8A426EF90F028EF90F074EF90F017
:102050001350090DF3CF08F0F4CF09F00850EA252A
:102060000A6E0950EB210B6E040E0A24D96E000E85
:102070000B20DA6EDECF01F0DDCF02F0ECC003F012
:10208000046A72ECA9F01350090DF3CF0CF0F4CFF1
:102090000DF00C500001EA250E6E0D50EB210F6E75
:1020A000020E0E24D96E000E0F20DA6EDE2A000E0C
:1020B000DD220150DE5C0250DE58D8A062EF90F0C5
:1020C00064EF90F074EF90F01350090DF3CF08F027
:1020D000F4CF09F00850EA25D96E0950EB21DA6EE9
:1020E000DF50FC0B0209DF6E12C008F01350090D1F
:1020F000F3CF09F0F4CF0AF00950EA25D96E0A505F
:10210000EB21DA6E08460846DF500818F30B081872
:10211000DF6E78EF91F01250D8A491EF90F093EF2A
:1021200090F078EF91F01350090DF3CF08F0F4CF51
:1021300009F008500001EA25D96E0950EB21DA6E4A
:10214000DFA8A5EF90F0A7EF90F062EF91F01350A9
:10215000090DF3CF08F0F4CF09F00850EA250A6E14
:102160000950EB210B6E010E0A24D96E000E0B20D4
:10217000DA6EDF50D8B4BFEF90F0C1EF90F0D6EF39
:1021800090F01350090DF3CF08F0F4CF09F0085088
:10219000EA250A6E0950EB210B6E010E0A24D96E56
:1021A000000E0B20DA6EDF0678EF91F01350090D68
:1021B000F3CF08F0F4CF09F00850EA25D96E0950A2
:1021C000EB21DA6EDF981350090DF3CF08F0F4CF4E
:1021D00009F00850EA250A6E0950EB210B6E040E37
:1021E0000A24D96E000E0B20DA6EDECF01F0DDCFAF
:1021F00002F0ECC003F0046A72ECA9F01350090D70
:10220000F3CF0CF0F4CF0DF00C500001EA250E6E68
:102210000D50EB210F6E020E0E24D96E000E0F2012
:10222000DA6E0150DE5C0250DE58D8B01AEF91F041
:102230001CEF91F048EF91F01350090DF3CF08F027
:10224000F4CF09F00850EA250A6E0950EB210B6E15
:10225000010E0A24D96E000E0B20DA6EDF50D8A4CE
:1022600034EF91F036EF91F078EF91F01350090DC3
:10227000F3CF08F0F4CF09F00850EA25D96E0950E1
:10228000EB21DA6EDF50FC0B0109DF6E78EF91F085
:102290001350090DF3CF08F0F4CF09F00850EA25E8
:1022A000D96E0950EB21DA6EDF50030B020AD8A475
:1022B0005CEF91F05EEF91F060EF91F078EF91F0CC
:1022C00078EF91F01350090DF3CF08F0F4CF09F037
:1022D0000850EA250A6E0950EB210B6E020E0A2403
:1022E000D96E000E0B20DA6E000EDE6E000EDD6E73
:1022F000132A040E13647FEF91F081EF91F087EFC2
:102300008FF0000E0001E46F000EE36F120040C07A
:10231000D9FF41C0DAFFDECFF6FFDDCFF7FF000EB9
:10232000F86E0800F550250AD8A499EF91F09BEFBC
:1023300091F0FFEF92F040C0D9FF41C0DAFFDE2AF2
:10234000000EDD22000E0001DE6F000EDD6FDDC02D
:102350005EF0DF69E069000E516E000E506EDDEF39
:1023600091F05E8240C0D9FF41C0DAFFDE2A000E44
:10237000DD22DDEF91F0000E516E010E506EDDEFAB
:1023800091F040C0D9FF41C0DAFFDECFF6FFDDCFCC
:10239000F7FF000EF86E0800F550446E456A455090
:1023A000000AD8B4D6EF91F0BBEF91F04450300A58
:1023B000D8B4B1EF91F0BBEF91F050505110D8B4B8
:1023C000E4EF91F0E6EF91F0C1EF91F040C0D9FF5A
:1023D00041C0DAFFDECFF6FFDDCFF7FF000EF86E6B
:1023E0000800F5502A0AD8A4F8EF91F0FAEF91F01E
:1023F00024EF92F040C0D9FF41C0DAFFDE2A000E80
:10240000DD2242C0D9FF43C0DAFFDFCF44F0020E25
:10241000DE26DFCF45F0000EDD2244C0D9FF45C0E7
