:040000002DEF00F0F0
:100008005F82F2A40AEF00F00CEF00F02BEF00F093
:10001800FD0ED76E110ED66E0001E54BE62BE34BB5
:10002800E42BE80EE35D030EE459D8A01EEF00F0C0
:1000380020EF00F02AEF00F0000EE46F000EE36FEF
:10004800010EDB27000EDC23DD23DE23F2945F9212
:06005800110039EF9FF0DA
:10C98800004361703A3534306D4168004379636C17
:10C99800653A322F34004375723A3233306D4100B4
:10C9A800566F6C3A332C333556000E0000000000E9
:10C9B800000000000000000000000000000000006F
:10C9C800000000000000000000000000000000005F
:10C9D800000000000000000000000000000000004F
:10C9E800000000000000000000000000000000003F
:10C9F800000000000000000000000000000000002F
:10CA0800000000000000000000000000000000001E
:10CA18000000000000000005000000000000000009
:10CA2800FC7F0E00FC7F0F00FC7F07000000000069
:10CA380000000000000000000000000000000000EE
:10CA480000000000000000000000000000000000DE
:10CA580000000000000000000000000000000000CE
:10CA680000000000000000000000000000000000BE
:10CA780000000000000000000000000000000000AE
:10CA880000000000090000000000000000FC010098
:10CA980000FC010000000000000000000000000091
:10CAA80000FC010000FC0100000000000000000084
:10CAB800000000000000000000000000000000006E
:10CAC800000000000000000000000000000000005E
:10CAD800000000000000000000000000000000004E
:10CAE800000000000000000000000000000000003E
:10CAF80000110000000000600000806100008061FB
:10CB08000C0080E10F0080FD0F00807F0000F86FAF
:10CB18000000FC610C008CE10F0080FD0F00807F9D
:10CB28000000F86F0000FC6100008C6100008021AB
:10CB3800000080010000000000000000000000006C
:10CB480000000000000000000000000000000000DD
:10CB580000000000000000000000000000001100BC
:10CB680000000000830100C0C70300E08F030070CD
:10CB78000C0700300C0600180C060018040600FF0D
:10CB8800FF7F00FEFF3F0018060600180603001886
:10CB98000603003886030070FE010070FC000000E8
:10CBA8007800000000000000000000000000000005
:10CBB800000000000000000000000000000000006D
:10CBC8000000000000000000000000150000000048
:10CBD800E0000000F0010000F80300001C0304005E
:10CBE8000C030E008C830F00FCC10300F8F000005A
:10CBF800707C0000001E000080070300E08307002F
:10CC0800F0C00F003CC00C001C600C0008600C0059
:10CC18000060060000E0070000C00300008001007B
:10CC280000000000000000000000000000000000FC
:10CC38000000000000000000160000000000E003F3
:10CC48000000F0070000F80700701C0E00F80E0C3A
:10CC580000F80F0C00DC070C008C070C000C0F0C04
:10CC6800000C1F06008C1F0600CC390700F8710362
:10CC780000F8F0030070E0010000E0010000F80394
:10CC880000003C070000180E0000000E000000071E
:10CC9800000000000000000000000000000000008C
:10CCA8000000000000040000000000000000FC017B
:10CCB8000000FC010000000000000000000000006F
:10CCC800000000000000000000000000000000005C
:10CCD800000000000000000000000000000000004C
:10CCE800000000000000000000000000000000003C
:10CCF800000000000000000000000000000000002C
:10CD0800000000000000000000000000000000001B
:10CD180000000B000000000000000000FC03000001
:10CD2800FF1F00C0FF3F00E003FC00F000E00138F7
:10CD380000C0013C0080031C0080030800000000C4
:10CD480000000000000000000000000000000000DB
:10CD580000000000000000000000000000000000CB
:10CD680000000000000000000000000000000000BB
:10CD78000000000000000000000000000000000AA1
:10CD880000000000080000001C0080033C00800335
:10CD98003800C001F000F001E003FC00C0FF3F00D4
:10CDA80000FF1F0000FC030000000000000000005E
:10CDB800000000000000000000000000000000006B
:10CDC800000000000000000000000000000000005B
:10CDD800000000000000000000000000000000004B
:10CDE8000000000000000000000000000A00000031
:10CDF80000C0000000C00000004C020000D8030082
:10CE080000F0010000FC000000AC0100003003004D
:10CE180000300000000000000000000000000000DA
:10CE280000000000000000000000000000000000FA
:10CE380000000000000000000000000000000000EA
:10CE480000000000000000000000000000000000DA
:10CE58000000000000000000000E0000000000407C
:10CE6800000000600000006000000060000000603A
:10CE7800000000FF0F0000FF0F0000FF0F00006020
:10CE8800000000600000006000000060000000601A
:10CE9800000000000000000000000000000000008A
:10CEA800000000000000000000000000000000007A
:10CEB800000000000000000000000000000000006A
:10CEC80000000000000005000000000000660000EF
:10CED800006F0000003F0000001E0000000000007E
:10CEE800000000000000000000000000000000003A
:10CEF800000000000000000000000000000000002A
:10CF08000000000000000000000000000000000019
:10CF18000000000000000000000000000000000009
:10CF280000000000000000000000000000000000F9
:10CF38000000000A0000000000300000007000003F
:10CF48000030000000300000003000000030000019
:10CF58000030000000300000003000000000000039
:10CF680000000000000000000000000000000000B9
:10CF780000000000000000000000000000000000A9
:10CF88000000000000000000000000000000000099
:10CF98000000000000000000000000000000000089
:10CFA80005000000000000000000000E0000000F57
:10CFB8000000000700000000000000000000000062
:10CFC8000000000000000000000000000000000059
:10CFD8000000000000000000000000000000000049
:10CFE8000000000000000000000000000000000039
:10CFF8000000000000000000000000000000000029
:10D00800000000000000000000000000000B00000D
:10D0180000000000040000000F0000C00F0000F82E
:10D028000100007E0000801F0000E0070000FC01F6
:10D0380000007C0000001C00000000000000000050
:10D0480000000000000000000000000000000000D8
:10D0580000000000000000000000000000000000C8
:10D0680000000000000000000000000000000000B8
:10D078000000000000000000000016000000000092
:10D08800F8010000FF030080FF0700C0030700E06D
:10D09800010E0070000C0030000C0038000C001865
:10D0A800000C0008000C000C000C000C0006000C22
:10D0B8000006000C0007000C0003001C8003001889
:10D0C800C0010038F00000F07F0000E03F0000C021
:10D0D8000F00000000000000000000000000000039
:10D0E8000000000000000010000000000000000028
:10D0F80000000000000000000001000080030000A4
:10D10800C0030000C0010000E0000000E0000000D3
:10D11800700000007000000038000000F8FF0F00E9
:10D12800FCFF0F00FCFF0F000000000000000000E3
:10D1380000000000000000000000000000000000E7
:10D1480000000000000000000000000000000000D7
:10D1580000000000140000000000000000000000B3
:10D1680000E0000E00E0000F00F0C00F0038E00DF6
:10D178000018E00C0018700C000C300C000C380C77
:10D18800000C380C000C1C0C000C1C0C000C0C0CBB
:10D19800000C0E0C00180F0C00F8070E00F8030F17
:10D1A80000E0010E00000000000000000000000088
:10D1B8000000000000000000000000000000000067
:10D1C8000015000000000000000000C003007CC043
:10D1D80007007CC007007C000E000C000C000C004F
:10D1E8000C000C0E0C000C060C000C070C000C07B5
:10D1F8000C008C030C00CC030600EC0306007C0337
:10D2080006003C0303001CC703000CFE010000FEDF
:10D218000000007C0000000000000000000000008A
:10D2280000000000000000000000000000001600E0
:10D23800C0000000E0000000F0000000F80000005E
:10D24800F8000000FC000000EE000000670000800D
:10D25800630000C0610000E06000007060000038FA
:10D26800700000FCFF0F00FCFF0F00FCFF0F000028
:10D2780030000000300000003000000038000000DE
:10D288003800000038000000000000000000000026
:10D298000000000000000000000000150000000071
:10D2A8000000000000080300F81F0700F81F07002F
:10D2B800F80D0E00080E0C0008060C0008060C00FD
:10D2C80008020C0008030C0008030C0008030C00FB
:10D2D800080306000C0306000C0307000C070300F4
:10D2E8000CC603000CFE010000FC000000780000E2
:10D2F8000000000000000000000000000000000026
:10D308000000000000000000160000000000780087
:10D318000000FE030080FF0300C0C70700E0E1072C
:10D328000060700E0070300C0038380C00181C0CAF
:10D3380000180C0C000C0C0C000C060C000C060E53
:10D34800000C0606000C0606000C0607000C060377
:10D3580000388E030078FC010030FC0000007800E3
:10D3680000000000000000000000000000000000B5
:10D37800000000000016000000000000000000008F
:10D388000000F8010000FC010000FC0000000C0097
:10D3980000000C0000000C0000000C000E000C80C7
:10D3A8000F000CE007000CF001000CFC00000C3E24
:10D3B80000008C1F0000EC070000FC030000FC00CC
:10D3C80000003C0000000C00000004000000000009
:10D3D8000000000000000000000000000000000045
:10D3E8000000160000000000C0010000E00300007B
:10D3F800F00700C0790600F03B0E00F81F0C00385B
:10D408000E0C00180C0C001C0C0C000C060C000C6C
:10D41800060C000C0606000C0606000C0606001C8E
:10D42800070300F8070300F886030070CE01000028
:10D43800FC000000FC0000003800000000000000B4
:10D4480000000000000000000000000000000016BE
:10D45800000000000000010080830300E08707004F
:10D46800F00F0700700C0E00381C0C0018180C0088
:10D478001C180C000C180C000C180C000C180C00D4
:10D488000C1804000C0C06000C0C06001C0C070001
:10D498001886030038C70300F0E30100F0FF00001E
:10D4A800E07F0000001F00000000000000000000F6
:10D4B800000000000000000000000000050000005F
:10D4C8000000000000000C0E00001E0F00000C07FA
:10D4D8000000000000000000000000000000000044
:10D4E8000000000000000000000000000000000034
:10D4F8000000000000000000000000000000000024
:10D508000000000000000000000000000000000013
:10D518000000000000000000000000000000000003
:10D5280000000000000000000005000000000000EE
:10D538006600000C6F00001E3F00000E1E00000079
:10D5480000000000000000000000000000000000D3
:10D5580000000000000000000000000000000000C3
:10D5680000000000000000000000000000000000B3
:10D5780000000000000000000000000000000000A3
:10D588000000000000000000000000000000000093
:10D598000000000000000D00000000000000000076
:10D5A8006000000070000000F0000000F8010000BA
:10D5B800D80100009C0300000C0300000E070000C7
:10D5C800070E0000070E0000020200000000000025
:10D5D8000000000000000000000000000000000043
:10D5E8000000000000000000000000000000000033
:10D5F8000000000000000000000000000000000023
:10D608000000000D00000000008C0100008C0100EB
:10D61800008C0100008C0100008C0100008C0100CE
:10D62800008C0100008C0100008C0100008C0100BE
:10D63800008C0100008C01000000000000000000C8
:10D6480000000000000000000000000000000000D2
:10D6580000000000000000000000000000000000C2
:10D6680000000000000000000000000000000000B2
:10D678000D00000000000000000002020000070E7C
:10D688000000070E00000E0700000C0300009C03BA
:10D698000000D8010000F8010000F0000000700050
:10D6A8000000600000000000000000000000000012
:10D6B8000000000000000000000000000000000062
:10D6C8000000000000000000000000000000000052
:10D6D8000000000000000000000000000010000032
:10D6E80000002000000070000000F00000007870CA
:10D6F800000018F8000018FC1C000CDC1E000CCE02
:10D708000E000CC700000CF700008C730000DC2131
:10D718000000F8010000F8000000700000000000A0
:10D7280000000000000000000000000000000000F1
:10D7380000000000000000000000000000000000E1
:10D74800000000000000000000001B0000000000B6
:10D7580080070000E01F0000783800001C3000003F
:10D768000E70000006670000C3670080E36F00804A
:10D77800716C0080396C00C0186C00C00C6600C069
:10D788000C36006004330060863B00608611006040
:10D79800C6070060FE0F0060FE0F00600E0C006000
:10D7A800000C00C0000600C00106008083030000D2
:10D7B800FF0100007C00001500000E0000800F0033
:10D7C80000C00F0000F0010000780000003E0000DB
:10D7D800001F0000801F0000E01B0000F818000078
:10D7E8007C1800007C180000F8180000E01B0000FE
:10D7F800801F0000001F0000007C000000F80100EE
:10D8080000E00F0000800F0000000E000000000084
:10D818000000000000000000000000000000000000
:10D8280000000000150000000000000000F8FF0FD5
:10D8380000FCFF0F00F8FF0F0018060C0018060C7C
:10D848000018070C000C0704000C0306000C030664
:10D85800008C0306008C030700CC030300CC0303F1
:10D8680000FC83030078C3010038E7010000FE00D4
:10D8780000007E0000001C00000000000000000006
:10D888000000000000000000000000000000000090
:10D89800001200000000007C000000FF0100C0FF33
:10D8A8000700E0830700F0000E0030000E0038008B
:10D8B8000C0018000C000C000C000C000C000C00F4
:10D8C8000C000C0006000C0007000C00070018C034
:10D8D800030038C0010038C001000000000000004B
:10D8E8000000000000000000000000000000000030
:10D8F800000000000000000000000000000015000B
:10D9080000000000000000FCFF0F00FCFF0F00FCFF
:10D91800FF0F0038000C0018000C0018000C001C49
:10D928000006000C0006000C0006000C0007000CA6
:10D938000003000C8003000C8003001CC0010018C9
:10D94800E0010078F80000F07F0000E01F0000C050
:10D9580007000000000000000000000000000000B8
:10D96800000000000000000000000013000000009C
:10D9780010000000FCFF0F00FCFF0F00FCFF0F0071
:10D98800180C0600180C0600180C0600180C0600E7
:10D99800180C0600180C0600180C0600180C0600D7
:10D9A800180E06001C0E06001C0406001C000700CA
:10D9B8000000070000000200000000000000000056
:10D9C800000000000000000000000000000000004F
:10D9D800000000000000000011000000000000002E
:10D9E80000F8FF0F00FCFF0F00FCFF0F00381C00C1
:10D9F80000381C0000380C0000180C0000180C003F
:10DA080000180C0000180C0000180E00001C0E0076
:10DA1800001C0E00001C0E00001C0000000000008E
:10DA280000000000000000000000000000000000EE
:10DA380000000000000000000000000000000000DE
:10DA48000000000000170000000000F8000000FEC1
:10DA5800010080FF0300C0870700E0010600E00026
:10DA68000E0070000C0030000C0038000C0018008C
:10DA78000C0018000C000C100C000C1806000C18F8
:10DA880006000C1806000C1803000C9803001CCCA8
:10DA9800010018EC010038FC0000107C0000001C9C
:10DAA800000000000000000000000000000000006E
:10DAB80000001400000000000C0000FCFF0F00FC38
:10DAC800FF0F00FCFF0F00000E0000000E0000001A
:10DAD8000E0000000E0000000E0000000E00000006
:10DAE8000E0000000600000006000000060000000E
:10DAF80006000000060000FCFF0F00FCFF0F00FC02
:10DB0800FF0F0000000000000000000000000000FF
:10DB180000000000000000000000000000000005F8
:10DB28000000000000000000FCFF0F00FCFF0F00D9
:10DB3800FCFF0F00000000000000000000000000D3
:10DB480000000000000000000000000000000000CD
:10DB580000000000000000000000000000000000BD
:10DB680000000000000000000000000000000000AD
:10DB7800000000000000000000000000000000009D
:10DB8800000000000000000000000000100000007D
:10DB9800000080030000C0070000C00F0000001C48
:10DBA800000000180000001800000018000000180D
:10DBB800000000180000001C0000000E0000000F0C
:10DBC80000FCFF0700FCFF0300FCFF010000000051
:10DBD800000000000000000000000000000000003D
:10DBE800000000000000000000000000000000002D
:10DBF800000000000000000000130000000000000A
:10DC08000000FCFF0F00FCFF0F00FCFF0F00800F5F
:10DC18000000800F0000C01D0000E0380000E07820
:10DC280000007070000030E0000038C0010018C02B
:10DC380003000C8003000C00070000000E00000029
:10DC48000E000000040000000000000000000000BA
:10DC580000000000000000000000000000000000BC
:10DC68000000000000000F0000000000000000FCA1
:10DC7800FF0F00FCFF0F00FCFF0F0000000E00006C
:10DC8800000E00000006000000060000000600006C
:10DC98000006000000070000000700000007000061
:10DCA8000007000000000000000000000000000065
:10DCB800000000000000000000000000000000005C
:10DCC800000000000000000000000000000000004C
:10DCD800000000190000000000000000F8FF0F001D
:10DCE800FCFF0F00FCFF0F00F0010000C003000064
:10DCF800800F0000001E0000007C000000F80100FA
:10DD080000E0070000800F0000800F0000E007001F
:10DD180000F0010000F80000003C0000001E0000B8
:10DD2800000F0000C0030000E0010000FCFF0F002E
:10DD3800FCFF0F00FCFF0F000000000000000000C7
:10DD4800130000000000000000FCFF0F00FCFF0FA4
:10DD580000FCFF0F00F0010000C003000080070076
:10DD680000000F0000001E0000003C00000038000A
:10DD7800000070000000F0000000E0010000C00397
:10DD880000FCFF0700FCFF0F00FCFF0F0000000075
:10DD9800000000000000000000000000000000007B
:10DDA8000000000000000000000000000015000056
:10DDB800000000F8000000FE010080FF0300C0839F
:10DDC8000700E001060070000E0030000C0038006B
:10DDD8000C0018000C000C000C000C000C000C00CF
:10DDE80006000C0006000C0007001C00030018C009
:10DDF800030078E00100F0FF0000E07F0000801FD2
:10DE0800000000000000000000000000000000000A
:10DE1800000000000000000000001300000000C027
:10DE2800000000FCFF0F00FCFF0F00FCFF0F003894
:10DE38001C0000380C0000180C0000180C0000082A
:10DE48000E00000C0E00000C0600000C0700000C71
:10DE58000300008C030000CC010000FC010000F866
:10DE68000000003800000000000000000000000072
:10DE7800000000000000000000000000000000009A
:10DE880000000000000000170000000000F800007B
:10DE980000FE030080FF0700C0070700E0010E0036
:10DEA800E0000C0070000C0030000C0018000C00A2
:10DEB80018000C000C200C000C700E000CF0060072
:10DEC8000CE006000CC007001CC003001CC00700C3
:10DED80078F00700F0FF0E00E03F1C00C00F1C00A8
:10DEE8000000080000000000000000000000000022
:10DEF800000000001500000000E0000000FCFF0F1B
:10DF080000FCFF0F00FCFF0F00381C0000183E004B
:10DF180000183E0000187600000C7600000CE600A1
:10DF2800000CE300000CC300008CC301008C8101CD
:10DF380000CC810300FC000300F80007003800064D
:10DF48000000000E0000000E0000000000000000AD
:10DF580000000000000000000000000000000000B9
:10DF680000150000000000070300C0870700E00F4D
:10DF78000700700C0E00300C0C00180C0C00180C6C
:10DF88000C00180C0C000C040C000C040C000C0603
:10DF98000E000C0606000C0606000C0607001C0600
:10DFA80007003886030038C6030010FE010000FC95
:10DFB8000000003800000000000000000000000021
:10DFC8000000000000000000000000000000123007
:10DFD8000000003000000030000000300000003079
:10DFE8000000001000000010000000F8FF0F00F80B
:10DFF800FF0F00F8FF0F00180000000800000008DD
:10E00800000000080000000C0000000C0000000CDC
:10E018000000000C000000000000000000000000EC
:10E0280000000000000000000000000000000000E8
:10E0380000000000000000000000001200000000C6
:10E0480000000000FCFF0300FCFF0700F8FF0700CA
:10E0580000000E0000000C0000000C0000000C0086
:10E0680000000C0000000C0000000E00000006007C
:10E078000000070000000700FCFF0300FCFF010090
:10E08800FCFF00000000000000000000000000008D
:10E098000000000000000000000000000000000078
:10E0A800000000000000000013000000003C000019
:10E0B80000FC010000F8070000C01F0000007F00FE
:10E0C8000000F80F0000C00F0000C00F0000F000B3
:10E0D80000007C0000001E0000000F0000C00300CC
:10E0E80000E0010000F0000000780000003C0000A3
:10E0F8000018000000000000000000000000000000
:10E108000000000000000000000000000000000007
:10E1180000000000001B000000007C000000FC0361
:10E128000000FC1F000000FF000000F80F0000E0E6
:10E138000F0000C00F0000F0010000780000003E52
:10E148000000800F0000F8030000F8000000F8034A
:10E158000000800F0000003E000000FC000000F0FE
:10E16800070000800F0000C00F0000F80300007EC9
:10E178000000801F0000FC070000FC0100003C00BC
:10E18800000011000004001C000E003C000F007C81
:10E19800C00700F8E00300F0F10000C07B00008039
:10E1A8003F0000001F0000001F0000C07F0000E0CB
:10E1B800F10000F0E0010078C003003C800F001C73
:10E1C800000F00180004000000000000000000001C
:10E1D8000000000000000000000000000000000037
:10E1E8000000000000000000000000000000001512
:10E1F800180000001C0000003C000000780000002F
:10E20800F0000000E0010000C001000080030000F1
:10E218000007000000FF0F0000FE0F0000FE0F00C7
:10E228000007000080030000C0010000E0010000BA
:10E23800E000000070000000380000003C00000012
:10E248001C000000000000000000000000000000AA
:10E2580000000000000000000000000014000000A2
:10E268000000000E0038000F003C800F001CC00F9B
:10E27800000CC00D000CE00C000C700C000C380CED
:10E28800000C3C0C000C1E0C000C0F0C008C070C36
:10E2980000CC030C00EC010C00EC000C00FC000CA2
:10E2A800007C000E003C000F001C0006000000006F
:10E2B8000000000000000000000000000000000056
:10E2C8000000000000000000000C0000000000003A
:10E2D800000000000000F8FFFF03FCFFFF03FCFF45
:10E2E800FF030C0000030C0000030C0000030C00EB
:10E2F80000030C0080030000000100000000000083
:10E308000000000000000000000000000000000005
:10E3180000000000000000000000000000000000F5
:10E3280000000000000000000000000000000000E5
:10E338000000000000000B080000001C0000007C2A
:10E34800000000F0010000C0070000001F000000EE
:10E358007C000000F0010000C00F0000000F00006A
:10E3680000040000000000000000000000000000A1
:10E378000000000000000000000000000000000095
:10E388000000000000000000000000000000000085
:10E398000000000000000000000000000000000075
:10E3A80000000009000000000C0000030C0000033E
:10E3B8000C0000030C0000030C000003FCFFFF032B
:10E3C800FCFFFF03FCFFFF0300000000000000004B
:10E3D8000000000000000000000000000000000035
:10E3E8000000000000000000000000000000000025
:10E3F8000000000000000000000000000000000015
:10E408000000000000000000000000000000000004
:10E418000D000000000001000080030000C00300A0
:10E4280000E0010000F0000000780000001C00007F
:10E43800007C000000F0000000E0030000C00300C2
:10E4480000000300000000000000000000000000C1
:10E4580000000000000000000000000000000000B4
:10E4680000000000000000000000000000000000A4
:10E47800000000000000000000000000000D000087
:10E48800C0000000C0000000C0000000C000000084
:10E49800C0000000C0000000C0000000C000000074
:10E4A800C0000000C0000000C0000000C000000064
:10E4B800C000000000000000000000000000000094
:10E4C8000000000000000000000000000000000044
:10E4D8000000000000000000000000000000000034
:10E4E800000000000000000000000800000000001C
:10E4F8000000000C0000001C0000001800000030A4
:10E508000000006000000060000000000000000043
:10E5180000000000000000000000000000000000F3
:10E5280000000000000000000000000000000000E3
:10E5380000000000000000000000000000000000D3
:10E5480000000000000000000000000000000000C3
:10E55800000000000000000F00000000000006009E
:10E5680000800F0000CC0F0000CE0C0000C60C008D
:10E5780000660C0000630400002306000033060058
:10E588000033030000B3010000FF0F0000FE0F007E
:10E5980000FE0F0000000000000000000000000066
:10E5A8000000000000000000000000000000000063
:10E5B8000000000000000000000000000000000053
:10E5C80000000000100000000000000000FCFF0F29
:10E5D80000FCFF0F00FCFF0F00001C0C00000E0CDD
:10E5E8000000060600000606000002030000830380
:10E5F8000000C3010000E30000007F0000003F00AE
:10E6080000000E00000000000000000000000000F4
:10E6180000000000000000000000000000000000F2
:10E6280000000000000000000000000000000000E2
:10E63800000F0000000000E0030000F0070000F8F1
:10E648000700003C0E00000E0C0000060C0000073E
:10E658000C0000030C0000030C000003060000037C
:10E6680007000087070000860300008601000000FD
:10E678000000000000000000000000000000000092
:10E688000000000000000000000000000000000082
:10E698000000000000000000000000000000100062
:10E6A8000000000080070000C0070000E00F000025
:10E6B800780C0000380C00001C0C00000C0C00004A
:10E6C8000C06000006060000060300008603000092
:10E6D800C60100FCFF0F00FCFF0F00FCFF0F00004D
:10E6E8000000000000000000000000000000000022
:10E6F8000000000000000000000000000000000012
:10E7080000000000000000000000001000000000F1
:10E7180000C0030000F0070000F80F00007C0E00A6
:10E72800006C0C0000660C0000660C0000330C0046
:10E7380000330C0000330E000033060000330600DF
:10E74800009E0300009E0300000C01000000000072
:10E7580000000000000000000000000000000000B1
:10E7680000000000000000000000000000000000A1
:10E7780000000000000000000D00040000000C0074
:10E7880000000C0000000C0000C0FF0F00F0FF0F9D
:10E7980000F8FF0F001C0600000C0600000C060025
:10E7A800000C0600003807000018070000000000F1
:10E7B8000000000000000000000000000000000051
:10E7C8000000000000000000000000000000000041
:10E7D8000000000000000000000000000000000031
:10E7E80000000000000F000000000080070000E0AB
:10E7F8000F0000F0CF010078CC01001C8C03000C46
:10E808000C0300060603000607030002030300C307
:10E81800830300F3C00100FFFF0100FFFF0000FFBA
:10E828003F000000000000000000000000000000A1
:10E8380000000000000000000000000000000000D0
:10E8480000000000000000000000000000000000C0
:10E8580000000F0000000000000000FCFF0F00FC9B
:10E86800FF0F00FCFF0F00001C0000000E0000005E
:10E87800060000000600000003000000030000007E
:10E8880003000000FF0F0000FF0F0000FE0F000054
:10E898000000000000000000000000000000000070
:10E8A8000000000000000000000000000000000060
:10E8B800000000000000000000000000000000054B
:10E8C800000000000000000070FF0F0078FF0F003C
:10E8D80038FF0F00000000000000000000000000EA
:10E8E8000000000000000000000000000000000020
:10E8F8000000000000000000000000000000000010
:10E9080000000000000000000000000000000000FF
:10E9180000000000000000000000000000000000EF
:10E9280000000000000000000000000006000000D9
:10E93800060000000700FFFF0318FFFF033CFFFF6E
:10E94800011C0000000000000000000000000000A2
:10E9580000000000000000000000000000000000AF
:10E96800000000000000000000000000000000009F
:10E97800000000000000000000000000000000008F
:10E98800000000000000000000000000000000007F
:10E998000000000000000000000E00000000000061
:10E9A8000000FCFF0F00FCFF0F00FCFF0F000070D1
:10E9B800000000F8000000DC010000DC0100008E0F
:10E9C8000300000707008007070080030E0000010E
:10E9D8000C00000000000000000000000000000023
:10E9E800000000000000000000000000000000001F
:10E9F800000000000000000000000000000000000F
:10EA0800000000000000050000000000000000FCFD
:10EA1800FF0F00FCFF0F00FCFF0F000000000000CC
:10EA280000000000000000000000000000000000DE
:10EA380000000000000000000000000000000000CE
:10EA480000000000000000000000000000000000BE
:10EA580000000000000000000000000000000000AE
:10EA6800000000000000000000000000000000009E
:10EA780000000018000000000000000000FF0F0068
:10EA880000FF0F0000FF0F00001C0000000C00003A
:10EA9800000600000006000000020000000300005D
:10EAA80000FF0F0000FF0F0000FE0F00001800001D
:10EAB800000C0000000C000000060000000200002E
:10EAC800000300000003000000FF0F0000FF0F001C
:10EAD80000FE0F0000000000000000000000000021
:10EAE8000F000000000000000000FF0F0000FF0FF3
:10EAF8000000FF0F00001C0000000C0000000E00CA
:10EB080000000600000002000000030000000300EF
:10EB18000000FF0F0000FF0F0000FE0F00000000C4
:10EB280000000000000000000000000000000000DD
:10EB380000000000000000000000000000000000CD
:10EB480000000000000000000000000000100000AD
:10EB5800000000C0030000F0070000F80700001CD8
:10EB68000E00000E0C0000060C0000060C0000034E
:10EB78000C0000030E0000030600000307000087D6
:10EB8800030000FE010000FE000000780000000005
:10EB9800000000000000000000000000000000006D
:10EBA800000000000000000000000000000000005D
:10EBB800000000000000000000001100000000003C
:10EBC80000000000FFFF0F00FFFF0F00FFFF0F0016
:10EBD800380C00001C0C00000E0C0000060C000095
:10EBE800030E000003060000030700008303000073
:10EBF800C7030000FF010000FE0000003C00000009
:10EC080000000000000000000000000000000000FC
:10EC180000000000000000000000000000000000EC
:10EC280000000000000000140000000000E00300E5
:10EC380000F0070000F80F00001C0E00000E0C008A
:10EC480000060C0000070C00000306000003070084
:10EC58000083030000C3010000F3000000FFFF076A
:10EC680000FFFF0F00FEFF0F00000006000000037A
:10EC78000000800300008001000000000000000088
:10EC8800000000000000000000000000000000007C
:10EC9800000000000D000000000000000000FF0F51
:10ECA8000000FF0F0000FF0F0000180000000C001C
:10ECB80000000600000002000000030000001F0022
:10ECC80000001F0000000E0000000000000000000F
:10ECD800000000000000000000000000000000002C
:10ECE800000000000000000000000000000000001C
:10ECF800000000000000000000000000000000000C
:10ED080000110000000000380600007C0700007CAD
:10ED18000600006E0C0000660C0000660C00006324
:10ED28000C0000230C0000330C00003306000033F5
:10ED38000600003306000033030000F2030000E081
:10ED4800010000E0000000000000000000000000DA
:10ED580000000000000000000000000000000000AB
:10ED6800000000000000000000000000000011008A
:10ED78000000000006000000060000000600000079
:10ED8800070000E0FF0700E0FF0F00E0FF0F0000B2
:10ED9800030C0000030C00000304000003060080BD
:10EDA8000107008001030000C1030000C00100004A
:10EDB80080000000000000000000000000000000CB
:10EDC800000000000000000000000000000000003B
:10EDD80000000000000000000000000F000000001C
:10EDE8000000000000FF070000FF070000FF0F0001
:10EDF80000000C0000000C0000000C0000000600E1
:10EE080000000600000007000080030000FF0F005C
:10EE180000FF0F0000FF0F000000000000000000CE
:10EE280000000000000000000000000000000000DA
:10EE380000000000000000000000000000000000CA
:10EE480000000000000000000F00060000001F0086
:10EE580000007F000000FE030000E00F0000800FAC
:10EE68000000000F0000C0070000E0010000F000F3
:10EE780000003C0000001E0000000F00000007001A
:10EE88000000030000000000000000000000000077
:10EE9800000000000000000000000000000000006A
:10EEA800000000000000000000000000000000005A
:10EEB8000000000000160000000000070000001F0E
:10EEC800000000FF000000F0070000C00F00000075
:10EED8000F0000C0070000E0010000F80000003F3C
:10EEE8000000001F0000007F000000F8010000E0A3
:10EEF800070000800F0000800F0000E0030000F012
:10EF08000100007E0000001F000000070000000054
:10EF180000000000000000000000000000000000E9
:10EF280000000F000000000002060000070E0000AD
:10EF38000F0700009C030000F8010000F801000022
:10EF4800F0000000F0000000F8010000DC01000003
:10EF58008E03000007070000070E0000000C0000E9
:10EF68000000000000000000000000000000000099
:10EF78000000000000000000000000000000000089
:10EF88000000000000000000000000000000001069
:10EF98000002E0000007E001001F8001003E800140
:10EFA8000078800100F0C00100E0E1000080F70077
:10EFB80000007F0000001F0000C00F0000F00300E9
:10EFC80000FC0000003F0000000F000000030000EC
:10EFD8000000000000000000000000000000000029
:10EFE8000000000000000000000000000000000019
:10EFF8000000000000000000000000000F000008F2
:10F0080000000E0C00000E0E0000060F0000060F98
:10F018000000860F0000C60D0000E60C0000760C0C
:10F0280000003E0C00003E0C00001E0C00000E0C00
:10F038000000070E0000030E0000000000000000A2
:10F0480000000000000000000000000000000000B8
:10F0580000000000000000000000000000000000A8
:10F068000000000000000000000D0000000000602B
:10F078000000006000000060000000E0000000F0F8
:10F08800FF01E0FFFF01F81FFF03F80F00031C005A
:10F0980000030C0000030C0000030C00000100003A
:10F0A8000000000000000000000000000000000058
:10F0B8000000000000000000000000000000000048
:10F0C8000000000000000000000000000000000038
:10F0D800000000000000050000000000000000FF24
:10F0E800FFFF07FFFFFF07FFFFFF0700000000000B
:10F0F8000000000000000000000000000000000008
:10F1080000000000000000000000000000000000F7
:10F1180000000000000000000000000000000000E7
:10F1280000000000000000000000000000000000D7
:10F1380000000000000000000000000000000000C7
:10F148000000000C080000030C0000030C00000382
:10F158000C0080030C00FF01FC8FFF01F8FF7F000B
:10F16800F0FF000000700000006000000060000078
:10F178000060000000000000000000000000000027
:10F188000000000000000000000000000000000077
:10F198000000000000000000000000000000000067
:10F1A8000000000000000000000000000000000057
:10F1B8000D000000000080000000E0010000E000F9
:10F1C8000000300000003000000070000000600007
:10F1D8000000C0000000C0000000E000000078004F
:10F1E80000003800000000000000000000000000DF
:10F1F8000000000000000000000000000000000007
:10F2080000000000000000000000000000000000F6
:10F2180000000000000000000000000000080000DE
:10F228000000FEFF1F00FEFF1F000200100002008A
:10F23800100002001000FEFF1F00FEFF1F0000006C
:10F2480000000000000000000000000000000000B6
:10F2580000000000000000000000000000000000A6
:10F268000000000000000000000000000000000096
:10F278000000000000000000000000000000000086
:10F288000000000000000000000006000000000070
:10F298000000000000000000000000000000000066
:10F2A800000200007E0300000000000000000000D3
:10F2B80000000000000000000400000F0000000F24
:10F2C800000000000000000000000000000000082E
:10F2D800000040004803F8004E03F8004E00080004
:10F2E8000000000000000618022402FF0F44024438
:10F2F800028401000000000000000000000B000074
:10F308001C00220022029C0160001000CC01220295
:10F318002002C00108CC0132022202220252028CD1
:10F3280001E00100020000000000000200000F00E0
:10F3380000000000000000000000000000000000C5
:10F348000000050000F0010C060208011000000092
:10F3580000000000000000000004011002080C0674
:10F36800F0010000000000000000000000000000A4
:10F378000600000A0004001F0004000A0000000044
:10F388000000000000000007200020002000FC0111
:10F398002000200020000000000000000000020003
:10F3A8000800070000000000000000000000000046
:10F3B80000000000000420002000200020000000C1
:10F3C8000000000000000000000000000200000033
:10F3D8000300000000000000000000000000000022
:10F3E80000000005000C800360001C000300000002
:10F3F8000000000000000000000006FC01020202FC
:10F408000202020202FC01000000000000000000ED
:10F418000006000004020402FE03000200020000CD
:10F4280000000000000000000604038202420242BD
:10F438000222021C0200000000000000000000067A
:10F4480004010202220222022202DC010000000062
:10F45800000000000000066000500048004400FE64
:10F4680003400000000000000000000000061E012C
:10F478001202120212021202E20100000000000051
:10F488000000000006F8011402120212021202E043
:10F498000100000000000000000000060200020257
:10F4A800820162001A00060000000000000000004F
:10F4B800000006DC012202220222022202DC0100F4
:10F4C800000000000000000000063C00420242026A
:10F4D80042024201FC0000000000000000000000A1
:10F4E80003000000001803000000000000000000F6
:10F4F80000000000000000030000000818070000DA
:10F5080000000000000000000000000000000800EB
:10F5180000200020005000500088008800040100EE
:10F52800000000000008000090009000900090008B
:10F538009000900090000000000000000800000407
:10F5480001880088005000500020002000000000C2
:10F558000000000504004203220012000C00000015
:10F56800000000000000000000000BF0000C030485
:10F5780002F2040A050A050A05FA0504010C01F05D
:10F5880000070003E000980086009800E0000003F0
:10F59800000000000000000006FE032202220222F2
:10F5A800023C02C00100000000000000000000074B
:10F5B800F800040102020202020202020401000031
:10F5C80000000000000007FE03020202020202021D
:10F5D800020401F800000000000000000006FE031D
:10F5E800220222022202220222020000000000005F
:10F5F8000000000006FE0322002200220022002252
:10F60800000000000000000000000007F8000401EE
:10F618000202020242024202C4030000000000008B
:10F62800000007FE0320002000200020002000FE2C
:10F63800030000000000000000030202FE030202B3
:10F6480000000000000000000000000000000000B2
:10F6580004000202020202FE010000000000000095
:10F668000000000000000006FE0320005000880093
:10F67800040102020000000000000000000005FE76
:10F688000300020002000200020000000000000067
:10F69800000000000009FE03060018006000800159
:10F6A800600018000600FE030000000007FE0306C5
:10F6B8000018002000C0000003FE03000000000046
:10F6C80000000008F800040102020202020202021D
:10F6D8000401F80000000000000006FE03220022DA
:10F6E80000220022001C00000000000000000000B2
:10F6F8000008F8000401020202020206020A0409D4
:10F70800F80800000000000007FE03220022006243
:10F7180000A2001C01000200000000000000000719
:10F728001C0122022202220222022202C40100003B
:10F7380000000000000007020002000200FE0302B1
:10F748000002000200000000000000000007FE00A8
:10F7580000010002000200020001FE00000000009B
:10F7680000000000070E003000C0000003C0003099
:10F77800000E0000000000000000000B1E00E00169
:10F788000002C001380006003800C0010002E00194
:10F798001E000702020401D8002000D8000401025C
:10F7A8000200000000000000000702000C0010002A
:10F7B800E00310000C000200000000000000000040
:10F7C8000602038202620212020A02060200000016
:10F7D80000000000000000040000FF0F01080108FD
:10F7E8000000000000000000000000000000050309
:10F7F800001C0060008003000C00000000000000F6
:10F80800000000000004000001080108FF0F0000CC
:10F8180000000000000000000000000009000010C7
:10F8280000080004000200020004000800100000A4
:10F838000000000700080008000800080008000889
:10F8480000080000000000000000050000000000A3
:10F85800000100020000000000000000000000009D
:10F86800000680014802480248024801F0030000EF
:10F87800000000000000000006FF03100208020854
:10F88800020802F00100000000000000000000056E
:10F89800F001080208020802080200000000000047
:10F8A80000000000000006F0010802080208020833
:10F8B80001FF030000000000000000000006F00146
:10F8C8004802480248024802700100000000000097
:10F8D80000000000050800FE0309000900010000FF
:10F8E800000000000000000000000006F0010812FF
:10F8F800081208120811F80F0000000000000000AC
:10F90800000006FF031000080008000800F00300CC
:10F91800000000000000000000020000FA030000E0
:10F9280000000000000000000000000000000000CF
:10F938000300100810FA0F0000000000000000008B
:10F948000000000000000005FF034000A0001001B7
:10F958000802000000000000000000000000020093
:10F9680000FF03000000000000000000000000008D
:10F9780000000000000A0000F8031000080008005A
:10F98800F003100008000800F003000006F8031058
:10F9980000080008000800F0030000000000000054
:10F9A80000000006F0010802080208020802F0013F
:10F9B8000000000000000000000006F81F10020808
:10F9C8000208020802F00100000000000000000028
:10F9D8000006F0010802080208020801F81F0000EA
:10F9E800000000000000000004F8031000080008F0
:10F9F80000000000000000000000000000000005FA
:10FA0800300148024802480290010000000000004E
:10FA1800000000000000040800FE010802080200BF
:10FA28000000000000000000000000000006F801CF
:10FA38000002000200020001F803000000000000BC
:10FA480000000000051800E0000003E000180000B6
:10FA58000000000000000000000000091800E0009D
:10FA68000003E0001800E0000003E00018000000B8
:10FA78000000050802B0014000B0010802000000C3
:10FA8800000000000000000000051800E018000752
:10FA9800E000180000000000000000000000000066
:10FAA8000508038802480228021802000000000026
:10FAB800000000000000000540004000BE070108EB
:10FAC8000108000000000000000000000000030022
:10FAD800000000FF0F000000000000000000000010
:10FAE80000000000000501080108BE0740004000B2
:10FAF8000000000000000000000000000800006096
:10FB080000100010002000400040003000000000FD
:10FB180000000003FF030102FF03000000000000D3
:10FB280000000000000000000000050000000000C8
:10FB38000500005F000005000700070005147F149A
:10FB48007F1405242A7F2A120523130864620536C8
:10FB58004956205005080703000005001C224100F3
:10FB6800050041221C000514083E08140508083E3B
:10FB780008080500B0700000050808080808050016
:10FB880060600000052010080402053E5149453E0A
:10FB98000500427F4000057249494946052141490F
:10FBA8004D33051814127F10052745454539053C86
:10FBB8004A4949310541211109070536494949365C
:10FBC80005464949291E0500001400000500403477
:10FBD80000000508142241000514141414140541EA
:10FBE80022140800050201590906053E415D594ED7
:10FBF800057C1211127C057F49494936053E414171
:10FC08004122057F4141413E057F49494949057FD8
:10FC180009090909053E41415173057F0808087F14
:10FC28000500417F4100052040413F01057F081440
:10FC38002241057F40404040057F020C027F057F3E
:10FC48000408107F053E4141413E057F0909090628
:10FC5800053E4151215E057F091929460526494976
:10FC680049320501017F0101053F4040403F051F22
:10FC78002040201F053F4038403F056314081463A7
:10FC880005030478040305615149454305007F4194
:10FC98004100050204081020050041417F000504C9
:10FCA8000201020405404040404005070B000000E7
:10FCB800052054547840057F284444380538444486
:10FCC800442805384444287F0538545454180500FE
:10FCD800087E09020518A4A49C78057F0804047806
:10FCE8000500447D4000052040403D00057F102868
:10FCF80044000500417F4000057C04780478057CB9
:10FD08000804047805384444443805FC18242418A9
:10FD18000518242418FC057C0804040805485454D4
:10FD280054240504043F4424053C4040207C051C21
:10FD38002040201C053C4030403C05442810284405
:10FD4800054C9090907C054464544C44050008365A
:10FD58004100050000770000050041360800050451
:10FD68000204080405007F417F00566F6C3A257530
:10FD78002E253032752F25752E2530327556004DBB
:10FD880061782054696D653A2025303275682530D0
:10FD980032756D0043656C6C20566F6C74613A2542
:10FDA800752E2530327556004D696E446973635659
:10FDB8006F6C3A25752E253032755600547269637A
:10FDC8006B6C65566F6C3A25752E2530327556006A
:10FDD80043686172672F44697363682F53746F7245
:10FDE80000547269636B6C654375723A25756D4191
:10FDF800002530327568253032756D2530327573BF
:10FE0800004469736343757220323A2575252500CD
:10FE18004368726743757220323A25752525004478
:10FE280069736343757220333A2575252500436845
:10FE3800726743757220333A257525250044697326
:10FE48006343757220343A25752525004368726727
:10FE580043757220343A2575252500446973634338
:10FE6800757220313A25756D410043687267437594
:10FE78007220313A25756D41004469736343757288
:10FE880020323A25756D41004368726743757220C8
:10FE9800323A25756D4100446973634375722033A6
:10FEA8003A25756D41004368726743757220333A8D
:10FEB80025756D41004469736343757220343A2592
:10FEC800756D41004368726743757220343A257531
:10FED8006D41004F4E2F4F46463A202558200A0DB7
:10FEE8000052455345543A202558200A0D004365D1
:10FEF8006C6C20436F756E743A004375723A2575C1
:10FF08002F25756D41004361703A253034756D4178
:10FF1800680043686172672F4469736368004379B6
:10FF2800636C653A25752F257500425553593A205B
:10FF38002558200A0D004261747420747970653A5E
:10FF48000054656D703A253032754300534156456B
:10FF58002645584954004F7074696F6E73203100FC
:10FF68004F7074696F6E732032004F7074696F6ED2
:10FF7800732033004F7074696F6E732034004F70B4
:10FF880074696F6E732035004368617267696E67C4
:10FF9800004379636C653A2575004C692D496F6E8D
:10FFA800004241542031004241542032004D6F64D8
:10FFB800653A004E692D4D48005354415254004251
:10FFC80041434B004E45585400444953430049446B
:10FFD8004C4500434852470054455354004D454E44
:10FFE8005500504200575D002E2000312000256446
:08FFF800004E00500052000011
:020000040001F9
:1000000021EC86F0020E87ECA3F00009D8A40BEFD8
:1000100080F00DEF80F018EF80F0030E87ECA3F076
:100020000009D8B416EF80F018EF80F012EF81F0DD
:100030000001EA05D8A41FEF80F021EF80F012EF55
:1000400081F0020E87ECA3F00009D8B42AEF80F00B
:100050002CEF80F030EF80F00001FA2B3DEF80F0C4
:10006000030E87ECA3F00009D8B439EF80F03BEF22
:1000700080F03DEF80F00001FA070001FA51D8A4AA
:1000800044EF80F046EF80F04AEF80F0040EFA6F04
:1000900061EF80F0050EFA19D8A451EF80F053EF0C
:1000A00080F057EF80F0010EFA6F61EF80F0060EDE
:1000B000FA655DEF80F05FEF80F061EF80F053EF65
:1000C00080F0FA05D8A467EF80F069EF80F09CEF2C
:1000D00080F020EE07F07E51D9267F51DA22010E02
:1000E000DF6E20EE04F07E51D9267F51DA22000E19
:1000F000DF6E20EE06F07E51D9267F51DA22000E07
:10010000DF6E7EC022F07FC023F0010E246E82ECF1
:1001100092F07EC079F07FC07AF0010E00017B6F13
:10012000BAEC93F07EC022F07FC023F0010E246E63
:100130001EEC93F00EEF81F0020EFA19D8A4A3EF93
:1001400080F0A5EF80F0BFEF80F020EE07F07E5149
:10015000D9267F51DA22020EDF6E20EE04F07E51A6
:10016000D9267F51DA22010EDF6E20EE06F07E5195
:10017000D9267F51DA22010EDF6E81EF80F0030E67
:10018000FA19D8A4C6EF80F0C8EF80F0E2EF80F053
:1001900020EE07F07E51D9267F51DA22030EDF6E62
:1001A00020EE04F07E51D9267F51DA22020EDF6E56
:1001B00020EE06F07E51D9267F51DA22020EDF6E44
:1001C00081EF80F0040EFA19D8A4E9EF80F0EBEF8C
:1001D00080F00EEF81F020EE07F07E51D9267F519E
:1001E000DA22040EDF6E7EC022F07FC023F0000E04
:1001F000246E82EC92F07EC079F07FC07AF0000E1F
:1002000000017B6FBAEC93F07EC022F07FC023F038
:10021000000E246E1EEC93F00EEF81F01CECA0F0AB
:1002200078ECA1F0000E87ECA3F00009D8A41BEF36
:1002300081F01DEF81F031EF81F0010E87ECA3F02A
:100240000009D8A426EF81F028EF81F031EF81F08A
:100250000001E851D8A42FEF81F031EF81F06AEF6F
:1002600082F0010E0001E86FEA51D8A43AEF81F064
:100270003CEF81F062EF81F0FB05D8A442EF81F002
:1002800044EF81F04FEF81F0FB5160EC90F0000EF5
:100290000001FB6F010E0001E96F68EF82F0FB5176
:1002A000D8A455EF81F057EF81F068EF82F0FB5151
:1002B00060EC90F0010E0001FB6F000E0001E96F91
:1002C00068EF82F0EA05D8A468EF81F06AEF81F068
:1002D00090EF81F0020EFB19D8A471EF81F073EF5B
:1002E00081F07EEF81F0FB519FEC8CF0000E00015D
:1002F000FB6F020E0001E96F68EF82F0FB51D8A49A
:1003000084EF81F086EF81F068EF82F0FB519FEC83
:100310008CF0020E0001FB6F5DEF81F068EF82F060
:10032000020EEA19D8B497EF81F099EF81F0ABEFA4
:1003300081F0030EEA19D8B4A0EF81F0A2EF81F0AA
:10034000ABEF81F0040EEA19D8A4A9EF81F0ABEF6E
:1003500081F03CEF82F0000E87ECA3F00009D8B4E6
:10036000B4EF81F0B6EF81F0BAEF81F00001E7075A
:10037000C7EF81F0010E87ECA3F00009D8B4C3EFFA
:1003800081F0C5EF81F0C7EF81F00001E72B00019C
:10039000E751D8A4CEEF81F0D0EF81F0D4EF81F017
:1003A000030EE76FFBEF81F0040EE719D8A4DBEF33
:1003B00081F0DDEF81F0E1EF81F0010EE76FFBEFFF
:1003C00081F0040EE765E7EF81F0E9EF81F0EDEFF2
:1003D00081F0020EE76FFBEF81F0FBEF81F0010E81
:1003E000FB6F14EF82F0000EFB6F14EF82F0020E31
:1003F000FB6F14EF82F0E751806F816B8151000A2F
:10040000D8B405EF82F014EF82F08051010AD8B41D
:10041000EFEF81F0030AD8B4F3EF81F0010AD8B40A
:10042000F7EF81F014EF82F0FB05D8A41AEF82F009
:100430001CEF82F021EF82F0FB5131EC88F04AEFA3
:1004400081F0FB51D8A427EF82F029EF82F02EEF44
:1004500082F0FB5131EC88F05DEF81F0020EFB1968
:10046000D8A435EF82F037EF82F08EEF81F0FB51A8
:1004700031EC88F079EF81F0050EEA19D8A443EF4A
:1004800082F045EF82F068EF82F0FB05D8A44BEFD5
:1004900082F04DEF82F057EF82F0FB51A3EC8FF02A
:1004A000010E0001E96F020EFB6F68EF82F0020E91
:1004B000FB19D8A45EEF82F060EF82F068EF82F063
:1004C000FB51A3EC8FF0020E0001E96F010EFB6FF0
:1004D00078ECA1F0040E87ECA3F00009D8B473EF18
:1004E00082F075EF82F0BCEF83F078ECA1F00001B0
:1004F000EA51D8A47EEF82F080EF82F097EF82F08D
:10050000E951D8A486EF82F088EF82F0BCEF83F047
:10051000010EEA6F000EFB6F7EC07CF07FC07DF0A5
:1005200087EC99F0000E0001E86FBCEF83F0EA055C
:10053000D8A49DEF82F09FEF82F0CEEF82F0E951D8
:10054000D8A4A5EF82F0A7EF82F0B7EF82F0020EF9
:10055000EA6F000EFB6F000EE86F020EE76F7EC0C1
:100560007BF07FC07CF073EC98F0BCEF83F0020E60
:10057000E919D8A4BEEF82F0C0EF82F0BCEF83F09F
:10058000000EEA6F010EFB6F7EC07BF07FC07CF037
:1005900036EC95F092EF82F0BCEF83F0020EEA1990
:1005A000D8A4D5EF82F0D7EF82F019EF83F0E951AC
:1005B000D8A4DDEF82F0DFEF82F0EEEF82F07EC0B4
:1005C0007BF07FC07CF08FEC9CF0030E0001EA6FA3
:1005D000000EE86F020EE76FBCEF83F0E905D8A4C8
:1005E000F4EF82F0F6EF82F003EF83F0010EEA6F92
:1005F0007EC07CF07FC07DF087EC99F0020E000198
:10060000FB6F92EF82F0020EE919D8A40AEF83F093
:100610000CEF83F0CCEF82F0000EEA6F7EC07BF02F
:100620007FC07CF036EC95F0010E0001FB6F92EF7D
:1006300082F0030EEA19D8A420EF83F022EF83F0B2
:1006400057EF83F0E951D8A428EF83F02AEF83F025
:1006500035EF83F07EC07CF07FC07DF0E4EC96F057
:10066000040E0001EA6FE8EF82F0E905D8A43BEF41
:1006700083F03DEF83F04CEF83F0020EEA6F7EC013
:100680007BF07FC07CF073EC98F0000E0001E86F07
:10069000010EE76FBCEF83F0020EE919D8A453EF07
:1006A00083F055EF83F0CCEF82F00CEF83F0040E73
:1006B000EA19D8A45EEF83F060EF83F094EF83F043
:1006C000E951D8A466EF83F068EF83F077EF83F009
:1006D0007EC07CF07FC07DF0A6EC95F0050E000199
:1006E000EA6F000EE86F020EFB6FBCEF83F0E905C6
:1006F000D8A47DEF83F07FEF83F089EF83F0030EC2
:10070000EA6F7EC07BF07FC07CF08FEC9CF045EF01
:1007100083F0020EE919D8A490EF83F092EF83F0F2
:10072000CCEF82F00CEF83F0050EEA19D8A49BEF12
:1007300083F09DEF83F0BCEF83F0E905D8A4A3EF2D
:1007400083F0A5EF83F0B1EF83F0040EEA6F020EA1
:10075000FB6F7EC07CF07FC07DF0E4EC96F045EF4F
:1007600083F0020EE919D8A4B8EF83F0BAEF83F052
:10077000BCEF83F0C0EF82F012000F6E000E126E1D
:1007800012C01DF01DC01AF01AC017F017C016F0E5
:1007900016C01CF01CC01BF01BC010F010C011F0E4
:1007A00011C013F013C018F0196AD1C013F0D2C0F1
:1007B00010F010C011F0200E0F5E0001D651D803CA
:1007C000F3CF09F0F4CF0AF0010E0924016E000EF8
:1007D0000A20026E0FC003F0046A03ECA4F001C00B
:1007E00014F002C015F014500001D425096E155004
:1007F000D5210A6E09C0F6FF0AC0F7FF000EF86E99
:100800000800F5CF16F0144A152AD15116241D6E92
:100810007F0E1D640EEF84F010EF84F013EF84F070
:100820001D50800F165ED251070B1A6ED7511AC099
:1008300009F00A6A0926000E0A22D851080D09504B
:10084000F35CF450800A0B6E0A50800A0B58D8B043
:100850002CEF84F02EEF84F032EF84F0D829176E5D
:1008600034EF84F0D8C017F0D2C001F0026A000E55
:10087000046E080E036E11EC98F0015017241D6EE3
:10088000080E1D6446EF84F048EF84F04BEF84F0CF
:100890001D50F80F175E14C018F015C019F0000EA7
:1008A0001C6E0FEF86F011C002F01350B8ECA4F0EC
:1008B000000E1B6EDDEF85F01C50D8A462EF84F0B3
:1008C00064EF84F0C8EF84F00001DA51D8A46BEF34
:1008D00084F06DEF84F089EF84F0D8511B02F3CFE0
:1008E00009F0F4CF0AF00950D4250B6E0A50D52137
:1008F0000C6E18500B2619500C220BC0F6FF0CC0C2
:10090000F7FF000EF86E0800F550FF0A1D6EA2EF0B
:1009100084F0D8511B02F3CF09F0F4CF0AF009504C
:10092000D4250B6E0A50D5210C6E18500B26195089
:100930000C220BC0F6FF0CC0F7FF000EF86E08008B
:10094000F5CF1DF01A28096EA8EF84F0D8901D3657
:10095000092EA6EF84F00001DA51D8A4B2EF84F09A
:10096000B4EF84F0B3EF85F01A500808096EFF0E5B
:100970000A6E000E0B6E092AC1EF84F00B340B32A5
:100980000A32092EBEEF84F00A501D12B3EF85F033
:100990000001DA51D8A4CFEF84F0D1EF84F0F7EF63
:1009A00084F0D8511B02F3CF09F0F4CF0AF00950BC
:1009B000D4250B6E0A50D5210C6E1C500B26000E50
:1009C0000C2218500B2619500C22FF0E0B240D6E12
:1009D000FF0E0C200E6E0DC0F6FF0EC0F7FF000ECE
:1009E000F86E0800F550FF0A1D6E1AEF85F0D85119
:1009F0001B02F3CF09F0F4CF0AF00950D4250B6E97
:100A00000A50D5210C6E1C500B26000E0C221850DB
:100A10000B2619500C22FF0E0B240D6EFF0E0C201E
:100A20000E6E0DC0F6FF0EC0F7FF000EF86E080048
:100A3000F5CF1DF01A500808096E09280A6E23EF39
:100A400085F0D8901D320A2E21EF85F0010E0001AD
:100A5000D8652DEF85F02FEF85F07FEF85F0DA5127
:100A6000D8A435EF85F037EF85F057EF85F0D851F2
:100A70001B02F3CF09F0F4CF0AF00950D4250B6E16
:100A80000A50D5210C6E1C500B26000E0C2218505B
:100A90000B2619500C220BC0F6FF0CC0F7FF000EFE
:100AA000F86E0800F550FF0A126E74EF85F0D85109
:100AB0001B02F3CF09F0F4CF0AF00950D4250B6ED6
:100AC0000A50D5210C6E1C500B26000E0C2218501B
:100AD0000B2619500C220BC0F6FF0CC0F7FF000EBE
:100AE000F86E0800F5CF12F01A28096E7AEF85F03B
:100AF000D8901236092E78EF85F012501D120001A1
:100B0000DA51D8A486EF85F088EF85F0B3EF85F051
:100B10001C50096E0A6AFF0E17240B6E0C6AFF0E3A
:100B20000C2209500B1807E10A500C18D8A49BEFAF
:100B300085F09DEF85F0B3EF85F01A50D8B4A3EFA0
:100B400085F0A5EF85F0B3EF85F01AC009F0FF0E30
:100B50000A6E092AAEEF85F0D8900A36092EACEF5E
:100B600085F00A501D120001D905D8A4BAEF85F00E
:100B7000BCEF85F0D2EF85F0DA51D8A4C2EF85F052
:100B8000C4EF85F0CCEF85F0D2C001F0D151BDECBF
:100B9000A3F01D16D2EF85F0D2C001F0D151BDEC0B
:100BA000A3F01D12D2C001F01DC002F00001D1510E
:100BB000A3ECA3F00001D12B1B2A16501B5CD8A07C
:100BC000E4EF85F0E6EF85F05CEF84F00001D951A9
:100BD000D8A4EDEF85F0EFEF85F0FEEF85F0DA5168
:100BE000D8A4F5EF85F0F7EF85F0FAEF85F01D68F2
:100BF00004EF86F0000E1D6E04EF86F0D2C001F007
:100C0000D151BDECA3F01D6ED2C001F01DC002F0A9
:100C10000001D151A3ECA3F0080E11261C2A175095
:100C20001C5CD8A016EF86F018EF86F053EF84F026
:100C300010C002F013501624096E0928B8ECA4F075
:100C40001200000E136E0001E65109E10A0EE55D87
:100C5000D8A02DEF86F02FEF86F030EF88F023EF4D
:100C600088F01350090DF3CF08F0F4CF09F00850C5
:100C70000001EB250A6E0950EC210B6E060E0A24CA
:100C8000D96E000E0B20DA6E02D851EF86F0050007
:100C9000FA6EDE50FD6EDE50FE6EDE50FF6EFA50D4
:100CA00012000009D8B457EF86F05AEF86F0010E13
:100CB0005BEF86F0000E126E1204D8A462EF86F08D
:100CC00064EF86F035EF87F01350090DF3CF08F08D
:100CD000F4CF09F008500001EB25D96E0950EC2142
:100CE000DA6EDFB876EF86F078EF86F0A8EF86F060
:100CF000EDC001F0EE514CECA0F0086E1350090D60
:100D0000F3CF09F0F4CF0AF009500001EB250B6E88
:100D10000A50EC210C6E010E0B24D96E000E0C2033
:100D2000DA6EDF2A0850DE5CD8A099EF86F09BEFE0
:100D300086F0A8EF86F01350090DF3CF08F0F4CF3A
:100D400009F00850EB25D96E0950EC21DA6EDF88E6
:100D50001350090DF3CF08F0F4CF09F00850EB253C
:100D6000D96E0950EC21DA6EDFA8B9EF86F0BBEF3F
:100D700086F01EEF87F01350090DF3CF08F0F4CF83
:100D800009F00850EB25D96E0950EC21DA6EDF30FE
:100D9000E832030BE806D8A4D0EF86F0D2EF86F055
:100DA0001EEF87F01350090DF3CF08F0F4CF09F0D0
:100DB0000850EB250A6E0950EC210B6E040E0A2434
:100DC000D96E000E0B20DA6EDECF01F0DDCF02F01F
:100DD000EDC003F0046AB0EC9FF01350090DF3CF9F
:100DE0000CF0F4CF0DF00C500001EB250E6E0D5001
:100DF000EC210F6E020E0E24D96E000E0F20DA6E5B
:100E0000DE2A000EDD220150DE5C0250DE58D8A042
:100E10000CEF87F00EEF87F01EEF87F01350090DEF
:100E2000F3CF08F0F4CF09F00850EB25D96E095044
:100E3000EC21DA6EDF50FC0B0209DF6E12C008F005
:100E40001350090DF3CF09F0F4CF0AF00950EB2548
:100E5000D96E0A50EC21DA6E08460846DF500818B1
:100E6000F30B0818DF6E22EF88F01250D8A43BEF86
:100E700087F03DEF87F022EF88F01350090DF3CF94
:100E800008F0F4CF09F008500001EB25D96E0950A5
:100E9000EC21DA6EDFA84FEF87F051EF87F00CEF0F
:100EA00088F01350090DF3CF08F0F4CF09F0085083
:100EB000EB250A6E0950EC210B6E010E0A24D96E47
:100EC000000E0B20DA6EDF50D8B469EF87F06BEFBD
:100ED00087F080EF87F01350090DF3CF08F0F4CFBF
:100EE00009F00850EB250A6E0950EC210B6E010E3B
:100EF0000A24D96E000E0B20DA6EDF0622EF88F08E
:100F00001350090DF3CF08F0F4CF09F00850EB258A
:100F1000D96E0950EC21DA6EDF981350090DF3CF2A
:100F200008F0F4CF09F00850EB250A6E0950EC21C7
:100F30000B6E040E0A24D96E000E0B20DA6EDECF83
:100F400001F0DDCF02F0EDC003F0046AB0EC9FF0D9
:100F50001350090DF3CF0CF0F4CF0DF00C5000013D
:100F6000EB250E6E0D50EC210F6E020E0E24D96E85
:100F7000000E0F20DA6E0150DE5C0250DE58D8B051
:100F8000C4EF87F0C6EF87F0F2EF87F01350090D3A
:100F9000F3CF08F0F4CF09F00850EB250A6E0950A2
:100FA000EC210B6E010E0A24D96E000E0B20DA6EB6
:100FB000DF50D8A4DEEF87F0E0EF87F022EF88F073
:100FC0001350090DF3CF08F0F4CF09F00850EB25CA
:100FD000D96E0950EC21DA6EDF50FC0B0109DF6E8F
:100FE00022EF88F01350090DF3CF08F0F4CF09F089
:100FF0000850EB25D96E0950EC21DA6EDF50030B57
:10100000020AD8A406EF88F008EF88F00AEF88F00B
:1010100022EF88F022EF88F01350090DF3CF08F08B
:10102000F4CF09F00850EB250A6E0950EC210B6E45
:10103000020E0A24D96E000E0B20DA6E000EDE6E50
:10104000000EDD6E132A040E136429EF88F02BEFD7
:1010500088F031EF86F0000E0001E66F000EE56FBC
:101060001200266E2604D8A438EF88F03AEF88F0F4
:10107000BEEF88F0330E1C6E1A0E1D6E3F0E1E6EF4
:10108000FF0E1F6E000E28ECA4F0320E096EFB0E50
:101090000A6E050E0B6E080E0C6E010E0D6E000E24
:1010A0000E6E22EC9DF0360E026E020EB8ECA4F02D
:1010B000C70E1E6EFF0E1F6ED9EC9CF0330E1C6E19
:1010C000370E1D6E3F0E1E6E000E1F6E1D0E28EC9D
:1010D000A4F0330E216E370E226E3F0E236EFF0EEC
:1010E000246E1D0E6AEC9DF0320E096EFB0E0A6E28
:1010F000050E0B6E080E0C6E010E0D6E010E0E6EBF
:1011000022EC9DF0360E026E1F0EB8ECA4F0CC0E51
:101110001E6EFF0E1F6ED9EC9CF0330E1C6E730E0C
:101120001D6E3F0E1E6E000E1F6E3A0E28ECA4F0D0
:10113000330E216E730E226E3F0E236EFF0E246E51
:101140003A0E6AEC9DF0320E096EFB0E0A6E050E29
:101150000B6E080E0C6E010E0D6E010E0E6E22EC63
:101160009DF0360E026E3C0EB8ECA4F0540E1E6ECE
:10117000FF0E1F6ED9EC9CF0D5EF89F02650D8A455
:10118000C4EF88F0C6EF88F04AEF89F0330E1C6E8A
:101190001A0E1D6E3F0E1E6E000E1F6E000E28EC06
:1011A000A4F0330E216E1A0E226E3F0E236EFF0E38
:1011B000246E000E6AEC9DF0320E096EFB0E0A6E74
:1011C000050E0B6E080E0C6E010E0D6E010E0E6EEE
:1011D00022EC9DF0360E026E020EB8ECA4F0C70EA3
:1011E0001E6EFF0E1F6ED9EC9CF0330E1C6E370E78
:1011F0001D6E3F0E1E6EFF0E1F6E1D0E28ECA4F01E
:10120000320E096EFB0E0A6E050E0B6E080E0C6E8A
:10121000010E0D6E000E0E6E22EC9DF0360E026E6B
:101220001F0EB8ECA4F0CC0E1E6EFF0E1F6ED9EC94
:101230009CF0330E1C6E730E1D6E3F0E1E6E000E64
:101240001F6E3A0E28ECA4F0330E216E730E226E40
:101250003F0E236EFF0E246E3A0E6AEC9DF0320EA6
:10126000096EFB0E0A6E050E0B6E080E0C6E010E5B
:101270000D6E010E0E6E22EC9DF0360E026E3C0ECF
:10128000B8ECA4F0540E1E6EFF0E1F6ED9EC9CF04D
:10129000D5EF89F0020E2618D8A451EF89F053EF4C
:1012A00089F0D5EF89F0330E1C6E1A0E1D6E3F0EBD
:1012B0001E6E000E1F6E000E28ECA4F0330E216E81
:1012C0001A0E226E3F0E236EFF0E246E000E6AEC85
:1012D0009DF0320E096EFB0E0A6E050E0B6E080EA7
:1012E0000C6E010E0D6E010E0E6E22EC9DF0360E90
:1012F000026E020EB8ECA4F0C70E1E6EFF0E1F6E3B
:10130000D9EC9CF0330E1C6E370E1D6E3F0E1E6E18
:10131000000E1F6E1D0E28ECA4F0330E216E370E4A
:10132000226E3F0E236EFF0E246E1D0E6AEC9DF0A2
:10133000320E096EFB0E0A6E050E0B6E080E0C6E59
:10134000010E0D6E010E0E6E22EC9DF0360E026E39
:101350001F0EB8ECA4F0CC0E1E6EFF0E1F6ED9EC63
:101360009CF0330E1C6E730E1D6E3F0E1E6EFF0E34
:101370001F6E3A0E28ECA4F0320E096EFB0E0A6EB8
:10138000050E0B6E080E0C6E010E0D6E000E0E6E2D
:1013900022EC9DF0360E026E3C0EB8ECA4F0540E1A
:1013A0001E6EFF0E1F6ED9EC9CF01CECA0F012001C
:1013B00040C0D9FF41C0DAFFDECFF6FFDDCFF7FF37
:1013C000000EF86E0800F550250AD8A4EAEF89F05F
:1013D000ECEF89F050EF8BF040C0D9FF41C0DAFF4D
:1013E000DE2A000EDD22000E0001E06F000EDF6F2E
:1013F000DFC05EF0E169E269000E516E000E506ED2
:101400002EEF8AF05E8240C0D9FF41C0DAFFDE2AAB
:10141000000EDD222EEF8AF0000E516E010E506E8E
:101420002EEF8AF040C0D9FF41C0DAFFDECFF6FFD1
:10143000DDCFF7FF000EF86E0800F550446E456AE8
:101440004550000AD8B427EF8AF00CEF8AF04450D8
:10145000300AD8B402EF8AF00CEF8AF050505110E5
:10146000D8B435EF8AF037EF8AF012EF8AF040C037
:10147000D9FF41C0DAFFDECFF6FFDDCFF7FF000E68
:10148000F86E0800F5502A0AD8A449EF8AF04BEF0D
:101490008AF075EF8AF040C0D9FF41C0DAFFDE2A3A
:1014A000000EDD2242C0D9FF43C0DAFFDFCF44F097
:1014B000020EDE26DFCF45F0000EDD2244C0D9FF4C
:1014C00045C0DAFFDECFDFF0DDCFE0F00001E0BFA6
:1014D0006EEF8AF06CEF8AF0AAEF8AF05E80DF6D23
:1014E000E01FD8B0E02BAAEF8AF040C0D9FF41C07E
:1014F000DAFFDECF07F0DDCF08F0D3EC91F007C0C4
:10150000DFF008C0E0F08CEF8AF040C0D9FF41C0A6
:10151000DAFFDE2A000EDD2240C0D9FF41C0DAFF2B
:10152000DECFF6FFDDCFF7FF000EF86E0800F5CF37
:1015300044F0D00E4424456E466AFF0E46224650C3
:1015400009E10A0E455CD8A0A8EF8AF0AAEF8AF05C
:1015500085EF8AF040C0D9FF41C0DAFFDECF52F0FC
:10156000DDCF53F052C0F6FF53C0F7FF000EF86E08
:101570000800F550750AD8A4C0EF8AF0C2EF8AF0CF
:1015800020EF8BF042C0D9FF43C0DAFFDFCF44F039
:10159000020EDE26DFCF45F0000EDD2244C0D9FF6B
:1015A00045C0DAFFDECF46F0DDCF47F046C048F059
:1015B00047C049F04A6A4B6A4C6A4D6A4E6A4F6AA4
:1015C000010E5224446E000E5320456E40C0D9FFD8
:1015D00041C0DAFF44C0DEFF45C0DDFF08EF8BF0FD
:1015E0003EC01EF03FC01FF048C020F049C021F0AF
:1015F0004AC022F04BC023F04CC024F04DC025F06F
:101600004EC026F04FC027F0C5EC8DF066EF8BF092
:1016100052C0F6FF53C0F7FF000EF86E0800F550F9
:10162000446E456A4550000AD8B419EF8BF020EF9C
:101630008BF04450750AD8B4F0EF8AF020EF8BF0AD
:1016400040C0D9FF41C0DAFFDECFF6FFDDCFF7FFA4
:10165000000EF86E0800F550250AD8A432EF8BF082
:1016600034EF8BF047EF8BF040C0D9FF41C0DAFF79
:10167000DE2A000EDD22000E046E250E036E3EC033
:1016800005F03FC006F04AEC97F066EF8BF040C0E3
:10169000D9FF41C0DAFFDE2A000EDD2266EF8BF0B3
:1016A00040C0D9FF41C0DAFFDECFF6FFDDCFF7FF44
:1016B000000EF86E0800F550036E046A3EC005F097
:1016C0003FC006F04AEC97F047EF8BF01200186E1F
:1016D000800E18606EEF8BF070EF8BF09EEF8CF049
:1016E000800E086076EF8BF078EF8BF09EEF8CF039
:1016F000400E07607EEF8BF080EF8BF09EEF8CF05A
:10170000400E096086EF8BF088EF8BF09EEF8CF037
:101710000750095C0B6E0B281A6E1850085C0B6E94
:101720000B28146E0750070B166E1650075E1968CB
:10173000080E0B6E000E0C6E16500B5E000E0C5A4F
:101740001A500D6E0E6A0B500D5C0E50800A0F6E13
:101750000C50800A0F58D8B0B0EF8BF0B2EF8BF07E
:10176000C2EF8BF01A5008080B6E0B280C6EBBEF03
:101770008BF0D89019320C2EB9EF8BF01AC015F0FF
:10178000C5EF8BF016500808156E16280B6ECBEFC0
:101790008BF0D89019360B2EC9EF8BF007C002F0F2
:1017A0001850B8ECA4F0000E176E02EF8CF0D2C007
:1017B00001F00001D151BDECA3F01B6E0A28D8B492
:1017C000E4EF8BF0E6EF8BF0EFEF8BF01950FF0AB0
:1017D0001B140B6E0B50106E116AF5EF8BF01B5043
:1017E00019100B6E0B50106E116A10C01BF0D2C096
:1017F00001F01BC002F00001D151A3ECA3F00001E5
:10180000D12B172A1450175CD8A009EF8CF00BEFDE
:101810008CF0D7EF8BF02EEF8CF0080E1526080E0B
:10182000072607C002F01850B8ECA4F0000E176E9F
:1018300025EF8CF0D2C001F00AC002F00001D151B6
:10184000A3ECA3F00001D12B172A1450175CD8A0E9
:101850002CEF8CF02EEF8CF01AEF8CF015500B6EF5
:101860000C6A080E0B26000E0C221A500D6E0E6A22
:101870000B500D5C0E50800A0F6E0C50800A0F58F2
:10188000D8B045EF8CF047EF8CF00DEF8CF01A508C
:10189000155CD8B04EEF8CF050EF8CF09EEF8CF0D2
:1018A00015501A5C0B6EFF0E0C6E0B2A5AEF8CF063
:1018B000D8900C360B2E58EF8CF00C50FF0A196E96
:1018C0000750080F026E1850B8ECA4F0000E176E07
:1018D00095EF8CF0D2C001F00001D151BDECA3F026
:1018E0001B6E0A28D8B477EF8CF079EF8CF082EF7A
:1018F0008CF01950FF0A1B140B6E0B50126E136AFA
:1019000088EF8CF01B5019100B6E0B50126E136A7F
:1019100012C01BF0D2C001F01BC002F00001D15177
:10192000A3ECA3F00001D12B172A1450175CD8A008
:101930009CEF8CF09EEF8CF06AEF8CF01200266E1C
:101940002650D8A4A6EF8CF0A8EF8CF0FDEF8CF019
:10195000330E1C6E1A0E1D6E3F0E1E6EFF0E1F6E96
:10196000000E28ECA4F0320E096EFB0E0A6E050E76
:101970000B6E080E0C6E010E0D6E000E0E6E22EC3C
:101980009DF0360E026E020EB8ECA4F0CC0E1E6E68
:10199000FF0E1F6ED9EC9CF0330E1C6E560E1D6EA2
:1019A0003F0E1E6E000E1F6E1D0E28ECA4F0330EAF
:1019B000216E560E226E3F0E236EFF0E246E1D0EFC
:1019C0006AEC9DF0320E096EFB0E0A6E050E0B6E70
:1019D000080E0C6E010E0D6E010E0E6E22EC9DF0C7
:1019E000360E026E1F0EB8ECA4F0540E1E6EFF0EE3
:1019F0001F6ED9EC9CF0C2EF8DF0020E2618D8A411
:101A000004EF8DF006EF8DF05BEF8DF0330E1C6E62
:101A10001A0E1D6E3F0E1E6E000E1F6E000E28EC7D
:101A2000A4F0330E216E1A0E226E3F0E236EFF0EAF
:101A3000246E000E6AEC9DF0320E096EFB0E0A6EEB
:101A4000050E0B6E080E0C6E010E0D6E010E0E6E65
:101A500022EC9DF0360E026E020EB8ECA4F0CC0E15
:101A60001E6EFF0E1F6ED9EC9CF0330E1C6E560ED0
:101A70001D6E3F0E1E6EFF0E1F6E1D0E28ECA4F095
:101A8000320E096EFB0E0A6E050E0B6E080E0C6E02
:101A9000010E0D6E000E0E6E22EC9DF0360E026EE3
:101AA0001F0EB8ECA4F0540E1E6EFF0E1F6ED9EC84
:101AB0009CF0C2EF8DF0030E2618D8A462EF8DF0D3
:101AC00064EF8DF0C2EF8DF0330E1C6E1A0E1D6E9A
:101AD0003F0E1E6E000E1F6E000E28ECA4F0330E9B
:101AE000216E1A0E226E3F0E236EFF0E246E000E24
:101AF0006AEC9DF0320E096EFB0E0A6E050E0B6E3F
:101B0000080E0C6E010E0D6E010E0E6E22EC9DF095
:101B1000360E026E020EB8ECA4F0CC0E1E6EFF0E56
:101B20001F6ED9EC9CF0330E1C6E560E1D6E3F0ED0
:101B30001E6E000E1F6E1D0E28ECA4F0330E216EDB
:101B4000560E226E3F0E236EFF0E246E1D0E6AECA3
:101B50009DF0320E096EFB0E0A6E050E0B6E080E1E
:101B60000C6E010E0D6E010E0E6E22EC9DF0360E07
:101B7000026E1F0EB8ECA4F0540E1E6EFF0E1F6E08
:101B8000D9EC9CF01CECA0F012000001E2BFCBEFFE
:101B90008DF0CDEF8DF0CEEF8DF05E92E2BFDBEFFA
:101BA0008DF0E25106E1E105D8B0D9EF8DF0DBEF21
:101BB0008DF0E1EF8DF0000E316E010E306EE5EF2D
:101BC0008DF0E1C030F0E2C031F0DFC032F0E0C0B3
:101BD00033F020C034F021C035F022C036F023C0ED
:101BE00037F024C038F025C039F026C03AF027C0BD
:101BF0003BF0000E3D6E1F0E3C6E000E0101586F53
:101C000078EF8EF03C06D8A03D06390E3C24D96E04
:101C1000010E3D20DA6E34C001F035C002F036C04E
:101C200003F037C004F038C005F039C006F03AC000
:101C300007F03BC008F00A0E096E000E0A6E000E97
:101C40000B6E000E0C6E000E0D6E000E0E6E000E72
:101C50000F6E000E106E7CEC96F001C028F002C0F2
:101C600029F003C02AF004C02BF005C02CF006C0F8
:101C70002DF007C02EF008C02FF02850300FDF6E77
:101C80003006D8A031063206D8A0330634C001F0A1
:101C900035C002F036C003F037C004F038C005F09C
:101CA00039C006F03AC007F03BC008F00A0E096ED2
:101CB000000E0A6E000E0B6E000E0C6E000E0D6E06
:101CC000000E0E6E000E0F6E000E106EBEEC94F045
:101CD00001C034F002C035F003C036F004C037F064
:101CE00005C038F006C039F007C03AF008C03BF034
:101CF0003C503D10D8B47FEF8EF081EF8EF0B1EF05
:101D00008EF03450351036103710381039103A1024
:101D10003B10D8A48EEF8EF090EF8EF002EF8EF095
:101D200031BE9DEF8EF0315006E13004D8B09BEF0C
:101D30008EF09DEF8EF002EF8EF033BEA8EF8EF0A6
:101D4000335008E13204D8A0A8EF8EF0AAEF8EF04D
:101D5000B1EF8EF05EB2AFEF8EF0B1EF8EF002EF2A
:101D60008EF01EC013F01FC014F0390E3C24156E07
:101D7000010E3D20166E32C017F033C018F0DFECB4
:101D800099F01200948C948E98809888988600011F
:101D9000ED51D8A4CEEF8EF0D0EF8EF0D6EF8EF0CE
:101DA000000E086E0A0E076ED9EF8EF0EDC007F038
:101DB000086A07C0EDF0EE51D8A4E1EF8EF0E3EF32
:101DC0008EF0E9EF8EF0000E0A6E140E096EECEF45
:101DD0008EF0EEC009F00A6A09C0EEF0EF51F01182
:101DE000D8A4F5EF8EF0F7EF8EF0FDEF8EF0030E36
:101DF0000C6EE80E0B6E01EF8FF0EFC00BF0F0C031
:101E00000CF00BC0EFF00CC0F0F0000E0F6E0F5096
:101E1000090DF3CF01F0F4CF02F00150EB25D96E9C
:101E20000250EC21DA6EDF980F50090DF3CF01F06C
:101E3000F4CF02F00150EB25D96E0250EC21DA6E9E
:101E4000F30EDF160F50090DF3CF01F0F4CF02F0BF
:101E50000150EB25036E0250EC21046E020E0324A8
:101E6000D96E000E0420DA6E000EDE6E000EDD6EFE
:101E70000F50090DF3CF01F0F4CF02F00150EB2524
:101E8000036E0250EC21046E010E0324D96E000E85
:101E90000420DA6E000EDF6E0F50090DF3CF01F053
:101EA000F4CF02F00150EB25036E0250EC21046EDA
:101EB000040E0324D96E000E0420DA6EDE50DE100C
:101EC000D8A465EF8FF067EF8FF06DEF8FF0EFC064
:101ED0000DF0F0C00EF083EF8FF00F50090DF3CF2F
:101EE00001F0F4CF02F00150EB25036E0250EC211B
:101EF000046E040E0324D96E000E0420DA6EDECFC9
:101F00000DF0DDCF0EF00F50090DF3CF01F0F4CF3F
:101F100002F00150EB25036E0250EC21046E040E1A
:101F20000324D96E000E0420DA6E0DC0DEFF0EC051
:101F3000DDFF0F2A040E0F64A0EF8FF0A2EF8FF0E9
:101F400007EF8FF01200266E2604D8A4AAEF8FF0B8
:101F5000ACEF8FF001EF90F0330E1C6E1A0E1D6E79
:101F60003F0E1E6EFF0E1F6E000E28ECA4F0320E08
:101F7000096EFB0E0A6E050E0B6E080E0C6E010E3E
:101F80000D6E000E0E6E22EC9DF0360E026E020EED
:101F9000B8ECA4F0C70E1E6EFF0E1F6ED9EC9CF0BD
:101FA000330E1C6E560E1D6E3F0E1E6E000E1F6E03
:101FB0001D0E28ECA4F0330E216E560E226E3F0E3D
:101FC000236EFF0E246E1D0E6AEC9DF0320E096E1C
:101FD000FB0E0A6E050E0B6E080E0C6E010E0D6EDA
:101FE000010E0E6E22EC9DF0360E026E1F0EB8EC46
:101FF000A4F0540E1E6EFF0E1F6ED9EC9CF05DEF28
:1020000090F0020E2618D8A408EF90F00AEF90F096
:102010005DEF90F0330E1C6E1A0E1D6E3F0E1E6E9D
:10202000000E1F6E000E28ECA4F0330E216E1A0E67
:10203000226E3F0E236EFF0E246E000E6AEC9DF0A2
:10204000320E096EFB0E0A6E050E0B6E080E0C6E3C
:10205000010E0D6E010E0E6E22EC9DF0360E026E1C
:10206000020EB8ECA4F0C70E1E6EFF0E1F6ED9EC68
:102070009CF0330E1C6E560E1D6E3F0E1E6EFF0E34
:102080001F6E1D0E28ECA4F0320E096EFB0E0A6EB8
:10209000050E0B6E080E0C6E010E0D6E000E0E6E10
:1020A00022EC9DF0360E026E1F0EB8ECA4F0540E1A
:1020B0001E6EFF0E1F6ED9EC9CF01CECA0F01200FF
:1020C000266E2604D8A467EF90F069EF90F0BEEF7B
:1020D00090F0330E1C6E200E1D6E3F0E1E6EFF0E16
:1020E0001F6E000E28ECA4F0320E096EFB0E0A6E75
:1020F000050E0B6E080E0C6E010E0D6E000E0E6EB0
:1021000022EC9DF0360E026E020EB8ECA4F0C10E69
:102110001E6EFF0E1F6ED9EC9CF0330E1C6E3D0E32
:102120001D6E3F0E1E6E000E1F6E230E28ECA4F0D7
:10213000330E216E3D0E226E3F0E236EFF0E246E77
:10214000230E6AEC9DF0320E096EFB0E0A6E050E30
:102150000B6E080E0C6E010E0D6E010E0E6E22EC53
:102160009DF0360E026E250EB8ECA4F0E50E1E6E44
:10217000FF0E1F6ED9EC9CF019EF91F02650D8A4F9
:10218000C4EF90F0C6EF90F019EF91F0330E1C6E93
:10219000200E1D6E3F0E1E6E000E1F6E000E28ECF0
:1021A000A4F0330E216E200E226E3F0E236EFF0E22
:1021B000246E000E6AEC9DF0320E096EFB0E0A6E64
:1021C000050E0B6E080E0C6E010E0D6E010E0E6EDE
:1021D00022EC9DF0360E026E020EB8ECA4F0C10E99
:1021E0001E6EFF0E1F6ED9EC9CF0330E1C6E3D0E62
:1021F0001D6E3F0E1E6EFF0E1F6E230E28ECA4F008
:10220000320E096EFB0E0A6E050E0B6E080E0C6E7A
:10221000010E0D6E000E0E6E22EC9DF0360E026E5B
:10222000250EB8ECA4F0E50E1E6EFF0E1F6ED9EC65
:102230009CF01CECA0F0120001C0D9FF02C0DAFF34
:10224000010EDF6E20EE01F00150D9260250DA2295
:10225000010EDF6E20EE02F00150D9260250DA2284
:10226000140EDF6E20EE03F00150D9260250DA2260
:10227000230EDF6E20EE04F00150D9260250DA2240
:10228000000EDF6E20EE05F00150D9260250DA2252
:10229000460EDF6E20EE06F00150D9260250DA22FB
:1022A000010EDF6E20EE07F00150D9260250DA222F
:1022B000010EDF6E20EE1EF00150D9260250DA2208
:1022C000D20EDE6E040EDD6E20EE1EF00150D92619
:1022D0000250DA22BA0EDE6E080EDD6E20EE1EF01F
:1022E0000150D9260250DA22A20EDE6E0C0EDD6EEF
:1022F00020EE1EF00150D9260250DA228A0EDE6E40
:10230000100EDD6E20EE0EF00150D9260250DA22BA
:10231000A40EDE6E010EDD6E20EE10F00150D92607
:102320000250DA22E80EDE6E030EDD6E20EE12F0B1
:102330000150D9260250DA22720EDE6E010EDD6ED9
:1023400020EE14F00150D9260250DA22AE0EDE6ED5
:10235000010EDD6E20EE16F00150D9260250DA2271
:102360000E0EDE6E010EDD6E20EE18F00150D92645
:102370000250DA221E0EDE6E000EDD6E20EE1AF026
:102380000150D9260250DA220E0EDE6E010EDD6EED
:1023900020EE1CF00150D9260250DA22E80EDE6E43
:1023A000030EDD6E1200000E0F6E000E0E6E000E9C
:1023B0000D6E000E0C6EDFEF91F0074A082A07C081
:1023C000F6FF08C0F7FF000EF86E0800F550200A6F
:1023D000D8B4EDEF91F0EFEF91F0DDEF91F007C0A1
:1023E000F6FF08C0F7FF000EF86E0800F5CF09F001
:1023F000F70E09240A6E0B6AFF0E0B220B5009E13F
