:040000003DEF00F0E0
:100008005F82F2A40AEF00F00CEF00F03BEF00F083
:10001800FD0ED76E110ED66E0001844B852B824BD8
:10002800832B0201E44BE52B010E00017627000E1D
:10003800772378237923010E7227000E7323742304
:100048007523E80E825D030E8359D8A02EEF00F0C9
:1000580030EF00F03AEF00F0000E836F000E826F71
:10006800010E7A27000E7B237C237D23F2945F9276
:060078001100B9EFD3F006
:10C84000000E0000000000000000000000000000DA
:10C8500000000000000000000000000000000000D8
:10C8600000000000000000000000000000000000C8
:10C8700000000000000000000000000000000000B8
:10C8800000000000000000000000000000000000A8
:10C890000000000000000000000000000000000098
:10C8A0000000000000000000000000000000050083
:10C8B00000000000000000FC7F0E00FC7F0F00FC69
:10C8C0007F070000000000000000000000000000E2
:10C8D0000000000000000000000000000000000058
:10C8E0000000000000000000000000000000000048
:10C8F0000000000000000000000000000000000038
:10C900000000000000000000000000000000000027
:10C91000000000000000000000000009000000000E
:10C9200000000000FC010000FC010000000000000D
:10C930000000000000000000FC010000FC010000FD
:10C9400000000000000000000000000000000000E7
:10C9500000000000000000000000000000000000D7
:10C9600000000000000000000000000000000000C7
:10C9700000000000000000000000000000000000B7
:10C980000000000000000000110000000000600036
:10C99000008061000080610C0080E10F0080FD0FCD
:10C9A00000807F0000F86F0000FC610C008CE10F3C
:10C9B0000080FD0F00807F0000F86F0000FC610028
:10C9C000008C610000802100008001000000000058
:10C9D0000000000000000000000000000000000057
:10C9E0000000000000000000000000000000000047
:10C9F0000000000000110000000000830100C0C71B
:10CA00000300E08F0300700C0700300C0600180CC8
:10CA1000060018040600FFFF7F00FEFF3F00180617
:10CA2000060018060300180603003886030070FE8F
:10CA3000010070FC00000078000000000000000011
:10CA400000000000000000000000000000000000E6
:10CA500000000000000000000000000000000000D6
:10CA600000001500000000E0000000F0010000F8E8
:10CA70000300001C0304000C030E008C830F00FC59
:10CA8000C10300F8F00000707C0000001E00008070
:10CA9000070300E0830700F0C00F003CC00C001C3F
:10CAA000600C0008600C000060060000E007000059
:10CAB000C003000080010000000000000000000032
:10CAC0000000000000000000000000000000001650
:10CAD0000000000000E0030000F0070000F807007D
:10CAE000701C0E00F80E0C00F80F0C00DC070C0098
:10CAF0008C070C000C0F0C000C1F06008C1F06008E
:10CB0000CC390700F8710300F8F0030070E0010071
:10CB100000E0010000F80300003C070000180E00D0
:10CB200000000E00000007000000000000000000F0
:10CB300000000000000000000000000004000000F1
:10CB40000000000000FC010000FC010000000000EB
:10CB500000000000000000000000000000000000D5
:10CB600000000000000000000000000000000000C5
:10CB700000000000000000000000000000000000B5
:10CB800000000000000000000000000000000000A5
:10CB90000000000000000000000000000000000095
:10CBA0000000000000000000000B0000000000007A
:10CBB000000000FC030000FF1F00C0FF3F00E00377
:10CBC000FC00F000E0013800C0013C0080031C00C4
:10CBD00080030800000000000000000000000000CA
:10CBE0000000000000000000000000000000000045
:10CBF0000000000000000000000000000000000035
:10CC00000000000000000000000000000000000024
:10CC10000000000000000A00000000080000001CE6
:10CC20000080033C0080033800C001F000F001E008
:10CC300003FC00C0FF3F0000FF1F0000FC030000DA
:10CC400000000000000000000000000000000000E4
:10CC500000000000000000000000000000000000D4
:10CC600000000000000000000000000000000000C4
:10CC700000000000000000000000000000000000B4
:10CC80000000000A00000000C0000000C00000001A
:10CC90004C020000D8030000F0010000FC0000007E
:10CCA000AC01000030030000300000000000000074
:10CCB0000000000000000000000000000000000074
:10CCC0000000000000000000000000000000000064
:10CCD0000000000000000000000000000000000054
:10CCE0000000000000000000000000000000000044
:10CCF0000E00000000004000000060000000600026
:10CD000000006000000060000000FF0F0000FF0F47
:10CD10000000FF0F000060000000600000006000E5
:10CD20000000600000006000000000000000000043
:10CD300000000000000000000000000000000000F3
:10CD400000000000000000000000000000000000E3
:10CD500000000000000000000000000000050000CE
:10CD600000000000660000006F0000003F000000AF
:10CD70001E00000000000000000000000000000095
:10CD800000000000000000000000000000000000A3
:10CD90000000000000000000000000000000000093
:10CDA0000000000000000000000000000000000083
:10CDB0000000000000000000000000000000000073
:10CDC000000000000000000000000A000000000059
:10CDD0003000000070000000300000003000000053
:10CDE0003000000030000000300000003000000083
:10CDF0003000000000000000000000000000000003
:10CE00000000000000000000000000000000000022
:10CE10000000000000000000000000000000000012
:10CE20000000000000000000000000000000000002
:10CE300000000000000000050000000000000000ED
:10CE400000000E0000000F000000070000000000BE
:10CE500000000000000000000000000000000000D2
:10CE600000000000000000000000000000000000C2
:10CE700000000000000000000000000000000000B2
:10CE800000000000000000000000000000000000A2
:10CE90000000000000000000000000000000000092
:10CEA000000000000B000000000000040000000F64
:10CEB0000000C00F0000F80100007E0000801F008D
:10CEC00000E0070000FC0100007C0000001C0000E6
:10CED0000000000000000000000000000000000052
:10CEE0000000000000000000000000000000000042
:10CEF0000000000000000000000000000000000032
:10CF00000000000000000000000000000000000021
:10CF100000160000000000F8010000FF030080FF81
:10CF20000700C0030700E0010E0070000C00300095
:10CF30000C0038000C0018000C0008000C000C005D
:10CF40000C000C0006000C0006000C0007000C0092
:10CF500003001C80030018C0010038F00000F07FBF
:10CF60000000E03F0000C00F0000000000000000D3
:10CF700000000000000000000000000000001000A1
:10CF800000000000000000000000000000000000A1
:10CF900001000080030000C0030000C0010000E0A9
:10CFA000000000E000000070000000700000003889
:10CFB000000000F8FF0F00FCFF0F00FCFF0F000057
:10CFC0000000000000000000000000000000000061
:10CFD0000000000000000000000000000000000051
:10CFE000000000000000000000000014000000002D
:10CFF0000000000000000000E0000E00E0000F0054
:10D00000F0C00F0038E00D0018E00C0018700C00A4
:10D010000C300C000C380C000C380C000C1C0C00F4
:10D020000C1C0C000C0C0C000C0E0C00180F0C004F
:10D03000F8070E00F8030F00E0010E0000000000EA
:10D0400000000000000000000000000000000000E0
:10D0500000000000000000001500000000000000BB
:10D060000000C003007CC007007CC007007C000EED
:10D07000000C000C000C000C000C0E0C000C060C3C
:10D08000000C070C000C070C008C030C00CC0306F2
:10D0900000EC0306007C0306003C0303001CC703EE
:10D0A000000CFE010000FE0000007C0000000000FB
:10D0B0000000000000000000000000000000000070
:10D0C00000000000001600C0000000E0000000F0BA
:10D0D000000000F8000000F8000000FC000000EE76
:10D0E00000000067000080630000C0610000E06095
:10D0F00000007060000038700000FCFF0F00FCFFB3
:10D100000F00FCFF0F000030000000300000003076
:10D110000000003800000038000000380000000067
:10D1200000000000000000000000000000000000FF
:10D13000000015000000000000000000080300F8D7
:10D140001F0700F81F0700F80D0E00080E0C00085E
:10D15000060C0008060C0008020C0008030C00086E
:10D16000030C0008030C00080306000C0306000C67
:10D170000307000C0703000CC603000CFE010000AF
:10D18000FC0000007800000000000000000000002B
:10D190000000000000000000000000000000001679
:10D1A000000000000078000000FE030080FF030084
:10D1B000C0C70700E0E1070060700E0070300C008F
:10D1C00038380C00181C0C00180C0C000C0C0C004F
:10D1D0000C060C000C060E000C0606000C060600E1
:10D1E0000C0607000C060300388E030078FC0100D3
:10D1F00030FC00000078000000000000000000008B
:10D200000000000000000000000000001600000008
:10D21000000000000000000000F8010000FC010018
:10D2200000FC0000000C0000000C0000000C0000DE
:10D23000000C000E000C800F000CE007000CF00149
:10D24000000CFC00000C3E00008C1F0000EC0700EE
:10D2500000FC030000FC0000003C0000000C00008B
:10D2600000040000000000000000000000000000BA
:10D27000000000000000000000160000000000C0D8
:10D28000010000E0030000F00700C0790600F03B59
:10D290000E00F81F0C00380E0C00180C0C001C0CB3
:10D2A0000C000C060C000C060C000C0606000C060C
:10D2B00006000C0606001C070300F8070300F886AA
:10D2C000030070CE010000FC000000FC00000038EC
:10D2D000000000000000000000000000000000004E
:10D2E00000000000000016000000000000010080A7
:10D2F000830300E0870700F00F0700700C0E003872
:10D300001C0C0018180C001C180C000C180C000C3D
:10D31000180C000C180C000C1804000C0C06000C67
:10D320000C06001C0C07001886030038C70300F029
:10D33000E30100F0FF0000E07F0000001F0000009C
:10D3400000000000000000000000000000000000DD
:10D35000000000050000000000000000000C0E00AE
:10D36000001E0F00000C070000000000000000007D
:10D3700000000000000000000000000000000000AD
:10D38000000000000000000000000000000000009D
:10D39000000000000000000000000000000000008D
:10D3A000000000000000000000000000000000007D
:10D3B000000000000000000000000000000000006D
:10D3C000050000000000006600000C6F00001E3F1A
:10D3D00000000E1E00000000000000000000000021
:10D3E000000000000000000000000000000000003D
:10D3F000000000000000000000000000000000002D
:10D40000000000000000000000000000000000001C
:10D41000000000000000000000000000000000000C
:10D42000000000000000000000000000000D0000EF
:10D43000000000000000006000000070000000F02C
:10D44000000000F8010000D80100009C0300000C5F
:10D450000300000E070000070E0000070E00000288
:10D4600002000000000000000000000000000000BA
:10D4700000000000000000000000000000000000AC
:10D48000000000000000000000000000000000009C
:10D49000000000000000000000000D00000000007F
:10D4A0008C0100008C0100008C0100008C01000048
:10D4B0008C0100008C0100008C0100008C01000038
:10D4C0008C0100008C0100008C0100008C01000028
:10D4D000000000000000000000000000000000004C
:10D4E000000000000000000000000000000000003C
:10D4F000000000000000000000000000000000002C
:10D50000000000000000000D00000000000000000E
:10D510000002020000070E0000070E00000E0700C8
:10D52000000C0300009C030000D8010000F801007B
:10D5300000F000000070000000600000000000002B
:10D5400000000000000000000000000000000000DB
:10D5500000000000000000000000000000000000CB
:10D5600000000000000000000000000000000000BB
:10D57000000000001000000000200000007000000B
:10D5800000F00000007870000018F8000018FC1C83
:10D59000000CDC1E000CCE0E000CC700000CF700C7
:10D5A000008C730000DC210000F8010000F800008E
:10D5B00000700000000000000000000000000000FB
:10D5C000000000000000000000000000000000005B
:10D5D000000000000000000000000000000000004B
:10D5E000001B000000000080070000E01F00007822
:10D5F0003800001C3000000E70000006670000C3F9
:10D60000670080E36F0080716C0080396C00C01887
:10D610006C00C00C6600C00C3600600433006086ED
:10D620003B006086110060C6070060FE0F0060FED0
:10D630000F00600E0C0060000C00C0000600C0016E
:10D6400006008083030000FF0100007C000015003D
:10D65000000E0000800F0000C00F0000F00100006D
:10D66000780000003E0000001F0000801F0000E066
:10D670001B0000F81800007C1800007C180000F85F
:10D68000180000E01B0000801F0000001F000000C9
:10D690007C000000F8010000E00F0000800F000097
:10D6A000000E00000000000000000000000000006C
:10D6B0000000000000000000000000150000000055
:10D6C00000000000F8FF0F00FCFF0F00F8FF0F0044
:10D6D00018060C0018060C0018070C000C070400B4
:10D6E0000C0306000C0306008C0306008C030700E5
:10D6F000CC030300CC030300FC83030078C30100C8
:10D7000038E7010000FE0000007E0000001C000061
:10D710000000000000000000000000000000000009
:10D7200000000000000000001200000000007C006B
:10D730000000FF0100C0FF0700E0830700F0000EBB
:10D740000030000E0038000C0018000C000C000C1B
:10D75000000C000C000C000C000C0006000C000774
:10D76000000C00070018C0030038C0010038C001D9
:10D7700000000000000000000000000000000000A9
:10D780000000000000000000000000000000000099
:10D790000000000000150000000000000000FCFF79
:10D7A0000F00FCFF0F00FCFF0F0038000C001800FA
:10D7B0000C0018000C001C0006000C0006000C00F9
:10D7C00006000C0007000C0003000C8003000C8016
:10D7D00003001CC0010018E0010078F80000F07F91
:10D7E0000000E01F0000C007000000000000000073
:10D7F0000000000000000000000000000000000029
:10D800000000130000000010000000FCFF0F00FCEF
:10D81000FF0F00FCFF0F00180C0600180C06001884
:10D820000C0600180C0600180C0600180C06001850
:10D830000C0600180C0600180E06001C0E06001C34
:10D840000406001C000700000007000000020000A2
:10D8500000000000000000000000000000000000C8
:10D8600000000000000000000000000000000011A7
:10D870000000000000000000F8FF0F00FCFF0F0098
:10D88000FCFF0F00381C0000381C0000380C0000A2
:10D89000180C0000180C0000180C0000180C0000F8
:10D8A000180E00001C0E00001C0E00001C0E0000D4
:10D8B0001C0000000000000000000000000000004C
:10D8C0000000000000000000000000000000000058
:10D8D0000000000000000000000000001700000031
:10D8E0000000F8000000FE010080FF0300C0870771
:10D8F00000E0010600E0000E0070000C0030000C9B
:10D900000038000C0018000C0018000C000C100C63
:10D91000000C1806000C1806000C1806000C180362
:10D92000000C9803001CCC010018EC010038FC002E
:10D9300000107C0000001C0000000000000000003F
:10D940000000000000000000001400000000000CB7
:10D950000000FCFF0F00FCFF0F00FCFF0F00000E9B
:10D960000000000E0000000E0000000E0000000E7F
:10D970000000000E0000000E00000006000000067F
:10D980000000000600000006000000060000FCFF8A
:10D990000F00FCFF0F00FCFF0F0000000000000064
:10D9A0000000000000000000000000000000000077
:10D9B000000000000000050000000000000000FC66
:10D9C000FF0F00FCFF0F00FCFF0F00000000000035
:10D9D0000000000000000000000000000000000047
:10D9E0000000000000000000000000000000000037
:10D9F0000000000000000000000000000000000027
:10DA00000000000000000000000000000000000016
:10DA10000000000000000000000000000000000006
:10DA200000000010000000000080030000C007009C
:10DA300000C00F0000001C000000180000001800CB
:10DA400000001800000018000000180000001C0072
:10DA500000000E0000000F00FCFF0700FCFF0300A9
:10DA6000FCFF0100000000000000000000000000BA
:10DA700000000000000000000000000000000000A6
:10DA80000000000000000000000000000000000096
:10DA9000130000000000000000FCFF0F00FCFF0F5F
:10DAA00000FCFF0F00800F0000800F0000C01D0071
:10DAB00000E0380000E07800007070000030E00006
:10DAC0000038C0010018C003000C8003000C0007E0
:10DAD0000000000E0000000E000000040000000026
:10DAE0000000000000000000000000000000000036
:10DAF000000000000000000000000000000F000017
:10DB0000000000000000FCFF0F00FCFF0F00FCFF06
:10DB10000F0000000E0000000E00000006000000D4
:10DB200006000000060000000600000007000000DC
:10DB300007000000070000000700000000000000D0
:10DB400000000000000000000000000000000000D5
:10DB500000000000000000000000000000000000C5
:10DB6000000000000000000000001900000000009C
:10DB7000000000F8FF0F00FCFF0F00FCFF0F00F09B
:10DB8000010000C0030000800F0000001E00000024
:10DB90007C000000F8010000E0070000800F00009A
:10DBA000800F0000E0070000F0010000F800000016
:10DBB0003C0000001E0000000F0000C0030000E059
:10DBC000010000FCFF0F00FCFF0F00FCFF0F000036
:10DBD0000000000000000013000000000000000032
:10DBE000FCFF0F00FCFF0F00FCFF0F00F001000026
:10DBF000C003000080070000000F0000001E0000AE
:10DC0000003C0000003800000070000000F0000040
:10DC100000E0010000C00300FCFF0700FCFF0F0054
:10DC2000FCFF0F00000000000000000000000000EA
:10DC300000000000000000000000000000000000E4
:10DC400000000000150000000000F8000000FE01C8
:10DC50000080FF0300C0830700E001060070000E93
:10DC60000030000C0038000C0018000C000C000CF8
:10DC7000000C000C000C0006000C0006000C000755
:10DC8000001C00030018C0030078E00100F0FF0052
:10DC900000E07F0000801F00000000000000000086
:10DCA0000000000000000000000000000000000074
:10DCB000001300000000C0000000FCFF0F00FCFF8C
:10DCC0000F00FCFF0F00381C0000380C0000180C7F
:10DCD0000000180C0000080E00000C0E00000C06DE
:10DCE00000000C0700000C0300008C030000CC01B6
:10DCF0000000FC010000F8000000380000000000F7
:10DD00000000000000000000000000000000000013
:10DD100000000000000000000000000000001700EC
:10DD200000000000F8000000FE030080FF0700C0B4
:10DD3000070700E0010E00E0000C0070000C00304E
:10DD4000000C0018000C0018000C000C200C000C3B
:10DD5000700E000CF006000CE006000CC007001C62
:10DD6000C003001CC0070078F00700F0FF0E00E0C1
:10DD70003F1C00C00F1C0000000800000000000055
:10DD8000000000000000000000000015000000007E
:10DD9000E0000000FCFF0F00FCFF0F00FCFF0F0085
:10DDA000381C0000183E0000183E000018760000E5
:10DDB0000C7600000CE600000CE300000CC3000031
:10DDC0008CC301008C810100CC810300FC000300A6
:10DDD000F80007003800060000000E0000000E00EA
:10DDE0000000000000000000000000000000000033
:10DDF0000000000000000000150000000000070304
:10DE000000C0870700E00F0700700C0E00300C0CFC
:10DE100000180C0C00180C0C00180C0C000C040C56
:10DE2000000C040C000C060E000C0606000C060686
:10DE3000000C0607001C0607003886030038C603DE
:10DE40000010FE010000FC0000003800000000008F
:10DE500000000000000000000000000000000000C2
:10DE60000000000000123000000030000000300010
:10DE70000000300000003000000010000000100022
:10DE80000000F8FF0F00F8FF0F00F8FF0F00180068
:10DE900000000800000008000000080000000C005E
:10DEA00000000C0000000C0000000C00000000004E
:10DEB0000000000000000000000000000000000062
:10DEC0000000000000000000000000000000000052
:10DED0000000120000000000000000FCFF0300FC36
:10DEE000FF0700F8FF070000000E0000000C000014
:10DEF000000C0000000C0000000C0000000C0000F2
:10DF0000000E00000006000000070000000700FCF3
:10DF1000FF0300FCFF0100FCFF0000000000000008
:10DF200000000000000000000000000000000000F1
:10DF300000000000000000000000000000000013CE
:10DF4000000000003C000000FC010000F807000099
:10DF5000C01F0000007F000000F80F0000C00F008D
:10DF600000C00F0000F00000007C0000001E000058
:10DF7000000F0000C0030000E0010000F0000000FE
:10DF8000780000003C0000001800000000000000C5
:10DF90000000000000000000000000000000000081
:10DFA0000000000000000000000000001B00000056
:10DFB000007C000000FC030000FC1F000000FF00CC
:10DFC0000000F80F0000E00F0000C00F0000F0019B
:10DFD0000000780000003E0000800F0000F8030001
:10DFE00000F8000000F8030000800F0000003E0071
:10DFF0000000FC000000F0070000800F0000C00FD0
:10E000000000F80300007E0000801F0000FC0700F5
:10E0100000FC0100003C00000011000004001C0096
:10E020000E003C000F007CC00700F8E00300F0F198
:10E030000000C07B0000803F0000001F0000001FA8
:10E040000000C07F0000E0F10000F0E0010078C0B7
:10E0500003003C800F001C000F00180004000000AB
:10E0600000000000000000000000000000000000B0
:10E0700000000000000000000000000000000000A0
:10E0800000000000000015180000001C0000003C0B
:10E0900000000078000000F0000000E0010000C077
:10E0A000010000800300000007000000FF0F0000D7
:10E0B000FE0F0000FE0F000007000080030000C0FC
:10E0C000010000E0010000E00000007000000038E6
:10E0D0000000003C0000001C0000000000000000E8
:10E0E0000000000000000000000000000000000030
:10E0F000000000140000000000000E0038000F00B7
:10E100003C800F001CC00F000CC00D000CE00C0088
:10E110000C700C000C380C000C3C0C000C1E0C009D
:10E120000C0F0C008C070C00CC030C00EC010C0055
:10E13000EC000C00FC000C007C000E003C000F000A
:10E140001C000600000000000000000000000000AD
:10E1500000000000000000000000000000000000BF
:10E160000C000000000000000000000000F8FFFFAD
:10E1700003FCFFFF03FCFFFF030C0000030C000087
:10E18000030C0000030C0000030C008003000000DF
:10E19000010000000000000000000000000000007E
:10E1A000000000000000000000000000000000006F
:10E1B000000000000000000000000000000000005F
:10E1C000000000000000000000000000000B08003C
:10E1D00000001C0000007C000000F0010000C007EF
:10E1E0000000001F0000007C000000F0010000C0E3
:10E1F0000F0000000F0000000400000000000000FD
:10E20000000000000000000000000000000000000E
:10E2100000000000000000000000000000000000FE
:10E2200000000000000000000000000000000000EE
:10E230000000000000000000000009000000000CC9
:10E240000000030C0000030C0000030C0000030C92
:10E25000000003FCFFFF03FCFFFF03FCFFFF0300C4
:10E2600000000000000000000000000000000000AE
:10E27000000000000000000000000000000000009E
:10E28000000000000000000000000000000000008E
:10E29000000000000000000000000000000000007E
:10E2A000000000000000000D000000000001000060
:10E2B00080030000C0030000E0010000F000000047
:10E2C000780000001C0000007C000000F00000004E
:10E2D000E0030000C0030000000300000000000095
:10E2E000000000000000000000000000000000002E
:10E2F000000000000000000000000000000000001E
:10E30000000000000000000000000000000000000D
:10E31000000000000D0000C0000000C0000000C0B0
:10E32000000000C0000000C0000000C0000000C0ED
:10E33000000000C0000000C0000000C0000000C0DD
:10E34000000000C0000000C000000000000000004D
:10E3500000000000000000000000000000000000BD
:10E3600000000000000000000000000000000000AD
:10E37000000000000000000000000000000000009D
:10E38000000800000000000000000C0000001C005D
:10E390000000180000003000000060000000600075
:10E3A000000000000000000000000000000000006D
:10E3B000000000000000000000000000000000005D
:10E3C000000000000000000000000000000000004D
:10E3D000000000000000000000000000000000003D
:10E3E00000000000000000000000000000000F001E
:10E3F0000000000000060000800F0000CC0F0000AD
:10E40000CE0C0000C60C0000660C00006304000087
:10E41000230600003306000033030000B3010000B0
:10E42000FF0F0000FE0F0000FE0F000000000000C4
:10E4300000000000000000000000000000000000DC
:10E4400000000000000000000000000000000000CC
:10E4500000000000000000000000001000000000AC
:10E4600000000000FCFF0F00FCFF0F00FCFF0F008E
:10E47000001C0C00000E0C00000606000006060042
:10E48000000203000083030000C3010000E300005A
:10E49000007F0000003F0000000E000000000000B0
:10E4A000000000000000000000000000000000006C
:10E4B000000000000000000000000000000000005C
:10E4C00000000000000000000F0000000000E0035A
:10E4D0000000F0070000F80700003C0E00000E0CE2
:10E4E0000000060C0000070C0000030C0000030CE9
:10E4F00000000306000003070000870700008603F2
:10E500000000860100000000000000000000000084
:10E5100000000000000000000000000000000000FB
:10E5200000000000000000000000000000000000EB
:10E53000000000000010000000000080070000C084
:10E54000070000E00F0000780C0000380C00001CF1
:10E550000C00000C0C00000C060000060600000673
:10E5600003000086030000C60100FCFF0F00FCFF53
:10E570000F00FCFF0F000000000000000000000082
:10E58000000000000000000000000000000000008B
:10E59000000000000000000000000000000000007B
:10E5A0000000100000000000C0030000F0070000A1
:10E5B000F80F00007C0E00006C0C0000660C0000E0
:10E5C000660C0000330C0000330C0000330E00001A
:10E5D00033060000330600009E0300009E03000087
:10E5E0000C0100000000000000000000000000001E
:10E5F000000000000000000000000000000000001B
:10E600000000000000000000000000000000000DFD
:10E6100000040000000C0000000C0000000C0000D2
:10E62000C0FF0F00F0FF0F00F8FF0F001C060000F6
:10E630000C0600000C0600000C0600003807000065
:10E6400018070000000000000000000000000000AB
:10E6500000000000000000000000000000000000BA
:10E6600000000000000000000000000000000000AA
:10E670000000000000000000000000000F0000008B
:10E68000000080070000E00F0000F0CF010078CC10
:10E6900001001C8C03000C0C030006060300060797
:10E6A000030002030300C3830300F3C00100FFFF64
:10E6B0000100FFFF0000FF3F00000000000000001D
:10E6C000000000000000000000000000000000004A
:10E6D000000000000000000000000000000000003A
:10E6E0000000000000000000000F0000000000001B
:10E6F0000000FCFF0F00FCFF0F00FCFF0F00001CE0
:10E700000000000E000000060000000600000003EC
:10E710000000000300000003000000FF0F0000FFE6
:10E720000F0000FE0F0000000000000000000000CD
:10E7300000000000000000000000000000000000D9
:10E7400000000000000000000000000000000000C9
:10E750000000000000000500000000000000007044
:10E76000FF0F0078FF0F0038FF0F000000000000CF
:10E770000000000000000000000000000000000099
:10E780000000000000000000000000000000000089
:10E790000000000000000000000000000000000079
:10E7A0000000000000000000000000000000000069
:10E7B0000000000000000000000000000000000059
:10E7C00000000006000000060000000700FFFF0335
:10E7D00018FFFF033CFFFF011C00000000000000C9
:10E7E0000000000000000000000000000000000029
:10E7F0000000000000000000000000000000000019
:10E800000000000000000000000000000000000008
:10E8100000000000000000000000000000000000F8
:10E8200000000000000000000000000000000000E8
:10E830000E0000000000000000FCFF0F00FCFF0FB6
:10E8400000FCFF0F000070000000F8000000DC0179
:10E850000000DC0100008E030000070700800707AE
:10E860000080030E0000010C00000000000000000A
:10E870000000000000000000000000000000000098
:10E880000000000000000000000000000000000088
:10E890000000000000000000000000000005000073
:10E8A000000000000000FCFF0F00FCFF0F00FCFF59
:10E8B0000F00000000000000000000000000000049
:10E8C0000000000000000000000000000000000048
:10E8D0000000000000000000000000000000000038
:10E8E0000000000000000000000000000000000028
:10E8F0000000000000000000000000000000000018
:10E9000000000000000000000000180000000000EF
:10E9100000000000FF0F0000FF0F0000FF0F0000CD
:10E920001C0000000C0000000600000006000000B3
:10E930000200000003000000FF0F0000FF0F0000B6
:10E94000FE0F0000180000000C0000000C0000008A
:10E9500006000000020000000300000003000000A9
:10E96000FF0F0000FF0F0000FE0F0000000000007E
:10E97000000000000000000F000000000000000088
:10E9800000FF0F0000FF0F0000FF0F00001C000041
:10E99000000C0000000E0000000600000002000055
:10E9A000000300000003000000FF0F0000FF0F0045
:10E9B00000FE0F000000000000000000000000004A
:10E9C0000000000000000000000000000000000047
:10E9D0000000000000000000000000000000000037
:10E9E00000000000100000000000C0030000F0075D
:10E9F0000000F80700001C0E00000E0C0000060CC2
:10EA00000000060C0000030C0000030E00000306CB
:10EA100000000307000087030000FE010000FE0065
:10EA2000000078000000000000000000000000006E
:10EA300000000000000000000000000000000000D6
:10EA400000000000000000000000000000000000C6
:10EA50000011000000000000000000FFFF0F00FF99
:10EA6000FF0F00FFFF0F00380C00001C0C00000E11
:10EA70000C0000060C0000030E000003060000035B
:10EA800007000083030000C7030000FF010000FE31
:10EA90000000003C0000000000000000000000003A
:10EAA0000000000000000000000000000000000066
:10EAB0000000000000000000000000000000140042
:10EAC00000000000E0030000F0070000F80F000065
:10EAD0001C0E00000E0C0000060C0000070C0000CD
:10EAE000030600000307000083030000C3010000C9
:10EAF000F3000000FFFF0700FFFF0F00FEFF0F0005
:10EB000000000600000003000080030000800100F8
:10EB100000000000000000000000000000000000F5
:10EB200000000000000000000000000D00000000D8
:10EB30000000000000FF0F0000FF0F0000FF0F00AB
:10EB400000180000000C0000000600000002000099
:10EB500000030000001F0000001F0000000E000066
:10EB600000000000000000000000000000000000A5
:10EB70000000000000000000000000000000000095
:10EB80000000000000000000000000000000000085
:10EB90000000000000000000110000000000380626
:10EBA00000007C0700007C0600006E0C0000660C74
:10EBB0000000660C0000630C0000230C0000330C06
:10EBC0000000330600003306000033060000330364
:10EBD0000000F2030000E0010000E000000000007F
:10EBE0000000000000000000000000000000000025
:10EBF0000000000000000000000000000000000015
:10EC000000000000001100000000000600000006E7
:10EC100000000006000000070000E0FF0700E0FF22
:10EC20000F00E0FF0F0000030C0000030C000003C6
:10EC3000040000030600800107008001030000C1FA
:10EC4000030000C001000080000000000000000080
:10EC500000000000000000000000000000000000B4
:10EC600000000000000000000000000000000000A4
:10EC700000000F000000000000000000FF0700007F
:10EC8000FF070000FF0F0000000C0000000C000058
:10EC9000000C000000060000000600000007000055
:10ECA00080030000FF0F0000FF0F0000FF0F0000B7
:10ECB0000000000000000000000000000000000054
:10ECC0000000000000000000000000000000000044
:10ECD0000000000000000000000000000000000F25
:10ECE00000060000001F0000007F000000FE03007F
:10ECF00000E00F0000800F0000000F0000C00700C0
:10ED000000E0010000F00000003C0000001E0000D8
:10ED1000000F0000000700000003000000000000DA
:10ED200000000000000000000000000000000000E3
:10ED300000000000000000000000000000000000D3
:10ED400000000000000000000000000016000000AD
:10ED50000000070000001F000000FF000000F00797
:10ED60000000C00F0000000F0000C0070000E0011D
:10ED70000000F80000003F0000001F0000007F00BE
:10ED80000000F8010000E0070000800F0000800F85
:10ED90000000E0030000F00100007E0000001F0002
:10EDA000000007000000000000000000000000005C
:10EDB0000000000000000000000F00000000000242
:10EDC000060000070E00000F0700009C030000F87B
:10EDD000010000F8010000F0000000F0000000F861
:10EDE000010000DC0100008E03000007070000079F
:10EDF0000E0000000C0000000000000000000000F9
:10EE00000000000000000000000000000000000002
:10EE100000000000000000000000000000000000F2
:10EE2000000000000000100002E0000007E0010008
:10EE30001F8001003E80010078800100F0C00100C9
:10EE4000E0E1000080F70000007F0000001F0000EC
:10EE5000C00F0000F0030000FC0000003F000000B5
:10EE60000F00000003000000000000000000000090
:10EE70000000000000000000000000000000000092
:10EE80000000000000000000000000000000000082
:10EE90000000000F00000800000E0C00000E0E0025
:10EEA00000060F0000060F0000860F0000C60D00D0
:10EEB00000E60C0000760C00003E0C00003E0C004A
:10EEC000001E0C00000E0C0000070E0000030E00D8
:10EED0000000000000000000000000000000000032
:10EEE0000000000000000000000000000000000022
:10EEF0000000000000000000000000000000000012
:10EF00000D000000000060000000600000006000D4
:10EF10000000E0000000F0FF01E0FFFF01F81FFF2C
:10EF200003F80F00031C0000030C0000030C00009A
:10EF3000030C0000010000000000000000000000C1
:10EF400000000000000000000000000000000000C1
:10EF500000000000000000000000000000000000B1
:10EF6000000000000000000000000000000500009C
:10EF7000000000000000FFFFFF07FFFFFF07FFFF8B
:10EF8000FF0700000000000000000000000000007B
:10EF90000000000000000000000000000000000071
:10EFA0000000000000000000000000000000000061
:10EFB0000000000000000000000000000000000051
:10EFC0000000000000000000000000000000000041
:10EFD000000000000000000000000C080000030C0E
:10EFE0000000030C0000030C0080030C00FF01FC78
:10EFF0008FFF01F8FF7F00F0FF00000070000000AD
:10F0000060000000600000006000000000000000E0
:10F0100000000000000000000000000000000000F0
:10F0200000000000000000000000000000000000E0
:10F0300000000000000000000000000000000000D0
:10F04000000000000000000D000000000080000033
:10F0500000E0010000E0000000300000003000008F
:10F06000007000000060000000C0000000C0000050
:10F0700000E0000000780000003800000000000000
:10F080000000000000000000000000000000000080
:10F090000000000000000000000000000000000070
:10F0A0000000000000000000000000000000000060
:10F0B000000000000800000000FEFF1F00FEFF1F10
:10F0C00000020010000200100002001000FEFF1FEE
:10F0D00000FEFF1F00000000000000000000000014
:10F0E0000000000000000000000000000000000020
:10F0F0000000000000000000000000000000000010
:10F1000000000000000000000000000000000000FF
:10F1100000000000000000000000000000000000EF
:10F1200000060000000000000000000000000000D9
:10F1300000000000000000000200007E030000004C
:10F1400000000000000000000000000000000004BB
:10F1500000000F0000000F00000000000000000091
:10F1600000000000000008000040004803F8004EC6
:10F1700003F8004E0008000000000000000618021E
:10F180002402FF0F4402440284010000000000003A
:10F19000000000000B00001C00220022029C016005
:10F1A000001000CC0122022002C00108CC01320272
:10F1B0002202220252028C01E00100020000000043
:10F1C00000000200000F000000000000000000002E
:10F1D000000000000000000000050000F0010C0627
:10F1E0000208011000000000000000000000000004
:10F1F00004011002080C06F00100000000000000ED
:10F20000000000000000000600000A0004001F00CB
:10F2100004000A00000000000000000000000720B9
:10F220000020002000FC0120002000200000000041
:10F2300000000000000200080007000000000000BD
:10F24000000000000000000000000000042000207A
:10F25000002000200000000000000000000000006E
:10F260000000000200000003000000000000000099
:10F270000000000000000000000005000C8003609A
:10F28000001C00030000000000000000000000005F
:10F290000006FC010202020202020202FC0100005E
:10F2A000000000000000000006000004020402FE4E
:10F2B0000300020002000000000000000000000641
:10F2C000040382024202420222021C0200000000E9
:10F2D00000000000000006040102022202220222B5
:10F2E00002DC0100000000000000000000066000D9
:10F2F000500048004400FE034000000000000000F1
:10F3000000000000061E011202120212021202E2A6
:10F31000010000000000000000000006F8011402D7
:10F32000120212021202E0010000000000000000C0
:10F3300000000602000202820162001A00060000BC
:10F3400000000000000000000006DC012202220292
:10F3500022022202DC010000000000000000000088
:10F36000063C004202420242024201FC0000000050
:10F37000000000000000000300000000180300006F
:10F38000000000000000000000000000000003007A
:10F390000000081807000000000000000000000046
:10F3A0000000000000080000200020005000500075
:10F3B00088008800040100000000000008000090A0
:10F3C00000900090009000900090009000000000DD
:10F3D0000000000800000401880088005000500070
:10F3E000200020000000000000000504004203226D
:10F3F0000012000C000000000000000000000000EF
:10F40000000BF0000C030402F2040A050A050A05C9
:10F41000FA0504010C01F000070003E000980086E3
:10F42000009800E00000030000000000000000065B
:10F43000FE032202220222023C02C0010000000060
:10F4400000000000000007F80004010202020202AE
:10F450000202020401000000000000000007FE0399
:10F4600002020202020202020401F800000000008F
:10F470000000000006FE03220222022202220222D3
:10F48000020000000000000000000006FE03220051
:10F4900022002200220022000000000000000000E4
:10F4A000000007F80004010202020242024202C404
:10F4B00003000000000000000007FE032000200001
:10F4C000200020002000FE030000000000000000DB
:10F4D000030202FE03020200000000000000000020
:10F4E0000000000000000004000202020202FE010F
:10F4F000000000000000000000000000000006FE08
:10F5000003200050008800040102020000000000F7
:10F51000000000000005FE030002000200020002DD
:10F5200000000000000000000000000009FE0306CB
:10F5300000180060008001600018000600FE030053
:10F5400000000007FE03060018002000C0000003B2
:10F55000FE03000000000000000008F800040102A3
:10F56000020202020202020401F800000000000090
:10F570000006FE0322002200220022001C000000E0
:10F58000000000000000000008F800040102020270
:10F59000020206020A0409F8080000000000000741
:10F5A000FE03220022006200A2001C0100020000F3
:10F5B000000000000000071C012202220222022299
:10F5C000022202C401000000000000000007020047
:10F5D00002000200FE030200020002000000000020
:10F5E0000000000007FE000001000200020002000F
:10F5F00001FE000000000000000000070E003000C7
:10F60000C0000003C00030000E0000000000000039
:10F6100000000B1E00E0010002C0013800060038A7
:10F6200000C0010002E0011E000702020401D80030
:10F630002000D800040102020000000000000000C9
:10F640000702000C001000E00310000C0002000094
:10F6500000000000000000060203820262021202A3
:10F660000A02060200000000000000000000040082
:10F6700000FF0F010801080000000000000000006A
:10F6800000000000000503001C0060008003000C67
:10F690000000000000000000000000000400000165
:10F6A000080108FF0F00000000000000000000003B
:10F6B0000000000900001000080004000200020021
:10F6C0000400080010000000000007000800080007
:10F6D0000800080008000800080000000000000002
:10F6E0000005000000000000010002000000000012
:10F6F00000000000000000000680014802480248A7
:10F70000024801F0030000000000000000000006B5
:10F71000FF031002080208020802F00100000000C6
:10F7200000000000000005F00108020802080208BD
:10F730000200000000000000000000000006F001D0
:10F740000802080208020801FF0300000000000090
:10F750000000000006F0014802480248024802701A
:10F760000100000000000000000000050800FE038A
:10F770000900090001000000000000000000000076
:10F78000000006F0010812081208120811F80F0014
:10F7900000000000000000000006FF031000080049
:10F7A00008000800F0030000000000000000000056
:10F7B000020000FA0300000000000000000000004A
:10F7C000000000000000000300100810FA0F000005
:10F7D000000000000000000000000000000005FF25
:10F7E000034000A00010010802000000000000001B
:10F7F0000000000000020000FF0300000000000005
:10F800000000000000000000000000000A0000F8F6
:10F8100003100008000800F003100008000800F0C2
:10F8200003000006F8031000080008000800F003B9
:10F830000000000000000000000006F001080208BF
:10F840000208020802F001000000000000000000B1
:10F850000006F81F1002080208020802F00100006A
:10F86000000000000000000006F001080208020885
:10F87000020801F81F000000000000000000000462
:10F88000F80310000800080000000000000000005D
:10F8900000000000000005300148024802480290C4
:10F8A000010000000000000000000000000408004B
:10F8B000FE01080208020000000000000000000035
:10F8C0000000000006F8010002000200020001F83A
:10F8D0000300000000000000000000051800E00028
:10F8E0000003E0001800000000000000000000001D
:10F8F0000000091800E0000003E0001800E000002C
:10F9000003E000180000000000050802B0014000FC
:10F91000B00108020000000000000000000000002C
:10F92000051800E0180007E00018000000000000C3
:10F9300000000000000000050803880248022802B9
:10F940001802000000000000000000000000054058
:10F95000004000BE07010801080000000000000090
:10F9600000000000000300000000FF0F0000000086
:10F970000000000000000000000000000501080178
:10F9800008BE07400040000000000000000000002A
:10F99000000000080000600010001000200040007F
:10F9A0004000300000000000000003FF030102FFE0
:10F9B0000300000000000000000000000000000044
:10F9C000000500000000000500005F0000050007C2
:10F9D00000070005147F147F1405242A7F2A1205CE
:10F9E00023130864620536495620500508070300B2
:10F9F0000005001C224100050041221C00051408DE
:10FA00003E08140508083E08080500B0700000050F
:10FA100008080808080500606000000520100804B8
:10FA200002053E5149453E0500427F4000057249AE
:10FA3000494946052141494D33051814127F1005E7
:10FA40002745454539053C4A4949310541211109B8
:10FA50000705364949493605464949291E0500002A
:10FA60001400000500403400000508142241000580
:10FA70001414141414054122140800050201590934
:10FA800006053E415D594E057C1211127C057F49E9
:10FA9000494936053E41414122057F4141413E05EC
:10FAA0007F49494949057F09090909053E414151F5
:10FAB00073057F0808087F0500417F41000520404D
:10FAC000413F01057F08142241057F404040400529
:10FAD0007F020C027F057F0408107F053E414141F3
:10FAE0003E057F09090906053E4151215E057F0952
:10FAF0001929460526494949320501017F010105B9
:10FB00003F4040403F051F2040201F053F403840F8
:10FB10003F05631408146305030478040305615169
:10FB200049454305007F41410005020408102005B6
:10FB30000041417F000504020102040540404040AD
:10FB40004005070B000000052054547840057F282D
:10FB500044443805384444442805384444287F0543
:10FB600038545454180500087E09020518A4A49CB2
:10FB700078057F080404780500447D400005204096
:10FB8000403D00057F102844000500417F400005EE
:10FB90007C04780478057C080404780538444444DF
:10FBA0003805FC182424180518242418FC057C08A2
:10FBB0000404080548545454240504043F4424050F
:10FBC0003C4040207C051C2040201C053C4030402F
:10FBD0003C054428102844054C9090907C054464D2
:10FBE000544C44050008364100050000770000052C
:10FBF000004136080005040204080405007F417F27
:10FC0000004D616E75666163757265722049443A94
:10FC1000202578200D0A4465766963652049443AB9
:10FC2000202578200D0A4D656D6F72792043617033
:10FC300061636974793A202578200D0A0053617652
:10FC4000696E6720706172616D657465727320748E
:10FC50006F20666C6173682E20436F7079696E67E0
:10FC6000206461746120746F207461626C65200A85
:10FC70000D00577269746520746F20666C6173683B
:10FC80002C20706172616D657465722061646472AC
:10FC90006573733A20257520200A0D004D616E753D
:10FCA00066616374757265722049443A2025782034
:10FCB0000D0A4465766963652049443A2025782019
:10FCC0000D0A0063757272656E745F706172616DAA
:10FCD0005F61646472657373207461623A200D0A17
:10FCE00000434C454152204D45415355524D454EE0
:10FCF00054204D454D4F525921200A0D00434C458B
:10FD0000415220504152414D45544552204D454DA0
:10FD10004F525921200A0D00506172616D65746562
:10FD200072206164647220726561643A2575200DE9
:10FD30000A00433A253034752F253034752F25308D
:10FD400034752F2530347500626174745F70625FA2
:10FD50006379636C653A202575200D0A00566F6C37
:10FD60003A25752E253032752F25752E25303275A2
:10FD70005600433A253034752F253034752F253001
:10FD800034756D416800494E495420504152414DEF
:10FD900020444F4E4521200D0A004361703A253022
:10FDA00034752F253034756D416800436861726782
:10FDB0002F44697363682F53746F720057726974AC
:10FDC00065207461626C653A200A0D002530327539
:10FDD00068253032756D2530327573005265616467
:10FDE000207461626C653A200A0D00434849502036
:10FDF000455241534521200D0A004359433A2530CD
:10FE000032642F25303264004F4E2F4F46463A2041
:10FE10002558200A0D0052455345543A20255820B4
:10FE20000A0D00693A2564206A3A25640D0A0043E8
:10FE3000656C6C20566F6C74613A004D696E446954
:10FE40007363566F6C3A00547269636B6C65566FDE
:10FE50006C3A00547269636B6C654375723A004387
:10FE6000656C6C20436F756E743A004375723A2569
:10FE7000752F25756D41004361703A253034756DDD
:10FE800041680043686172672F4469736368004387
:10FE900079636C653A25752F257500425553593A9B
:10FEA000202558200A0D0044697363437572203180
:10FEB0003A004368726743757220313A00446973AF
:10FEC0006343757220323A0043687267437572204B
:10FED000323A004469736343757220333A004368D1
:10FEE000726743757220333A0044697363437572D5
:10FEF00020343A004368726743757220343A0042F6
:10FF000061747420747970653A0054656D703A2597
:10FF100030327543002530327568253032756D00FA
:10FF2000534156452645584954004F7074696F6EC9
:10FF3000732031004F7074696F6E732032004F7000
:10FF400074696F6E732033004F7074696F6E732025
:10FF500034004F7074696F6E732035004D617820E6
:10FF600054696D653A0025643A202564200D0A0025
:10FF70004241543A25303264004368617267696EC9
:10FF80006700616C697665200D0A004379636C65D2
:10FF90003A004C692D496F6E00535441525400424F
:10FFA00041542031004D6F64653A0054656D703ADC
:10FFB000004E692D4D48002578207C2000424143A9
:10FFC0004B004E455854004D454E5500257525258E
:10FFD00000444953430049444C45004348524700BC
:10FFE000544553540025754300504200575D002E80
:0FFFF00020003120002564004E00500052000018
:020000040001F9
:10000000D1ECAEF0020E3BECD8F00009D8A40BEF17
:1000100080F00DEF80F018EF80F0030E3BECD8F08D
:100020000009D8B416EF80F018EF80F07BEF85F070
:1000300000019005D8A41FEF80F021EF80F035EF8C
:1000400081F0020E3BECD8F00009D8B42AEF80F022
:100050002CEF80F030EF80F00001F6073DEF80F0EC
:10006000030E3BECD8F00009D8B439EF80F03BEF39
:1000700080F03DEF80F00001F62B0001F651D8A48E
:1000800044EF80F046EF80F04AEF80F0050EF66F07
:1000900054EF80F0050EF66550EF80F052EF80F0DF
:1000A00054EF80F0010EF66FF605D8A45AEF80F0F9
:1000B0005CEF80F083EF80F0030ECEECB5F0DFC094
:1000C00038F0E0C039F0010E3A6ECDECC4F0DFC07C
:1000D000D4F0E0C0D5F0000E0001D66F0FECC7F0F1
:1000E000DFC038F0E0C039F0000E3A6E69ECC5F0C0
:1000F000DFC0D4F0E0C0D5F0000E0001D66F8AEC6E
:10010000C6F077EF85F0020EF619D8A48AEF80F0DA
:100110008CEF80F0A2EF80F0030ECEECB5F0DFC0E4
:1001200038F0E0C039F0000E3A6ECDECC4F0DFC01C
:10013000D4F0E0C0D5F0010E0001D66F0FECC7F08F
:1001400070EF80F0030EF619D8A4A9EF80F0ABEFA2
:1001500080F0D2EF80F0030ECEECB5F0DFC038F0C7
:10016000E0C039F0000E3A6ECDECC4F0DFC0D4F040
:10017000E0C0D5F0000E0001D66F0FECC7F0DFC075
:1001800038F0E0C039F0010E3A6E69ECC5F0DFC01E
:10019000D4F0E0C0D5F0000E0001D66F8AECC6F0B6
:1001A00077EF85F0040EF619D8A4D9EF80F0DBEFD5
:1001B00080F002EF81F0030ECEECB5F0DFC038F036
:1001C000E0C039F0000E3A6ECDECC4F0DFC0D4F0E0
:1001D000E0C0D5F0000E0001D66F0FECC7F0DFC015
:1001E00038F0E0C039F0000E3A6E69ECC5F0DFC0BF
:1001F000D4F0E0C0D5F0010E0001D66F8AECC6F055
:1002000077EF85F0050EF619D8A409EF81F00BEF12
:1002100081F033EF81F0DFC038F0E0C039F0000E3C
:100220003A6ECDECC4F0DFC0D4F0E0C0D5F0000EE3
:100230000001D66F0FECC7F000018F51CEECB5F086
:10024000DFC038F0E0C039F0000E3A6E69ECC5F05E
:10025000DFC0D4F0E0C0D5F0000E0001D66F8AEC0C
:10026000C6F077EF85F077EF85F0020E9019D8A4ED
:100270003CEF81F03EEF81F066EF82F0020E3BEC46
:10028000D8F00009D8B447EF81F049EF81F04DEF85
:1002900081F00001F6075AEF81F0030E3BECD8F035
:1002A0000009D8B456EF81F058EF81F05AEF81F091
:1002B0000001F62B0001F651D8A461EF81F063EF45
:1002C00081F067EF81F0050EF66F71EF81F0050E9A
:1002D000F6656DEF81F06FEF81F071EF81F0010E47
:1002E000F66FF605D8A477EF81F079EF81F0A1EFF2
:1002F00081F0DFC0D4F0E0C0D5F0010ED66F87ECFE
:10030000C3F0DFC0D4F0E0C0D5F0000E0001D66F1E
:100310002AECC4F0DFC0D4F0E0C0D5F0000E00013C
:10032000D66F9CECC8F0DFC0D4F0E0C0D5F0000E72
:100330000001D66FE4ECC2F0030E56ECAAF077EFA2
:1003400085F0020EF619D8A4A8EF81F0AAEF81F08B
:10035000D2EF81F0DFC0D4F0E0C0D5F0000ED66F50
:1003600087ECC3F0DFC0D4F0E0C0D5F0010E00018F
:10037000D66F2AECC4F0DFC0D4F0E0C0D5F0000E98
:100380000001D66F9CECC8F0DFC0D4F0E0C0D5F01F
:10039000000E0001D66FE4ECC2F0030E56ECAAF09A
:1003A00077EF85F0030EF619D8A4D9EF81F0DBEFD3
:1003B00081F003EF82F0DFC0D4F0E0C0D5F0000E92
:1003C000D66F87ECC3F0DFC0D4F0E0C0D5F0000EEC
:1003D0000001D66F2AECC4F0DFC0D4F0E0C0D5F045
:1003E000000E0001D66F9CECC8F0DFC0D4F0E0C076
:1003F000D5F0010E0001D66FE4ECC2F0030E56EC0E
:10040000AAF077EF85F0040EF619D8A40AEF82F06F
:100410000CEF82F034EF82F0DFC0D4F0E0C0D5F012
:10042000000ED66F87ECC3F0DFC0D4F0E0C0D5F08B
:10043000000E0001D66F2AECC4F0DFC0D4F0E0C09B
:10044000D5F0010E0001D66F9CECC8F0DFC0D4F0EF
:10045000E0C0D5F0000E0001D66FE4ECC2F0030E50
:1004600056ECAAF077EF85F0050EF619D8A43BEF0D
:1004700082F03DEF82F033EF81F0DFC0D4F0E0C0D6
:10048000D5F0000ED66F87ECC3F0DFC0D4F0E0C02B
:10049000D5F0000E0001D66F2AECC4F0DFC0D4F016
:1004A000E0C0D5F0000E0001D66F9CECC8F0DFC0B4
:1004B000D4F0E0C0D5F0000E0001D66FE4ECC2F03D
:1004C00000018F5156ECAAF077EF85F0030E9019DA
:1004D000D8A46DEF82F06FEF82F017EF83F0020E79
:1004E0003BECD8F00009D8B478EF82F07AEF82F0D4
:1004F0007EEF82F00001F6078BEF82F0030E3BECFB
:10050000D8F00009D8B487EF82F089EF82F08BEF42
:1005100082F00001F62B030E0001F619D8A493EF28
:1005200082F095EF82F099EF82F0050EF66FA4EF5E
:1005300082F0040EF619D8A4A0EF82F0A2EF82F0A8
:10054000A4EF82F0020EF66FF651D8A4AAEF82F063
:10055000ACEF82F0B0EF82F0050EF66FBAEF82F0EA
:10056000050EF665B6EF82F0B8EF82F0BAEF82F0D2
:10057000010EF66FF605D8A4C0EF82F0C2EF82F04C
:10058000D8EF82F0DFC0D4F0E0C0D5F0010ED66F16
:1005900041ECC2F0DFC0D4F0E0C0D5F0000E0001A5
:1005A000D66F05ECC6F0030E56ECAAF077EF85F097
:1005B000020EF619D8A4DFEF82F0E1EF82F0F7EF38
:1005C00082F0DFC0D4F0E0C0D5F0000ED66F41EC71
:1005D000C2F0DFC0D4F0E0C0D5F0010E0001D66F4C
:1005E00005ECC6F0030E56ECAAF077EF85F0050E89
:1005F000F619D8A4FEEF82F000EF83F033EF81F01C
:10060000DFC0D4F0E0C0D5F0000ED66F41ECC2F0F0
:10061000DFC0D4F0E0C0D5F0000E0001D66F05ECCD
:10062000C6F000018F5156ECAAF077EF85F0040E6A
:100630009019D8A41EEF83F020EF83F048EF84F0E8
:10064000020E3BECD8F00009D8B429EF83F02BEF71
:1006500083F02FEF83F00001F6073CEF83F0030EE9
:100660003BECD8F00009D8B438EF83F03AEF83F0D0
:100670003CEF83F00001F62B0001F651D8A443EFC4
:1006800083F045EF83F049EF83F0050EF66F53EFEB
:1006900083F0050EF6654FEF83F051EF83F053EFD3
:1006A00083F0010EF66FF605D8A459EF83F05BEFE7
:1006B00083F083EF83F0DFC0D4F0E0C0D5F0010E0B
:1006C000D66F18ECC8F0DFC0D4F0E0C0D5F0000E53
:1006D0000001D66F94ECC7F0DFC0D4F0E0C0D5F0D5
:1006E000000E0001D66F9CECBFF0DFC0D4F0E0C07C
:1006F000D5F0000E0001D66F98ECC1F0030E56EC59
:10070000AAF077EF85F0020EF619D8A48AEF83F0ED
:100710008CEF83F0B4EF83F0DFC0D4F0E0C0D5F00D
:10072000000ED66F18ECC8F0DFC0D4F0E0C0D5F0F2
:10073000010E0001D66F94ECC7F0DFC0D4F0E0C02A
:10074000D5F0000E0001D66F9CECBFF0DFC0D4F0F6
:10075000E0C0D5F0000E0001D66F98ECC1F0030E9A
:1007600056ECAAF077EF85F0030EF619D8A4BBEF8C
:1007700083F0BDEF83F0E5EF83F0DFC0D4F0E0C09D
:10078000D5F0000ED66F18ECC8F0DFC0D4F0E0C092
:10079000D5F0000E0001D66F94ECC7F0DFC0D4F0A6
:1007A000E0C0D5F0010E0001D66F9CECBFF0DFC0B9
:1007B000D4F0E0C0D5F0000E0001D66F98ECC1F087
:1007C000030E56ECAAF077EF85F0040EF619D8A4C4
:1007D000ECEF83F0EEEF83F016EF84F0DFC0D4F09F
:1007E000E0C0D5F0000ED66F18ECC8F0DFC0D4F032
:1007F000E0C0D5F0000E0001D66F94ECC7F0DFC06A
:10080000D4F0E0C0D5F0000E0001D66F9CECBFF034
:10081000DFC0D4F0E0C0D5F0010E0001D66F98EC37
:10082000C1F0030E56ECAAF077EF85F0050EF6192D
:10083000D8A41DEF84F01FEF84F033EF81F0DFC008
:10084000D4F0E0C0D5F0000ED66F18ECC8F0DFC0D1
:10085000D4F0E0C0D5F0000E0001D66F94ECC7F0E4
:10086000DFC0D4F0E0C0D5F0000E0001D66F9CECE4
:10087000BFF0DFC0D4F0E0C0D5F0000E0001D66FAD
:1008800098ECC1F000018F5156ECAAF077EF85F09B
:10089000050E9019D8A44FEF84F051EF84F077EF54
:1008A00085F0020E3BECD8F00009D8B45AEF84F082
:1008B0005CEF84F060EF84F00001F6076DEF84F0E8
:1008C000030E3BECD8F00009D8B469EF84F06BEF6D
:1008D00084F06DEF84F00001F62B0001F651D8A4EE
:1008E00074EF84F076EF84F07AEF84F0050EF66F03
:1008F00084EF84F0050EF66580EF84F082EF84F0DB
:1009000084EF84F0010EF66FF605D8A48AEF84F028
:100910008CEF84F0B4EF84F0DFC0D4F0E0C0D5F009
:10092000010ED66FF2ECBEF0DFC0D4F0E0C0D5F01F
:10093000000E0001D66FEFECC0F0DFC0D4F0E0C0D5
:10094000D5F0000E0001D66F48ECBEF0DFC0D4F049
:10095000E0C0D5F0000E0001D66F46ECC0F0030EEB
:10096000AAECB4F077EF85F0020EF619D8A4BBEF2D
:1009700084F0BDEF84F0E5EF84F0DFC0D4F0E0C098
:10098000D5F0000ED66FF2ECBEF0DFC0D4F0E0C0C0
:10099000D5F0010E0001D66FEFECC0F0DFC0D4F04F
:1009A000E0C0D5F0000E0001D66F48ECBEF0DFC00D
:1009B000D4F0E0C0D5F0000E0001D66F46ECC0F0D8
:1009C000030EAAECB4F077EF85F0030EF619D8A465
:1009D000ECEF84F0EEEF84F016EF85F0DFC0D4F09A
:1009E000E0C0D5F0000ED66FF2ECBEF0DFC0D4F060
:1009F000E0C0D5F0000E0001D66FEFECC0F0DFC014
:100A0000D4F0E0C0D5F0010E0001D66F48ECBEF086
:100A1000DFC0D4F0E0C0D5F0000E0001D66F46EC88
:100A2000C0F0030EAAECB4F077EF85F0040EF619CF
:100A3000D8A41DEF85F01FEF85F047EF85F0DFC0EC
:100A4000D4F0E0C0D5F0000ED66FF2ECBEF0DFC0FF
:100A5000D4F0E0C0D5F0000E0001D66FEFECC0F08E
:100A6000DFC0D4F0E0C0D5F0000E0001D66F48EC36
:100A7000BEF0DFC0D4F0E0C0D5F0010E0001D66FAB
:100A800046ECC0F0030EAAECB4F077EF85F0050E4B
:100A9000F619D8A44EEF85F050EF85F033EF81F0D2
:100AA000DFC0D4F0E0C0D5F0000ED66FF2ECBEF09F
:100AB000DFC0D4F0E0C0D5F0000E0001D66FEFEC3F
:100AC000C0F0DFC0D4F0E0C0D5F0000E0001D66F5A
:100AD00048ECBEF0DFC0D4F0E0C0D5F0000E00015D
:100AE000D66F46ECC0F000018F51AAECB4F0D6EC02
:100AF000D4F00CECD6F0000E3BECD8F00009D8A4F2
:100B000084EF85F086EF85F09AEF85F0010E3BECDF
:100B1000D8F00009D8A48FEF85F091EF85F09AEF17
:100B200085F000018E51D8A498EF85F09AEF85F0FA
:100B3000D9EF98F0010E00018E6F9051D8A4A3EF69
:100B400085F0A5EF85F0CDEF85F0F705D8A4ABEFE4
:100B500085F0ADEF85F0B8EF85F0F75179ECBBF09B
:100B6000000E0001F76F010E00018F6FD5EF98F0B6
:100B7000F751D8A4BEEF85F0C0EF85F0D5EF98F01F
:100B8000F75179ECBBF0010E0001F76F000E000188
:100B90008F6FD5EF98F0D5EF98F09005D8A4D3EFEC
:100BA00085F0D5EF85F08DEF88F0050EF619D8A405
:100BB000DCEF85F0DEEF85F002EF86F0020EF7192C
:100BC000D8A4E5EF85F0E7EF85F0F2EF85F0F75177
:100BD000CEECB5F0000E0001F76F020E00018F6F32
:100BE000D5EF98F0F751D8A4F8EF85F0FAEF85F03B
:100BF000CBEF85F0F751CEECB5F0020E0001F76FA8
:100C0000C6EF85F0F605D8A408EF86F00AEF86F067
:100C1000CFEF86F018EF86F0010E8C6F37EF86F07D
:100C2000020E8C6F37EF86F0030E8C6F37EF86F075
:100C300020EE0DF0DF51D926E051DA22DF50E16FCE
:100C4000E26BE251000AD8B428EF86F037EF86F065
:100C5000E151000AD8B40CEF86F0010AD8B410EFC5
:100C600086F0030AD8B414EF86F037EF86F0010E51
:100C70003BECD8F00009D8B440EF86F042EF86F0A4
:100C800046EF86F000018C2B53EF86F0000E3BEC14
:100C9000D8F00009D8B44FEF86F051EF86F053EF4B
:100CA00086F000018C0700018C51D8A45AEF86F021
:100CB0005CEF86F060EF86F0030E8C6F8AEF86F0B3
:100CC000030E8C6566EF86F068EF86F08AEF86F09B
:100CD000010E8C6F8AEF86F020EE0DF0DF51D926E1
:100CE000E051DA22000EDF6EA3EF86F020EE0DF069
:100CF000DF51D926E051DA22010EDF6EA3EF86F034
:100D000020EE0DF0DF51D926E051DA22020EDF6E1F
:100D1000A3EF86F08C51E16FE26BE251000AD8B488
:100D200094EF86F0A3EF86F0E151010AD8B46CEF9E
:100D300086F0030AD8B476EF86F0010AD8B480EFC3
:100D400086F0A3EF86F0DFC001F0E0C002F0000EF5
:100D5000036E4FECA2F0DFC038F0E0C039F0010EB6
:100D60003A6ECDECC4F0DFC0D4F0E0C0D5F0000E98
:100D70000001D66F0FECC7F0DFC038F0E0C039F0EB
:100D8000000E3A6E69ECC5F0DFC0D4F0E0C0D5F0DB
:100D9000000E0001D66F8AECC6F0D5EF98F0020E77
:100DA000F619D8A4D6EF86F0D8EF86F077EF87F063
:100DB000010E3BECD8F00009D8B4E1EF86F0E3EF88
:100DC00086F0EDEF86F0000120EE10F0DF51D9261D
:100DD000E051DA22DF2A00EF87F0000E3BECD8F07A
:100DE0000009D8B4F6EF86F0F8EF86F000EF87F050
:100DF000000120EE10F0DF51D926E051DA22DF06A3
:100E0000000120EE0DF0DF51D926E051DA22DE0498
:100E1000D8A40DEF87F00FEF87F03FEF87F020EEBB
:100E200010F0DF51D926E051DA22DF50D8A41BEFB1
:100E300087F01DEF87F027EF87F020EE10F0DF51ED
:100E4000D926E051DA22010EDF6E6DEF87F020EE39
:100E500010F0DF51D926E051DA22010EDF6433EFC2
:100E600087F035EF87F06DEF87F020EE10F0DF515F
:100E7000D926E051DA22010EDF6E6DEF87F020EE09
:100E800010F0DF51D926E051DA22DF50D8A44BEF21
:100E900087F04DEF87F057EF87F020EE10F0DF512D
:100EA000D926E051DA22050EDF6E6DEF87F020EED5
:100EB00010F0DF51D926E051DA22050EDF6463EF2E
:100EC00087F065EF87F06DEF87F020EE10F0DF51CF
:100ED000D926E051DA22010EDF6EDFC0D4F0E0C087
:100EE000D5F0010ED66F0FECC7F0D5EF98F0030EDA
:100EF000F619D8A47EEF87F080EF87F023EF88F013
:100F00008EEF87F0010E8C6FADEF87F0020E8C6FC5
:100F1000ADEF87F0030E8C6FADEF87F020EE0FF092
:100F2000DF51D926E051DA22DF50E16FE26BE25166
:100F3000000AD8B49EEF87F0ADEF87F0E151000AC8
:100F4000D8B482EF87F0010AD8B486EF87F0030A9D
:100F5000D8B48AEF87F0ADEF87F0010E3BECD8F004
:100F60000009D8B4B6EF87F0B8EF87F0BCEF87F090
:100F700000018C2BC9EF87F0000E3BECD8F0000984
:100F8000D8B4C5EF87F0C7EF87F0C9EF87F000014D
:100F90008C0700018C51D8A4D0EF87F0D2EF87F0F6
:100FA000D6EF87F0030E8C6F00EF88F0030E8C6590
:100FB000DCEF87F0DEEF87F000EF88F0010E8C6F3A
:100FC00000EF88F020EE0FF0DF51D926E051DA2251
:100FD000000EDF6E19EF88F020EE0FF0DF51D926FA
:100FE000E051DA22010EDF6E19EF88F020EE0FF0EB
:100FF000DF51D926E051DA22020EDF6E19EF88F0B8
:101000008C51E16FE26BE251000AD8B40AEF88F02C
:1010100019EF88F0E151010AD8B4E2EF87F0030A32
:10102000D8B4ECEF87F0010AD8B4F6EF87F019EFE7
:1010300088F0DFC038F0E0C039F0010E3A6E69EC9C
:10104000C5F0D5EF98F0040EF619D8A42AEF88F071
:101050002CEF88F0CBEF85F0010E3BECD8F00009C7
:10106000D8B435EF88F037EF88F041EF88F0000111
:1010700020EE08F0DF51D926E051DA22DF2A54EFC2
:1010800088F0000E3BECD8F00009D8B44AEF88F0A5
:101090004CEF88F054EF88F0000120EE08F0DF51AB
:1010A000D926E051DA22DF06000120EE08F0DF51F8
:1010B000D926E051DA22DF50D8A461EF88F063EF3F
:1010C00088F06DEF88F020EE08F0DF51D926E0516E
:1010D000DA22040EDF6E83EF88F020EE08F0DF5195
:1010E000D926E051DA22040EDF6479EF88F07BEF35
:1010F00088F083EF88F020EE08F0DF51D926E05128
:10110000DA22010EDF6EDFC0D4F0E0C0D5F0010EB0
:10111000D66F8AECC6F0D5EF98F0020E9019D8A4DD
:1011200094EF88F096EF88F094EF8BF0050EF619A7
:10113000D8A49DEF88F09FEF88F030EF89F0000E83
:101140003BECD8F00009D8B4A8EF88F0AAEF88F0FB
:10115000AEEF88F000018D07BBEF88F0010E3BEC8D
:10116000D8F00009D8B4B7EF88F0B9EF88F0BBEF3A
:1011700088F000018D2B00018D51D8A4C2EF88F0BA
:10118000C4EF88F0C8EF88F0030E8D6FEFEF88F0A2
:10119000040E8D19D8A4CFEF88F0D1EF88F0D5EFE9
:1011A00088F0010E8D6FEFEF88F0040E8D65DBEF98
:1011B00088F0DDEF88F0E1EF88F0020E8D6FEFEF41
:1011C00088F0EFEF88F0010EF76F08EF89F0000E5E
:1011D000F76F08EF89F0020EF76F08EF89F08D5175
:1011E000E16FE26BE251000AD8B4F9EF88F008EF42
:1011F00089F0E151010AD8B4E3EF88F0030AD8B4CA
:10120000E7EF88F0010AD8B4EBEF88F008EF89F037
:10121000F705D8A40EEF89F010EF89F015EF89F0EB
:10122000F75156ECAAF0B3EF85F0F751D8A41BEFB5
:1012300089F01DEF89F022EF89F0F75156ECAAF002
:10124000C6EF85F0020EF719D8A429EF89F02BEF2D
:1012500089F0CBEF85F0F75156ECAAF0EDEF85F071
:10126000F605D8A436EF89F038EF89F0C7EF89F09A
:10127000010E3BECD8F00009D8B441EF89F043EF00
:1012800089F05EEF89F0000120EE18F0DF51D926D9
:10129000E051DA22DECFE1F0DDCFE2F0050EE1270A
:1012A000000EE22320EE18F0DF51D926E051DA22B9
:1012B000E1C0DEFFE2C0DDFF84EF89F0000E3BEC11
:1012C000D8F00009D8B467EF89F069EF89F084EFAE
:1012D00089F0000120EE18F0DF51D926E051DA2222
:1012E000DECFE1F0DDCFE2F0FB0EE125E36FFF0E94
:1012F000E221E46F20EE18F0DF51D926E051DA2226
:10130000E3C0DEFFE4C0DDFF000120EE18F0DF5196
:10131000D926E051DA22990EDE5C010EDE58D8B0F3
:1013200094EF89F096EF89F0A2EF89F020EE18F0A3
:10133000DF51D926E051DA22AE0EDE6E010EDD6EEF
:10134000BDEF89F020EE18F0DF51D926E051DA2206
:10135000B00EDE5C010EDE58D8A0B1EF89F0B3EF1D
:1013600089F0BDEF89F020EE18F0DF51D926E05169
:10137000DA229A0EDE6E010EDD6EDFC0D4F0E0C020
:10138000D5F0010ED66F87ECC3F0D5EF98F0020EC2
:10139000F619D8A4CEEF89F0D0EF89F060EF8AF08B
:1013A000010E3BECD8F00009D8B4D9EF89F0DBEF9F
:1013B00089F0F6EF89F0000120EE24F0DF51D92604
:1013C000E051DA22DECFE1F0DDCFE2F0050EE127D9
:1013D000000EE22320EE24F0DF51D926E051DA227C
:1013E000E1C0DEFFE2C0DDFF1CEF8AF0000E3BEC47
:1013F000D8F00009D8B4FFEF89F001EF8AF01CEFB4
:101400008AF0000120EE24F0DF51D926E051DA22E3
:10141000DECFE1F0DDCFE2F0FB0EE125E36FFF0E62
:10142000E221E46F20EE24F0DF51D926E051DA22E8
:10143000E3C0DEFFE4C0DDFF000120EE24F0DF5159
:10144000D926E051DA22010EDB5007E1F90EDE5C0D
:10145000D8B02DEF8AF02FEF8AF03BEF8AF020EE24
:1014600024F0DF51D926E051DA22400EDE6E010E63
:10147000DD6E56EF8AF020EE24F0DF51D926E051E0
:10148000DA22420EDE5C010EDE58D8A04AEF8AF066
:101490004CEF8AF056EF8AF020EE24F0DF51D92687
:1014A000E051DA22FA0EDE6E000EDD6EDFC0D4F0FF
:1014B000E0C0D5F0010ED66F2AECC4F0D5EF98F05D
:1014C000030EF619D8A467EF8AF069EF8AF0FAEFF5
:1014D0008AF0010E3BECD8F00009D8B472EF8AF024
:1014E00074EF8AF08FEF8AF0000120EE20F0DF51D8
:1014F000D926E051DA22DECFE1F0DDCFE2F0050EB1
:10150000E127000EE22320EE20F0DF51D926E05142
:10151000DA22E1C0DEFFE2C0DDFFB5EF8AF0000EA7
:101520003BECD8F00009D8B498EF8AF09AEF8AF033
:10153000B5EF8AF0000120EE20F0DF51D926E0510E
:10154000DA22DECFE1F0DDCFE2F0FB0EE125E36F42
:10155000FF0EE221E46F20EE20F0DF51D926E051AA
:10156000DA22E3C0DEFFE4C0DDFF000120EE20F060
:10157000DF51D926E051DA22010EDB5007E1B30E2C
:10158000DE5CD8B0C6EF8AF0C8EF8AF0D4EF8AF0FC
:1015900020EE20F0DF51D926E051DA22FA0EDE6E7D
:1015A000000EDD6EF0EF8AF020EE20F0DF51D9263C
:1015B000E051DA22010EDB5009E1FC0EDE5CD8A01E
:1015C000E4EF8AF0E6EF8AF0F0EF8AF020EE20F008
:1015D000DF51D926E051DA22B40EDE6E000EDD6E48
:1015E000DFC0D4F0E0C0D5F0010ED66FE4ECC2F05D
:1015F000D5EF98F0040EF619D8A401EF8BF003EFA5
:101600008BF0CBEF85F0010E3BECD8F00009D8B49D
:101610000CEF8BF00EEF8BF029EF8BF0000120EE3A
:1016200022F0DF51D926E051DA22DECFE1F0DDCF22
:10163000E2F0050EE127000EE22320EE22F0DF515A
:10164000D926E051DA22E1C0DEFFE2C0DDFF4FEF34
:101650008BF0000E3BECD8F00009D8B432EF8BF0E1
:1016600034EF8BF04FEF8BF0000120EE22F0DF51D2
:10167000D926E051DA22DECFE1F0DDCFE2F0FB0E39
:10168000E125E36FFF0EE221E46F20EE22F0DF514F
:10169000D926E051DA22E3C0DEFFE4C0DDFF00011D
:1016A00020EE22F0DF51D926E051DA22010EDB5084
:1016B00007E1040EDE5CD8B060EF8BF062EF8BF0D8
:1016C0006EEF8BF020EE22F0DF51D926E051DA22C6
:1016D000320EDE6E000EDD6E8AEF8BF020EE22F011
:1016E000DF51D926E051DA22010EDB5009E1340E38
:1016F000DE5CD8A07EEF8BF080EF8BF08AEF8BF072
:1017000020EE22F0DF51D926E051DA22050EDE6EFE
:10171000000EDD6EDFC0D4F0E0C0D5F0010ED66F54
:101720009CECC8F0D5EF98F0030E9019D8A49BEF6D
:101730008BF09DEF8BF049EF8DF0050EF619D8A4D4
:10174000A4EF8BF0A6EF8BF037EF8CF0000E3BECA4
:10175000D8F00009D8B4AFEF8BF0B1EF8BF0B5EF54
:101760008BF000018D07C2EF8BF0010E3BECD8F03F
:101770000009D8B4BEEF8BF0C0EF8BF0C2EF8BF056
:1017800000018D2B00018D51D8A4C9EF8BF0CBEF58
:101790008BF0CFEF8BF0030E8D6FF6EF8BF0040E16
:1017A0008D19D8A4D6EF8BF0D8EF8BF0DCEF8BF04F
:1017B000010E8D6FF6EF8BF0040E8D65E2EF8BF06E
:1017C000E4EF8BF0E8EF8BF0020E8D6FF6EF8BF00D
:1017D000F6EF8BF0010EF76F0FEF8CF0000EF76F46
:1017E0000FEF8CF0020EF76F0FEF8CF08D51E16F61
:1017F000E26BE251000AD8B400EF8CF00FEF8CF0EE
:10180000E151010AD8B4EAEF8BF0030AD8B4EEEF45
:101810008BF0010AD8B4F2EF8BF00FEF8CF0F705E4
:10182000D8A415EF8CF017EF8CF01CEF8CF0F7516B
:1018300056ECAAF0B3EF85F0F751D8A422EF8CF064
:1018400024EF8CF029EF8CF0F75156ECAAF0C6EF9C
:1018500085F0020EF719D8A430EF8CF032EF8CF03F
:10186000CBEF85F0F75156ECAAF0EDEF85F0F605D9
:10187000D8A43DEF8CF03FEF8CF0CFEF8CF0010E51
:101880003BECD8F00009D8B448EF8CF04AEF8CF06C
:1018900065EF8CF0000120EE44F0DF51D926E051D5
:1018A000DA22DECFE1F0DDCFE2F01E0EE127000EFE
:1018B000E22320EE44F0DF51D926E051DA22E1C0E4
:1018C000DEFFE2C0DDFF8BEF8CF0000E3BECD8F0CA
:1018D0000009D8B46EEF8CF070EF8CF08BEF8CF0C9
:1018E000000120EE44F0DF51D926E051DA22DECFAC
:1018F000E1F0DDCFE2F0E20EE125E36FFF0EE22141
:10190000E46F20EE44F0DF51D926E051DA22E3C043
:10191000DEFFE4C0DDFF000120EE44F0DF51D926F8
:10192000E051DA22010EDB5007E13C0EDE5CD8B05C
:101930009CEF8CF09EEF8CF0AAEF8CF020EE44F040
:10194000DF51D926E051DA22400EDE6E0B0EDD6E3D
:10195000C5EF8CF020EE44F0DF51D926E051DA22B9
:10196000410EDE5C0B0EDE58D8A0B9EF8CF0BBEF59
:101970008CF0C5EF8CF020EE44F0DF51D926E05119
:10198000DA223C0EDE6E000EDD6EDFC0D4F0E0C069
:10199000D5F0010ED66F41ECC2F0D5EF98F0020EF3
:1019A000F619D8A4D6EF8CF0D8EF8CF0CBEF85F0F9
:1019B000010E3BECD8F00009D8B4E1EF8CF0E3EF76
:1019C0008CF0F5EF8CF0000120EE0BF0DF51D92602
:1019D000E051DA2210EE0BF0DF51E126E051E22275
:1019E000E750050FDF6E10EF8DF0000E3BECD8F0E6
:1019F0000009D8B4FEEF8CF000EF8DF010EF8DF001
:101A0000000120EE0BF0DF51D926E051DA2210EE72
:101A10000BF0DF51E126E051E222E750FB0FDF6ED1
:101A2000000120EE0BF0DF51D926E051DA22040E3E
:101A3000DF601DEF8DF01FEF8DF029EF8DF020EEB0
:101A40000BF0DF51D926E051DA222D0EDF6E3FEF89
:101A50008DF020EE0BF0DF51D926E051DA222E0E68
:101A6000DF6435EF8DF037EF8DF03FEF8DF020EE36
:101A70000BF0DF51D926E051DA22050EDF6EDFC010
:101A8000D4F0E0C0D5F0010ED66F05ECC6F0D5EF6E
:101A900098F0040E9019D8A450EF8DF052EF8DF00D
:101AA000A8EF92F0050EF619D8A459EF8DF05BEF70
:101AB0008DF0F5EF8DF0000E3BECD8F00009D8B4B6
:101AC00064EF8DF066EF8DF06AEF8DF000018D0709
:101AD00077EF8DF0010E3BECD8F00009D8B473EF2E
:101AE0008DF075EF8DF077EF8DF000018D2B0001FB
:101AF0008D51D8A47EEF8DF080EF8DF084EF8DF0C6
:101B0000030E8D6FABEF8DF0040E8D19D8A48BEF03
:101B10008DF08DEF8DF091EF8DF0010E8D6FABEFAD
:101B20008DF0040E8D6597EF8DF099EF8DF09DEFA0
:101B30008DF0020E8D6FABEF8DF0ABEF8DF0010EDF
:101B4000F76FC4EF8DF0000EF76FC4EF8DF0020E4B
:101B5000F76FC4EF8DF08D51E16FE26BE251000A37
:101B6000D8B4B5EF8DF0C4EF8DF0E151010AD8B4CF
:101B70009FEF8DF0030AD8B4A3EF8DF0010AD8B41B
:101B8000A7EF8DF0C4EF8DF0F705D8A4CAEF8DF064
:101B9000CCEF8DF0D4EF8DF0F75156ECAAF0010E9A
:101BA00000018F6FF5EF8DF0F751D8A4DAEF8DF0CB
:101BB000DCEF8DF0E4EF8DF0F75156ECAAF0000E5B
:101BC00000018F6FF5EF8DF0020EF719D8A4EBEF3F
:101BD0008DF0EDEF8DF0F5EF8DF0F75156ECAAF0AA
:101BE000020E00018F6FF5EF8DF0F605D8A4FBEF24
:101BF0008DF0FDEF8DF0CEEF8EF020EE2EF0DF5168
:101C0000D926E051DA22E80EDE5C030EDE58D8A0B9
:101C10000CEF8EF00EEF8EF014EF8EF0000EE66FEC
:101C2000640EE56F42EF8EF020EE2EF0DF51D926E4
:101C3000E051DA22010EDB5009E1640EDE5CD8A02F
:101C400024EF8EF026EF8EF02CEF8EF0000EE66F74
:101C5000320EE56F42EF8EF020EE2EF0DF51D926E6
:101C6000E051DA22010EDB5007E1640EDE5CD8B0F1
:101C70003CEF8EF03EEF8EF042EF8EF0000EE66FFE
:101C80000A0EE56F010E3BECD8F00009D8B44BEF1B
:101C90008EF04DEF8EF068EF8EF0000120EE2EF00A
:101CA000DF51D926E051DA22DECFE1F0DDCFE2F0DC
:101CB000E551E127E651E22320EE2EF0DF51D9264F
:101CC000E051DA22E1C0DEFFE2C0DDFF8CEF8EF0F2
:101CD000000E3BECD8F00009D8B471EF8EF073EF32
:101CE0008EF08CEF8EF0000120EE2EF0DF51D92621
:101CF000E051DA22DECFE1F0DDCFE2F0E551E15F45
:101D0000E651E25B20EE2EF0DF51D926E051DA22D7
:101D1000E1C0DEFFE2C0DDFF000120EE2EF0DF516A
:101D2000D926E051DA22010EDB5007E10A0EDE5C13
:101D3000D8B09DEF8EF09FEF8EF0ABEF8EF020EEDF
:101D40002EF0DF51D926E051DA22B80EDE6E0B0EEE
:101D5000DD6EC6EF8EF020EE2EF0DF51D926E05179
:101D6000DA22B90EDE5C0B0EDE58D8A0BAEF8EF088
:101D7000BCEF8EF0C6EF8EF020EE2EF0DF51D926AC
:101D8000E051DA220A0EDE6E000EDD6EDFC0D4F006
:101D9000E0C0D5F0010ED66F18ECC8F0020E0001BD
:101DA000F619D8A4D6EF8EF0D8EF8EF0A9EF8FF009
:101DB00020EE30F0DF51D926E051DA22E80EDE5C69
:101DC000030EDE58D8A0E7EF8EF0E9EF8EF0EFEFCC
:101DD0008EF0000EE66F640EE56F1DEF8FF020EEC3
:101DE00030F0DF51D926E051DA22010EDB5009E153
:101DF000640EDE5CD8A0FFEF8EF001EF8FF007EFEE
:101E00008FF0000EE66F320EE56F1DEF8FF020EEC3
:101E100030F0DF51D926E051DA22010EDB5007E124
:101E2000640EDE5CD8B017EF8FF019EF8FF01DEF66
:101E30008FF0000EE66F0A0EE56F010E3BECD8F056
:101E40000009D8B426EF8FF028EF8FF043EF8FF022
:101E5000000120EE30F0DF51D926E051DA22DECF4A
:101E6000E1F0DDCFE2F0E551E127E651E22320EE9B
:101E700030F0DF51D926E051DA22E1C0DEFFE2C0C6
:101E8000DDFF67EF8FF0000E3BECD8F00009D8B40F
:101E90004CEF8FF04EEF8FF067EF8FF0000120EEE8
:101EA00030F0DF51D926E051DA22DECFE1F0DDCF8C
:101EB000E2F0E551E15FE651E25B20EE30F0DF5108
:101EC000D926E051DA22E1C0DEFFE2C0DDFF0001E9
:101ED00020EE30F0DF51D926E051DA22010EDB503E
:101EE00007E10A0EDE5CD8B078EF8FF07AEF8FF062
:101EF00086EF8FF020EE30F0DF51D926E051DA2264
:101F0000B80EDE6E0B0EDD6EA1EF8FF020EE30F01E
:101F1000DF51D926E051DA22B90EDE5C0B0EDE5815
:101F2000D8A095EF8FF097EF8FF0A1EF8FF020EE14
:101F300030F0DF51D926E051DA220A0EDE6E000EB3
:101F4000DD6EDFC0D4F0E0C0D5F0010ED66F94ECAA
:101F5000C7F0030E0001F619D8A4B1EF8FF0B3EF6C
:101F60008FF016EF91F020EE14F0DF51D926E051FA
:101F7000DA22DFA0BEEF8FF0C0EF8FF079EF90F0A4
:101F800020EE32F0DF51D926E051DA22E80EDE5C95
:101F9000030EDE58D8A0CFEF8FF0D1EF8FF0D7EF40
:101FA0008FF0000EE66F640EE56FF3EF8FF020EE1A
:101FB00032F0DF51D926E051DA22010EDB5009E17F
:101FC000640EDE5CD8A0E7EF8FF0E9EF8FF0EFEF63
:101FD0008FF0000EE66F320EE56FF3EF8FF0000E1C
:101FE000E66F0A0EE56F010E3BECD8F00009D8B49D
:101FF000FCEF8FF0FEEF8FF019EF90F0000120EE74
:1020000032F0DF51D926E051DA22DECFE1F0DDCF28
:10201000E2F0E551E127E651E22320EE32F0DF5114
:10202000D926E051DA22E1C0DEFFE2C0DDFF3DEF5C
:1020300090F0000E3BECD8F00009D8B422EF90F0FD
:1020400024EF90F03DEF90F0000120EE32F0DF51F0
:10205000D926E051DA22DECFE1F0DDCFE2F0E55122
:10206000E15FE651E25B20EE32F0DF51D926E0512C
:10207000DA22E1C0DEFFE2C0DDFF000120EE32F037
:10208000DF51D926E051DA22010EDB5007E10A0EBA
:10209000DE5CD8B04EEF90F050EF90F05CEF90F037
:1020A00020EE32F0DF51D926E051DA22B80EDE6E92
:1020B0000B0EDD6E0EEF91F020EE32F0DF51D926DF
:1020C000E051DA22B90EDE5C0B0EDE58D8A06BEFC1
:1020D00090F06DEF90F00EEF91F020EE32F0DF51C6
:1020E000D926E051DA220A0EDE6E000EDD6E0EEF0A
:1020F00091F020EE11F0DF51D926E051DA22310EB5
:10210000DF6485EF90F087EF90F08DEF90F0000E98
:10211000E66F0A0EE56FA5EF90F020EE11F0DF51AB
:10212000D926E051DA22090EDF6499EF90F09BEF97
:1021300090F0A1EF90F0000EE66F050EE56FA5EFB1
:1021400090F0000EE66F010EE56F010E3BECD8F04B
:102150000009D8B4AEEF90F0B0EF90F0C2EF90F07D
:10216000000120EE11F0DF51D926E051DA2210EE05
:1021700011F0DF51E126E051E222E750E525DF6E64
:10218000DFEF90F0000E3BECD8F00009D8B4CBEFB5
:1021900090F0CDEF90F0DFEF90F0000120EE11F025
:1021A000DF51D926E051DA2210EE11F0DF51E1269D
:1021B000E051E222E750E16FE551E15DDF6E0001A1
:1021C00020EE11F0DF51D926E051DA22DF50D8A4F9
:1021D000ECEF90F0EEEF90F0F8EF90F020EE11F0D1
:1021E000DF51D926E051DA22640EDF6E0EEF91F056
:1021F00020EE11F0DF51D926E051DA22640EDF64BF
:1022000004EF91F006EF91F00EEF91F020EE11F057
:10221000DF51D926E051DA22010EDF6EDFC0D4F0A3
:10222000E0C0D5F0010ED66F9CECBFF0040E0001AB
:10223000F619D8A41EEF91F020EF91F0D5EF98F0A9
:1022400020EE14F0DF51D926E051DA22DFA22BEF85
:1022500091F02DEF91F0E6EF91F020EE34F0DF51A8
:10226000D926E051DA22E80EDE5C030EDE58D8A053
:102270003CEF91F03EEF91F044EF91F0000EE66FED
:10228000640EE56F60EF91F020EE34F0DF51D92657
:10229000E051DA22010EDB5009E1640EDE5CD8A0C9
