:0400000016EF00F007
:100008005F82F2A40AEF00F00CEF00F014EF00F0AA
:10001800FD0ED76E110ED66E0001D44BD52BF2947F
:080028005F92110093EF92F0CA
:10CB38000054696D653A316833356D004361703A68
:10CB48003534306D4168004379636C653A322F346F
:10CB5800004379636C653A322F34004375723A3278
:10CB680033306D4100566F6C3A332C3335560054D0
:10CB7800656D703A333543000E0000000000000078
:10CB8800000000000000000000000000000000009D
:10CB9800000000000000000000000000000000008D
:10CBA800000000000000000000000000000000007D
:10CBB800000000000000000000000000000000006D
:10CBC800000000000000000000000000000000005D
:10CBD800000000000000000000000000000000004D
:10CBE8000000000000050000000000000000FC7FBD
:10CBF8000E00FC7F0F00FC7F070000000000000013
:10CC0800000000000000000000000000000000001C
:10CC1800000000000000000000000000000000000C
:10CC280000000000000000000000000000000000FC
:10CC380000000000000000000000000000000000EC
:10CC480000000000000000000000000000000000DC
:10CC58000000090000000000000000FC010000FCCA
:10CC6800010000000000000000000000000000FCBF
:10CC7800010000FC010000000000000000000000AE
:10CC8800000000000000000000000000000000009C
:10CC9800000000000000000000000000000000008C
:10CCA800000000000000000000000000000000007C
:10CCB800000000000000000000000000000000115B
:10CCC80000000000006000008061000080610C002E
:10CCD80080E10F0080FD0F00807F0000F86F0000EA
:10CCE800FC610C008CE10F0080FD0F00807F0000CC
:10CCF800F86F0000FC6100008C61000080210000DA
:10CD0800800100000000000000000000000000009A
:10CD1800000000000000000000000000000000000B
:10CD280000000000000000000000000011000000EA
:10CD38000000830100C0C70300E08F0300700C07E8
:10CD480000300C0600180C060018040600FFFF7FD0
:10CD580000FEFF3F00180606001806030018060329
:10CD6800003886030070FE010070FC0000007800A7
:10CD780000000000000000000000000000000000AB
:10CD8800000000000000000000000000000000009B
:10CD98000000000000000000001500000000E00096
:10CDA8000000F0010000F80300001C0304000C035D
:10CDB8000E008C830F00FCC10300F8F00000707CAB
:10CDC8000000001E000080070300E0830700F0C099
:10CDD8000F003CC00C001C600C0008600C000060D8
:10CDE800060000E0070000C003000080010000000A
:10CDF800000000000000000000000000000000002B
:10CE0800000000000000160000000000E003000021
:10CE1800F0070000F80700701C0E00F80E0C00F870
:10CE28000F0C00DC070C008C070C000C0F0C000C1E
:10CE38001F06008C1F0600CC390700F8710300F8A4
:10CE4800F0030070E0010000E0010000F8030000BA
:10CE58003C070000180E0000000E0000000700004C
:10CE680000000000000000000000000000000000BA
:10CE7800000000040000000000000000FC010000A9
:10CE8800FC0100000000000000000000000000009D
:10CE9800000000000000000000000000000000008A
:10CEA800000000000000000000000000000000007A
:10CEB800000000000000000000000000000000006A
:10CEC800000000000000000000000000000000005A
:10CED800000000000000000000000000000000004A
:10CEE8000B000000000000000000FC030000FF1F12
:10CEF80000C0FF3F00E003FC00F000E0013800C084
:10CF0800013C0080031C00800308000000000000B2
:10CF18000000000000000000000000000000000009
:10CF280000000000000000000000000000000000F9
:10CF380000000000000000000000000000000000E9
:10CF4800000000000000000000000000000A0000CF
:10CF58000000080000001C0080033C00800338002B
:10CF6800C001F000F001E003FC00C0FF3F0000FF3B
:10CF78001F0000FC0300000000000000000000008B
:10CF88000000000000000000000000000000000099
:10CF98000000000000000000000000000000000089
:10CFA8000000000000000000000000000000000079
:10CFB800000000000000000000000A00000000C09F
:10CFC800000000C00000004C020000D8030000F080
:10CFD800010000FC000000AC01000030030000303C
:10CFE8000000000000000000000000000000000039
:10CFF8000000000000000000000000000000000029
:10D008000000000000000000000000000000000018
:10D018000000000000000000000000000000000008
:10D02800000000000000000E0000000000400000AA
:10D038000060000000600000006000000060000068
:10D0480000FF0F0000FF0F0000FF0F00006000004E
:10D058000060000000600000006000000060000048
:10D0680000000000000000000000000000000000B8
:10D0780000000000000000000000000000000000A8
:10D088000000000000000000000000000000000098
:10D098000000000005000000000000660000006FAE
:10D0A8000000003F0000001E00000000000000001B
:10D0B8000000000000000000000000000000000068
:10D0C8000000000000000000000000000000000058
:10D0D8000000000000000000000000000000000048
:10D0E8000000000000000000000000000000000038
:10D0F8000000000000000000000000000000000028
:10D10800000A00000000003000000070000000303D
:10D118000000003000000030000000300000003047
:10D128000000003000000030000000000000000097
:10D1380000000000000000000000000000000000E7
:10D1480000000000000000000000000000000000D7
:10D1580000000000000000000000000000000000C7
:10D1680000000000000000000000000000000500B2
:10D178000000000000000000000E0000000F00008A
:10D188000007000000000000000000000000000090
:10D198000000000000000000000000000000000087
:10D1A8000000000000000000000000000000000077
:10D1B8000000000000000000000000000000000067
:10D1C8000000000000000000000000000000000057
:10D1D80000000000000000000000000B000000003C
:10D1E8000000040000000F0000C00F0000F801005C
:10D1F800007E0000801F0000E0070000FC01000026
:10D208007C0000001C00000000000000000000007E
:10D218000000000000000000000000000000000006
:10D2280000000000000000000000000000000000F6
:10D2380000000000000000000000000000000000E6
:10D248000000000000000000160000000000F801C7
:10D258000000FF030080FF0700C0030700E0010E85
:10D268000070000C0030000C0038000C0018000C96
:10D278000008000C000C000C000C0006000C000656
:10D28800000C0007000C0003001C80030018C001FC
:10D298000038F00000F07F0000E03F0000C00F0001
:10D2A8000000000000000000000000000000000076
:10D2B8000000000000100000000000000000000056
:10D2C8000000000000000001000080030000C0030F
:10D2D8000000C0010000E0000000E0000000700055
:10D2E80000007000000038000000F8FF0F00FCFF8D
:10D2F8000F00FCFF0F00000000000000000000000D
:10D308000000000000000000000000000000000015
:10D318000000000000000000000000000000000005
:10D32800000014000000000000000000000000E001
:10D33800000E00E0000F00F0C00F0038E00D0018EC
:10D34800E00C0018700C000C300C000C380C000CB1
:10D35800380C000C1C0C000C1C0C000C0C0C000CE9
:10D368000E0C00180F0C00F8070E00F8030F00E071
:10D37800010E000000000000000000000000000096
:10D388000000000000000000000000000000001580
:10D39800000000000000000000C003007CC007007F
:10D3A8007CC007007C000E000C000C000C000C0078
:10D3B8000C0E0C000C060C000C070C000C070C00E3
:10D3C8008C030C00CC030600EC0306007C0306006B
:10D3D8003C0303001CC703000CFE010000FE000014
:10D3E800007C0000000000000000000000000000B9
:10D3F8000000000000000000000000001600C0004F
:10D408000000E0000000F0000000F8000000F80054
:10D418000000FC000000EE000000670000806300D0
:10D4280000C0610000E0600000706000003870001B
:10D4380000FCFF0F00FCFF0F00FCFF0F0000300096
:10D448000000300000003000000038000000380004
:10D45800000038000000000000000000000000008C
:10D46800000000000000000000150000000000009F
:10D47800000000080300F81F0700F81F0700F80D58
:10D488000E00080E0C0008060C0008060C00080226
:10D498000C0008030C0008030C0008030C00080328
:10D4A80006000C0306000C0307000C0703000CC65B
:10D4B80003000CFE010000FC0000007800000000E2
:10D4C8000000000000000000000000000000000054
:10D4D80000000000000016000000000078000000B6
:10D4E800FE030080FF0300C0C70700E0E1070060FB
:10D4F800700E0070300C0038380C00181C0C001826
:10D508000C0C000C0C0C000C060C000C060E000C8D
:10D518000606000C0606000C0607000C0603003879
:10D528008E030078FC010030FC0000007800000049
:10D5380000000000000000000000000000000000E3
:10D5480000000016000000000000000000000000BD
:10D55800F8010000FC010000FC0000000C000000C5
:10D568000C0000000C0000000C000E000C800F00E6
:10D578000CE007000CF001000CFC00000C3E000061
:10D588008C1F0000EC070000FC030000FC000000FA
:10D598003C0000000C000000040000000000000037
:10D5A8000000000000000000000000000000000073
:10D5B800160000000000C0010000E0030000F007B2
:10D5C80000C0790600F03B0E00F81F0C00380E0C66
:10D5D80000180C0C001C0C0C000C060C000C060CA3
:10D5E800000C0606000C0606000C0606001C0703C5
:10D5F80000F8070300F886030070CE010000FC0065
:10D608000000FC00000038000000000000000000DE
:10D6180000000000000000000000000000160000EC
:10D6280000000000010080830300E0870700F00F7E
:10D638000700700C0E00381C0C0018180C001C1881
:10D648000C000C180C000C180C000C180C000C1812
:10D6580004000C0C06000C0C06001C0C07001886B5
:10D66800030038C70300F0E30100F0FF0000E07F8B
:10D678000000001F00000000000000000000000083
:10D68800000000000000000000000500000000008D
:10D69800000000000C0E00001E0F00000C07000028
:10D6A8000000000000000000000000000000000072
:10D6B8000000000000000000000000000000000062
:10D6C8000000000000000000000000000000000052
:10D6D8000000000000000000000000000000000042
:10D6E8000000000000000000000000000000000032
:10D6F80000000000000000050000000000006600B7
:10D70800000C6F00001E3F00000E1E00000000000D
:10D718000000000000000000000000000000000001
:10D7280000000000000000000000000000000000F1
:10D7380000000000000000000000000000000000E1
:10D7480000000000000000000000000000000000D1
:10D7580000000000000000000000000000000000C1
:10D76800000000000D000000000000000000600044
:10D77800000070000000F0000000F8010000D8016F
:10D7880000009C0300000C0300000E070000070EB9
:10D798000000070E00000202000000000000000068
:10D7A8000000000000000000000000000000000071
:10D7B8000000000000000000000000000000000061
:10D7C8000000000000000000000000000000000051
:10D7D800000D00000000008C0100008C0100008C8E
:10D7E8000100008C0100008C0100008C0100008CFD
:10D7F8000100008C0100008C0100008C0100008CED
:10D808000100008C01000000000000000000000082
:10D818000000000000000000000000000000000000
:10D8280000000000000000000000000000000000F0
:10D8380000000000000000000000000000000D00D3
:10D84800000000000000000002020000070E0000B7
:10D85800070E00000E0700000C0300009C030000E8
:10D86800D8010000F8010000F0000000700000007E
:10D878006000000000000000000000000000000040
:10D888000000000000000000000000000000000090
:10D898000000000000000000000000000000000080
:10D8A8000000000000000000000000100000000060
:10D8B8002000000070000000F000000078700000F8
:10D8C80018F8000018FC1C000CDC1E000CCE0E0022
:10D8D8000CC700000CF700008C730000DC2100006E
:10D8E800F8010000F80000007000000000000000CF
:10D8F8000000000000000000000000000000000020
:10D90800000000000000000000000000000000000F
:10D9180000000000000000001B000000000080075D
:10D928000000E01F0000783800001C3000000E7076
:10D93800000006670000C3670080E36F0080716C19
:10D948000080396C00C0186C00C00C6600C00C3632
:10D95800006004330060863B006086110060C607E3
:10D968000060FE0F0060FE0F00600E0C0060000CEF
:10D9780000C0000600C00106008083030000FF010C
:10D9880000007C00001500000E0000800F0000C0A1
:10D998000F0000F0010000780000003E0000001FAA
:10D9A8000000801F0000E01B0000F81800007C1831
:10D9B80000007C180000F8180000E01B0000801F21
:10D9C8000000001F0000007C000000F8010000E0DB
:10D9D8000F0000800F0000000E0000000000000093
:10D9E800000000000000000000000000000000002F
:10D9F8000000150000000000000000F8FF0F00FC08
:10DA0800FF0F00F8FF0F0018060C0018060C00188E
:10DA1800070C000C0704000C0306000C0306008C1E
:10DA28000306008C030700CC030300CC030300FCAF
:10DA380083030078C3010038E7010000FE000000FE
:10DA48007E0000001C000000000000000000000034
:10DA580000000000000000000000000000000012AC
:10DA680000000000007C000000FF0100C0FF07006C
:10DA7800E0830700F0000E0030000E0038000C00B4
:10DA880018000C000C000C000C000C000C000C0022
:10DA98000C0006000C0007000C00070018C003006B
:10DAA80038C0010038C0010000000000000000007C
:10DAB800000000000000000000000000000000005E
:10DAC8000000000000000000000000001500000039
:10DAD8000000000000FCFF0F00FCFF0F00FCFF0F20
:10DAE8000038000C0018000C0018000C001C000680
:10DAF800000C0006000C0006000C0007000C0003D8
:10DB0800000C8003000C8003001CC0010018E00119
:10DB18000078F80000F07F0000E01F0000C0070058
:10DB280000000000000000000000000000000000ED
:10DB380000000000000000000013000000001000BA
:10DB48000000FCFF0F00FCFF0F00FCFF0F00180C8B
:10DB58000600180C0600180C0600180C0600180C15
:10DB68000600180C0600180C0600180C0600180E03
:10DB780006001C0E06001C0406001C00070000001E
:10DB88000700000002000000000000000000000084
:10DB9800000000000000000000000000000000007D
:10DBA800000000000000110000000000000000F864
:10DBB800FF0F00FCFF0F00FCFF0F00381C000038AF
:10DBC8001C0000380C0000180C0000180C0000188D
:10DBD8000C0000180C0000180E00001C0E00001CA1
:10DBE8000E00001C0E00001C0000000000000000D9
:10DBF800000000000000000000000000000000001D
:10DC0800000000000000000000000000000000000C
:10DC1800000000170000000000F8000000FE0100EE
:10DC280080FF0300C0870700E0010600E0000E0047
:10DC380070000C0030000C0038000C0018000C00BC
:10DC480018000C000C100C000C1806000C1806002C
:10DC58000C1806000C1803000C9803001CCC0100DB
:10DC680018EC010038FC0000107C0000001C0000CB
:10DC7800000000000000000000000000000000009C
:10DC88001400000000000C0000FCFF0F00FCFF0F58
:10DC980000FCFF0F00000E0000000E0000000E0048
:10DCA80000000E0000000E0000000E0000000E0034
:10DCB8000000060000000600000006000000060044
:10DCC8000000060000FCFF0F00FCFF0F00FCFF0F28
:10DCD800000000000000000000000000000000003C
:10DCE8000000000000000000000000000005000027
:10DCF800000000000000FCFF0F00FCFF0F00FCFF0D
:10DD08000F000000000000000000000000000000FC
:10DD180000000000000000000000000000000000FB
:10DD280000000000000000000000000000000000EB
:10DD380000000000000000000000000000000000DB
:10DD480000000000000000000000000000000000CB
:10DD580000000000000000000000100000000000AB
:10DD680080030000C0070000C00F0000001C000076
:10DD7800001800000018000000180000001800003B
:10DD880000180000001C0000000E0000000F00FC3E
:10DD9800FF0700FCFF0300FCFF010000000000007B
:10DDA800000000000000000000000000000000006B
:10DDB800000000000000000000000000000000005B
:10DDC8000000000000000013000000000000000038
:10DDD800FCFF0F00FCFF0F00FCFF0F00800F00008E
:10DDE800800F0000C01D0000E0380000E07800004F
:10DDF8007070000030E0000038C0010018C0030057
:10DE08000C8003000C00070000000E0000000E004C
:10DE180000000400000000000000000000000000F6
:10DE280000000000000000000000000000000000EA
:10DE3800000000000F0000000000000000FCFF0FC1
:10DE480000FCFF0F00FCFF0F0000000E0000000E9A
:10DE580000000006000000060000000600000006A2
:10DE6800000000070000000700000007000000078E
:10DE7800000000000000000000000000000000009A
:10DE8800000000000000000000000000000000008A
:10DE9800000000000000000000000000000000007A
:10DEA80000190000000000000000F8FF0F00FCFF50
:10DEB8000F00FCFF0F00F0010000C0030000800FFE
:10DEC8000000001E0000007C000000F8010000E0D7
:10DED800070000800F0000800F0000E0070000F03E
:10DEE800010000F80000003C0000001E0000000FC8
:10DEF8000000C0030000E0010000FCFF0F00FCFF71
:10DF08000F00FCFF0F0000000000000000001300DD
:10DF180000000000000000FCFF0F00FCFF0F00FCE9
:10DF2800FF0F00F0010000C00300008007000000A0
:10DF38000F0000001E0000003C0000003800000038
:10DF480070000000F0000000E0010000C00300FCC9
:10DF5800FF0700FCFF0F00FCFF0F0000000000009F
:10DF680000000000000000000000000000000000A9
:10DF78000000000000000000000000150000000084
:10DF880000F8000000FE010080FF0300C0830700C6
:10DF9800E001060070000E0030000C0038000C0094
:10DFA80018000C000C000C000C000C000C00060003
:10DFB8000C0006000C0007001C00030018C003003A
:10DFC80078E00100F0FF0000E07F0000801F000003
:10DFD8000000000000000000000000000000000039
:10DFE80000000000000000001300000000C0000056
:10DFF80000FCFF0F00FCFF0F00FCFF0F00381C00A7
:10E0080000380C0000180C0000180C0000080E0066
:10E01800000C0E00000C0600000C0700000C0300AA
:10E02800008C030000CC010000FC010000F8000097
:10E0380000380000000000000000000000000000A0
:10E0480000000000000000000000000000000000C8
:10E058000000000000170000000000F8000000FEAB
:10E06800030080FF0700C0070700E0010E00E00082
:10E078000C0070000C0030000C0018000C00180098
:10E088000C000C200C000C700E000CF006000CE0CC
:10E0980006000CC007001CC003001CC0070078F075
:10E0A8000700F0FF0E00E03F1C00C00F1C0000003E
:10E0B8000800000000000000000000000000000050
:10E0C80000001500000000E0000000FCFF0F00FC4D
:10E0D800FF0F00FCFF0F00381C0000183E0000185E
:10E0E8003E0000187600000C7600000CE600000CDC
:10E0F800E300000CC300008CC301008C810100CC3C
:10E10800810300FC000300F8000700380006000047
:10E11800000E0000000E00000000000000000000DB
:10E1280000000000000000000000000000000015D2
:10E138000000000000070300C0870700E00F070089
:10E14800700C0E00300C0C00180C0C00180C0C0095
:10E15800180C0C000C040C000C040C000C060E002F
:10E168000C0606000C0606000C0607001C06070035
:10E178003886030038C6030010FE010000FC0000CA
:10E18800003800000000000000000000000000004F
:10E198000000000000000000000000001230000035
:10E1A80000300000003000000030000000300000A7
:10E1B800001000000010000000F8FF0F00F8FF0F2B
:10E1C80000F8FF0F00180000000800000008000019
:10E1D80000080000000C0000000C0000000C00000B
:10E1E800000C00000000000000000000000000001B
:10E1F8000000000000000000000000000000000017
:10E2080000000000000000000012000000000000F4
:10E218000000FCFF0300FCFF0700F8FF07000000F8
:10E228000E0000000C0000000C0000000C000000B4
:10E238000C0000000C0000000E00000006000000AA
:10E24800070000000700FCFF0300FCFF0100FCFFC3
:10E2580000000000000000000000000000000000B6
:10E2680000000000000000000000000000000000A6
:10E2780000000000000013000000003C000000FC4B
:10E28800010000F8070000C01F0000007F00000028
:10E29800F80F0000C00F0000C00F0000F0000000E1
:10E2A8007C0000001E0000000F0000C0030000E01A
:10E2B800010000F0000000780000003C0000001899
:10E2C8000000000000000000000000000000000046
:10E2D8000000000000000000000000000000000036
:10E2E8000000001B000000007C000000FC03000090
:10E2F800FC1F000000FF000000F80F0000E00F0006
:10E3080000C00F0000F0010000780000003E00008F
:10E31800800F0000F8030000F8000000F803000078
:10E32800800F0000003E000000FC000000F0070025
:10E3380000800F0000C00F0000F80300007E0000FE
:10E34800801F0000FC070000FC0100003C000000EA
:10E3580011000004001C000E003C000F007CC007E8
:10E3680000F8E00300F0F10000C07B0000803F00EF
:10E3780000001F0000001F0000C07F0000E0F10047
:10E3880000F0E0010078C003003C800F001C000F83
:10E398000018000400000000000000000000000059
:10E3A8000000000000000000000000000000000065
:10E3B8000000000000000000000000000015180028
:10E3C80000001C0000003C00000078000000F00085
:10E3D8000000E0010000C001000080030000000709
:10E3E800000000FF0F0000FE0F0000FE0F000007F6
:10E3F800000080030000C0010000E0010000E00010
:10E40800000070000000380000003C0000001C0004
:10E4180000000000000000000000000000000000F4
:10E4280000000000000000000000140000000000D0
:10E43800000E0038000F003C800F001CC00F000CBD
:10E44800C00D000CE00C000C700C000C380C000C1B
:10E458003C0C000C1E0C000C0F0C008C070C00CCA4
:10E46800030C00EC010C00EC000C00FC000C007C20
:10E47800000E003C000F001C000600000000000019
:10E488000000000000000000000000000000000084
:10E49800000000000000000C000000000000000068
:10E4A80000000000F8FFFF03FCFFFF03FCFFFF0371
:10E4B8000C0000030C0000030C0000030C00000318
:10E4C8000C008003000000010000000000000000B4
:10E4D8000000000000000000000000000000000034
:10E4E8000000000000000000000000000000000024
:10E4F8000000000000000000000000000000000014
:10E50800000000000B080000001C0000007C000058
:10E5180000F0010000C0070000001F0000007C00A0
:10E528000000F0010000C00F0000000F0000000410
:10E5380000000000000000000000000000000000D3
:10E5480000000000000000000000000000000000C3
:10E5580000000000000000000000000000000000B3
:10E5680000000000000000000000000000000000A3
:10E578000009000000000C0000030C0000030C0060
:10E5880000030C0000030C000003FCFFFF03FCFF6A
:10E59800FF03FCFFFF030000000000000000000074
:10E5A8000000000000000000000000000000000063
:10E5B8000000000000000000000000000000000053
:10E5C8000000000000000000000000000000000043
:10E5D80000000000000000000000000000000D0026
:10E5E8000000000001000080030000C0030000E0FC
:10E5F800010000F0000000780000001C0000007C12
:10E60800000000F0000000E0030000C0030000006C
:10E6180003000000000000000000000000000000EF
:10E6280000000000000000000000000000000000E2
:10E6380000000000000000000000000000000000D2
:10E6480000000000000000000000000D0000C000F5
:10E658000000C0000000C0000000C0000000C000B2
:10E668000000C0000000C0000000C0000000C000A2
:10E678000000C0000000C0000000C0000000C00092
:10E688000000000000000000000000000000000082
:10E698000000000000000000000000000000000072
:10E6A8000000000000000000000000000000000062
:10E6B800000000000000000008000000000000004A
:10E6C800000C0000001C00000018000000300000D2
:10E6D8000060000000600000000000000000000072
:10E6E8000000000000000000000000000000000022
:10E6F8000000000000000000000000000000000012
:10E708000000000000000000000000000000000001
:10E7180000000000000000000000000000000000F1
:10E7280000000000000F000000000000060000804C
:10E738000F0000CC0F0000CE0C0000C60C000066D5
:10E748000C000063040000230600003306000033B9
:10E75800030000B3010000FF0F0000FE0F0000FEE1
:10E768000F00000000000000000000000000000092
:10E778000000000000000000000000000000000091
:10E788000000000000000000000000000000000081
:10E798000000100000000000000000FCFF0F00FC5B
:10E7A800FF0F00FCFF0F00001C0C00000E0C000007
:10E7B80006060000060600000203000083030000AE
:10E7C800C3010000E30000007F0000003F000000DC
:10E7D8000E00000000000000000000000000000023
:10E7E8000000000000000000000000000000000021
:10E7F8000000000000000000000000000000000F02
:10E808000000000000E0030000F0070000F8070027
:10E81800003C0E00000E0C0000060C0000070C0067
:10E8280000030C0000030C000003060000030700AF
:10E838000087070000860300008601000000000032
:10E8480000000000000000000000000000000000C0
:10E8580000000000000000000000000000000000B0
:10E868000000000000000000000000001000000090
:10E87800000080070000C0070000E00F0000780CCF
:10E888000000380C00001C0C00000C0C00000C06EA
:10E898000000060600000603000086030000C6010B
:10E8A80000FCFF0F00FCFF0F00FCFF0F0000000042
:10E8B8000000000000000000000000000000000050
:10E8C8000000000000000000000000000000000040
:10E8D800000000000000000000100000000000C060
:10E8E800030000F0070000F80F00007C0E00006C29
:10E8F8000C0000660C0000660C0000330C000033AE
:10E908000C0000330E000033060000330600009EA2
:10E918000300009E0300000C01000000000000003E
:10E9280000000000000000000000000000000000DF
:10E9380000000000000000000000000000000000CF
:10E948000000000000000D00040000000C000000A2
:10E958000C0000000C0000C0FF0F00F0FF0F00F8D3
:10E96800FF0F001C0600000C0600000C0600000C3F
:10E97800060000380700001807000000000000002B
:10E98800000000000000000000000000000000007F
:10E99800000000000000000000000000000000006F
:10E9A800000000000000000000000000000000005F
:10E9B8000000000F000000000080070000E00F00CA
:10E9C80000F0CF010078CC01001C8C03000C0C0374
:10E9D80000060603000607030002030300C38303BF
:10E9E80000F3C00100FFFF0100FFFF0000FF3F0030
:10E9F800000000000000000000000000000000000F
:10EA080000000000000000000000000000000000FE
:10EA180000000000000000000000000000000000EE
:10EA28000F0000000000000000FCFF0F00FCFF0FBB
:10EA380000FCFF0F00001C0000000E000000060094
:10EA480000000600000003000000030000000300AF
:10EA58000000FF0F0000FF0F0000FE0F0000000085
:10EA6800000000000000000000000000000000009E
:10EA7800000000000000000000000000000000008E
:10EA88000000000000000000000000000005000079
:10EA980000000000000070FF0F0078FF0F0038FF33
:10EAA8000F0000000000000000000000000000004F
:10EAB800000000000000000000000000000000004E
:10EAC800000000000000000000000000000000003E
:10EAD800000000000000000000000000000000002E
:10EAE800000000000000000000000000000000001E
:10EAF8000000000000000000000006000000060002
:10EB080000000700FFFF0318FFFF033CFFFF011C85
:10EB180000000000000000000000000000000000ED
:10EB280000000000000000000000000000000000DD
:10EB380000000000000000000000000000000000CD
:10EB480000000000000000000000000000000000BD
:10EB580000000000000000000000000000000000AD
:10EB6800000000000000000E00000000000000008F
:10EB7800FCFF0F00FCFF0F00FCFF0F0000700000FF
:10EB880000F8000000DC010000DC0100008E03003A
:10EB9800000707008007070080030E0000010C0033
:10EBA800000000000000000000000000000000005D
:10EBB800000000000000000000000000000000004D
:10EBC800000000000000000000000000000000003D
:10EBD80000000000050000000000000000FCFF0F1E
:10EBE80000FCFF0F00FCFF0F000000000000000009
:10EBF800000000000000000000000000000000000D
:10EC080000000000000000000000000000000000FC
:10EC180000000000000000000000000000000000EC
:10EC280000000000000000000000000000000000DC
:10EC380000000000000000000000000000000000CC
:10EC48000018000000000000000000FF0F0000FF97
:10EC58000F0000FF0F00001C0000000C0000000661
:10EC6800000000060000000200000003000000FF92
:10EC78000F0000FF0F0000FE0F0000180000000C3E
:10EC88000000000C00000006000000020000000365
:10EC980000000003000000FF0F0000FF0F0000FE4F
:10ECA8000F000000000000000000000000000F003E
:10ECB8000000000000000000FF0F0000FF0F000030
:10ECC800FF0F00001C0000000C0000000E000000F8
:10ECD800060000000200000003000000030000001E
:10ECE800FF0F0000FF0F0000FE0F000000000000F3
:10ECF800000000000000000000000000000000000C
:10ED080000000000000000000000000000000000FB
:10ED180000000000000000000000001000000000DB
:10ED280000C0030000F0070000F80700001C0E00F8
:10ED3800000E0C0000060C0000060C0000030C007E
:10ED480000030E000003060000030700008703000D
:10ED580000FE010000FE0000007800000000000036
:10ED6800000000000000000000000000000000009B
:10ED7800000000000000000000000000000000008B
:10ED8800000000000000000011000000000000006A
:10ED98000000FFFF0F00FFFF0F00FFFF0F00380C00
:10EDA80000001C0C00000E0C0000060C0000030EF6
:10EDB8000000030600000307000083030000C703E8
:10EDC8000000FF010000FE0000003C000000000001
:10EDD800000000000000000000000000000000002B
:10EDE800000000000000000000000000000000001B
:10EDF8000000000000140000000000E0030000F024
:10EE0800070000F80F00001C0E00000E0C000006A2
:10EE18000C0000070C000003060000030700008335
:10EE2800030000C3010000F3000000FFFF0700FF1C
:10EE3800FF0F00FEFF0F00000006000000030000A7
:10EE480080030000800100000000000000000000B6
:10EE580000000000000000000000000000000000AA
:10EE680000000D000000000000000000FF0F00007F
:10EE7800FF0F0000FF0F0000180000000C0000004A
:10EE88000600000002000000030000001F00000050
:10EE98001F0000000E00000000000000000000003D
:10EEA800000000000000000000000000000000005A
:10EEB800000000000000000000000000000000004A
:10EEC8000000000000000000000000000000001129
:10EED8000000000000380600007C0700007C0600E7
:10EEE800006E0C0000660C0000660C0000630C004D
:10EEF80000230C0000330C0000330600003306002A
:10EF0800003306000033030000F2030000E00100B4
:10EF180000E0000000000000000000000000000009
:10EF280000000000000000000000000000000000D9
:10EF380000000000000000000000000011000000B8
:10EF480000000600000006000000060000000700A0
:10EF580000E0FF0700E0FF0F00E0FF0F0000030CD8
:10EF68000000030C000003040000030600800107F2
:10EF7800008001030000C1030000C0010000800000
:10EF88000000000000000000000000000000000079
:10EF98000000000000000000000000000000000069
:10EFA8000000000000000000000F0000000000004A
:10EFB800000000FF070000FF070000FF0F0000002F
:10EFC8000C0000000C0000000C000000060000000F
:10EFD8000600000007000080030000FF0F0000FF8C
:10EFE8000F0000FF0F0000000000000000000000FC
:10EFF8000000000000000000000000000000000009
:10F0080000000000000000000000000000000000F8
:10F018000000000000000F00060000001F000000B4
:10F028007F000000FE030000E00F0000800F0000DA
:10F03800000F0000C0070000E0010000F000000021
:10F048003C0000001E0000000F0000000700000048
:10F0580003000000000000000000000000000000A5
:10F068000000000000000000000000000000000098
:10F078000000000000000000000000000000000088
:10F08800000000160000000000070000001F00003C
:10F0980000FF000000F0070000C00F0000000F0094
:10F0A80000C0070000E0010000F80000003F000079
:10F0B800001F0000007F000000F8010000E00700CA
:10F0C80000800F0000800F0000E0030000F0010046
:10F0D800007E0000001F0000000700000000000084
:10F0E8000000000000000000000000000000000018
:10F0F8000F000000000002060000070E00000F07C6
:10F1080000009C030000F8010000F8010000F00076
:10F118000000F0000000F8010000DC0100008E0390
:10F12800000007070000070E0000000C00000000A8
:10F1380000000000000000000000000000000000C7
:10F1480000000000000000000000000000000000B7
:10F158000000000000000000000000000010000295
:10F16800E0000007E001001F8001003E80010078F8
:10F17800800100F0C00100E0E1000080F70000001D
:10F188007F0000001F0000C00F0000F0030000FC1B
:10F198000000003F0000000F000000030000000016
:10F1A8000000000000000000000000000000000057
:10F1B8000000000000000000000000000000000047
:10F1C800000000000000000000000F000008000020
:10F1D8000E0C00000E0E0000060F0000060F0000C7
:10F1E800860F0000C60D0000E60C0000760C00003B
:10F1F8003E0C00003E0C00001E0C00000E0C00002F
:10F20800070E0000030E00000000000000000000D0
:10F2180000000000000000000000000000000000E6
:10F2280000000000000000000000000000000000D6
:10F23800000000000000000D000000000060000059
:10F24800006000000060000000E0000000F0FF0126
:10F25800E0FFFF01F81FFF03F80F00031C00000385
:10F268000C0000030C0000030C000001000000006B
:10F278000000000000000000000000000000000086
:10F288000000000000000000000000000000000076
:10F298000000000000000000000000000000000066
:10F2A80000000000050000000000000000FFFFFF54
:10F2B80007FFFFFF07FFFFFF070000000000000037
:10F2C8000000000000000000000000000000000036
:10F2D8000000000000000000000000000000000026
:10F2E8000000000000000000000000000000000016
:10F2F8000000000000000000000000000000000006
:10F3080000000000000000000000000000000000F5
:10F31800000C080000030C0000030C0000030C00A4
:10F3280080030C00FF01FC8FFF01F8FF7F00F0FF56
:10F338000000007000000060000000600000006035
:10F3480000000000000000000000000000000000B5
:10F3580000000000000000000000000000000000A5
:10F368000000000000000000000000000000000095
:10F3780000000000000000000000000000000D0078
:10F388000000000080000000E0010000E000000034
:10F398003000000030000000700000006000000035
:10F3A800C0000000C0000000E0000000780000007D
:10F3B800380000000000000000000000000000000D
:10F3C8000000000000000000000000000000000035
:10F3D8000000000000000000000000000000000025
:10F3E800000000000000000000000008000000000D
:10F3F800FEFF1F00FEFF1F000200100002001000A9
:10F4080002001000FEFF1F00FEFF1F0000000000AA
:10F4180000000000000000000000000000000000E4
:10F4280000000000000000000000000000000000D4
:10F4380000000000000000000000000000000000C4
:10F4480000000000000000000000000000000000B4
:10F45800000000000000000006000000000000009E
:10F468000000000000000000000000000000000292
:10F4780000007E0300000000000000000000000003
:10F488000000000000000400000F0000000F000052
:10F49800000000000000000000000000000800005C
:10F4A80040004803F8004E03F8004E000800000032
:10F4B800000000000618022402FF0F4402440284E0
:10F4C80001000000000000000000000B00001C000C
:10F4D800220022029C0160001000CC0122022002BE
:10F4E800C00108CC0132022202220252028C01E041
:10F4F8000100020000000000000200000F000000F0
:10F5080000000000000000000000000000000000F3
:10F51800050000F0010C06020801100000000000C0
:10F528000000000000000004011002080C06F001B1
:10F5380000000000000000000000000000000600BD
:10F54800000A0004001F0004000A00000000000078
:10F55800000000000007200020002000FC0120001F
:10F568002000200000000000000000000200080049
:10F57800070000000000000000000000000000007C
:10F5880000000004200020002000200000000000EF
:10F59800000000000000000000000200000003005E
:10F5A8000000000000000000000000000000000053
:10F5B8000005000C800360001C0003000000000030
:10F5C800000000000000000006FC01020202020226
:10F5D800020202FC0100000000000000000000061A
:10F5E800000004020402FE03000200020000000002
:10F5F80000000000000006040382024202420222C8
:10F60800021C0200000000000000000000060401C7
:10F618000202220222022202DC0100000000000095
:10F6280000000000066000500048004400FE03404F
:10F638000000000000000000000000061E01120289
:10F64800120212021202E201000000000000000093
:10F65800000006F8011402120212021202E0010070
:10F668000000000000000000000602000202820103
:10F6780062001A0006000000000000000000000000
:10F6880006DC012202220222022202DC0100000022
:10F6980000000000000000063C0042024202420254
:10F6A8004201FC0000000000000000000000030010
:10F6B8000000001803000000000000000000000027
:10F6C8000000000000030000000818070000000008
:10F6D80000000000000000000000000008000020FA
:10F6E800002000500050008800880004010000003D
:10F6F800000000080000900090009000900090002A
:10F70800900090000000000000000800000401883C
:10F718000088005000500020002000000000000079
:10F72800000504004203220012000C000000000043
:10F7380000000000000000000BF0000C030402F2BF
:10F74800040A050A050A05FA0504010C01F0000778
:10F758000003E000980086009800E0000003000025
:10F7680000000000000006FE032202220222023CE2
:10F7780002C0010000000000000000000007F800BF
:10F788000401020202020202020204010000000057
:10F798000000000007FE0302020202020202020445
:10F7A80001F800000000000000000006FE0322022D
:10F7B80022022202220222020000000000000000B1
:10F7C800000006FE03220022002200220022000080
:10F7D80000000000000000000007F8000401020219
:10F7E800020242024202C4030000000000000000BE
:10F7F80007FE0320002000200020002000FE030058
:10F8080000000000000000030202FE0302020000E4
:10F8180000000000000000000000000000000400DC
:10F828000202020202FE01000000000000000000C7
:10F83800000000000006FE032000500088000401BC
:10F8480002020000000000000000000005FE0300A6
:10F858000200020002000200000000000000000098
:10F8680000000009FE030600180060008001600027
:10F8780018000600FE030000000007FE030600183B
:10F88800002000C0000003FE03000000000000008C
:10F898000008F80004010202020202020202040146
:10F8A800F80000000000000006FE032200220022EB
:10F8B8000022001C000000000000000000000008FA
:10F8C800F8000401020202020206020A0409F8080A
:10F8D80000000000000007FE03220022006200A2D0
:10F8E800001C0100020000000000000000071C01CD
:10F8F80022022202220222022202C4010000000087
:10F908000000000007020002000200FE03020002DD
:10F91800000200000000000000000007FE000001D7
:10F928000002000200020001FE00000000000000CA
:10F938000000070E003000C0000003C00030000EB9
:10F948000000000000000000000B1E00E0010002A3
:10F95800C001380006003800C0010002E0011E00A6
:10F968000702020401D8002000D8000401020200A6
:10F97800000000000000000702000C001000E00377
:10F9880010000C0002000000000000000000060249
:10F99800038202620212020A02060200000000004C
:10F9A8000000000000040000FF0F0108010800002B
:10F9B8000000000000000000000000000503001C1B
:10F9C8000060008003000C00000000000000000040
:10F9D80000000004000001080108FF0F00000000FB
:10F9E80000000000000000000000090000100008EE
:10F9F80000040002000200040008001000000000DB
:10FA080000070008000800080008000800080008AF
:10FA180000000000000000000500000000000001D8
:10FA280000020000000000000000000000000006C6
:10FA380080014802480248024801F0030000000023
:10FA480000000000000006FF031002080208020878
:10FA580002F0010000000000000000000005F001B5
:10FA68000802080208020802000000000000000066
:10FA78000000000006F0010802080208020801FF61
:10FA8800030000000000000000000006F00148022A
:10FA9800480248024802700100000000000000000F
:10FAA8000000050800FE030900090001000000002D
:10FAB80000000000000000000006F0010812081213
:10FAC80008120811F80F00000000000000000000F4
:10FAD80006FF031000080008000800F003000000FB
:10FAE80000000000000000020000FA03000000000F
:10FAF80000000000000000000000000000000300FB
:10FB0800100810FA0F0000000000000000000000BC
:10FB1800000000000005FF034000A00010010802DB
:10FB2800000000000000000000000000020000FFCC
:10FB380003000000000000000000000000000000BA
:10FB48000000000A0000F803100008000800F00395
:10FB5800100008000800F003000006F80310000871
:10FB68000008000800F0030000000000000000008A
:10FB78000006F0010802080208020802F00100006D
:10FB8800000000000000000006F81F10020802082C
:10FB9800020802F00100000000000000000000065A
:10FBA800F0010802080208020801F81F000000001E
:10FBB80000000000000004F803100008000800001E
:10FBC80000000000000000000000000000053001F7
:10FBD80048024802480290010000000000000000AE
:10FBE80000000000040800FE0108020802000000EE
:10FBF800000000000000000000000006F8010002FC
:10FC0800000200020001F8030000000000000000EC
:10FC18000000051800E0000003E0001800000000E4
:10FC2800000000000000000000091800E0000003C8
:10FC3800E0001800E0000003E000180000000000E9
:10FC4800050802B0014000B00108020000000000F1
:10FC580000000000000000051800E0180007E000A0
:10FC68001800000000000000000000000000050867
:10FC78000388024802280218020000000000000061
:10FC880000000000000540004000BE070108010810
:10FC98000000000000000000000000000300000059
:10FCA80000FF0F000000000000000000000000003E
:10FCB8000000000501080108BE07400040000000E0
:10FCC80000000000000000000000080000600010B4
:10FCD800001000200040004000300000000000003C
:10FCE8000003FF030102FF03000000000000000002
:10FCF80000000000000000000500000000000500F2
:10FD0800005F000005000700070005147F147F143A
:10FD180005242A7F2A1205231308646205364956EA
:10FD2800205005080703000005001C2241000500BB
:10FD380041221C000514083E08140508083E08085E
:10FD48000500B07000000508080808080500606094
:10FD58000000052010080402053E5149453E0500F3
:10FD6800427F4000057249494946052141494D33C2
:10FD7800051814127F10052745454539053C4A49A1
:10FD880049310541211109070536494949360546D2
:10FD98004949291E050000140000050040340000F0
:10FDA80005081422410005141414141405412214E2
:10FDB8000800050201590906053E415D594E057CBA
:10FDC8001211127C057F49494936053E41414122BD
:10FDD800057F4141413E057F49494949057F090958
:10FDE8000909053E41415173057F0808087F050050
:10FDF800417F4100052040413F01057F0814224111
:10FE0800057F40404040057F020C027F057F0408C3
:10FE1800107F053E4141413E057F09090906053E1F
:10FE28004151215E057F091929460526494949326C
:10FE38000501017F0101053F4040403F051F20406B
:10FE4800201F053F4038403F05631408146305032D
:10FE58000478040305615149454305007F41410089
:10FE6800050204081020050041417F000504020135
:10FE7800020405404040404005070B0000000520F3
:10FE880054547840057F284444380538444444286D
:10FE980005384444287F0538545454180500087E12
:10FEA80009020518A4A49C78057F080404780500B5
:10FEB800447D4000052040403D00057F1028440057
:10FEC8000500417F4000057C04780478057C08041F
:10FED800047805384444443805FC182424180518C7
:10FEE800242418FC057C08040408054854545424A8
:10FEF8000504043F4424053C4040207C051C204068
:10FF0800201C053C4030403C054428102844054C42
:10FF18009090907C054464544C4405000836410098
:10FF280005000077000005004136080005040204BA
:10FF3800080405007F417F00566F6C3A25752E2511
:10FF48003032752F25752E2530327556004375725F
:10FF58003A253034752F253034756D4100253032FF
:10FF68007568253032756D2530327573004F4E2F08
:10FF78004F46463A202558200A0D0052455345540D
:10FF88003A202558200A0D004361703A253034750F
:10FF98006D4168004379636C653A25752F257500B6
:10FFA800425553593A202558200A0D0054656D7062
:10FFB8003A253032754300424154203100424154C1
:10FFC8002032005354415254004449534300494499
:10FFD8004C4500434852470054455354004D454E44
:10FFE8005500575D002E20003120002564004B008D
:07FFF8004E00500052000012
:020000040001F9
:100000000F6E000E126E12C01DF01DC01AF01AC045
:1000100017F017C016F016C01CF01CC01BF01BC058
:1000200010F010C011F011C013F013C018F0196ACD
:10003000C6C013F0C7C010F010C011F0200E0F5E44
:100040000001CB51CD03F3CF09F0F4CF0AF0010E3C
:100050000924016E000E0A20026E0FC003F0046A2C
:100060008FEC96F001C014F002C015F0145000019E
:10007000C925096E1550CA210A6E09C0F6FF0AC0CB
:10008000F7FF000EF86E0800F5CF16F0144A152A97
:10009000C65116241D6E7F0E1D6451EF80F053EF84
:1000A00080F056EF80F01D50800F165EC751070B91
:1000B0001A6ECC511AC009F00A6A0926000E0A22EB
:1000C000CD51080D0950F35CF450800A0B6E0A50B4
:1000D000800A0B58D8B06FEF80F071EF80F075EFA9
:1000E00080F0CD29176E77EF80F0CDC017F0C7C034
:1000F00001F0026A000E046E080E036EE9EC8EF049
:10010000015017241D6E080E1D6489EF80F08BEFDF
:1001100080F08EEF80F01D50F80F175E14C018F0BD
:1001200015C019F0000E1C6E52EF82F011C002F0E3
:1001300013503BEC97F0000E1B6E20EF82F01C502A
:10014000D8A4A5EF80F0A7EF80F00BEF81F00001BD
:10015000CF51D8A4AEEF80F0B0EF80F0CCEF80F0BC
:10016000CD511B02F3CF09F0F4CF0AF00950C92595
:100170000B6E0A50CA210C6E18500B2619500C2217
:100180000BC0F6FF0CC0F7FF000EF86E0800F5502C
:10019000FF0A1D6EE5EF80F0CD511B02F3CF09F091
:1001A000F4CF0AF00950C9250B6E0A50CA210C6E13
:1001B00018500B2619500C220BC0F6FF0CC0F7FF8D
:1001C000000EF86E0800F5CF1DF01A28096EEBEF4F
:1001D00080F0D8901D36092EE9EF80F00001CF5154
:1001E000D8A4F5EF80F0F7EF80F0F6EF81F01A5029
:1001F0000808096EFF0E0A6E000E0B6E092A04EF46
:1002000081F00B340B320A32092E01EF81F00A50D3
:100210001D12F6EF81F00001CF51D8A412EF81F04A
:1002200014EF81F03AEF81F0CD511B02F3CF09F0CA
:10023000F4CF0AF00950C9250B6E0A50CA210C6E82
:100240001C500B26000E0C2218500B2619500C22A5
:10025000FF0E0B240D6EFF0E0C200E6E0DC0F6FF70
:100260000EC0F7FF000EF86E0800F550FF0A1D6E75
:100270005DEF81F0CD511B02F3CF09F0F4CF0AF00E
:100280000950C9250B6E0A50CA210C6E1C500B2652
:10029000000E0C2218500B2619500C22FF0E0B24B6
:1002A0000D6EFF0E0C200E6E0DC0F6FF0EC0F7FF98
:1002B000000EF86E0800F5CF1DF01A500808096E00
:1002C00009280A6E66EF81F0D8901D320A2E64EF7D
:1002D00081F0010E0001CD6570EF81F072EF81F0C9
:1002E000C2EF81F0CF51D8A478EF81F07AEF81F09E
:1002F0009AEF81F0CD511B02F3CF09F0F4CF0AF051
:100300000950C9250B6E0A50CA210C6E1C500B26D1
:10031000000E0C2218500B2619500C220BC0F6FFB1
:100320000CC0F7FF000EF86E0800F550FF0A126EC1
:10033000B7EF81F0CD511B02F3CF09F0F4CF0AF0F3
:100340000950C9250B6E0A50CA210C6E1C500B2691
:10035000000E0C2218500B2619500C220BC0F6FF71
:100360000CC0F7FF000EF86E0800F5CF12F01A2847
:10037000096EBDEF81F0D8901236092EBBEF81F0E7
:1003800012501D120001CF51D8A4C9EF81F0CBEF5C
:1003900081F0F6EF81F01C50096E0A6AFF0E1724F7
:1003A0000B6E0C6AFF0E0C2209500B1807E10A5065
:1003B0000C18D8A4DEEF81F0E0EF81F0F6EF81F0C9
:1003C0001A50D8B4E6EF81F0E8EF81F0F6EF81F053
:1003D0001AC009F0FF0E0A6E092AF1EF81F0D890D9
:1003E0000A36092EEFEF81F00A501D120001CE05EA
:1003F000D8A4FDEF81F0FFEF81F015EF82F0CF512F
:10040000D8A405EF82F007EF82F00FEF82F0C7C0AB
:1004100001F0C65149EC96F01D1615EF82F0C7C0E9
:1004200001F0C65149EC96F01D12C7C001F01DC085
:1004300002F00001C6512FEC96F00001C62B1B2ADA
:1004400016501B5CD8A027EF82F029EF82F09FEFB7
:1004500080F00001CE51D8A430EF82F032EF82F06C
:1004600041EF82F0CF51D8A438EF82F03AEF82F01A
:100470003DEF82F01D6847EF82F0000E1D6E47EFE2
:1004800082F0C7C001F0C65149EC96F01D6EC7C09E
:1004900001F01DC002F00001C6512FEC96F0080ECD
:1004A00011261C2A17501C5CD8A059EF82F05BEF74
:1004B00082F096EF80F010C002F013501624096EFF
:1004C00009283BEC97F01200000E136E0001D55185
:1004D00009E10A0ED45DD8A070EF82F072EF82F0CD
:1004E00073EF84F066EF84F01350090DF3CF08F03A
:1004F000F4CF09F008500001D6250A6E0950D72123
:100500000B6E060E0A24D96E000E0B20DA6E02D88E
:1005100094EF82F00500FA6EDE50FD6EDE50FE6E46
:10052000DE50FF6EFA5012000009D8B49AEF82F044
:100530009DEF82F0010E9EEF82F0000E126E12040B
:10054000D8A4A5EF82F0A7EF82F078EF83F01350E4
:10055000090DF3CF08F0F4CF09F008500001D625BB
:10056000D96E0950D721DA6EDFB8B9EF82F0BBEF50
:1005700082F0EBEF82F0D8C001F0D951A6EC93F0F5
:10058000086E1350090DF3CF09F0F4CF0AF00950AB
:100590000001D6250B6E0A50D7210C6E010E0B24DC
:1005A000D96E000E0C20DA6EDF2A0850DE5CD8A06F
:1005B000DCEF82F0DEEF82F0EBEF82F01350090DFA
:1005C000F3CF08F0F4CF09F00850D625D96E0950C2
:1005D000D721DA6EDF881350090DF3CF08F0F4CF7E
:1005E00009F00850D625D96E0950D721DA6EDFA858
:1005F000FCEF82F0FEEF82F061EF83F01350090D03
:10060000F3CF08F0F4CF09F00850D625D96E095081
:10061000D721DA6EDF30E832030BE806D8A413EFF7
:1006200083F015EF83F061EF83F01350090DF3CFE2
:1006300008F0F4CF09F00850D6250A6E0950D721EA
:100640000B6E040E0A24D96E000E0B20DA6EDECF7C
:1006500001F0DDCF02F0D8C003F0046A0AEC93F099
:100660001350090DF3CF0CF0F4CF0DF00C50000136
:10067000D6250E6E0D50D7210F6E020E0E24D96EA8
:10068000000E0F20DA6EDE2A000EDD220150DE5C45
:100690000250DE58D8A04FEF83F051EF83F061EFA6
:1006A00083F01350090DF3CF08F0F4CF09F0085090
:1006B000D625D96E0950D721DA6EDF50FC0B02091E
:1006C000DF6E12C008F01350090DF3CF09F0F4CF1C
:1006D0000AF00950D625D96E0A50D721DA6E08469D
:1006E0000846DF500818F30B0818DF6E65EF84F03A
:1006F0001250D8A47EEF83F080EF83F065EF84F092
:100700001350090DF3CF08F0F4CF09F008500001A1
:10071000D625D96E0950D721DA6EDFA892EF83F083
:1007200094EF83F04FEF84F01350090DF3CF08F0EE
:10073000F4CF09F00850D6250A6E0950D7210B6E68
:10074000010E0A24D96E000E0B20DA6EDF50D8B4E9
:10075000ACEF83F0AEEF83F0C3EF83F01350090DDD
:10076000F3CF08F0F4CF09F00850D6250A6E0950EF
:10077000D7210B6E010E0A24D96E000E0B20DA6E03
:10078000DF0665EF84F01350090DF3CF08F0F4CFC6
:1007900009F00850D625D96E0950D721DA6EDF98B6
:1007A0001350090DF3CF08F0F4CF09F00850D62507
:1007B0000A6E0950D7210B6E040E0A24D96E000E62
:1007C0000B20DA6EDECF01F0DDCF02F0D8C003F0EF
:1007D000046A0AEC93F01350090DF3CF0CF0F4CF38
:1007E0000DF00C500001D6250E6E0D50D7210F6E66
:1007F000020E0E24D96E000E0F20DA6E0150DE5C60
:100800000250DE58D8B007EF84F009EF84F035EFDE
:1008100084F01350090DF3CF08F0F4CF09F008501D
:10082000D6250A6E0950D7210B6E010E0A24D96E07
:10083000000E0B20DA6EDF50D8A421EF84F023EFF6
:1008400084F065EF84F01350090DF3CF08F0F4CF76
:1008500009F00850D625D96E0950D721DA6EDF503D
:10086000FC0B0109DF6E65EF84F01350090DF3CF27
:1008700008F0F4CF09F00850D625D96E0950D721D9
:10088000DA6EDF50030B020AD8A449EF84F04BEF75
:1008900084F04DEF84F065EF84F065EF84F0135041
:1008A000090DF3CF08F0F4CF09F00850D6250A6EF1
:1008B0000950D7210B6E020E0A24D96E000E0B20B0
:1008C000DA6E000EDE6E000EDD6E132A040E136467
:1008D0006CEF84F06EEF84F074EF82F0000E000194
:1008E000D56F000ED46F120040C0D9FF41C0DAFFAF
:1008F000DECFF6FFDDCFF7FF000EF86E0800F550F3
:10090000250AD8A486EF84F088EF84F0C5EF85F03F
:1009100040C0D9FF41C0DAFFDE2A000EDD22000E02
:100920000001D16F000ED06FD0C05EF0D269D369E4
:10093000000E516E000E506ECAEF84F05E8240C011
:10094000D9FF41C0DAFFDE2A000EDD22CAEF84F0B3
:10095000000E516E010E506ECAEF84F040C0D9FFF8
:1009600041C0DAFFDECFF6FFDDCFF7FF000EF86EF5
:100970000800F550446E456A4550000AD8B4C3EFEC
:1009800084F0A8EF84F04450300AD8B49EEF84F08D
:10099000A8EF84F050505110D8B4D1EF84F0D3EFC9
:1009A00084F0AEEF84F040C0D9FF41C0DAFFDECF63
:1009B000F6FFDDCFF7FF000EF86E0800F5502A0AAB
:1009C000D8A4E5EF84F0E7EF84F011EF85F040C0A4
:1009D000D9FF41C0DAFFDE2A000EDD2242C0D9FF76
:1009E00043C0DAFFDFCF44F0020EDE26DFCF45F052
:1009F000000EDD2244C0D9FF45C0DAFFDECFD0F0C3
:100A0000DDCFD1F00001D1BF0AEF85F008EF85F00E
:100A100046EF85F05E80D06DD11FD8B0D12B46EF68
:100A200085F040C0D9FF41C0DAFFDECF07F0DDCF4F
:100A300008F00CEC8CF007C0D0F008C0D1F028EF23
:100A400085F040C0D9FF41C0DAFFDE2A000EDD226A
:100A500040C0D9FF41C0DAFFDECFF6FFDDCFF7FFA0
:100A6000000EF86E0800F5CF44F0D00E4424456E19
:100A7000466AFF0E4622465009E10A0E455CD8A0A0
:100A800044EF85F046EF85F021EF85F040C0D9FFB7
:100A900041C0DAFFDECF52F0DDCF53F052C0F6FF97
:100AA00053C0F7FF000EF86E0800F550750AD8A481
:100AB0005CEF85F05EEF85F0BCEF85F042C0D9FFBA
:100AC00043C0DAFFDFCF44F0020EDE26DFCF45F071
:100AD000000EDD2244C0D9FF45C0DAFFDECF46F06C
:100AE000DDCF47F046C048F047C049F04A6A4B6A3C
:100AF0004C6A4D6A4E6A4F6A010E5224446E000ED3
:100B00005320456E40C0D9FF41C0DAFF44C0DEFF2C
:100B100045C0DDFFA4EF85F03EC01EF03FC01FF0D2
:100B200048C020F049C021F04AC022F04BC023F059
:100B30004CC024F04DC025F04EC026F04FC027F029
:100B40004EEC89F0DBEF85F052C0F6FF53C0F7FFA3
:100B5000000EF86E0800F550446E456A4550000AD4
:100B6000D8B4B5EF85F0BCEF85F04450750AD8B421
:100B70008CEF85F0BCEF85F040C0D9FF41C0DAFFB3
:100B8000DE2A000EDD22DBEF85F040C0D9FF41C038
:100B9000DAFFDECFF6FFDDCFF7FF000EF86E0800BC
:100BA000F550036E046A3EC005F03FC006F084ECC9
:100BB0008EF0BCEF85F01200186E800E1860E3EF27
:100BC00085F0E5EF85F013EF87F0800E0860EBEF1E
:100BD00085F0EDEF85F013EF87F0400E0760F3EF3F
:100BE00085F0F5EF85F013EF87F0400E0960FBEF1D
:100BF00085F0FDEF85F013EF87F00750095C0B6E71
:100C00000B281A6E1850085C0B6E0B28146E0750D8
:100C1000070B166E1650075E1968080E0B6E000E55
:100C20000C6E16500B5E000E0C5A1A500D6E0E6AAA
:100C30000B500D5C0E50800A0F6E0C50800A0F583E
:100C4000D8B025EF86F027EF86F037EF86F01A5000
:100C500008080B6E0B280C6E30EF86F0D890193216
:100C60000C2E2EEF86F01AC015F03AEF86F01650D3
:100C70000808156E16280B6E40EF86F0D8901936CE
:100C80000B2E3EEF86F007C002F018503BEC97F0B9
:100C9000000E176E77EF86F0C7C001F00001C65155
:100CA00049EC96F01B6E0A28D8B459EF86F05BEF3A
:100CB00086F064EF86F01950FF0A1B140B6E0B5080
:100CC000106E116A6AEF86F01B5019100B6E0B50F4
:100CD000106E116A10C01BF0C7C001F01BC002F0FB
:100CE0000001C6512FEC96F00001C62B172A1450B4
:100CF000175CD8A07EEF86F080EF86F04CEF86F090
:100D0000A3EF86F0080E1526080E072607C002F08E
:100D100018503BEC97F0000E176E9AEF86F0C7C0A4
:100D200001F00AC002F00001C6512FEC96F000015C
:100D3000C62B172A1450175CD8A0A1EF86F0A3EF9A
:100D400086F08FEF86F015500B6E0C6A080E0B269E
:100D5000000E0C221A500D6E0E6A0B500D5C0E50D8
:100D6000800A0F6E0C50800A0F58D8B0BAEF86F088
:100D7000BCEF86F082EF86F01A50155CD8B0C3EF56
:100D800086F0C5EF86F013EF87F015501A5C0B6EF6
:100D9000FF0E0C6E0B2ACFEF86F0D8900C360B2E80
:100DA000CDEF86F00C50FF0A196E0750080F026E47
:100DB00018503BEC97F0000E176E0AEF87F0C7C093
:100DC00001F00001C65149EC96F01B6E0A28D8B418
:100DD000ECEF86F0EEEF86F0F7EF86F01950FF0AA1
:100DE0001B140B6E0B50126E136AFDEF86F01B5036
:100DF00019100B6E0B50126E136A12C01BF0C7C095
:100E000001F01BC002F00001C6512FEC96F000016A
:100E1000C62B172A1450175CD8A011EF87F013EFD8
:100E200087F0DFEF86F01200396E800E39601BEF1D
:100E300087F01DEF87F037EF88F0800E226023EFF8
:100E400087F025EF87F037EF88F0400E21602BEF19
:100E500087F02DEF87F037EF88F0400E236033EFF7
:100E600087F035EF87F037EF88F022503918D8A493
:100E70003CEF87F03EEF87F049EF87F023C01CF08E
:100E800039C01DF024C01EF02150F7EC95F037EF6B
:100E900088F023502118D8A450EF87F052EF87F044
:100EA0005DEF87F022C00DF021C00EF024C00FF0DE
:100EB0003950D1EC94F037EF88F02150235CD8A062
:100EC00064EF87F066EF87F06EEF87F02150235CC8
:100ED000266E276AD8A0270674EF87F02350215C7E
:100EE000266E276AD8A027063950225CD8A07BEF4F
:100EF00087F07DEF87F085EF87F03950225C286E10
:100F0000296AD8A029068BEF87F02250395C286E19
:100F1000296AD8A029062650285C2950800A256E07
:100F20002750800A2558D8A098EF87F09BEF87F0CC
:100F3000010E9CEF87F0000E356E3550D8B4A3EF4C
:100F400087F0A5EF87F0B1EF87F039C030F021C00E
:100F500039F030C021F022C031F023C022F031C07E
:100F600023F03950225CD8B0B8EF87F0BAEF87F0A1
:100F7000C6EF87F039C032F022C039F032C022F01B
:100F800021C033F023C021F033C023F03950225C5C
:100F9000346E2350215CD8A0D0EF87F0D2EF87F0D9
:100FA000DAEF87F02350215C2A6E2B6AD8A02B063B
:100FB000E0EF87F02150235C2A6E2B6AD8A02B0625
:100FC0002AC02EF034C001F0026A000E046E020E38
:100FD000036EE9EC8EF00150366E21C038F02350DC
:100FE000215CD8A0F6EF87F0F8EF87F0FCEF87F0F0
:100FF0002C682D6800EF88F0000E2D6E010E2C6E0F
:101000002CC02FF039C037F02EEF88F03550D8B40F
:101010000CEF88F00EEF88F017EF88F037C007F07C
:1010200024C008F0385052EC92F01EEF88F038C01F
:1010300007F024C008F0375052EC92F02E50365E84
:1010400036BE27EF88F025EF88F02DEF88F02F507F
:101050003824386E34503624366E372A3750225CA6
:10106000D8B035EF88F037EF88F006EF88F012003F
:10107000040E0001A56FD20EA46F010EA36FA20E85
:10108000A26F050EA16FF60EA06F040E9F6FB00E3B
:101090009E6F010E9D6FA90E9C6F200E9B6F610EBF
:1010A000A66F8B0EA76F000EA86F000EA96F030E20
:1010B0009A6F040E996F4F0EF66ECB0EF76E000E00
:1010C000F86E20EE86F0090E0900F5CFDEFFE80687
:1010D000FBE2770EF66ECB0EF76E000EF86E20EE8A
:1010E00090F0080E0900F5CFDEFFE806FBE2390EAE
:1010F000F66ECB0EF76E000EF86E20EE7BF00A0E49
:101100000900F5CFDEFFE806FBE2A2EC96F0000E48
:10111000096EFD0E0A6E050E0B6E080E0C6E010EAA
:101120000D6E010E0E6E3CEC91F0000E226E020E62
:10113000A7EC8FF0020E026E020E3BEC97F0BF0E92
:101140001E6EFF0E1F6EF3EC90F0000E216E1F0E50
:10115000226E0A0E236EFF0E246E000E84EC91F0B8
:10116000330E1C6E200E1D6E3F0E1E6EFF0E1F6E88
:10117000000EB4EC96F0360E026E020E3BEC97F0C9
:10118000000E096EFD0E0A6E050E0B6E080E0C6E3B
:10119000010E0D6E000E0E6E3CEC91F0CB0E1E6E2D
:1011A000FF0E1F6EF3EC90F0000E096EFD0E0A6E3E
:1011B000050E0B6E080E0C6E010E0D6E010E0E6EFE
:1011C0003CEC91F0360E026E250E3BEC97F0E50EEE
:1011D0001E6EFF0E1F6EF3EC90F0330E216E3D0E6F
:1011E000226E3F0E236EFF0E246E230E84EC91F0D0
:1011F0000D0E026E000E3BEC97F0990E0001796F18
:10120000000E7A6FB2EC8DF0160E026E000E3BEC03
:1012100097F0990E0001796F000E7A6F2CEC94F024
:101220001F0E026E000E3BEC97F0990E0001796FD5
:10123000000E7A6F5CEC95F0280E026E000E3BEC0F
:1012400097F0990E0001796F000E7A6F01EC94F01F
:101250001F0E026E440E3BEC97F0990E0001796F61
:10126000000E7A6FBBEC8CF0280E026E440E3BEC45
:1012700097F0990E0001796F000E7A6F18EC95F0D7
:101280001F0E216E420E226E2F0E236EFF0E246E55
:10129000420E14EC87F076EC93F012000001D3BFFD
:1012A00054EF89F056EF89F057EF89F05E92D3BF83
:1012B00064EF89F0D35106E1D205D8B062EF89F02E
:1012C00064EF89F06AEF89F0000E316E010E306E26
:1012D0006EEF89F0D2C030F0D3C031F0D0C032F020
:1012E000D1C033F020C034F021C035F022C036F038
:1012F00023C037F024C038F025C039F026C03AF0BA
:1013000027C03BF0000E3D6E1F0E3C6E000E01012B
:101310004C6F01EF8AF03C06D8A03D062D0E3C2410
:10132000D96E010E3D20DA6E34C001F035C002F0F6
:1013300036C003F037C004F038C005F039C006F0FD
:101340003AC007F03BC008F00A0E096E000E0A6EA4
:10135000000E0B6E000E0C6E000E0D6E000E0E6E6B
:10136000000E0F6E000E106E1CEC8EF001C028F007
:1013700002C029F003C02AF004C02BF005C02CF0F5
:1013800006C02DF007C02EF008C02FF02850300FF7
:10139000DF6E3006D8A031063206D8A0330634C03E
:1013A00001F035C002F036C003F037C004F038C099
:1013B00005F039C006F03AC007F03BC008F00A0E4D
:1013C000096E000E0A6E000E0B6E000E0C6E000E03
:1013D0000D6E000E0E6E000E0F6E000E106E3AECCB
:1013E0008DF001C034F002C035F003C036F004C007
:1013F00037F005C038F006C039F007C03AF008C031
:101400003BF03C503D10D8B408EF8AF00AEF8AF068
:101410003AEF8AF034503510361037103810391042
:101420003A103B10D8A417EF8AF019EF8AF08BEF2F
:1014300089F031BE26EF8AF0315006E13004D8B091
:1014400024EF8AF026EF8AF08BEF89F033BE31EF7C
:101450008AF0335008E13204D8A031EF8AF033EF3C
:101460008AF03AEF8AF05EB238EF8AF03AEF8AF00B
:101470008BEF89F01EC013F01FC014F02D0E3C241A
:10148000156E010E3D20166E32C017F033C018F0F5
:10149000FFEC8FF01200948C948E98809888988638
:1014A0000001D851D8A457EF8AF059EF8AF05FEFC6
:1014B0008AF0000E086E0A0E076E62EF8AF0D8C03E
:1014C00007F0086A07C0D8F0D951D8A46AEF8AF0AB
:1014D0006CEF8AF072EF8AF0000E0A6E140E096E3D
:1014E00075EF8AF0D9C009F00A6A09C0D9F0DA515B
:1014F000DB11D8A47EEF8AF080EF8AF086EF8AF0C5
:10150000030E0C6EE80E0B6E8AEF8AF0DAC00BF059
:10151000DBC00CF00BC0DAF00CC0DBF0000E0F6E7D
:101520000F50090DF3CF01F0F4CF02F00150D62592
:10153000D96E0250D721DA6EDF980F50090DF3CF24
:1015400001F0F4CF02F00150D625D96E0250D72118
:10155000DA6EF30EDF160F50090DF3CF01F0F4CF62
:1015600002F00150D625036E0250D721046E020E00
:101570000324D96E000E0420DA6E000EDE6E000E1B
:10158000DD6E0F50090DF3CF01F0F4CF02F00150E2
:10159000D625036E0250D721046E010E0324D96EA6
:1015A000000E0420DA6E000EDF6E0F50090DF3CF2F
:1015B00001F0F4CF02F00150D625036E0250D7217E
:1015C000046E040E0324D96E000E0420DA6EDE5081
:1015D000DE10D8A4EEEF8AF0F0EF8AF0F6EF8AF092
:1015E000DAC00DF0DBC00EF00CEF8BF00F50090DE0
:1015F000F3CF01F0F4CF02F00150D625036E025074
:10160000D721046E040E0324D96E000E0420DA6E76
:10161000DECF0DF0DDCF0EF00F50090DF3CF01F04E
:10162000F4CF02F00150D625036E0250D721046E8C
:10163000040E0324D96E000E0420DA6E0DC0DEFF06
:101640000EC0DDFF0F2A040E0F6429EF8BF02BEF85
:101650008BF090EF8AF0120057EC97F05AEC97F06D
:101660000EEC92F033EC97F04BEC97F021EC97F006
:101670004BEC8AF0E5EC96F0898C38EC88F0000EA3
:101680000001B96F64EC82F0040E13EC96F00009CF
:10169000D8B44DEF8BF04FEF8BF042EF8BF0A9EC0D
:1016A00094F00001B951D8B458EF8BF05AEF8BF099
:1016B000B1EF8BF0330E1C6E200E1D6E3F0E1E6EB2
:1016C000FF0E1F6E000EB4EC96F0000E096EFD0EBC
:1016D0000A6E050E0B6E080E0C6E010E0D6E000EDE
:1016E0000E6E3CEC91F0360E026E020E3BEC97F063
:1016F000CB0E1E6EFF0E1F6EF3EC90F0330E1C6EC1
:101700003D0E1D6E3F0E1E6E000E1F6E230EB4ECBE
:1017100096F0330E216E3D0E226E3F0E236EFF0EAD
:10172000246E230E84EC91F0000E096EFD0E0A6EFD
:10173000050E0B6E080E0C6E010E0D6E010E0E6E78
:101740003CEC91F0360E026E250E3BEC97F0E50E68
:101750001E6EFF0E1F6EF3EC90F076EC93F03FEFF1
:101760008BF0010EB96F330E1C6E200E1D6E3F0EF6
:101770001E6E000E1F6E000EB4EC96F0330E216E3E
:10178000200E226E3F0E236EFF0E246E000E84ECA0
:1017900091F0000E096EFD0E0A6E050E0B6E080E1E
:1017A0000C6E010E0D6E010E0E6E3CEC91F0360EBD
:1017B000026E020E3BEC97F0CB0E1E6EFF0E1F6EFC
:1017C000F3EC90F0330E1C6E3D0E1D6E3F0E1E6E40
:1017D000FF0E1F6E230EB4EC96F0000E096EFD0E88
:1017E0000A6E050E0B6E080E0C6E010E0D6E000ECD
:1017F0000E6E3CEC91F0360E026E250E3BEC97F02F
:10180000E50E1E6EFF0E1F6EF3EC90F076EC93F07B
:1018100042EF8BF016EF00F0000E0F6E000E0E6E12
:10182000000E0D6E000E0C6E18EF8CF0074A082AA1
:1018300007C0F6FF08C0F7FF000EF86E0800F5506D
:10184000200AD8B426EF8CF028EF8CF016EF8CF03D
:1018500007C0F6FF08C0F7FF000EF86E0800F5CFCE
:1018600009F0F70E09240A6E0B6AFF0E0B220B50CB
:1018700009E1050E0A5CD8A040EF8CF042EF8CF035
:1018800016EF8CF04CEF8CF0000E0D6E010E0C6E0E
:10189000074A082A85EF8CF007C0F6FF08C0F7FF5B
:1018A000000EF86E0800F550096E0A6A0A50000A28
:1018B000D8B45DEF8CF085EF8CF009502B0AD8B4CA
:1018C00048EF8CF0060AD8B444EF8CF085EF8CF02A
:1018D0000EC001F00FC002F0000E046E0A0E036E7F
:1018E0008FEC96F007C0F6FF08C0F7FF000EF86E09
:1018F0000800F550015E000E025A300E01240E6EF3
:10190000000E02200F6E48EF8CF007C0F6FF08C0F3
:10191000F7FF000EF86E0800F5CF09F0D00E09248D
:101920000A6E0B6AFF0E0B220B5009E10A0E0A5CCD
:10193000D8A09DEF8CF09FEF8CF068EF8CF00C50EE
:101940000D10D8A4A6EF8CF0A8EF8CF0B6EF8CF0B9
:101950000EC009F00FC00AF0091E0A1E094A0A2A21
:1019600009C007F00AC008F0BAEF8CF00EC007F00B
:101970000FC008F01200110E00017925606F000EF3
:101980007A21616F650E626FFF0E636F20EE0DF0BE
:101990007951D9267A51DA22DECF0AF0DECF0BF068
:1019A000DECF0CF0DECF0DF0100E0E6E0E0E0F6EB1
:1019B000000E106E000E116E54EC90F00AC064F030
:1019C0000BC065F0100E056E0E0E066E000E076E53
:1019D000000E086E000120EE0DF07951D9267A51E3
:1019E000DA22DECF01F0DECF02F0DECF03F0DECF71
:1019F00004F0CAEC91F001C00AF002C00BF003C081
:101A00000CF004C00DF03C0E0E6E000E0F6E000EBA
:101A1000106E000E116E54EC90F00AC066F00BC010
:101A200067F0000120EE0DF07951D9267A51DA22C3
:101A3000DECF01F0DECF02F0DECF03F0DECF04F028
:101A40003C0E056E000E066E000E076E000E086E50
:101A5000CAEC91F001C068F002C069F057EC94F054
:101A6000110E000179251E6E000E7A211F6EF3EC17
:101A700090F0120020EE11F0070EDE6AE806FDE29B
:101A800009500A100B100C100D100E100F10101032
:101A9000D8B44DEF8DF04FEF8DF0A1EF8DF0010E2A
:101AA000196E5DEF8DF0D89009360A360B360C367C
:101AB0000D360E360F361036192A10AE62EF8DF045
:101AC00064EF8DF053EF8DF0D89011361236133647
:101AD000143615361636173618360950015C0A507A
:101AE00002580B5003580C5004580D5005580E5016
:101AF00006580F50075810500858D8A082EF8DF0A4
:101B000084EF8DF095EF8DF00950015E0A50025A76
:101B10000B50035A0C50045A0D50055A0E50065AD9
:101B20000F50075A1050085A1180D89010320F32B7
:101B30000E320D320C320B320A320932192E64EF9A
:101B40008DF011C001F012C002F013C003F014C0F8
:101B500004F015C005F016C006F017C007F018C055
:101B600008F01200110E00017925606F000E7A2135
:101B7000616F400E626FFF0E636F20EE03F07951CC
:101B8000D9267A51DA22DECF01F0DDCF02F0000E45
:101B9000046E640E036E0AEC93F001C064F002C0A0
:101BA00065F0000120EE03F07951D9267A51DA224E
:101BB000DECF01F0DDCF02F0000E046E640E036E86
:101BC00044EC93F001C066F002C067F0000120EE23
:101BD00009F07951D9267A51DA22DECF01F0DDCF32
:101BE00002F0000E046E640E036E0AEC93F001C066
:101BF00068F002C069F0000120EE09F07951D926A1
:101C00007A51DA22DECF01F0DDCF02F0000E046E51
:101C1000640E036E44EC93F001C06AF002C06BF0F6
:101C200057EC94F0110E000179251E6E000E7A21FA
:101C30001F6EF3EC90F0120009500A100B100C10FC
:101C40000D100E100F101010D8B429EF8EF02BEFDE
:101C50008EF073EF8EF0010E116E39EF8EF0D8908A
:101C600009360A360B360C360D360E360F36103660
:101C7000112A10AE3EEF8EF040EF8EF02FEF8EF077
:101C80000950015C0A5002580B5003580C5004587C
:101C90000D5005580E5006580F5007581050085850
:101CA000D8A055EF8EF057EF8EF067EF8EF0095009
:101CB000015E0A50025A0B50035A0C50045A0D5040
:101CC000055A0E50065A0F50075A1050085AD8900D
:101CD00010320F320E320D320C320B320A32093210
:101CE000112E40EF8EF001C001F002C002F003C0DF
:101CF00003F004C004F005C005F006C006F007C0FC
:101D000007F008C008F0120005500610D8B48BEF99
:101D10008EF08DEF8EF096EF8EF005500610D8A461
:101D200094EF8EF096EF8EF09BEF8EF0035052EC16
:101D300097F0E8EF8EF020EE09F00550D926065016
:101D4000DA22DE50DE10D8B4A8EF8EF0AAEF8EF0C3
:101D5000C5EF8EF020EE09F00550D9260650DA22A4
:101D600010EE03F00550E1260650E222DE50E65C5C
:101D7000E650800A0B6EDE50800A0B58D8B0C3EFD5
:101D80008EF0C5EF8EF0E8EF8EF020EE03F00550F8
:101D9000D9260650DA22DECF07F0DDCF08F005C0E5
:101DA000D9FF06C0DAFFDECF09F0DDCF0AF0075019
:101DB0000924D96E08500A20DA6E03C0DFFF20EE36
:101DC00003F00550D9260650DA22DE2A000EDD2265
:101DD0001200000E066E04BEF2EF8EF0F0EF8EF0F1
:101DE000F8EF8EF0036C041ED8B0042A010E066EC4
:101DF00002BEFFEF8EF0FDEF8EF005EF8FF0016C6D
:101E0000021ED8B0022A010E061A000E086E000E3D
:101E1000076E03500410D8B410EF8FF012EF8FF05C
:101E20003AEF8FF0010E056E1AEF8FF0D89003365F
:101E30000436052A04AE1FEF8FF021EF8FF016EF66
:101E40008FF0D890073608360350015C04500258D2
:101E5000D8A02DEF8FF02FEF8FF034EF8FF00350DD
:101E6000015E0450025A0780D89004320332052ED6
:101E700021EF8FF00650D8B440EF8FF042EF8FF093
:101E800046EF8FF0076C081ED8B0082A07C001F093
:101E900008C002F01200016E01A051EF8FF053EF65
:101EA0008FF056EF8FF08D8057EF8FF08D9001A25D
:101EB0005CEF8FF05EEF8FF061EF8FF08D8262EF5D
:101EC0008FF08D9201A467EF8FF069EF8FF06CEFC8
:101ED0008FF08D846DEF8FF08D9401A672EF8FF0EF
:101EE00074EF8FF077EF8FF08D8678EF8FF08D960F
:101EF00001A87DEF8FF07FEF8FF082EF8FF08D885C
:101F000083EF8FF08D9801AA88EF8FF08AEF8FF022
:101F10008DEF8FF08D8A8EEF8FF08D9A01AC93EF5D
:101F20008FF095EF8FF098EF8FF08D8C99EF8FF009
:101F30008D9C01AE9EEF8FF0A0EF8FF0A3EF8FF09E
:101F40008D8EA4EF8FF08D9E2AEC97F01200256EF7
:101F5000B8EF8FF0020E026E230E3BEC97F0E5EF28
:101F60008FF0020E026E660E3BEC97F0E5EF8FF0FD
:101F70002250236E246A2450000AD8B4C2EF8FF096
:101F8000E5EF8FF02350000AD8B4AAEF8FF0010AD2
:101F9000D8B4B1EF8FF0E5EF8FF0DB0E1E6EFF0EC1
:101FA0001F6EF3EC90F0FEEF8FF0D10E1E6EFF0E61
:101FB0001F6EF3EC90F0FEEF8FF0D60E1E6EFF0E4C
:101FC0001F6EF3EC90F0FEEF8FF02550236E246A25
:101FD0002450000AD8B4EFEF8FF0FEEF8FF02350BB
:101FE000000AD8B4CDEF8FF0010AD8B4D5EF8FF046
:101FF000030AD8B4DDEF8FF0FEEF8FF012005EA081
:1020000004EF90F006EF90F010EF90F015C00CF098
:1020100016C00DF013C00EF014C00FF03AEC95F09E
:1020200018BE15EF90F017EF90F01DEF90F017C06D
:102030001CF018C01DF021EF90F0000E1D6E000E78
:102040001C6E000E1B6E000E1A6E33EF90F0000E29
:10205000046E200E036E13C005F014C006F084EC6D
:102060008EF01A4A1B2A1C501A5C1B50800A196EEB
:102070001D50800A1958D8A040EF90F042EF90F020
:1020800027EF90F05EB047EF90F049EF90F053EFFC
:1020900090F015C00CF016C00DF013C00EF014C077
:1020A0000FF03AEC95F01200000E126E000E136E57
:1020B000000E146E000E156E0E500F101010111041
:1020C000D8B465EF90F067EF90F09DEF90F0010EBF
:1020D000166E71EF90F0D8900E360F36103611361E
:1020E000162A11AE76EF90F078EF90F06BEF90F04B
:1020F000D89012361336143615360E500A5C0F502F
:102100000B5810500C5811500D58D8A08AEF90F071
:102110008CEF90F095EF90F00E500A5E0F500B5A36
:1021200010500C5A11500D5A1280D89011321032A2
:102130000F320E32162E78EF90F012C00AF013C054
:102140000BF014C00CF015C00DF01200146E020E4E
:102150000F18D8B4AEEF90F0B0EF90F0B5EF90F06C
:102160000F50D4EC93F0BBEF90F0000ED4EC93F052
:10217000010ED4EC93F00F509DEC95F08C888C966A
:102180000001C805D8B4C7EF90F0C9EF90F0D2EFC6
:1021900090F01450106E116A101C126E111C136E08
:1021A000D5EF90F014C012F0136A12504BEC8FF080
:1021B0000001C62B400EC619D8A4E1EF90F0E3EF62
:1021C00090F0E8EF90F0C651CFEC92F0F2EF90F083
:1021D0007F0EC665EEEF90F0F0EF90F0F2EF90F02A
:1021E0007F0EC66F120022EF91F00001CB51C6C0E6
:1021F00020F0216A2026000E212221BE09EF91F055
:10220000215009E1800E205CD8A009EF91F00BEF7E
:1022100091F00DEF91F03BEF91F01EC0F6FF1FC063
:10222000F7FF000EF86E0F0EF76403D00800F550AC
:1022300005D0F6CFE9FFF7CFEAFFEF5000EC80F0D2
:102240001E4A1F2A1EC0F6FF1FC0F7FF000EF86EC1
:102250000F0EF76403D00800F55005D0F6CFE9FF64
:10226000F7CFEAFFEF500009D8A439EF91F03BEF28
:1022700091F0F5EF90F01200800E0B6042EF91F0BC
:1022800044EF91F083EF91F0400E0C604AEF91F033
:102290004CEF91F083EF91F00D50D8B452EF91F0E4
:1022A00054EF91F05CEF91F00D04D8A45AEF91F047
:1022B0005CEF91F083EF91F009C0C9F00AC0CAF059
:1022C0000BC0CBF00CC0CCF00CC00FF0070E0F16FB
:1022D000D8A46DEF91F071EF91F0106A102A72EFAF
:1022E00091F0106A0CC001F0026A000E046E080E34
:1022F000036EE9EC8EF0015010240001CD6F0DC08B
:10230000CEF00EC0CFF01200256E800E25608BEF50
:1023100091F08DEF91F0C9EF91F0800E226093EF74
:1023200091F095EF91F0C9EF91F0400E21609BEF95
:1023300091F09DEF91F0C9EF91F0400E2360A3EF73
:1023400091F0A5EF91F0C9EF91F022C00DF021C0FE
:102350000EF024C00FF02550D1EC94F022C00DF007
:1023600023C00EF024C00FF02550D1EC94F023C010
:102370001CF025C01DF024C01EF02150F7EC95F094
:1023800023C01CF022C01DF024C01EF02150F7EC29
:1023900095F012000550061007100810D8B4D3EFBE
:1023A00091F0D5EF91F005EF92F0010E096EDFEF9D
:1023B00091F0D8900536063607360836092A08AE59
:1023C000E4EF91F0E6EF91F0D9EF91F00550015C68
:1023D000065002580750035808500458D8A0F3EF8D
:1023E00091F0F5EF91F0FDEF91F00550015E065090
:1023F000025A0750035A0850045AD890083207323C
:1024000006320532092EE6EF91F001C001F002C05C
:1024100002F003C003F004C004F0120096909692FC
:10242000969496969698969A969C969E9590959246
:102430009598959E959695948C988C968C9E8C9458
:10244000270E086EF50EE82EFED7082EFCD700F0FA
:102450008C84020E096E860E086E990EE82EFED749
:10246000082EFCD7092EFAD700F0020E066E3F0E9A
:10247000BCEC95F0020E066EC00EBCEC95F0000EA2
:10248000026E000E3BEC97F0010E0001C86F000ECB
:10249000CD6FCDC0CCF0CCC0CBF0CBC0C7F0C7C0A7
:1024A000C6F012000B6E07C002F00B503BEC97F029
:1024B000C7C001F00001C65149EC96F00C6E082827
:1024C000D8A465EF92F067EF92F079EF92F007C031
:1024D00009F0070E0916010E0A6E092A72EF92F032
:1024E000D8900A36092E70EF92F00A500C128AEF3B
:1024F00092F007C009F0070E0916010E0A6E092AAC
:1025000084EF92F0D8900A36092E82EF92F00A50AA
:10251000FF0A0C16C7C001F00CC002F00001C65142
:102520002FEC96F01200C40EF66E2C0EF76E010E14
:10253000F86E01EE00F010EE2DF00900F5CFEEFF81
:10254000E550E150FAE1860EF66E2E0EF76E010EA2
:10255000F86E00EED6F010EE0FF00900F5CFEEFFAA
:10256000E550E150FAE101EE4DF014EE00F0EE6AB4
:10257000E550E150FCE1E250FAE101EE2DF0200ED1
:10258000EE6AE806FDE100EEBAF01C0EEE6AE8061F
:10259000FDE15E6A5F905F9200012CEF8BF00E6EA2
:1025A000800E0E60D6EF92F0D8EF92F009EF93F024
:1025B000400E0E60DEEF92F0E1EF92F0010EE2EFDE
:1025C00092F0000E0D6E0D50D8B4E9EF92F0EBEFE3
:1025D00092F0F8EF92F0C00E0E24086E096AFF0E1A
