:0400000014EF00F009
:100008005682F2A40AEF00F00CEF00F012EF00F0B5
:10001800FD0ED76E110ED66E552AF2945692110027
:04002800CEEF8DF09A
:10CB6600004375723A313035302F313130306D41F6
:10CB760000566F6C3A332C33352F342C3232560034
:10CB86004361703A313534306D41680054696D65E2
:10CB96003A316833356D004361703A3534306D4152
:10CBA60068004379636C653A322F34004379636CCD
:10CBB600653A322F34004375723A3233306D410094
:10CBC600566F6C3A332C3335560054656D703A33D4
:10CBD6003543000E000000000000000000000000C9
:10CBE600000000000000000000000000000000003F
:10CBF600000000000000000000000000000000002F
:10CC0600000000000000000000000000000000001E
:10CC1600000000000000000000000000000000000E
:10CC260000000000000000000000000000000000FE
:10CC360000000000000000000000000000000000EE
:10CC4600050000000000000000FC7F0E00FC7F0FC6
:10CC560000FC7F070000000000000000000000004C
:10CC660000000000000000000000000000000000BE
:10CC760000000000000000000000000000000000AE
:10CC8600000000000000000000000000000000009E
:10CC9600000000000000000000000000000000008E
:10CCA6000000000000000000000000000009000075
:10CCB600000000000000FC010000FC010000000074
:10CCC60000000000000000000000FC010000FC0164
:10CCD600000000000000000000000000000000004E
:10CCE600000000000000000000000000000000003E
:10CCF600000000000000000000000000000000002E
:10CD0600000000000000000000000000000000001D
:10CD160000000000000000000000110000000000FC
:10CD26006000008061000080610C0080E10F0080DF
:10CD3600FD0F00807F0000F86F0000FC610C008C86
:10CD4600E10F0080FD0F00807F0000F86F0000FCFF
:10CD56006100008C6100008021000080010000005D
:10CD660000000000000000000000000000000000BD
:10CD760000000000000000000000000000000000AD
:10CD86000000000000000011000000000083010008
:10CD9600C0C70300E08F0300700C0700300C0600CC
:10CDA600180C060018040600FFFF7F00FEFF3F0078
:10CDB6001806060018060300180603003886030046
:10CDC60070FE010070FC000000780000000000000A
:10CDD600000000000000000000000000000000004D
:10CDE600000000000000000000000000000000003D
:10CDF600000000001500000000E0000000F0010047
:10CE060000F80300001C0304000C030E008C830FC3
:10CE160000FCC10300F8F00000707C0000001E005A
:10CE26000080070300E0830700F0C00F003CC00C41
:10CE3600001C600C0008600C000060060000E007A3
:10CE46000000C00300008001000000000000000098
:10CE560000000000000000000000000000000000CC
:10CE660000160000000000E0030000F0070000F8D4
:10CE76000700701C0E00F80E0C00F80F0C00DC0703
:10CE86000C008C070C000C0F0C000C1F06008C1FEE
:10CE96000600CC390700F8710300F8F0030070E0D3
:10CEA600010000E0010000F80300003C0700001844
:10CEB6000E0000000E000000070000000000000049
:10CEC6000000000000000000000000000000040058
:10CED60000000000000000FC010000FC0100000052
:10CEE600000000000000000000000000000000003C
:10CEF600000000000000000000000000000000002C
:10CF0600000000000000000000000000000000001B
:10CF1600000000000000000000000000000000000B
:10CF260000000000000000000000000000000000FB
:10CF360000000000000000000000000B00000000E0
:10CF46000000000000FC030000FF1F00C0FF3F00C0
:10CF5600E003FC00F000E0013800C0013C00800363
:10CF66001C00800308000000000000000000000014
:10CF760000000000000000000000000000000000AB
:10CF8600000000000000000000000000000000009B
:10CF9600000000000000000000000000000000008B
:10CFA60000000000000000000A0000000008000069
:10CFB600001C0080033C0080033800C001F000F034
:10CFC60001E003FC00C0FF3F0000FF1F0000FC0360
:10CFD600000000000000000000000000000000004B
:10CFE600000000000000000000000000000000003B
:10CFF600000000000000000000000000000000002B
:10D00600000000000000000000000000000000001A
:10D0160000000000000A00000000C0000000C00080
:10D0260000004C020000D8030000F0010000FC00E4
:10D036000000AC01000030030000300000000000DA
:10D0460000000000000000000000000000000000DA
:10D0560000000000000000000000000000000000CA
:10D0660000000000000000000000000000000000BA
:10D0760000000000000000000000000000000000AA
:10D0860000000E00000000004000000060000000EC
:10D09600600000006000000060000000FF0F00005C
:10D0A600FF0F0000FF0F000060000000600000009E
:10D0B600600000006000000060000000000000004A
:10D0C600000000000000000000000000000000005A
:10D0D600000000000000000000000000000000004A
:10D0E6000000000000000000000000000000000535
:10D0F600000000000000660000006F0000003F0016
:10D1060000001E00000000000000000000000000FB
:10D116000000000000000000000000000000000009
:10D1260000000000000000000000000000000000F9
:10D1360000000000000000000000000000000000E9
:10D1460000000000000000000000000000000000D9
:10D156000000000000000000000000000A000000BF
:10D1660000003000000070000000300000003000B9
:10D1760000003000000030000000300000003000E9
:10D186000000300000000000000000000000000069
:10D196000000000000000000000000000000000089
:10D1A6000000000000000000000000000000000079
:10D1B6000000000000000000000000000000000069
:10D1C6000000000000000000000500000000000054
:10D1D600000000000E0000000F0000000700000025
:10D1E6000000000000000000000000000000000039
:10D1F6000000000000000000000000000000000029
:10D206000000000000000000000000000000000018
:10D216000000000000000000000000000000000008
:10D2260000000000000000000000000000000000F8
:10D236000000000000000B000000000000040000D9
:10D24600000F0000C00F0000F80100007E00008003
:10D256001F0000E0070000FC0100007C0000001C2D
:10D2660000000000000000000000000000000000B8
:10D2760000000000000000000000000000000000A8
:10D286000000000000000000000000000000000098
:10D296000000000000000000000000000000000088
:10D2A600000000160000000000F8010000FF030067
:10D2B60080FF0700C0030700E0010E0070000C00AD
:10D2C60030000C0038000C0018000C0008000C00A0
:10D2D6000C000C000C0006000C0006000C000700F9
:10D2E6000C0003001C80030018C0010038F0000089
:10D2F600F07F0000E03F0000C00F000000000000CB
:10D306000000000000000000000000000000000017
:10D3160010000000000000000000000000000000F7
:10D32600000001000080030000C0030000C00100EF
:10D3360000E0000000E00000007000000070000047
:10D346000038000000F8FF0F00FCFF0F00FCFF0F85
:10D3560000000000000000000000000000000000C7
:10D3660000000000000000000000000000000000B7
:10D376000000000000000000000000000014000093
:10D3860000000000000000000000E0000E00E000C9
:10D396000F00F0C00F0038E00D0018E00C00187008
:10D3A6000C000C300C000C380C000C380C000C1C5B
:10D3B6000C000C1C0C000C0C0C000C0E0C00180FB6
:10D3C6000C00F8070E00F8030F00E0010E00000045
:10D3D6000000000000000000000000000000000047
:10D3E6000000000000000000000015000000000022
:10D3F60000000000C003007CC007007CC007007C62
:10D40600000E000C000C000C000C000C0E0C000CA6
:10D41600060C000C070C000C070C008C030C00CC4F
:10D42600030600EC0306007C0306003C0303001C15
:10D43600C703000CFE010000FE0000007C00000097
:10D4460000000000000000000000000000000000D6
:10D45600000000000000001600C0000000E0000010
:10D4660000F0000000F8000000F8000000FC0000DA
:10D4760000EE00000067000080630000C06100004D
:10D48600E06000007060000038700000FCFF0F00D4
:10D49600FCFF0F00FCFF0F00003000000030000012
:10D4A600003000000038000000380000003800009E
:10D4B6000000000000000000000000000000000066
:10D4C6000000000015000000000000000000080336
:10D4D60000F81F0700F81F0700F80D0E00080E0CD5
:10D4E6000008060C0008060C0008020C0008030CD5
:10D4F6000008030C0008030C00080306000C0306D2
:10D50600000C0307000C0703000CC603000CFE0109
:10D516000000FC0000007800000000000000000091
:10D5260000000000000000000000000000000000F5
:10D536000016000000000078000000FE030080FFD7
:10D546000300C0C70700E0E1070060700E007030FE
:10D556000C0038380C00181C0C00180C0C000C0CB5
:10D566000C000C060C000C060E000C0606000C0641
:10D5760006000C0607000C060300388E030078FC34
:10D58600010030FC000000780000000000000000F0
:10D59600000000000000000000000000000016006F
:10D5A6000000000000000000000000F8010000FC80
:10D5B600010000FC0000000C0000000C0000000C44
:10D5C6000000000C000E000C800F000CE007000CA1
:10D5D600F001000CFC00000C3E00008C1F0000EC6B
:10D5E600070000FC030000FC0000003C0000000CEB
:10D5F6000000000400000000000000000000000021
:10D6060000000000000000000000001600000000FE
:10D6160000C0010000E0030000F00700C07906002A
:10D62600F03B0E00F81F0C00380E0C00180C0C0016
:10D636001C0C0C000C060C000C060C000C0606005C
:10D646000C0606000C0606001C070300F80703007C
:10D65600F886030070CE010000FC000000FC00000C
:10D66600003800000000000000000000000000007C
:10D67600000000000000000016000000000000018D
:10D686000080830300E0870700F00F0700700C0E90
:10D6960000381C0C0018180C001C180C000C180C78
:10D6A600000C180C000C180C000C1804000C0C06CE
:10D6B600000C0C06001C0C07001886030038C70374
:10D6C60000F0E30100F0FF0000E07F0000001F0013
:10D6D6000000000000000000000000000000000044
:10D6E6000000000000050000000000000000000C23
:10D6F6000E00001E0F00000C0700000000000000D6
:10D706000000000000000000000000000000000013
:10D716000000000000000000000000000000000003
:10D7260000000000000000000000000000000000F3
:10D7360000000000000000000000000000000000E3
:10D7460000000000000000000000000000000000D3
:10D756000000050000000000006600000C6F0000DD
:10D766001E3F00000E1E000000000000000000002A
:10D7760000000000000000000000000000000000A3
:10D786000000000000000000000000000000000093
:10D796000000000000000000000000000000000083
:10D7A6000000000000000000000000000000000073
:10D7B6000000000000000000000000000000000D56
:10D7C6000000000000000000006000000070000083
:10D7D60000F0000000F8010000D80100009C0300E2
:10D7E600000C0300000E070000070E0000070E00E5
:10D7F600000202000000000000000000000000001F
:10D806000000000000000000000000000000000012
:10D816000000000000000000000000000000000002
:10D826000000000000000000000000000D000000E5
:10D8360000008C0100008C0100008C0100008C01AE
:10D8460000008C0100008C0100008C0100008C019E
:10D8560000008C0100008C0100008C0100008C018E
:10D8660000000000000000000000000000000000B2
:10D8760000000000000000000000000000000000A2
:10D886000000000000000000000000000000000092
:10D896000000000000000000000D00000000000075
:10D8A60000000002020000070E0000070E00000E36
:10D8B6000700000C0300009C030000D8010000F8DC
:10D8C600010000F000000070000000600000000091
:10D8D6000000000000000000000000000000000042
:10D8E6000000000000000000000000000000000032
:10D8F6000000000000000000000000000000000022
:10D906000000000000001000000000200000007071
:10D91600000000F00000007870000018F800001801
:10D92600FC1C000CDC1E000CCE0E000CC700000C0C
:10D93600F700008C730000DC210000F8010000F8FD
:10D946000000007000000000000000000000000061
:10D9560000000000000000000000000000000000C1
:10D9660000000000000000000000000000000000B1
:10D976000000001B000000000080070000E01F0000
:10D9860000783800001C3000000E700000066700AA
:10D9960000C3670080E36F0080716C0080396C0003
:10D9A600C0186C00C00C6600C00C36006004330062
:10D9B60060863B006086110060C6070060FE0F00AF
:10D9C60060FE0F00600E0C0060000C00C000060038
:10D9D600C00106008083030000FF0100007C0000F8
:10D9E6001500000E0000800F0000C00F0000F001BF
:10D9F6000000780000003E0000001F0000801F00AD
:10DA060000E01B0000F81800007C1800007C1800DD
:10DA160000F8180000E01B0000801F0000001F0037
:10DA260000007C000000F8010000E00F0000800FFD
:10DA36000000000E000000000000000000000000D2
:10DA460000000000000000000000000000150000BB
:10DA5600000000000000F8FF0F00FCFF0F00F8FFB9
:10DA66000F0018060C0018060C0018070C000C070F
:10DA760004000C0306000C0306008C0306008C034E
:10DA86000700CC030300CC030300FC83030078C328
:10DA9600010038E7010000FE0000007E0000001CC7
:10DAA6000000000000000000000000000000000070
:10DAB600000000000000000000001200000000004E
:10DAC6007C000000FF0100C0FF0700E0830700F0B4
:10DAD600000E0030000E0038000C0018000C000C80
:10DAE600000C000C000C000C000C000C0006000CD6
:10DAF6000007000C00070018C0030038C0010038FA
:10DB0600C00100000000000000000000000000004E
:10DB160000000000000000000000000000000000FF
:10DB260000000000000000150000000000000000DA
:10DB3600FCFF0F00FCFF0F00FCFF0F0038000C007D
:10DB460018000C0018000C001C0006000C00060053
:10DB56000C0006000C0007000C0003000C800300FC
:10DB66000C8003001CC0010018E0010078F80000DA
:10DB7600F07F0000E01F0000C0070000000000006A
:10DB8600000000000000000000000000000000008F
:10DB960000000000130000000010000000FCFF0F52
:10DBA60000FCFF0F00FCFF0F00180C0600180C0607
:10DBB60000180C0600180C0600180C0600180C06B7
:10DBC60000180C0600180C0600180E06001C0E069F
:10DBD600001C0406001C00070000000700000002ED
:10DBE600000000000000000000000000000000002F
:10DBF600000000000000000000000000000000001F
:10DC060000110000000000000000F8FF0F00FCFFFC
:10DC16000F00FCFF0F00381C0000381C0000380CF9
:10DC26000000180C0000180C0000180C0000180C5E
:10DC36000000180E00001C0E00001C0E00001C0E3A
:10DC460000001C00000000000000000000000000B2
:10DC560000000000000000000000000000000000BE
:10DC66000000000000000000000000000000170097
:10DC760000000000F8000000FE010080FF0300C065
:10DC8600870700E0010600E0000E0070000C00307F
:10DC9600000C0038000C0018000C0018000C000CDA
:10DCA600100C000C1806000C1806000C1806000CC8
:10DCB6001803000C9803001CCC010018EC01003876
:10DCC600FC0000107C0000001C00000000000000AA
:10DCD600000000000000000000000014000000002A
:10DCE600000C0000FCFF0F00FCFF0F00FCFF0F0004
:10DCF600000E0000000E0000000E0000000E0000E6
:10DD0600000E0000000E0000000E000000060000DD
:10DD160000060000000600000006000000060000E5
:10DD2600FCFF0F00FCFF0F00FCFF0F0000000000CF
:10DD360000000000000000000000000000000000DD
:10DD460000000000000000000500000000000000C8
:10DD560000FCFF0F00FCFF0F00FCFF0F000000009F
:10DD660000000000000000000000000000000000AD
:10DD7600000000000000000000000000000000009D
:10DD8600000000000000000000000000000000008D
:10DD9600000000000000000000000000000000007D
:10DDA600000000000000000000000000000000006D
:10DDB600000000000010000000000080030000C00A
:10DDC600070000C00F0000001C0000001800000043
:10DDD60018000000180000001800000018000000DD
:10DDE6001C0000000E0000000F00FCFF0700FCFFF7
:10DDF6000300FCFF0100000000000000000000001E
:10DE0600000000000000000000000000000000000C
:10DE160000000000000000000000000000000000FC
:10DE26000000130000000000000000FCFF0F00FCD3
:10DE3600FF0F00FCFF0F00800F0000800F0000C0E6
:10DE46001D0000E0380000E078000070700000302F
:10DE5600E0000038C0010018C003000C8003000C6D
:10DE660000070000000E0000000E00000004000085
:10DE7600000000000000000000000000000000009C
:10DE86000000000000000000000000000000000F7D
:10DE96000000000000000000FCFF0F00FCFF0F0068
:10DEA600FCFF0F0000000E0000000E000000060040
:10DEB6000000060000000600000006000000070043
:10DEC6000000070000000700000007000000000037
:10DED600000000000000000000000000000000003C
:10DEE600000000000000000000000000000000002C
:10DEF6000000000000000000000000001900000003
:10DF06000000000000F8FF0F00FCFF0F00FCFF0FF1
:10DF160000F0010000C0030000800F0000001E009A
:10DF260000007C000000F8010000E0070000800F00
:10DF36000000800F0000E0070000F0010000F8007C
:10DF460000003C0000001E0000000F0000C003009F
:10DF560000E0010000FCFF0F00FCFF0F00FCFF0FBC
:10DF66000000000000000000001300000000000098
:10DF76000000FCFF0F00FCFF0F00FCFF0F00F0018C
:10DF86000000C003000080070000000F0000001E14
:10DF96000000003C0000003800000070000000F0A7
:10DFA600000000E0010000C00300FCFF0700FCFFCA
:10DFB6000F00FCFF0F000000000000000000000042
:10DFC600000000000000000000000000000000004B
:10DFD600000000000000150000000000F80000002E
:10DFE600FE010080FF0300C0830700E00106007009
:10DFF600000E0030000C0038000C0018000C000C5D
:10E00600000C000C000C000C0006000C0006000CB6
:10E016000007001C00030018C0030078E00100F0B0
:10E02600FF0000E07F0000801F00000000000000ED
:10E0360000000000000000000000000000000000DA
:10E046000000001300000000C0000000FCFF0F00ED
:10E05600FCFF0F00FCFF0F00381C0000380C00000E
:10E06600180C0000180C0000080E00000C0E000032
:10E076000C0600000C0700000C0300008C030000D7
:10E08600CC010000FC010000F80000003800000090
:10E09600000000000000000000000000000000007A
:10E0A600000000000000000000000000000000006A
:10E0B600170000000000F8000000FE030080FF07C4
:10E0C60000C0070700E0010E00E0000C0070000C25
:10E0D6000030000C0018000C0018000C000C200C7E
:10E0E600000C700E000CF006000CE006000CC007D9
:10E0F600001CC003001CC0070078F00700F0FF0EEC
:10E1060000E03F1C00C00F1C0000000800000000DB
:10E1160000000000000000000000000000150000E4
:10E126000000E0000000FCFF0F00FCFF0F00FCFFFA
:10E136000F00381C0000183E0000183E000018763C
:10E1460000000C7600000CE600000CE300000CC397
:10E1560000008CC301008C810100CC810300FC000F
:10E166000300F80007003800060000000E0000005B
:10E176000E0000000000000000000000000000008B
:10E186000000000000000000000015000000000074
:10E19600070300C0870700E00F0700700C0E003071
:10E1A6000C0C00180C0C00180C0C00180C0C000CB5
:10E1B600040C000C040C000C060E000C0606000CE9
:10E1C6000606000C0607001C060700388603003802
:10E1D600C6030010FE010000FC000000380000002D
:10E1E6000000000000000000000000000000000029
:10E1F60000000000000000123000000030000000A7
:10E206003000000030000000300000001000000068
:10E2160010000000F8FF0F00F8FF0F00F8FF0F00D6
:10E2260018000000080000000800000008000000B8
:10E236000C0000000C0000000C0000000C000000A8
:10E2460000000000000000000000000000000000C8
:10E2560000000000000000000000000000000000B8
:10E2660000000000120000000000000000FCFF0398
:10E2760000FCFF0700F8FF070000000E0000000C7E
:10E286000000000C0000000C0000000C0000000C58
:10E296000000000E00000006000000070000000756
:10E2A60000FCFF0300FCFF0100FCFF000000000073
:10E2B6000000000000000000000000000000000058
:10E2C6000000000000000000000000000000000048
:10E2D6000013000000003C000000FC010000F807ED
:10E2E6000000C01F0000007F000000F80F0000C003
:10E2F6000F0000C00F0000F00000007C0000001EB0
:10E306000000000F0000C0030000E0010000F00064
:10E316000000780000003C0000001800000000002B
:10E3260000000000000000000000000000000000E7
:10E3360000000000000000000000000000001B00BC
:10E346000000007C000000FC030000FC1F00000031
:10E35600FF000000F80F0000E00F0000C00F0000F3
:10E36600F0010000780000003E0000800F0000F879
:10E37600030000F8000000F8030000800F00000012
:10E386003E000000FC000000F0070000800F0000C7
:10E39600C00F0000F80300007E0000801F0000FC94
:10E3A600070000FC0100003C000000110000040012
:10E3B6001C000E003C000F007CC00700F8E00300C4
:10E3C600F0F10000C07B0000803F0000001F00004D
:10E3D600001F0000C07F0000E0F10000F0E0010037
:10E3E60078C003003C800F001C000F0018000400DA
:10E3F6000000000000000000000000000000000017
:10E406000000000000000000000000000000000006
:10E41600000000000000000015180000001C0000AD
:10E42600003C00000078000000F0000000E0010061
:10E4360000C0010000800300000007000000FF0F7D
:10E446000000FE0F0000FE0F000007000080030022
:10E4560000C0010000E0010000E0000000700000C4
:10E4660000380000003C0000001C00000000000016
:10E476000000000000000000000000000000000096
:10E486000000000000140000000000000E0038002C
:10E496000F003C800F001CC00F000CC00D000CE0EC
:10E4A6000C000C700C000C380C000C3C0C000C1E04
:10E4B6000C000C0F0C008C070C00CC030C00EC01BC
:10E4C6000C00EC000C00FC000C007C000E003C0074
:10E4D6000F001C0006000000000000000000000005
:10E4E6000000000000000000000000000000000026
:10E4F60000000C000000000000000000000000F812
:10E50600FFFF03FCFFFF03FCFFFF030C0000030CEF
:10E516000000030C0000030C0000030C0080030045
:10E5260000000100000000000000000000000000E4
:10E5360000000000000000000000000000000000D5
:10E5460000000000000000000000000000000000C5
:10E556000000000000000000000000000000000BAA
:10E56600080000001C0000007C000000F001000014
:10E57600C0070000001F0000007C000000F0010042
:10E5860000C00F0000000F000000040000000000A3
:10E596000000000000000000000000000000000075
:10E5A6000000000000000000000000000000000065
:10E5B6000000000000000000000000000000000055
:10E5C600000000000000000000000000090000003C
:10E5D600000C0000030C0000030C0000030C0000FC
:10E5E600030C000003FCFFFF03FCFFFF03FCFFFF1F
:10E5F6000300000000000000000000000000000012
:10E606000000000000000000000000000000000004
:10E6160000000000000000000000000000000000F4
:10E6260000000000000000000000000000000000E4
:10E636000000000000000000000D000000000001C6
:10E64600000080030000C0030000E0010000F000AD
:10E656000000780000001C0000007C000000F000B4
:10E666000000E0030000C0030000000300000000FB
:10E676000000000000000000000000000000000094
:10E686000000000000000000000000000000000084
:10E696000000000000000000000000000000000074
:10E6A6000000000000000D0000C0000000C00000D7
:10E6B60000C0000000C0000000C0000000C0000054
:10E6C60000C0000000C0000000C0000000C0000044
:10E6D60000C0000000C0000000C0000000000000F4
:10E6E6000000000000000000000000000000000024
:10E6F6000000000000000000000000000000000014
:10E706000000000000000000000000000000000003
:10E716000000000800000000000000000C000000DF
:10E726001C0000001800000030000000600000001F
:10E736006000000000000000000000000000000073
:10E7460000000000000000000000000000000000C3
:10E7560000000000000000000000000000000000B3
:10E7660000000000000000000000000000000000A3
:10E776000000000000000000000000000000000093
:10E786000F000000000000060000800F0000CC0F04
:10E796000000CE0C0000C60C0000660C00006304EE
:10E7A6000000230600003306000033030000B30117
:10E7B6000000FF0F0000FE0F0000FE0F000000002B
:10E7C6000000000000000000000000000000000043
:10E7D6000000000000000000000000000000000033
:10E7E6000000000000000000000000000010000013
:10E7F600000000000000FCFF0F00FCFF0F00FCFF04
:10E806000F00001C0C00000E0C000006060000069F
:10E816000600000203000083030000C3010000E3BA
:10E826000000007F0000003F0000000E0000000016
:10E8360000000000000000000000000000000000D2
:10E8460000000000000000000000000000000000C2
:10E85600000000000000000000000F0000000000A3
:10E86600E0030000F0070000F80700003C0E00007F
:10E876000E0C0000060C0000070C0000030C000044
:10E88600030C0000030600000307000087070000D2
:10E896008603000086010000000000000000000062
:10E8A6000000000000000000000000000000000062
:10E8B6000000000000000000000000000000000052
:10E8C60000000000000000100000000000800700AB
:10E8D60000C0070000E00F0000780C0000380C00B4
:10E8E600001C0C00000C0C00000C060000060600C4
:10E8F600000603000086030000C60100FCFF0F00AF
:10E90600FCFF0F00FCFF0F000000000000000000ED
:10E9160000000000000000000000000000000000F1
:10E9260000000000000000000000000000000000E1
:10E9360000000000100000000000C0030000F00707
:10E946000000F80F00007C0E00006C0C0000660C46
:10E956000000660C0000330C0000330C0000330E80
:10E96600000033060000330600009E0300009E03ED
:10E9760000000C0100000000000000000000000084
:10E986000000000000000000000000000000000081
:10E996000000000000000000000000000000000071
:10E9A600000D00040000000C0000000C0000000C2C
:10E9B6000000C0FF0F00F0FF0F00F8FF0F001C065D
:10E9C60000000C0600000C0600000C0600003807CC
:10E9D6000000180700000000000000000000000012
:10E9E6000000000000000000000000000000000021
:10E9F6000000000000000000000000000000000011
:10EA060000000000000000000000000000000F00F1
:10EA16000000000080070000E00F0000F0CF0100BA
:10EA260078CC01001C8C03000C0C030006060300C6
:10EA36000607030002030300C3830300F3C00100BB
:10EA4600FFFF0100FFFF0000FF3F00000000000085
:10EA560000000000000000000000000000000000B0
:10EA660000000000000000000000000000000000A0
:10EA760000000000000000000000000F0000000081
:10EA860000000000FCFF0F00FCFF0F00FCFF0F0062
:10EA9600001C0000000E000000060000000600003A
:10EAA60000030000000300000003000000FF0F0049
:10EAB60000FF0F0000FE0F00000000000000000035
:10EAC6000000000000000000000000000000000040
:10EAD6000000000000000000000000000000000030
:10EAE600000000000000000005000000000000001B
:10EAF6000070FF0F0078FF0F0038FF0F00000000C6
:10EB060000000000000000000000000000000000FF
:10EB160000000000000000000000000000000000EF
:10EB260000000000000000000000000000000000DF
:10EB360000000000000000000000000000000000CF
:10EB460000000000000000000000000000000000BF
:10EB5600000000000006000000060000000700FF9D
:10EB6600FF0318FFFF033CFFFF011C00000000002D
:10EB7600000000000000000000000000000000008F
:10EB8600000000000000000000000000000000007F
:10EB9600000000000000000000000000000000006F
:10EBA600000000000000000000000000000000005F
:10EBB600000000000000000000000000000000004F
:10EBC60000000E0000000000000000FCFF0F00FC2B
:10EBD600FF0F00FCFF0F000070000000F8000000AF
:10EBE600DC010000DC0100008E0300000707008046
:10EBF60007070080030E0000010C00000000000063
:10EC060000000000000000000000000000000000FE
:10EC160000000000000000000000000000000000EE
:10EC260000000000000000000000000000000005D9
:10EC36000000000000000000FCFF0F00FCFF0F00BA
:10EC4600FCFF0F00000000000000000000000000B4
:10EC560000000000000000000000000000000000AE
:10EC6600000000000000000000000000000000009E
:10EC7600000000000000000000000000000000008E
:10EC8600000000000000000000000000000000007E
:10EC96000000000000000000000000001800000056
:10ECA600000000000000FF0F0000FF0F0000FF0F34
:10ECB60000001C0000000C0000000600000006001A
:10ECC60000000200000003000000FF0F0000FF0F1D
:10ECD6000000FE0F0000180000000C0000000C00F1
:10ECE6000000060000000200000003000000030010
:10ECF6000000FF0F0000FF0F0000FE0F00000000E5
:10ED06000000000000000000000F000000000000EE
:10ED1600000000FF0F0000FF0F0000FF0F00001CA7
:10ED26000000000C0000000E0000000600000002BB
:10ED36000000000300000003000000FF0F0000FFBA
:10ED46000F0000FE0F0000000000000000000000A1
:10ED560000000000000000000000000000000000AD
:10ED6600000000000000000000000000000000009D
:10ED7600000000000000100000000000C0030000BA
:10ED8600F0070000F80700001C0E00000E0C000043
:10ED9600060C0000060C0000030C0000030E000029
:10EDA600030600000307000087030000FE010000C1
:10EDB600FE000000780000000000000000000000D7
:10EDC600000000000000000000000000000000003D
:10EDD600000000000000000000000000000000002D
:10EDE60000000011000000000000000000FFFF0FFF
:10EDF60000FFFF0F00FFFF0F00380C00001C0C0087
:10EE0600000E0C0000060C0000030E0000030600B6
:10EE1600000307000083030000C7030000FF010092
:10EE260000FE0000003C00000000000000000000A2
:10EE360000000000000000000000000000000000CC
:10EE460000000000000000000000000000000000BC
:10EE5600140000000000E0030000F0070000F80FB7
:10EE660000001C0E00000E0C0000060C0000070C33
:10EE76000000030600000307000083030000C3012F
:10EE86000000F3000000FFFF0700FFFF0F00FEFF7A
:10EE96000F00000006000000030000800300008051
:10EEA600010000000000000000000000000000005B
:10EEB600000000000000000000000000000D00003F
:10EEC60000000000000000FF0F0000FF0F0000FF21
:10EED6000F0000180000000C0000000600000002F1
:10EEE600000000030000001F0000001F0000000ECD
:10EEF600000000000000000000000000000000000C
:10EF060000000000000000000000000000000000FB
:10EF160000000000000000000000000000000000EB
:10EF260000000000000000000000110000000000CA
:10EF3600380600007C0700007C0600006E0C00000E
:10EF4600660C0000660C0000630C0000230C000039
:10EF5600330C0000330600003306000033060000C1
:10EF660033030000F2030000E0010000E0000000AF
:10EF7600000000000000000000000000000000008B
:10EF8600000000000000000000000000000000007B
:10EF96000000000000000011000000000006000054
:10EFA600000600000006000000070000E0FF070062
:10EFB600E0FF0F00E0FF0F0000030C0000030C0051
:10EFC600000304000003060080010700800103001F
:10EFD60000C1030000C00100008000000000000026
:10EFE600000000000000000000000000000000001B
:10EFF600000000000000000000000000000000000B
:10F00600000000000F000000000000000000FF07E5
:10F016000000FF070000FF0F0000000C0000000CBE
:10F026000000000C000000060000000600000007BB
:10F03600000080030000FF0F0000FF0F0000FF0F1D
:10F0460000000000000000000000000000000000BA
:10F0560000000000000000000000000000000000AA
:10F06600000000000000000000000000000000009A
:10F07600000F00060000001F0000007F000000FED9
:10F08600030000E00F0000800F0000000F0000C02A
:10F09600070000E0010000F00000003C0000001E38
:10F0A6000000000F00000007000000030000000041
:10F0B600000000000000000000000000000000004A
:10F0C600000000000000000000000000000000003A
:10F0D6000000000000000000000000000000160014
:10F0E60000000000070000001F000000FF000000F5
:10F0F600F0070000C00F0000000F0000C00700006E
:10F10600E0010000F80000003F0000001F000000C2
:10F116007F000000F8010000E0070000800F0000FB
:10F12600800F0000E0030000F00100007E000000F8
:10F136001F000000070000000000000000000000A3
:10F1460000000000000000000000000F00000000AA
:10F156000002060000070E00000F0700009C0300D7
:10F1660000F8010000F8010000F0000000F00000C7
:10F1760000F8010000DC0100008E03000007070014
:10F1860000070E0000000C00000000000000000058
:10F196000000000000000000000000000000000069
:10F1A6000000000000000000000000000000000059
:10F1B6000000000000000000100002E0000007E070
:10F1C60001001F8001003E80010078800100F0C030
:10F1D6000100E0E1000080F70000007F0000001F52
:10F1E6000000C00F0000F0030000FC0000003F001C
:10F1F60000000F00000003000000000000000000F7
:10F2060000000000000000000000000000000000F8
:10F2160000000000000000000000000000000000E8
:10F2260000000000000F00000800000E0C00000E99
:10F236000E0000060F0000060F0000860F0000C635
:10F246000D0000E60C0000760C00003E0C00003EAF
:10F256000C00001E0C00000E0C0000070E00000340
:10F266000E0000000000000000000000000000008A
:10F276000000000000000000000000000000000088
:10F286000000000000000000000000000000000078
:10F2960000000D000000000060000000600000009B
:10F2A60060000000E0000000F0FF01E0FFFF01F851
:10F2B6001FFF03F80F00031C0000030C0000030CE3
:10F2C6000000030C00000100000000000000000028
:10F2D6000000000000000000000000000000000028
:10F2E6000000000000000000000000000000000018
:10F2F6000000000000000000000000000000000503
:10F306000000000000000000FFFFFF07FFFFFF07EF
:10F31600FFFFFF07000000000000000000000000E3
:10F3260000000000000000000000000000000000D7
:10F3360000000000000000000000000000000000C7
:10F3460000000000000000000000000000000000B7
:10F3560000000000000000000000000000000000A7
:10F366000000000000000000000000000C08000083
:10F37600030C0000030C0000030C0080030C00FFCC
:10F3860001FC8FFF01F8FF7F00F0FF000000700016
:10F396000000600000006000000060000000000047
:10F3A6000000000000000000000000000000000057
:10F3B6000000000000000000000000000000000047
:10F3C6000000000000000000000000000000000037
:10F3D6000000000000000000000D0000000000809A
:10F3E600000000E0010000E00000003000000030F6
:10F3F6000000007000000060000000C0000000C0B7
:10F40600000000E000000078000000380000000066
:10F4160000000000000000000000000000000000E6
:10F4260000000000000000000000000000000000D6
:10F4360000000000000000000000000000000000C6
:10F446000000000000000800000000FEFF1F00FE94
:10F45600FF1F00020010000200100002001000FE54
:10F46600FF1F00FEFF1F000000000000000000005C
:10F476000000000000000000000000000000000086
:10F486000000000000000000000000000000000076
:10F496000000000000000000000000000000000066
:10F4A6000000000000000000000000000000000056
:10F4B6000000000600000000000000000000000040
:10F4C600000000000000000000000200007E0300B3
:10F4D6000000000000000000000000000000000026
:10F4E600000400000F0000000F00000000000000F4
:10F4F600000000000000000008000040004803F87B
:10F50600004E03F8004E0008000000000000000650
:10F5160018022402FF0F4402440284010000000086
:10F526000000000000000B00001C00220022029CCC
:10F536000160001000CC0122022002C00108CC01AB
:10F5460032022202220252028C01E0010002000075
:10F55600000000000200000F000000000000000094
:10F566000000000000000000000000050000F0019F
:10F576000C06020801100000000000000000000058
:10F58600000004011002080C06F001000000000053
:10F596000000000000000000000600000A00040051
:10F5A6001F0004000A000000000000000000000028
:10F5B60007200020002000FC012000200020000081
:10F5C6000000000000000002000800070000000024
:10F5D6000000000000000000000000000000042001
:10F5E60000200020002000000000000000000000B5
:10F5F6000000000000020000000300000000000000
:10F6060000000000000000000000000005000C8063
:10F616000360001C00030000000000000000000062
:10F6260000000006FC010202020202020202FC01C4
:10F6360000000000000000000000060000040204B4
:10F6460002FE0300020002000000000000000000AD
:10F656000006040382024202420222021C02000049
:10F66600000000000000000006040102022202223F
:10F67600022202DC0100000000000000000000067B
:10F686006000500048004400FE03400000000000F7
:10F69600000000000000061E0112021202120212F1
:10F6A60002E2010000000000000000000006F80170
:10F6B6001402120212021202E00100000000000011
:10F6C600000000000602000202820162001A000623
:10F6D600000000000000000000000006DC0122021D
:10F6E600220222022202DC010000000000000000CB
:10F6F6000000063C004202420242024201FC0000B7
:10F7060000000000000000000003000000001803D5
:10F7160000000000000000000000000000000000E3
:10F7260003000000081807000000000000000000A9
:10F73600000000000000000800002000200050002B
:10F746005000880088000401000000000000080046
:10F7560000900090009000900090009000900000B3
:10F766000000000000080000040188008800500026
:10F7760050002000200000000000000005040042A8
:10F7860003220012000C0000000000000000000030
:10F796000000000BF0000C030402F2040A050A053F
:10F7A6000A05FA0504010C01F000070003E00098C1
:10F7B6000086009800E00000030000000000000042
:10F7C6000006FE032202220222023C02C0010000C1
:10F7D600000000000000000007F800040102020219
:10F7E60002020202020401000000000000000007FD
:10F7F600FE0302020202020202020401F8000000F5
:10F8060000000000000006FE03220222022202225D
:10F816000222020000000000000000000006FE03B5
:10F826002200220022002200220000000000000028
:10F836000000000007F80004010202020242024230
:10F8460002C403000000000000000007FE032000C1
:10F856002000200020002000FE0300000000000021
:10F866000000030202FE0302020000000000000086
:10F876000000000000000000000400020202020274
:10F88600FE01000000000000000000000000000073
:10F8960006FE03200050008800040102020000005A
:10F8A6000000000000000005FE0300020002000246
:10F8B600000200000000000000000000000009FE39
:10F8C600030600180060008001600018000600FEB4
:10F8D600030000000007FE03060018002000C00019
:10F8E6000003FE03000000000000000008F800040A
:10F8F6000102020202020202020401F800000000F4
:10F9060000000006FE0322002200220022001C0046
:10F916000000000000000000000008F800040102DA
:10F926000202020206020A0409F8080000000000AA
:10F936000007FE03220022006200A2001C01000252
:10F946000000000000000000071C01220222022223
:10F956000222022202C4010000000000000000078B
:10F96600020002000200FE03020002000200000084
:10F9760000000000000007FE000001000200020077
:10F98600020001FE000000000000000000070E005B
:10F996003000C0000003C00030000E000000000070
:10F9A600000000000B1E00E0010002C00138000646
:10F9B600003800C0010002E0011E00070202040137
:10F9C600D8002000D8000401020200000000000058
:10F9D60000000702000C001000E00310000C0002FB
:10F9E600000000000000000000060203820262021E
:10F9F60012020A02060200000000000000000000D9
:10FA0600040000FF0F0108010800000000000000CC
:10FA1600000000000000000503001C0060008003D9
:10FA2600000C0000000000000000000000000400C0
:10FA36000001080108FF0F000000000000000000A0
:10FA46000000000000090000100008000400020089
:10FA56000200040008001000000000000700080073
:10FA66000800080008000800080008000000000060
:10FA76000000000500000000000001000200000078
:10FA86000000000000000000000006800148024857
:10FA96000248024801F003000000000000000000D8
:10FAA6000006FF031002080208020802F001000027
:10FAB600000000000000000005F00108020802082E
:10FAC600020802000000000000000000000000061E
:10FAD600F0010802080208020801FF030000000006
:10FAE60000000000000006F00148024802480248F3
:10FAF6000270010000000000000000000005080080
:10FB0600FE030900090001000000000000000000DB
:10FB16000000000006F0010812081208120811F889
:10FB26000F0000000000000000000006FF031000A8
:10FB3600080008000800F0030000000000000000B4
:10FB46000000020000FA03000000000000000000B0
:10FB56000000000000000000000300100810FA0F6B
:10FB6600000000000000000000000000000000008F
:10FB760005FF034000A0001001080200000000007D
:10FB860000000000000000020000FF03000000006B
:10FB960000000000000000000000000000000A0055
:10FBA60000F803100008000800F003100008000821
:10FBB60000F003000006F803100008000800080023
:10FBC600F0030000000000000000000006F001083D
:10FBD60002080208020802F001000000000000000E
:10FBE60000000006F81F1002080208020802F001D1
:10FBF6000000000000000000000006F001080208F6
:10FC06000208020801F81F000000000000000000C2
:10FC16000004F803100008000800000000000000BF
:10FC260000000000000000000530014802480248BC
:10FC36000290010000000000000000000000000427
:10FC46000800FE0108020802000000000000000093
:10FC560000000000000006F8010002000200020099
:10FC660001F8030000000000000000000005180075
:10FC7600E0000003E00018000000000000000000A3
:10FC860000000000091800E0000003E0001800E092
:10FC9600000003E000180000000000050802B001A3
:10FCA6004000B00108020000000000000000000053
:10FCB6000000051800E0180007E00018000000002A
:10FCC600000000000000000000050803880248024A
:10FCD60028021802000000000000000000000000DA
:10FCE6000540004000BE07010801080000000000B2
:10FCF600000000000000000300000000FF0F0000ED
:10FD060000000000000000000000000000000501E7
:10FD1600080108BE07400040000000000000000087
:10FD26000000000000080000600010001000200025
:10FD360040004000300000000000000003FF030107
:10FD460002FF0300000000000000000000000000A9
:10FD56000000000500000000000500005F0000052F
:10FD6600000700070005147F147F1405242A7F2A44
:10FD76001205231308646205364956205005080704
:10FD860003000005001C224100050041221C00055D
:10FD960014083E08140508083E08080500B070005F
:10FDA6000005080808080805006060000005201026
:10FDB600080402053E5149453E0500427F400005C4
:10FDC6007249494946052141494D33051814127FA8
:10FDD60010052745454539053C4A49493105412124
:10FDE60011090705364949493605464949291E0577
:10FDF60000001400000500403400000508142241EC
:10FE060000051414141414054122140800050201F7
:10FE1600590906053E415D594E057C1211127C05B5
:10FE26007F49494936053E41414122057F414141CD
:10FE36003E057F49494949057F09090909053E41AA
:10FE4600415173057F0808087F0500417F41000581
:10FE56002040413F01057F08142241057F40404074
:10FE660040057F020C027F057F0408107F053E4196
:10FE760041413E057F09090906053E4151215E05BE
:10FE86007F091929460526494949320501017F019D
:10FE960001053F4040403F051F2040201F053F40D1
:10FEA60038403F056314081463050304780403050A
:10FEB600615149454305007F414100050204081090
:10FEC60020050041417F000504020102040540406F
:10FED60040404005070B00000005205454784005BB
:10FEE6007F28444438053844444428053844442887
:10FEF6007F0538545454180500087E09020518A4D5
:10FF0600A49C78057F080404780500447D4000051C
:10FF16002040403D00057F102844000500417F40F9
:10FF260000057C04780478057C08040478053844C8
:10FF360044443805FC182424180518242418FC0504
:10FF46007C080404080548545454240504043F441A
:10FF560024053C4040207C051C2040201C053C40DC
:10FF660030403C054428102844054C9090907C0570
:10FF76004464544C440500083641000500007700EF
:10FF86000005004136080005040204080405007F48
:10FF9600417F004F4E2F4F46463A202558200A0DE6
:10FFA6000052455345543A202558200A0D00425523
:10FFB60053593A202558200A0D0042415420310059
:10FFC6004241542032005354415254004449534351
:10FFD6000049444C45004348524700544553540099
:10FFE6004D454E5500575D002E20003120002564FA
:0AFFF600004B004E005000520000C6
:020000040001F9
:100000000F6E000E126E12C01DF01DC01AF01AC045
:1000100017F017C016F016C01CF01CC01BF01BC058
:1000200010F010C011F011C015F015C018F0196AC9
:100030004BC015F04CC010F010C011F0200E0F5E38
:1000400050505202F3CF09F0F4CF0AF0010E092408
:10005000016E000E0A20026E0FC003F0046A44EC29
:1000600090F001C013F002C014F013504E24096E3A
:1000700014504F200A6E09C0F6FF0AC0F7FF000EA9
:10008000F86E0800F5CF16F0134A142A4B501624C8
:100090001D6E7F0E1D644FEF80F051EF80F054EF26
:1000A00080F01D50800F165E4C50070B1A6E515099
:1000B0001AC009F00A6A0926000E0A225250080DD9
:1000C0000950F35CF450800A0B6E0A50800A0B58FA
:1000D000D8B06DEF80F06FEF80F073EF80F05228B2
:1000E000176E75EF80F052C017F04CC001F0026A35
:1000F000000E046E080E036EB6EC8AF00150172451
:100100001D6E080E1D6487EF80F089EF80F08CEF84
:1001100080F01D50F80F175E13C018F014C019F0CE
:10012000000E1C6E46EF82F011C002F01550E3EC99
:1001300090F0000E1B6E16EF82F01C50D8A4A3EFB7
:1001400080F0A5EF80F007EF81F05450D8A4ABEF1A
:1001500080F0ADEF80F0C9EF80F052501B02F3CF7A
:1001600009F0F4CF0AF009504E240B6E0A504F20CC
:100170000C6E18500B2619500C220BC0F6FF0CC049
:10018000F7FF000EF86E0800F550FF0A1D6EE2EF53
:1001900080F052501B02F3CF09F0F4CF0AF009505F
:1001A0004E240B6E0A504F200C6E18500B2619501F
:1001B0000C220BC0F6FF0CC0F7FF000EF86E080013
:1001C000F5CF1DF01A28096EE8EF80F0D8901D36A3
:1001D000092EE6EF80F05450D8A4F1EF80F0F3EF51
:1001E00080F0EFEF81F01A500808096EFF0E0A6EDA
:1001F000000E0B6E092A00EF81F00B340B320A322D
:10020000092EFDEF80F00A501D12EFEF81F05450DF
:10021000D8A40DEF81F00FEF81F035EF81F052504F
:100220001B02F3CF09F0F4CF0AF009504E240B6EF5
:100230000A504F200C6E1C500B26000E0C2218503A
:100240000B2619500C22FF0E0B240D6EFF0E0C20F6
:100250000E6E0DC0F6FF0EC0F7FF000EF86E080020
:10026000F550FF0A1D6E58EF81F052501B02F3CF7C
:1002700009F0F4CF0AF009504E240B6E0A504F20BB
:100280000C6E1C500B26000E0C2218500B26195019
:100290000C22FF0E0B240D6EFF0E0C200E6E0DC0F7
:1002A000F6FF0EC0F7FF000EF86E0800F5CF1DF048
:1002B0001A500808096E09280A6E61EF81F0D8907B
:1002C0001D320A2E5FEF81F0010E52646AEF81F059
:1002D0006CEF81F0BCEF81F05450D8A472EF81F044
:1002E00074EF81F094EF81F052501B02F3CF09F0CC
:1002F000F4CF0AF009504E240B6E0A504F200C6EBA
:100300001C500B26000E0C2218500B2619500C22E4
:100310000BC0F6FF0CC0F7FF000EF86E0800F5509A
:10032000FF0A126EB1EF81F052501B02F3CF09F0B9
:10033000F4CF0AF009504E240B6E0A504F200C6E79
:100340001C500B26000E0C2218500B2619500C22A4
:100350000BC0F6FF0CC0F7FF000EF86E0800F5CFDB
:1003600012F01A28096EB7EF81F0D8901236092ED4
:10037000B5EF81F012501D125450D8A4C2EF81F095
:10038000C4EF81F0EFEF81F01C50096E0A6AFF0E96
:1003900017240B6E0C6AFF0E0C2209500B1807E194
:1003A0000A500C18D8A4D7EF81F0D9EF81F0EFEF05
:1003B00081F01A50D8B4DFEF81F0E1EF81F0EFEF78
:1003C00081F01AC009F0FF0E0A6E092AEAEF81F0E7
:1003D000D8900A36092EE8EF81F00A501D12530416
:1003E000D8A4F5EF81F0F7EF81F00DEF82F05450D3
:1003F000D8A4FDEF81F0FFEF81F007EF82F04CC051
:1004000001F04B5014EC90F01D160DEF82F04CC033
:1004100001F04B5014EC90F01D124CC001F01DC0C7
:1004200002F04B50FAEC8FF04B2A1B2A16501B5C43
:10043000D8A01DEF82F01FEF82F09DEF80F05350A7
:10044000D8A425EF82F027EF82F036EF82F05450E7
:10045000D8A42DEF82F02FEF82F032EF82F01D68EA
:100460003CEF82F0000E1D6E3CEF82F04CC001F0BC
:100470004B5014EC90F01D6E4CC001F01DC002F00A
:100480004B50FAEC8FF0080E11261C2A17501C5CFA
:10049000D8A04DEF82F04FEF82F094EF80F010C0C3
:1004A00002F015501624096E0928E3EC90F01200B2
:1004B000000E0B6E20EE0AF00550D9260650DA2207
:1004C000300EDF6E20EE09F00550D9260650DA22F4
:1004D000300EDF6E20EE08F00550D9260650DA22E5
:1004E000300EDF6E20EE07F00550D9260650DA22D6
:1004F000300EDF6E20EE06F00550D9260650DA22C7
:10050000300EDF6E20EE05F00550D9260650DA22B7
:10051000300EDF6E10EE04F00550E1260650E222A8
:10052000DFCFE7FF20EE03F00550D9260650DA2290
:10053000E7CFDFFF10EE02F00550E1260650E22281
:10054000DFCFE7FF20EE01F00550D9260650DA2272
:10055000E7CFDFFF05C0E1FF06C0E2FFDFCFE7FF27
:1005600004BEB7EF82F0B5EF82F0D2EF82F0010E59
:100570000B6E041E031E021E016C000E02220322DB
:100580000422D2EF82F0000E0126360E0222650E02
:100590000322C40E042220EE01F00550D926065095
:1005A000DA22DF2A04BEE3EF82F00104CA0E025809
:1005B0009A0E03583B0E0458D8B0E1EF82F0E3EFF7
:1005C00082F0C3EF82F0F4EF82F0000E01261F0EDE
:1005D00002220A0E0322FA0E042220EE02F0055037
:1005E000D9260650DA22DF2A04BE04EF83F0E10E9A
:1005F000025CF50E0358050E0458D8B002EF83F0E4
:1006000004EF83F0E5EF82F015EF83F0800E012612
:10061000690E0222670E0322FF0E042220EE03F071
:100620000550D9260650DA22DF2A04BE27EF83F0D0
:1006300004500BE1800E015C960E0258980E035890
:10064000D8B025EF83F027EF83F006EF83F038EF83
:1006500083F0C00E0126BD0E0222F00E0322FF0E13
:10066000042220EE04F00550D9260650DA22DF2AB3
:1006700004BE4AEF83F004500BE1400E015C420ED1
:1006800002580F0E0358D8B048EF83F04AEF83F0BA
:1006900029EF83F05BEF83F0600E0126790E0222D2
:1006A000FE0E0322FF0E042220EE05F00550D9268F
:1006B0000650DA22DF2A04BE6DEF83F004500BE10E
:1006C000A00E015C860E0258010E0358D8B06BEFE5
:1006D00083F06DEF83F04CEF83F07EEF83F0F00E4C
:1006E0000126D80E0222FF0E0322FF0E042220EE66
:1006F00006F00550D9260650DA22DF2A04BE8FEF15
:1007000083F00450031009E1100E015C270E02581B
:10071000D8B08DEF83F08FEF83F06FEF83F0A0EF11
:1007200083F0180E0126FC0E0222FF0E0322FF0E9C
:10073000042220EE07F00550D9260650DA22DF2ADF
:1007400004BEB1EF83F00450031009E1E80E015C30
:10075000030E0258D8B0AFEF83F0B1EF83F091EF02
:1007600083F0C2EF83F09C0E0126FF0E0222FF0EE3
:100770000322FF0E042220EE08F00550D926065071
:10078000DA22DF2A04BED2EF83F0045003100210F5
:1007900007E1640E015CD8B0D0EF83F0D2EF83F0B4
:1007A000B3EF83F0E3EF83F0F60E0126FF0E022293
:1007B000FF0E0322FF0E042220EE09F00550D92679
:1007C0000650DA22DF2A04BEF3EF83F00450031050
:1007D000021007E10A0E015CD8B0F1EF83F0F3EFED
:1007E00083F0D4EF83F004EF84F0FF0E0126FF0EB8
:1007F0000222FF0E0322FF0E042220EE0AF0055013
:10080000D9260650DA22DF2A04BE13EF84F0045002
:100810000310021006E10104D8B011EF84F013EFC9
:1008200084F0F5EF83F0000E0C6E18EF84F00C2AC4
:100830000C500524D96E000E0620DA6E300EDE183C
:10084000D8B425EF84F027EF84F017EF84F00B5035
:10085000D8B42DEF84F02FEF84F038EF84F00C063D
:100860000C500524D96E000E0620DA6E2D0EDF6EB8
:100870000C500A08096E0CC00AF0000E0C6E56EF00
:1008800084F00C500524076E000E0620086E0A50F6
:100890000724D96E000E0820DA6E0C500524E16E94
:1008A000000E0620E26EDFCFE7FF0C2A0C50095C39
:1008B000D8B05DEF84F05FEF84F041EF84F00C502E
:1008C0000524D96E000E0620DA6E000EDF6E1200CF
:1008D000000E136E090E556470EF84F072EF84F011
:1008E0006AEF86F060EF86F01350090DF3CF08F041
:1008F000F4CF09F008503C240A6E09503D200B6EDD
:10090000060E0A24D96E000E0B20DA6E02D893EF81
:1009100084F00500FA6EDE50FD6EDE50FE6EDE5095
:10092000FF6EFA5012000009D8B499EF84F09CEFE2
:1009300084F0010E9DEF84F0000E126E1204D8A414
:10094000A4EF84F0A6EF84F074EF85F01350090D46
:10095000F3CF08F0F4CF09F008503C24D96E0950C9
:100960003D20DA6EDFB8B7EF84F0B9EF84F0E8EF3E
:1009700084F03EC001F03F50E5EC8EF0086E13505D
:10098000090DF3CF09F0F4CF0AF009503C240B6EA7
:100990000A503D200C6E010E0B24D96E000E0C2067
:1009A000DA6EDF2A0850DE5CD8A0D9EF84F0DBEFE6
:1009B00084F0E8EF84F01350090DF3CF08F0F4CF82
:1009C00009F008503C24D96E09503D20DA6EDF88CA
:1009D0001350090DF3CF08F0F4CF09F008503C2470
:1009E000D96E09503D20DA6EDFA8F9EF84F0FBEFF5
:1009F00084F05DEF85F01350090DF3CF08F0F4CFCC
:100A000009F008503C24D96E09503D20DA6EDF30E1
:100A1000E832030BE806D8A410EF85F012EF85F05A
:100A20005DEF85F01350090DF3CF08F0F4CF09F016
:100A300008503C240A6E09503D200B6E040E0A2417
:100A4000D96E000E0B20DA6EDECF01F0DDCF02F0A2
:100A50003EC003F0046A44EC8EF01350090DF3CF4E
:100A60000CF0F4CF0DF00C503C240E6E0D503D20D8
:100A70000F6E020E0E24D96E000E0F20DA6EDE2AE3
:100A8000000EDD220150DE5C0250DE58D8A04BEF94
:100A900085F04DEF85F05DEF85F01350090DF3CF34
:100AA00008F0F4CF09F008503C24D96E09503D20DD
:100AB000DA6EDF50FC0B0209DF6E12C008F0135033
:100AC000090DF3CF09F0F4CF0AF009503C24D96E98
:100AD0000A503D20DA6E08460846DF500818F30B2E
:100AE0000818DF6E5FEF86F01250D8A47AEF85F019
:100AF0007CEF85F05FEF86F01350090DF3CF08F01F
:100B0000F4CF09F008503C24D96E09503D20DA6E2C
:100B1000DFA88DEF85F08FEF85F049EF86F0135059
:100B2000090DF3CF08F0F4CF09F008503C240A6E09
:100B300009503D200B6E010E0A24D96E000E0B20C9
:100B4000DA6EDF50D8B4A7EF85F0A9EF85F0BEEFDD
:100B500085F01350090DF3CF08F0F4CF09F00850D9
:100B60003C240A6E09503D200B6E010E0A24D96EFA
:100B7000000E0B20DA6EDF065FEF86F01350090DD2
:100B8000F3CF08F0F4CF09F008503C24D96E095097
:100B90003D20DA6EDF981350090DF3CF08F0F4CF43
:100BA00009F008503C240A6E09503D200B6E040EDB
:100BB0000A24D96E000E0B20DA6EDECF01F0DDCFF5
:100BC00002F03EC003F0046A44EC8EF01350090DAD
:100BD000F3CF0CF0F4CF0DF00C503C240E6E0D5002
:100BE0003D200F6E020E0E24D96E000E0F20DA6E1D
:100BF0000150DE5C0250DE58D8B001EF86F003EF02
:100C000086F02FEF86F01350090DF3CF08F0F4CFE4
:100C100009F008503C240A6E09503D200B6E010E6D
:100C20000A24D96E000E0B20DA6EDF50D8A41BEF19
:100C300086F01DEF86F05FEF86F01350090DF3CFBD
:100C400008F0F4CF09F008503C24D96E09503D203B
:100C5000DA6EDF50FC0B0109DF6E5FEF86F0135098
:100C6000090DF3CF08F0F4CF09F008503C24D96EF9
:100C700009503D20DA6EDF50030B020AD8A443EF7F
:100C800086F045EF86F047EF86F05FEF86F05FEF86
:100C900086F01350090DF3CF08F0F4CF09F0085097
:100CA0003C240A6E09503D200B6E020E0A24D96EB8
:100CB000000E0B20DA6E000EDE6E000EDD6E132AC3
:100CC000040E136466EF86F068EF86F074EF84F02C
:100CD000000E556E1200186E800E186072EF86F0CE
:100CE00074EF86F09AEF87F0800E08607AEF86F056
:100CF0007CEF86F09AEF87F0400E076082EF86F077
:100D000084EF86F09AEF87F0400E09608AEF86F054
:100D10008CEF86F09AEF87F00750095C0B6E0B287A
:100D20001A6E1850085C0B6E0B28146E0750070BD8
:100D3000166E1650075E1968080E0B6E000E0C6ECC
:100D400016500B5E000E0C5A1A500D6E0E6A0B50A8
:100D50000D5C0E50800A0F6E0C50800A0F58D8B0F0
:100D6000B4EF86F0B6EF86F0C6EF86F01A500808AA
:100D70000B6E0B280C6EBFEF86F0D89019320C2E3C
:100D8000BDEF86F01AC015F0C9EF86F016500808BE
:100D9000156E16280B6ECFEF86F0D89019360B2EF5
:100DA000CDEF86F007C002F01850E3EC90F0000E93
:100DB000176E03EF87F04CC001F04B5014EC90F02D
:100DC0001B6E0A28D8B4E7EF86F0E9EF86F0F2EF61
:100DD00086F01950FF0A1B140B6E0B50106E116A2F
:100DE000F8EF86F01B5019100B6E0B50106E116A45
:100DF00010C01BF04CC001F01BC002F04B50FAECCD
:100E00008FF04B2A172A1450175CD8A00AEF87F0EE
:100E10000CEF87F0DBEF86F02DEF87F0080E15263C
:100E2000080E072607C002F01850E3EC90F0000E01
:100E3000176E24EF87F04CC001F00AC002F04B504F
:100E4000FAEC8FF04B2A172A1450175CD8A02BEF1E
:100E500087F02DEF87F01BEF87F015500B6E0C6AB3
:100E6000080E0B26000E0C221A500D6E0E6A0B5047
:100E70000D5C0E50800A0F6E0C50800A0F58D8B0CF
:100E800044EF87F046EF87F00EEF87F01A50155CBD
:100E9000D8B04DEF87F04FEF87F09AEF87F01550FD
:100EA0001A5C0B6EFF0E0C6E0B2A59EF87F0D89070
:100EB0000C360B2E57EF87F00C50FF0A196E0750B7
:100EC000080F026E1850E3EC90F0000E176E91EFD1
:100ED00087F04CC001F04B5014EC90F01B6E0A28C8
:100EE000D8B475EF87F077EF87F080EF87F019506F
:100EF000FF0A1B140B6E0B50126E136A86EF87F0FD
:100F00001B5019100B6E0B50126E136A12C01BF09F
:100F10004CC001F01BC002F04B50FAEC8FF04B2A92
:100F2000172A1450175CD8A098EF87F09AEF87F033
:100F300069EF87F01200396E800E3960A2EF87F0FA
:100F4000A4EF87F0BEEF88F0800E2260AAEF87F052
:100F5000ACEF87F0BEEF88F0400E2160B2EF87F073
:100F6000B4EF87F0BEEF88F0400E2360BAEF87F051
:100F7000BCEF87F0BEEF88F022503918D8A4C3EF39
:100F800087F0C5EF87F0D0EF87F023C01CF039C0A1
:100F90001DF024C01EF02150DEEC8FF0BEEF88F073
:100FA00023502118D8A4D7EF87F0D9EF87F0E4EFCA
:100FB00087F022C00DF021C00EF024C00FF0395090
:100FC00040EC8FF0BEEF88F02150235CD8A0EBEF0F
:100FD00087F0EDEF87F0F5EF87F02150235C266E68
:100FE000276AD8A02706FBEF87F02350215C266EE6
:100FF000276AD8A027063950225CD8A002EF88F0D3
:1010000004EF88F00CEF88F03950225C286E296AD2
:10101000D8A0290612EF88F02250395C286E296A80
:10102000D8A029062650285C2950800A256E275012
:10103000800A2558D8A01FEF88F022EF88F0010E13
:1010400023EF88F0000E356E3550D8B42AEF88F0C3
:101050002CEF88F038EF88F039C030F021C039F03B
:1010600030C021F022C031F023C022F031C023F083
:101070003950225CD8B03FEF88F041EF88F04DEF57
:1010800088F039C032F022C039F032C022F021C0DD
:1010900033F023C021F033C023F03950225C346E8A
:1010A0002350215CD8A057EF88F059EF88F061EF0A
:1010B00088F02350215C2A6E2B6AD8A02B0667EF9C
:1010C00088F02150235C2A6E2B6AD8A02B062AC0F8
:1010D0002EF034C001F0026A000E046E020E036EA0
:1010E000B6EC8AF00150366E21C038F02350215CF6
:1010F000D8A07DEF88F07FEF88F083EF88F02C6830
:101100002D6887EF88F0000E2D6E010E2C6E2CC01E
:101110002FF039C037F0B5EF88F03550D8B493EFE1
:1011200088F095EF88F09EEF88F037C007F024C074
:1011300008F038508FEC8DF0A5EF88F038C007F03C
:1011400024C008F037508FEC8DF02E50365E36BE3E
:10115000AEEF88F0ACEF88F0B4EF88F02F50382471
:10116000386E34503624366E372A3750225CD8B069
:10117000BCEF88F0BEEF88F08DEF88F01200770E9C
:10118000F66ECB0EF76E000EF86E20EE70F00E0EBF
:101190000900F5CFDEFFE806FBE2670EF66ECB0E28
:1011A000F76E000EF86E20EE60F00F0E0900F5CF1E
:1011B000DEFFE806FBE2860EF66ECB0EF76E000E43
:1011C000F86E20EE7FF00B0E0900F5CFDEFFE8068B
:1011D000FBE2A80EF66ECB0EF76E000EF86E20EE58
:1011E00096F0090E0900F5CFDEFFE806FBE2D00E0F
:1011F000F66ECB0EF76E000EF86E20EEA0F0080E25
:101200000900F5CFDEFFE806FBE2920EF66ECB0E8C
:10121000F76E000EF86E20EE8BF00A0E0900F5CF87
:10122000DEFFE806FBE257EC90F0590E096EFD0E6A
:101230000A6E050E0B6E080E0C6E010E0D6E010E81
:101240000E6EBFEC8CF0000E226E020ED4EC8BF012
:10125000020E026E020EE3EC90F0C00E1E6EFF0E48
:101260001F6E77EC8CF0000E216E1F0E226E0A0EA0
:10127000236EFF0E246E000E06EC8DF0330E1C6EF6
:10128000200E1D6E3F0E1E6EFF0E1F6E000E68ECD0
:1012900090F0360E026E020EE3EC90F0590E096EDD
:1012A000FD0E0A6E050E0B6E080E0C6E010E0D6E15
:1012B000000E0E6EBFEC8CF0CC0E1E6EFF0E1F6E7D
:1012C00077EC8CF0590E096EFD0E0A6E050E0B6E52
:1012D000080E0C6E010E0D6E010E0E6EBFEC8CF042
:1012E000360E026E250EE3EC90F0E60E1E6EFF0E3B
:1012F0001F6E77EC8CF0330E216E3D0E226E3F0E8A
:10130000236EFF0E246E230E06EC8DF00D0E026E82
:10131000000EE3EC90F0700E1E6E000E1F6E77EC68
:101320008CF0160E026E000EE3EC90F0600E1E6E56
:10133000000E1F6E77EC8CF01F0E026E000EE3ECB9
:1013400090F07F0E1E6E000E1F6E77EC8CF0280E54
:10135000026E000EE3EC90F0960E1E6E000E1F6EF5
:1013600077EC8CF01F0E026E440EE3EC90F08B0EC7
:101370001E6E000E1F6E77EC8CF0280E026E440E6F
:10138000E3EC90F0A00E1E6E000E1F6E77EC8CF05A
:101390001F0E216E420E226E2F0E236EFF0E246E44
:1013A000420E9BEC87F0B5EC8EF01200948C948E7C
:1013B0009880988898863E50D8A4E1EF89F0E3EFB2
:1013C00089F0E9EF89F0000E086E0A0E076EECEF67
:1013D00089F03EC007F0086A07C03EF03F50D8A42D
:1013E000F4EF89F0F6EF89F0FCEF89F0000E0A6E59
:1013F000140E096EFFEF89F03FC009F00A6A09C0B8
:101400003FF040504110D8A408EF8AF00AEF8AF06C
:1014100010EF8AF0030E0C6EE80E0B6E14EF8AF0DC
:1014200040C00BF041C00CF00BC040F00CC041F0CC
:10143000000E0F6E0F50090DF3CF01F0F4CF02F044
:1014400001503C24D96E02503D20DA6EDF980F50D7
:10145000090DF3CF01F0F4CF02F001503C24D96E16
:1014600002503D20DA6EF30EDF160F50090DF3CF58
:1014700001F0F4CF02F001503C24036E02503D20F5
:10148000046E020E0324D96E000E0420DA6E000EE4
:10149000DE6E000EDD6E0F50090DF3CF01F0F4CFBC
:1014A00002F001503C24036E02503D20046E010EF8
:1014B0000324D96E000E0420DA6E000EDF6E0F508A
:1014C000090DF3CF01F0F4CF02F001503C24036E7C
:1014D00002503D20046E040E0324D96E000E042039
:1014E000DA6EDE50DE10D8A478EF8AF07AEF8AF058
:1014F00080EF8AF040C00DF041C00EF096EF8AF008
:101500000F50090DF3CF01F0F4CF02F001503C244D
:10151000036E02503D20046E040E0324D96E000EAB
:101520000420DA6EDECF0DF0DDCF0EF00F50090D86
:10153000F3CF01F0F4CF02F001503C24036E0250CF
:101540003D20046E040E0324D96E000E0420DA6ED2
:101550000DC0DEFF0EC0DDFF0F2A040E0F64B3EFD7
:101560008AF0B5EF8AF01AEF8AF01200000E066ECC
:1015700004BEBFEF8AF0BDEF8AF0C5EF8AF0036CBE
:10158000041ED8B0042A010E066E02BECCEF8AF00B
:10159000CAEF8AF0D2EF8AF0016C021ED8B0022A9C
:1015A000010E061A000E086E000E076E035004109E
:1015B000D8B4DDEF8AF0DFEF8AF007EF8BF0010E91
:1015C000056EE7EF8AF0D89003360436052A04AE9C
:1015D000ECEF8AF0EEEF8AF0E3EF8AF0D89007366E
:1015E00008360350015C04500258D8A0FAEF8AF084
:1015F000FCEF8AF001EF8BF00350015E0450025AB9
:101600000780D89004320332052EEEEF8AF00650A0
:10161000D8B40DEF8BF00FEF8BF013EF8BF0076C5E
:10162000081ED8B0082A07C001F008C002F0120056
:10163000FAEC90F0FDEC90F04CEC8DF0DBEC90F0DF
:10164000F3EC90F0C9EC90F0D6EC89F08DEC90F0D2
:10165000898CBFEC88F0000E3B6E000E3A6E590E7E
:10166000096EFD0E0A6E050E0B6E080E0C6E000E56
:101670000D6E010E0E6EBFEC8CF0000E026E640E4D
:10168000E3EC90F0000E226E000E236E000E246E2E
:10169000000E256E7EEC8EF0B5EC8EF0FA0E5564E1
:1016A00054EF8BF056EF8BF072EF8BF0000E556E0F
:1016B0003A2A030E3A645FEF8BF061EF8BF072EF22
:1016C0008BF0000E3A6E000E026E640EE3EC90F0AA
:1016D0003B50226E236A246A256A7EEC8EF03B2AF8
:1016E000B5EC8EF068EC84F04EEF8BF014EF00F068
:1016F000016E01A07EEF8BF080EF8BF083EF8BF01B
:101700008D8084EF8BF08D9001A289EF8BF08BEFB1
:101710008BF08EEF8BF08D828FEF8BF08D9201A48A
:1017200094EF8BF096EF8BF099EF8BF08D849AEF1E
:101730008BF08D9401A69FEF8BF0A1EF8BF0A4EFBF
:101740008BF08D86A5EF8BF08D9601A8AAEF8BF01C
:10175000ACEF8BF0AFEF8BF08D88B0EF8BF08D9806
:1017600001AAB5EF8BF0B7EF8BF0BAEF8BF08D8A53
:10177000BBEF8BF08D9A01ACC0EF8BF0C2EF8BF01A
:10178000C5EF8BF08D8CC6EF8BF08D9C01AECBEF4F
:101790008BF0CDEF8BF0D0EF8BF08D8ED1EF8BF007
:1017A0008D9ED2EC90F01200256EE5EF8BF0020ECC
:1017B000026E230EE3EC90F012EF8CF0020E026E3C
:1017C000660EE3EC90F012EF8CF02250236E246A48
:1017D0002450000AD8B4EFEF8BF012EF8CF02350B6
:1017E000000AD8B4D7EF8BF0010AD8B4DEEF8BF043
:1017F00012EF8CF0DC0E1E6EFF0E1F6E77EC8CF07D
:101800002BEF8CF0D20E1E6EFF0E1F6E77EC8CF05D
:101810002BEF8CF0D70E1E6EFF0E1F6E77EC8CF048
:101820002BEF8CF02550236E246A2450000AD8B484
:101830001CEF8CF02BEF8CF02350000AD8B4FAEF99
:101840008BF0010AD8B402EF8CF0030AD8B40AEF87
:101850008CF02BEF8CF01200146E020E0F18D8B41F
:1018600034EF8CF036EF8CF03BEF8CF00F5013EC34
:101870008FF041EF8CF0000E13EC8FF0010E13ECA3
:101880008FF00F5084EC8FF08C888C964D04D8B478
:101890004CEF8CF04EEF8CF057EF8CF01450106E34
:1018A000116A101C126E111C136E5AEF8CF014C0CA
:1018B00012F0136A125078EC8BF04B2A400E4B1842
:1018C000D8A465EF8CF067EF8CF06CEF8CF04B5088
:1018D00009EC8EF076EF8CF07F0E4B6472EF8CF09B
:1018E00074EF8CF076EF8CF07F0E4B6E1200A5EF4C
:1018F0008CF050504BC020F0216A2026000E21228F
:1019000021BE8CEF8CF0215009E1800E205CD8A024
:101910008CEF8CF08EEF8CF090EF8CF0BEEF8CF0B3
:101920001EC0F6FF1FC0F7FF000EF86E0F0EF76423
:1019300003D00800F55005D0F6CFE9FFF7CFEAFF56
:10194000EF5000EC80F01E4A1F2A1EC0F6FF1FC099
:10195000F7FF000EF86E0F0EF76403D00800F55085
:1019600005D0F6CFE9FFF7CFEAFFEF500009D8A482
:10197000BCEF8CF0BEEF8CF079EF8CF01200800E93
:101980000B60C5EF8CF0C7EF8CF005EF8DF0400ECB
:101990000C60CDEF8CF0CFEF8CF005EF8DF00D509B
:1019A000D8B4D5EF8CF0D7EF8CF0DFEF8CF00D04CE
:1019B000D8A4DDEF8CF0DFEF8CF005EF8DF009C0DF
:1019C0004EF00AC04FF00BC050F00CC051F00CC0EC
:1019D0000FF0070E0F16D8A4F0EF8CF0F4EF8CF098
:1019E000106A102AF5EF8CF0106A0CC001F0026A40
:1019F000000E046E080E036EB6EC8AF0015010243F
:101A0000526E0DC053F00EC054F01200256E800EC1
:101A100025600DEF8DF00FEF8DF04BEF8DF0800E08
:101A2000226015EF8DF017EF8DF04BEF8DF0400E2B
:101A300021601DEF8DF01FEF8DF04BEF8DF0400E0C
:101A4000236025EF8DF027EF8DF04BEF8DF022C056
:101A50000DF021C00EF024C00FF0255040EC8FF0A7
:101A600022C00DF023C00EF024C00FF0255040EC32
:101A70008FF023C01CF025C01DF024C01EF02150A3
:101A8000DEEC8FF023C01CF022C01DF024C01EF03D
:101A90002150DEEC8FF012009690969296949696D6
:101AA0009698969A969C969E959095929598959EC6
:101AB000959695948C988C968C9E8C94270E086E97
:101AC000F50EE82EFED7082EFCD700F08C84020E0F
:101AD000096E860E086E990EE82EFED7082EFCD7EA
:101AE000092EFAD700F0020E066E3F0EA3EC8FF01F
:101AF000020E066EC00EA3EC8FF0000E026E000EFA
:101B0000E3EC90F0010E4D6E000E526E52C051F09B
:101B100051C050F050C04CF04CC04BF012000B6E56
:101B200007C002F00B50E3EC90F04CC001F04B50BA
:101B300014EC90F00C6E0828D8A4A1EF8DF0A3EF60
:101B40008DF0B5EF8DF007C009F0070E0916010EF4
:101B50000A6E092AAEEF8DF0D8900A36092EACEF46
:101B60008DF00A500C12C6EF8DF007C009F0070E79
:101B70000916010E0A6E092AC0EF8DF0D8900A36B8
:101B8000092EBEEF8DF00A50FF0A0C164CC001F072
:101B90000CC002F04B50FAEC8FF012005A0EF66EA9
:101BA000200EF76E010EF86E00EEA9F010EE2DF08B
:101BB0000900F5CFEEFFE550E150FAE1D60EF66EE2
:101BC000210EF76E010EF86E00EE3CF010EE0FF0F5
:101BD0000900F5CFEEFFE550E150FAE100EEE2F04A
:101BE00014EE00F0EE6AE550E150FCE1E250FAE15B
:101BF00000EED6F00C0EEE6AE806FDE100EE4BF0CA
:101C00000B0EEE6AE806FDE156905692000118EFC1
:101C10008BF00E6E800E0E6010EF8EF012EF8EF0D5
:101C200043EF8EF0400E0E6018EF8EF01BEF8EF03B
:101C3000010E1CEF8EF0000E0D6E0D50D8B423EF88
:101C40008EF025EF8EF032EF8EF0C00E0E24086E6F
:101C5000096AFF0E0922400E08100A6E09500B6E29
:101C60003AEF8EF0400E0EC008F0096A08100A6EB6
:101C700009500B6E0AC00CF00EC04BF00DC006F000
:101C80000C50A3EC8FF01200000E066E000E056ED5
:101C900003500410D8B44FEF8EF051EF8EF079EF6F
:101CA0008EF0010E076E59EF8EF0D8900336043691
:101CB000072A04AE5EEF8EF060EF8EF055EF8EF0E7
:101CC000D890053606360350015C04500258D8A05F
:101CD0006CEF8EF06EEF8EF073EF8EF00350015EBE
:101CE0000450025A0580D89004320332072E60EF68
:101CF0008EF005C001F006C002F012002250231041
:101D000024102510D8A487EF8EF089EF8EF08EEF87
:101D10008EF0300E00EC80F0B4EF8EF0800E2518BF
:101D2000221023102410D8B498EF8EF09AEF8EF082
:101D3000B4EF8EF020EE26F00B0EDE6AE806FDE230
:101D400022C001F023C002F024C003F025C004F03B
:101D5000260E056E000E066E58EC82F0260E1E6EE4
:101D6000000E1F6E77EC8CF01200000E156E000E48
:101D700009EC8EF01550C1EC8FF0000E166E400E7F
:101D80001660C5EF8EF0C8EF8EF0010EC9EF8EF031
:101D9000000E0F6E4CC001F0165014EC90F02CECBD
:101DA0008CF0162A7F0E1664D8EF8EF0DAEF8EF0E4
:101DB000BFEF8EF0080E15263F0E1564E2EF8EF091
:101DC000E4EF8EF0B7EF8EF01200026E000E046E9C
:101DD0000150D8B4EEEF8EF0F0EF8EF011EF8FF0EF
:101DE000010E036EF7EF8EF0D8900136032A01AE94
:101DF000FCEF8EF0FEEF8EF0F4EF8EF0D89004360C
:101E00000150025CD8A007EF8FF009EF8FF00CEFC4
:101E10008FF00150025E0480D8900132032EFEEF55
:101E20008EF004501200046E045084EC8FF0968EF5
:101E30008C988C868C9E140EE82EFED78C8E140EF9
:101E4000E82EFED784BE27EF8FF02BEF8FF0036ACA
:101E5000032A2CEF8FF0036A000E03B0800E036E8E
:101E60000350056E8C9EA00EE82EFED705BE3BEFFC
:101E70008FF03DEF8FF01EEF8FF08C96969E120044
:101E8000116E11500D5CD8B048EF8FF04AEF8FF013
:101E90005AEF8FF011C010F00DC011F010C00DF00E
:101EA0005AEF8FF00EC007F00FC008F011508FEC02
:101EB0008DF0112A11500D5CD8B061EF8FF063EFF7
:101EC0008FF052EF8FF01200076E000E096E000EB9
:101ED000086E09C001F007C002F00850FAEC8FF05C
:101EE000082A7F0E086477EF8FF079EF8FF069EFA3
:101EF0008FF0080E09263F0E096481EF8FF083EF03
:101F00008FF067EF8FF01200016E010E026E01502C
:101F1000D8A48DEF8FF08FEF8FF093EF8FF08C823E
:101F20008C90A2EF8FF00104D8A499EF8FF09BEF73
:101F30008FF09FEF8FF08C808C92A2EF8FF08C90BF
:101F40009CEF8FF01200076E020E0618D8B4ABEFAC
:101F50008FF0ADEF8FF0B2EF8FF0065013EC8FF0F3
:101F6000B8EF8FF0000E13EC8FF0010E13EC8FF032
:101F7000065084EC8FF08C988C96075078EC8BF0A0
:101F800012000A6E400E0A60C8EF8FF0CAEF8FF0A1
:101F9000DDEF8FF00AC001F0026A000E046E080E39
:101FA000036EB6EC8AF00150B809096E0AC04CF015
:101FB000020E066E0950A3EC8FF01200206E205026
:101FC0001C5CD8B0E6EF8FF0E8EF8FF0EEEF8FF00B
:101FD00020C01FF01CC020F01FC01CF020C007F064
:101FE0001DC008F01CC009F01EC00AF01D506BECAB
:101FF00086F01200066E01C003F0D8900332D8902C
:102000000332D89003320650080DE20EF324046E1A
:10201000000EF420056E03500424D96E000E052036
:10202000DA6E02C0DFFF1200056E01C002F0D89028
:102030000232D8900232D89002320550080DE20EDA
:10204000F324036E000EF420046E02500324D96EB4
:10205000000E0420DA6EDF50120000000000B00411
:102060006A210100000000B00456210100000000B8
:10207000B0047E210100000000B0044221010000F4
:072080000000B0042E210155
:1020880001500302F3CF05F0F4CF06F0015004022B
:10209800F350062602500302F350062605C001F04D
:1020A80006C002F012004D04D8B45DEF90F05FEF67
:1020B80090F062EF90F00A6864EF90F0000E0A6EFC
:1020C8000A5064EC8FF01200206E1CC007F01DC08F
:1020D80008F01EC009F01FC00AF020506BEC86F013
:1020E8001200016E400E4C607CEF90F07EEF90F095
:1020F80080EF90F001C04CF01200016E800E01607C
:1021080088EF90F08AEF90F08CEF90F001C04BF0E0
:102118001200D58ED59CD59AD596D550F80B0209C4
:10212800D56EF28A120086B69CEF90F09FEF90F081
:10213800010EA0EF90F0000E120086B8A6EF90F006
:10214800A9EF90F0010EAAEF90F0000E120082BCE9
:10215800B0EF90F0B3EF90F0010EB4EF90F0000EF6
:10216800120082BEBAEF90F0BDEF90F0010EBEEF04
:1021780090F0000E120086B0C4EF90F0C7EF90F018
:10218800010EC8EF90F0000E12009890CA84B1902A
:10219800B192B184B186C80ECB6E12008C8E140E2B
:1021A800E82EFED78C9E140EE82EFED712009892C9
:1021B8009B0EAB6EA884A88A9C8EA8981200036E0A
:1021C800035081EC90F0025075EC90F01200A900D9
:0D21D8000A140000000000000000000000DC
:1021E600D388D38AD38CD390D3929B8C12009594A8
:0A21F600929C1200F28EF28C12008F
:06FFF8008CF602F0F8F1A6
:00000001FF
