:040000002EEF00F0EF
:100008005F82F2A40AEF00F00CEF00F02CEF00F092
:10001800FD0ED76E110ED66E0001E24BE32BE04BBE
:10002800E12BE80EE05D030EE159D8A01EEF00F0C9
:1000380020EF00F02BEF00F0000EE16F000EE06FF4
:10004800010E01010C27000E0D230E230F23F2943D
:080058005F9211008BEFAFF085
:10C9CA00004361703A3534306D4168004379636CD5
:10C9DA00653A322F34004375723A3233306D410072
:10C9EA00566F6C3A332C333556000E0000000000A7
:10C9FA00000000000000000000000000000000002D
:10CA0A00000000000000000000000000000000001C
:10CA1A00000000000000000000000000000000000C
:10CA2A0000000000000000000000000000000000FC
:10CA3A0000000000000000000000000000000000EC
:10CA4A0000000000000000000000000000000000DC
:10CA5A0000000000000000050000000000000000C7
:10CA6A00FC7F0E00FC7F0F00FC7F07000000000027
:10CA7A0000000000000000000000000000000000AC
:10CA8A00000000000000000000000000000000009C
:10CA9A00000000000000000000000000000000008C
:10CAAA00000000000000000000000000000000007C
:10CABA00000000000000000000000000000000006C
:10CACA0000000000090000000000000000FC010056
:10CADA0000FC01000000000000000000000000004F
:10CAEA0000FC010000FC0100000000000000000042
:10CAFA00000000000000000000000000000000002C
:10CB0A00000000000000000000000000000000001B
:10CB1A00000000000000000000000000000000000B
:10CB2A0000000000000000000000000000000000FB
:10CB3A0000110000000000600000806100008061B8
:10CB4A000C0080E10F0080FD0F00807F0000F86F6D
:10CB5A000000FC610C008CE10F0080FD0F00807F5B
:10CB6A000000F86F0000FC6100008C610000802169
:10CB7A00000080010000000000000000000000002A
:10CB8A00000000000000000000000000000000009B
:10CB9A00000000000000000000000000000011007A
:10CBAA0000000000830100C0C70300E08F0300708B
:10CBBA000C0700300C0600180C060018040600FFCB
:10CBCA00FF7F00FEFF3F0018060600180603001844
:10CBDA000603003886030070FE010070FC000000A6
:10CBEA0078000000000000000000000000000000C3
:10CBFA00000000000000000000000000000000002B
:10CC0A000000000000000000000000150000000005
:10CC1A00E0000000F0010000F80300001C0304001B
:10CC2A000C030E008C830F00FCC10300F8F0000017
:10CC3A00707C0000001E000080070300E0830700EC
:10CC4A00F0C00F003CC00C001C600C0008600C0017
:10CC5A000060060000E0070000C003000080010039
:10CC6A0000000000000000000000000000000000BA
:10CC7A000000000000000000160000000000E003B1
:10CC8A000000F0070000F80700701C0E00F80E0CF8
:10CC9A0000F80F0C00DC070C008C070C000C0F0CC2
:10CCAA00000C1F06008C1F0600CC390700F8710320
:10CCBA0000F8F0030070E0010000E0010000F80352
:10CCCA0000003C070000180E0000000E00000007DC
:10CCDA00000000000000000000000000000000004A
:10CCEA000000000000040000000000000000FC0139
:10CCFA000000FC010000000000000000000000002D
:10CD0A000000000000000000000000000000000019
:10CD1A000000000000000000000000000000000009
:10CD2A0000000000000000000000000000000000F9
:10CD3A0000000000000000000000000000000000E9
:10CD4A0000000000000000000000000000000000D9
:10CD5A0000000B000000000000000000FC030000BF
:10CD6A00FF1F00C0FF3F00E003FC00F000E00138B5
:10CD7A0000C0013C0080031C008003080000000082
:10CD8A000000000000000000000000000000000099
:10CD9A000000000000000000000000000000000089
:10CDAA000000000000000000000000000000000079
:10CDBA000000000000000000000000000000000A5F
:10CDCA0000000000080000001C0080033C008003F3
:10CDDA003800C001F000F001E003FC00C0FF3F0092
:10CDEA0000FF1F0000FC030000000000000000001C
:10CDFA000000000000000000000000000000000029
:10CE0A000000000000000000000000000000000018
:10CE1A000000000000000000000000000000000008
:10CE2A000000000000000000000000000A000000EE
:10CE3A0000C0000000C00000004C020000D803003F
:10CE4A0000F0010000FC000000AC0100003003000B
:10CE5A000030000000000000000000000000000098
:10CE6A0000000000000000000000000000000000B8
:10CE7A0000000000000000000000000000000000A8
:10CE8A000000000000000000000000000000000098
:10CE9A000000000000000000000E0000000000403A
:10CEAA0000000060000000600000006000000060F8
:10CEBA00000000FF0F0000FF0F0000FF0F000060DE
:10CECA0000000060000000600000006000000060D8
:10CEDA000000000000000000000000000000000048
:10CEEA000000000000000000000000000000000038
:10CEFA000000000000000000000000000000000028
:10CF0A0000000000000005000000000000660000AC
:10CF1A00006F0000003F0000001E0000000000003B
:10CF2A0000000000000000000000000000000000F7
:10CF3A0000000000000000000000000000000000E7
:10CF4A0000000000000000000000000000000000D7
:10CF5A0000000000000000000000000000000000C7
:10CF6A0000000000000000000000000000000000B7
:10CF7A000000000A000000000030000000700000FD
:10CF8A0000300000003000000030000000300000D7
:10CF9A0000300000003000000030000000000000F7
:10CFAA000000000000000000000000000000000077
:10CFBA000000000000000000000000000000000067
:10CFCA000000000000000000000000000000000057
:10CFDA000000000000000000000000000000000047
:10CFEA0005000000000000000000000E0000000F15
:10CFFA000000000700000000000000000000000020
:10D00A000000000000000000000000000000000016
:10D01A000000000000000000000000000000000006
:10D02A0000000000000000000000000000000000F6
:10D03A0000000000000000000000000000000000E6
:10D04A00000000000000000000000000000B0000CB
:10D05A0000000000040000000F0000C00F0000F8EC
:10D06A000100007E0000801F0000E0070000FC01B4
:10D07A0000007C0000001C0000000000000000000E
:10D08A000000000000000000000000000000000096
:10D09A000000000000000000000000000000000086
:10D0AA000000000000000000000000000000000076
:10D0BA000000000000000000000016000000000050
:10D0CA00F8010000FF030080FF0700C0030700E02B
:10D0DA00010E0070000C0030000C0038000C001823
:10D0EA00000C0008000C000C000C000C0006000CE0
:10D0FA000006000C0007000C0003001C8003001847
:10D10A00C0010038F00000F07F0000E03F0000C0DE
:10D11A000F000000000000000000000000000000F6
:10D12A0000000000000000100000000000000000E5
:10D13A000000000000000000000100008003000061
:10D14A00C0030000C0010000E0000000E000000091
:10D15A00700000007000000038000000F8FF0F00A7
:10D16A00FCFF0F00FCFF0F000000000000000000A1
:10D17A0000000000000000000000000000000000A5
:10D18A000000000000000000000000000000000095
:10D19A000000000014000000000000000000000071
:10D1AA0000E0000E00E0000F00F0C00F0038E00DB4
:10D1BA000018E00C0018700C000C300C000C380C35
:10D1CA00000C380C000C1C0C000C1C0C000C0C0C79
:10D1DA00000C0E0C00180F0C00F8070E00F8030FD5
:10D1EA0000E0010E00000000000000000000000046
:10D1FA000000000000000000000000000000000025
:10D20A000015000000000000000000C003007CC000
:10D21A0007007CC007007C000E000C000C000C000C
:10D22A000C000C0E0C000C060C000C070C000C0772
:10D23A000C008C030C00CC030600EC0306007C03F4
:10D24A0006003C0303001CC703000CFE010000FE9D
:10D25A000000007C00000000000000000000000048
:10D26A00000000000000000000000000000016009E
:10D27A00C0000000E0000000F0000000F80000001C
:10D28A00F8000000FC000000EE00000067000080CB
:10D29A00630000C0610000E06000007060000038B8
:10D2AA00700000FCFF0F00FCFF0F00FCFF0F0000E6
:10D2BA00300000003000000030000000380000009C
:10D2CA0038000000380000000000000000000000E4
:10D2DA00000000000000000000000015000000002F
:10D2EA000000000000080300F81F0700F81F0700ED
:10D2FA00F80D0E00080E0C0008060C0008060C00BB
:10D30A0008020C0008030C0008030C0008030C00B8
:10D31A00080306000C0306000C0307000C070300B1
:10D32A000CC603000CFE010000FC0000007800009F
:10D33A0000000000000000000000000000000000E3
:10D34A000000000000000000160000000000780045
:10D35A000000FE030080FF0300C0C70700E0E107EA
:10D36A000060700E0070300C0038380C00181C0C6D
:10D37A0000180C0C000C0C0C000C060C000C060E11
:10D38A00000C0606000C0606000C0607000C060335
:10D39A0000388E030078FC010030FC0000007800A1
:10D3AA000000000000000000000000000000000073
:10D3BA00000000000016000000000000000000004D
:10D3CA000000F8010000FC010000FC0000000C0055
:10D3DA0000000C0000000C0000000C000E000C8085
:10D3EA000F000CE007000CF001000CFC00000C3EE2
:10D3FA0000008C1F0000EC070000FC030000FC008A
:10D40A0000003C0000000C000000040000000000C6
:10D41A000000000000000000000000000000000002
:10D42A000000160000000000C0010000E003000038
:10D43A00F00700C0790600F03B0E00F81F0C003818
:10D44A000E0C00180C0C001C0C0C000C060C000C2A
:10D45A00060C000C0606000C0606000C0606001C4C
:10D46A00070300F8070300F886030070CE010000E6
:10D47A00FC000000FC000000380000000000000072
:10D48A00000000000000000000000000000000167C
:10D49A00000000000000010080830300E08707000D
:10D4AA00F00F0700700C0E00381C0C0018180C0046
:10D4BA001C180C000C180C000C180C000C180C0092
:10D4CA000C1804000C0C06000C0C06001C0C0700BF
:10D4DA001886030038C70300F0E30100F0FF0000DC
:10D4EA00E07F0000001F00000000000000000000B4
:10D4FA00000000000000000000000000050000001D
:10D50A000000000000000C0E00001E0F00000C07B7
:10D51A000000000000000000000000000000000001
:10D52A0000000000000000000000000000000000F1
:10D53A0000000000000000000000000000000000E1
:10D54A0000000000000000000000000000000000D1
:10D55A0000000000000000000000000000000000C1
:10D56A0000000000000000000005000000000000AC
:10D57A006600000C6F00001E3F00000E1E00000037
:10D58A000000000000000000000000000000000091
:10D59A000000000000000000000000000000000081
:10D5AA000000000000000000000000000000000071
:10D5BA000000000000000000000000000000000061
:10D5CA000000000000000000000000000000000051
:10D5DA000000000000000D00000000000000000034
:10D5EA006000000070000000F0000000F801000078
:10D5FA00D80100009C0300000C0300000E07000085
:10D60A00070E0000070E00000202000000000000E2
:10D61A000000000000000000000000000000000000
:10D62A0000000000000000000000000000000000F0
:10D63A0000000000000000000000000000000000E0
:10D64A000000000D00000000008C0100008C0100A9
:10D65A00008C0100008C0100008C0100008C01008C
:10D66A00008C0100008C0100008C0100008C01007C
:10D67A00008C0100008C0100000000000000000086
:10D68A000000000000000000000000000000000090
:10D69A000000000000000000000000000000000080
:10D6AA000000000000000000000000000000000070
:10D6BA000D00000000000000000002020000070E3A
:10D6CA000000070E00000E0700000C0300009C0378
:10D6DA000000D8010000F8010000F000000070000E
:10D6EA0000006000000000000000000000000000D0
:10D6FA000000000000000000000000000000000020
:10D70A00000000000000000000000000000000000F
:10D71A0000000000000000000000000000100000EF
:10D72A0000002000000070000000F0000000787087
:10D73A00000018F8000018FC1C000CDC1E000CCEBF
:10D74A000E000CC700000CF700008C730000DC21EF
:10D75A000000F8010000F80000007000000000005E
:10D76A0000000000000000000000000000000000AF
:10D77A00000000000000000000000000000000009F
:10D78A00000000000000000000001B000000000074
:10D79A0080070000E01F0000783800001C300000FD
:10D7AA000E70000006670000C3670080E36F008008
:10D7BA00716C0080396C00C0186C00C00C6600C027
:10D7CA000C36006004330060863B006086110060FE
:10D7DA00C6070060FE0F0060FE0F00600E0C0060BE
:10D7EA00000C00C0000600C0010600808303000090
:10D7FA00FF0100007C00001500000E0000800F00F1
:10D80A0000C00F0000F0010000780000003E000098
:10D81A00001F0000801F0000E01B0000F818000035
:10D82A007C1800007C180000F8180000E01B0000BB
:10D83A00801F0000001F0000007C000000F80100AB
:10D84A0000E00F0000800F0000000E000000000042
:10D85A0000000000000000000000000000000000BE
:10D86A0000000000150000000000000000F8FF0F93
:10D87A0000FCFF0F00F8FF0F0018060C0018060C3A
:10D88A000018070C000C0704000C0306000C030622
:10D89A00008C0306008C030700CC030300CC0303AF
:10D8AA0000FC83030078C3010038E7010000FE0092
:10D8BA0000007E0000001C000000000000000000C4
:10D8CA00000000000000000000000000000000004E
:10D8DA00001200000000007C000000FF0100C0FFF1
:10D8EA000700E0830700F0000E0030000E00380049
:10D8FA000C0018000C000C000C000C000C000C00B2
:10D90A000C000C0006000C0007000C00070018C0F1
:10D91A00030038C0010038C0010000000000000008
:10D92A0000000000000000000000000000000000ED
:10D93A0000000000000000000000000000001500C8
:10D94A0000000000000000FCFF0F00FCFF0F00FCBD
:10D95A00FF0F0038000C0018000C0018000C001C07
:10D96A000006000C0006000C0006000C0007000C64
:10D97A000003000C8003000C8003001CC001001887
:10D98A00E0010078F80000F07F0000E01F0000C00E
:10D99A000700000000000000000000000000000076
:10D9AA00000000000000000000000013000000005A
:10D9BA0010000000FCFF0F00FCFF0F00FCFF0F002F
:10D9CA00180C0600180C0600180C0600180C0600A5
:10D9DA00180C0600180C0600180C0600180C060095
:10D9EA00180E06001C0E06001C0406001C00070088
:10D9FA000000070000000200000000000000000014
:10DA0A00000000000000000000000000000000000C
:10DA1A0000000000000000001100000000000000EB
:10DA2A0000F8FF0F00FCFF0F00FCFF0F00381C007E
:10DA3A0000381C0000380C0000180C0000180C00FC
:10DA4A0000180C0000180C0000180E00001C0E0034
:10DA5A00001C0E00001C0E00001C0000000000004C
:10DA6A0000000000000000000000000000000000AC
:10DA7A00000000000000000000000000000000009C
:10DA8A000000000000170000000000F8000000FE7F
:10DA9A00010080FF0300C0870700E0010600E000E4
:10DAAA000E0070000C0030000C0038000C0018004A
:10DABA000C0018000C000C100C000C1806000C18B6
:10DACA0006000C1806000C1803000C9803001CCC66
:10DADA00010018EC010038FC0000107C0000001C5A
:10DAEA00000000000000000000000000000000002C
:10DAFA0000001400000000000C0000FCFF0F00FCF6
:10DB0A00FF0F00FCFF0F00000E0000000E000000D7
:10DB1A000E0000000E0000000E0000000E000000C3
:10DB2A000E000000060000000600000006000000CB
:10DB3A0006000000060000FCFF0F00FCFF0F00FCBF
:10DB4A00FF0F0000000000000000000000000000BD
:10DB5A0000000000000000000000000000000005B6
:10DB6A000000000000000000FCFF0F00FCFF0F0097
:10DB7A00FCFF0F0000000000000000000000000091
:10DB8A00000000000000000000000000000000008B
:10DB9A00000000000000000000000000000000007B
:10DBAA00000000000000000000000000000000006B
:10DBBA00000000000000000000000000000000005B
:10DBCA00000000000000000000000000100000003B
:10DBDA00000080030000C0070000C00F0000001C06
:10DBEA0000000018000000180000001800000018CB
:10DBFA00000000180000001C0000000E0000000FCA
:10DC0A0000FCFF0700FCFF0300FCFF01000000000E
:10DC1A0000000000000000000000000000000000FA
:10DC2A0000000000000000000000000000000000EA
:10DC3A0000000000000000000013000000000000C7
:10DC4A000000FCFF0F00FCFF0F00FCFF0F00800F1D
:10DC5A000000800F0000C01D0000E0380000E078DE
:10DC6A0000007070000030E0000038C0010018C0E9
:10DC7A0003000C8003000C00070000000E000000E7
:10DC8A000E00000004000000000000000000000078
:10DC9A00000000000000000000000000000000007A
:10DCAA000000000000000F0000000000000000FC5F
:10DCBA00FF0F00FCFF0F00FCFF0F0000000E00002A
:10DCCA00000E00000006000000060000000600002A
:10DCDA00000600000007000000070000000700001F
:10DCEA000007000000000000000000000000000023
:10DCFA00000000000000000000000000000000001A
:10DD0A000000000000000000000000000000000009
:10DD1A00000000190000000000000000F8FF0F00DA
:10DD2A00FCFF0F00FCFF0F00F0010000C003000021
:10DD3A00800F0000001E0000007C000000F80100B7
:10DD4A0000E0070000800F0000800F0000E00700DD
:10DD5A0000F0010000F80000003C0000001E000076
:10DD6A00000F0000C0030000E0010000FCFF0F00EC
:10DD7A00FCFF0F00FCFF0F00000000000000000085
:10DD8A00130000000000000000FCFF0F00FCFF0F62
:10DD9A0000FCFF0F00F0010000C003000080070034
:10DDAA0000000F0000001E0000003C0000003800C8
:10DDBA00000070000000F0000000E0010000C00355
:10DDCA0000FCFF0700FCFF0F00FCFF0F0000000033
:10DDDA000000000000000000000000000000000039
:10DDEA000000000000000000000000000015000014
:10DDFA00000000F8000000FE010080FF0300C0835D
:10DE0A000700E001060070000E0030000C00380028
:10DE1A000C0018000C000C000C000C000C000C008C
:10DE2A0006000C0006000C0007001C00030018C0C6
:10DE3A00030078E00100F0FF0000E07F0000801F8F
:10DE4A0000000000000000000000000000000000C8
:10DE5A00000000000000000000001300000000C0E5
:10DE6A00000000FCFF0F00FCFF0F00FCFF0F003852
:10DE7A001C0000380C0000180C0000180C000008E8
:10DE8A000E00000C0E00000C0600000C0700000C2F
:10DE9A000300008C030000CC010000FC010000F824
:10DEAA000000003800000000000000000000000030
:10DEBA000000000000000000000000000000000058
:10DECA0000000000000000170000000000F8000039
:10DEDA0000FE030080FF0700C0070700E0010E00F4
:10DEEA00E0000C0070000C0030000C0018000C0060
:10DEFA0018000C000C200C000C700E000CF0060030
:10DF0A000CE006000CC007001CC003001CC0070080
:10DF1A0078F00700F0FF0E00E03F1C00C00F1C0065
:10DF2A0000000800000000000000000000000000DF
:10DF3A00000000001500000000E0000000FCFF0FD8
:10DF4A0000FCFF0F00FCFF0F00381C0000183E0009
:10DF5A0000183E0000187600000C7600000CE6005F
:10DF6A00000CE300000CC300008CC301008C81018B
:10DF7A0000CC810300FC000300F80007003800060B
:10DF8A000000000E0000000E00000000000000006B
:10DF9A000000000000000000000000000000000077
:10DFAA0000150000000000070300C0870700E00F0B
:10DFBA000700700C0E00300C0C00180C0C00180C2A
:10DFCA000C00180C0C000C040C000C040C000C06C1
:10DFDA000E000C0606000C0606000C0607001C06BE
:10DFEA0007003886030038C6030010FE010000FC53
:10DFFA0000000038000000000000000000000000DF
:10E00A0000000000000000000000000000001230C4
:10E01A000000003000000030000000300000003036
:10E02A000000001000000010000000F8FF0F00F8C8
:10E03A00FF0F00F8FF0F001800000008000000089A
:10E04A00000000080000000C0000000C0000000C9A
:10E05A000000000C000000000000000000000000AA
:10E06A0000000000000000000000000000000000A6
:10E07A000000000000000000000000120000000084
:10E08A0000000000FCFF0300FCFF0700F8FF070088
:10E09A0000000E0000000C0000000C0000000C0044
:10E0AA0000000C0000000C0000000E00000006003A
:10E0BA000000070000000700FCFF0300FCFF01004E
:10E0CA00FCFF00000000000000000000000000004B
:10E0DA000000000000000000000000000000000036
:10E0EA00000000000000000013000000003C0000D7
:10E0FA0000FC010000F8070000C01F0000007F00BC
:10E10A000000F80F0000C00F0000C00F0000F00070
:10E11A0000007C0000001E0000000F0000C0030089
:10E12A0000E0010000F0000000780000003C000060
:10E13A0000180000000000000000000000000000BD
:10E14A0000000000000000000000000000000000C5
:10E15A0000000000001B000000007C000000FC031F
:10E16A000000FC1F000000FF000000F80F0000E0A4
:10E17A000F0000C00F0000F0010000780000003E10
:10E18A000000800F0000F8030000F8000000F80308
:10E19A000000800F0000003E000000FC000000F0BC
:10E1AA00070000800F0000C00F0000F80300007E87
:10E1BA000000801F0000FC070000FC0100003C007A
:10E1CA00000011000004001C000E003C000F007C3F
:10E1DA00C00700F8E00300F0F10000C07B000080F7
:10E1EA003F0000001F0000001F0000C07F0000E089
:10E1FA00F10000F0E0010078C003003C800F001C31
:10E20A00000F0018000400000000000000000000D9
:10E21A0000000000000000000000000000000000F4
:10E22A0000000000000000000000000000000015CF
:10E23A00180000001C0000003C00000078000000EC
:10E24A00F0000000E0010000C001000080030000AF
:10E25A000007000000FF0F0000FE0F0000FE0F0085
:10E26A000007000080030000C0010000E001000078
:10E27A00E000000070000000380000003C000000D0
:10E28A001C00000000000000000000000000000068
:10E29A000000000000000000000000001400000060
:10E2AA000000000E0038000F003C800F001CC00F59
:10E2BA00000CC00D000CE00C000C700C000C380CAB
:10E2CA00000C3C0C000C1E0C000C0F0C008C070CF4
:10E2DA0000CC030C00EC010C00EC000C00FC000C60
:10E2EA00007C000E003C000F001C0006000000002D
:10E2FA000000000000000000000000000000000014
:10E30A000000000000000000000C000000000000F7
:10E31A00000000000000F8FFFF03FCFFFF03FCFF02
:10E32A00FF030C0000030C0000030C0000030C00A8
:10E33A0000030C0080030000000100000000000040
:10E34A0000000000000000000000000000000000C3
:10E35A0000000000000000000000000000000000B3
:10E36A0000000000000000000000000000000000A3
:10E37A000000000000000B080000001C0000007CE8
:10E38A00000000F0010000C0070000001F000000AC
:10E39A007C000000F0010000C00F0000000F000028
:10E3AA00000400000000000000000000000000005F
:10E3BA000000000000000000000000000000000053
:10E3CA000000000000000000000000000000000043
:10E3DA000000000000000000000000000000000033
:10E3EA0000000009000000000C0000030C000003FC
:10E3FA000C0000030C0000030C000003FCFFFF03E9
:10E40A00FCFFFF03FCFFFF03000000000000000008
:10E41A0000000000000000000000000000000000F2
:10E42A0000000000000000000000000000000000E2
:10E43A0000000000000000000000000000000000D2
:10E44A0000000000000000000000000000000000C2
:10E45A000D000000000001000080030000C003005E
:10E46A0000E0010000F0000000780000001C00003D
:10E47A00007C000000F0000000E0030000C0030080
:10E48A00000003000000000000000000000000007F
:10E49A000000000000000000000000000000000072
:10E4AA000000000000000000000000000000000062
:10E4BA00000000000000000000000000000D000045
:10E4CA00C0000000C0000000C0000000C000000042
:10E4DA00C0000000C0000000C0000000C000000032
:10E4EA00C0000000C0000000C0000000C000000022
:10E4FA00C000000000000000000000000000000052
:10E50A000000000000000000000000000000000001
:10E51A0000000000000000000000000000000000F1
:10E52A0000000000000000000000080000000000D9
:10E53A000000000C0000001C000000180000003061
:10E54A000000006000000060000000000000000001
:10E55A0000000000000000000000000000000000B1
:10E56A0000000000000000000000000000000000A1
:10E57A000000000000000000000000000000000091
:10E58A000000000000000000000000000000000081
:10E59A00000000000000000F00000000000006005C
:10E5AA0000800F0000CC0F0000CE0C0000C60C004B
:10E5BA0000660C0000630400002306000033060016
:10E5CA000033030000B3010000FF0F0000FE0F003C
:10E5DA0000FE0F0000000000000000000000000024
:10E5EA000000000000000000000000000000000021
:10E5FA000000000000000000000000000000000011
:10E60A0000000000100000000000000000FCFF0FE6
:10E61A0000FCFF0F00FCFF0F00001C0C00000E0C9A
:10E62A00000006060000060600000203000083033D
:10E63A000000C3010000E30000007F0000003F006B
:10E64A0000000E00000000000000000000000000B2
:10E65A0000000000000000000000000000000000B0
:10E66A0000000000000000000000000000000000A0
:10E67A00000F0000000000E0030000F0070000F8AF
:10E68A000700003C0E00000E0C0000060C000007FC
:10E69A000C0000030C0000030C000003060000033A
:10E6AA0007000087070000860300008601000000BB
:10E6BA000000000000000000000000000000000050
:10E6CA000000000000000000000000000000000040
:10E6DA000000000000000000000000000000100020
:10E6EA000000000080070000C0070000E00F0000E3
:10E6FA00780C0000380C00001C0C00000C0C000008
:10E70A000C0600000606000006030000860300004F
:10E71A00C60100FCFF0F00FCFF0F00FCFF0F00000A
:10E72A0000000000000000000000000000000000DF
:10E73A0000000000000000000000000000000000CF
:10E74A0000000000000000000000001000000000AF
:10E75A0000C0030000F0070000F80F00007C0E0064
:10E76A00006C0C0000660C0000660C0000330C0004
:10E77A0000330C0000330E0000330600003306009D
:10E78A00009E0300009E0300000C01000000000030
:10E79A00000000000000000000000000000000006F
:10E7AA00000000000000000000000000000000005F
:10E7BA0000000000000000000D00040000000C0032
:10E7CA0000000C0000000C0000C0FF0F00F0FF0F5B
:10E7DA0000F8FF0F001C0600000C0600000C0600E3
:10E7EA00000C0600003807000018070000000000AF
:10E7FA00000000000000000000000000000000000F
:10E80A0000000000000000000000000000000000FE
:10E81A0000000000000000000000000000000000EE
:10E82A0000000000000F000000000080070000E068
:10E83A000F0000F0CF010078CC01001C8C03000C03
:10E84A000C0300060603000607030002030300C3C5
:10E85A00830300F3C00100FFFF0100FFFF0000FF78
:10E86A003F0000000000000000000000000000005F
:10E87A00000000000000000000000000000000008E
:10E88A00000000000000000000000000000000007E
:10E89A0000000F0000000000000000FCFF0F00FC59
:10E8AA00FF0F00FCFF0F00001C0000000E0000001C
:10E8BA00060000000600000003000000030000003C
:10E8CA0003000000FF0F0000FF0F0000FE0F000012
:10E8DA00000000000000000000000000000000002E
:10E8EA00000000000000000000000000000000001E
:10E8FA000000000000000000000000000000000509
:10E90A00000000000000000070FF0F0078FF0F00F9
:10E91A0038FF0F00000000000000000000000000A7
:10E92A0000000000000000000000000000000000DD
:10E93A0000000000000000000000000000000000CD
:10E94A0000000000000000000000000000000000BD
:10E95A0000000000000000000000000000000000AD
:10E96A000000000000000000000000000600000097
:10E97A00060000000700FFFF0318FFFF033CFFFF2C
:10E98A00011C000000000000000000000000000060
:10E99A00000000000000000000000000000000006D
:10E9AA00000000000000000000000000000000005D
:10E9BA00000000000000000000000000000000004D
:10E9CA00000000000000000000000000000000003D
:10E9DA000000000000000000000E0000000000001F
:10E9EA000000FCFF0F00FCFF0F00FCFF0F0000708F
:10E9FA00000000F8000000DC010000DC0100008ECD
:10EA0A000300000707008007070080030E000001CB
:10EA1A000C000000000000000000000000000000E0
:10EA2A0000000000000000000000000000000000DC
:10EA3A0000000000000000000000000000000000CC
:10EA4A00000000000000050000000000000000FCBB
:10EA5A00FF0F00FCFF0F00FCFF0F0000000000008A
:10EA6A00000000000000000000000000000000009C
:10EA7A00000000000000000000000000000000008C
:10EA8A00000000000000000000000000000000007C
:10EA9A00000000000000000000000000000000006C
:10EAAA00000000000000000000000000000000005C
:10EABA0000000018000000000000000000FF0F0026
:10EACA0000FF0F0000FF0F00001C0000000C0000F8
:10EADA00000600000006000000020000000300001B
:10EAEA0000FF0F0000FF0F0000FE0F0000180000DB
:10EAFA00000C0000000C00000006000000020000EC
:10EB0A00000300000003000000FF0F0000FF0F00D9
:10EB1A0000FE0F00000000000000000000000000DE
:10EB2A000F000000000000000000FF0F0000FF0FB0
:10EB3A000000FF0F00001C0000000C0000000E0087
:10EB4A0000000600000002000000030000000300AD
:10EB5A000000FF0F0000FF0F0000FE0F0000000082
:10EB6A00000000000000000000000000000000009B
:10EB7A00000000000000000000000000000000008B
:10EB8A00000000000000000000000000001000006B
:10EB9A00000000C0030000F0070000F80700001C96
:10EBAA000E00000E0C0000060C0000060C0000030C
:10EBBA000C0000030E000003060000030700008794
:10EBCA00030000FE010000FE0000007800000000C3
:10EBDA00000000000000000000000000000000002B
:10EBEA00000000000000000000000000000000001B
:10EBFA0000000000000000000000110000000000FA
:10EC0A0000000000FFFF0F00FFFF0F00FFFF0F00D3
:10EC1A00380C00001C0C00000E0C0000060C000052
:10EC2A00030E000003060000030700008303000030
:10EC3A00C7030000FF010000FE0000003C000000C6
:10EC4A0000000000000000000000000000000000BA
:10EC5A0000000000000000000000000000000000AA
:10EC6A0000000000000000140000000000E00300A3
:10EC7A0000F0070000F80F00001C0E00000E0C0048
:10EC8A0000060C0000070C00000306000003070042
:10EC9A000083030000C3010000F3000000FFFF0728
:10ECAA0000FFFF0F00FEFF0F000000060000000338
:10ECBA000000800300008001000000000000000046
:10ECCA00000000000000000000000000000000003A
:10ECDA00000000000D000000000000000000FF0F0F
:10ECEA000000FF0F0000FF0F0000180000000C00DA
:10ECFA0000000600000002000000030000001F00E0
:10ED0A0000001F0000000E000000000000000000CC
:10ED1A0000000000000000000000000000000000E9
:10ED2A0000000000000000000000000000000000D9
:10ED3A0000000000000000000000000000000000C9
:10ED4A0000110000000000380600007C0700007C6B
:10ED5A000600006E0C0000660C0000660C000063E2
:10ED6A000C0000230C0000330C00003306000033B3
:10ED7A000600003306000033030000F2030000E03F
:10ED8A00010000E000000000000000000000000098
:10ED9A000000000000000000000000000000000069
:10EDAA000000000000000000000000000000110048
:10EDBA000000000006000000060000000600000037
:10EDCA00070000E0FF0700E0FF0F00E0FF0F000070
:10EDDA00030C0000030C000003040000030600807B
:10EDEA000107008001030000C1030000C001000008
:10EDFA008000000000000000000000000000000089
:10EE0A0000000000000000000000000000000000F8
:10EE1A0000000000000000000000000F00000000D9
:10EE2A000000000000FF070000FF070000FF0F00BE
:10EE3A0000000C0000000C0000000C00000006009E
:10EE4A0000000600000007000080030000FF0F001A
:10EE5A0000FF0F0000FF0F0000000000000000008C
:10EE6A000000000000000000000000000000000098
:10EE7A000000000000000000000000000000000088
:10EE8A0000000000000000000F00060000001F0044
:10EE9A0000007F000000FE030000E00F0000800F6A
:10EEAA000000000F0000C0070000E0010000F000B1
:10EEBA0000003C0000001E0000000F0000000700D8
:10EECA000000030000000000000000000000000035
:10EEDA000000000000000000000000000000000028
:10EEEA000000000000000000000000000000000018
:10EEFA000000000000160000000000070000001FCC
:10EF0A00000000FF000000F0070000C00F00000032
:10EF1A000F0000C0070000E0010000F80000003FF9
:10EF2A000000001F0000007F000000F8010000E060
:10EF3A00070000800F0000800F0000E0030000F0CF
:10EF4A000100007E0000001F000000070000000012
:10EF5A0000000000000000000000000000000000A7
:10EF6A0000000F000000000002060000070E00006B
:10EF7A000F0700009C030000F8010000F8010000E0
:10EF8A00F0000000F0000000F8010000DC010000C1
:10EF9A008E03000007070000070E0000000C0000A7
:10EFAA000000000000000000000000000000000057
:10EFBA000000000000000000000000000000000047
:10EFCA000000000000000000000000000000001027
:10EFDA000002E0000007E001001F8001003E8001FE
:10EFEA000078800100F0C00100E0E1000080F70035
:10EFFA0000007F0000001F0000C00F0000F00300A7
:10F00A0000FC0000003F0000000F000000030000A9
:10F01A0000000000000000000000000000000000E6
:10F02A0000000000000000000000000000000000D6
:10F03A000000000000000000000000000F000008AF
:10F04A0000000E0C00000E0E0000060F0000060F56
:10F05A000000860F0000C60D0000E60C0000760CCA
:10F06A0000003E0C00003E0C00001E0C00000E0CBE
:10F07A000000070E0000030E000000000000000060
:10F08A000000000000000000000000000000000076
:10F09A000000000000000000000000000000000066
:10F0AA000000000000000000000D000000000060E9
:10F0BA000000006000000060000000E0000000F0B6
:10F0CA00FF01E0FFFF01F81FFF03F80F00031C0018
:10F0DA0000030C0000030C0000030C0000010000F8
:10F0EA000000000000000000000000000000000016
:10F0FA000000000000000000000000000000000006
:10F10A0000000000000000000000000000000000F5
:10F11A00000000000000050000000000000000FFE1
:10F12A00FFFF07FFFFFF07FFFFFF070000000000C8
:10F13A0000000000000000000000000000000000C5
:10F14A0000000000000000000000000000000000B5
:10F15A0000000000000000000000000000000000A5
:10F16A000000000000000000000000000000000095
:10F17A000000000000000000000000000000000085
:10F18A000000000C080000030C0000030C00000340
:10F19A000C0080030C00FF01FC8FFF01F8FF7F00C9
:10F1AA00F0FF000000700000006000000060000036
:10F1BA0000600000000000000000000000000000E5
:10F1CA000000000000000000000000000000000035
:10F1DA000000000000000000000000000000000025
:10F1EA000000000000000000000000000000000015
:10F1FA000D000000000080000000E0010000E000B7
:10F20A0000003000000030000000700000006000C4
:10F21A000000C0000000C0000000E000000078000C
:10F22A00000038000000000000000000000000009C
:10F23A0000000000000000000000000000000000C4
:10F24A0000000000000000000000000000000000B4
:10F25A00000000000000000000000000000800009C
:10F26A000000FEFF1F00FEFF1F0002001000020048
:10F27A00100002001000FEFF1F00FEFF1F0000002A
:10F28A000000000000000000000000000000000074
:10F29A000000000000000000000000000000000064
:10F2AA000000000000000000000000000000000054
:10F2BA000000000000000000000000000000000044
:10F2CA00000000000000000000000600000000002E
:10F2DA000000000000000000000000000000000024
:10F2EA00000200007E030000000000000000000091
:10F2FA0000000000000000000400000F0000000FE2
:10F30A0000000000000000000000000000000008EB
:10F31A00000040004803F8004E03F8004E000800C1
:10F32A000000000000000618022402FF0F440244F5
:10F33A00028401000000000000000000000B000031
:10F34A001C00220022029C0160001000CC01220253
:10F35A002002C00108CC0132022202220252028C8F
:10F36A0001E00100020000000000000200000F009E
:10F37A000000000000000000000000000000000083
:10F38A000000050000F0010C060208011000000050
:10F39A0000000000000000000004011002080C0632
:10F3AA00F001000000000000000000000000000062
:10F3BA000600000A0004001F0004000A0000000002
:10F3CA000000000000000007200020002000FC01CF
:10F3DA0020002000200000000000000000000200C1
:10F3EA000800070000000000000000000000000004
:10F3FA00000000000004200020002000200000007F
:10F40A0000000000000000000000000002000000F0
:10F41A0003000000000000000000000000000000DF
:10F42A0000000005000C800360001C0003000000BF
:10F43A000000000000000000000006FC01020202B9
:10F44A000202020202FC01000000000000000000AB
:10F45A000006000004020402FE030002000200008B
:10F46A00000000000000000006040382024202427B
:10F47A000222021C02000000000000000000000638
:10F48A0004010202220222022202DC010000000020
:10F49A00000000000000066000500048004400FE22
:10F4AA0003400000000000000000000000061E01EA
:10F4BA001202120212021202E2010000000000000F
:10F4CA000000000006F8011402120212021202E001
:10F4DA000100000000000000000000060200020215
:10F4EA00820162001A00060000000000000000000D
:10F4FA00000006DC012202220222022202DC0100B2
:10F50A00000000000000000000063C004202420227
:10F51A0042024201FC00000000000000000000005E
:10F52A0003000000001803000000000000000000B3
:10F53A000000000000000003000000081807000097
:10F54A0000000000000000000000000000000800A9
:10F55A0000200020005000500088008800040100AC
:10F56A000000000000080000900090009000900049
:10F57A0090009000900000000000000008000004C5
:10F58A000188008800500050002000200000000080
:10F59A000000000504004203220012000C000000D3
:10F5AA00000000000000000000000BF0000C030443
:10F5BA0002F2040A050A050A05FA0504010C01F01B
:10F5CA0000070003E000980086009800E0000003AE
:10F5DA00000000000000000006FE032202220222B0
:10F5EA00023C02C001000000000000000000000709
:10F5FA00F8000401020202020202020204010000EF
:10F60A0000000000000007FE0302020202020202DA
:10F61A00020401F800000000000000000006FE03DA
:10F62A00220222022202220222020000000000001C
:10F63A000000000006FE032200220022002200220F
:10F64A00000000000000000000000007F8000401AC
:10F65A000202020242024202C40300000000000049
:10F66A00000007FE0320002000200020002000FEEA
:10F67A00030000000000000000030202FE03020271
:10F68A000000000000000000000000000000000070
:10F69A0004000202020202FE010000000000000053
:10F6AA000000000000000006FE0320005000880051
:10F6BA00040102020000000000000000000005FE34
:10F6CA000300020002000200020000000000000025
:10F6DA00000000000009FE03060018006000800117
:10F6EA00600018000600FE030000000007FE030683
:10F6FA000018002000C0000003FE03000000000004
:10F70A0000000008F80004010202020202020202DA
:10F71A000401F80000000000000006FE0322002297
:10F72A0000220022001C000000000000000000006F
:10F73A000008F8000401020202020206020A040991
:10F74A00F80800000000000007FE03220022006201
:10F75A0000A2001C010002000000000000000007D7
:10F76A001C0122022202220222022202C4010000F9
:10F77A0000000000000007020002000200FE03026F
:10F78A000002000200000000000000000007FE0066
:10F79A0000010002000200020001FE000000000059
:10F7AA0000000000070E003000C0000003C0003057
:10F7BA00000E0000000000000000000B1E00E00127
:10F7CA000002C001380006003800C0010002E00152
:10F7DA001E000702020401D8002000D8000401021A
:10F7EA000200000000000000000702000C001000E8
:10F7FA00E00310000C0002000000000000000000FE
:10F80A000602038202620212020A020602000000D3
:10F81A0000000000000000040000FF0F01080108BA
:10F82A0000000000000000000000000000000503C6
:10F83A00001C0060008003000C00000000000000B3
:10F84A00000000000004000001080108FF0F00008A
:10F85A000000000000000000000000000900001085
:10F86A000008000400020002000400080010000062
:10F87A000000000700080008000800080008000847
:10F88A000008000000000000000005000000000061
:10F89A00000100020000000000000000000000005B
:10F8AA00000680014802480248024801F0030000AD
:10F8BA00000000000000000006FF03100208020812
:10F8CA00020802F00100000000000000000000052C
:10F8DA00F001080208020802080200000000000005
:10F8EA0000000000000006F00108020802080208F1
:10F8FA0001FF030000000000000000000006F00104
:10F90A004802480248024802700100000000000054
:10F91A0000000000050800FE0309000900010000BC
:10F92A00000000000000000000000006F0010812BC
:10F93A00081208120811F80F000000000000000069
:10F94A00000006FF031000080008000800F003008A
:10F95A00000000000000000000020000FA0300009E
:10F96A00000000000000000000000000000000008D
:10F97A000300100810FA0F00000000000000000049
:10F98A000000000000000005FF034000A000100175
:10F99A000802000000000000000000000000020051
:10F9AA0000FF03000000000000000000000000004B
:10F9BA0000000000000A0000F80310000800080018
:10F9CA00F003100008000800F003000006F8031016
:10F9DA0000080008000800F0030000000000000012
:10F9EA0000000006F0010802080208020802F001FD
:10F9FA000000000000000000000006F81F100208C6
:10FA0A000208020802F001000000000000000000E5
:10FA1A000006F0010802080208020801F81F0000A7
:10FA2A00000000000000000004F8031000080008AD
:10FA3A0000000000000000000000000000000005B7
:10FA4A00300148024802480290010000000000000C
:10FA5A00000000000000040800FE0108020802007D
:10FA6A000000000000000000000000000006F8018D
:10FA7A000002000200020001F8030000000000007A
:10FA8A0000000000051800E0000003E00018000074
:10FA9A000000000000000000000000091800E0005B
:10FAAA000003E0001800E0000003E0001800000076
:10FABA000000050802B0014000B001080200000081
:10FACA00000000000000000000051800E018000710
:10FADA00E000180000000000000000000000000024
:10FAEA0005080388024802280218020000000000E4
:10FAFA00000000000000000540004000BE070108A9
:10FB0A0001080000000000000000000000000300DF
:10FB1A00000000FF0F0000000000000000000000CD
:10FB2A0000000000000501080108BE07400040006F
:10FB3A000000000000000000000000000800006053
:10FB4A0000100010002000400040003000000000BB
:10FB5A0000000003FF030102FF0300000000000091
:10FB6A000000000000000000000005000000000086
:10FB7A000500005F000005000700070005147F1458
:10FB8A007F1405242A7F2A12052313086462053686
:10FB9A004956205005080703000005001C224100B1
:10FBAA00050041221C000514083E08140508083EF9
:10FBBA0008080500B07000000508080808080500D4
:10FBCA0060600000052010080402053E5149453EC8
:10FBDA000500427F400005724949494605214149CD
:10FBEA004D33051814127F10052745454539053C44
:10FBFA004A4949310541211109070536494949361A
:10FC0A0005464949291E0500001400000500403434
:10FC1A0000000508142241000514141414140541A7
:10FC2A0022140800050201590906053E415D594E94
:10FC3A00057C1211127C057F49494936053E41412E
:10FC4A004122057F4141413E057F49494949057F96
:10FC5A0009090909053E41415173057F0808087FD2
:10FC6A000500417F4100052040413F01057F0814FE
:10FC7A002241057F40404040057F020C027F057FFC
:10FC8A000408107F053E4141413E057F09090906E6
:10FC9A00053E4151215E057F091929460526494934
:10FCAA0049320501017F0101053F4040403F051FE0
:10FCBA002040201F053F4038403F05631408146365
:10FCCA0005030478040305615149454305007F4152
:10FCDA004100050204081020050041417F00050487
:10FCEA000201020405404040404005070B000000A5
:10FCFA00052054547840057F284444380538444444
:10FD0A00442805384444287F0538545454180500BB
:10FD1A00087E09020518A4A49C78057F08040478C3
:10FD2A000500447D4000052040403D00057F102825
:10FD3A0044000500417F4000057C04780478057C76
:10FD4A000804047805384444443805FC1824241867
:10FD5A000518242418FC057C080404080548545492
:10FD6A0054240504043F4424053C4040207C051CDF
:10FD7A002040201C053C4030403C054428102844C3
:10FD8A00054C9090907C054464544C440500083618
:10FD9A00410005000077000005004136080005040F
:10FDAA000204080405007F417F00566F6C3A2575EE
:10FDBA002E253032752F25752E2530327556004383
:10FDCA00686172672F44697363682F53746F720096
:10FDDA002530327568253032756D253032757300DD
:10FDEA004469736343757220333A257525250043A8
:10FDFA0068726743757220333A2575252500446970
:10FE0A00736343757220343A257525250043687259
:10FE1A006743757220343A25752525004469736352
:10FE2A0043757220333A25756D4100436872674302
:10FE3A00757220333A25756D4100446973634375C1
:10FE4A007220343A25756D410043687267437572B2
:10FE5A0020343A25756D41004F4E2F4F46463A20C1
:10FE6A002558200A0D0052455345543A202558205A
:10FE7A000A0D0043656C6C20566F6C74613A004D34
:10FE8A00696E44697363566F6C3A00547269636BA6
:10FE9A006C65566F6C3A00547269636B6C65437596
:10FEAA00723A0043656C6C20436F756E743A004376
:10FEBA0075723A25752F25756D41004361703A2593
:10FECA003034756D41680043686172672F44697305
:10FEDA006368004379636C653A25752F257500427E
:10FEEA005553593A202558200A0D00446973634333
:10FEFA00757220313A004368726743757220313A4D
:10FF0A00004469736343757220323A00436872672A
:10FF1A0043757220323A00426174742074797065B4
:10FF2A003A0054656D703A253032754300253032F7
:10FF3A007568253032756D00534156452645584936
:10FF4A0054004F7074696F6E732031004F7074697A
:10FF5A006F6E732032004F7074696F6E73203300B6
:10FF6A004F7074696F6E732034004F7074696F6ECE
:10FF7A00732035004D61782054696D653A004368F5
:10FF8A00617267696E67004379636C653A004C6910
:10FF9A002D496F6E004241542031004241542032B3
:10FFAA00004D6F64653A0054656D703A004E692DD4
:10FFBA004D48005354415254004241434B004E4570
:10FFCA00585400444953430049444C45004348525D
:10FFDA00470054455354004D454E5500257543007E
:10FFEA00504200575D002E20003120002564004E4B
:06FFFA000050005200005F
:020000040001F9
:100000008CEC93F0020E34ECB3F00009D8A40BEFA3
:1000100080F00DEF80F018EF80F0030E34ECB3F0B9
:100020000009D8B416EF80F018EF80F04AEF84F0A2
:100030000001E805D8A41FEF80F021EF80F035EF34
:1000400081F0020E34ECB3F00009D8B42AEF80F04E
:100050002CEF80F030EF80F00001F8073DEF80F0EA
:10006000030E34ECB3F00009D8B439EF80F03BEF65
:1000700080F03DEF80F00001F82B0001F851D8A48A
:1000800044EF80F046EF80F04AEF80F0050EF86F05
:1000900054EF80F0050EF86550EF80F052EF80F0DD
:1000A00054EF80F0010EF86FF805D8A45AEF80F0F5
:1000B0005CEF80F083EF80F0030E63EC98F07EC07D
:1000C00022F07FC023F0010E246E2AECA2F07EC045
:1000D00079F07FC07AF0000E00017B6FE7ECA3F0AF
:1000E0007EC022F07FC023F0000E246EC6ECA2F08A
:1000F0007EC079F07FC07AF0000E00017B6FF8ECD3
:10010000A5F046EF84F0020EF819D8A48AEF80F02B
:100110008CEF80F0A2EF80F0030E63EC98F07EC0CD
:1001200022F07FC023F0000E246E2AECA2F07EC0E5
:1001300079F07FC07AF0010E00017B6FE7ECA3F04D
:1001400070EF80F0030EF819D8A4A9EF80F0ABEFA0
:1001500080F0D2EF80F0030E63EC98F07EC022F0C6
:100160007FC023F0000E246E2AECA2F07EC079F04E
:100170007FC07AF0000E00017B6FE7ECA3F07EC039
:1001800022F07FC023F0010E246EC6ECA2F07EC0E8
:1001900079F07FC07AF0000E00017B6FF8ECA5F0DB
:1001A00046EF84F0040EF819D8A4D9EF80F0DBEF05
:1001B00080F002EF81F0030E63EC98F07EC022F035
:1001C0007FC023F0000E246E2AECA2F07EC079F0EE
:1001D0007FC07AF0000E00017B6FE7ECA3F07EC0D9
:1001E00022F07FC023F0000E246EC6ECA2F07EC089
:1001F00079F07FC07AF0010E00017B6FF8ECA5F07A
:1002000046EF84F0050EF819D8A409EF81F00BEF42
:1002100081F033EF81F07EC022F07FC023F0000E2A
:10022000246E2AECA2F07EC079F07FC07AF0000E36
:1002300000017B6FE7ECA3F00001E75163EC98F05D
:100240007EC022F07FC023F0000E246EC6ECA2F028
:100250007EC079F07FC07AF0000E00017B6FF8EC71
:10026000A5F046EF84F046EF84F0020EE819D8A41A
:100270003CEF81F03EEF81F066EF82F0020E34EC4D
:10028000B3F00009D8B447EF81F049EF81F04DEFAA
:1002900081F00001F8075AEF81F0030E34ECB3F05F
:1002A0000009D8B456EF81F058EF81F05AEF81F091
:1002B0000001F82B0001F851D8A461EF81F063EF41
:1002C00081F067EF81F0050EF86F71EF81F0050E98
:1002D000F8656DEF81F06FEF81F071EF81F0010E45
:1002E000F86FF805D8A477EF81F079EF81F0A1EFEE
:1002F00081F07EC079F07FC07AF0010E7B6FE4EC74
:10030000A0F07EC079F07FC07AF0000E00017B6F14
:1003100087ECA1F07EC079F07FC07AF0000E00017A
:100320007B6F74ECA5F07EC079F07FC07AF0000E90
:1003300000017B6F41ECA0F0030E4DEC91F046EF15
:1003400084F0020EF819D8A4A8EF81F0AAEF81F08A
:10035000D2EF81F07EC079F07FC07AF0000E7B6F23
:10036000E4ECA0F07EC079F07FC07AF0010E0001CD
:100370007B6F87ECA1F07EC079F07FC07AF0000E31
:1003800000017B6F74ECA5F07EC079F07FC07AF03D
:10039000000E00017B6F41ECA0F0030E4DEC91F0DC
:1003A00046EF84F0030EF819D8A4D9EF81F0DBEF03
:1003B00081F003EF82F07EC079F07FC07AF0000E0A
:1003C0007B6FE4ECA0F07EC079F07FC07AF0000E85
:1003D00000017B6F87ECA1F07EC079F07FC07AF0DE
:1003E000000E00017B6F74ECA5F07EC079F07FC039
:1003F0007AF0010E00017B6F41ECA0F0030E4DEC92
:1004000091F046EF84F0040EF819D8A40AEF82F0B8
:100410000CEF82F034EF82F07EC079F07FC07AF08A
:10042000000E7B6FE4ECA0F07EC079F07FC07AF024
:10043000000E00017B6F87ECA1F07EC079F07FC0D9
:100440007AF0010E00017B6F74ECA5F07EC079F0AC
:100450007FC07AF0000E00017B6F41ECA0F0030E2C
:100460004DEC91F046EF84F0050EF819D8A43BEF5F
:1004700082F03DEF82F033EF81F07EC079F07FC0F3
:100480007AF0000E7B6FE4ECA0F07EC079F07FC0C4
:100490007AF0000E00017B6F87ECA1F07EC079F04E
:1004A0007FC07AF0000E00017B6F74ECA5F07EC077
:1004B00079F07FC07AF0000E00017B6F41ECA0F074
:1004C0000001E7514DEC91F046EF84F0030EE8197E
:1004D000D8A46DEF82F06FEF82F017EF83F0020E79
:1004E00034ECB3F00009D8B478EF82F07AEF82F000
:1004F0007EEF82F00001F8078BEF82F0030E34EC00
:10050000B3F00009D8B487EF82F089EF82F08BEF67
:1005100082F00001F82B030E0001F819D8A493EF24
:1005200082F095EF82F099EF82F0050EF86FA4EF5C
:1005300082F0040EF819D8A4A0EF82F0A2EF82F0A6
:10054000A4EF82F0020EF86FF851D8A4AAEF82F05F
:10055000ACEF82F0B0EF82F0050EF86FBAEF82F0E8
:10056000050EF865B6EF82F0B8EF82F0BAEF82F0D0
:10057000010EF86FF805D8A4C0EF82F0C2EF82F048
:10058000D8EF82F07EC079F07FC07AF0010E7B6FE9
:100590009EEC9FF07EC079F07FC07AF0000E0001E3
:1005A0007B6F62ECA3F0030E4DEC91F046EF84F00C
:1005B000020EF819D8A4DFEF82F0E1EF82F0F7EF36
:1005C00082F07EC079F07FC07AF0000E7B6F9EECE7
:1005D0009FF07EC079F07FC07AF0010E00017B6F42
:1005E00062ECA3F0030E4DEC91F046EF84F0050EA3
:1005F000F819D8A4FEEF82F000EF83F033EF81F01A
:100600007EC079F07FC07AF0000E7B6F9EEC9FF089
:100610007EC079F07FC07AF0000E00017B6F62EC43
:10062000A3F00001E7514DEC91F046EF84F0040E89
:10063000E819D8A41EEF83F020EF83F046EF84F092
:10064000020E34ECB3F00009D8B429EF83F02BEF9D
:1006500083F02FEF83F00001F8073CEF83F0030EE7
:1006600034ECB3F00009D8B438EF83F03AEF83F0FC
:100670003CEF83F00001F82B0001F851D8A443EFC0
:1006800083F045EF83F049EF83F0050EF86F53EFE9
:1006900083F0050EF8654FEF83F051EF83F053EFD1
:1006A00083F0010EF86FF805D8A459EF83F05BEFE3
:1006B00083F083EF83F07EC079F07FC07AF0010E83
:1006C0007B6FF0ECA4F07EC079F07FC07AF0000E72
:1006D00000017B6F6CECA4F07EC079F07FC07AF0F3
:1006E000000E00017B6FF4EC9EF07EC079F07FC0BD
:1006F0007AF0000E00017B6F4AEC9EF0030E4DEC89
:1007000091F046EF84F0020EF819D8A48AEF83F036
:100710008CEF83F0B4EF83F07EC079F07FC07AF085
:10072000000E7B6FF0ECA4F07EC079F07FC07AF011
:10073000010E00017B6F6CECA4F07EC079F07FC0ED
:100740007AF0000E00017B6FF4EC9EF07EC079F031
:100750007FC07AF0000E00017B6F4AEC9EF0030E22
:100760004DEC91F046EF84F0030EF819D8A4BBEFDE
:1007700083F0BDEF83F0E5EF83F07EC079F07FC0BA
:100780007AF0000E7B6FF0ECA4F07EC079F07FC0B1
:100790007AF0000E00017B6F6CECA4F07EC079F063
:1007A0007FC07AF0010E00017B6FF4EC9EF07EC0FA
:1007B00079F07FC07AF0000E00017B6F4AEC9EF06A
:1007C000030E4DEC91F046EF84F0040EF819D8A416
:1007D000ECEF83F0EEEF83F016EF84F07EC079F05B
:1007E0007FC07AF0000E7B6FF0ECA4F07EC079F051
:1007F0007FC07AF0000E00017B6F6CECA4F07EC02D
:1008000079F07FC07AF0000E00017B6FF4EC9EF06F
:100810007EC079F07FC07AF0010E00017B6F4AEC58
:100820009EF0030E4DEC91F046EF84F0050EF819A2
:10083000D8A41DEF84F01FEF84F033EF81F07EC069
:1008400079F07FC07AF0000E7B6FF0ECA4F07EC0F0
:1008500079F07FC07AF0000E00017B6F6CECA4F0A1
:100860007EC079F07FC07AF0000E00017B6FF4EC5F
:100870009EF07EC079F07FC07AF0000E00017B6FA1
:100880004AEC9EF00001E7514DEC91F06EECB0F0B7
:10089000CAECB1F0000E34ECB3F00009D8A453EF69
:1008A00084F055EF84F069EF84F0010E34ECB3F07E
:1008B0000009D8A45EEF84F060EF84F069EF84F063
:1008C0000001E651D8A467EF84F069EF84F01EEFD1
:1008D0008DF0010E0001E66FE851D8A472EF84F0AC
:1008E00074EF84F09CEF84F0F905D8A47AEF84F0DB
:1008F0007CEF84F087EF84F0F951E1EC9CF0000E7E
:100900000001F96F010E0001E76F1AEF8DF0F95148
:10091000D8A48DEF84F08FEF84F01AEF8DF0F951A9
:10092000E1EC9CF0010E0001F96F000E0001E76F91
:100930001AEF8DF01AEF8DF0E805D8A4A2EF84F03D
:10094000A4EF84F0EEEF86F0050EF819D8A4ABEF13
:1009500084F0ADEF84F0D1EF84F0020EF919D8A441
:10096000B4EF84F0B6EF84F0C1EF84F0F95163EC9A
:1009700098F0000E0001F96F020E0001E76F1AEF08
:100980008DF0F951D8A4C7EF84F0C9EF84F09AEF45
:1009900084F0F95163EC98F0020E0001F96F95EFC5
:1009A00084F0F805D8A4D7EF84F0D9EF84F07CEF79
:1009B00085F0E7EF84F0010EE46F06EF85F0020E9C
:1009C000E46F06EF85F0030EE46F06EF85F020EE8E
:1009D00004F07E51D9267F51DA22DF50806F816B7F
:1009E0008151000AD8B4F7EF84F006EF85F080510A
:1009F000000AD8B4DBEF84F0010AD8B4DFEF84F04A
:100A0000030AD8B4E3EF84F006EF85F0010E34EC6E
:100A1000B3F00009D8B40FEF85F011EF85F015EFB2
:100A200085F00001E42B22EF85F0000E34ECB3F0EA
:100A30000009D8B41EEF85F020EF85F022EF85F095
:100A40000001E4070001E451D8A429EF85F02BEF61
:100A500085F02FEF85F0030EE46F59EF85F0030E5C
:100A6000E46535EF85F037EF85F059EF85F0010E3D
:100A7000E46F59EF85F020EE04F07E51D9267F51C6
:100A8000DA22000EDF6E72EF85F020EE04F07E5168
:100A9000D9267F51DA22010EDF6E72EF85F020EE4B
:100AA00004F07E51D9267F51DA22020EDF6E72EFFA
:100AB00085F0E451806F816B8151000AD8B463EFF7
:100AC00085F072EF85F08051010AD8B43BEF85F0D4
:100AD000030AD8B445EF85F0010AD8B44FEF85F08A
:100AE00072EF85F07EC022F07FC023F0010E246EED
:100AF0002AECA2F01AEF8DF0020EF819D8A483EFB9
:100B000085F085EF85F0E6EF85F0010E34ECB3F06B
:100B10000009D8B48EEF85F090EF85F09AEF85F05C
:100B2000000120EE07F07E51D9267F51DA22DF2A1C
:100B3000ADEF85F0000E34ECB3F00009D8B4A3EFAC
:100B400085F0A5EF85F0ADEF85F0000120EE07F010
:100B50007E51D9267F51DA22DF06000120EE07F010
:100B60007E51D9267F51DA22DF50D8A4BAEF85F022
:100B7000BCEF85F0C6EF85F020EE07F07E51D92658
:100B80007F51DA22050EDF6EDCEF85F020EE07F0F4
:100B90007E51D9267F51DA22050EDF64D2EF85F02F
:100BA000D4EF85F0DCEF85F020EE07F07E51D926FA
:100BB0007F51DA22010EDF6E7EC079F07FC07AF0BD
:100BC000010E7B6FE7ECA3F01AEF8DF0030EF8191E
:100BD000D8A4EDEF85F0EFEF85F092EF86F0FDEF12
:100BE00085F0010EE46F1CEF86F0020EE46F1CEF3F
:100BF00086F0030EE46F1CEF86F020EE06F07E51C7
:100C0000D9267F51DA22DF50806F816B8151000A33
:100C1000D8B40DEF86F01CEF86F08051000AD8B4EE
:100C2000F1EF85F0010AD8B4F5EF85F0030AD8B4E6
:100C3000F9EF85F01CEF86F0010E34ECB3F00009FB
:100C4000D8B425EF86F027EF86F02BEF86F0000171
:100C5000E42B38EF86F0000E34ECB3F00009D8B482
:100C600034EF86F036EF86F038EF86F00001E407C7
:100C70000001E451D8A43FEF86F041EF86F045EF44
:100C800086F0030EE46F6FEF86F0030EE4654BEF22
:100C900086F04DEF86F06FEF86F0010EE46F6FEF98
:100CA00086F020EE06F07E51D9267F51DA22000E22
:100CB000DF6E88EF86F020EE06F07E51D9267F5158
:100CC000DA22010EDF6E88EF86F020EE06F07E510C
:100CD000D9267F51DA22020EDF6E88EF86F0E451CA
:100CE000806F816B8151000AD8B479EF86F088EF6C
:100CF00086F08051010AD8B451EF86F0030AD8B4C7
:100D00005BEF86F0010AD8B465EF86F088EF86F0D5
:100D10007EC022F07FC023F0010E246EC6ECA2F04C
:100D20001AEF8DF0040EF819D8A499EF86F09BEF16
:100D300086F09AEF84F0010E34ECB3F00009D8B4D9
:100D4000A4EF86F0A6EF86F0ADEF86F07EC0D9FF67
:100D50007FC0DAFFDF2ABDEF86F0000E34ECB3F07F
:100D60000009D8B4B6EF86F0B8EF86F0BDEF86F094
:100D70007EC0D9FF7FC0DAFFDF067EC0D9FF7FC00B
:100D8000DAFFDF50D8A4C7EF86F0C9EF86F0D1EFC5
:100D900086F07EC0D9FF7FC0DAFF040EDF6EE3EF7E
:100DA00086F07EC0D9FF7FC0DAFF040EDF64DBEF80
:100DB00086F0DDEF86F0E3EF86F07EC0D9FF7FC0DE
:100DC000DAFF010EDF6E7EC079F07FC07AF0010E8F
:100DD00000017B6FF8ECA5F01AEF8DF0020EE81918
:100DE000D8A4F5EF86F0F7EF86F0F5EF89F0050E61
:100DF000F819D8A4FEEF86F000EF87F091EF87F0A6
:100E0000000E34ECB3F00009D8B409EF87F00BEF13
:100E100087F00FEF87F00001E5071CEF87F0010E68
:100E200034ECB3F00009D8B418EF87F01AEF87F06C
:100E30001CEF87F00001E52B0001E551D8A423EF5A
:100E400087F025EF87F029EF87F0030EE56F50EF6D
:100E500087F0040EE519D8A430EF87F032EF87F061
:100E600036EF87F0010EE56F50EF87F0040EE56571
:100E70003CEF87F03EEF87F042EF87F0020EE56F20
:100E800050EF87F050EF87F0010EF96F69EF87F0B0
:100E9000000EF96F69EF87F0020EF96F69EF87F0C6
:100EA000E551806F816B8151000AD8B45AEF87F009
:100EB00069EF87F08051010AD8B444EF87F0030A44
:100EC000D8B448EF87F0010AD8B44CEF87F069EF47
:100ED00087F0F905D8A46FEF87F071EF87F076EF10
:100EE00087F0F9514DEC91F082EF84F0F951D8A4DC
:100EF0007CEF87F07EEF87F083EF87F0F9514DECC0
:100F000091F095EF84F0020EF919D8A48AEF87F0DA
:100F10008CEF87F09AEF84F0F9514DEC91F0BCEF33
:100F200084F0F805D8A497EF87F099EF87F028EFC1
:100F300088F0010E34ECB3F00009D8B4A2EF87F0CA
:100F4000A4EF87F0BFEF87F0000120EE0FF07E5195
:100F5000D9267F51DA22DECF80F0DDCF81F0050E79
:100F60008027000E812320EE0FF07E51D9267F517D
:100F7000DA2280C0DEFF81C0DDFFE5EF87F0000EE2
:100F800034ECB3F00009D8B4C8EF87F0CAEF87F0AB
:100F9000E5EF87F0000120EE0FF07E51D9267F515A
:100FA000DA22DECF80F0DDCF81F0FB0E8025826F6C
:100FB000FF0E8121836F20EE0FF07E51D9267F51E5
:100FC000DA2282C0DEFF83C0DDFF000120EE0FF0D9
:100FD0007E51D9267F51DA22990EDE5C010EDE5851
:100FE000D8B0F5EF87F0F7EF87F003EF88F020EE49
:100FF0000FF07E51D9267F51DA22AE0EDE6E010E41
:10100000DD6E1EEF88F020EE0FF07E51D9267F5165
:10101000DA22B00EDE5C010EDE58D8A012EF88F0A6
:1010200014EF88F01EEF88F020EE0FF07E51D926E5
:101030007F51DA229A0EDE6E010EDD6E7EC079F0EF
:101040007FC07AF0010E7B6FE4ECA0F01AEF8DF018
:10105000020EF819D8A42FEF88F031EF88F0C1EF15
:1010600088F0010E34ECB3F00009D8B43AEF88F000
:101070003CEF88F057EF88F0000120EE1BF07E5126
:10108000D9267F51DA22DECF80F0DDCF81F0050E48
:101090008027000E812320EE1BF07E51D9267F5140
:1010A000DA2280C0DEFF81C0DDFF7DEF88F0000E18
:1010B00034ECB3F00009D8B460EF88F062EF88F048
:1010C0007DEF88F0000120EE1BF07E51D9267F5184
:1010D000DA22DECF80F0DDCF81F0FB0E8025826F3B
:1010E000FF0E8121836F20EE1BF07E51D9267F51A8
:1010F000DA2282C0DEFF83C0DDFF000120EE1BF09C
:101100007E51D9267F51DA22010EDB5007E1F90E1C
:10111000DE5CD8B08EEF88F090EF88F09CEF88F01E
:1011200020EE1BF07E51D9267F51DA22400EDE6E72
:10113000010EDD6EB7EF88F020EE1BF07E51D92650
:101140007F51DA22420EDE5C010EDE58D8A0ABEFF2
:1011500088F0ADEF88F0B7EF88F020EE1BF07E51FD
:10116000D9267F51DA22FA0EDE6E000EDD6E7EC0C9
:1011700079F07FC07AF0010E7B6F87ECA1F01AEF57
:101180008DF0030EF819D8A4C8EF88F0CAEF88F0E4
:101190005BEF89F0010E34ECB3F00009D8B4D3EF63
:1011A00088F0D5EF88F0F0EF88F0000120EE17F01E
:1011B0007E51D9267F51DA22DECF80F0DDCF81F05B
:1011C000050E8027000E812320EE17F07E51D926D0
:1011D0007F51DA2280C0DEFF81C0DDFF16EF89F08B
:1011E000000E34ECB3F00009D8B4F9EF88F0FBEF4F
:1011F00088F016EF89F0000120EE17F07E51D92615
:101200007F51DA22DECF80F0DDCF81F0FB0E80252A
:10121000826FFF0E8121836F20EE17F07E51D92659
:101220007F51DA2282C0DEFF83C0DDFF000120EEA5
:1012300017F07E51D9267F51DA22010EDB5007E1EB
:10124000B30EDE5CD8B027EF89F029EF89F035EFD7
:1012500089F020EE17F07E51D9267F51DA22FA0E5E
:10126000DE6E000EDD6E51EF89F020EE17F07E513C
:10127000D9267F51DA22010EDB5009E1FC0EDE5C3B
:10128000D8A045EF89F047EF89F051EF89F020EEC3
:1012900017F07E51D9267F51DA22B40EDE6E000E91
:1012A000DD6E7EC079F07FC07AF0010E7B6F41EC7D
:1012B000A0F01AEF8DF0040EF819D8A462EF89F0AF
:1012C00064EF89F09AEF84F0010E34ECB3F000097A
:1012D000D8B46DEF89F06FEF89F08AEF89F00001E3
:1012E00020EE19F07E51D9267F51DA22DECF80F030
:1012F000DDCF81F0050E8027000E812320EE19F04E
:101300007E51D9267F51DA2280C0DEFF81C0DDFF09
:10131000B0EF89F0000E34ECB3F00009D8B493EFCD
:1013200089F095EF89F0B0EF89F0000120EE19F017
:101330007E51D9267F51DA22DECF80F0DDCF81F0D9
:10134000FB0E8025826FFF0E8121836F20EE19F046
:101350007E51D9267F51DA2282C0DEFF83C0DDFFB5
:10136000000120EE19F07E51D9267F51DA22010EBC
:10137000DB5007E1040EDE5CD8B0C1EF89F0C3EFAB
:1013800089F0CFEF89F020EE19F07E51D9267F51F8
:10139000DA22320EDE6E000EDD6EEBEF89F020EE0B
:1013A00019F07E51D9267F51DA22010EDB5009E176
:1013B000340EDE5CD8A0DFEF89F0E1EF89F0EBEFCF
:1013C00089F020EE19F07E51D9267F51DA22050EE0
:1013D000DE6E000EDD6E7EC079F07FC07AF0010E09
:1013E0007B6F74ECA5F01AEF8DF0030EE819D8A40A
:1013F000FCEF89F0FEEF89F0AAEF8BF0050EF819EB
:10140000D8A405EF8AF007EF8AF098EF8AF0000E73
:1014100034ECB3F00009D8B410EF8AF012EF8AF080
:1014200016EF8AF00001E50723EF8AF0010E34EC95
:10143000B3F00009D8B41FEF8AF021EF8AF023EF50
:101440008AF00001E52B0001E551D8A42AEF8AF0CB
:101450002CEF8AF030EF8AF0030EE56F57EF8AF039
:10146000040EE519D8A437EF8AF039EF8AF03DEF82
:101470008AF0010EE56F57EF8AF0040EE56543EF41
:101480008AF045EF8AF049EF8AF0020EE56F57EFD8
:101490008AF057EF8AF0010EF96F70EF8AF0000EB4
:1014A000F96F70EF8AF0020EF96F70EF8AF0E55174
:1014B000806F816B8151000AD8B461EF8AF070EFC0
:1014C0008AF08051010AD8B44BEF8AF0030AD8B4ED
:1014D0004FEF8AF0010AD8B453EF8AF070EF8AF028
:1014E000F905D8A476EF8AF078EF8AF07DEF8AF0DC
:1014F000F9514DEC91F082EF84F0F951D8A483EFCB
:101500008AF085EF8AF08AEF8AF0F9514DEC91F07C
:1015100095EF84F0020EF919D8A491EF8AF093EFB9
:101520008AF09AEF84F0F9514DEC91F0BCEF84F021
:10153000F805D8A49EEF8AF0A0EF8AF030EF8BF088
:10154000010E34ECB3F00009D8B4A9EF8AF0ABEF88
:101550008AF0C6EF8AF0000120EE2FF07E51D926E6
:101560007F51DA22DECF80F0DDCF81F01E0E8027A2
:10157000000E812320EE2FF07E51D9267F51DA22F2
:1015800080C0DEFF81C0DDFFECEF8AF0000E34EC9E
:10159000B3F00009D8B4CFEF8AF0D1EF8AF0ECEFC6
:1015A0008AF0000120EE2FF07E51D9267F51DA22F9
:1015B000DECF80F0DDCF81F0E20E8025826FFF0E5E
:1015C0008121836F20EE2FF07E51D9267F51DA22C0
:1015D00082C0DEFF83C0DDFF000120EE2FF07E51D0
:1015E000D9267F51DA22010EDB5007E13C0EDE5C8A
:1015F000D8B0FDEF8AF0FFEF8AF00BEF8BF020EE12
:101600002FF07E51D9267F51DA22400EDE6E0B0E6E
:10161000DD6E26EF8BF020EE2FF07E51D9267F5124
:10162000DA22410EDE5C0B0EDE58D8A01AEF8BF0EA
:101630001CEF8BF026EF8BF020EE2FF07E51D92699
:101640007F51DA223C0EDE6E000EDD6E7EC079F038
:101650007FC07AF0010E7B6F9EEC9FF01AEF8DF049
:10166000020EF819D8A437EF8BF039EF8BF09AEF10
:1016700084F0010E34ECB3F00009D8B442EF8BF0E3
:1016800044EF8BF056EF8BF0000120EE03F07E511B
:10169000D9267F51DA2210EE03F07E51E1267F51E8
:1016A000E222E750050FDF6E71EF8BF0000E34EC95
:1016B000B3F00009D8B45FEF8BF061EF8BF071EFFE
:1016C0008BF0000120EE03F07E51D9267F51DA2203
:1016D00010EE03F07E51E1267F51E222E750FB0F2E
:1016E000DF6E000120EE03F07E51D9267F51DA2211
:1016F000040EDF607EEF8BF080EF8BF08AEF8BF0D3
:1017000020EE03F07E51D9267F51DA222D0EDF6EB6
:10171000A0EF8BF020EE03F07E51D9267F51DA2224
:101720002E0EDF6496EF8BF098EF8BF0A0EF8BF02E
:1017300020EE03F07E51D9267F51DA22050EDF6EAE
:101740007EC079F07FC07AF0010E7B6F62ECA3F06F
:101750001AEF8DF0040EE819D8A4B1EF8BF0B3EFB7
:101760008BF0EEEF8CF0050EF819D8A4BAEF8BF0E1
:10177000BCEF8BF056EF8CF0000E34ECB3F00009A8
:10178000D8B4C5EF8BF0C7EF8BF0CBEF8BF0000137
:10179000E507D8EF8BF0010E34ECB3F00009D8B4B4
:1017A000D4EF8BF0D6EF8BF0D8EF8BF00001E52B68
:1017B0000001E551D8A4DFEF8BF0E1EF8BF0E5EF0E
:1017C0008BF0030EE56F0CEF8CF0040EE519D8A436
:1017D000ECEF8BF0EEEF8BF0F2EF8BF0010EE56F9C
:1017E0000CEF8CF0040EE565F8EF8BF0FAEF8BF060
:1017F000FEEF8BF0020EE56F0CEF8CF00CEF8CF02F
:10180000010EF96F25EF8CF0000EF96F25EF8CF0CB
:10181000020EF96F25EF8CF0E551806F816B8151DD
:10182000000AD8B416EF8CF025EF8CF08051010A35
:10183000D8B400EF8CF0030AD8B404EF8CF0010A9E
:10184000D8B408EF8CF025EF8CF0F905D8A42BEF75
:101850008CF02DEF8CF035EF8CF0F9514DEC91F0D0
:10186000010E0001E76F56EF8CF0F951D8A43BEF61
:101870008CF03DEF8CF045EF8CF0F9514DEC91F090
:10188000000E0001E76F56EF8CF0020EF919D8A494
:101890004CEF8CF04EEF8CF056EF8CF0F9514DEC94
:1018A00091F0020E0001E76F56EF8CF0F805D8A416
:1018B0005CEF8CF05EEF8CF01AEF8DF0010E34ECE3
:1018C000B3F00009D8B467EF8CF069EF8CF084EFC7
:1018D0008CF0000120EE1FF07E51D9267F51DA22D4
:1018E000DECF80F0DDCF81F0640E8027000E8123F3
:1018F00020EE1FF07E51D9267F51DA2280C0DEFF14
:1019000081C0DDFFAAEF8CF0000E34ECB3F00009CB
:10191000D8B48DEF8CF08FEF8CF0AAEF8CF0000133
:1019200020EE1FF07E51D9267F51DA22DECF80F0E3
:10193000DDCF81F09C0E8025826FFF0E8121836FA9
:1019400020EE1FF07E51D9267F51DA2282C0DEFFC1
:1019500083C0DDFF000120EE1FF07E51D9267F51AC
:10196000DA22010EDB5007E1640EDE5CD8B0BBEF7B
:101970008CF0BDEF8CF0C9EF8CF020EE1FF07E51A3
:10198000D9267F51DA22B80EDE6E0B0EDD6EE4EF43
:101990008CF020EE1FF07E51D9267F51DA22B90E4D
:1019A000DE5C0B0EDE58D8A0D8EF8CF0DAEF8CF0AE
:1019B000E4EF8CF020EE1FF07E51D9267F51DA2221
:1019C000640EDE6E000EDD6E7EC079F07FC07AF0B0
:1019D000010E7B6FF0ECA4F01AEF8DF0050EE81904
:1019E000D8A4F5EF8CF0F7EF8CF01AEF8DF0F90535
:1019F000D8A4FDEF8CF0FFEF8CF009EF8DF0F951DA
:101A000026EC9CF0010E0001E76F020EF96F1AEF51
:101A10008DF0020EF919D8A410EF8DF012EF8DF0B1
:101A20001AEF8DF0F95126EC9CF0020E0001E76FE1
:101A3000010EF96F6EECB0F0CAECB1F0040E34ECAC
:101A4000B3F00009D8B427EF8DF029EF8DF0E8EF5F
:101A50008EF0CAECB1F00001E851D8A432EF8DF05D
:101A600034EF8DF04BEF8DF0E751D8A43AEF8DF0C5
:101A70003CEF8DF0E6EF8EF0010EE86F000EF96F8F
:101A80007EC07CF07FC07DF098ECABF0000E0001D2
:101A9000E66FE6EF8EF0E805D8A451EF8DF053EF36
:101AA0008DF08BEF8DF0050EF819D8A45AEF8DF05C
:101AB0005CEF8DF08BEF8DF0E751D8A462EF8DF0E5
:101AC00064EF8DF074EF8DF0020EE86F000EF96F89
:101AD000000EE66F020EE56F7EC07CF07FC07DF0E9
:101AE000EDECAAF0E6EF8EF0020EE719D8A47BEF3A
:101AF0008DF07DEF8DF0E6EF8EF0000EE86F010EB9
:101B0000F96F7EC07BF07FC07CF072ECA7F046EFEF
:101B10008DF0E6EF8EF0020EE819D8A492EF8DF06A
:101B200094EF8DF0D6EF8DF0E751D8A49AEF8DF0B9
:101B30009CEF8DF0ABEF8DF07EC07CF07FC07DF030
:101B4000C2ECAEF0030E0001E86F000EE66F020E6D
:101B5000E56FE6EF8EF0E705D8A4B1EF8DF0B3EFB7
:101B60008DF0C0EF8DF0010EE86F7EC07CF07FC07D
:101B70007DF098ECABF0020E0001F96F46EF8DF0AE
:101B8000020EE719D8A4C7EF8DF0C9EF8DF089EFE9
:101B90008DF0000EE86F7EC07BF07FC07CF072ECB1
:101BA000A7F0010E0001F96F46EF8DF0030EE81962
:101BB000D8A4DDEF8DF0DFEF8DF014EF8EF0E7515C
:101BC000D8A4E5EF8DF0E7EF8DF0F2EF8DF07EC059
:101BD0007CF07FC07DF097ECAAF0040E0001E86F66
:101BE000A5EF8DF0E705D8A4F8EF8DF0FAEF8DF0B2
:101BF00009EF8EF0020EE86F7EC07CF07FC07DF0B2
:101C0000EDECAAF0000E0001E66F010EE56FE6EFC5
:101C10008EF0020EE719D8A410EF8EF012EF8EF0BE
:101C200089EF8DF0C9EF8DF0040EE819D8A41BEFF1
:101C30008EF01DEF8EF0BEEF8EF0050EF819D8A4D1
:101C400024EF8EF026EF8EF05AEF8EF0E751D8A4F5
:101C50002CEF8EF02EEF8EF03DEF8EF07EC07CF0FC
:101C60007FC07DF04AECA8F0050E0001E86F000E81
:101C7000E66F020EF96FE6EF8EF0E705D8A443EFAA
:101C80008EF045EF8EF04FEF8EF0030EE86F7EC0C2
:101C90007CF07FC07DF0C2ECAEF002EF8EF0020E61
:101CA000E719D8A456EF8EF058EF8EF089EF8DF03B
:101CB000C9EF8DF0030EF819D8A461EF8EF063EF31
:101CC0008EF08CEF8EF020EE0EF07E51D9267F51F3
:101CD000DA22DFA06EEF8EF070EF8EF07AEF8EF0EA
:101CE00020EE0EF07E51D9267F51DA22FE0EDF164D
:101CF00082EF8EF020EE0EF07E51D9267F51DA224F
:101D0000000EDB807EC079F07FC07AF0010E7B6F21
:101D1000F4EC9EF0E6EF8EF0040EF819D8A493EFE1
:101D20008EF095EF8EF089EF8DF020EE0EF07E5163
:101D3000D9267F51DA22DFA2A0EF8EF0A2EF8EF03B
:101D4000ACEF8EF020EE0EF07E51D9267F51DA22D4
:101D5000FD0EDF16B4EF8EF020EE0EF07E51D92688
:101D60007F51DA22000EDB827EC079F07FC07AF0EC
:101D7000010E7B6F4AEC9EF0E6EF8EF0050EE8193F
:101D8000D8A4C5EF8EF0C7EF8EF0E6EF8EF0E70532
:101D9000D8A4CDEF8EF0CFEF8EF0DBEF8EF0040EF7
:101DA000E86F020EF96F7EC07CF07FC07DF097EC8B
:101DB000AAF002EF8EF0020EE719D8A4E2EF8EF03F
:101DC000E4EF8EF0E6EF8EF07DEF8DF06EECB0F08C
:101DD00012000F6E000E126E12C01DF01DC01AF020
:101DE0001AC017F017C016F016C01CF01CC01BF06C
:101DF0001BC010F010C011F011C013F013C018F088
:101E0000196AD2C013F0D3C010F010C011F0200E28
:101E10000F5E0001D751D903F3CF09F0F4CF0AF0D8
:101E2000010E0924016E000E0A20026E0FC003F09D
:101E3000046AB0ECB3F001C014F002C015F0145005
:101E40000001D525096E1550D6210A6E09C0F6FF8E
:101E50000AC0F7FF000EF86E0800F5CF16F0144A1E
:101E6000152AD25116241D6E7F0E1D643AEF8FF095
:101E70003CEF8FF03FEF8FF01D50800F165ED35177
:101E8000070B1A6ED8511AC009F00A6A0926000E0B
:101E90000A22D951080D0950F35CF450800A0B6EE8
:101EA0000A50800A0B58D8B058EF8FF05AEF8FF0D5
:101EB0005EEF8FF0D929176E60EF8FF0D9C017F061
:101EC000D3C001F0026A000E046E080E036E81ECAE
:101ED000A9F0015017241D6E080E1D6472EF8FF0DB
:101EE00074EF8FF077EF8FF01D50F80F175E14C06E
:101EF00018F015C019F0000E1C6E3BEF91F011C0E8
:101F000002F0135065ECB4F0000E1B6E09EF91F077
:101F10001C50D8A48EEF8FF090EF8FF0F4EF8FF07D
:101F20000001DB51D8A497EF8FF099EF8FF0B5EF58
:101F30008FF0D9511B02F3CF09F0F4CF0AF009500A
:101F4000D5250B6E0A50D6210C6E18500B26195051
:101F50000C220BC0F6FF0CC0F7FF000EF86E080055
:101F6000F550FF0A1D6ECEEF8FF0D9511B02F3CF53
:101F700009F0F4CF0AF00950D5250B6E0A50D6218E
:101F80000C6E18500B2619500C220BC0F6FF0CC01B
:101F9000F7FF000EF86E0800F5CF1DF01A28096E45
:101FA000D4EF8FF0D8901D36092ED2EF8FF00001BC
:101FB000DB51D8A4DEEF8FF0E0EF8FF0DFEF90F091
:101FC0001A500808096EFF0E0A6E000E0B6E092AE1
:101FD000EDEF8FF00B340B320A32092EEAEF8FF05F
:101FE0000A501D12DFEF90F00001DB51D8A4FBEF87
:101FF0008FF0FDEF8FF023EF90F0D9511B02F3CF5C
:1020000009F0F4CF0AF00950D5250B6E0A50D621FD
:102010000C6E1C500B26000E0C2218500B2619506B
:102020000C22FF0E0B240D6EFF0E0C200E6E0DC049
:10203000F6FF0EC0F7FF000EF86E0800F550FF0A1D
:102040001D6E46EF90F0D9511B02F3CF09F0F4CF8B
:102050000AF00950D5250B6E0A50D6210C6E1C5083
:102060000B26000E0C2218500B2619500C22FF0EC6
:102070000B240D6EFF0E0C200E6E0DC0F6FF0EC071
:10208000F7FF000EF86E0800F5CF1DF01A50080893
:10209000096E09280A6E4FEF90F0D8901D320A2E73
:1020A0004DEF90F0010E0001D96559EF90F05BEF14
:1020B00090F0ABEF90F0DB51D8A461EF90F063EFBC
:1020C00090F083EF90F0D9511B02F3CF09F0F4CFD9
:1020D0000AF00950D5250B6E0A50D6210C6E1C5003
:1020E0000B26000E0C2218500B2619500C220BC088
:1020F000F6FF0CC0F7FF000EF86E0800F550FF0A5F
:10210000126EA0EF90F0D9511B02F3CF09F0F4CF7B
:102110000AF00950D5250B6E0A50D6210C6E1C50C2
:102120000B26000E0C2218500B2619500C220BC047
:10213000F6FF0CC0F7FF000EF86E0800F5CF12F0A6
:102140001A28096EA6EF90F0D8901236092EA4EF47
:1021500090F012501D120001DB51D8A4B2EF90F0A4
:10216000B4EF90F0DFEF90F01C50096E0A6AFF0E9A
:1021700017240B6E0C6AFF0E0C2209500B1807E196
:102180000A500C18D8A4C7EF90F0C9EF90F0DFEF19
:1021900090F01A50D8B4CFEF90F0D1EF90F0DFEF7D
:1021A00090F01AC009F0FF0E0A6E092ADAEF90F0DB
:1021B000D8900A36092ED8EF90F00A501D1200016F
:1021C000DA05D8A4E6EF90F0E8EF90F0FEEF90F09B
:1021D000DB51D8A4EEEF90F0F0EF90F0F8EF90F034
:1021E000D3C001F0D2516AECB3F01D16FEEF90F0AF
:1021F000D3C001F0D2516AECB3F01D12D3C001F08C
:102200001DC002F00001D25150ECB3F00001D22BFE
:102210001B2A16501B5CD8A010EF91F012EF91F022
:1022200088EF8FF00001DA51D8A419EF91F01BEF7D
:1022300091F02AEF91F0DB51D8A421EF91F023EF38
:1022400091F026EF91F01D6830EF91F0000E1D6EB9
:1022500030EF91F0D3C001F0D2516AECB3F01D6EB3
:10226000D3C001F01DC002F00001D25150ECB3F018
:10227000080E11261C2A17501C5CD8A042EF91F0C2
:1022800044EF91F07FEF8FF010C002F0135016244E
:10229000096E092865ECB4F01200266E2604D8A455
:1022A00054EF91F056EF91F0DAEF91F0330E1C6E8F
:1022B0001A0E1D6E3F0E1E6EFF0E1F6E000ED5EC29
:1022C000B3F0740E096EFB0E0A6E050E0B6E080E4F
:1022D0000C6E010E0D6E000E0E6ED4ECACF0360ED0
:1022E000026E020E65ECB4F0C30E1E6EFF0E1F6E82
:1022F0008BECACF0330E1C6E370E1D6E3F0E1E6E57
:10230000000E1F6E1D0ED5ECB3F0330E216E370E8E
:10231000226E3F0E236EFF0E246E1D0E38ECAEF0C3
:10232000740E096EFB0E0A6E050E0B6E080E0C6E17
:10233000010E0D6E010E0E6ED4ECACF0360E026E78
:102340001F0E65ECB4F0C80E1E6EFF0E1F6E8BECF8
:10235000ACF0330E1C6E730E1D6E3F0E1E6E000E23
:102360001F6E3A0ED5ECB3F0330E216E730E226E53
:102370003F0E236EFF0E246E3A0E38ECAEF0740E54
:10238000096EFB0E0A6E050E0B6E080E0C6E010E2A
:102390000D6E010E0E6ED4ECACF0360E026E3C0EDD
:1023A00065ECB4F0420E1E6EFF0E1F6E8BECACF0AF
:1023B0008BEF93F02650D8A4E0EF91F0E2EF91F08C
:1023C00066EF92F0330E1C6E1A0E1D6E3F0E1E6EDF
:1023D000000E1F6E000ED5ECB3F0330E216E1A0EF8
:1023E000226E3F0E236EFF0E246E000E38ECAEF010
:1023F000740E096EFB0E0A6E050E0B6E080E0C6E47
:10240000010E0D6E010E0E6ED4ECACF0360E026EA7
:10241000020E65ECB4F0C30E1E6EFF0E1F6E8BEC49
:10242000ACF0330E1C6E370E1D6E3F0E1E6EFF0E8F
:102430001F6E1D0ED5ECB3F0740E096EFB0E0A6E06
