:0400000031EF00F0EC
:100008005E82F2A40AEF00F00CEF00F02FEF00F090
:10001800FD0ED76E110ED66E01014E4B4F2B4C4B79
:100028004D2B0001F34BF42BE80E01014C5D030E40
:100038004D59D8A022EF00F024EF00F02EEF00F089
:10004800000E4D6F000E4C6F010E4827000E49231D
:0E0058004A234B23F2945E92110048EFC4F04D
:10C92400004361703A3534306D4168004379636C7B
:10C93400653A322F34004375723A3233306D410018
:10C94400566F6C3A332C333556000E00000000004D
:10C9540000000000000000000000000000000000D3
:10C9640000000000000000000000000000000000C3
:10C9740000000000000000000000000000000000B3
:10C9840000000000000000000000000000000000A3
:10C994000000000000000000000000000000000093
:10C9A4000000000000000000000000000000000083
:10C9B400000000000000000500000000000000006E
:10C9C400FC7F0E00FC7F0F00FC7F070000000000CE
:10C9D4000000000000000000000000000000000053
:10C9E4000000000000000000000000000000000043
:10C9F4000000000000000000000000000000000033
:10CA04000000000000000000000000000000000022
:10CA14000000000000000000000000000000000012
:10CA240000000000090000000000000000FC0100FC
:10CA340000FC0100000000000000000000000000F5
:10CA440000FC010000FC01000000000000000000E8
:10CA540000000000000000000000000000000000D2
:10CA640000000000000000000000000000000000C2
:10CA740000000000000000000000000000000000B2
:10CA840000000000000000000000000000000000A2
:10CA9400001100000000006000008061000080615F
:10CAA4000C0080E10F0080FD0F00807F0000F86F14
:10CAB4000000FC610C008CE10F0080FD0F00807F02
:10CAC4000000F86F0000FC6100008C610000802110
:10CAD40000008001000000000000000000000000D1
:10CAE4000000000000000000000000000000000042
:10CAF4000000000000000000000000000000110021
:10CB040000000000830100C0C70300E08F03007031
:10CB14000C0700300C0600180C060018040600FF71
:10CB2400FF7F00FEFF3F00180606001806030018EA
:10CB34000603003886030070FE010070FC0000004C
:10CB44007800000000000000000000000000000069
:10CB540000000000000000000000000000000000D1
:10CB640000000000000000000000001500000000AC
:10CB7400E0000000F0010000F80300001C030400C2
:10CB84000C030E008C830F00FCC10300F8F00000BE
:10CB9400707C0000001E000080070300E083070093
:10CBA400F0C00F003CC00C001C600C0008600C00BE
:10CBB4000060060000E0070000C0030000800100E0
:10CBC4000000000000000000000000000000000061
:10CBD4000000000000000000160000000000E00358
:10CBE4000000F0070000F80700701C0E00F80E0C9F
:10CBF40000F80F0C00DC070C008C070C000C0F0C69
:10CC0400000C1F06008C1F0600CC390700F87103C6
:10CC140000F8F0030070E0010000E0010000F803F8
:10CC240000003C070000180E0000000E0000000782
:10CC340000000000000000000000000000000000F0
:10CC44000000000000040000000000000000FC01DF
:10CC54000000FC01000000000000000000000000D3
:10CC640000000000000000000000000000000000C0
:10CC740000000000000000000000000000000000B0
:10CC840000000000000000000000000000000000A0
:10CC94000000000000000000000000000000000090
:10CCA4000000000000000000000000000000000080
:10CCB40000000B000000000000000000FC03000066
:10CCC400FF1F00C0FF3F00E003FC00F000E001385C
:10CCD40000C0013C0080031C008003080000000029
:10CCE4000000000000000000000000000000000040
:10CCF4000000000000000000000000000000000030
:10CD0400000000000000000000000000000000001F
:10CD14000000000000000000000000000000000A05
:10CD240000000000080000001C0080033C00800399
:10CD34003800C001F000F001E003FC00C0FF3F0038
:10CD440000FF1F0000FC03000000000000000000C2
:10CD540000000000000000000000000000000000CF
:10CD640000000000000000000000000000000000BF
:10CD740000000000000000000000000000000000AF
:10CD84000000000000000000000000000A00000095
:10CD940000C0000000C00000004C020000D80300E6
:10CDA40000F0010000FC000000AC010000300300B2
:10CDB400003000000000000000000000000000003F
:10CDC400000000000000000000000000000000005F
:10CDD400000000000000000000000000000000004F
:10CDE400000000000000000000000000000000003F
:10CDF4000000000000000000000E000000000040E1
:10CE0400000000600000006000000060000000609E
:10CE1400000000FF0F0000FF0F0000FF0F00006084
:10CE2400000000600000006000000060000000607E
:10CE340000000000000000000000000000000000EE
:10CE440000000000000000000000000000000000DE
:10CE540000000000000000000000000000000000CE
:10CE64000000000000000500000000000066000053
:10CE7400006F0000003F0000001E000000000000E2
:10CE8400000000000000000000000000000000009E
:10CE9400000000000000000000000000000000008E
:10CEA400000000000000000000000000000000007E
:10CEB400000000000000000000000000000000006E
:10CEC400000000000000000000000000000000005E
:10CED4000000000A000000000030000000700000A4
:10CEE400003000000030000000300000003000007E
:10CEF400003000000030000000300000000000009E
:10CF0400000000000000000000000000000000001D
:10CF1400000000000000000000000000000000000D
:10CF240000000000000000000000000000000000FD
:10CF340000000000000000000000000000000000ED
:10CF440005000000000000000000000E0000000FBB
:10CF540000000007000000000000000000000000C6
:10CF640000000000000000000000000000000000BD
:10CF740000000000000000000000000000000000AD
:10CF8400000000000000000000000000000000009D
:10CF9400000000000000000000000000000000008D
:10CFA400000000000000000000000000000B000072
:10CFB40000000000040000000F0000C00F0000F893
:10CFC4000100007E0000801F0000E0070000FC015B
:10CFD40000007C0000001C000000000000000000B5
:10CFE400000000000000000000000000000000003D
:10CFF400000000000000000000000000000000002D
:10D00400000000000000000000000000000000001C
:10D0140000000000000000000000160000000000F6
:10D02400F8010000FF030080FF0700C0030700E0D1
:10D03400010E0070000C0030000C0038000C0018C9
:10D04400000C0008000C000C000C000C0006000C86
:10D054000006000C0007000C0003001C80030018ED
:10D06400C0010038F00000F07F0000E03F0000C085
:10D074000F0000000000000000000000000000009D
:10D08400000000000000001000000000000000008C
:10D094000000000000000000000100008003000008
:10D0A400C0030000C0010000E0000000E000000038
:10D0B400700000007000000038000000F8FF0F004E
:10D0C400FCFF0F00FCFF0F00000000000000000048
:10D0D400000000000000000000000000000000004C
:10D0E400000000000000000000000000000000003C
:10D0F4000000000014000000000000000000000018
:10D1040000E0000E00E0000F00F0C00F0038E00D5A
:10D114000018E00C0018700C000C300C000C380CDB
:10D12400000C380C000C1C0C000C1C0C000C0C0C1F
:10D13400000C0E0C00180F0C00F8070E00F8030F7B
:10D1440000E0010E000000000000000000000000EC
:10D1540000000000000000000000000000000000CB
:10D164000015000000000000000000C003007CC0A7
:10D1740007007CC007007C000E000C000C000C00B3
:10D184000C000C0E0C000C060C000C070C000C0719
:10D194000C008C030C00CC030600EC0306007C039B
:10D1A40006003C0303001CC703000CFE010000FE44
:10D1B4000000007C000000000000000000000000EF
:10D1C4000000000000000000000000000000160045
:10D1D400C0000000E0000000F0000000F8000000C3
:10D1E400F8000000FC000000EE0000006700008072
:10D1F400630000C0610000E060000070600000385F
:10D20400700000FCFF0F00FCFF0F00FCFF0F00008C
:10D214003000000030000000300000003800000042
:10D22400380000003800000000000000000000008A
:10D2340000000000000000000000001500000000D5
:10D244000000000000080300F81F0700F81F070093
:10D25400F80D0E00080E0C0008060C0008060C0061
:10D2640008020C0008030C0008030C0008030C005F
:10D27400080306000C0306000C0307000C07030058
:10D284000CC603000CFE010000FC00000078000046
:10D29400000000000000000000000000000000008A
:10D2A40000000000000000001600000000007800EC
:10D2B4000000FE030080FF0300C0C70700E0E10791
:10D2C4000060700E0070300C0038380C00181C0C14
:10D2D40000180C0C000C0C0C000C060C000C060EB8
:10D2E400000C0606000C0606000C0607000C0603DC
:10D2F40000388E030078FC010030FC000000780048
:10D304000000000000000000000000000000000019
:10D3140000000000001600000000000000000000F3
:10D324000000F8010000FC010000FC0000000C00FB
:10D3340000000C0000000C0000000C000E000C802B
:10D344000F000CE007000CF001000CFC00000C3E88
:10D3540000008C1F0000EC070000FC030000FC0030
:10D3640000003C0000000C0000000400000000006D
:10D3740000000000000000000000000000000000A9
:10D384000000160000000000C0010000E0030000DF
:10D39400F00700C0790600F03B0E00F81F0C0038BF
:10D3A4000E0C00180C0C001C0C0C000C060C000CD1
:10D3B400060C000C0606000C0606000C0606001CF3
:10D3C400070300F8070300F886030070CE0100008D
:10D3D400FC000000FC000000380000000000000019
:10D3E4000000000000000000000000000000001623
:10D3F400000000000000010080830300E0870700B4
:10D40400F00F0700700C0E00381C0C0018180C00EC
:10D414001C180C000C180C000C180C000C180C0038
:10D424000C1804000C0C06000C0C06001C0C070065
:10D434001886030038C70300F0E30100F0FF000082
:10D44400E07F0000001F000000000000000000005A
:10D4540000000000000000000000000005000000C3
:10D464000000000000000C0E00001E0F00000C075E
:10D4740000000000000000000000000000000000A8
:10D484000000000000000000000000000000000098
:10D494000000000000000000000000000000000088
:10D4A4000000000000000000000000000000000078
:10D4B4000000000000000000000000000000000068
:10D4C4000000000000000000000500000000000053
:10D4D4006600000C6F00001E3F00000E1E000000DE
:10D4E4000000000000000000000000000000000038
:10D4F4000000000000000000000000000000000028
:10D504000000000000000000000000000000000017
:10D514000000000000000000000000000000000007
:10D5240000000000000000000000000000000000F7
:10D534000000000000000D000000000000000000DA
:10D544006000000070000000F0000000F80100001E
:10D55400D80100009C0300000C0300000E0700002B
:10D56400070E0000070E0000020200000000000089
:10D5740000000000000000000000000000000000A7
:10D584000000000000000000000000000000000097
:10D594000000000000000000000000000000000087
:10D5A4000000000D00000000008C0100008C010050
:10D5B400008C0100008C0100008C0100008C010033
:10D5C400008C0100008C0100008C0100008C010023
:10D5D400008C0100008C010000000000000000002D
:10D5E4000000000000000000000000000000000037
:10D5F4000000000000000000000000000000000027
:10D604000000000000000000000000000000000016
:10D614000D00000000000000000002020000070EE0
:10D624000000070E00000E0700000C0300009C031E
:10D634000000D8010000F8010000F00000007000B4
:10D644000000600000000000000000000000000076
:10D6540000000000000000000000000000000000C6
:10D6640000000000000000000000000000000000B6
:10D674000000000000000000000000000010000096
:10D6840000002000000070000000F000000078702E
:10D69400000018F8000018FC1C000CDC1E000CCE66
:10D6A4000E000CC700000CF700008C730000DC2196
:10D6B4000000F8010000F800000070000000000005
:10D6C4000000000000000000000000000000000056
:10D6D4000000000000000000000000000000000046
:10D6E400000000000000000000001B00000000001B
:10D6F40080070000E01F0000783800001C300000A4
:10D704000E70000006670000C3670080E36F0080AE
:10D71400716C0080396C00C0186C00C00C6600C0CD
:10D724000C36006004330060863B006086110060A4
:10D73400C6070060FE0F0060FE0F00600E0C006064
:10D74400000C00C0000600C0010600808303000036
:10D75400FF0100007C00001500000E0000800F0097
:10D7640000C00F0000F0010000780000003E00003F
:10D77400001F0000801F0000E01B0000F8180000DC
:10D784007C1800007C180000F8180000E01B000062
:10D79400801F0000001F0000007C000000F8010052
:10D7A40000E00F0000800F0000000E0000000000E9
:10D7B4000000000000000000000000000000000065
:10D7C40000000000150000000000000000F8FF0F3A
:10D7D40000FCFF0F00F8FF0F0018060C0018060CE1
:10D7E4000018070C000C0704000C0306000C0306C9
:10D7F400008C0306008C030700CC030300CC030356
:10D8040000FC83030078C3010038E7010000FE0038
:10D8140000007E0000001C0000000000000000006A
:10D8240000000000000000000000000000000000F4
:10D83400001200000000007C000000FF0100C0FF97
:10D844000700E0830700F0000E0030000E003800EF
:10D854000C0018000C000C000C000C000C000C0058
:10D864000C000C0006000C0007000C00070018C098
:10D87400030038C0010038C00100000000000000AF
:10D884000000000000000000000000000000000094
:10D89400000000000000000000000000000015006F
:10D8A40000000000000000FCFF0F00FCFF0F00FC64
:10D8B400FF0F0038000C0018000C0018000C001CAE
:10D8C4000006000C0006000C0006000C0007000C0B
:10D8D4000003000C8003000C8003001CC00100182E
:10D8E400E0010078F80000F07F0000E01F0000C0B5
:10D8F400070000000000000000000000000000001D
:10D904000000000000000000000000130000000000
:10D9140010000000FCFF0F00FCFF0F00FCFF0F00D5
:10D92400180C0600180C0600180C0600180C06004B
:10D93400180C0600180C0600180C0600180C06003B
:10D94400180E06001C0E06001C0406001C0007002E
:10D9540000000700000002000000000000000000BA
:10D9640000000000000000000000000000000000B3
:10D974000000000000000000110000000000000092
:10D9840000F8FF0F00FCFF0F00FCFF0F00381C0025
:10D9940000381C0000380C0000180C0000180C00A3
:10D9A40000180C0000180C0000180E00001C0E00DB
:10D9B400001C0E00001C0E00001C000000000000F3
:10D9C4000000000000000000000000000000000053
:10D9D4000000000000000000000000000000000043
:10D9E4000000000000170000000000F8000000FE26
:10D9F400010080FF0300C0870700E0010600E0008B
:10DA04000E0070000C0030000C0038000C001800F0
:10DA14000C0018000C000C100C000C1806000C185C
:10DA240006000C1806000C1803000C9803001CCC0C
:10DA3400010018EC010038FC0000107C0000001C00
:10DA440000000000000000000000000000000000D2
:10DA540000001400000000000C0000FCFF0F00FC9C
:10DA6400FF0F00FCFF0F00000E0000000E0000007E
:10DA74000E0000000E0000000E0000000E0000006A
:10DA84000E00000006000000060000000600000072
:10DA940006000000060000FCFF0F00FCFF0F00FC66
:10DAA400FF0F000000000000000000000000000064
:10DAB400000000000000000000000000000000055D
:10DAC4000000000000000000FCFF0F00FCFF0F003E
:10DAD400FCFF0F0000000000000000000000000038
:10DAE4000000000000000000000000000000000032
:10DAF4000000000000000000000000000000000022
:10DB04000000000000000000000000000000000011
:10DB14000000000000000000000000000000000001
:10DB240000000000000000000000000010000000E1
:10DB3400000080030000C0070000C00F0000001CAC
:10DB44000000001800000018000000180000001871
:10DB5400000000180000001C0000000E0000000F70
:10DB640000FCFF0700FCFF0300FCFF0100000000B5
:10DB740000000000000000000000000000000000A1
:10DB84000000000000000000000000000000000091
:10DB9400000000000000000000130000000000006E
:10DBA4000000FCFF0F00FCFF0F00FCFF0F00800FC4
:10DBB4000000800F0000C01D0000E0380000E07885
:10DBC40000007070000030E0000038C0010018C090
:10DBD40003000C8003000C00070000000E0000008E
:10DBE4000E0000000400000000000000000000001F
:10DBF4000000000000000000000000000000000021
:10DC04000000000000000F0000000000000000FC05
:10DC1400FF0F00FCFF0F00FCFF0F0000000E0000D0
:10DC2400000E0000000600000006000000060000D0
:10DC340000060000000700000007000000070000C5
:10DC440000070000000000000000000000000000C9
:10DC540000000000000000000000000000000000C0
:10DC640000000000000000000000000000000000B0
:10DC7400000000190000000000000000F8FF0F0081
:10DC8400FCFF0F00FCFF0F00F0010000C0030000C8
:10DC9400800F0000001E0000007C000000F801005E
:10DCA40000E0070000800F0000800F0000E0070084
:10DCB40000F0010000F80000003C0000001E00001D
:10DCC400000F0000C0030000E0010000FCFF0F0093
:10DCD400FCFF0F00FCFF0F0000000000000000002C
:10DCE400130000000000000000FCFF0F00FCFF0F09
:10DCF40000FCFF0F00F0010000C0030000800700DB
:10DD040000000F0000001E0000003C00000038006E
:10DD1400000070000000F0000000E0010000C003FB
:10DD240000FCFF0700FCFF0F00FCFF0F00000000D9
:10DD340000000000000000000000000000000000DF
:10DD440000000000000000000000000000150000BA
:10DD5400000000F8000000FE010080FF0300C08303
:10DD64000700E001060070000E0030000C003800CF
:10DD74000C0018000C000C000C000C000C000C0033
:10DD840006000C0006000C0007001C00030018C06D
:10DD9400030078E00100F0FF0000E07F0000801F36
:10DDA400000000000000000000000000000000006F
:10DDB400000000000000000000001300000000C08C
:10DDC400000000FCFF0F00FCFF0F00FCFF0F0038F9
:10DDD4001C0000380C0000180C0000180C0000088F
:10DDE4000E00000C0E00000C0600000C0700000CD6
:10DDF4000300008C030000CC010000FC010000F8CB
:10DE040000000038000000000000000000000000D6
:10DE140000000000000000000000000000000000FE
:10DE240000000000000000170000000000F80000DF
:10DE340000FE030080FF0700C0070700E0010E009A
:10DE4400E0000C0070000C0030000C0018000C0006
:10DE540018000C000C200C000C700E000CF00600D6
:10DE64000CE006000CC007001CC003001CC0070027
:10DE740078F00700F0FF0E00E03F1C00C00F1C000C
:10DE84000000080000000000000000000000000086
:10DE9400000000001500000000E0000000FCFF0F7F
:10DEA40000FCFF0F00FCFF0F00381C0000183E00B0
:10DEB40000183E0000187600000C7600000CE60006
:10DEC400000CE300000CC300008CC301008C810132
:10DED40000CC810300FC000300F8000700380006B2
:10DEE4000000000E0000000E000000000000000012
:10DEF400000000000000000000000000000000001E
:10DF040000150000000000070300C0870700E00FB1
:10DF14000700700C0E00300C0C00180C0C00180CD0
:10DF24000C00180C0C000C040C000C040C000C0667
:10DF34000E000C0606000C0606000C0607001C0664
:10DF440007003886030038C6030010FE010000FCF9
:10DF54000000003800000000000000000000000085
:10DF6400000000000000000000000000000012306B
:10DF740000000030000000300000003000000030DD
:10DF84000000001000000010000000F8FF0F00F86F
:10DF9400FF0F00F8FF0F0018000000080000000841
:10DFA400000000080000000C0000000C0000000C41
:10DFB4000000000C00000000000000000000000051
:10DFC400000000000000000000000000000000004D
:10DFD400000000000000000000000012000000002B
:10DFE40000000000FCFF0300FCFF0700F8FF07002F
:10DFF40000000E0000000C0000000C0000000C00EB
:10E0040000000C0000000C0000000E0000000600E0
:10E014000000070000000700FCFF0300FCFF0100F4
:10E02400FCFF0000000000000000000000000000F1
:10E0340000000000000000000000000000000000DC
:10E04400000000000000000013000000003C00007D
:10E0540000FC010000F8070000C01F0000007F0062
:10E064000000F80F0000C00F0000C00F0000F00017
:10E0740000007C0000001E0000000F0000C0030030
:10E0840000E0010000F0000000780000003C000007
:10E094000018000000000000000000000000000064
:10E0A400000000000000000000000000000000006C
:10E0B40000000000001B000000007C000000FC03C6
:10E0C4000000FC1F000000FF000000F80F0000E04B
:10E0D4000F0000C00F0000F0010000780000003EB7
:10E0E4000000800F0000F8030000F8000000F803AF
:10E0F4000000800F0000003E000000FC000000F063
:10E10400070000800F0000C00F0000F80300007E2D
:10E114000000801F0000FC070000FC0100003C0020
:10E12400000011000004001C000E003C000F007CE5
:10E13400C00700F8E00300F0F10000C07B0000809D
:10E144003F0000001F0000001F0000C07F0000E02F
:10E15400F10000F0E0010078C003003C800F001CD7
:10E16400000F001800040000000000000000000080
:10E17400000000000000000000000000000000009B
:10E184000000000000000000000000000000001576
:10E19400180000001C0000003C0000007800000093
:10E1A400F0000000E0010000C00100008003000056
:10E1B4000007000000FF0F0000FE0F0000FE0F002C
:10E1C4000007000080030000C0010000E00100001F
:10E1D400E000000070000000380000003C00000077
:10E1E4001C0000000000000000000000000000000F
:10E1F4000000000000000000000000001400000007
:10E204000000000E0038000F003C800F001CC00FFF
:10E21400000CC00D000CE00C000C700C000C380C51
:10E22400000C3C0C000C1E0C000C0F0C008C070C9A
:10E2340000CC030C00EC010C00EC000C00FC000C06
:10E24400007C000E003C000F001C000600000000D3
:10E2540000000000000000000000000000000000BA
:10E264000000000000000000000C0000000000009E
:10E27400000000000000F8FFFF03FCFFFF03FCFFA9
:10E28400FF030C0000030C0000030C0000030C004F
:10E2940000030C00800300000001000000000000E7
:10E2A400000000000000000000000000000000006A
:10E2B400000000000000000000000000000000005A
:10E2C400000000000000000000000000000000004A
:10E2D4000000000000000B080000001C0000007C8F
:10E2E400000000F0010000C0070000001F00000053
:10E2F4007C000000F0010000C00F0000000F0000CF
:10E304000004000000000000000000000000000005
:10E3140000000000000000000000000000000000F9
:10E3240000000000000000000000000000000000E9
:10E3340000000000000000000000000000000000D9
:10E3440000000009000000000C0000030C000003A2
:10E354000C0000030C0000030C000003FCFFFF038F
:10E36400FCFFFF03FCFFFF030000000000000000AF
:10E374000000000000000000000000000000000099
:10E384000000000000000000000000000000000089
:10E394000000000000000000000000000000000079
:10E3A4000000000000000000000000000000000069
:10E3B4000D000000000001000080030000C0030005
:10E3C40000E0010000F0000000780000001C0000E4
:10E3D400007C000000F0000000E0030000C0030027
:10E3E4000000030000000000000000000000000026
:10E3F4000000000000000000000000000000000019
:10E404000000000000000000000000000000000008
:10E41400000000000000000000000000000D0000EB
:10E42400C0000000C0000000C0000000C0000000E8
:10E43400C0000000C0000000C0000000C0000000D8
:10E44400C0000000C0000000C0000000C0000000C8
:10E45400C0000000000000000000000000000000F8
:10E4640000000000000000000000000000000000A8
:10E474000000000000000000000000000000000098
:10E484000000000000000000000008000000000080
:10E494000000000C0000001C000000180000003008
:10E4A40000000060000000600000000000000000A8
:10E4B4000000000000000000000000000000000058
:10E4C4000000000000000000000000000000000048
:10E4D4000000000000000000000000000000000038
:10E4E4000000000000000000000000000000000028
:10E4F400000000000000000F000000000000060003
:10E5040000800F0000CC0F0000CE0C0000C60C00F1
:10E5140000660C00006304000023060000330600BC
:10E524000033030000B3010000FF0F0000FE0F00E2
:10E5340000FE0F00000000000000000000000000CA
:10E5440000000000000000000000000000000000C7
:10E5540000000000000000000000000000000000B7
:10E5640000000000100000000000000000FCFF0F8D
:10E5740000FCFF0F00FCFF0F00001C0C00000E0C41
:10E5840000000606000006060000020300008303E4
:10E594000000C3010000E30000007F0000003F0012
:10E5A40000000E0000000000000000000000000059
:10E5B4000000000000000000000000000000000057
:10E5C4000000000000000000000000000000000047
:10E5D400000F0000000000E0030000F0070000F856
:10E5E4000700003C0E00000E0C0000060C000007A3
:10E5F4000C0000030C0000030C00000306000003E1
:10E604000700008707000086030000860100000061
:10E6140000000000000000000000000000000000F6
:10E6240000000000000000000000000000000000E6
:10E6340000000000000000000000000000001000C6
:10E644000000000080070000C0070000E00F000089
:10E65400780C0000380C00001C0C00000C0C0000AE
:10E664000C060000060600000603000086030000F6
:10E67400C60100FCFF0F00FCFF0F00FCFF0F0000B1
:10E684000000000000000000000000000000000086
:10E694000000000000000000000000000000000076
:10E6A4000000000000000000000000100000000056
:10E6B40000C0030000F0070000F80F00007C0E000B
:10E6C400006C0C0000660C0000660C0000330C00AB
:10E6D40000330C0000330E00003306000033060044
:10E6E400009E0300009E0300000C010000000000D7
:10E6F4000000000000000000000000000000000016
:10E704000000000000000000000000000000000005
:10E7140000000000000000000D00040000000C00D8
:10E7240000000C0000000C0000C0FF0F00F0FF0F01
:10E7340000F8FF0F001C0600000C0600000C060089
:10E74400000C060000380700001807000000000055
:10E7540000000000000000000000000000000000B5
:10E7640000000000000000000000000000000000A5
:10E774000000000000000000000000000000000095
:10E7840000000000000F000000000080070000E00F
:10E794000F0000F0CF010078CC01001C8C03000CAA
:10E7A4000C0300060603000607030002030300C36C
:10E7B400830300F3C00100FFFF0100FFFF0000FF1F
:10E7C4003F00000000000000000000000000000006
:10E7D4000000000000000000000000000000000035
:10E7E4000000000000000000000000000000000025
:10E7F40000000F0000000000000000FCFF0F00FC00
:10E80400FF0F00FCFF0F00001C0000000E000000C2
:10E8140006000000060000000300000003000000E2
:10E8240003000000FF0F0000FF0F0000FE0F0000B8
:10E8340000000000000000000000000000000000D4
:10E8440000000000000000000000000000000000C4
:10E8540000000000000000000000000000000005AF
:10E86400000000000000000070FF0F0078FF0F00A0
:10E8740038FF0F000000000000000000000000004E
:10E884000000000000000000000000000000000084
:10E894000000000000000000000000000000000074
:10E8A4000000000000000000000000000000000064
:10E8B4000000000000000000000000000000000054
:10E8C400000000000000000000000000060000003E
:10E8D400060000000700FFFF0318FFFF033CFFFFD3
:10E8E400011C000000000000000000000000000007
:10E8F4000000000000000000000000000000000014
:10E904000000000000000000000000000000000003
:10E9140000000000000000000000000000000000F3
:10E9240000000000000000000000000000000000E3
:10E934000000000000000000000E000000000000C5
:10E944000000FCFF0F00FCFF0F00FCFF0F00007035
:10E95400000000F8000000DC010000DC0100008E73
:10E964000300000707008007070080030E00000172
:10E974000C00000000000000000000000000000087
:10E984000000000000000000000000000000000083
:10E994000000000000000000000000000000000073
:10E9A400000000000000050000000000000000FC62
:10E9B400FF0F00FCFF0F00FCFF0F00000000000031
:10E9C4000000000000000000000000000000000043
:10E9D4000000000000000000000000000000000033
:10E9E4000000000000000000000000000000000023
:10E9F4000000000000000000000000000000000013
:10EA04000000000000000000000000000000000002
:10EA140000000018000000000000000000FF0F00CC
:10EA240000FF0F0000FF0F00001C0000000C00009E
:10EA340000060000000600000002000000030000C1
:10EA440000FF0F0000FF0F0000FE0F000018000081
:10EA5400000C0000000C0000000600000002000092
:10EA6400000300000003000000FF0F0000FF0F0080
:10EA740000FE0F0000000000000000000000000085
:10EA84000F000000000000000000FF0F0000FF0F57
:10EA94000000FF0F00001C0000000C0000000E002E
:10EAA4000000060000000200000003000000030054
:10EAB4000000FF0F0000FF0F0000FE0F0000000029
:10EAC4000000000000000000000000000000000042
:10EAD4000000000000000000000000000000000032
:10EAE4000000000000000000000000000010000012
:10EAF400000000C0030000F0070000F80700001C3D
:10EB04000E00000E0C0000060C0000060C000003B2
:10EB14000C0000030E00000306000003070000873A
:10EB2400030000FE010000FE000000780000000069
:10EB340000000000000000000000000000000000D1
:10EB440000000000000000000000000000000000C1
:10EB540000000000000000000000110000000000A0
:10EB640000000000FFFF0F00FFFF0F00FFFF0F007A
:10EB7400380C00001C0C00000E0C0000060C0000F9
:10EB8400030E0000030600000307000083030000D7
:10EB9400C7030000FF010000FE0000003C0000006D
:10EBA4000000000000000000000000000000000061
:10EBB4000000000000000000000000000000000051
:10EBC40000000000000000140000000000E003004A
:10EBD40000F0070000F80F00001C0E00000E0C00EF
:10EBE40000060C0000070C000003060000030700E9
:10EBF4000083030000C3010000F3000000FFFF07CF
:10EC040000FFFF0F00FEFF0F0000000600000003DE
:10EC140000008003000080010000000000000000EC
:10EC240000000000000000000000000000000000E0
:10EC3400000000000D000000000000000000FF0FB5
:10EC44000000FF0F0000FF0F0000180000000C0080
:10EC540000000600000002000000030000001F0086
:10EC640000001F0000000E00000000000000000073
:10EC74000000000000000000000000000000000090
:10EC84000000000000000000000000000000000080
:10EC94000000000000000000000000000000000070
:10ECA40000110000000000380600007C0700007C12
:10ECB4000600006E0C0000660C0000660C00006389
:10ECC4000C0000230C0000330C000033060000335A
:10ECD4000600003306000033030000F2030000E0E6
:10ECE400010000E00000000000000000000000003F
:10ECF4000000000000000000000000000000000010
:10ED040000000000000000000000000000001100EE
:10ED140000000000060000000600000006000000DD
:10ED2400070000E0FF0700E0FF0F00E0FF0F000016
:10ED3400030C0000030C0000030400000306008021
:10ED44000107008001030000C1030000C0010000AE
:10ED5400800000000000000000000000000000002F
:10ED6400000000000000000000000000000000009F
:10ED740000000000000000000000000F0000000080
:10ED84000000000000FF070000FF070000FF0F0065
:10ED940000000C0000000C0000000C000000060045
:10EDA40000000600000007000080030000FF0F00C1
:10EDB40000FF0F0000FF0F00000000000000000033
:10EDC400000000000000000000000000000000003F
:10EDD400000000000000000000000000000000002F
:10EDE40000000000000000000F00060000001F00EB
:10EDF40000007F000000FE030000E00F0000800F11
:10EE04000000000F0000C0070000E0010000F00057
:10EE140000003C0000001E0000000F00000007007E
:10EE240000000300000000000000000000000000DB
:10EE340000000000000000000000000000000000CE
:10EE440000000000000000000000000000000000BE
:10EE54000000000000160000000000070000001F72
:10EE6400000000FF000000F0070000C00F000000D9
:10EE74000F0000C0070000E0010000F80000003FA0
:10EE84000000001F0000007F000000F8010000E007
:10EE9400070000800F0000800F0000E0030000F076
:10EEA4000100007E0000001F0000000700000000B9
:10EEB400000000000000000000000000000000004E
:10EEC40000000F000000000002060000070E000012
:10EED4000F0700009C030000F8010000F801000087
:10EEE400F0000000F0000000F8010000DC01000068
:10EEF4008E03000007070000070E0000000C00004E
:10EF040000000000000000000000000000000000FD
:10EF140000000000000000000000000000000000ED
:10EF240000000000000000000000000000000010CD
:10EF34000002E0000007E001001F8001003E8001A4
:10EF44000078800100F0C00100E0E1000080F700DB
:10EF540000007F0000001F0000C00F0000F003004D
:10EF640000FC0000003F0000000F00000003000050
:10EF7400000000000000000000000000000000008D
:10EF8400000000000000000000000000000000007D
:10EF94000000000000000000000000000F00000856
:10EFA40000000E0C00000E0E0000060F0000060FFD
:10EFB4000000860F0000C60D0000E60C0000760C71
:10EFC40000003E0C00003E0C00001E0C00000E0C65
:10EFD4000000070E0000030E000000000000000007
:10EFE400000000000000000000000000000000001D
:10EFF400000000000000000000000000000000000D
:10F004000000000000000000000D0000000000608F
:10F014000000006000000060000000E0000000F05C
:10F02400FF01E0FFFF01F81FFF03F80F00031C00BE
:10F0340000030C0000030C0000030C00000100009E
:10F0440000000000000000000000000000000000BC
:10F0540000000000000000000000000000000000AC
:10F06400000000000000000000000000000000009C
:10F07400000000000000050000000000000000FF88
:10F08400FFFF07FFFFFF07FFFFFF0700000000006F
:10F09400000000000000000000000000000000006C
:10F0A400000000000000000000000000000000005C
:10F0B400000000000000000000000000000000004C
:10F0C400000000000000000000000000000000003C
:10F0D400000000000000000000000000000000002C
:10F0E4000000000C080000030C0000030C000003E7
:10F0F4000C0080030C00FF01FC8FFF01F8FF7F0070
:10F10400F0FF0000007000000060000000600000DC
:10F11400006000000000000000000000000000008B
:10F1240000000000000000000000000000000000DB
:10F1340000000000000000000000000000000000CB
:10F1440000000000000000000000000000000000BB
:10F154000D000000000080000000E0010000E0005D
:10F16400000030000000300000007000000060006B
:10F174000000C0000000C0000000E00000007800B3
:10F184000000380000000000000000000000000043
:10F19400000000000000000000000000000000006B
:10F1A400000000000000000000000000000000005B
:10F1B4000000000000000000000000000008000043
:10F1C4000000FEFF1F00FEFF1F00020010000200EF
:10F1D400100002001000FEFF1F00FEFF1F000000D1
:10F1E400000000000000000000000000000000001B
:10F1F400000000000000000000000000000000000B
:10F2040000000000000000000000000000000000FA
:10F2140000000000000000000000000000000000EA
:10F2240000000000000000000000060000000000D4
:10F2340000000000000000000000000000000000CA
:10F24400000200007E030000000000000000000037
:10F2540000000000000000000400000F0000000F88
:10F264000000000000000000000000000000000892
:10F27400000040004803F8004E03F8004E00080068
:10F284000000000000000618022402FF0F4402449C
:10F29400028401000000000000000000000B0000D8
:10F2A4001C00220022029C0160001000CC012202FA
:10F2B4002002C00108CC0132022202220252028C36
:10F2C40001E00100020000000000000200000F0045
:10F2D400000000000000000000000000000000002A
:10F2E4000000050000F0010C0602080110000000F7
:10F2F40000000000000000000004011002080C06D9
:10F30400F001000000000000000000000000000008
:10F314000600000A0004001F0004000A00000000A8
:10F324000000000000000007200020002000FC0175
:10F334002000200020000000000000000000020067
:10F3440008000700000000000000000000000000AA
:10F354000000000000042000200020002000000025
:10F364000000000000000000000000000200000097
:10F374000300000000000000000000000000000086
:10F3840000000005000C800360001C000300000066
:10F394000000000000000000000006FC0102020260
:10F3A4000202020202FC0100000000000000000052
:10F3B4000006000004020402FE0300020002000032
:10F3C4000000000000000000060403820242024222
:10F3D4000222021C020000000000000000000006DF
:10F3E40004010202220222022202DC0100000000C7
:10F3F400000000000000066000500048004400FEC9
:10F4040003400000000000000000000000061E0190
:10F414001202120212021202E201000000000000B5
:10F424000000000006F8011402120212021202E0A7
:10F4340001000000000000000000000602000202BB
:10F44400820162001A0006000000000000000000B3
:10F45400000006DC012202220222022202DC010058
:10F46400000000000000000000063C0042024202CE
:10F4740042024201FC000000000000000000000005
:10F48400030000000018030000000000000000005A
:10F49400000000000000000300000008180700003E
:10F4A4000000000000000000000000000000080050
:10F4B4000020002000500050008800880004010053
:10F4C40000000000000800009000900090009000F0
:10F4D400900090009000000000000000080000046C
:10F4E4000188008800500050002000200000000027
:10F4F4000000000504004203220012000C0000007A
:10F50400000000000000000000000BF0000C0304E9
:10F5140002F2040A050A050A05FA0504010C01F0C1
:10F5240000070003E000980086009800E000000354
:10F53400000000000000000006FE03220222022256
:10F54400023C02C0010000000000000000000007AF
:10F55400F800040102020202020202020401000095
:10F5640000000000000007FE030202020202020281
:10F57400020401F800000000000000000006FE0381
:10F5840022022202220222022202000000000000C3
:10F594000000000006FE03220022002200220022B6
:10F5A400000000000000000000000007F800040153
:10F5B4000202020242024202C403000000000000F0
:10F5C400000007FE0320002000200020002000FE91
:10F5D400030000000000000000030202FE03020218
:10F5E4000000000000000000000000000000000017
:10F5F40004000202020202FE0100000000000000FA
:10F604000000000000000006FE03200050008800F7
:10F61400040102020000000000000000000005FEDA
:10F6240003000200020002000200000000000000CB
:10F63400000000000009FE030600180060008001BD
:10F64400600018000600FE030000000007FE030629
:10F654000018002000C0000003FE030000000000AA
:10F6640000000008F8000401020202020202020281
:10F674000401F80000000000000006FE032200223E
:10F6840000220022001C0000000000000000000016
:10F694000008F8000401020202020206020A040938
:10F6A400F80800000000000007FE032200220062A8
:10F6B40000A2001C0100020000000000000000077E
:10F6C4001C0122022202220222022202C4010000A0
:10F6D40000000000000007020002000200FE030216
:10F6E4000002000200000000000000000007FE000D
:10F6F40000010002000200020001FE000000000000
:10F7040000000000070E003000C0000003C00030FD
:10F71400000E0000000000000000000B1E00E001CD
:10F724000002C001380006003800C0010002E001F8
:10F734001E000702020401D8002000D800040102C0
:10F744000200000000000000000702000C0010008E
:10F75400E00310000C0002000000000000000000A4
:10F764000602038202620212020A0206020000007A
:10F7740000000000000000040000FF0F0108010861
:10F78400000000000000000000000000000005036D
:10F79400001C0060008003000C000000000000005A
:10F7A400000000000004000001080108FF0F000031
:10F7B400000000000000000000000000090000102C
:10F7C4000008000400020002000400080010000009
:10F7D40000000007000800080008000800080008EE
:10F7E4000008000000000000000005000000000008
:10F7F4000001000200000000000000000000000002
:10F80400000680014802480248024801F003000053
:10F81400000000000000000006FF031002080208B8
:10F82400020802F0010000000000000000000005D2
:10F83400F0010802080208020802000000000000AB
:10F8440000000000000006F0010802080208020897
:10F8540001FF030000000000000000000006F001AA
:10F8640048024802480248027001000000000000FB
:10F8740000000000050800FE030900090001000063
:10F88400000000000000000000000006F001081263
:10F89400081208120811F80F000000000000000010
:10F8A400000006FF031000080008000800F0030031
:10F8B400000000000000000000020000FA03000045
:10F8C4000000000000000000000000000000000034
:10F8D4000300100810FA0F000000000000000000F0
:10F8E4000000000000000005FF034000A00010011C
:10F8F40008020000000000000000000000000200F8
:10F9040000FF0300000000000000000000000000F1
:10F9140000000000000A0000F803100008000800BE
:10F92400F003100008000800F003000006F80310BC
:10F9340000080008000800F00300000000000000B8
:10F9440000000006F0010802080208020802F001A3
:10F954000000000000000000000006F81F1002086C
:10F964000208020802F0010000000000000000008C
:10F974000006F0010802080208020801F81F00004E
:10F98400000000000000000004F803100008000854
:10F99400000000000000000000000000000000055E
:10F9A40030014802480248029001000000000000B3
:10F9B400000000000000040800FE01080208020024
:10F9C4000000000000000000000000000006F80134
:10F9D4000002000200020001F80300000000000021
:10F9E40000000000051800E0000003E0001800001B
:10F9F4000000000000000000000000091800E00002
:10FA04000003E0001800E0000003E000180000001C
:10FA14000000050802B0014000B001080200000027
:10FA2400000000000000000000051800E0180007B6
:10FA3400E0001800000000000000000000000000CA
:10FA4400050803880248022802180200000000008A
:10FA5400000000000000000540004000BE0701084F
:10FA64000108000000000000000000000000030086
:10FA7400000000FF0F000000000000000000000074
:10FA840000000000000501080108BE074000400016
:10FA940000000000000000000000000008000060FA
:10FAA4000010001000200040004000300000000062
:10FAB40000000003FF030102FF0300000000000038
:10FAC400000000000000000000000500000000002D
:10FAD4000500005F000005000700070005147F14FF
:10FAE4007F1405242A7F2A1205231308646205362D
:10FAF4004956205005080703000005001C22410058
:10FB0400050041221C000514083E08140508083E9F
:10FB140008080500B070000005080808080805007A
:10FB240060600000052010080402053E5149453E6E
:10FB34000500427F40000572494949460521414973
:10FB44004D33051814127F10052745454539053CEA
:10FB54004A494931054121110907053649494936C0
:10FB640005464949291E05000014000005004034DB
:10FB7400000005081422410005141414141405414E
:10FB840022140800050201590906053E415D594E3B
:10FB9400057C1211127C057F49494936053E4141D5
:10FBA4004122057F4141413E057F49494949057F3D
:10FBB40009090909053E41415173057F0808087F79
:10FBC4000500417F4100052040413F01057F0814A5
:10FBD4002241057F40404040057F020C027F057FA3
:10FBE4000408107F053E4141413E057F090909068D
:10FBF400053E4151215E057F0919294605264949DB
:10FC040049320501017F0101053F4040403F051F86
:10FC14002040201F053F4038403F0563140814630B
:10FC240005030478040305615149454305007F41F8
:10FC34004100050204081020050041417F0005042D
:10FC44000201020405404040404005070B0000004B
:10FC5400052054547840057F2844443805384444EA
:10FC6400442805384444287F053854545418050062
:10FC7400087E09020518A4A49C78057F080404786A
:10FC84000500447D4000052040403D00057F1028CC
:10FC940044000500417F4000057C04780478057C1D
:10FCA4000804047805384444443805FC182424180E
:10FCB4000518242418FC057C080404080548545439
:10FCC40054240504043F4424053C4040207C051C86
:10FCD4002040201C053C4030403C0544281028446A
:10FCE400054C9090907C054464544C4405000836BF
:10FCF40041000500007700000500413608000504B6
:10FD04000204080405007F417F004D616E75666141
:10FD140063757265722049443A202578200D0A449F
:10FD240065766963652049443A202578200D0A4D9B
:10FD3400656D6F72792043617061636974793A20EB
:10FD44002578200D0A004D616E75666163757265D4
:10FD5400722049443A202578200D0A446576696367
:10FD6400652049443A202578200D0A00433A25307D
:10FD740034752F253034752F253034752F253034C4
:10FD84007500566F6C3A25752E253032752F257502
:10FD94002E253032755600433A253034752F2530E0
:10FDA40034752F253034756D416800706172616D52
:10FDB400207465737420313A202578200A0D007070
:10FDC4006172616D207465737420323A2025782045
:10FDD4000A0D00706172616D207465737420333A8A
:10FDE400202578200A0D00706172616D207465739E
:10FDF4007420343A202578200A0D004361703A2596
:10FE04003034752F253034756D4168004368617254
:10FE1400672F44697363682F53746F7200253032FF
:10FE24007568253032756D2530327573004F4E2F4D
:10FE34004F46463A202558200A0D00524553455452
:10FE44003A202558200A0D0043656C6C20566F6CCF
:10FE540074613A004D696E44697363566F6C3A007D
:10FE6400547269636B6C65566F6C3A0054726963C3
:10FE74006B6C654375723A0043656C6C20436F7517
:10FE84006E743A004375723A25752F25756D4100DD
:10FE94004361703A253034756D416800436861727E
:10FEA400672F4469736368004379636C653A257509
:10FEB4002F257500425553593A202558200A0D0024
:10FEC4004469736343757220313A0043687267432F
:10FED400757220313A004469736343757220323A73
:10FEE400004368726743757220323A004469736351
:10FEF40043757220333A0043687267437572203346
:10FF04003A004469736343757220343A004368725B
:10FF14006743757220343A004261747420747970B6
:10FF2400653A0054656D703A2530327543002530CA
:10FF3400327568253032756D005341564526455853
:10FF44004954004F7074696F6E732031004F7074A0
:10FF5400696F6E732032004F7074696F6E73203353
:10FF6400004F7074696F6E732034004F7074696F42
:10FF74006E732035004D61782054696D653A0043F5
:10FF840068617267696E67004379636C653A004C17
:10FF9400692D496F6E004241542031004241542082
:10FFA40032004D6F64653A0054656D703A004E69D5
:10FFB4002D4D48005354415254004241434B004E8E
:10FFC40045585400257525250044495343004944A8
:10FFD4004C4500434852470054455354004D454E48
:10FFE400550025754300504200575D002E20003116
:0CFFF40020002564004E00500052000068
:020000040001F9
:10000000E3ECA1F0020EF8ECC7F00009D8A40BEF66
:1000100080F00DEF80F018EF80F0030EF8ECC7F0E1
:100020000009D8B416EF80F018EF80F07BEF85F070
:100030000001FA05D8A41FEF80F021EF80F035EF22
:1000400081F0020EF8ECC7F00009D8B42AEF80F076
:100050002CEF80F030EF80F00001FB073DEF80F0E7
:10006000030EF8ECC7F00009D8B439EF80F03BEF8D
:1000700080F03DEF80F00001FB2B0001FB51D8A484
:1000800044EF80F046EF80F04AEF80F0050EFB6F02
:1000900054EF80F0050EFB6550EF80F052EF80F0DA
:1000A00054EF80F0010EFB6FFB05D8A45AEF80F0EF
:1000B0005CEF80F083EF80F0030EABECA7F084C020
:1000C00022F085C023F0010E246E8CECB7F084C0C2
:1000D0007FF085C080F0000E0001816F49ECB9F01F
:1000E00084C022F085C023F0000E246E28ECB8F006
:1000F00084C07FF085C080F0000E0001816F5AEC53
:10010000BBF077EF85F0020EFB19D8A48AEF80F0E0
:100110008CEF80F0A2EF80F0030EABECA7F084C070
:1001200022F085C023F0000E246E8CECB7F084C062
:100130007FF085C080F0010E0001816F49ECB9F0BD
:1001400070EF80F0030EFB19D8A4A9EF80F0ABEF9D
:1001500080F0D2EF80F0030EABECA7F084C022F069
:1001600085C023F0000E246E8CECB7F084C07FF0C5
:1001700085C080F0000E0001816F49ECB9F084C0A9
:1001800022F085C023F0010E246E28ECB8F084C064
:100190007FF085C080F0000E0001816F5AECBBF04B
:1001A00077EF85F0040EFB19D8A4D9EF80F0DBEFD0
:1001B00080F002EF81F0030EABECA7F084C022F0D8
:1001C00085C023F0000E246E8CECB7F084C07FF065
:1001D00085C080F0000E0001816F49ECB9F084C049
:1001E00022F085C023F0000E246E28ECB8F084C005
:1001F0007FF085C080F0010E0001816F5AECBBF0EA
:1002000077EF85F0050EFB19D8A409EF81F00BEF0D
:1002100081F033EF81F084C022F085C023F0000E1E
:10022000246E8CECB7F084C07FF085C080F0000EA7
:100230000001816F49ECB9F00001F951ABECA7F076
:1002400084C022F085C023F0000E246E28ECB8F0A4
:1002500084C07FF085C080F0000E0001816F5AECF1
:10026000BBF077EF85F077EF85F0020EFA19D8A48E
:100270003CEF81F03EEF81F066EF82F0020EF8EC89
:10028000C7F00009D8B447EF81F049EF81F04DEF96
:1002900081F00001FB075AEF81F0030EF8ECC7F084
:1002A0000009D8B456EF81F058EF81F05AEF81F091
:1002B0000001FB2B0001FB51D8A461EF81F063EF3B
:1002C00081F067EF81F0050EFB6F71EF81F0050E95
:1002D000FB656DEF81F06FEF81F071EF81F0010E42
:1002E000FB6FFB05D8A477EF81F079EF81F0A1EFE8
:1002F00081F084C07FF085C080F0010E816F46ECF4
:10030000B6F084C07FF085C080F0000E0001816FE0
:10031000E9ECB6F084C07FF085C080F0000E0001EB
:10032000816FD6ECBAF084C07FF085C080F0000EFB
:100330000001816FA3ECB5F0030E68EC9DF077EF40
:1003400085F0020EFB19D8A4A8EF81F0AAEF81F086
:10035000D2EF81F084C07FF085C080F0000E816F05
:1003600046ECB6F084C07FF085C080F0010E00013D
:10037000816FE9ECB6F084C07FF085C080F0000E9C
:100380000001816FD6ECBAF084C07FF085C080F0A8
:10039000000E0001816FA3ECB5F0030E68EC9DF038
:1003A00077EF85F0030EFB19D8A4D9EF81F0DBEFCE
:1003B00081F003EF82F084C07FF085C080F0000EF2
:1003C000816F46ECB6F084C07FF085C080F0000EEF
:1003D0000001816FE9ECB6F084C07FF085C080F049
:1003E000000E0001816FD6ECBAF084C07FF085C0AA
:1003F00080F0010E0001816FA3ECB5F0030E68ECF4
:100400009DF077EF85F0040EFB19D8A40AEF82F077
:100410000CEF82F034EF82F084C07FF085C080F072
:10042000000E816F46ECB6F084C07FF085C080F08E
:10043000000E0001816FE9ECB6F084C07FF085C04A
:1004400080F0010E0001816FD6ECBAF084C07FF01D
:1004500085C080F0000E0001816FA3ECB5F0030EA3
:1004600068EC9DF077EF85F0050EFB19D8A43BEF03
:1004700082F03DEF82F033EF81F084C07FF085C0E1
:1004800080F0000E816F46ECB6F084C07FF085C02E
:1004900080F0000E0001816FE9ECB6F084C07FF0BF
:1004A00085C080F0000E0001816FD6ECBAF084C0E8
:1004B0007FF085C080F0000E0001816FA3ECB5F0E5
:1004C0000001F95168EC9DF077EF85F0030EFA1901
:1004D000D8A46DEF82F06FEF82F017EF83F0020E79
:1004E000F8ECC7F00009D8B478EF82F07AEF82F028
:1004F0007EEF82F00001FB078BEF82F0030EF8EC39
:10050000C7F00009D8B487EF82F089EF82F08BEF53
:1005100082F00001FB2B030E0001FB19D8A493EF1E
:1005200082F095EF82F099EF82F0050EFB6FA4EF59
:1005300082F0040EFB19D8A4A0EF82F0A2EF82F0A3
:10054000A4EF82F0020EFB6FFB51D8A4AAEF82F059
:10055000ACEF82F0B0EF82F0050EFB6FBAEF82F0E5
:10056000050EFB65B6EF82F0B8EF82F0BAEF82F0CD
:10057000010EFB6FFB05D8A4C0EF82F0C2EF82F042
:10058000D8EF82F084C07FF085C080F0010E816FCB
:1005900000ECB5F084C07FF085C080F0000E000153
:1005A000816FC4ECB8F0030E68EC9DF077EF85F036
:1005B000020EFB19D8A4DFEF82F0E1EF82F0F7EF33
:1005C00082F084C07FF085C080F0000E816F00EC67
:1005D000B5F084C07FF085C080F0010E0001816F0E
:1005E000C4ECB8F0030E68EC9DF077EF85F0050ED3
:1005F000FB19D8A4FEEF82F000EF83F033EF81F017
:1006000084C07FF085C080F0000E816F00ECB5F0F3
:1006100084C07FF085C080F0000E0001816FC4ECC3
:10062000B8F00001F95168EC9DF077EF85F0040E09
:10063000FA19D8A41EEF83F020EF83F048EF84F07E
:10064000020EF8ECC7F00009D8B429EF83F02BEFC5
:1006500083F02FEF83F00001FB073CEF83F0030EE4
:10066000F8ECC7F00009D8B438EF83F03AEF83F024
:100670003CEF83F00001FB2B0001FB51D8A443EFBA
:1006800083F045EF83F049EF83F0050EFB6F53EFE6
:1006900083F0050EFB654FEF83F051EF83F053EFCE
:1006A00083F0010EFB6FFB05D8A459EF83F05BEFDD
:1006B00083F083EF83F084C07FF085C080F0010E6B
:1006C000816F52ECBAF084C07FF085C080F0000EDC
:1006D0000001816FCEECB9F084C07FF085C080F05E
:1006E000000E0001816F5BECB2F084C07FF085C02A
:1006F00080F0000E0001816F57ECB4F0030E68EC3F
:100700009DF077EF85F0020EFB19D8A48AEF83F0F5
:100710008CEF83F0B4EF83F084C07FF085C080F06D
:10072000000E816F52ECBAF084C07FF085C080F07B
:10073000010E0001816FCEECB9F084C07FF085C05E
:1007400080F0000E0001816F5BECB2F084C07FF09E
:1007500085C080F0000E0001816F57ECB4F0030EED
:1007600068EC9DF077EF85F0030EFB19D8A4BBEF82
:1007700083F0BDEF83F0E5EF83F084C07FF085C0A8
:1007800080F0000E816F52ECBAF084C07FF085C01B
:1007900080F0000E0001816FCEECB9F084C07FF0D4
:1007A00085C080F0010E0001816F5BECB2F084C067
:1007B0007FF085C080F0000E0001816F57ECB4F02F
:1007C000030E68EC9DF077EF85F0040EFB19D8A4BA
:1007D000ECEF83F0EEEF83F016EF84F084C07FF04F
:1007E00085C080F0000E816F52ECBAF084C07FF0BB
:1007F00085C080F0000E0001816FCEECB9F084C09E
:100800007FF085C080F0000E0001816F5BECB2F0DC
:1008100084C07FF085C080F0010E0001816F57EC2D
:10082000B4F0030E68EC9DF077EF85F0050EFB1930
:10083000D8A41DEF84F01FEF84F033EF81F084C063
:100840007FF085C080F0000E816F52ECBAF084C05A
:100850007FF085C080F0000E0001816FCEECB9F012
:1008600084C07FF085C080F0000E0001816F5BECDA
:10087000B2F084C07FF085C080F0000E0001816F6F
:1008800057ECB4F00001F95168EC9DF077EF85F07A
:10089000050EFA19D8A44FEF84F051EF84F077EFEA
:1008A00085F0020EF8ECC7F00009D8B45AEF84F0D6
:1008B0005CEF84F060EF84F00001FB076DEF84F0E3
:1008C000030EF8ECC7F00009D8B469EF84F06BEFC1
:1008D00084F06DEF84F00001FB2B0001FB51D8A4E4
:1008E00074EF84F076EF84F07AEF84F0050EFB6FFE
:1008F00084EF84F0050EFB6580EF84F082EF84F0D6
:1009000084EF84F0010EFB6FFB05D8A48AEF84F01E
:100910008CEF84F0B4EF84F084C07FF085C080F069
:10092000010E816FB1ECB1F084C07FF085C080F022
:10093000000E0001816FAEECB3F084C07FF085C083
:1009400080F0000E0001816F07ECB1F084C07FF0F1
:1009500085C080F0000E0001816F05ECB3F0030E3E
:1009600087ECA6F077EF85F0020EFB19D8A4BBEF59
:1009700084F0BDEF84F0E5EF84F084C07FF085C0A3
:1009800080F0000E816FB1ECB1F084C07FF085C0C3
:1009900080F0010E0001816FAEECB3F084C07FF0F7
:1009A00085C080F0000E0001816F07ECB1F084C0BB
:1009B0007FF085C080F0000E0001816F05ECB3F080
:1009C000030E87ECA6F077EF85F0030EFB19D8A491
:1009D000ECEF84F0EEEF84F016EF85F084C07FF04A
:1009E00085C080F0000E816FB1ECB1F084C07FF063
:1009F00085C080F0000E0001816FAEECB3F084C0C2
:100A00007FF085C080F0010E0001816F07ECB1F02E
:100A100084C07FF085C080F0000E0001816F05EC7E
:100A2000B3F0030E87ECA6F077EF85F0040EFB1908
:100A3000D8A41DEF85F01FEF85F047EF85F084C047
:100A40007FF085C080F0000E816FB1ECB1F084C002
:100A50007FF085C080F0000E0001816FAEECB3F036
:100A600084C07FF085C080F0000E0001816F07EC2C
:100A7000B1F084C07FF085C080F0010E0001816F6D
:100A800005ECB3F0030E87ECA6F077EF85F0050ECA
:100A9000FB19D8A44EEF85F050EF85F033EF81F0CD
:100AA00084C07FF085C080F0000E816FB1ECB1F0A2
:100AB00084C07FF085C080F0000E0001816FAEEC35
:100AC000B3F084C07FF085C080F0000E0001816F1C
:100AD00007ECB1F084C07FF085C080F0000E00010B
:100AE000816F05ECB3F00001F95187ECA6F0B3EC8F
:100AF000C4F012ECC6F0000EF8ECC7F00009D8A460
:100B000084EF85F086EF85F09AEF85F0010EF8EC22
:100B1000C7F00009D8A48FEF85F091EF85F09AEF28
:100B200085F00001F851D8A498EF85F09AEF85F090
:100B30006BEF98F0010E0001F86FFA51D8A4A3EF03
:100B400085F0A5EF85F0CDEF85F0FC05D8A4ABEFDF
:100B500085F0ADEF85F0B8EF85F0FC51ECECAEF030
:100B6000000E0001FC6F010E0001F96F67EF98F0B5
:100B7000FC51D8A4BEEF85F0C0EF85F067EF98F088
:100B8000FC51ECECAEF0010E0001FC6F000E000118
:100B9000F96F67EF98F067EF98F0FA05D8A4D3EFF4
:100BA00085F0D5EF85F01FEF88F0050EFB19D8A46E
:100BB000DCEF85F0DEEF85F002EF86F0020EFC1927
:100BC000D8A4E5EF85F0E7EF85F0F2EF85F0FC5172
:100BD000ABECA7F0000E0001FC6F020E0001F96FF4
:100BE00067EF98F0FC51D8A4F8EF85F0FAEF85F0A4
:100BF000CBEF85F0FC51ABECA7F0020E0001FC6FCF
:100C0000C6EF85F0FB05D8A408EF86F00AEF86F062
:100C1000ADEF86F018EF86F0010EF66F37EF86F035
:100C2000020EF66F37EF86F0030EF66F37EF86F0A1
:100C300020EE04F08451D9268551DA22DF50866FE8
:100C4000876B8751000AD8B428EF86F037EF86F01B
:100C50008651000AD8B40CEF86F0010AD8B410EF20
:100C600086F0030AD8B414EF86F037EF86F0010E51
:100C7000F8ECC7F00009D8B440EF86F042EF86F0F8
:100C800046EF86F00001F62B53EF86F0000EF8ECED
:100C9000C7F00009D8B44FEF86F051EF86F053EF5C
:100CA00086F00001F6070001F651D8A45AEF86F04D
:100CB0005CEF86F060EF86F0030EF66F8AEF86F049
:100CC000030EF66566EF86F068EF86F08AEF86F031
:100CD000010EF66F8AEF86F020EE04F08451D926DB
:100CE0008551DA22000EDF6EA3EF86F020EE04F0CD
:100CF0008451D9268551DA22010EDF6EA3EF86F0EA
:100D000020EE04F08451D9268551DA22020EDF6EDE
:100D1000A3EF86F0F651866F876B8751000AD8B42F
:100D200094EF86F0A3EF86F08651010AD8B46CEFF9
:100D300086F0030AD8B476EF86F0010AD8B480EFC3
:100D400086F0A3EF86F084C022F085C023F0010E68
:100D5000246E8CECB7F067EF98F0020EFB19D8A464
:100D6000B4EF86F0B6EF86F017EF87F0010EF8ECDF
:100D7000C7F00009D8B4BFEF86F0C1EF86F0CBEF23
:100D800086F0000120EE07F08451D9268551DA2241
:100D9000DF2ADEEF86F0000EF8ECC7F00009D8B4C9
:100DA000D4EF86F0D6EF86F0DEEF86F0000120EE7D
:100DB00007F08451D9268551DA22DF06000120EEA2
:100DC00007F08451D9268551DA22DF50D8A4EBEF01
:100DD00086F0EDEF86F0F7EF86F020EE07F0845115
:100DE000D9268551DA22050EDF6E0DEF87F020EE51
:100DF00007F08451D9268551DA22050EDF6403EF0E
:100E000087F005EF87F00DEF87F020EE07F08451B3
:100E1000D9268551DA22010EDF6E84C07FF085C0AD
:100E200080F0010E816F49ECB9F067EF98F0030E86
:100E3000FB19D8A41EEF87F020EF87F0C3EF87F0EF
:100E40002EEF87F0010EF66F4DEF87F0020EF66F72
:100E50004DEF87F0030EF66F4DEF87F020EE06F0B2
:100E60008451D9268551DA22DF50866F876B8751EE
:100E7000000AD8B43EEF87F04DEF87F08651000AA4
:100E8000D8B422EF87F0010AD8B426EF87F0030A1E
:100E9000D8B42AEF87F04DEF87F0010EF8ECC7F0D9
:100EA0000009D8B456EF87F058EF87F05CEF87F071
:100EB0000001F62B69EF87F0000EF8ECC7F000098F
:100EC000D8B465EF87F067EF87F069EF87F000012E
:100ED000F6070001F651D8A470EF87F072EF87F0A3
:100EE00076EF87F0030EF66FA0EF87F0030EF6653E
:100EF0007CEF87F07EEF87F0A0EF87F0010EF66FB2
:100F0000A0EF87F020EE06F08451D9268551DA2231
:100F1000000EDF6EB9EF87F020EE06F08451D9267F
:100F20008551DA22010EDF6EB9EF87F020EE06F070
:100F30008451D9268551DA22020EDF6EB9EF87F08F
:100F4000F651866F876B8751000AD8B4AAEF87F0F5
:100F5000B9EF87F08651010AD8B482EF87F0030A0F
:100F6000D8B48CEF87F0010AD8B496EF87F0B9EFC8
:100F700087F084C022F085C023F0010E246E28EC97
:100F8000B8F067EF98F0040EFB19D8A4CAEF87F009
:100F9000CCEF87F0CBEF85F0010EF8ECC7F000093D
:100FA000D8B4D5EF87F0D7EF87F0DEEF87F084C0B5
:100FB000D9FF85C0DAFFDF2AEEEF87F0000EF8ECEC
:100FC000C7F00009D8B4E7EF87F0E9EF87F0EEEF5C
:100FD00087F084C0D9FF85C0DAFFDF0684C0D9FF5F
:100FE00085C0DAFFDF50D8A4F8EF87F0FAEF87F07A
:100FF00002EF88F084C0D9FF85C0DAFF040EDF6EEF
:1010000014EF88F084C0D9FF85C0DAFF040EDF64D6
:101010000CEF88F00EEF88F014EF88F084C0D9FF51
:1010200085C0DAFF010EDF6E84C07FF085C080F0DE
:10103000010E0001816F5AECBBF067EF98F0020ED1
:10104000FA19D8A426EF88F028EF88F026EF8BF065
:10105000050EFB19D8A42FEF88F031EF88F0C2EF0E
:1010600088F0000EF8ECC7F00009D8B43AEF88F029
:101070003CEF88F040EF88F00001F7074DEF88F073
:10108000010EF8ECC7F00009D8B449EF88F04BEF37
:1010900088F04DEF88F00001F72B0001F751D8A43C
:1010A00054EF88F056EF88F05AEF88F0030EF76F90
:1010B00081EF88F0040EF719D8A461EF88F063EF90
:1010C00088F067EF88F0010EF76F81EF88F0040E6B
:1010D000F7656DEF88F06FEF88F073EF88F0020E20
:1010E000F76F81EF88F081EF88F0010EFC6F9AEFC7
:1010F00088F0000EFC6F9AEF88F0020EFC6F9AEFFA
:1011000088F0F751866F876B8751000AD8B48BEF50
:1011100088F09AEF88F08651010AD8B475EF88F00C
:10112000030AD8B479EF88F0010AD8B47DEF88F0CB
:101130009AEF88F0FC05D8A4A0EF88F0A2EF88F021
:10114000A7EF88F0FC5168EC9DF0B3EF85F0FC51FF
:10115000D8A4ADEF88F0AFEF88F0B4EF88F0FC5181
:1011600068EC9DF0C6EF85F0020EFC19D8A4BBEF29
:1011700088F0BDEF88F0CBEF85F0FC5168EC9DF076
:10118000EDEF85F0FB05D8A4C8EF88F0CAEF88F032
:1011900059EF89F0010EF8ECC7F00009D8B4D3EF8D
:1011A00088F0D5EF88F0F0EF88F0000120EE0CF029
:1011B0008451D9268551DA22DECF86F0DDCF87F043
:1011C000050E8627000E872320EE0CF08451D926C9
:1011D0008551DA2286C0DEFF87C0DDFF16EF89F079
:1011E000000EF8ECC7F00009D8B4F9EF88F0FBEF77
:1011F00088F016EF89F0000120EE0CF08451D9261A
:101200008551DA22DECF86F0DDCF87F0FB0E862512
:10121000886FFF0E8721896F20EE0CF08451D9264C
:101220008551DA2288C0DEFF89C0DDFF000120EE93
:101230000CF08451D9268551DA22990EDE5C010E1C
:10124000DE58D8B026EF89F028EF89F034EF89F026
:1012500020EE0CF08451D9268551DA22AE0EDE6ED6
:10126000010EDD6E4FEF89F020EE0CF08451D9268F
:101270008551DA22B00EDE5C010EDE58D8A043EFB5
:1012800089F045EF89F04FEF89F020EE0CF08451A2
:10129000D9268551DA229A0EDE6E010EDD6E84C0EB
:1012A0007FF085C080F0010E816F46ECB6F067EFED
:1012B00098F0020EFB19D8A460EF89F062EF89F074
:1012C000F2EF89F0010EF8ECC7F00009D8B46BEF2B
:1012D00089F06DEF89F088EF89F0000120EE18F0B9
:1012E0008451D9268551DA22DECF86F0DDCF87F012
:1012F000050E8627000E872320EE18F08451D9268C
:101300008551DA2286C0DEFF87C0DDFFAEEF89F0AF
:10131000000EF8ECC7F00009D8B491EF89F093EF14
:1013200089F0AEEF89F0000120EE18F08451D92643
:101330008551DA22DECF86F0DDCF87F0FB0E8625E1
:10134000886FFF0E8721896F20EE18F08451D9260F
:101350008551DA2288C0DEFF89C0DDFF000120EE62
:1013600018F08451D9268551DA22010EDB5007E1AD
:10137000F90EDE5CD8B0BFEF89F0C1EF89F0CDEF98
:1013800089F020EE18F08451D9268551DA22400EDA
:10139000DE6E010EDD6EE8EF89F020EE18F084516C
:1013A000D9268551DA22420EDE5C010EDE58D8A025
:1013B000DCEF89F0DEEF89F0E8EF89F020EE18F03D
:1013C0008451D9268551DA22FA0EDE6E000EDD6ECA
:1013D00084C07FF085C080F0010E816FE9ECB6F02B
:1013E00067EF98F0030EFB19D8A4F9EF89F0FBEF33
:1013F00089F08CEF8AF0010EF8ECC7F00009D8B440
:1014000004EF8AF006EF8AF021EF8AF0000120EE67
:1014100014F08451D9268551DA22DECF86F0DDCF53
:1014200087F0050E8627000E872320EE14F08451E6
:10143000D9268551DA2286C0DEFF87C0DDFF47EF5F
:101440008AF0000EF8ECC7F00009D8B42AEF8AF051
:101450002CEF8AF047EF8AF0000120EE14F084515F
:10146000D9268551DA22DECF86F0DDCF87F0FB0E5C
:101470008625886FFF0E8721896F20EE14F0845136
:10148000D9268551DA2288C0DEFF89C0DDFF000140
:1014900020EE14F08451D9268551DA22010EDB505A
:1014A00007E1B30EDE5CD8B058EF8AF05AEF8AF04D
:1014B00066EF8AF020EE14F08451D9268551DA22A5
:1014C000FA0EDE6E000EDD6E82EF8AF020EE14F072
:1014D0008451D9268551DA22010EDB5009E1FC0E38
:1014E000DE5CD8A076EF8AF078EF8AF082EF8AF09F
:1014F00020EE14F08451D9268551DA22B40EDE6E26
:10150000000EDD6E84C07FF085C080F0010E816F1B
:10151000A3ECB5F067EF98F0040EFB19D8A493EF95
:101520008AF095EF8AF0CBEF85F0010EF8ECC7F06A
:101530000009D8B49EEF8AF0A0EF8AF0BBEF8AF0E2
:10154000000120EE16F08451D9268551DA22DECF33
:1015500086F0DDCF87F0050E8627000E872320EE6C
:1015600016F08451D9268551DA2286C0DEFF87C065
:10157000DDFFE1EF8AF0000EF8ECC7F00009D8B407
:10158000C4EF8AF0C6EF8AF0E1EF8AF0000120EEA6
:1015900016F08451D9268551DA22DECF86F0DDCFD0
:1015A00087F0FB0E8625886FFF0E8721896F20EE5E
:1015B00016F08451D9268551DA2288C0DEFF89C011
:1015C000DDFF000120EE16F08451D9268551DA2284
:1015D000010EDB5007E1040EDE5CD8B0F2EF8AF0BA
:1015E000F4EF8AF000EF8BF020EE16F08451D9264C
:1015F0008551DA22320EDE6E000EDD6E1CEF8BF0AE
:1016000020EE16F08451D9268551DA22010EDB50E6
:1016100009E1340EDE5CD8A010EF8BF012EF8BF0F6
:101620001CEF8BF020EE16F08451D9268551DA227A
:10163000050EDE6E000EDD6E84C07FF085C080F08A
:10164000010E816FD6ECBAF067EF98F0030EFA192D
:10165000D8A42DEF8BF02FEF8BF0DBEF8CF0050E85
:10166000FB19D8A436EF8BF038EF8BF0C9EF8BF075
:10167000000EF8ECC7F00009D8B441EF8BF043EF4F
:101680008BF047EF8BF00001F70754EF8BF0010E62
:10169000F8ECC7F00009D8B450EF8BF052EF8BF0A4
:1016A00054EF8BF00001F72B0001F751D8A45BEF4A
:1016B0008BF05DEF8BF061EF8BF0030EF76F88EF2F
:1016C0008BF0040EF719D8A468EF8BF06AEF8BF05B
:1016D0006EEF8BF0010EF76F88EF8BF0040EF7655D
:1016E00074EF8BF076EF8BF07AEF8BF0020EF76FE2
:1016F00088EF8BF088EF8BF0010EFC6FA1EF8BF081
:10170000000EFC6FA1EF8BF0020EFC6FA1EF8BF0CF
:10171000F751866F876B8751000AD8B492EF8BF030
:10172000A1EF8BF08651010AD8B47CEF8BF0030A4D
:10173000D8B480EF8BF0010AD8B484EF8BF0A1EF1E
:101740008BF0FC05D8A4A7EF8BF0A9EF8BF0AEEFE0
:101750008BF0FC5168EC9DF0B3EF85F0FC51D8A400
:10176000B4EF8BF0B6EF8BF0BBEF8BF0FC5168EC75
:101770009DF0C6EF85F0020EFC19D8A4C2EF8BF0E5
:10178000C4EF8BF0CBEF85F0FC5168EC9DF0EDEFF2
:1017900085F0FB05D8A4CFEF8BF0D1EF8BF061EF94
:1017A0008CF0010EF8ECC7F00009D8B4DAEF8BF03A
:1017B000DCEF8BF0F7EF8BF0000120EE38F0845176
:1017C000D9268551DA22DECF86F0DDCF87F01E0ED6
:1017D0008627000E872320EE38F08451D9268551C4
:1017E000DA2286C0DEFF87C0DDFF1DEF8CF0000E21
:1017F000F8ECC7F00009D8B400EF8CF002EF8CF0E1
:101800001DEF8CF0000120EE38F08451D92685516F
:10181000DA22DECF86F0DDCF87F0E20E8625886FF4
:10182000FF0E8721896F20EE38F08451D92685512B
:10183000DA2288C0DEFF89C0DDFF000120EE38F02B
:101840008451D9268551DA22010EDB5007E13C0E86
:10185000DE5CD8B02EEF8CF030EF8CF03CEF8CF0EB
:1018600020EE38F08451D9268551DA22400EDE6E02
:101870000B0EDD6E57EF8CF020EE38F08451D92638
:101880008551DA22410EDE5C0B0EDE58D8A04BEFFC
:101890008CF04DEF8CF057EF8CF020EE38F0845147
:1018A000D9268551DA223C0EDE6E000EDD6E84C034
:1018B0007FF085C080F0010E816F00ECB5F067EF1E
:1018C00098F0020EFB19D8A468EF8CF06AEF8CF048
:1018D000CBEF85F0010EF8ECC7F00009D8B473EF38
:1018E0008CF075EF8CF087EF8CF0000120EE03F0A8
:1018F0008451D9268551DA2210EE03F08451E12675
:101900008551E222E750050FDF6EA2EF8CF0000E4A
:10191000F8ECC7F00009D8B490EF8CF092EF8CF09F
:10192000A2EF8CF0000120EE03F08451D9268551FE
:10193000DA2210EE03F08451E1268551E222E750CD
:10194000FB0FDF6E000120EE03F08451D926855194
:10195000DA22040EDF60AFEF8CF0B1EF8CF0BBEF5A
:101960008CF020EE03F08451D9268551DA222D0E19
:10197000DF6ED1EF8CF020EE03F08451D926855133
:10198000DA222E0EDF64C7EF8CF0C9EF8CF0D1EFB6
:101990008CF020EE03F08451D9268551DA22050E11
:1019A000DF6E84C07FF085C080F0010E816FC4ECD3
:1019B000B8F067EF98F0040EFA19D8A4E2EF8CF0B3
:1019C000E4EF8CF03AEF92F0050EFB19D8A4EBEFA0
:1019D0008CF0EDEF8CF087EF8DF0000EF8ECC7F097
:1019E0000009D8B4F6EF8CF0F8EF8CF0FCEF8CF037
:1019F0000001F70709EF8DF0010EF8ECC7F00009C0
:101A0000D8B405EF8DF007EF8DF009EF8DF00001F0
:101A1000F72B0001F751D8A410EF8DF012EF8DF0E5
:101A200016EF8DF0030EF76F3DEF8DF0040EF719F2
:101A3000D8A41DEF8DF01FEF8DF023EF8DF0010E78
:101A4000F76F3DEF8DF0040EF76529EF8DF02BEF6A
:101A50008DF02FEF8DF0020EF76F3DEF8DF03DEF23
:101A60008DF0010EFC6F56EF8DF0000EFC6F56EFFF
:101A70008DF0020EFC6F56EF8DF0F751866F876B7D
:101A80008751000AD8B447EF8DF056EF8DF086519C
:101A9000010AD8B431EF8DF0030AD8B435EF8DF0D8
:101AA000010AD8B439EF8DF056EF8DF0FC05D8A4BB
:101AB0005CEF8DF05EEF8DF066EF8DF0FC5168EC21
:101AC0009DF0010E0001F96F87EF8DF0FC51D8A455
:101AD0006CEF8DF06EEF8DF076EF8DF0FC5168ECD1
:101AE0009DF0000E0001F96F87EF8DF0020EFC19DA
:101AF000D8A47DEF8DF07FEF8DF087EF8DF0FC5156
:101B000068EC9DF0020E0001F96F87EF8DF0FB0588
:101B1000D8A48DEF8DF08FEF8DF060EF8EF020EE7A
:101B200022F08451D9268551DA22E80EDE5C030EBC
:101B3000DE58D8A09EEF8DF0A0EF8DF0A6EF8DF0CF
:101B4000000E8B6F640E8A6FD4EF8DF020EE22F0C2
:101B50008451D9268551DA22010EDB5009E1640E49
:101B6000DE5CD8A0B6EF8DF0B8EF8DF0BEEF8DF053
:101B7000000E8B6F320E8A6FD4EF8DF020EE22F0C4
:101B80008451D9268551DA22010EDB5007E1640E1B
:101B9000DE5CD8B0CEEF8DF0D0EF8DF0D4EF8DF0CD
:101BA000000E8B6F0A0E8A6F010EF8ECC7F0000969
:101BB000D8B4DDEF8DF0DFEF8DF0FAEF8DF000019E
:101BC00020EE22F08451D9268551DA22DECF86F02C
:101BD000DDCF87F08A5186278B51872320EE22F0B4
:101BE0008451D9268551DA2286C0DEFF87C0DDFF09
:101BF0001EEF8EF0000EF8ECC7F00009D8B403EF2A
:101C00008EF005EF8EF01EEF8EF0000120EE22F038
:101C10008451D9268551DA22DECF86F0DDCF87F0D8
:101C20008A51865F8B51875B20EE22F08451D92642
:101C30008551DA2286C0DEFF87C0DDFF000120EE7D
:101C400022F08451D9268551DA22010EDB5007E1BA
:101C50000A0EDE5CD8B02FEF8EF031EF8EF03DEF44
:101C60008EF020EE22F08451D9268551DA22B80E6A
:101C7000DE6E0B0EDD6E58EF8EF020EE22F08451FA
:101C8000D9268551DA22B90EDE5C0B0EDE58D8A0BB
:101C90004CEF8EF04EEF8EF058EF8EF020EE22F0EB
:101CA0008451D9268551DA220A0EDE6E000EDD6ED1
:101CB00084C07FF085C080F0010E816F52ECBAF0D5
:101CC000020E0001FB19D8A468EF8EF06AEF8EF0C7
:101CD0003BEF8FF020EE24F08451D9268551DA2293
:101CE000E80EDE5C030EDE58D8A079EF8EF07BEFB5
:101CF0008EF081EF8EF0000E8B6F640E8A6FAFEF67
:101D00008EF020EE24F08451D9268551DA22010E7E
:101D1000DB5009E1640EDE5CD8A091EF8EF093EF0A
:101D20008EF099EF8EF0000E8B6F320E8A6FAFEF50
:101D30008EF020EE24F08451D9268551DA22010E4E
:101D4000DB5007E1640EDE5CD8B0A9EF8EF0ABEF9C
:101D50008EF0AFEF8EF0000E8B6F0A0E8A6F010EC1
:101D6000F8ECC7F00009D8B4B8EF8EF0BAEF8EF0F7
:101D7000D5EF8EF0000120EE24F08451D926855154
:101D8000DA22DECF86F0DDCF87F08A5186278B51AD
:101D9000872320EE24F08451D9268551DA2286C08B
:101DA000DEFF87C0DDFFF9EF8EF0000EF8ECC7F024
:101DB0000009D8B4DEEF8EF0E0EF8EF0F9EF8EF090
:101DC000000120EE24F08451D9268551DA22DECF9D
:101DD00086F0DDCF87F08A51865F8B51875B20EEDE
:101DE00024F08451D9268551DA2286C0DEFF87C0CF
:101DF000DDFF000120EE24F08451D9268551DA223E
:101E0000010EDB5007E10A0EDE5CD8B00AEF8FF05E
:101E10000CEF8FF018EF8FF020EE24F08451D926CC
:101E20008551DA22B80EDE6E0B0EDD6E33EF8FF0C9
:101E300020EE24F08451D9268551DA22B90EDE5CD9
:101E40000B0EDE58D8A027EF8FF029EF8FF033EF7D
:101E50008FF020EE24F08451D9268551DA220A0E23
:101E6000DE6E000EDD6E84C07FF085C080F0010E56
:101E7000816FCEECB9F0030E0001FB19D8A443EF3B
:101E80008FF045EF8FF0A8EF90F020EE0BF084512B
:101E9000D9268551DA22DFA050EF8FF052EF8FF074
:101EA0000BEF90F020EE26F08451D9268551DA22EE
:101EB000E80EDE5C030EDE58D8A061EF8FF063EF12
:101EC0008FF069EF8FF0000E8B6F640E8A6F85EFD5
:101ED0008FF020EE26F08451D9268551DA22010EAA
:101EE000DB5009E1640EDE5CD8A079EF8FF07BEF68
:101EF0008FF081EF8FF0000E8B6F320E8A6F85EFBF
:101F00008FF0000E8B6F0A0E8A6F010EF8ECC7F08F
:101F10000009D8B48EEF8FF090EF8FF0ABEF8FF019
:101F2000000120EE26F08451D9268551DA22DECF39
:101F300086F0DDCF87F08A5186278B51872320EEEC
:101F400026F08451D9268551DA2286C0DEFF87C06B
:101F5000DDFFCFEF8FF0000EF8ECC7F00009D8B42A
:101F6000B4EF8FF0B6EF8FF0CFEF8FF0000120EEDF
:101F700026F08451D9268551DA22DECF86F0DDCFD6
:101F800087F08A51865F8B51875B20EE26F0845163
:101F9000D9268551DA2286C0DEFF87C0DDFF000129
:101FA00020EE26F08451D9268551DA22010EDB502D
:101FB00007E10A0EDE5CD8B0E0EF8FF0E2EF8FF0C1
:101FC000EEEF8FF020EE26F08451D9268551DA22EB
:101FD000B80EDE6E0B0EDD6EA0EF90F020EE26F058
:101FE0008451D9268551DA22B90EDE5C0B0EDE58FB
:101FF000D8A0FDEF8FF0FFEF8FF0A0EF90F020EE74
:1020000026F08451D9268551DA220A0EDE6E000EA2
:10201000DD6EA0EF90F020EE08F08451D9268551B6
:10202000DA22310EDF6417EF90F019EF90F01FEF16
:1020300090F0000E8B6F0A0E8A6F37EF90F020EE53
:1020400008F08451D9268551DA22090EDF642BEF7E
:1020500090F02DEF90F033EF90F0000E8B6F050EA7
:102060008A6F37EF90F0000E8B6F010E8A6F010EB2
:10207000F8ECC7F00009D8B440EF90F042EF90F0D0
:1020800054EF90F0000120EE08F08451D9268551DC
:10209000DA2210EE08F08451E1268551E222E75061
:1020A0008A25DF6E71EF90F0000EF8ECC7F00009A2
:1020B000D8B45DEF90F05FEF90F071EF90F0000119
:1020C00020EE08F08451D9268551DA2210EE08F06E
:1020D0008451E1268551E222E750866F8A51865D60
:1020E000DF6E000120EE08F08451D9268551DA22F6
:1020F000DF50D8A47EEF90F080EF90F08AEF90F060
:1021000020EE08F08451D9268551DA22640EDF6E64
:10211000A0EF90F020EE08F08451D9268551DA2204
:10212000640EDF6496EF90F098EF90F0A0EF90F0DF
:1021300020EE08F08451D9268551DA22010EDF6E97
:1021400084C07FF085C080F0010E816F5BECB2F03F
:10215000040E0001FB19D8A4B0EF90F0B2EF90F09C
:1021600067EF98F020EE0BF08451D9268551DA22E2
:10217000DFA2BDEF90F0BFEF90F078EF91F020EE8E
:1021800028F08451D9268551DA22E80EDE5C030E50
:10219000DE58D8A0CEEF90F0D0EF90F0D6EF90F0D0
:1021A000000E8B6F640E8A6FF2EF90F020EE28F035
:1021B0008451D9268551DA22010EDB5009E1640EE3
:1021C000DE5CD8A0E6EF90F0E8EF90F0EEEF90F054
:1021D000000E8B6F320E8A6FF2EF90F0000E8B6F55
:1021E0000A0E8A6F010EF8ECC7F00009D8B4FBEFB5
:1021F00090F0FDEF90F018EF91F0000120EE28F044
:102200008451D9268551DA22DECF86F0DDCF87F0E2
:102210008A5186278B51872320EE28F08451D926B6
:102220008551DA2286C0DEFF87C0DDFF3CEF91F0EA
:10223000000EF8ECC7F00009D8B421EF91F023EFBD
:1022400091F03CEF91F0000120EE28F08451D92666
:102250008551DA22DECF86F0DDCF87F08A51865FA6
:102260008B51875B20EE28F08451D9268551DA22E4
:1022700086C0DEFF87C0DDFF000120EE28F084511C
:10228000D9268551DA22010EDB5007E10A0EDE5C09
:10229000D8B04DEF91F04FEF91F05BEF91F020EE61
:1022A00028F08451D9268551DA22B80EDE6E0B0E45
:1022B000DD6E30EF92F020EE28F08451D926855162
:1022C000DA22B90EDE5C0B0EDE58D8A06AEF91F070
:1022D0006CEF91F030EF92F020EE28F08451D92687
:1022E0008551DA220A0EDE6E000EDD6E30EF92F0BE
:1022F00020EE36F08451D9268551DA22010EDB50CA
:1023000009E1320EDE5CD8A088EF91F08AEF91F0FF
:1023100090EF91F0000E8B6F0A0E8A6FACEF91F088
:1023200020EE36F08451D9268551DA22010EDB5099
:1023300009E10A0EDE5CD8A0A0EF91F0A2EF91F0C7
:10234000A8EF91F0000E8B6F050E8A6FACEF91F045
:10235000000E8B6F010E8A6F010EF8ECC7F00009BA
:10236000D8B4B5EF91F0B7EF91F0D2EF91F0000152
:1023700020EE36F08451D9268551DA22DECF86F060
:10238000DDCF87F08A5186278B51872320EE36F0E8
:102390008451D9268551DA2286C0DEFF87C0DDFF51
