:0400000031EF00F0EC
:100008005F82F2A40AEF00F00CEF00F02FEF00F08F
:10001800FD0ED76E110ED66E0001D74BD82BD54BDF
:10002800D62B0201E04BE12BE80E0001D55D030E53
:10003800D659D8A022EF00F024EF00F02EEF00F000
:10004800000ED66F000ED56F010ECF27000ED023FD
:0E005800D123D223F2945F921100EFEFD1F08A
:10C87A00004361703A3534306D4168004379636C26
:10C88A00653A322F34004375723A3233306D4100C3
:10C89A00566F6C3A332C333556000E0000000000F8
:10C8AA00000000000000000000000000000000007E
:10C8BA00000000000000000000000000000000006E
:10C8CA00000000000000000000000000000000005E
:10C8DA00000000000000000000000000000000004E
:10C8EA00000000000000000000000000000000003E
:10C8FA00000000000000000000000000000000002E
:10C90A000000000000000005000000000000000018
:10C91A00FC7F0E00FC7F0F00FC7F07000000000078
:10C92A0000000000000000000000000000000000FD
:10C93A0000000000000000000000000000000000ED
:10C94A0000000000000000000000000000000000DD
:10C95A0000000000000000000000000000000000CD
:10C96A0000000000000000000000000000000000BD
:10C97A0000000000090000000000000000FC0100A7
:10C98A0000FC0100000000000000000000000000A0
:10C99A0000FC010000FC0100000000000000000093
:10C9AA00000000000000000000000000000000007D
:10C9BA00000000000000000000000000000000006D
:10C9CA00000000000000000000000000000000005D
:10C9DA00000000000000000000000000000000004D
:10C9EA00001100000000006000008061000080610A
:10C9FA000C0080E10F0080FD0F00807F0000F86FBF
:10CA0A000000FC610C008CE10F0080FD0F00807FAC
:10CA1A000000F86F0000FC6100008C6100008021BA
:10CA2A00000080010000000000000000000000007B
:10CA3A0000000000000000000000000000000000EC
:10CA4A0000000000000000000000000000001100CB
:10CA5A0000000000830100C0C70300E08F030070DC
:10CA6A000C0700300C0600180C060018040600FF1C
:10CA7A00FF7F00FEFF3F0018060600180603001895
:10CA8A000603003886030070FE010070FC000000F7
:10CA9A007800000000000000000000000000000014
:10CAAA00000000000000000000000000000000007C
:10CABA000000000000000000000000150000000057
:10CACA00E0000000F0010000F80300001C0304006D
:10CADA000C030E008C830F00FCC10300F8F0000069
:10CAEA00707C0000001E000080070300E08307003E
:10CAFA00F0C00F003CC00C001C600C0008600C0069
:10CB0A000060060000E0070000C00300008001008A
:10CB1A00000000000000000000000000000000000B
:10CB2A000000000000000000160000000000E00302
:10CB3A000000F0070000F80700701C0E00F80E0C49
:10CB4A0000F80F0C00DC070C008C070C000C0F0C13
:10CB5A00000C1F06008C1F0600CC390700F8710371
:10CB6A0000F8F0030070E0010000E0010000F803A3
:10CB7A0000003C070000180E0000000E000000072D
:10CB8A00000000000000000000000000000000009B
:10CB9A000000000000040000000000000000FC018A
:10CBAA000000FC010000000000000000000000007E
:10CBBA00000000000000000000000000000000006B
:10CBCA00000000000000000000000000000000005B
:10CBDA00000000000000000000000000000000004B
:10CBEA00000000000000000000000000000000003B
:10CBFA00000000000000000000000000000000002B
:10CC0A0000000B000000000000000000FC03000010
:10CC1A00FF1F00C0FF3F00E003FC00F000E0013806
:10CC2A0000C0013C0080031C0080030800000000D3
:10CC3A0000000000000000000000000000000000EA
:10CC4A0000000000000000000000000000000000DA
:10CC5A0000000000000000000000000000000000CA
:10CC6A000000000000000000000000000000000AB0
:10CC7A0000000000080000001C0080033C00800344
:10CC8A003800C001F000F001E003FC00C0FF3F00E3
:10CC9A0000FF1F0000FC030000000000000000006D
:10CCAA00000000000000000000000000000000007A
:10CCBA00000000000000000000000000000000006A
:10CCCA00000000000000000000000000000000005A
:10CCDA000000000000000000000000000A00000040
:10CCEA0000C0000000C00000004C020000D8030091
:10CCFA0000F0010000FC000000AC0100003003005D
:10CD0A0000300000000000000000000000000000E9
:10CD1A000000000000000000000000000000000009
:10CD2A0000000000000000000000000000000000F9
:10CD3A0000000000000000000000000000000000E9
:10CD4A000000000000000000000E0000000000408B
:10CD5A000000006000000060000000600000006049
:10CD6A00000000FF0F0000FF0F0000FF0F0000602F
:10CD7A000000006000000060000000600000006029
:10CD8A000000000000000000000000000000000099
:10CD9A000000000000000000000000000000000089
:10CDAA000000000000000000000000000000000079
:10CDBA0000000000000005000000000000660000FE
:10CDCA00006F0000003F0000001E0000000000008D
:10CDDA000000000000000000000000000000000049
:10CDEA000000000000000000000000000000000039
:10CDFA000000000000000000000000000000000029
:10CE0A000000000000000000000000000000000018
:10CE1A000000000000000000000000000000000008
:10CE2A000000000A0000000000300000007000004E
:10CE3A000030000000300000003000000030000028
:10CE4A000030000000300000003000000000000048
:10CE5A0000000000000000000000000000000000C8
:10CE6A0000000000000000000000000000000000B8
:10CE7A0000000000000000000000000000000000A8
:10CE8A000000000000000000000000000000000098
:10CE9A0005000000000000000000000E0000000F66
:10CEAA000000000700000000000000000000000071
:10CEBA000000000000000000000000000000000068
:10CECA000000000000000000000000000000000058
:10CEDA000000000000000000000000000000000048
:10CEEA000000000000000000000000000000000038
:10CEFA00000000000000000000000000000B00001D
:10CF0A0000000000040000000F0000C00F0000F83D
:10CF1A000100007E0000801F0000E0070000FC0105
:10CF2A0000007C0000001C0000000000000000005F
:10CF3A0000000000000000000000000000000000E7
:10CF4A0000000000000000000000000000000000D7
:10CF5A0000000000000000000000000000000000C7
:10CF6A0000000000000000000000160000000000A1
:10CF7A00F8010000FF030080FF0700C0030700E07C
:10CF8A00010E0070000C0030000C0038000C001874
:10CF9A00000C0008000C000C000C000C0006000C31
:10CFAA000006000C0007000C0003001C8003001898
:10CFBA00C0010038F00000F07F0000E03F0000C030
:10CFCA000F00000000000000000000000000000048
:10CFDA000000000000000010000000000000000037
:10CFEA0000000000000000000001000080030000B3
:10CFFA00C0030000C0010000E0000000E0000000E3
:10D00A00700000007000000038000000F8FF0F00F8
:10D01A00FCFF0F00FCFF0F000000000000000000F2
:10D02A0000000000000000000000000000000000F6
:10D03A0000000000000000000000000000000000E6
:10D04A0000000000140000000000000000000000C2
:10D05A0000E0000E00E0000F00F0C00F0038E00D05
:10D06A000018E00C0018700C000C300C000C380C86
:10D07A00000C380C000C1C0C000C1C0C000C0C0CCA
:10D08A00000C0E0C00180F0C00F8070E00F8030F26
:10D09A0000E0010E00000000000000000000000097
:10D0AA000000000000000000000000000000000076
:10D0BA000015000000000000000000C003007CC052
:10D0CA0007007CC007007C000E000C000C000C005E
:10D0DA000C000C0E0C000C060C000C070C000C07C4
:10D0EA000C008C030C00CC030600EC0306007C0346
:10D0FA0006003C0303001CC703000CFE010000FEEF
:10D10A000000007C00000000000000000000000099
:10D11A0000000000000000000000000000001600EF
:10D12A00C0000000E0000000F0000000F80000006D
:10D13A00F8000000FC000000EE000000670000801C
:10D14A00630000C0610000E0600000706000003809
:10D15A00700000FCFF0F00FCFF0F00FCFF0F000037
:10D16A0030000000300000003000000038000000ED
:10D17A003800000038000000000000000000000035
:10D18A000000000000000000000000150000000080
:10D19A000000000000080300F81F0700F81F07003E
:10D1AA00F80D0E00080E0C0008060C0008060C000C
:10D1BA0008020C0008030C0008030C0008030C000A
:10D1CA00080306000C0306000C0307000C07030003
:10D1DA000CC603000CFE010000FC000000780000F1
:10D1EA000000000000000000000000000000000035
:10D1FA000000000000000000160000000000780097
:10D20A000000FE030080FF0300C0C70700E0E1073B
:10D21A000060700E0070300C0038380C00181C0CBE
:10D22A0000180C0C000C0C0C000C060C000C060E62
:10D23A00000C0606000C0606000C0607000C060386
:10D24A0000388E030078FC010030FC0000007800F2
:10D25A0000000000000000000000000000000000C4
:10D26A00000000000016000000000000000000009E
:10D27A000000F8010000FC010000FC0000000C00A6
:10D28A0000000C0000000C0000000C000E000C80D6
:10D29A000F000CE007000CF001000CFC00000C3E33
:10D2AA0000008C1F0000EC070000FC030000FC00DB
:10D2BA0000003C0000000C00000004000000000018
:10D2CA000000000000000000000000000000000054
:10D2DA000000160000000000C0010000E00300008A
:10D2EA00F00700C0790600F03B0E00F81F0C00386A
:10D2FA000E0C00180C0C001C0C0C000C060C000C7C
:10D30A00060C000C0606000C0606000C0606001C9D
:10D31A00070300F8070300F886030070CE01000037
:10D32A00FC000000FC0000003800000000000000C3
:10D33A0000000000000000000000000000000016CD
:10D34A00000000000000010080830300E08707005E
:10D35A00F00F0700700C0E00381C0C0018180C0097
:10D36A001C180C000C180C000C180C000C180C00E3
:10D37A000C1804000C0C06000C0C06001C0C070010
:10D38A001886030038C70300F0E30100F0FF00002D
:10D39A00E07F0000001F0000000000000000000005
:10D3AA00000000000000000000000000050000006E
:10D3BA000000000000000C0E00001E0F00000C0709
:10D3CA000000000000000000000000000000000053
:10D3DA000000000000000000000000000000000043
:10D3EA000000000000000000000000000000000033
:10D3FA000000000000000000000000000000000023
:10D40A000000000000000000000000000000000012
:10D41A0000000000000000000005000000000000FD
:10D42A006600000C6F00001E3F00000E1E00000088
:10D43A0000000000000000000000000000000000E2
:10D44A0000000000000000000000000000000000D2
:10D45A0000000000000000000000000000000000C2
:10D46A0000000000000000000000000000000000B2
:10D47A0000000000000000000000000000000000A2
:10D48A000000000000000D00000000000000000085
:10D49A006000000070000000F0000000F8010000C9
:10D4AA00D80100009C0300000C0300000E070000D6
:10D4BA00070E0000070E0000020200000000000034
:10D4CA000000000000000000000000000000000052
:10D4DA000000000000000000000000000000000042
:10D4EA000000000000000000000000000000000032
:10D4FA000000000D00000000008C0100008C0100FB
:10D50A00008C0100008C0100008C0100008C0100DD
:10D51A00008C0100008C0100008C0100008C0100CD
:10D52A00008C0100008C01000000000000000000D7
:10D53A0000000000000000000000000000000000E1
:10D54A0000000000000000000000000000000000D1
:10D55A0000000000000000000000000000000000C1
:10D56A000D00000000000000000002020000070E8B
:10D57A000000070E00000E0700000C0300009C03C9
:10D58A000000D8010000F8010000F000000070005F
:10D59A000000600000000000000000000000000021
:10D5AA000000000000000000000000000000000071
:10D5BA000000000000000000000000000000000061
:10D5CA000000000000000000000000000010000041
:10D5DA0000002000000070000000F00000007870D9
:10D5EA00000018F8000018FC1C000CDC1E000CCE11
:10D5FA000E000CC700000CF700008C730000DC2141
:10D60A000000F8010000F8000000700000000000AF
:10D61A000000000000000000000000000000000000
:10D62A0000000000000000000000000000000000F0
:10D63A00000000000000000000001B0000000000C5
:10D64A0080070000E01F0000783800001C3000004E
:10D65A000E70000006670000C3670080E36F008059
:10D66A00716C0080396C00C0186C00C00C6600C078
:10D67A000C36006004330060863B0060861100604F
:10D68A00C6070060FE0F0060FE0F00600E0C00600F
:10D69A00000C00C0000600C00106008083030000E1
:10D6AA00FF0100007C00001500000E0000800F0042
:10D6BA0000C00F0000F0010000780000003E0000EA
:10D6CA00001F0000801F0000E01B0000F818000087
:10D6DA007C1800007C180000F8180000E01B00000D
:10D6EA00801F0000001F0000007C000000F80100FD
:10D6FA0000E00F0000800F0000000E000000000094
:10D70A00000000000000000000000000000000000F
:10D71A0000000000150000000000000000F8FF0FE4
:10D72A0000FCFF0F00F8FF0F0018060C0018060C8B
:10D73A000018070C000C0704000C0306000C030673
:10D74A00008C0306008C030700CC030300CC030300
:10D75A0000FC83030078C3010038E7010000FE00E3
:10D76A0000007E0000001C00000000000000000015
:10D77A00000000000000000000000000000000009F
:10D78A00001200000000007C000000FF0100C0FF42
:10D79A000700E0830700F0000E0030000E0038009A
:10D7AA000C0018000C000C000C000C000C000C0003
:10D7BA000C000C0006000C0007000C00070018C043
:10D7CA00030038C0010038C001000000000000005A
:10D7DA00000000000000000000000000000000003F
:10D7EA00000000000000000000000000000015001A
:10D7FA0000000000000000FCFF0F00FCFF0F00FC0F
:10D80A00FF0F0038000C0018000C0018000C001C58
:10D81A000006000C0006000C0006000C0007000CB5
:10D82A000003000C8003000C8003001CC0010018D8
:10D83A00E0010078F80000F07F0000E01F0000C05F
:10D84A0007000000000000000000000000000000C7
:10D85A0000000000000000000000001300000000AB
:10D86A0010000000FCFF0F00FCFF0F00FCFF0F0080
:10D87A00180C0600180C0600180C0600180C0600F6
:10D88A00180C0600180C0600180C0600180C0600E6
:10D89A00180E06001C0E06001C0406001C000700D9
:10D8AA000000070000000200000000000000000065
:10D8BA00000000000000000000000000000000005E
:10D8CA00000000000000000011000000000000003D
:10D8DA0000F8FF0F00FCFF0F00FCFF0F00381C00D0
:10D8EA0000381C0000380C0000180C0000180C004E
:10D8FA0000180C0000180C0000180E00001C0E0086
:10D90A00001C0E00001C0E00001C0000000000009D
:10D91A0000000000000000000000000000000000FD
:10D92A0000000000000000000000000000000000ED
:10D93A000000000000170000000000F8000000FED0
:10D94A00010080FF0300C0870700E0010600E00035
:10D95A000E0070000C0030000C0038000C0018009B
:10D96A000C0018000C000C100C000C1806000C1807
:10D97A0006000C1806000C1803000C9803001CCCB7
:10D98A00010018EC010038FC0000107C0000001CAB
:10D99A00000000000000000000000000000000007D
:10D9AA0000001400000000000C0000FCFF0F00FC47
:10D9BA00FF0F00FCFF0F00000E0000000E00000029
:10D9CA000E0000000E0000000E0000000E00000015
:10D9DA000E0000000600000006000000060000001D
:10D9EA0006000000060000FCFF0F00FCFF0F00FC11
:10D9FA00FF0F00000000000000000000000000000F
:10DA0A000000000000000000000000000000000507
:10DA1A000000000000000000FCFF0F00FCFF0F00E8
:10DA2A00FCFF0F00000000000000000000000000E2
:10DA3A0000000000000000000000000000000000DC
:10DA4A0000000000000000000000000000000000CC
:10DA5A0000000000000000000000000000000000BC
:10DA6A0000000000000000000000000000000000AC
:10DA7A00000000000000000000000000100000008C
:10DA8A00000080030000C0070000C00F0000001C57
:10DA9A00000000180000001800000018000000181C
:10DAAA00000000180000001C0000000E0000000F1B
:10DABA0000FCFF0700FCFF0300FCFF010000000060
:10DACA00000000000000000000000000000000004C
:10DADA00000000000000000000000000000000003C
:10DAEA000000000000000000001300000000000019
:10DAFA000000FCFF0F00FCFF0F00FCFF0F00800F6F
:10DB0A000000800F0000C01D0000E0380000E0782F
:10DB1A0000007070000030E0000038C0010018C03A
:10DB2A0003000C8003000C00070000000E00000038
:10DB3A000E000000040000000000000000000000C9
:10DB4A0000000000000000000000000000000000CB
:10DB5A000000000000000F0000000000000000FCB0
:10DB6A00FF0F00FCFF0F00FCFF0F0000000E00007B
:10DB7A00000E00000006000000060000000600007B
:10DB8A000006000000070000000700000007000070
:10DB9A000007000000000000000000000000000074
:10DBAA00000000000000000000000000000000006B
:10DBBA00000000000000000000000000000000005B
:10DBCA00000000190000000000000000F8FF0F002C
:10DBDA00FCFF0F00FCFF0F00F0010000C003000073
:10DBEA00800F0000001E0000007C000000F8010009
:10DBFA0000E0070000800F0000800F0000E007002F
:10DC0A0000F0010000F80000003C0000001E0000C7
:10DC1A00000F0000C0030000E0010000FCFF0F003D
:10DC2A00FCFF0F00FCFF0F000000000000000000D6
:10DC3A00130000000000000000FCFF0F00FCFF0FB3
:10DC4A0000FCFF0F00F0010000C003000080070085
:10DC5A0000000F0000001E0000003C000000380019
:10DC6A00000070000000F0000000E0010000C003A6
:10DC7A0000FCFF0700FCFF0F00FCFF0F0000000084
:10DC8A00000000000000000000000000000000008A
:10DC9A000000000000000000000000000015000065
:10DCAA00000000F8000000FE010080FF0300C083AE
:10DCBA000700E001060070000E0030000C0038007A
:10DCCA000C0018000C000C000C000C000C000C00DE
:10DCDA0006000C0006000C0007001C00030018C018
:10DCEA00030078E00100F0FF0000E07F0000801FE1
:10DCFA00000000000000000000000000000000001A
:10DD0A00000000000000000000001300000000C036
:10DD1A00000000FCFF0F00FCFF0F00FCFF0F0038A3
:10DD2A001C0000380C0000180C0000180C00000839
:10DD3A000E00000C0E00000C0600000C0700000C80
:10DD4A000300008C030000CC010000FC010000F875
:10DD5A000000003800000000000000000000000081
:10DD6A0000000000000000000000000000000000A9
:10DD7A0000000000000000170000000000F800008A
:10DD8A0000FE030080FF0700C0070700E0010E0045
:10DD9A00E0000C0070000C0030000C0018000C00B1
:10DDAA0018000C000C200C000C700E000CF0060081
:10DDBA000CE006000CC007001CC003001CC00700D2
:10DDCA0078F00700F0FF0E00E03F1C00C00F1C00B7
:10DDDA000000080000000000000000000000000031
:10DDEA00000000001500000000E0000000FCFF0F2A
:10DDFA0000FCFF0F00FCFF0F00381C0000183E005B
:10DE0A0000183E0000187600000C7600000CE600B0
:10DE1A00000CE300000CC300008CC301008C8101DC
:10DE2A0000CC810300FC000300F80007003800065C
:10DE3A000000000E0000000E0000000000000000BC
:10DE4A0000000000000000000000000000000000C8
:10DE5A0000150000000000070300C0870700E00F5C
:10DE6A000700700C0E00300C0C00180C0C00180C7B
:10DE7A000C00180C0C000C040C000C040C000C0612
:10DE8A000E000C0606000C0606000C0607001C060F
:10DE9A0007003886030038C6030010FE010000FCA4
:10DEAA000000003800000000000000000000000030
:10DEBA000000000000000000000000000000123016
:10DECA000000003000000030000000300000003088
:10DEDA000000001000000010000000F8FF0F00F81A
:10DEEA00FF0F00F8FF0F00180000000800000008EC
:10DEFA00000000080000000C0000000C0000000CEC
:10DF0A000000000C000000000000000000000000FB
:10DF1A0000000000000000000000000000000000F7
:10DF2A0000000000000000000000001200000000D5
:10DF3A0000000000FCFF0300FCFF0700F8FF0700D9
:10DF4A0000000E0000000C0000000C0000000C0095
:10DF5A0000000C0000000C0000000E00000006008B
:10DF6A000000070000000700FCFF0300FCFF01009F
:10DF7A00FCFF00000000000000000000000000009C
:10DF8A000000000000000000000000000000000087
:10DF9A00000000000000000013000000003C000028
:10DFAA0000FC010000F8070000C01F0000007F000D
:10DFBA000000F80F0000C00F0000C00F0000F000C2
:10DFCA0000007C0000001E0000000F0000C00300DB
:10DFDA0000E0010000F0000000780000003C0000B2
:10DFEA00001800000000000000000000000000000F
:10DFFA000000000000000000000000000000000017
:10E00A0000000000001B000000007C000000FC0370
:10E01A000000FC1F000000FF000000F80F0000E0F5
:10E02A000F0000C00F0000F0010000780000003E61
:10E03A000000800F0000F8030000F8000000F80359
:10E04A000000800F0000003E000000FC000000F00D
:10E05A00070000800F0000C00F0000F80300007ED8
:10E06A000000801F0000FC070000FC0100003C00CB
:10E07A00000011000004001C000E003C000F007C90
:10E08A00C00700F8E00300F0F10000C07B00008048
:10E09A003F0000001F0000001F0000C07F0000E0DA
:10E0AA00F10000F0E0010078C003003C800F001C82
:10E0BA00000F00180004000000000000000000002B
:10E0CA000000000000000000000000000000000046
:10E0DA000000000000000000000000000000001521
:10E0EA00180000001C0000003C000000780000003E
:10E0FA00F0000000E0010000C00100008003000001
:10E10A000007000000FF0F0000FE0F0000FE0F00D6
:10E11A000007000080030000C0010000E0010000C9
:10E12A00E000000070000000380000003C00000021
:10E13A001C000000000000000000000000000000B9
:10E14A0000000000000000000000000014000000B1
:10E15A000000000E0038000F003C800F001CC00FAA
:10E16A00000CC00D000CE00C000C700C000C380CFC
:10E17A00000C3C0C000C1E0C000C0F0C008C070C45
:10E18A0000CC030C00EC010C00EC000C00FC000CB1
:10E19A00007C000E003C000F001C0006000000007E
:10E1AA000000000000000000000000000000000065
:10E1BA000000000000000000000C00000000000049
:10E1CA00000000000000F8FFFF03FCFFFF03FCFF54
:10E1DA00FF030C0000030C0000030C0000030C00FA
:10E1EA0000030C0080030000000100000000000092
:10E1FA000000000000000000000000000000000015
:10E20A000000000000000000000000000000000004
:10E21A0000000000000000000000000000000000F4
:10E22A000000000000000B080000001C0000007C39
:10E23A00000000F0010000C0070000001F000000FD
:10E24A007C000000F0010000C00F0000000F000079
:10E25A0000040000000000000000000000000000B0
:10E26A0000000000000000000000000000000000A4
:10E27A000000000000000000000000000000000094
:10E28A000000000000000000000000000000000084
:10E29A0000000009000000000C0000030C0000034D
:10E2AA000C0000030C0000030C000003FCFFFF033A
:10E2BA00FCFFFF03FCFFFF0300000000000000005A
:10E2CA000000000000000000000000000000000044
:10E2DA000000000000000000000000000000000034
:10E2EA000000000000000000000000000000000024
:10E2FA000000000000000000000000000000000014
:10E30A000D000000000001000080030000C00300AF
:10E31A0000E0010000F0000000780000001C00008E
:10E32A00007C000000F0000000E0030000C00300D1
:10E33A0000000300000000000000000000000000D0
:10E34A0000000000000000000000000000000000C3
:10E35A0000000000000000000000000000000000B3
:10E36A00000000000000000000000000000D000096
:10E37A00C0000000C0000000C0000000C000000093
:10E38A00C0000000C0000000C0000000C000000083
:10E39A00C0000000C0000000C0000000C000000073
:10E3AA00C0000000000000000000000000000000A3
:10E3BA000000000000000000000000000000000053
:10E3CA000000000000000000000000000000000043
:10E3DA00000000000000000000000800000000002B
:10E3EA000000000C0000001C0000001800000030B3
:10E3FA000000006000000060000000000000000053
:10E40A000000000000000000000000000000000002
:10E41A0000000000000000000000000000000000F2
:10E42A0000000000000000000000000000000000E2
:10E43A0000000000000000000000000000000000D2
:10E44A00000000000000000F0000000000000600AD
:10E45A0000800F0000CC0F0000CE0C0000C60C009C
:10E46A0000660C0000630400002306000033060067
:10E47A000033030000B3010000FF0F0000FE0F008D
:10E48A0000FE0F0000000000000000000000000075
:10E49A000000000000000000000000000000000072
:10E4AA000000000000000000000000000000000062
:10E4BA0000000000100000000000000000FCFF0F38
:10E4CA0000FCFF0F00FCFF0F00001C0C00000E0CEC
:10E4DA00000006060000060600000203000083038F
:10E4EA000000C3010000E30000007F0000003F00BD
:10E4FA0000000E0000000000000000000000000004
:10E50A000000000000000000000000000000000001
:10E51A0000000000000000000000000000000000F1
:10E52A00000F0000000000E0030000F0070000F800
:10E53A000700003C0E00000E0C0000060C0000074D
:10E54A000C0000030C0000030C000003060000038B
:10E55A00070000870700008603000086010000000C
:10E56A0000000000000000000000000000000000A1
:10E57A000000000000000000000000000000000091
:10E58A000000000000000000000000000000100071
:10E59A000000000080070000C0070000E00F000034
:10E5AA00780C0000380C00001C0C00000C0C000059
:10E5BA000C060000060600000603000086030000A1
:10E5CA00C60100FCFF0F00FCFF0F00FCFF0F00005C
:10E5DA000000000000000000000000000000000031
:10E5EA000000000000000000000000000000000021
:10E5FA000000000000000000000000100000000001
:10E60A0000C0030000F0070000F80F00007C0E00B5
:10E61A00006C0C0000660C0000660C0000330C0055
:10E62A0000330C0000330E000033060000330600EE
:10E63A00009E0300009E0300000C01000000000081
:10E64A0000000000000000000000000000000000C0
:10E65A0000000000000000000000000000000000B0
:10E66A0000000000000000000D00040000000C0083
:10E67A0000000C0000000C0000C0FF0F00F0FF0FAC
:10E68A0000F8FF0F001C0600000C0600000C060034
:10E69A00000C060000380700001807000000000000
:10E6AA000000000000000000000000000000000060
:10E6BA000000000000000000000000000000000050
:10E6CA000000000000000000000000000000000040
:10E6DA0000000000000F000000000080070000E0BA
:10E6EA000F0000F0CF010078CC01001C8C03000C55
:10E6FA000C0300060603000607030002030300C317
:10E70A00830300F3C00100FFFF0100FFFF0000FFC9
:10E71A003F000000000000000000000000000000B0
:10E72A0000000000000000000000000000000000DF
:10E73A0000000000000000000000000000000000CF
:10E74A0000000F0000000000000000FCFF0F00FCAA
:10E75A00FF0F00FCFF0F00001C0000000E0000006D
:10E76A00060000000600000003000000030000008D
:10E77A0003000000FF0F0000FF0F0000FE0F000063
:10E78A00000000000000000000000000000000007F
:10E79A00000000000000000000000000000000006F
:10E7AA00000000000000000000000000000000055A
:10E7BA00000000000000000070FF0F0078FF0F004B
:10E7CA0038FF0F00000000000000000000000000F9
:10E7DA00000000000000000000000000000000002F
:10E7EA00000000000000000000000000000000001F
:10E7FA00000000000000000000000000000000000F
:10E80A0000000000000000000000000000000000FE
:10E81A0000000000000000000000000006000000E8
:10E82A00060000000700FFFF0318FFFF033CFFFF7D
:10E83A00011C0000000000000000000000000000B1
:10E84A0000000000000000000000000000000000BE
:10E85A0000000000000000000000000000000000AE
:10E86A00000000000000000000000000000000009E
:10E87A00000000000000000000000000000000008E
:10E88A000000000000000000000E00000000000070
:10E89A000000FCFF0F00FCFF0F00FCFF0F000070E0
:10E8AA00000000F8000000DC010000DC0100008E1E
:10E8BA000300000707008007070080030E0000011D
:10E8CA000C00000000000000000000000000000032
:10E8DA00000000000000000000000000000000002E
:10E8EA00000000000000000000000000000000001E
:10E8FA00000000000000050000000000000000FC0D
:10E90A00FF0F00FCFF0F00FCFF0F000000000000DB
:10E91A0000000000000000000000000000000000ED
:10E92A0000000000000000000000000000000000DD
:10E93A0000000000000000000000000000000000CD
:10E94A0000000000000000000000000000000000BD
:10E95A0000000000000000000000000000000000AD
:10E96A0000000018000000000000000000FF0F0077
:10E97A0000FF0F0000FF0F00001C0000000C000049
:10E98A00000600000006000000020000000300006C
:10E99A0000FF0F0000FF0F0000FE0F00001800002C
:10E9AA00000C0000000C000000060000000200003D
:10E9BA00000300000003000000FF0F0000FF0F002B
:10E9CA0000FE0F0000000000000000000000000030
:10E9DA000F000000000000000000FF0F0000FF0F02
:10E9EA000000FF0F00001C0000000C0000000E00D9
:10E9FA0000000600000002000000030000000300FF
:10EA0A000000FF0F0000FF0F0000FE0F00000000D3
:10EA1A0000000000000000000000000000000000EC
:10EA2A0000000000000000000000000000000000DC
:10EA3A0000000000000000000000000000100000BC
:10EA4A00000000C0030000F0070000F80700001CE7
:10EA5A000E00000E0C0000060C0000060C0000035D
:10EA6A000C0000030E0000030600000307000087E5
:10EA7A00030000FE010000FE000000780000000014
:10EA8A00000000000000000000000000000000007C
:10EA9A00000000000000000000000000000000006C
:10EAAA00000000000000000000001100000000004B
:10EABA0000000000FFFF0F00FFFF0F00FFFF0F0025
:10EACA00380C00001C0C00000E0C0000060C0000A4
:10EADA00030E000003060000030700008303000082
:10EAEA00C7030000FF010000FE0000003C00000018
:10EAFA00000000000000000000000000000000000C
:10EB0A0000000000000000000000000000000000FB
:10EB1A0000000000000000140000000000E00300F4
:10EB2A0000F0070000F80F00001C0E00000E0C0099
:10EB3A0000060C0000070C00000306000003070093
:10EB4A000083030000C3010000F3000000FFFF0779
:10EB5A0000FFFF0F00FEFF0F000000060000000389
:10EB6A000000800300008001000000000000000097
:10EB7A00000000000000000000000000000000008B
:10EB8A00000000000D000000000000000000FF0F60
:10EB9A000000FF0F0000FF0F0000180000000C002B
:10EBAA0000000600000002000000030000001F0031
:10EBBA0000001F0000000E0000000000000000001E
:10EBCA00000000000000000000000000000000003B
:10EBDA00000000000000000000000000000000002B
:10EBEA00000000000000000000000000000000001B
:10EBFA0000110000000000380600007C0700007CBD
:10EC0A000600006E0C0000660C0000660C00006333
:10EC1A000C0000230C0000330C0000330600003304
:10EC2A000600003306000033030000F2030000E090
:10EC3A00010000E0000000000000000000000000E9
:10EC4A0000000000000000000000000000000000BA
:10EC5A000000000000000000000000000000110099
:10EC6A000000000006000000060000000600000088
:10EC7A00070000E0FF0700E0FF0F00E0FF0F0000C1
:10EC8A00030C0000030C00000304000003060080CC
:10EC9A000107008001030000C1030000C001000059
:10ECAA0080000000000000000000000000000000DA
:10ECBA00000000000000000000000000000000004A
:10ECCA0000000000000000000000000F000000002B
:10ECDA000000000000FF070000FF070000FF0F0010
:10ECEA0000000C0000000C0000000C0000000600F0
:10ECFA0000000600000007000080030000FF0F006C
:10ED0A0000FF0F0000FF0F000000000000000000DD
:10ED1A0000000000000000000000000000000000E9
:10ED2A0000000000000000000000000000000000D9
:10ED3A0000000000000000000F00060000001F0095
:10ED4A0000007F000000FE030000E00F0000800FBB
:10ED5A000000000F0000C0070000E0010000F00002
:10ED6A0000003C0000001E0000000F000000070029
:10ED7A000000030000000000000000000000000086
:10ED8A000000000000000000000000000000000079
:10ED9A000000000000000000000000000000000069
:10EDAA000000000000160000000000070000001F1D
:10EDBA00000000FF000000F0070000C00F00000084
:10EDCA000F0000C0070000E0010000F80000003F4B
:10EDDA000000001F0000007F000000F8010000E0B2
:10EDEA00070000800F0000800F0000E0030000F021
:10EDFA000100007E0000001F000000070000000064
:10EE0A0000000000000000000000000000000000F8
:10EE1A0000000F000000000002060000070E0000BC
:10EE2A000F0700009C030000F8010000F801000031
:10EE3A00F0000000F0000000F8010000DC01000012
:10EE4A008E03000007070000070E0000000C0000F8
:10EE5A0000000000000000000000000000000000A8
:10EE6A000000000000000000000000000000000098
:10EE7A000000000000000000000000000000001078
:10EE8A000002E0000007E001001F8001003E80014F
:10EE9A000078800100F0C00100E0E1000080F70086
:10EEAA0000007F0000001F0000C00F0000F00300F8
:10EEBA0000FC0000003F0000000F000000030000FB
:10EECA000000000000000000000000000000000038
:10EEDA000000000000000000000000000000000028
:10EEEA000000000000000000000000000F00000801
:10EEFA0000000E0C00000E0E0000060F0000060FA8
:10EF0A000000860F0000C60D0000E60C0000760C1B
:10EF1A0000003E0C00003E0C00001E0C00000E0C0F
:10EF2A000000070E0000030E0000000000000000B1
:10EF3A0000000000000000000000000000000000C7
:10EF4A0000000000000000000000000000000000B7
:10EF5A000000000000000000000D0000000000603A
:10EF6A000000006000000060000000E0000000F007
:10EF7A00FF01E0FFFF01F81FFF03F80F00031C0069
:10EF8A0000030C0000030C0000030C000001000049
:10EF9A000000000000000000000000000000000067
:10EFAA000000000000000000000000000000000057
:10EFBA000000000000000000000000000000000047
:10EFCA00000000000000050000000000000000FF33
:10EFDA00FFFF07FFFFFF07FFFFFF0700000000001A
:10EFEA000000000000000000000000000000000017
:10EFFA000000000000000000000000000000000007
:10F00A0000000000000000000000000000000000F6
:10F01A0000000000000000000000000000000000E6
:10F02A0000000000000000000000000000000000D6
:10F03A000000000C080000030C0000030C00000391
:10F04A000C0080030C00FF01FC8FFF01F8FF7F001A
:10F05A00F0FF000000700000006000000060000087
:10F06A000060000000000000000000000000000036
:10F07A000000000000000000000000000000000086
:10F08A000000000000000000000000000000000076
:10F09A000000000000000000000000000000000066
:10F0AA000D000000000080000000E0010000E00008
:10F0BA000000300000003000000070000000600016
:10F0CA000000C0000000C0000000E000000078005E
:10F0DA0000003800000000000000000000000000EE
:10F0EA000000000000000000000000000000000016
:10F0FA000000000000000000000000000000000006
:10F10A0000000000000000000000000000080000ED
:10F11A000000FEFF1F00FEFF1F0002001000020099
:10F12A00100002001000FEFF1F00FEFF1F0000007B
:10F13A0000000000000000000000000000000000C5
:10F14A0000000000000000000000000000000000B5
:10F15A0000000000000000000000000000000000A5
:10F16A000000000000000000000000000000000095
:10F17A00000000000000000000000600000000007F
:10F18A000000000000000000000000000000000075
:10F19A00000200007E0300000000000000000000E2
:10F1AA0000000000000000000400000F0000000F33
:10F1BA00000000000000000000000000000000083D
:10F1CA00000040004803F8004E03F8004E00080013
:10F1DA000000000000000618022402FF0F44024447
:10F1EA00028401000000000000000000000B000083
:10F1FA001C00220022029C0160001000CC012202A5
:10F20A002002C00108CC0132022202220252028CE0
:10F21A0001E00100020000000000000200000F00EF
:10F22A0000000000000000000000000000000000D4
:10F23A000000050000F0010C0602080110000000A1
:10F24A0000000000000000000004011002080C0683
:10F25A00F0010000000000000000000000000000B3
:10F26A000600000A0004001F0004000A0000000053
:10F27A000000000000000007200020002000FC0120
:10F28A002000200020000000000000000000020012
:10F29A000800070000000000000000000000000055
:10F2AA0000000000000420002000200020000000D0
:10F2BA000000000000000000000000000200000042
:10F2CA000300000000000000000000000000000031
:10F2DA0000000005000C800360001C000300000011
:10F2EA000000000000000000000006FC010202020B
:10F2FA000202020202FC01000000000000000000FD
:10F30A000006000004020402FE03000200020000DC
:10F31A0000000000000000000604038202420242CC
:10F32A000222021C02000000000000000000000689
:10F33A0004010202220222022202DC010000000071
:10F34A00000000000000066000500048004400FE73
:10F35A0003400000000000000000000000061E013B
:10F36A001202120212021202E20100000000000060
:10F37A000000000006F8011402120212021202E052
:10F38A000100000000000000000000060200020266
:10F39A00820162001A00060000000000000000005E
:10F3AA00000006DC012202220222022202DC010003
:10F3BA00000000000000000000063C004202420279
:10F3CA0042024201FC0000000000000000000000B0
:10F3DA000300000000180300000000000000000005
:10F3EA0000000000000000030000000818070000E9
:10F3FA0000000000000000000000000000000800FB
:10F40A0000200020005000500088008800040100FD
:10F41A00000000000008000090009000900090009A
:10F42A009000900090000000000000000800000416
:10F43A0001880088005000500020002000000000D1
:10F44A000000000504004203220012000C00000024
:10F45A00000000000000000000000BF0000C030494
:10F46A0002F2040A050A050A05FA0504010C01F06C
:10F47A0000070003E000980086009800E0000003FF
:10F48A00000000000000000006FE03220222022201
:10F49A00023C02C00100000000000000000000075A
:10F4AA00F800040102020202020202020401000040
:10F4BA0000000000000007FE03020202020202022C
:10F4CA00020401F800000000000000000006FE032C
:10F4DA00220222022202220222020000000000006E
:10F4EA000000000006FE0322002200220022002261
:10F4FA00000000000000000000000007F8000401FE
:10F50A000202020242024202C4030000000000009A
:10F51A00000007FE0320002000200020002000FE3B
:10F52A00030000000000000000030202FE030202C2
:10F53A0000000000000000000000000000000000C1
:10F54A0004000202020202FE0100000000000000A4
:10F55A000000000000000006FE03200050008800A2
:10F56A00040102020000000000000000000005FE85
:10F57A000300020002000200020000000000000076
:10F58A00000000000009FE03060018006000800168
:10F59A00600018000600FE030000000007FE0306D4
:10F5AA000018002000C0000003FE03000000000055
:10F5BA0000000008F800040102020202020202022C
:10F5CA000401F80000000000000006FE03220022E9
:10F5DA0000220022001C00000000000000000000C1
:10F5EA000008F8000401020202020206020A0409E3
:10F5FA00F80800000000000007FE03220022006253
:10F60A0000A2001C01000200000000000000000728
:10F61A001C0122022202220222022202C40100004A
:10F62A0000000000000007020002000200FE0302C0
:10F63A000002000200000000000000000007FE00B7
:10F64A0000010002000200020001FE0000000000AA
:10F65A0000000000070E003000C0000003C00030A8
:10F66A00000E0000000000000000000B1E00E00178
:10F67A000002C001380006003800C0010002E001A3
:10F68A001E000702020401D8002000D8000401026B
:10F69A000200000000000000000702000C00100039
:10F6AA00E00310000C00020000000000000000004F
:10F6BA000602038202620212020A02060200000025
:10F6CA0000000000000000040000FF0F010801080C
:10F6DA000000000000000000000000000000050318
:10F6EA00001C0060008003000C0000000000000005
:10F6FA00000000000004000001080108FF0F0000DC
:10F70A0000000000000000000000000009000010D6
:10F71A0000080004000200020004000800100000B3
:10F72A000000000700080008000800080008000898
:10F73A0000080000000000000000050000000000B2
:10F74A0000010002000000000000000000000000AC
:10F75A00000680014802480248024801F0030000FE
:10F76A00000000000000000006FF03100208020863
:10F77A00020802F00100000000000000000000057D
:10F78A00F001080208020802080200000000000056
:10F79A0000000000000006F0010802080208020842
:10F7AA0001FF030000000000000000000006F00155
:10F7BA0048024802480248027001000000000000A6
:10F7CA0000000000050800FE03090009000100000E
:10F7DA00000000000000000000000006F00108120E
:10F7EA00081208120811F80F0000000000000000BB
:10F7FA00000006FF031000080008000800F00300DC
:10F80A00000000000000000000020000FA030000EF
:10F81A0000000000000000000000000000000000DE
:10F82A000300100810FA0F0000000000000000009A
:10F83A000000000000000005FF034000A0001001C6
:10F84A0008020000000000000000000000000200A2
:10F85A0000FF03000000000000000000000000009C
:10F86A0000000000000A0000F80310000800080069
:10F87A00F003100008000800F003000006F8031067
:10F88A0000080008000800F0030000000000000063
:10F89A0000000006F0010802080208020802F0014E
:10F8AA000000000000000000000006F81F10020817
:10F8BA000208020802F00100000000000000000037
:10F8CA000006F0010802080208020801F81F0000F9
:10F8DA00000000000000000004F8031000080008FF
:10F8EA000000000000000000000000000000000509
:10F8FA00300148024802480290010000000000005E
:10F90A00000000000000040800FE010802080200CE
:10F91A000000000000000000000000000006F801DE
:10F92A000002000200020001F803000000000000CB
:10F93A0000000000051800E0000003E000180000C5
:10F94A000000000000000000000000091800E000AC
:10F95A000003E0001800E0000003E00018000000C7
:10F96A000000050802B0014000B0010802000000D2
:10F97A00000000000000000000051800E018000761
:10F98A00E000180000000000000000000000000075
:10F99A000508038802480228021802000000000035
:10F9AA00000000000000000540004000BE070108FA
:10F9BA000108000000000000000000000000030031
:10F9CA00000000FF0F00000000000000000000001F
:10F9DA0000000000000501080108BE0740004000C1
:10F9EA0000000000000000000000000008000060A5
:10F9FA00001000100020004000400030000000000D
:10FA0A0000000003FF030102FF03000000000000E2
:10FA1A0000000000000000000000050000000000D7
:10FA2A000500005F000005000700070005147F14A9
:10FA3A007F1405242A7F2A120523130864620536D7
:10FA4A004956205005080703000005001C22410002
:10FA5A00050041221C000514083E08140508083E4A
:10FA6A0008080500B0700000050808080808050025
:10FA7A0060600000052010080402053E5149453E19
:10FA8A000500427F4000057249494946052141491E
:10FA9A004D33051814127F10052745454539053C95
:10FAAA004A4949310541211109070536494949366B
:10FABA0005464949291E0500001400000500403486
:10FACA0000000508142241000514141414140541F9
:10FADA0022140800050201590906053E415D594EE6
:10FAEA00057C1211127C057F49494936053E414180
:10FAFA004122057F4141413E057F49494949057FE8
:10FB0A0009090909053E41415173057F0808087F23
:10FB1A000500417F4100052040413F01057F08144F
:10FB2A002241057F40404040057F020C027F057F4D
:10FB3A000408107F053E4141413E057F0909090637
:10FB4A00053E4151215E057F091929460526494985
:10FB5A0049320501017F0101053F4040403F051F31
:10FB6A002040201F053F4038403F056314081463B6
:10FB7A0005030478040305615149454305007F41A3
:10FB8A004100050204081020050041417F000504D8
:10FB9A000201020405404040404005070B000000F6
:10FBAA00052054547840057F284444380538444495
:10FBBA00442805384444287F05385454541805000D
:10FBCA00087E09020518A4A49C78057F0804047815
:10FBDA000500447D4000052040403D00057F102877
:10FBEA0044000500417F4000057C04780478057CC8
:10FBFA000804047805384444443805FC18242418B9
:10FC0A000518242418FC057C0804040805485454E3
:10FC1A0054240504043F4424053C4040207C051C30
:10FC2A002040201C053C4030403C05442810284414
:10FC3A00054C9090907C054464544C440500083669
:10FC4A004100050000770000050041360800050460
:10FC5A000204080405007F417F004D616E756661EC
:10FC6A0063757265722049443A202578200D0A444A
:10FC7A0065766963652049443A202578200D0A4D46
:10FC8A00656D6F72792043617061636974793A2096
:10FC9A002578200D0A00536176696E6720706172BB
:10FCAA00616D657465727320746F20666C61736828
:10FCBA002E20436F7079696E6720646174612074C5
:10FCCA006F207461626C65200A0D00577269746551
:10FCDA0020746F20666C6173682C20706172616D8C
:10FCEA006574657220616464726573733A20257560
:10FCFA0020200A0D004D616E756661637475726528
:10FD0A00722049443A202578200D0A4465766963B1
:10FD1A00652049443A202578200D0A0063757272DD
:10FD2A00656E745F706172616D5F61646472657340
:10FD3A0073207461623A200D0A00506172616D6528
:10FD4A00746572206164647220726561643A257513
:10FD5A00200D0A00433A253034752F253034752F8B
:10FD6A00253034752F2530347500626174745F70E4
:10FD7A00625F6379636C653A202575200D0A005627
:10FD8A006F6C3A25752E253032752F25752E253044
:10FD9A0032755600433A253034752F253034752F85
:10FDAA00253034756D416800434C454152204D451C
:10FDBA004D4F525921200A0D004361703A253034C3
:10FDCA00752F253034756D41680043686172672F5D
:10FDDA0044697363682F53746F720057726974654C
:10FDEA00207461626C653A200A0D0025303275680C
:10FDFA00253032756D253032757300526561642085
:10FE0A007461626C653A200A0D004F4E2F4F4646C8
:10FE1A003A202558200A0D0052455345543A2025C8
:10FE2A0058200A0D00693A2564206A3A25640D0AA9
:10FE3A000043656C6C20566F6C74613A004D696EB4
:10FE4A0044697363566F6C3A00547269636B6C65EC
:10FE5A00566F6C3A00547269636B6C654375723AFB
:10FE6A000043656C6C20436F756E743A004375727B
:10FE7A003A25752F25756D41004361703A25303456
:10FE8A00756D41680043686172672F4469736368DE
:10FE9A00004379636C653A25752F257500425553E1
:10FEAA00593A202558200A0D004469736343757234
:10FEBA0020313A004368726743757220313A004430
:10FECA0069736343757220323A00436872674375F7
:10FEDA007220323A004469736343757220333A00E0
:10FEEA004368726743757220333A00446973634307
:10FEFA00757220343A004368726743757220343A47
:10FF0A00004261747420747970653A0054656D70AA
:10FF1A003A253032754300253032756825303275FE
:10FF2A006D00534156452645584954004F7074692F
:10FF3A006F6E732031004F7074696F6E73203200D8
:10FF4A004F7074696F6E732033004F7074696F6EEF
:10FF5A00732034004F7074696F6E732035004D61E1
:10FF6A00782054696D653A0025643A202564200D8D
:10FF7A000A004368617267696E67004379636C655A
:10FF8A003A004C692D496F6E0042415420310042BB
:10FF9A0041542032004D6F64653A0054656D703AE1
:10FFAA00004E692D4D480053544152540025782083
:10FFBA007C20004241434B004E455854002575258C
:10FFCA002500444953430049444C4500434852479D
:10FFDA000054455354004D454E5500257543005075
:10FFEA004200575D002E20003120002564004E009B
:05FFFA00500052000060
:020000040001F9
:10000000D0ECAEF0020EA9ECD6F00009D8A40BEFAC
:1000100080F00DEF80F018EF80F0030EA9ECD6F021
:100020000009D8B416EF80F018EF80F07BEF85F070
:100030000001DE05D8A41FEF80F021EF80F035EF3E
:1000400081F0020EA9ECD6F00009D8B42AEF80F0B6
:100050002CEF80F030EF80F00001EE073DEF80F0F4
:10006000030EA9ECD6F00009D8B439EF80F03BEFCD
:1000700080F03DEF80F00001EE2B0001EE51D8A49E
:1000800044EF80F046EF80F04AEF80F0050EEE6F0F
:1000900054EF80F0050EEE6550EF80F052EF80F0E7
:1000A00054EF80F0010EEE6FEE05D8A45AEF80F009
:1000B0005CEF80F083EF80F0030E98ECB4F0B1C0F9
:1000C00034F0B2C035F0010E366EB0ECC3F0B1C002
:1000D0007FF0B2C080F0000E0001816FF2ECC5F03D
:1000E000B1C034F0B2C035F0000E366E4CECC4F046
:1000F000B1C07FF0B2C080F0000E0001816F6DECE6
:10010000C5F077EF85F0020EEE19D8A48AEF80F0E3
:100110008CEF80F0A2EF80F0030E98ECB4F0B1C049
:1001200034F0B2C035F0000E366EB0ECC3F0B1C0A2
:100130007FF0B2C080F0010E0001816FF2ECC5F0DB
:1001400070EF80F0030EEE19D8A4A9EF80F0ABEFAA
:1001500080F0D2EF80F0030E98ECB4F0B1C034F030
:10016000B2C035F0000E366EB0ECC3F0B1C07FF017
:10017000B2C080F0000E0001816FF2ECC5F0B1C09A
:1001800034F0B2C035F0010E366E4CECC4F0B1C0A4
:100190007FF0B2C080F0000E0001816F6DECC5F001
:1001A00077EF85F0040EEE19D8A4D9EF80F0DBEFDD
:1001B00080F002EF81F0030E98ECB4F0B1C034F09F
:1001C000B2C035F0000E366EB0ECC3F0B1C07FF0B7
:1001D000B2C080F0000E0001816FF2ECC5F0B1C03A
:1001E00034F0B2C035F0000E366E4CECC4F0B1C045
:1001F0007FF0B2C080F0010E0001816F6DECC5F0A0
:1002000077EF85F0050EEE19D8A409EF81F00BEF1A
:1002100081F033EF81F0B1C034F0B2C035F0000EA0
:10022000366EB0ECC3F0B1C07FF0B2C080F0000E0B
:100230000001816FF2ECC5F00001DD5198ECB4F0E3
:10024000B1C034F0B2C035F0000E366E4CECC4F0E4
:10025000B1C07FF0B2C080F0000E0001816F6DEC84
:10026000C5F077EF85F077EF85F0020EDE19D8A4A0
:100270003CEF81F03EEF81F066EF82F0020EA9ECD8
:10028000D6F00009D8B447EF81F049EF81F04DEF87
:1002900081F00001EE075AEF81F0030EA9ECD6F0D1
:1002A0000009D8B456EF81F058EF81F05AEF81F091
:1002B0000001EE2B0001EE51D8A461EF81F063EF55
:1002C00081F067EF81F0050EEE6F71EF81F0050EA2
:1002D000EE656DEF81F06FEF81F071EF81F0010E4F
:1002E000EE6FEE05D8A477EF81F079EF81F0A1EF02
:1002F00081F0B1C07FF0B2C080F0010E816F6AEC76
:10030000C2F0B1C07FF0B2C080F0000E0001816F7A
:100310000DECC3F0B1C07FF0B2C080F0000E000160
:10032000816F7FECC7F0B1C07FF0B2C080F0000EEB
:100330000001816FC7ECC1F0030E55ECAAF077EF16
:1003400085F0020EEE19D8A4A8EF81F0AAEF81F093
:10035000D2EF81F0B1C07FF0B2C080F0000E816FAB
:100360006AECC2F0B1C07FF0B2C080F0010E0001B3
:10037000816F0DECC3F0B1C07FF0B2C080F0000E11
:100380000001816F7FECC7F0B1C07FF0B2C080F098
:10039000000E0001816FC7ECC1F0030E55ECAAF00E
:1003A00077EF85F0030EEE19D8A4D9EF81F0DBEFDB
:1003B00081F003EF82F0B1C07FF0B2C080F0000E98
:1003C000816F6AECC2F0B1C07FF0B2C080F0000E65
:1003D0000001816F0DECC3F0B1C07FF0B2C080F0BE
:1003E000000E0001816F7FECC7F0B1C07FF0B2C09A
:1003F00080F0010E0001816FC7ECC1F0030E55ECD7
:10040000AAF077EF85F0040EEE19D8A40AEF82F077
:100410000CEF82F034EF82F0B1C07FF0B2C080F018
:10042000000E816F6AECC2F0B1C07FF0B2C080F004
:10043000000E0001816F0DECC3F0B1C07FF0B2C0BF
:1004400080F0010E0001816F7FECC7F0B1C07FF03A
:10045000B2C080F0000E0001816FC7ECC1F0030E46
:1004600055ECAAF077EF85F0050EEE19D8A43BEF16
:1004700082F03DEF82F033EF81F0B1C07FF0B2C087
:1004800080F0000E816F6AECC2F0B1C07FF0B2C0A4
:1004900080F0000E0001816F0DECC3F0B1C07FF061
:1004A000B2C080F0000E0001816F7FECC7F0B1C0D8
:1004B0007FF0B2C080F0000E0001816FC7ECC1F088
:1004C0000001DD5155ECAAF077EF85F0030EDE193F
:1004D000D8A46DEF82F06FEF82F017EF83F0020E79
:1004E000A9ECD6F00009D8B478EF82F07AEF82F068
:1004F0007EEF82F00001EE078BEF82F0030EA9EC95
:10050000D6F00009D8B487EF82F089EF82F08BEF44
:1005100082F00001EE2B030E0001EE19D8A493EF38
:1005200082F095EF82F099EF82F0050EEE6FA4EF66
:1005300082F0040EEE19D8A4A0EF82F0A2EF82F0B0
:10054000A4EF82F0020EEE6FEE51D8A4AAEF82F073
:10055000ACEF82F0B0EF82F0050EEE6FBAEF82F0F2
:10056000050EEE65B6EF82F0B8EF82F0BAEF82F0DA
:10057000010EEE6FEE05D8A4C0EF82F0C2EF82F05C
:10058000D8EF82F0B1C07FF0B2C080F0010E816F71
:1005900024ECC1F0B1C07FF0B2C080F0000E0001C9
:1005A000816FE8ECC4F0030E55ECAAF077EF85F00C
:1005B000020EEE19D8A4DFEF82F0E1EF82F0F7EF40
:1005C00082F0B1C07FF0B2C080F0000E816F24ECE9
:1005D000C1F0B1C07FF0B2C080F0010E0001816FA8
:1005E000E8ECC4F0030E55ECAAF077EF85F0050EA9
:1005F000EE19D8A4FEEF82F000EF83F033EF81F024
:10060000B1C07FF0B2C080F0000E816F24ECC1F069
:10061000B1C07FF0B2C080F0000E0001816FE8EC45
:10062000C4F00001DD5155ECAAF077EF85F0040E1F
:10063000DE19D8A41EEF83F020EF83F048EF84F09A
:10064000020EA9ECD6F00009D8B429EF83F02BEF05
:1006500083F02FEF83F00001EE073CEF83F0030EF1
:10066000A9ECD6F00009D8B438EF83F03AEF83F064
:100670003CEF83F00001EE2B0001EE51D8A443EFD4
:1006800083F045EF83F049EF83F0050EEE6F53EFF3
:1006900083F0050EEE654FEF83F051EF83F053EFDB
:1006A00083F0010EEE6FEE05D8A459EF83F05BEFF7
:1006B00083F083EF83F0B1C07FF0B2C080F0010E11
:1006C000816FFBECC6F0B1C07FF0B2C080F0000ECD
:1006D0000001816F77ECC6F0B1C07FF0B2C080F04E
:1006E000000E0001816F7FECBEF0B1C07FF0B2C0A0
:1006F00080F0000E0001816F7BECC0F0030E55EC22
:10070000AAF077EF85F0020EEE19D8A48AEF83F0F5
:100710008CEF83F0B4EF83F0B1C07FF0B2C080F013
:10072000000E816FFBECC6F0B1C07FF0B2C080F06C
:10073000010E0001816F77ECC6F0B1C07FF0B2C04E
:1007400080F0000E0001816F7FECBEF0B1C07FF041
:10075000B2C080F0000E0001816F7BECC0F0030E90
:1007600055ECAAF077EF85F0030EEE19D8A4BBEF95
:1007700083F0BDEF83F0E5EF83F0B1C07FF0B2C04E
:1007800080F0000E816FFBECC6F0B1C07FF0B2C00C
:1007900080F0000E0001816F77ECC6F0B1C07FF0F1
:1007A000B2C080F0010E0001816F7FECBEF0B1C0DD
:1007B0007FF0B2C080F0000E0001816F7BECC0F0D2
:1007C000030E55ECAAF077EF85F0040EEE19D8A4CD
:1007D000ECEF83F0EEEF83F016EF84F0B1C07FF022
:1007E000B2C080F0000E816FFBECC6F0B1C07FF0AC
:1007F000B2C080F0000E0001816F77ECC6F0B1C08E
:100800007FF0B2C080F0000E0001816F7FECBEF07F
:10081000B1C07FF0B2C080F0010E0001816F7BECAF
:10082000C0F0030E55ECAAF077EF85F0050EEE1937
:10083000D8A41DEF84F01FEF84F033EF81F0B1C036
:100840007FF0B2C080F0000E816FFBECC6F0B1C04B
:100850007FF0B2C080F0000E0001816F77ECC6F02F
:10086000B1C07FF0B2C080F0000E0001816F7FEC5C
:10087000BEF0B1C07FF0B2C080F0000E0001816F09
:100880007BECC0F00001DD5155ECAAF077EF85F06C
:10089000050EDE19D8A44FEF84F051EF84F077EF06
:1008A00085F0020EA9ECD6F00009D8B45AEF84F016
:1008B0005CEF84F060EF84F00001EE076DEF84F0F0
:1008C000030EA9ECD6F00009D8B469EF84F06BEF01
:1008D00084F06DEF84F00001EE2B0001EE51D8A4FE
:1008E00074EF84F076EF84F07AEF84F0050EEE6F0B
:1008F00084EF84F0050EEE6580EF84F082EF84F0E3
:1009000084EF84F0010EEE6FEE05D8A48AEF84F038
:100910008CEF84F0B4EF84F0B1C07FF0B2C080F00F
:10092000010E816FD5ECBDF0B1C07FF0B2C080F098
:10093000000E0001816FD2ECBFF0B1C07FF0B2C0F9
:1009400080F0000E0001816F2BECBDF0B1C07FF094
:10095000B2C080F0000E0001816F29ECBFF0030EE1
:1009600074ECB3F077EF85F0020EEE19D8A4BBEF6C
:1009700084F0BDEF84F0E5EF84F0B1C07FF0B2C049
:1009800080F0000E816FD5ECBDF0B1C07FF0B2C039
:1009900080F0010E0001816FD2ECBFF0B1C07FF09A
:1009A000B2C080F0000E0001816F2BECBDF0B1C031
:1009B0007FF0B2C080F0000E0001816F29ECBFF023
:1009C000030E74ECB3F077EF85F0030EEE19D8A4A4
:1009D000ECEF84F0EEEF84F016EF85F0B1C07FF01D
:1009E000B2C080F0000E816FD5ECBDF0B1C07FF0D9
:1009F000B2C080F0000E0001816FD2ECBFF0B1C038
:100A00007FF0B2C080F0010E0001816F2BECBDF0D1
:100A1000B1C07FF0B2C080F0000E0001816F29EC00
:100A2000BFF0030E74ECB3F077EF85F0040EEE190F
:100A3000D8A41DEF85F01FEF85F047EF85F0B1C01A
:100A40007FF0B2C080F0000E816FD5ECBDF0B1C078
:100A50007FF0B2C080F0000E0001816FD2ECBFF0D9
:100A6000B1C07FF0B2C080F0000E0001816F2BECAE
:100A7000BDF0B1C07FF0B2C080F0010E0001816F07
:100A800029ECBFF0030E74ECB3F077EF85F0050EA0
:100A9000EE19D8A44EEF85F050EF85F033EF81F0DA
:100AA000B1C07FF0B2C080F0000E816FD5ECBDF018
:100AB000B1C07FF0B2C080F0000E0001816FD2ECB7
:100AC000BFF0B1C07FF0B2C080F0000E0001816FB6
:100AD0002BECBDF0B1C07FF0B2C080F0000E000181
:100AE000816F29ECBFF00001DD5174ECB3F044ECF0
:100AF000D3F07AECD4F0000EA9ECD6F00009D8A41B
:100B000084EF85F086EF85F09AEF85F0010EA9EC71
:100B1000D6F00009D8A48FEF85F091EF85F09AEF19
:100B200085F00001DC51D8A498EF85F09AEF85F0AC
:100B3000D9EF98F0010E0001DC6FDE51D8A4A3EFCD
:100B400085F0A5EF85F0CDEF85F0EF05D8A4ABEFEC
:100B500085F0ADEF85F0B8EF85F0EF5110ECBBF00C
:100B6000000E0001EF6F010E0001DD6FD5EF98F070
:100B7000EF51D8A4BEEF85F0C0EF85F0D5EF98F027
:100B8000EF5110ECBBF0010E0001EF6F000E000101
:100B9000DD6FD5EF98F0D5EF98F0DE05D8A4D3EF50
:100BA00085F0D5EF85F08DEF88F0050EEE19D8A40D
:100BB000DCEF85F0DEEF85F002EF86F0020EEF1934
:100BC000D8A4E5EF85F0E7EF85F0F2EF85F0EF517F
:100BD00098ECB4F0000E0001EF6F020E0001DD6F23
:100BE000D5EF98F0EF51D8A4F8EF85F0FAEF85F043
:100BF000CBEF85F0EF5198ECB4F0020E0001EF6FEF
:100C0000C6EF85F0EE05D8A408EF86F00AEF86F06F
:100C1000CFEF86F018EF86F0010EDA6F37EF86F02F
:100C2000020EDA6F37EF86F0030EDA6F37EF86F0D9
:100C300020EE0CF0B151D926B251DA22DF50B36F59
:100C4000B46BB451000AD8B428EF86F037EF86F0C1
:100C5000B351000AD8B40CEF86F0010AD8B410EFF3
:100C600086F0030AD8B414EF86F037EF86F0010E51
:100C7000A9ECD6F00009D8B440EF86F042EF86F038
:100C800046EF86F00001DA2B53EF86F0000EA9EC58
:100C9000D6F00009D8B44FEF86F051EF86F053EF4D
:100CA00086F00001DA070001DA51D8A45AEF86F085
:100CB0005CEF86F060EF86F0030EDA6F8AEF86F065
:100CC000030EDA6566EF86F068EF86F08AEF86F04D
:100CD000010EDA6F8AEF86F020EE0CF0B151D926C2
:100CE000B251DA22000EDF6EA3EF86F020EE0CF098
:100CF000B151D926B251DA22010EDF6EA3EF86F090
:100D000020EE0CF0B151D926B251DA22020EDF6E7C
:100D1000A3EF86F0DA51B36FB46BB451000AD8B4C4
:100D200094EF86F0A3EF86F0B351010AD8B46CEFCC
:100D300086F0030AD8B476EF86F0010AD8B480EFC3
:100D400086F0A3EF86F0B1C001F0B2C002F0000E51
:100D5000036E4EECA2F0B1C034F0B2C035F0010E1B
:100D6000366EB0ECC3F0B1C07FF0B2C080F0000EC0
:100D70000001816FF2ECC5F0B1C034F0B2C035F0C3
:100D8000000E366E4CECC4F0B1C07FF0B2C080F003
:100D9000000E0001816F6DECC5F0D5EF98F0020EEA
:100DA000EE19D8A4D6EF86F0D8EF86F077EF87F06B
:100DB000010EA9ECD6F00009D8B4E1EF86F0E3EF1C
:100DC00086F0EDEF86F0000120EE0FF0B151D9264C
:100DD000B251DA22DF2A00EF87F0000EA9ECD6F03C
:100DE0000009D8B4F6EF86F0F8EF86F000EF87F050
:100DF000000120EE0FF0B151D926B251DA22DF0600
:100E0000000120EE0CF0B151D926B251DA22DE04F5
:100E1000D8A40DEF87F00FEF87F03FEF87F020EEBB
:100E20000FF0B151D926B251DA22DF50D8A41BEF0E
:100E300087F01DEF87F027EF87F020EE0FF0B1511C
:100E4000D926B251DA22010EDF6E6DEF87F020EE67
:100E50000FF0B151D926B251DA22010EDF6433EF1F
:100E600087F035EF87F06DEF87F020EE0FF0B1518E
:100E7000D926B251DA22010EDF6E6DEF87F020EE37
:100E80000FF0B151D926B251DA22DF50D8A44BEF7E
:100E900087F04DEF87F057EF87F020EE0FF0B1515C
:100EA000D926B251DA22050EDF6E6DEF87F020EE03
:100EB0000FF0B151D926B251DA22050EDF6463EF8B
:100EC00087F065EF87F06DEF87F020EE0FF0B151FE
:100ED000D926B251DA22010EDF6EB1C07FF0B2C066
:100EE00080F0010E816FF2ECC5F0D5EF98F0030EA3
:100EF000EE19D8A47EEF87F080EF87F023EF88F01B
:100F00008EEF87F0010EDA6FADEF87F0020EDA6F29
:100F1000ADEF87F0030EDA6FADEF87F020EE0EF045
:100F2000B151D926B251DA22DF50B36FB46BB4514C
:100F3000000AD8B49EEF87F0ADEF87F0B351000AF6
:100F4000D8B482EF87F0010AD8B486EF87F0030A9D
:100F5000D8B48AEF87F0ADEF87F0010EA9ECD6F098
:100F60000009D8B4B6EF87F0B8EF87F0BCEF87F090
:100F70000001DA2BC9EF87F0000EA9ECD6F00009CA
:100F8000D8B4C5EF87F0C7EF87F0C9EF87F000014D
:100F9000DA070001DA51D8A4D0EF87F0D2EF87F05A
:100FA000D6EF87F0030EDA6F00EF88F0030EDA65F4
:100FB000DCEF87F0DEEF87F000EF88F0010EDA6FEC
:100FC00000EF88F020EE0EF0B151D926B251DA22AE
:100FD000000EDF6E19EF88F020EE0EF0B151D92629
:100FE000B251DA22010EDF6E19EF88F020EE0EF01A
:100FF000B151D926B251DA22020EDF6E19EF88F014
:10100000DA51B36FB46BB451000AD8B40AEF88F068
:1010100019EF88F0B351010AD8B4E2EF87F0030A60
:10102000D8B4ECEF87F0010AD8B4F6EF87F019EFE7
:1010300088F0B1C034F0B2C035F0010E366E4CEC21
:10104000C4F0D5EF98F0040EEE19D8A42AEF88F07A
:101050002CEF88F0CBEF85F0010EA9ECD6F000095B
:10106000D8B435EF88F037EF88F041EF88F0000111
:1010700020EE08F0B151D926B251DA22DF2A54EF1E
:1010800088F0000EA9ECD6F00009D8B44AEF88F039
:101090004CEF88F054EF88F0000120EE08F0B151D9
:1010A000D926B251DA22DF06000120EE08F0B15154
:1010B000D926B251DA22DF50D8A461EF88F063EF6D
:1010C00088F06DEF88F020EE08F0B151D926B251CA
:1010D000DA22040EDF6E83EF88F020EE08F0B151C3
:1010E000D926B251DA22040EDF6479EF88F07BEF63
:1010F00088F083EF88F020EE08F0B151D926B25184
:10110000DA22010EDF6EB1C07FF0B2C080F0010EB6
:10111000816F6DECC5F0D5EF98F0020EDE19D8A402
:1011200094EF88F096EF88F094EF8BF0050EEE19AF
:10113000D8A49DEF88F09FEF88F030EF89F0000E83
:10114000A9ECD6F00009D8B4A8EF88F0AAEF88F08F
:10115000AEEF88F00001DB07BBEF88F0010EA9ECD1
:10116000D6F00009D8B4B7EF88F0B9EF88F0BBEF3C
:1011700088F00001DB2B0001DB51D8A4C2EF88F01E
:10118000C4EF88F0C8EF88F0030EDB6FEFEF88F054
:10119000040EDB19D8A4CFEF88F0D1EF88F0D5EF9B
:1011A00088F0010EDB6FEFEF88F0040EDB65DBEFFC
:1011B00088F0DDEF88F0E1EF88F0020EDB6FEFEFF3
:1011C00088F0EFEF88F0010EEF6F08EF89F0000E66
:1011D000EF6F08EF89F0020EEF6F08EF89F0DB5137
:1011E000B36FB46BB451000AD8B4F9EF88F008EFCC
:1011F00089F0B351010AD8B4E3EF88F0030AD8B4F8
:10120000E7EF88F0010AD8B4EBEF88F008EF89F037
:10121000EF05D8A40EEF89F010EF89F015EF89F0F3
:10122000EF5155ECAAF0B3EF85F0EF51D8A41BEFC6
:1012300089F01DEF89F022EF89F0EF5155ECAAF00B
:10124000C6EF85F0020EEF19D8A429EF89F02BEF35
:1012500089F0CBEF85F0EF5155ECAAF0EDEF85F07A
:10126000EE05D8A436EF89F038EF89F0C7EF89F0A2
:10127000010EA9ECD6F00009D8B441EF89F043EF94
:1012800089F05EEF89F0000120EE14F0B151D9260B
:10129000B251DA22DECFB3F0DDCFB4F0050EB327C2
:1012A000000EB42320EE14F0B151D926B251DA2247
:1012B000B3C0DEFFB4C0DDFF84EF89F0000EA9ECFF
:1012C000D6F00009D8B467EF89F069EF89F084EFB0
:1012D00089F0000120EE14F0B151D926B251DA2282
:1012E000DECFB3F0DDCFB4F0FB0EB325B56FFF0E4C
:1012F000B421B66F20EE14F0B151D926B251DA22E2
:10130000B5C0DEFFB6C0DDFF000120EE14F0B15124
:10131000D926B251DA22990EDE5C010EDE58D8B021
:1013200094EF89F096EF89F0A2EF89F020EE14F0A7
:10133000B151D926B251DA22AE0EDE6E010EDD6E4B
:10134000BDEF89F020EE14F0B151D926B251DA2266
:10135000B00EDE5C010EDE58D8A0B1EF89F0B3EF1D
:1013600089F0BDEF89F020EE14F0B151D926B251C9
:10137000DA229A0EDE6E010EDD6EB1C07FF0B2C0D1
:1013800080F0010E816F6AECC2F0D5EF98F0020E8A
:10139000EE19D8A4CEEF89F0D0EF89F060EF8AF093
:1013A000010EA9ECD6F00009D8B4D9EF89F0DBEF33
:1013B00089F0F6EF89F0000120EE20F0B151D92636
:1013C000B251DA22DECFB3F0DDCFB4F0050EB32791
:1013D000000EB42320EE20F0B151D926B251DA220A
:1013E000B3C0DEFFB4C0DDFF1CEF8AF0000EA9EC35
:1013F000D6F00009D8B4FFEF89F001EF8AF01CEFB6
:101400008AF0000120EE20F0B151D926B251DA2243
:10141000DECFB3F0DDCFB4F0FB0EB325B56FFF0E1A
:10142000B421B66F20EE20F0B151D926B251DA22A4
:10143000B5C0DEFFB6C0DDFF000120EE20F0B151E7
:10144000D926B251DA22010EDB5007E1F90EDE5C3B
:10145000D8B02DEF8AF02FEF8AF03BEF8AF020EE24
:1014600020F0B151D926B251DA22400EDE6E010EC3
:10147000DD6E56EF8AF020EE20F0B151D926B25140
:10148000DA22420EDE5C010EDE58D8A04AEF8AF066
:101490004CEF8AF056EF8AF020EE20F0B151D926B9
:1014A000B251DA22FA0EDE6E000EDD6EB1C07FF0B0
:1014B000B2C080F0010E816F0DECC3F0D5EF98F053
:1014C000030EEE19D8A467EF8AF069EF8AF0FAEFFD
:1014D0008AF0010EA9ECD6F00009D8B472EF8AF0B8
:1014E00074EF8AF08FEF8AF0000120EE1CF0B1510A
:1014F000D926B251DA22DECFB3F0DDCFB4F0050E3B
:10150000B327000EB42320EE1CF0B151D926B251FE
:10151000DA22B3C0DEFFB4C0DDFFB5EF8AF0000E03
:10152000A9ECD6F00009D8B498EF8AF09AEF8AF0C7
:10153000B5EF8AF0000120EE1CF0B151D926B2516E
:10154000DA22DECFB3F0DDCFB4F0FB0EB325B56FFA
:10155000FF0EB421B66F20EE1CF0B151D926B25166
:10156000DA22B5C0DEFFB6C0DDFF000120EE1CF0C0
:10157000B151D926B251DA22010EDB5007E1B30E88
:10158000DE5CD8B0C6EF8AF0C8EF8AF0D4EF8AF0FC
:1015900020EE1CF0B151D926B251DA22FA0EDE6EDD
:1015A000000EDD6EF0EF8AF020EE1CF0B151D9266E
:1015B000B251DA22010EDB5009E1FC0EDE5CD8A04C
:1015C000E4EF8AF0E6EF8AF0F0EF8AF020EE1CF00C
:1015D000B151D926B251DA22B40EDE6E000EDD6EA4
:1015E000B1C07FF0B2C080F0010E816FC7ECC1F0D6
:1015F000D5EF98F0040EEE19D8A401EF8BF003EFAD
:101600008BF0CBEF85F0010EA9ECD6F00009D8B431
:101610000CEF8BF00EEF8BF029EF8BF0000120EE3A
:101620001EF0B151D926B251DA22DECFB3F0DDCFB0
:10163000B4F0050EB327000EB42320EE1EF0B15116
:10164000D926B251DA22B3C0DEFFB4C0DDFF4FEFBE
:101650008BF0000EA9ECD6F00009D8B432EF8BF075
:1016600034EF8BF04FEF8BF0000120EE1EF0B15104
:10167000D926B251DA22DECFB3F0DDCFB4F0FB0EC3
:10168000B325B56FFF0EB421B66F20EE1EF0B15139
:10169000D926B251DA22B5C0DEFFB6C0DDFF0001A7
:1016A00020EE1EF0B151D926B251DA22010EDB50E4
:1016B00007E1040EDE5CD8B060EF8BF062EF8BF0D8
:1016C0006EEF8BF020EE1EF0B151D926B251DA2226
:1016D000320EDE6E000EDD6E8AEF8BF020EE1EF015
:1016E000B151D926B251DA22010EDB5009E1340E94
:1016F000DE5CD8A07EEF8BF080EF8BF08AEF8BF072
:1017000020EE1EF0B151D926B251DA22050EDE6E5E
:10171000000EDD6EB1C07FF0B2C080F0010E816FAF
:101720007FECC7F0D5EF98F0030EDE19D8A49BEF3D
:101730008BF09DEF8BF049EF8DF0050EEE19D8A4DC
:10174000A4EF8BF0A6EF8BF037EF8CF0000EA9EC36
:10175000D6F00009D8B4AFEF8BF0B1EF8BF0B5EF56
:101760008BF00001DB07C2EF8BF0010EA9ECD6F085
:101770000009D8B4BEEF8BF0C0EF8BF0C2EF8BF056
:101780000001DB2B0001DB51D8A4C9EF8BF0CBEFBC
:101790008BF0CFEF8BF0030EDB6FF6EF8BF0040EC8
:1017A000DB19D8A4D6EF8BF0D8EF8BF0DCEF8BF001
:1017B000010EDB6FF6EF8BF0040EDB65E2EF8BF0D2
:1017C000E4EF8BF0E8EF8BF0020EDB6FF6EF8BF0BF
:1017D000F6EF8BF0010EEF6F0FEF8CF0000EEF6F56
:1017E0000FEF8CF0020EEF6F0FEF8CF0DB51B36F49
:1017F000B46BB451000AD8B400EF8CF00FEF8CF04A
:10180000B351010AD8B4EAEF8BF0030AD8B4EEEF73
:101810008BF0010AD8B4F2EF8BF00FEF8CF0EF05EC
:10182000D8A415EF8CF017EF8CF01CEF8CF0EF5173
:1018300055ECAAF0B3EF85F0EF51D8A422EF8CF06D
:1018400024EF8CF029EF8CF0EF5155ECAAF0C6EFA5
:1018500085F0020EEF19D8A430EF8CF032EF8CF047
:10186000CBEF85F0EF5155ECAAF0EDEF85F0EE05EA
:10187000D8A43DEF8CF03FEF8CF0CFEF8CF0010E51
:10188000A9ECD6F00009D8B448EF8CF04AEF8CF000
:1018900065EF8CF0000120EE40F0B151D926B25135
:1018A000DA22DECFB3F0DDCFB4F01E0EB327000E88
:1018B000B42320EE40F0B151D926B251DA22B3C0A0
:1018C000DEFFB4C0DDFF8BEF8CF0000EA9ECD6F08C
:1018D0000009D8B46EEF8CF070EF8CF08BEF8CF0C9
:1018E000000120EE40F0B151D926B251DA22DECF0C
:1018F000B3F0DDCFB4F0E20EB325B56FFF0EB42127
:10190000B66F20EE40F0B151D926B251DA22B5C0FF
:10191000DEFFB6C0DDFF000120EE40F0B151D92658
:10192000B251DA22010EDB5007E13C0EDE5CD8B08A
:101930009CEF8CF09EEF8CF0AAEF8CF020EE40F044
:10194000B151D926B251DA22400EDE6E0B0EDD6E99
:10195000C5EF8CF020EE40F0B151D926B251DA2219
:10196000410EDE5C0B0EDE58D8A0B9EF8CF0BBEF59
:101970008CF0C5EF8CF020EE40F0B151D926B25179
:10198000DA223C0EDE6E000EDD6EB1C07FF0B2C01A
:1019900080F0010E816F24ECC1F0D5EF98F0020EBB
:1019A000EE19D8A4D6EF8CF0D8EF8CF0CBEF85F001
:1019B000010EA9ECD6F00009D8B4E1EF8CF0E3EF0A
:1019C0008CF0F5EF8CF0000120EE0BF0B151D92630
:1019D000B251DA2210EE0BF0B151E126B251E222FF
:1019E000E750050FDF6E10EF8DF0000EA9ECD6F07A
:1019F0000009D8B4FEEF8CF000EF8DF010EF8DF001
:101A0000000120EE0BF0B151D926B251DA2210EECE
:101A10000BF0B151E126B251E222E750FB0FDF6E2D
:101A2000000120EE0BF0B151D926B251DA22040E9A
:101A3000DF601DEF8DF01FEF8DF029EF8DF020EEB0
:101A40000BF0B151D926B251DA222D0EDF6E3FEFE5
:101A50008DF020EE0BF0B151D926B251DA222E0EC4
:101A6000DF6435EF8DF037EF8DF03FEF8DF020EE36
:101A70000BF0B151D926B251DA22050EDF6EB1C09A
:101A80007FF0B2C080F0010E816FE8ECC4F0D5EFBA
:101A900098F0040EDE19D8A450EF8DF052EF8DF0BF
:101AA000A8EF92F0050EEE19D8A459EF8DF05BEF78
:101AB0008DF0F5EF8DF0000EA9ECD6F00009D8B44A
:101AC00064EF8DF066EF8DF06AEF8DF00001DB07BB
:101AD00077EF8DF0010EA9ECD6F00009D8B473EFC2
:101AE0008DF075EF8DF077EF8DF00001DB2B0001AD
:101AF000DB51D8A47EEF8DF080EF8DF084EF8DF078
:101B0000030EDB6FABEF8DF0040EDB19D8A48BEF67
:101B10008DF08DEF8DF091EF8DF0010EDB6FABEF5F
:101B20008DF0040EDB6597EF8DF099EF8DF09DEF52
:101B30008DF0020EDB6FABEF8DF0ABEF8DF0010E91
:101B4000EF6FC4EF8DF0000EEF6FC4EF8DF0020E5B
:101B5000EF6FC4EF8DF0DB51B36FB46BB451000A7B
:101B6000D8B4B5EF8DF0C4EF8DF0B351010AD8B4FD
:101B70009FEF8DF0030AD8B4A3EF8DF0010AD8B41B
:101B8000A7EF8DF0C4EF8DF0EF05D8A4CAEF8DF06C
:101B9000CCEF8DF0D4EF8DF0EF5155ECAAF0010EA3
:101BA0000001DD6FF5EF8DF0EF51D8A4DAEF8DF085
:101BB000DCEF8DF0E4EF8DF0EF5155ECAAF0000E64
:101BC0000001DD6FF5EF8DF0020EEF19D8A4EBEFF9
:101BD0008DF0EDEF8DF0F5EF8DF0EF5155ECAAF0B3
:101BE000020E0001DD6FF5EF8DF0EE05D8A4FBEFDE
:101BF0008DF0FDEF8DF0CEEF8EF020EE2AF0B1519A
:101C0000D926B251DA22E80EDE5C030EDE58D8A0E7
:101C10000CEF8EF00EEF8EF014EF8EF0000EB86F1A
:101C2000640EB76F42EF8EF020EE2AF0B151D92644
:101C3000B251DA22010EDB5009E1640EDE5CD8A05D
:101C400024EF8EF026EF8EF02CEF8EF0000EB86FA2
:101C5000320EB76F42EF8EF020EE2AF0B151D92646
:101C6000B251DA22010EDB5007E1640EDE5CD8B01F
:101C70003CEF8EF03EEF8EF042EF8EF0000EB86F2C
:101C80000A0EB76F010EA9ECD6F00009D8B44BEFDD
:101C90008EF04DEF8EF068EF8EF0000120EE2AF00E
:101CA000B151D926B251DA22DECFB3F0DDCFB4F094
:101CB000B751B327B851B42320EE2AF0B151D92639
:101CC000B251DA22B3C0DEFFB4C0DDFF8CEF8EF07C
:101CD000000EA9ECD6F00009D8B471EF8EF073EFC6
:101CE0008EF08CEF8EF0000120EE2AF0B151D92653
:101CF000B251DA22DECFB3F0DDCFB4F0B751B35F2B
:101D0000B851B45B20EE2AF0B151D926B251DA2293
:101D1000B3C0DEFFB4C0DDFF000120EE2AF0B151F8
:101D2000D926B251DA22010EDB5007E10A0EDE5C41
:101D3000D8B09DEF8EF09FEF8EF0ABEF8EF020EEDF
:101D40002AF0B151D926B251DA22B80EDE6E0B0E4E
:101D5000DD6EC6EF8EF020EE2AF0B151D926B251D9
:101D6000DA22B90EDE5C0B0EDE58D8A0BAEF8EF088
:101D7000BCEF8EF0C6EF8EF020EE2AF0B151D926DE
:101D8000B251DA220A0EDE6E000EDD6EB1C07FF0B7
:101D9000B2C080F0010E816FFBECC6F0020E0001B4
:101DA000EE19D8A4D6EF8EF0D8EF8EF0A9EF8FF011
:101DB00020EE2CF0B151D926B251DA22E80EDE5CC9
:101DC000030EDE58D8A0E7EF8EF0E9EF8EF0EFEFCC
:101DD0008EF0000EB86F640EB76F1DEF8FF020EE1F
:101DE0002CF0B151D926B251DA22010EDB5009E1B3
:101DF000640EDE5CD8A0FFEF8EF001EF8FF007EFEE
:101E00008FF0000EB86F320EB76F1DEF8FF020EE1F
:101E10002CF0B151D926B251DA22010EDB5007E184
:101E2000640EDE5CD8B017EF8FF019EF8FF01DEF66
:101E30008FF0000EB86F0A0EB76F010EA9ECD6F046
:101E40000009D8B426EF8FF028EF8FF043EF8FF022
:101E5000000120EE2CF0B151D926B251DA22DECFAA
:101E6000B3F0DDCFB4F0B751B327B851B42320EEAF
:101E70002CF0B151D926B251DA22B3C0DEFFB4C082
:101E8000DDFF67EF8FF0000EA9ECD6F00009D8B4A3
:101E90004CEF8FF04EEF8FF067EF8FF0000120EEE8
:101EA0002CF0B151D926B251DA22DECFB3F0DDCF1A
:101EB000B4F0B751B35FB851B45B20EE2CF0B15120
:101EC000D926B251DA22B3C0DEFFB4C0DDFF000173
:101ED00020EE2CF0B151D926B251DA22010EDB509E
:101EE00007E10A0EDE5CD8B078EF8FF07AEF8FF062
:101EF00086EF8FF020EE2CF0B151D926B251DA22C4
:101F0000B80EDE6E0B0EDD6EA1EF8FF020EE2CF022
:101F1000B151D926B251DA22B90EDE5C0B0EDE5871
:101F2000D8A095EF8FF097EF8FF0A1EF8FF020EE14
:101F30002CF0B151D926B251DA220A0EDE6E000E13
:101F4000DD6EB1C07FF0B2C080F0010E816F77EC22
:101F5000C6F0030E0001EE19D8A4B1EF8FF0B3EF75
:101F60008FF016EF91F020EE13F0B151D926B25157
:101F7000DA22DFA0BEEF8FF0C0EF8FF079EF90F0A4
:101F800020EE2EF0B151D926B251DA22E80EDE5CF5
:101F9000030EDE58D8A0CFEF8FF0D1EF8FF0D7EF40
:101FA0008FF0000EB86F640EB76FF3EF8FF020EE76
:101FB0002EF0B151D926B251DA22010EDB5009E1DF
:101FC000640EDE5CD8A0E7EF8FF0E9EF8FF0EFEF63
:101FD0008FF0000EB86F320EB76FF3EF8FF0000E78
:101FE000B86F0A0EB76F010EA9ECD6F00009D8B48D
:101FF000FCEF8FF0FEEF8FF019EF90F0000120EE74
:102000002EF0B151D926B251DA22DECFB3F0DDCFB6
:10201000B4F0B751B327B851B42320EE2EF0B1512C
:10202000D926B251DA22B3C0DEFFB4C0DDFF3DEFE6
:1020300090F0000EA9ECD6F00009D8B422EF90F091
:1020400024EF90F03DEF90F0000120EE2EF0B15122
:10205000D926B251DA22DECFB3F0DDCFB4F0B751DA
:10206000B35FB851B45B20EE2EF0B151D926B25116
:10207000DA22B3C0DEFFB4C0DDFF000120EE2EF097
:10208000B151D926B251DA22010EDB5007E10A0E16
:10209000DE5CD8B04EEF90F050EF90F05CEF90F037
:1020A00020EE2EF0B151D926B251DA22B80EDE6EF2
:1020B0000B0EDD6E0EEF91F020EE2EF0B151D92611
:1020C000B251DA22B90EDE5C0B0EDE58D8A06BEFEF
:1020D00090F06DEF90F00EEF91F020EE2EF0B151F8
:1020E000D926B251DA220A0EDE6E000EDD6E0EEF38
:1020F00091F020EE10F0B151D926B251DA22310E12
:10210000DF6485EF90F087EF90F08DEF90F0000E98
:10211000B86F0A0EB76FA5EF90F020EE10F0B15136
:10212000D926B251DA22090EDF6499EF90F09BEFC5
:1021300090F0A1EF90F0000EB86F050EB76FA5EF0D
:1021400090F0000EB86F010EB76F010EA9ECD6F03B
:102150000009D8B4AEEF90F0B0EF90F0C2EF90F07D
:10216000000120EE10F0B151D926B251DA2210EE62
:1021700010F0B151E126B251E222E750B725DF6EEF
:10218000DFEF90F0000EA9ECD6F00009D8B4CBEF49
:1021900090F0CDEF90F0DFEF90F0000120EE10F026
:1021A000B151D926B251DA2210EE10F0B151E12628
:1021B000B251E222E750B36FB751B35DDF6E000159
:1021C00020EE10F0B151D926B251DA22DF50D8A456
:1021D000ECEF90F0EEEF90F0F8EF90F020EE10F0D2
:1021E000B151D926B251DA22640EDF6E0EEF91F0B2
:1021F00020EE10F0B151D926B251DA22640EDF641C
:1022000004EF91F006EF91F00EEF91F020EE10F058
:10221000B151D926B251DA22010EDF6EB1C07FF082
:10222000B2C080F0010E816F7FECBEF0040E0001A1
:10223000EE19D8A41EEF91F020EF91F0D5EF98F0B1
:1022400020EE13F0B151D926B251DA22DFA22BEFE2
:1022500091F02DEF91F0E6EF91F020EE30F0B151DA
:10226000D926B251DA22E80EDE5C030EDE58D8A081
:102270003CEF91F03EEF91F044EF91F0000EB86F1B
:10228000640EB76F60EF91F020EE30F0B151D926B7
:10229000B251DA22010EDB5009E1640EDE5CD8A0F7
:1022A00054EF91F056EF91F05CEF91F0000EB86FA3
:1022B000320EB76F60EF91F0000EB86F0A0EB76F75
:1022C000010EA9ECD6F00009D8B469EF91F06BEFDC
:1022D00091F086EF91F0000120EE30F0B151D92657
:1022E000B251DA22DECFB3F0DDCFB4F0B751B3276D
