:040000002EEF00F0EF
:100008005F82F2A40AEF00F00CEF00F02CEF00F092
:10001800FD0ED76E110ED66E0001E54BE62B0101E1
:10002800104B112BE80E105D030E1159D8A01FEFCD
:1000380000F021EF00F02BEF00F0000E116F000E22
:10004800106F010E0C27000E0D230E230F23F294C0
:080058005F921100BDEFABF057
:10C9A000004361703A3534306D4168004379636CFF
:10C9B000653A322F34004375723A3233306D41009C
:10C9C000566F6C3A332C333556000E0000000000D1
:10C9D0000000000000000000000000000000000057
:10C9E0000000000000000000000000000000000047
:10C9F0000000000000000000000000000000000037
:10CA00000000000000000000000000000000000026
:10CA10000000000000000000000000000000000016
:10CA20000000000000000000000000000000000006
:10CA300000000000000000050000000000000000F1
:10CA4000FC7F0E00FC7F0F00FC7F07000000000051
:10CA500000000000000000000000000000000000D6
:10CA600000000000000000000000000000000000C6
:10CA700000000000000000000000000000000000B6
:10CA800000000000000000000000000000000000A6
:10CA90000000000000000000000000000000000096
:10CAA00000000000090000000000000000FC010080
:10CAB00000FC010000000000000000000000000079
:10CAC00000FC010000FC010000000000000000006C
:10CAD0000000000000000000000000000000000056
:10CAE0000000000000000000000000000000000046
:10CAF0000000000000000000000000000000000036
:10CB00000000000000000000000000000000000025
:10CB100000110000000000600000806100008061E2
:10CB20000C0080E10F0080FD0F00807F0000F86F97
:10CB30000000FC610C008CE10F0080FD0F00807F85
:10CB40000000F86F0000FC6100008C610000802193
:10CB50000000800100000000000000000000000054
:10CB600000000000000000000000000000000000C5
:10CB700000000000000000000000000000001100A4
:10CB800000000000830100C0C70300E08F030070B5
:10CB90000C0700300C0600180C060018040600FFF5
:10CBA000FF7F00FEFF3F001806060018060300186E
:10CBB0000603003886030070FE010070FC000000D0
:10CBC00078000000000000000000000000000000ED
:10CBD0000000000000000000000000000000000055
:10CBE0000000000000000000000000150000000030
:10CBF000E0000000F0010000F80300001C03040046
:10CC00000C030E008C830F00FCC10300F8F0000041
:10CC1000707C0000001E000080070300E083070016
:10CC2000F0C00F003CC00C001C600C0008600C0041
:10CC30000060060000E0070000C003000080010063
:10CC400000000000000000000000000000000000E4
:10CC50000000000000000000160000000000E003DB
:10CC60000000F0070000F80700701C0E00F80E0C22
:10CC700000F80F0C00DC070C008C070C000C0F0CEC
:10CC8000000C1F06008C1F0600CC390700F871034A
:10CC900000F8F0030070E0010000E0010000F8037C
:10CCA00000003C070000180E0000000E0000000706
:10CCB0000000000000000000000000000000000074
:10CCC0000000000000040000000000000000FC0163
:10CCD0000000FC0100000000000000000000000057
:10CCE0000000000000000000000000000000000044
:10CCF0000000000000000000000000000000000034
:10CD00000000000000000000000000000000000023
:10CD10000000000000000000000000000000000013
:10CD20000000000000000000000000000000000003
:10CD300000000B000000000000000000FC030000E9
:10CD4000FF1F00C0FF3F00E003FC00F000E00138DF
:10CD500000C0013C0080031C0080030800000000AC
:10CD600000000000000000000000000000000000C3
:10CD700000000000000000000000000000000000B3
:10CD800000000000000000000000000000000000A3
:10CD90000000000000000000000000000000000A89
:10CDA00000000000080000001C0080033C0080031D
:10CDB0003800C001F000F001E003FC00C0FF3F00BC
:10CDC00000FF1F0000FC0300000000000000000046
:10CDD0000000000000000000000000000000000053
:10CDE0000000000000000000000000000000000043
:10CDF0000000000000000000000000000000000033
:10CE00000000000000000000000000000A00000018
:10CE100000C0000000C00000004C020000D8030069
:10CE200000F0010000FC000000AC01000030030035
:10CE300000300000000000000000000000000000C2
:10CE400000000000000000000000000000000000E2
:10CE500000000000000000000000000000000000D2
:10CE600000000000000000000000000000000000C2
:10CE70000000000000000000000E00000000004064
:10CE80000000006000000060000000600000006022
:10CE9000000000FF0F0000FF0F0000FF0F00006008
:10CEA0000000006000000060000000600000006002
:10CEB0000000000000000000000000000000000072
:10CEC0000000000000000000000000000000000062
:10CED0000000000000000000000000000000000052
:10CEE00000000000000005000000000000660000D7
:10CEF000006F0000003F0000001E00000000000066
:10CF00000000000000000000000000000000000021
:10CF10000000000000000000000000000000000011
:10CF20000000000000000000000000000000000001
:10CF300000000000000000000000000000000000F1
:10CF400000000000000000000000000000000000E1
:10CF50000000000A00000000003000000070000027
:10CF60000030000000300000003000000030000001
:10CF70000030000000300000003000000000000021
:10CF800000000000000000000000000000000000A1
:10CF90000000000000000000000000000000000091
:10CFA0000000000000000000000000000000000081
:10CFB0000000000000000000000000000000000071
:10CFC00005000000000000000000000E0000000F3F
:10CFD000000000070000000000000000000000004A
:10CFE0000000000000000000000000000000000041
:10CFF0000000000000000000000000000000000031
:10D000000000000000000000000000000000000020
:10D010000000000000000000000000000000000010
:10D02000000000000000000000000000000B0000F5
:10D0300000000000040000000F0000C00F0000F816
:10D040000100007E0000801F0000E0070000FC01DE
:10D0500000007C0000001C00000000000000000038
:10D0600000000000000000000000000000000000C0
:10D0700000000000000000000000000000000000B0
:10D0800000000000000000000000000000000000A0
:10D09000000000000000000000001600000000007A
:10D0A000F8010000FF030080FF0700C0030700E055
:10D0B000010E0070000C0030000C0038000C00184D
:10D0C000000C0008000C000C000C000C0006000C0A
:10D0D0000006000C0007000C0003001C8003001871
:10D0E000C0010038F00000F07F0000E03F0000C009
:10D0F0000F00000000000000000000000000000021
:10D10000000000000000001000000000000000000F
:10D11000000000000000000000010000800300008B
:10D12000C0030000C0010000E0000000E0000000BB
:10D13000700000007000000038000000F8FF0F00D1
:10D14000FCFF0F00FCFF0F000000000000000000CB
:10D1500000000000000000000000000000000000CF
:10D1600000000000000000000000000000000000BF
:10D17000000000001400000000000000000000009B
:10D1800000E0000E00E0000F00F0C00F0038E00DDE
:10D190000018E00C0018700C000C300C000C380C5F
:10D1A000000C380C000C1C0C000C1C0C000C0C0CA3
:10D1B000000C0E0C00180F0C00F8070E00F8030FFF
:10D1C00000E0010E00000000000000000000000070
:10D1D000000000000000000000000000000000004F
:10D1E0000015000000000000000000C003007CC02B
:10D1F00007007CC007007C000E000C000C000C0037
:10D200000C000C0E0C000C060C000C070C000C079C
:10D210000C008C030C00CC030600EC0306007C031E
:10D2200006003C0303001CC703000CFE010000FEC7
:10D230000000007C00000000000000000000000072
:10D2400000000000000000000000000000001600C8
:10D25000C0000000E0000000F0000000F800000046
:10D26000F8000000FC000000EE00000067000080F5
:10D27000630000C0610000E06000007060000038E2
:10D28000700000FCFF0F00FCFF0F00FCFF0F000010
:10D2900030000000300000003000000038000000C6
:10D2A000380000003800000000000000000000000E
:10D2B0000000000000000000000000150000000059
:10D2C0000000000000080300F81F0700F81F070017
:10D2D000F80D0E00080E0C0008060C0008060C00E5
:10D2E00008020C0008030C0008030C0008030C00E3
:10D2F000080306000C0306000C0307000C070300DC
:10D300000CC603000CFE010000FC000000780000C9
:10D31000000000000000000000000000000000000D
:10D32000000000000000000016000000000078006F
:10D330000000FE030080FF0300C0C70700E0E10714
:10D340000060700E0070300C0038380C00181C0C97
:10D3500000180C0C000C0C0C000C060C000C060E3B
:10D36000000C0606000C0606000C0607000C06035F
:10D3700000388E030078FC010030FC0000007800CB
:10D38000000000000000000000000000000000009D
:10D390000000000000160000000000000000000077
:10D3A0000000F8010000FC010000FC0000000C007F
:10D3B00000000C0000000C0000000C000E000C80AF
:10D3C0000F000CE007000CF001000CFC00000C3E0C
:10D3D00000008C1F0000EC070000FC030000FC00B4
:10D3E00000003C0000000C000000040000000000F1
:10D3F000000000000000000000000000000000002D
:10D400000000160000000000C0010000E003000062
:10D41000F00700C0790600F03B0E00F81F0C003842
:10D420000E0C00180C0C001C0C0C000C060C000C54
:10D43000060C000C0606000C0606000C0606001C76
:10D44000070300F8070300F886030070CE01000010
:10D45000FC000000FC00000038000000000000009C
:10D4600000000000000000000000000000000016A6
:10D47000000000000000010080830300E087070037
:10D48000F00F0700700C0E00381C0C0018180C0070
:10D490001C180C000C180C000C180C000C180C00BC
:10D4A0000C1804000C0C06000C0C06001C0C0700E9
:10D4B0001886030038C70300F0E30100F0FF000006
:10D4C000E07F0000001F00000000000000000000DE
:10D4D0000000000000000000000000000500000047
:10D4E0000000000000000C0E00001E0F00000C07E2
:10D4F000000000000000000000000000000000002C
:10D50000000000000000000000000000000000001B
:10D51000000000000000000000000000000000000B
:10D5200000000000000000000000000000000000FB
:10D5300000000000000000000000000000000000EB
:10D5400000000000000000000005000000000000D6
:10D550006600000C6F00001E3F00000E1E00000061
:10D5600000000000000000000000000000000000BB
:10D5700000000000000000000000000000000000AB
:10D58000000000000000000000000000000000009B
:10D59000000000000000000000000000000000008B
:10D5A000000000000000000000000000000000007B
:10D5B0000000000000000D0000000000000000005E
:10D5C0006000000070000000F0000000F8010000A2
:10D5D000D80100009C0300000C0300000E070000AF
:10D5E000070E0000070E000002020000000000000D
:10D5F000000000000000000000000000000000002B
:10D60000000000000000000000000000000000001A
:10D61000000000000000000000000000000000000A
:10D620000000000D00000000008C0100008C0100D3
:10D63000008C0100008C0100008C0100008C0100B6
:10D64000008C0100008C0100008C0100008C0100A6
:10D65000008C0100008C01000000000000000000B0
:10D6600000000000000000000000000000000000BA
:10D6700000000000000000000000000000000000AA
:10D68000000000000000000000000000000000009A
:10D690000D00000000000000000002020000070E64
:10D6A0000000070E00000E0700000C0300009C03A2
:10D6B0000000D8010000F8010000F0000000700038
:10D6C00000006000000000000000000000000000FA
:10D6D000000000000000000000000000000000004A
:10D6E000000000000000000000000000000000003A
:10D6F000000000000000000000000000001000001A
:10D7000000002000000070000000F00000007870B1
:10D71000000018F8000018FC1C000CDC1E000CCEE9
:10D720000E000CC700000CF700008C730000DC2119
:10D730000000F8010000F800000070000000000088
:10D7400000000000000000000000000000000000D9
:10D7500000000000000000000000000000000000C9
:10D76000000000000000000000001B00000000009E
:10D7700080070000E01F0000783800001C30000027
:10D780000E70000006670000C3670080E36F008032
:10D79000716C0080396C00C0186C00C00C6600C051
:10D7A0000C36006004330060863B00608611006028
:10D7B000C6070060FE0F0060FE0F00600E0C0060E8
:10D7C000000C00C0000600C00106008083030000BA
:10D7D000FF0100007C00001500000E0000800F001B
:10D7E00000C00F0000F0010000780000003E0000C3
:10D7F000001F0000801F0000E01B0000F818000060
:10D800007C1800007C180000F8180000E01B0000E5
:10D81000801F0000001F0000007C000000F80100D5
:10D8200000E00F0000800F0000000E00000000006C
:10D8300000000000000000000000000000000000E8
:10D8400000000000150000000000000000F8FF0FBD
:10D8500000FCFF0F00F8FF0F0018060C0018060C64
:10D860000018070C000C0704000C0306000C03064C
:10D87000008C0306008C030700CC030300CC0303D9
:10D8800000FC83030078C3010038E7010000FE00BC
:10D8900000007E0000001C000000000000000000EE
:10D8A0000000000000000000000000000000000078
:10D8B000001200000000007C000000FF0100C0FF1B
:10D8C0000700E0830700F0000E0030000E00380073
:10D8D0000C0018000C000C000C000C000C000C00DC
:10D8E0000C000C0006000C0007000C00070018C01C
:10D8F000030038C0010038C0010000000000000033
:10D900000000000000000000000000000000000017
:10D9100000000000000000000000000000001500F2
:10D9200000000000000000FCFF0F00FCFF0F00FCE7
:10D93000FF0F0038000C0018000C0018000C001C31
:10D940000006000C0006000C0006000C0007000C8E
:10D950000003000C8003000C8003001CC0010018B1
:10D96000E0010078F80000F07F0000E01F0000C038
:10D9700007000000000000000000000000000000A0
:10D980000000000000000000000000130000000084
:10D9900010000000FCFF0F00FCFF0F00FCFF0F0059
:10D9A000180C0600180C0600180C0600180C0600CF
:10D9B000180C0600180C0600180C0600180C0600BF
:10D9C000180E06001C0E06001C0406001C000700B2
:10D9D000000007000000020000000000000000003E
:10D9E0000000000000000000000000000000000037
:10D9F0000000000000000000110000000000000016
:10DA000000F8FF0F00FCFF0F00FCFF0F00381C00A8
:10DA100000381C0000380C0000180C0000180C0026
:10DA200000180C0000180C0000180E00001C0E005E
:10DA3000001C0E00001C0E00001C00000000000076
:10DA400000000000000000000000000000000000D6
:10DA500000000000000000000000000000000000C6
:10DA60000000000000170000000000F8000000FEA9
:10DA7000010080FF0300C0870700E0010600E0000E
:10DA80000E0070000C0030000C0038000C00180074
:10DA90000C0018000C000C100C000C1806000C18E0
:10DAA00006000C1806000C1803000C9803001CCC90
:10DAB000010018EC010038FC0000107C0000001C84
:10DAC0000000000000000000000000000000000056
:10DAD00000001400000000000C0000FCFF0F00FC20
:10DAE000FF0F00FCFF0F00000E0000000E00000002
:10DAF0000E0000000E0000000E0000000E000000EE
:10DB00000E000000060000000600000006000000F5
:10DB100006000000060000FCFF0F00FCFF0F00FCE9
:10DB2000FF0F0000000000000000000000000000E7
:10DB300000000000000000000000000000000005E0
:10DB40000000000000000000FCFF0F00FCFF0F00C1
:10DB5000FCFF0F00000000000000000000000000BB
:10DB600000000000000000000000000000000000B5
:10DB700000000000000000000000000000000000A5
:10DB80000000000000000000000000000000000095
:10DB90000000000000000000000000000000000085
:10DBA0000000000000000000000000001000000065
:10DBB000000080030000C0070000C00F0000001C30
:10DBC00000000018000000180000001800000018F5
:10DBD000000000180000001C0000000E0000000FF4
:10DBE00000FCFF0700FCFF0300FCFF010000000039
:10DBF0000000000000000000000000000000000025
:10DC00000000000000000000000000000000000014
:10DC100000000000000000000013000000000000F1
:10DC20000000FCFF0F00FCFF0F00FCFF0F00800F47
:10DC30000000800F0000C01D0000E0380000E07808
:10DC400000007070000030E0000038C0010018C013
:10DC500003000C8003000C00070000000E00000011
:10DC60000E000000040000000000000000000000A2
:10DC700000000000000000000000000000000000A4
:10DC80000000000000000F0000000000000000FC89
:10DC9000FF0F00FCFF0F00FCFF0F0000000E000054
:10DCA000000E000000060000000600000006000054
:10DCB0000006000000070000000700000007000049
:10DCC000000700000000000000000000000000004D
:10DCD0000000000000000000000000000000000044
:10DCE0000000000000000000000000000000000034
:10DCF000000000190000000000000000F8FF0F0005
:10DD0000FCFF0F00FCFF0F00F0010000C00300004B
:10DD1000800F0000001E0000007C000000F80100E1
:10DD200000E0070000800F0000800F0000E0070007
:10DD300000F0010000F80000003C0000001E0000A0
:10DD4000000F0000C0030000E0010000FCFF0F0016
:10DD5000FCFF0F00FCFF0F000000000000000000AF
:10DD6000130000000000000000FCFF0F00FCFF0F8C
:10DD700000FCFF0F00F0010000C00300008007005E
:10DD800000000F0000001E0000003C0000003800F2
:10DD9000000070000000F0000000E0010000C0037F
:10DDA00000FCFF0700FCFF0F00FCFF0F000000005D
:10DDB0000000000000000000000000000000000063
:10DDC000000000000000000000000000001500003E
:10DDD000000000F8000000FE010080FF0300C08387
:10DDE0000700E001060070000E0030000C00380053
:10DDF0000C0018000C000C000C000C000C000C00B7
:10DE000006000C0006000C0007001C00030018C0F0
:10DE1000030078E00100F0FF0000E07F0000801FB9
:10DE200000000000000000000000000000000000F2
:10DE3000000000000000000000001300000000C00F
:10DE4000000000FCFF0F00FCFF0F00FCFF0F00387C
:10DE50001C0000380C0000180C0000180C00000812
:10DE60000E00000C0E00000C0600000C0700000C59
:10DE70000300008C030000CC010000FC010000F84E
:10DE8000000000380000000000000000000000005A
:10DE90000000000000000000000000000000000082
:10DEA00000000000000000170000000000F8000063
:10DEB00000FE030080FF0700C0070700E0010E001E
:10DEC000E0000C0070000C0030000C0018000C008A
:10DED00018000C000C200C000C700E000CF006005A
:10DEE0000CE006000CC007001CC003001CC00700AB
:10DEF00078F00700F0FF0E00E03F1C00C00F1C0090
:10DF00000000080000000000000000000000000009
:10DF1000000000001500000000E0000000FCFF0F02
:10DF200000FCFF0F00FCFF0F00381C0000183E0033
:10DF300000183E0000187600000C7600000CE60089
:10DF4000000CE300000CC300008CC301008C8101B5
:10DF500000CC810300FC000300F800070038000635
:10DF60000000000E0000000E000000000000000095
:10DF700000000000000000000000000000000000A1
:10DF800000150000000000070300C0870700E00F35
:10DF90000700700C0E00300C0C00180C0C00180C54
:10DFA0000C00180C0C000C040C000C040C000C06EB
:10DFB0000E000C0606000C0606000C0607001C06E8
:10DFC00007003886030038C6030010FE010000FC7D
:10DFD0000000003800000000000000000000000009
:10DFE00000000000000000000000000000001230EF
:10DFF0000000003000000030000000300000003061
:10E000000000001000000010000000F8FF0F00F8F2
:10E01000FF0F00F8FF0F00180000000800000008C4
:10E02000000000080000000C0000000C0000000CC4
:10E030000000000C000000000000000000000000D4
:10E0400000000000000000000000000000000000D0
:10E0500000000000000000000000001200000000AE
:10E0600000000000FCFF0300FCFF0700F8FF0700B2
:10E0700000000E0000000C0000000C0000000C006E
:10E0800000000C0000000C0000000E000000060064
:10E090000000070000000700FCFF0300FCFF010078
:10E0A000FCFF000000000000000000000000000075
:10E0B0000000000000000000000000000000000060
:10E0C000000000000000000013000000003C000001
:10E0D00000FC010000F8070000C01F0000007F00E6
:10E0E0000000F80F0000C00F0000C00F0000F0009B
:10E0F00000007C0000001E0000000F0000C00300B4
:10E1000000E0010000F0000000780000003C00008A
:10E1100000180000000000000000000000000000E7
:10E1200000000000000000000000000000000000EF
:10E1300000000000001B000000007C000000FC0349
:10E140000000FC1F000000FF000000F80F0000E0CE
:10E150000F0000C00F0000F0010000780000003E3A
:10E160000000800F0000F8030000F8000000F80332
:10E170000000800F0000003E000000FC000000F0E6
:10E18000070000800F0000C00F0000F80300007EB1
:10E190000000801F0000FC070000FC0100003C00A4
:10E1A000000011000004001C000E003C000F007C69
:10E1B000C00700F8E00300F0F10000C07B00008021
:10E1C0003F0000001F0000001F0000C07F0000E0B3
:10E1D000F10000F0E0010078C003003C800F001C5B
:10E1E000000F001800040000000000000000000004
:10E1F000000000000000000000000000000000001F
:10E2000000000000000000000000000000000015F9
:10E21000180000001C0000003C0000007800000016
:10E22000F0000000E0010000C001000080030000D9
:10E230000007000000FF0F0000FE0F0000FE0F00AF
:10E240000007000080030000C0010000E0010000A2
:10E25000E000000070000000380000003C000000FA
:10E260001C00000000000000000000000000000092
:10E27000000000000000000000000000140000008A
:10E280000000000E0038000F003C800F001CC00F83
:10E29000000CC00D000CE00C000C700C000C380CD5
:10E2A000000C3C0C000C1E0C000C0F0C008C070C1E
:10E2B00000CC030C00EC010C00EC000C00FC000C8A
:10E2C000007C000E003C000F001C00060000000057
:10E2D000000000000000000000000000000000003E
:10E2E0000000000000000000000C00000000000022
:10E2F000000000000000F8FFFF03FCFFFF03FCFF2D
:10E30000FF030C0000030C0000030C0000030C00D2
:10E3100000030C008003000000010000000000006A
:10E3200000000000000000000000000000000000ED
:10E3300000000000000000000000000000000000DD
:10E3400000000000000000000000000000000000CD
:10E350000000000000000B080000001C0000007C12
:10E36000000000F0010000C0070000001F000000D6
:10E370007C000000F0010000C00F0000000F000052
:10E380000004000000000000000000000000000089
:10E39000000000000000000000000000000000007D
:10E3A000000000000000000000000000000000006D
:10E3B000000000000000000000000000000000005D
:10E3C00000000009000000000C0000030C00000326
:10E3D0000C0000030C0000030C000003FCFFFF0313
:10E3E000FCFFFF03FCFFFF03000000000000000033
:10E3F000000000000000000000000000000000001D
:10E40000000000000000000000000000000000000C
:10E4100000000000000000000000000000000000FC
:10E4200000000000000000000000000000000000EC
:10E430000D000000000001000080030000C0030088
:10E4400000E0010000F0000000780000001C000067
:10E45000007C000000F0000000E0030000C00300AA
:10E4600000000300000000000000000000000000A9
:10E47000000000000000000000000000000000009C
:10E48000000000000000000000000000000000008C
:10E49000000000000000000000000000000D00006F
:10E4A000C0000000C0000000C0000000C00000006C
:10E4B000C0000000C0000000C0000000C00000005C
:10E4C000C0000000C0000000C0000000C00000004C
:10E4D000C00000000000000000000000000000007C
:10E4E000000000000000000000000000000000002C
:10E4F000000000000000000000000000000000001C
:10E500000000000000000000000008000000000003
:10E510000000000C0000001C00000018000000308B
:10E52000000000600000006000000000000000002B
:10E5300000000000000000000000000000000000DB
:10E5400000000000000000000000000000000000CB
:10E5500000000000000000000000000000000000BB
:10E5600000000000000000000000000000000000AB
:10E57000000000000000000F000000000000060086
:10E5800000800F0000CC0F0000CE0C0000C60C0075
:10E5900000660C0000630400002306000033060040
:10E5A0000033030000B3010000FF0F0000FE0F0066
:10E5B00000FE0F000000000000000000000000004E
:10E5C000000000000000000000000000000000004B
:10E5D000000000000000000000000000000000003B
:10E5E00000000000100000000000000000FCFF0F11
:10E5F00000FCFF0F00FCFF0F00001C0C00000E0CC5
:10E600000000060600000606000002030000830367
:10E610000000C3010000E30000007F0000003F0095
:10E6200000000E00000000000000000000000000DC
:10E6300000000000000000000000000000000000DA
:10E6400000000000000000000000000000000000CA
:10E65000000F0000000000E0030000F0070000F8D9
:10E660000700003C0E00000E0C0000060C00000726
:10E670000C0000030C0000030C0000030600000364
:10E6800007000087070000860300008601000000E5
:10E69000000000000000000000000000000000007A
:10E6A000000000000000000000000000000000006A
:10E6B000000000000000000000000000000010004A
:10E6C0000000000080070000C0070000E00F00000D
:10E6D000780C0000380C00001C0C00000C0C000032
:10E6E0000C0600000606000006030000860300007A
:10E6F000C60100FCFF0F00FCFF0F00FCFF0F000035
:10E700000000000000000000000000000000000009
:10E7100000000000000000000000000000000000F9
:10E7200000000000000000000000001000000000D9
:10E7300000C0030000F0070000F80F00007C0E008E
:10E74000006C0C0000660C0000660C0000330C002E
:10E7500000330C0000330E000033060000330600C7
:10E76000009E0300009E0300000C0100000000005A
:10E770000000000000000000000000000000000099
:10E780000000000000000000000000000000000089
:10E7900000000000000000000D00040000000C005C
:10E7A00000000C0000000C0000C0FF0F00F0FF0F85
:10E7B00000F8FF0F001C0600000C0600000C06000D
:10E7C000000C0600003807000018070000000000D9
:10E7D0000000000000000000000000000000000039
:10E7E0000000000000000000000000000000000029
:10E7F0000000000000000000000000000000000019
:10E8000000000000000F000000000080070000E092
:10E810000F0000F0CF010078CC01001C8C03000C2D
:10E820000C0300060603000607030002030300C3EF
:10E83000830300F3C00100FFFF0100FFFF0000FFA2
:10E840003F00000000000000000000000000000089
:10E8500000000000000000000000000000000000B8
:10E8600000000000000000000000000000000000A8
:10E8700000000F0000000000000000FCFF0F00FC83
:10E88000FF0F00FCFF0F00001C0000000E00000046
:10E890000600000006000000030000000300000066
:10E8A00003000000FF0F0000FF0F0000FE0F00003C
:10E8B0000000000000000000000000000000000058
:10E8C0000000000000000000000000000000000048
:10E8D0000000000000000000000000000000000533
:10E8E000000000000000000070FF0F0078FF0F0024
:10E8F00038FF0F00000000000000000000000000D2
:10E900000000000000000000000000000000000007
:10E9100000000000000000000000000000000000F7
:10E9200000000000000000000000000000000000E7
:10E9300000000000000000000000000000000000D7
:10E9400000000000000000000000000006000000C1
:10E95000060000000700FFFF0318FFFF033CFFFF56
:10E96000011C00000000000000000000000000008A
:10E970000000000000000000000000000000000097
:10E980000000000000000000000000000000000087
:10E990000000000000000000000000000000000077
:10E9A0000000000000000000000000000000000067
:10E9B0000000000000000000000E00000000000049
:10E9C0000000FCFF0F00FCFF0F00FCFF0F000070B9
:10E9D000000000F8000000DC010000DC0100008EF7
:10E9E0000300000707008007070080030E000001F6
:10E9F0000C0000000000000000000000000000000B
:10EA00000000000000000000000000000000000006
:10EA100000000000000000000000000000000000F6
:10EA2000000000000000050000000000000000FCE5
:10EA3000FF0F00FCFF0F00FCFF0F000000000000B4
:10EA400000000000000000000000000000000000C6
:10EA500000000000000000000000000000000000B6
:10EA600000000000000000000000000000000000A6
:10EA70000000000000000000000000000000000096
:10EA80000000000000000000000000000000000086
:10EA900000000018000000000000000000FF0F0050
:10EAA00000FF0F0000FF0F00001C0000000C000022
:10EAB0000006000000060000000200000003000045
:10EAC00000FF0F0000FF0F0000FE0F000018000005
:10EAD000000C0000000C0000000600000002000016
:10EAE000000300000003000000FF0F0000FF0F0004
:10EAF00000FE0F0000000000000000000000000009
:10EB00000F000000000000000000FF0F0000FF0FDA
:10EB10000000FF0F00001C0000000C0000000E00B1
:10EB200000000600000002000000030000000300D7
:10EB30000000FF0F0000FF0F0000FE0F00000000AC
:10EB400000000000000000000000000000000000C5
:10EB500000000000000000000000000000000000B5
:10EB60000000000000000000000000000010000095
:10EB7000000000C0030000F0070000F80700001CC0
:10EB80000E00000E0C0000060C0000060C00000336
:10EB90000C0000030E0000030600000307000087BE
:10EBA000030000FE010000FE0000007800000000ED
:10EBB0000000000000000000000000000000000055
:10EBC0000000000000000000000000000000000045
:10EBD0000000000000000000000011000000000024
:10EBE00000000000FFFF0F00FFFF0F00FFFF0F00FE
:10EBF000380C00001C0C00000E0C0000060C00007D
:10EC0000030E00000306000003070000830300005A
:10EC1000C7030000FF010000FE0000003C000000F0
:10EC200000000000000000000000000000000000E4
:10EC300000000000000000000000000000000000D4
:10EC400000000000000000140000000000E00300CD
:10EC500000F0070000F80F00001C0E00000E0C0072
:10EC600000060C0000070C0000030600000307006C
:10EC70000083030000C3010000F3000000FFFF0752
:10EC800000FFFF0F00FEFF0F000000060000000362
:10EC90000000800300008001000000000000000070
:10ECA0000000000000000000000000000000000064
:10ECB000000000000D000000000000000000FF0F39
:10ECC0000000FF0F0000FF0F0000180000000C0004
:10ECD00000000600000002000000030000001F000A
:10ECE00000001F0000000E000000000000000000F7
:10ECF0000000000000000000000000000000000014
:10ED00000000000000000000000000000000000003
:10ED100000000000000000000000000000000000F3
:10ED200000110000000000380600007C0700007C95
:10ED30000600006E0C0000660C0000660C0000630C
:10ED40000C0000230C0000330C00003306000033DD
:10ED50000600003306000033030000F2030000E069
:10ED6000010000E0000000000000000000000000C2
:10ED70000000000000000000000000000000000093
:10ED80000000000000000000000000000000110072
:10ED90000000000006000000060000000600000061
:10EDA000070000E0FF0700E0FF0F00E0FF0F00009A
:10EDB000030C0000030C00000304000003060080A5
:10EDC0000107008001030000C1030000C001000032
:10EDD00080000000000000000000000000000000B3
:10EDE0000000000000000000000000000000000023
:10EDF00000000000000000000000000F0000000004
:10EE00000000000000FF070000FF070000FF0F00E8
:10EE100000000C0000000C0000000C0000000600C8
:10EE200000000600000007000080030000FF0F0044
:10EE300000FF0F0000FF0F000000000000000000B6
:10EE400000000000000000000000000000000000C2
:10EE500000000000000000000000000000000000B2
:10EE600000000000000000000F00060000001F006E
:10EE700000007F000000FE030000E00F0000800F94
:10EE80000000000F0000C0070000E0010000F000DB
:10EE900000003C0000001E0000000F000000070002
:10EEA000000003000000000000000000000000005F
:10EEB0000000000000000000000000000000000052
:10EEC0000000000000000000000000000000000042
:10EED0000000000000160000000000070000001FF6
:10EEE000000000FF000000F0070000C00F0000005D
:10EEF0000F0000C0070000E0010000F80000003F24
:10EF00000000001F0000007F000000F8010000E08A
:10EF1000070000800F0000800F0000E0030000F0F9
:10EF20000100007E0000001F00000007000000003C
:10EF300000000000000000000000000000000000D1
:10EF400000000F000000000002060000070E000095
:10EF50000F0700009C030000F8010000F80100000A
:10EF6000F0000000F0000000F8010000DC010000EB
:10EF70008E03000007070000070E0000000C0000D1
:10EF80000000000000000000000000000000000081
:10EF90000000000000000000000000000000000071
:10EFA0000000000000000000000000000000001051
:10EFB0000002E0000007E001001F8001003E800128
:10EFC0000078800100F0C00100E0E1000080F7005F
:10EFD00000007F0000001F0000C00F0000F00300D1
:10EFE00000FC0000003F0000000F000000030000D4
:10EFF0000000000000000000000000000000000011
:10F000000000000000000000000000000000000000
:10F010000000000000000000000000000F000008D9
:10F0200000000E0C00000E0E0000060F0000060F80
:10F030000000860F0000C60D0000E60C0000760CF4
:10F0400000003E0C00003E0C00001E0C00000E0CE8
:10F050000000070E0000030E00000000000000008A
:10F0600000000000000000000000000000000000A0
:10F070000000000000000000000000000000000090
:10F080000000000000000000000D00000000006013
:10F090000000006000000060000000E0000000F0E0
:10F0A000FF01E0FFFF01F81FFF03F80F00031C0042
:10F0B00000030C0000030C0000030C000001000022
:10F0C0000000000000000000000000000000000040
:10F0D0000000000000000000000000000000000030
:10F0E0000000000000000000000000000000000020
:10F0F000000000000000050000000000000000FF0C
:10F10000FFFF07FFFFFF07FFFFFF070000000000F2
:10F1100000000000000000000000000000000000EF
:10F1200000000000000000000000000000000000DF
:10F1300000000000000000000000000000000000CF
:10F1400000000000000000000000000000000000BF
:10F1500000000000000000000000000000000000AF
:10F160000000000C080000030C0000030C0000036A
:10F170000C0080030C00FF01FC8FFF01F8FF7F00F3
:10F18000F0FF000000700000006000000060000060
:10F19000006000000000000000000000000000000F
:10F1A000000000000000000000000000000000005F
:10F1B000000000000000000000000000000000004F
:10F1C000000000000000000000000000000000003F
:10F1D0000D000000000080000000E0010000E000E1
:10F1E00000003000000030000000700000006000EF
:10F1F0000000C0000000C0000000E0000000780037
:10F2000000003800000000000000000000000000C6
:10F2100000000000000000000000000000000000EE
:10F2200000000000000000000000000000000000DE
:10F2300000000000000000000000000000080000C6
:10F240000000FEFF1F00FEFF1F0002001000020072
:10F25000100002001000FEFF1F00FEFF1F00000054
:10F26000000000000000000000000000000000009E
:10F27000000000000000000000000000000000008E
:10F28000000000000000000000000000000000007E
:10F29000000000000000000000000000000000006E
:10F2A0000000000000000000000006000000000058
:10F2B000000000000000000000000000000000004E
:10F2C000000200007E0300000000000000000000BB
:10F2D00000000000000000000400000F0000000F0C
:10F2E0000000000000000000000000000000000816
:10F2F000000040004803F8004E03F8004E000800EC
:10F300000000000000000618022402FF0F4402441F
:10F31000028401000000000000000000000B00005B
:10F320001C00220022029C0160001000CC0122027D
:10F330002002C00108CC0132022202220252028CB9
:10F3400001E00100020000000000000200000F00C8
:10F3500000000000000000000000000000000000AD
:10F360000000050000F0010C06020801100000007A
:10F3700000000000000000000004011002080C065C
:10F38000F00100000000000000000000000000008C
:10F390000600000A0004001F0004000A000000002C
:10F3A0000000000000000007200020002000FC01F9
:10F3B00020002000200000000000000000000200EB
:10F3C000080007000000000000000000000000002E
:10F3D00000000000000420002000200020000000A9
:10F3E000000000000000000000000000020000001B
:10F3F000030000000000000000000000000000000A
:10F4000000000005000C800360001C0003000000E9
:10F410000000000000000000000006FC01020202E3
:10F420000202020202FC01000000000000000000D5
:10F430000006000004020402FE03000200020000B5
:10F4400000000000000000000604038202420242A5
:10F450000222021C02000000000000000000000662
:10F4600004010202220222022202DC01000000004A
:10F47000000000000000066000500048004400FE4C
:10F4800003400000000000000000000000061E0114
:10F490001202120212021202E20100000000000039
:10F4A0000000000006F8011402120212021202E02B
:10F4B000010000000000000000000006020002023F
:10F4C000820162001A000600000000000000000037
:10F4D000000006DC012202220222022202DC0100DC
:10F4E000000000000000000000063C004202420252
:10F4F00042024201FC000000000000000000000089
:10F5000003000000001803000000000000000000DD
:10F5100000000000000000030000000818070000C1
:10F5200000000000000000000000000000000800D3
:10F5300000200020005000500088008800040100D6
:10F540000000000000080000900090009000900073
:10F5500090009000900000000000000008000004EF
:10F5600001880088005000500020002000000000AA
:10F570000000000504004203220012000C000000FD
:10F58000000000000000000000000BF0000C03046D
:10F5900002F2040A050A050A05FA0504010C01F045
:10F5A00000070003E000980086009800E0000003D8
:10F5B000000000000000000006FE032202220222DA
:10F5C000023C02C001000000000000000000000733
:10F5D000F800040102020202020202020401000019
:10F5E00000000000000007FE030202020202020205
:10F5F000020401F800000000000000000006FE0305
:10F600002202220222022202220200000000000046
:10F610000000000006FE0322002200220022002239
:10F62000000000000000000000000007F8000401D6
:10F630000202020242024202C40300000000000073
:10F64000000007FE0320002000200020002000FE14
:10F65000030000000000000000030202FE0302029B
:10F66000000000000000000000000000000000009A
:10F6700004000202020202FE01000000000000007D
:10F680000000000000000006FE032000500088007B
:10F69000040102020000000000000000000005FE5E
:10F6A000030002000200020002000000000000004F
:10F6B000000000000009FE03060018006000800141
:10F6C000600018000600FE030000000007FE0306AD
:10F6D0000018002000C0000003FE0300000000002E
:10F6E00000000008F8000401020202020202020205
:10F6F0000401F80000000000000006FE03220022C2
:10F7000000220022001C0000000000000000000099
:10F710000008F8000401020202020206020A0409BB
:10F72000F80800000000000007FE0322002200622B
:10F7300000A2001C01000200000000000000000701
:10F740001C0122022202220222022202C401000023
:10F7500000000000000007020002000200FE030299
:10F760000002000200000000000000000007FE0090
:10F7700000010002000200020001FE000000000083
:10F7800000000000070E003000C0000003C0003081
:10F79000000E0000000000000000000B1E00E00151
:10F7A0000002C001380006003800C0010002E0017C
:10F7B0001E000702020401D8002000D80004010244
:10F7C0000200000000000000000702000C00100012
:10F7D000E00310000C000200000000000000000028
:10F7E0000602038202620212020A020602000000FE
:10F7F00000000000000000040000FF0F01080108E5
:10F8000000000000000000000000000000000503F0
:10F81000001C0060008003000C00000000000000DD
:10F82000000000000004000001080108FF0F0000B4
:10F8300000000000000000000000000009000010AF
:10F84000000800040002000200040008001000008C
:10F850000000000700080008000800080008000871
:10F86000000800000000000000000500000000008B
:10F870000001000200000000000000000000000085
:10F88000000680014802480248024801F0030000D7
:10F89000000000000000000006FF0310020802083C
:10F8A000020802F001000000000000000000000556
:10F8B000F00108020802080208020000000000002F
:10F8C00000000000000006F001080208020802081B
:10F8D00001FF030000000000000000000006F0012E
:10F8E000480248024802480270010000000000007F
:10F8F00000000000050800FE0309000900010000E7
:10F90000000000000000000000000006F0010812E6
:10F91000081208120811F80F000000000000000093
:10F92000000006FF031000080008000800F00300B4
:10F93000000000000000000000020000FA030000C8
:10F9400000000000000000000000000000000000B7
:10F950000300100810FA0F00000000000000000073
:10F960000000000000000005FF034000A00010019F
:10F97000080200000000000000000000000002007B
:10F9800000FF030000000000000000000000000075
:10F9900000000000000A0000F80310000800080042
:10F9A000F003100008000800F003000006F8031040
:10F9B00000080008000800F003000000000000003C
:10F9C00000000006F0010802080208020802F00127
:10F9D0000000000000000000000006F81F100208F0
:10F9E0000208020802F00100000000000000000010
:10F9F0000006F0010802080208020801F81F0000D2
:10FA0000000000000000000004F8031000080008D7
:10FA100000000000000000000000000000000005E1
:10FA20003001480248024802900100000000000036
:10FA3000000000000000040800FE010802080200A7
:10FA40000000000000000000000000000006F801B7
:10FA50000002000200020001F803000000000000A4
:10FA600000000000051800E0000003E0001800009E
:10FA70000000000000000000000000091800E00085
:10FA80000003E0001800E0000003E00018000000A0
:10FA90000000050802B0014000B0010802000000AB
:10FAA000000000000000000000051800E01800073A
:10FAB000E00018000000000000000000000000004E
:10FAC000050803880248022802180200000000000E
:10FAD000000000000000000540004000BE070108D3
:10FAE000010800000000000000000000000003000A
:10FAF000000000FF0F0000000000000000000000F8
:10FB000000000000000501080108BE074000400099
:10FB1000000000000000000000000000080000607D
:10FB200000100010002000400040003000000000E5
:10FB300000000003FF030102FF03000000000000BB
:10FB400000000000000000000000050000000000B0
:10FB50000500005F000005000700070005147F1482
:10FB60007F1405242A7F2A120523130864620536B0
:10FB70004956205005080703000005001C224100DB
:10FB8000050041221C000514083E08140508083E23
:10FB900008080500B07000000508080808080500FE
:10FBA00060600000052010080402053E5149453EF2
:10FBB0000500427F400005724949494605214149F7
:10FBC0004D33051814127F10052745454539053C6E
:10FBD0004A49493105412111090705364949493644
:10FBE00005464949291E050000140000050040345F
:10FBF00000000508142241000514141414140541D2
:10FC000022140800050201590906053E415D594EBE
:10FC1000057C1211127C057F49494936053E414158
:10FC20004122057F4141413E057F49494949057FC0
:10FC300009090909053E41415173057F0808087FFC
:10FC40000500417F4100052040413F01057F081428
:10FC50002241057F40404040057F020C027F057F26
:10FC60000408107F053E4141413E057F0909090610
:10FC7000053E4151215E057F09192946052649495E
:10FC800049320501017F0101053F4040403F051F0A
:10FC90002040201F053F4038403F0563140814638F
:10FCA00005030478040305615149454305007F417C
:10FCB0004100050204081020050041417F000504B1
:10FCC0000201020405404040404005070B000000CF
:10FCD000052054547840057F28444438053844446E
:10FCE000442805384444287F0538545454180500E6
:10FCF000087E09020518A4A49C78057F08040478EE
:10FD00000500447D4000052040403D00057F10284F
:10FD100044000500417F4000057C04780478057CA0
:10FD20000804047805384444443805FC1824241891
:10FD30000518242418FC057C0804040805485454BC
:10FD400054240504043F4424053C4040207C051C09
:10FD50002040201C053C4030403C054428102844ED
:10FD6000054C9090907C054464544C440500083642
:10FD70004100050000770000050041360800050439
:10FD80000204080405007F417F00566F6C3A257518
:10FD90002E253032752F25752E25303275560043AD
:10FDA000686172672F44697363682F53746F7200C0
:10FDB0002530327568253032756D25303275730007
:10FDC0004469736343757220323A257525250043D3
:10FDD00068726743757220323A257525250044699B
:10FDE000736343757220333A257525250043687285
:10FDF0006743757220333A2575252500446973637E
:10FE000043757220343A257525250043687267438F
:10FE1000757220343A25752525004469736343754E
:10FE20007220313A25756D410043687267437572DF
:10FE300020313A25756D4100446973634375722022
:10FE4000323A25756D4100436872674375722032FE
:10FE50003A25756D41004469736343757220333AE6
:10FE600025756D41004368726743757220333A25EA
:10FE7000756D41004469736343757220343A25758A
:10FE80006D41004368726743757220343A25756D81
:10FE900041004F4E2F4F46463A202558200A0D006C
:10FEA00052455345543A202558200A0D0043656CAD
:10FEB0006C20566F6C74613A004D696E44697363CF
:10FEC000566F6C3A00547269636B6C65566F6C3A8E
:10FED00000547269636B6C654375723A0043656CDC
:10FEE0006C20436F756E743A004375723A25752F16
:10FEF00025756D41004361703A253034756D416858
:10FF00000043686172672F446973636800437963D3
:10FF10006C653A25752F257500425553593A2025B1
:10FF200058200A0D004261747420747970653A009B
:10FF300054656D703A25303275430025303275684E
:10FF4000253032756D0053415645264558495400B9
:10FF50004F7074696F6E732031004F7074696F6EEB
:10FF6000732032004F7074696F6E732033004F70CE
:10FF700074696F6E732034004F7074696F6E7320F4
:10FF800035004D61782054696D653A0043686172AF
:10FF900067696E67004379636C653A004C692D4967
:10FFA0006F6E004241542031004241542032004DD6
:10FFB0006F64653A0054656D703A004E692D4D4886
:10FFC000005354415254004241434B004E45585453
:10FFD00000444953430049444C45004348524700BC
:10FFE00054455354004D454E5500504200575D0056
:10FFF0002E20003120002564004E005000520000E9
:020000040001F9
:1000000055EC91F0020EA8ECAFF00009D8A40BEF6C
:1000100080F00DEF80F018EF80F0030EA8ECAFF049
:100020000009D8B416EF80F018EF80F001EF83F0EC
:100030000001EB05D8A41FEF80F021EF80F035EF31
:1000400081F0020EA8ECAFF00009D8B42AEF80F0DE
:100050002CEF80F030EF80F00001FB073DEF80F0E7
:10006000030EA8ECAFF00009D8B439EF80F03BEFF5
:1000700080F03DEF80F00001FB2B0001FB51D8A484
:1000800044EF80F046EF80F04AEF80F0050EFB6F02
:1000900054EF80F0050EFB6550EF80F052EF80F0DA
:1000A00054EF80F0010EFB6FFB05D8A45AEF80F0EF
:1000B0005CEF80F083EF80F0010E2CEC96F07EC0B8
:1000C00022F07FC023F0010E246EB6EC9EF07EC0BD
:1000D00079F07FC07AF0000E00017B6F73ECA0F026
:1000E0007EC022F07FC023F0000E246E52EC9FF001
:1000F0007EC079F07FC07AF0000E00017B6F7CEC4F
:10010000A1F0FDEF82F0020EFB19D8A48AEF80F077
:100110008CEF80F0A2EF80F0010E2CEC96F07EC008
:1001200022F07FC023F0000E246EB6EC9EF07EC05D
:1001300079F07FC07AF0010E00017B6F73ECA0F0C4
:1001400070EF80F0030EFB19D8A4A9EF80F0ABEF9D
:1001500080F0D2EF80F0010E2CEC96F07EC022F001
:100160007FC023F0000E246EB6EC9EF07EC079F0C6
:100170007FC07AF0000E00017B6F73ECA0F07EC0B0
:1001800022F07FC023F0010E246E52EC9FF07EC05F
:1001900079F07FC07AF0000E00017B6F7CECA1F05B
:1001A000FDEF82F0040EFB19D8A4D9EF80F0DBEF4D
:1001B00080F002EF81F0010E2CEC96F07EC022F070
:1001C0007FC023F0000E246EB6EC9EF07EC079F066
:1001D0007FC07AF0000E00017B6F73ECA0F07EC050
:1001E00022F07FC023F0000E246E52EC9FF07EC000
:1001F00079F07FC07AF0010E00017B6F7CECA1F0FA
:10020000FDEF82F0050EFB19D8A409EF81F00BEF8A
:1002100081F033EF81F07EC022F07FC023F0000E2A
:10022000246EB6EC9EF07EC079F07FC07AF0000EAE
:1002300000017B6F73ECA0F00001EA512CEC96F00A
:100240007EC022F07FC023F0000E246E52EC9FF09F
:100250007EC079F07FC07AF0000E00017B6F7CECED
:10026000A1F0FDEF82F0FDEF82F0020EEB19D8A4B1
:100270003CEF81F03EEF81F066EF82F0020EA8ECD9
:10028000AFF00009D8B447EF81F049EF81F04DEFAE
:1002900081F00001FB075AEF81F0030EA8ECAFF0EC
:1002A0000009D8B456EF81F058EF81F05AEF81F091
:1002B0000001FB2B0001FB51D8A461EF81F063EF3B
:1002C00081F067EF81F0050EFB6F71EF81F0050E95
:1002D000FB656DEF81F06FEF81F071EF81F0010E42
:1002E000FB6FFB05D8A477EF81F079EF81F0A1EFE8
:1002F00081F07EC079F07FC07AF0010E7B6F70ECE8
:100300009DF07EC079F07FC07AF0000E00017B6F17
:1003100013EC9EF07EC079F07FC07AF0000E0001F1
:100320007B6FF8ECA0F07EC079F07FC07AF0000E11
:1003300000017B6FCDEC9CF0010E17EC8FF0FDEF10
:1003400082F0020EFB19D8A4A8EF81F0AAEF81F089
:10035000D2EF81F07EC079F07FC07AF0000E7B6F23
:1003600070EC9DF07EC079F07FC07AF0010E000144
:100370007B6F13EC9EF07EC079F07FC07AF0000EA8
:1003800000017B6FF8ECA0F07EC079F07FC07AF0BE
:10039000000E00017B6FCDEC9CF0010E17EC8FF08E
:1003A000FDEF82F0030EFB19D8A4D9EF81F0DBEF4B
:1003B00081F003EF82F07EC079F07FC07AF0000E0A
:1003C0007B6F70EC9DF07EC079F07FC07AF0000EFC
:1003D00000017B6F13EC9EF07EC079F07FC07AF055
:1003E000000E00017B6FF8ECA0F07EC079F07FC0BA
:1003F0007AF0010E00017B6FCDEC9CF0010E17EC42
:100400008FF0FDEF82F0040EFB19D8A40AEF82F002
:100410000CEF82F034EF82F07EC079F07FC07AF08A
:10042000000E7B6F70EC9DF07EC079F07FC07AF09B
:10043000000E00017B6F13EC9EF07EC079F07FC050
:100440007AF0010E00017B6FF8ECA0F07EC079F02D
:100450007FC07AF0000E00017B6FCDEC9CF0010EA6
:1004600017EC8FF0FDEF82F0050EFB19D8A43BEFDF
:1004700082F03DEF82F033EF81F07EC079F07FC0F3
:100480007AF0000E7B6F70EC9DF07EC079F07FC03B
:100490007AF0000E00017B6F13EC9EF07EC079F0C5
:1004A0007FC07AF0000E00017B6FF8ECA0F07EC0F8
:1004B00079F07FC07AF0000E00017B6FCDEC9CF0EC
:1004C0000001EA5117EC8FF0FDEF82F0030EEB19FB
:1004D000D8A46DEF82F06FEF82F0FDEF82F0020E94
:1004E000A8ECAFF00009D8B478EF82F07AEF82F090
:1004F0007EEF82F00001FB078BEF82F0030EA8EC89
:10050000AFF00009D8B487EF82F089EF82F08BEF6B
:1005100082F00001FB2B0001FB51D8A492EF82F086
:1005200094EF82F098EF82F0050EFB6FA2EF82F05D
:10053000030EFB659EEF82F0A0EF82F0A2EF82F047
:10054000010EFB6FFB05D8A4A8EF82F0AAEF82F0A2
:10055000C0EF82F07EC079F07FC07AF0010E7B6F31
:100560002DEC99F07EC079F07FC07AF0000E00018A
:100570007B6FEEEC9FF0010E17EC8FF0FDEF82F039
:10058000020EFB19D8A4C7EF82F0C9EF82F0DFEFAB
:1005900082F07EC079F07FC07AF0000E7B6F2DEC88
:1005A00099F07EC079F07FC07AF0010E00017B6F78
:1005B000EEEC9FF0010E17EC8FF0FDEF82F0050ED0
:1005C000FB19D8A4E6EF82F0E8EF82F033EF81F078
:1005D0007EC079F07FC07AF0000E7B6F2DEC99F031
:1005E0007EC079F07FC07AF0000E00017B6FEEECE8
:1005F0009FF00001EA5117EC8FF0A0ECACF0FCEC9E
:10060000ADF0000EA8ECAFF00009D8A40AEF83F01B
:100610000CEF83F020EF83F0010EA8ECAFF000099F
:10062000D8A415EF83F017EF83F020EF83F00001DB
:10063000E951D8A41EEF83F020EF83F055EF8BF043
:10064000010E0001E96FEB51D8A429EF83F02BEFE5
:1006500083F053EF83F0FC05D8A431EF83F033EF40
:1006600083F03EEF83F0FC51ADEC9AF0000E0001F8
:10067000FC6F010E0001EA6F51EF8BF0FC51D8A422
:1006800044EF83F046EF83F051EF8BF0FC51ADEC7B
:100690009AF0010E0001FC6F000E0001EA6F51EFAD
:1006A0008BF051EF8BF0EB05D8A459EF83F05BEFA3
:1006B00083F0A5EF85F0050EFB19D8A462EF83F057
:1006C00064EF83F088EF83F0020EFC19D8A46BEF7F
:1006D00083F06DEF83F078EF83F0FC512CEC96F013
:1006E000000E0001FC6F020E0001EA6F51EF8BF06B
:1006F000FC51D8A47EEF83F080EF83F051EF83F0BC
:10070000FC512CEC96F0020E0001FC6F4CEF83F0D4
:10071000FB05D8A48EEF83F090EF83F033EF84F0E5
:100720009EEF83F0010EE76FBDEF83F0020EE76FDF
:10073000BDEF83F0030EE76FBDEF83F020EE04F012
:100740007E51D9267F51DA22DF50806F816B815133
:10075000000AD8B4AEEF83F0BDEF83F08051000AF9
:10076000D8B492EF83F0010AD8B496EF83F0030A6D
:10077000D8B49AEF83F0BDEF83F0010EA8ECAFF090
:100780000009D8B4C6EF83F0C8EF83F0CCEF83F054
:100790000001E72BD9EF83F0000EA8ECAFF00009C1
:1007A000D8B4D5EF83F0D7EF83F0D9EF83F0000111
:1007B000E7070001E751D8A4E0EF83F0E2EF83F010
:1007C000E6EF83F0030EE76F10EF84F0030EE765AA
:1007D000ECEF83F0EEEF83F010EF84F0010EE76FA3
:1007E00010EF84F020EE04F07E51D9267F51DA22FA
:1007F000000EDF6E29EF84F020EE04F07E51D92642
:100800007F51DA22010EDF6E29EF84F020EE04F032
:100810007E51D9267F51DA22020EDF6E29EF84F055
:10082000E751806F816B8151000AD8B41AEF84F0D0
:1008300029EF84F08051010AD8B4F2EF83F0030A63
:10084000D8B4FCEF83F0010AD8B406EF84F029EFA6
:1008500084F07EC022F07FC023F0010E246EB6EC3F
:100860009EF051EF8BF0020EFB19D8A43AEF84F002
:100870003CEF84F09DEF84F0010EA8ECAFF000098E
:10088000D8B445EF84F047EF84F051EF84F00001D5
:1008900020EE07F07E51D9267F51DA22DF2A64EF5D
:1008A00084F0000EA8ECAFF00009D8B45AEF84F041
:1008B0005CEF84F064EF84F0000120EE07F07E51DD
:1008C000D9267F51DA22DF06000120EE07F07E51A3
:1008D000D9267F51DA22DF50D8A471EF84F073EF6C
:1008E00084F07DEF84F020EE07F07E51D9267F5111
:1008F000DA22050EDF6E93EF84F020EE07F07E51D2
:10090000D9267F51DA22050EDF6489EF84F08BEF60
:1009100084F093EF84F020EE07F07E51D9267F51CA
:10092000DA22010EDF6E7EC079F07FC07AF0010E10
:100930007B6F73ECA0F051EF8BF0030EFB19D8A482
:10094000A4EF84F0A6EF84F049EF85F0B4EF84F0D3
:10095000010EE76FD3EF84F0020EE76FD3EF84F060
:10096000030EE76FD3EF84F020EE06F07E51D92618
:100970007F51DA22DF50806F816B8151000AD8B439
:10098000C4EF84F0D3EF84F08051000AD8B4A8EF0C
:1009900084F0010AD8B4ACEF84F0030AD8B4B0EF05
:1009A00084F0D3EF84F0010EA8ECAFF00009D8B4C6
:1009B000DCEF84F0DEEF84F0E2EF84F00001E72B5F
:1009C000EFEF84F0000EA8ECAFF00009D8B4EBEF25
:1009D00084F0EDEF84F0EFEF84F00001E707000111
:1009E000E751D8A4F6EF84F0F8EF84F0FCEF84F040
:1009F000030EE76F26EF85F0030EE76502EF85F043
:100A000004EF85F026EF85F0010EE76F26EF85F005
:100A100020EE06F07E51D9267F51DA22000EDF6EDD
:100A20003FEF85F020EE06F07E51D9267F51DA2285
:100A3000010EDF6E3FEF85F020EE06F07E51D926E5
:100A40007F51DA22020EDF6E3FEF85F0E751806FB3
:100A5000816B8151000AD8B430EF85F03FEF85F00B
:100A60008051010AD8B408EF85F0030AD8B412EF18
:100A700085F0010AD8B41CEF85F03FEF85F07EC009
:100A800022F07FC023F0010E246E52EC9FF051EF54
:100A90008BF0040EFB19D8A450EF85F052EF85F0CF
:100AA00051EF83F0010EA8ECAFF00009D8B45BEF72
:100AB00085F05DEF85F064EF85F07EC0D9FF7FC0E3
:100AC000DAFFDF2A74EF85F0000EA8ECAFF0000922
:100AD000D8B46DEF85F06FEF85F074EF85F07EC0D0
:100AE000D9FF7FC0DAFFDF067EC0D9FF7FC0DAFF03
:100AF000DF50D8A47EEF85F080EF85F088EF85F099
:100B00007EC0D9FF7FC0DAFF040EDF6E9AEF85F05A
:100B10007EC0D9FF7FC0DAFF040EDF6492EF85F05C
:100B200094EF85F09AEF85F07EC0D9FF7FC0DAFFA1
:100B3000010EDF6E7EC079F07FC07AF0010E0001F9
:100B40007B6F7CECA1F051EF8BF0020EEB19D8A477
:100B5000ACEF85F0AEEF85F0ACEF88F0050EFB1939
:100B6000D8A4B5EF85F0B7EF85F048EF86F0000E1A
:100B7000A8ECAFF00009D8B4C0EF85F0C2EF85F063
:100B8000C6EF85F00001E807D3EF85F0010EA8EC71
:100B9000AFF00009D8B4CFEF85F0D1EF85F0D3EFF7
:100BA00085F00001E82B0001E851D8A4DAEF85F0C8
:100BB000DCEF85F0E0EF85F0030EE86F07EF86F0DD
:100BC000040EE819D8A4E7EF85F0E9EF85F0EDEF22
:100BD00085F0010EE86F07EF86F0040EE865F3EF8D
:100BE00085F0F5EF85F0F9EF85F0020EE86F07EF7D
:100BF00086F007EF86F0010EFC6F20EF86F0000E06
:100C0000FC6F20EF86F0020EFC6F20EF86F0E851BB
:100C1000806F816B8151000AD8B411EF86F020EF0C
:100C200086F08051010AD8B4FBEF85F0030AD8B4EE
:100C3000FFEF85F0010AD8B403EF86F020EF86F0CD
:100C4000FC05D8A426EF86F028EF86F02DEF86F07D
:100C5000FC5117EC8FF039EF83F0FC51D8A433EF3F
:100C600086F035EF86F03AEF86F0FC5117EC8FF006
:100C70004CEF83F0020EFC19D8A441EF86F043EF4D
:100C800086F051EF83F0FC5117EC8FF073EF83F097
:100C9000FB05D8A44EEF86F050EF86F0DFEF86F02C
:100CA000010EA8ECAFF00009D8B459EF86F05BEF65
:100CB00086F076EF86F0000120EE0EF07E51D92608
:100CC0007F51DA22DECF80F0DDCF81F0050E802764
:100CD000000E812320EE0EF07E51D9267F51DA22BC
:100CE00080C0DEFF81C0DDFF9CEF86F0000EA8EC27
:100CF000AFF00009D8B47FEF86F081EF86F09CEF6B
:100D000086F0000120EE0EF07E51D9267F51DA22C6
:100D1000DECF80F0DDCF81F0FB0E8025826FFF0EED
:100D20008121836F20EE0EF07E51D9267F51DA2289
:100D300082C0DEFF83C0DDFF000120EE0EF07E5199
:100D4000D9267F51DA22990EDE5C010EDE58D8B02A
:100D5000ACEF86F0AEEF86F0BAEF86F020EE0EF044
:100D60007E51D9267F51DA22AE0EDE6E010EDD6E87
:100D7000D5EF86F020EE0EF07E51D9267F51DA2293
:100D8000B00EDE5C010EDE58D8A0C9EF86F0CBEFC6
:100D900086F0D5EF86F020EE0EF07E51D9267F51F9
:100DA000DA229A0EDE6E010EDD6E7EC079F07FC013
:100DB0007AF0010E7B6F70EC9DF051EF8BF0020E1C
:100DC000FB19D8A4E6EF86F0E8EF86F078EF87F01D
:100DD000010EA8ECAFF00009D8B4F1EF86F0F3EF04
:100DE00086F00EEF87F0000120EE1AF07E51D92632
:100DF0007F51DA22DECF80F0DDCF81F0050E802733
:100E0000000E812320EE1AF07E51D9267F51DA227E
:100E100080C0DEFF81C0DDFF34EF87F0000EA8EC5C
:100E2000AFF00009D8B417EF87F019EF87F034EF6F
:100E300087F0000120EE1AF07E51D9267F51DA2288
:100E4000DECF80F0DDCF81F0FB0E8025826FFF0EBC
:100E50008121836F20EE1AF07E51D9267F51DA224C
:100E600082C0DEFF83C0DDFF000120EE1AF07E515C
:100E7000D9267F51DA22010EDB5007E1F90EDE5C44
:100E8000D8B045EF87F047EF87F053EF87F020EEBB
:100E90001AF07E51D9267F51DA22400EDE6E010E05
:100EA000DD6E6EEF87F020EE1AF07E51D9267F516D
:100EB000DA22420EDE5C010EDE58D8A062EF87F027
:100EC00064EF87F06EEF87F020EE1AF07E51D9269E
:100ED0007F51DA22FA0EDE6E000EDD6E7EC079F0F2
:100EE0007FC07AF0010E7B6F13EC9EF051EF8BF018
:100EF000030EFB19D8A47FEF87F081EF87F012EF84
:100F000088F0010EA8ECAFF00009D8B48AEF87F0A2
:100F10008CEF87F0A7EF87F0000120EE16F07E51EE
:100F2000D9267F51DA22DECF80F0DDCF81F0050EA9
:100F30008027000E812320EE16F07E51D9267F51A6
:100F4000DA2280C0DEFF81C0DDFFCDEF87F0000E2A
:100F5000A8ECAFF00009D8B4B0EF87F0B2EF87F09B
:100F6000CDEF87F0000120EE16F07E51D9267F519B
:100F7000DA22DECF80F0DDCF81F0FB0E8025826F9C
:100F8000FF0E8121836F20EE16F07E51D9267F510E
:100F9000DA2282C0DEFF83C0DDFF000120EE16F002
:100FA0007E51D9267F51DA22010EDB5007E1B30EC4
:100FB000DE5CD8B0DEEF87F0E0EF87F0ECEF87F093
:100FC00020EE16F07E51D9267F51DA22FA0EDE6E1F
:100FD000000EDD6E08EF88F020EE16F07E51D92667
:100FE0007F51DA22010EDB5009E1FC0EDE5CD8A055
:100FF000FCEF87F0FEEF87F008EF88F020EE16F0A8
:101000007E51D9267F51DA22B40EDE6E000EDD6EDF
:101010007EC079F07FC07AF0010E7B6FCDEC9CF042
:1010200051EF8BF0040EFB19D8A419EF88F01BEFD9
:1010300088F051EF83F0010EA8ECAFF00009D8B4AE
:1010400024EF88F026EF88F041EF88F0000120EED1
:1010500018F07E51D9267F51DA22DECF80F0DDCF25
:1010600081F0050E8027000E812320EE18F07E51BE
:10107000D9267F51DA2280C0DEFF81C0DDFF67EF15
:1010800088F0000EA8ECAFF00009D8B44AEF88F061
:101090004CEF88F067EF88F0000120EE18F07E51E9
:1010A000D9267F51DA22DECF80F0DDCF81F0FB0E32
:1010B0008025826FFF0E8121836F20EE18F07E5114
:1010C000D9267F51DA2282C0DEFF83C0DDFF000116
:1010D00020EE18F07E51D9267F51DA22010EDB5026
:1010E00007E1040EDE5CD8B078EF88F07AEF88F084
:1010F00086EF88F020EE18F07E51D9267F51DA2253
:10110000320EDE6E000EDD6EA2EF88F020EE18F0DB
:101110007E51D9267F51DA22010EDB5009E1340ECF
:10112000DE5CD8A096EF88F098EF88F0A2EF88F008
:1011300020EE18F07E51D9267F51DA22050EDE6EA0
:10114000000EDD6E7EC079F07FC07AF0010E7B6FFD
:10115000F8ECA0F051EF8BF0030EEB19D8A4B3EF2D
:1011600088F0B5EF88F08BEF8AF0050EFB19D8A454
:10117000BCEF88F0BEEF88F04FEF89F0000EA8ECCE
:10118000AFF00009D8B4C7EF88F0C9EF88F0CDEF11
:1011900088F00001E807DAEF88F0010EA8ECAFF064
:1011A0000009D8B4D6EF88F0D8EF88F0DAEF88F0ED
:1011B0000001E82B0001E851D8A4E1EF88F0E3EF4B
:1011C00088F0E7EF88F0030EE86F0EEF89F0040E69
:1011D000E819D8A4EEEF88F0F0EF88F0F4EF88F08B
:1011E000010EE86F0EEF89F0040EE865FAEF88F063
:1011F000FCEF88F000EF89F0020EE86F0EEF89F047
:101200000EEF89F0010EFC6F27EF89F0000EFC6FE6
:1012100027EF89F0020EFC6F27EF89F0E851806F0D
:10122000816B8151000AD8B418EF89F027EF89F05B
:101230008051010AD8B402EF89F0030AD8B406EF4E
:1012400089F0010AD8B40AEF89F027EF89F0FC058C
:10125000D8A42DEF89F02FEF89F034EF89F0FC51FD
:1012600017EC8FF039EF83F0FC51D8A43AEF89F0F6
:101270003CEF89F041EF89F0FC5117EC8FF04CEF17
:1012800083F0020EFC19D8A448EF89F04AEF89F0E8
:1012900051EF83F0FC5117EC8FF073EF83F0FB05F7
:1012A000D8A455EF89F057EF89F011EF8AF0010EBD
:1012B000A8ECAFF00009D8B460EF89F062EF89F0D4
:1012C0008DEF89F0000120EE32F07E51D9267F515A
:1012D000DA22DECF80F0DECF81F0DECF82F0DECF0B
:1012E00083F0050E8025846F000E8121856F000E2E
:1012F0008221866F000E8321876F20EE32F07E51AF
:10130000D9267F51DA2284C0DEFF85C0DEFF86C089
:10131000DEFF87C0DEFFB9EF89F0000EA8ECAFF06A
:101320000009D8B496EF89F098EF89F0B9EF89F009
:10133000000120EE32F07E51D9267F51DA22FB0ED9
:10134000DE24806FFF0EDE20816FFF0EDE20826FB5
:10135000FF0EDE20836F20EE32F07E51D9267F51C2
:10136000DA2280C0DEFF81C0DEFF82C0DEFF83C0E4
:10137000DEFF000120EE32F07E51D9267F51DA22C5
:10138000030EDB500DE1020EDB500AE1010EDB50D3
:1013900007E11E0EDE5CD8B0D0EF89F0D2EF89F005
:1013A000E2EF89F020EE32F07E51D9267F51DA2229
:1013B000400EDE6E0B0EDE6E000EDE6E000EDD6E7B
:1013C00007EF8AF020EE32F07E51D9267F51DA22E3
:1013D000030EDB500EE1020EDB500BE15F0EDE5C14
:1013E0000B0EDE58D8A0F7EF89F0F9EF89F007EF80
:1013F0008AF020EE32F07E51D9267F51DA223C0E5F
:10140000DE6E000EDE6E000EDE6E000EDD6E7EC045
:1014100079F07FC07AF0010E7B6F2DEC99F051EFDF
:101420008BF0020EFB19D8A418EF8AF01AEF8AF09D
:1014300051EF83F0010EA8ECAFF00009D8B423EF10
:101440008AF025EF8AF037EF8AF0000120EE03F0F2
:101450007E51D9267F51DA2210EE03F07E51E1262B
:101460007F51E222E750050FDF6E52EF8AF0000E47
:10147000A8ECAFF00009D8B440EF8AF042EF8AF050
:1014800052EF8AF0000120EE03F07E51D9267F5101
:10149000DA2210EE03F07E51E1267F51E222E7507E
:1014A000FB0FDF6E000120EE03F07E51D9267F5145
:1014B000DA22040EDF605FEF8AF061EF8AF06BEFF3
:1014C0008AF020EE03F07E51D9267F51DA222D0ECC
:1014D000DF6E81EF8AF020EE03F07E51D9267F5136
:1014E000DA222E0EDF6477EF8AF079EF8AF081EF4F
:1014F0008AF020EE03F07E51D9267F51DA22050EC4
:10150000DF6E7EC079F07FC07AF0010E7B6FEEEC6B
:101510009FF051EF8BF0040EEB19D8A492EF8AF0F4
:1015200094EF8AF025EF8BF0000EA8ECAFF00009E5
:10153000D8B49DEF8AF09FEF8AF0A3EF8AF0000104
:10154000E807B0EF8AF0010EA8ECAFF00009D8B4BC
:10155000ACEF8AF0AEEF8AF0B0EF8AF00001E82B32
:101560000001E851D8A4B7EF8AF0B9EF8AF0BDEFD7
:101570008AF0030EE86FE4EF8AF0040EE819D8A4AD
:10158000C4EF8AF0C6EF8AF0CAEF8AF0010EE86F66
:10159000E4EF8AF0040EE865D0EF8AF0D2EF8AF02B
:1015A000D6EF8AF0020EE86FE4EF8AF0E4EF8AF0FB
:1015B000010EFC6FFDEF8AF0000EFC6FFDEF8AF06C
:1015C000020EFC6FFDEF8AF0E851806F816B815154
:1015D000000AD8B4EEEF8AF0FDEF8AF08051010ADC
:1015E000D8B4D8EF8AF0030AD8B4DCEF8AF0010A45
:1015F000D8B4E0EF8AF0FDEF8AF0FC05D8A403EF41
:101600008BF005EF8BF00AEF8BF0FC5117EC8FF0AD
:1016100039EF83F0FC51D8A410EF8BF012EF8BF070
:1016200017EF8BF0FC5117EC8FF04CEF83F0020EAC
:10163000FC19D8A41EEF8BF020EF8BF051EF83F054
:10164000FC5117EC8FF073EF83F0050EEB19D8A463
:101650002CEF8BF02EEF8BF051EF8BF0FC05D8A424
:1016600034EF8BF036EF8BF040EF8BF0FC51F2EC67
:1016700099F0010E0001EA6F020EFC6F51EF8BF042
:10168000020EFC19D8A447EF8BF049EF8BF051EF15
:101690008BF0FC51F2EC99F0020E0001EA6F010EA2
:1016A000FC6FA0ECACF0FCECADF0040EA8ECAFF0DD
:1016B0000009D8B45EEF8BF060EF8BF0B2EF8CF0E6
:1016C000FCECADF00001EB51D8A469EF8BF06BEFAF
:1016D0008BF082EF8BF0EA51D8A471EF8BF073EFAF
:1016E0008BF0B0EF8CF0010EEB6F000EFC6F7EC044
:1016F0007CF07FC07DF02AECA7F0000E0001E96FBE
:10170000B0EF8CF0EB05D8A488EF8BF08AEF8BF06C
:10171000C2EF8BF0050EFB19D8A491EF8BF093EF7D
:101720008BF0C2EF8BF0EA51D8A499EF8BF09BEFCE
:101730008BF0ABEF8BF0020EEB6F000EFC6F000E28
:10174000E96F020EE86F7EC07CF07FC07DF07FEC19
:10175000A6F0B0EF8CF0020EEA19D8A4B2EF8BF02D
:10176000B4EF8BF0B0EF8CF0000EEB6F010EFC6F5E
:101770007EC07BF07FC07CF0F6ECA2F07DEF8BF0BA
:10178000B0EF8CF0020EEB19D8A4C9EF8BF0CBEFC1
:101790008BF00DEF8CF0EA51D8A4D1EF8BF0D3EFA2
:1017A0008BF0E2EF8BF07EC07CF07FC07DF0B0EC80
:1017B000AAF0030E0001EB6F000EE96F020EE86F56
:1017C000B0EF8CF0EA05D8A4E8EF8BF0EAEF8BF0ED
:1017D000F7EF8BF0010EEB6F7EC07CF07FC07DF0E9
:1017E0002AECA7F0020E0001FC6F7DEF8BF0020ED9
:1017F000EA19D8A4FEEF8BF000EF8CF0C0EF8BF06D
:10180000000EEB6F7EC07BF07FC07CF0F6ECA2F0A8
:10181000010E0001FC6F7DEF8BF0030EEB19D8A4D5
:1018200014EF8CF016EF8CF04BEF8CF0EA51D8A44B
:101830001CEF8CF01EEF8CF029EF8CF07EC07CF05A
:101840007FC07DF005ECA5F0040E0001EB6FDCEF2E
:101850008BF0EA05D8A42FEF8CF031EF8CF040EF3D
:101860008CF0020EEB6F7EC07CF07FC07DF07FECD1
:10187000A6F0000E0001E96F010EE86FB0EF8CF0EA
:10188000020EEA19D8A447EF8CF049EF8CF0C0EFB4
:101890008BF000EF8CF0040EEB19D8A452EF8CF013
:1018A00054EF8CF088EF8CF0EA51D8A45AEF8CF00A
:1018B0005CEF8CF06BEF8CF07EC07CF07FC07DF035
:1018C000CEECA3F0050E0001EB6F000EE96F020EE7
:1018D000FC6FB0EF8CF0EA05D8A471EF8CF073EFD9
:1018E0008CF07DEF8CF0030EEB6F7EC07CF07FC040
:1018F0007DF0B0ECAAF039EF8CF0020EEA19D8A412
:1019000084EF8CF086EF8CF0C0EF8BF000EF8CF062
:10191000050EEB19D8A48FEF8CF091EF8CF0B0EF9F
:101920008CF0EA05D8A497EF8CF099EF8CF0A5EF36
:101930008CF0040EEB6F020EFC6F7EC07CF07FC05B
:101940007DF005ECA5F039EF8CF0020EEA19D8A471
:10195000ACEF8CF0AEEF8CF0B0EF8CF0B4EF8BF01E
:10196000A0ECACF012000F6E000E126E12C01DF053
:101970001DC01AF01AC017F017C016F016C01CF0E0
:101980001CC01BF01BC010F010C011F011C013F0F0
:1019900013C018F0196AD7C013F0D8C010F010C0E7
:1019A00011F0200E0F5E0001DC51DE03F3CF09F0D1
:1019B000F4CF0AF0010E0924016E000E0A20026E17
:1019C0000FC003F0046A24ECB0F001C014F002C0B0
:1019D00015F014500001DA25096E1550DB210A6E4E
:1019E00009C0F6FF0AC0F7FF000EF86E0800F5CF39
:1019F00016F0144A152AD75116241D6E7F0E1D6449
:101A000004EF8DF006EF8DF009EF8DF01D50800F83
:101A1000165ED851070B1A6EDD511AC009F00A6A1A
:101A20000926000E0A22DE51080D0950F35CF4501D
:101A3000800A0B6E0A50800A0B58D8B022EF8DF046
:101A400024EF8DF028EF8DF0DE29176E2AEF8DF050
:101A5000DEC017F0D8C001F0026A000E046E080E56
:101A6000036E69ECA5F0015017241D6E080E1D646D
:101A70003CEF8DF03EEF8DF041EF8DF01D50F80FF3
:101A8000175E14C018F015C019F0000E1C6E05EF9B
:101A90008FF011C002F01350D9ECB0F0000E1B6EA5
:101AA000D3EF8EF01C50D8A458EF8DF05AEF8DF084
:101AB000BEEF8DF00001E051D8A461EF8DF063EF2F
:101AC0008DF07FEF8DF0DE511B02F3CF09F0F4CFE4
:101AD0000AF00950DA250B6E0A50DB210C6E185003
:101AE0000B2619500C220BC0F6FF0CC0F7FF000E9E
:101AF000F86E0800F550FF0A1D6E98EF8DF0DE516C
:101B00001B02F3CF09F0F4CF0AF00950DA250B6E6F
:101B10000A50DB210C6E18500B2619500C220BC0FA
:101B2000F6FF0CC0F7FF000EF86E0800F5CF1DF0B1
:101B30001A28096E9EEF8DF0D8901D36092E9CEF65
:101B40008DF00001E051D8A4A8EF8DF0AAEF8DF040
:101B5000A9EF8EF01A500808096EFF0E0A6E000EEB
:101B60000B6E092AB7EF8DF00B340B320A32092EB7
:101B7000B4EF8DF00A501D12A9EF8EF00001E05174
:101B8000D8A4C5EF8DF0C7EF8DF0EDEF8DF0DE51ED
:101B90001B02F3CF09F0F4CF0AF00950DA250B6EDF
:101BA0000A50DB210C6E1C500B26000E0C22185024
:101BB0000B2619500C22FF0E0B240D6EFF0E0C206D
:101BC0000E6E0DC0F6FF0EC0F7FF000EF86E080097
:101BD000F550FF0A1D6E10EF8EF0DE511B02F3CFA1
:101BE00009F0F4CF0AF00950DA250B6E0A50DB2118
:101BF0000C6E1C500B26000E0C2218500B26195090
:101C00000C22FF0E0B240D6EFF0E0C200E6E0DC06D
:101C1000F6FF0EC0F7FF000EF86E0800F5CF1DF0BE
:101C20001A500808096E09280A6E19EF8EF0D8902C
:101C30001D320A2E17EF8EF0010E0001DE6523EF34
:101C40008EF025EF8EF075EF8EF0E051D8A42BEFDB
:101C50008EF02DEF8EF04DEF8EF0DE511B02F3CFA4
:101C600009F0F4CF0AF00950DA250B6E0A50DB2197
:101C70000C6E1C500B26000E0C2218500B2619500F
:101C80000C220BC0F6FF0CC0F7FF000EF86E080028
:101C9000F550FF0A126E6AEF8EF0DE511B02F3CF91
:101CA00009F0F4CF0AF00950DA250B6E0A50DB2157
:101CB0000C6E1C500B26000E0C2218500B261950CF
:101CC0000C220BC0F6FF0CC0F7FF000EF86E0800E8
:101CD000F5CF12F01A28096E70EF8EF0D8901236F8
:101CE000092E6EEF8EF012501D120001E051D8A4A3
:101CF0007CEF8EF07EEF8EF0A9EF8EF01C50096E17
:101D00000A6AFF0E17240B6E0C6AFF0E0C22095094
:101D10000B1807E10A500C18D8A491EF8EF093EF3E
:101D20008EF0A9EF8EF01A50D8B499EF8EF09BEF99
:101D30008EF0A9EF8EF01AC009F0FF0E0A6E092A84
:101D4000A4EF8EF0D8900A36092EA2EF8EF00A503A
:101D50001D120001DF05D8A4B0EF8EF0B2EF8EF0B7
:101D6000C8EF8EF0E051D8A4B8EF8EF0BAEF8EF045
:101D7000C2EF8EF0D8C001F0D751DEECAFF01D16E7
:101D8000C8EF8EF0D8C001F0D751DEECAFF01D12D5
:101D9000D8C001F01DC002F00001D751C4ECAFF073
:101DA0000001D72B1B2A16501B5CD8A0DAEF8EF04F
:101DB000DCEF8EF052EF8DF00001DF51D8A4E3EF9D
:101DC0008EF0E5EF8EF0F4EF8EF0E051D8A4EBEF5B
:101DD0008EF0EDEF8EF0F0EF8EF01D68FAEF8EF0E2
:101DE000000E1D6EFAEF8EF0D8C001F0D751DEEC78
:101DF000AFF01D6ED8C001F01DC002F00001D75138
:101E0000C4ECAFF0080E11261C2A17501C5CD8A099
:101E10000CEF8FF00EEF8FF049EF8DF010C002F055
:101E200013501624096E0928D9ECB0F01200266E62
:101E30002604D8A41EEF8FF020EF8FF0A4EF8FF0D0
:101E4000330E1C6E1A0E1D6E3F0E1E6EFF0E1F6EA1
:101E5000000E49ECB0F04A0E096EFB0E0A6E050E3C
:101E60000B6E080E0C6E010E0D6E000E0E6E22EC47
:101E7000AAF0360E026E020ED9ECB0F0C70E1E6E3E
:101E8000FF0E1F6ED9ECA9F0330E1C6E370E1D6EBF
:101E90003F0E1E6E000E1F6E1D0E49ECB0F0330E8D
:101EA000216E370E226E3F0E236EFF0E246E1D0E26
:101EB0006AECAAF04A0E096EFB0E0A6E050E0B6E56
:101EC000080E0C6E010E0D6E010E0E6E22ECAAF0C5
:101ED000360E026E1F0ED9ECB0F0CC0E1E6EFF0E49
:101EE0001F6ED9ECA9F0330E1C6E730E1D6E3F0EE3
:101EF0001E6E000E1F6E3A0E49ECB0F0330E216ECE
:101F0000730E226E3F0E236EFF0E246E3A0E6AECA5
:101F1000AAF04A0E096EFB0E0A6E050E0B6E080E35
:101F20000C6E010E0D6E010E0E6E22ECAAF0360E36
:101F3000026E3C0ED9ECB0F0460E1E6EFF0E1F6E08
:101F4000D9ECA9F054EF91F02650D8A4AAEF8FF065
:101F5000ACEF8FF030EF90F0330E1C6E1A0E1D6E4A
:101F60003F0E1E6E000E1F6E000E49ECB0F0330ED9
:101F7000216E1A0E226E3F0E236EFF0E246E000E8F
:101F80006AECAAF04A0E096EFB0E0A6E050E0B6E85
:101F9000080E0C6E010E0D6E010E0E6E22ECAAF0F4
:101FA000360E026E020ED9ECB0F0C70E1E6EFF0E9A
:101FB0001F6ED9ECA9F0330E1C6E370E1D6E3F0E4E
:101FC0001E6EFF0E1F6E1D0E49ECB0F04A0E096E1C
:101FD000FB0E0A6E050E0B6E080E0C6E010E0D6EDA
:101FE000000E0E6E22ECAAF0360E026E1F0ED9EC19
:101FF000B0F0CC0E1E6EFF0E1F6ED9ECA9F0330EA2
:102000001C6E730E1D6E3F0E1E6E000E1F6E3A0E7E
:1020100049ECB0F0330E216E730E226E3F0E236E2C
:10202000FF0E246E3A0E6AECAAF04A0E096EFB0E01
:102030000A6E050E0B6E080E0C6E010E0D6E010E73
:102040000E6E22ECAAF0360E026E3C0ED9ECB0F009
:10205000460E1E6EFF0E1F6ED9ECA9F054EF91F0E4
:10206000020E2618D8A437EF90F039EF90F0BDEFAC
:1020700090F0330E1C6E1A0E1D6E3F0E1E6E000E7B
:102080001F6E000E49ECB0F0330E216E1A0E226E58
:102090003F0E236EFF0E246E000E6AECAAF04A0E6D
:1020A000096EFB0E0A6E050E0B6E080E0C6E010E0D
:1020B0000D6E010E0E6E22ECAAF0360E026E020EAE
:1020C000D9ECB0F0C70E1E6EFF0E1F6ED9ECA9F052
:1020D000330E1C6E370E1D6E3F0E1E6E000E1F6EF1
:1020E0001D0E49ECB0F0330E216E370E226E3F0EFE
:1020F000236EFF0E246E1D0E6AECAAF04A0E096EC6
:10210000FB0E0A6E050E0B6E080E0C6E010E0D6EA8
:10211000010E0E6E22ECAAF0360E026E1F0ED9ECE6
:10212000B0F0CC0E1E6EFF0E1F6ED9ECA9F0330E70
:102130001C6E730E1D6E3F0E1E6EFF0E1F6E3A0E4E
:1021400049ECB0F04A0E096EFB0E0A6E050E0B6EDE
:10215000080E0C6E010E0D6E000E0E6E22ECAAF033
:10216000360E026E3C0ED9ECB0F0460E1E6EFF0E1F
:102170001F6ED9ECA9F054EF91F02604D8A4C3EF58
:1021800090F0C5EF90F054EF91F0330E1C6E1A0EE4
:102190001D6E3F0E1E6E000E1F6E000E49ECB0F05D
:1021A000330E216E1A0E226E3F0E236EFF0E246E2A
:1021B000000E6AECAAF04A0E096EFB0E0A6E050EBE
:1021C0000B6E080E0C6E010E0D6E010E0E6E22ECE3
:1021D000AAF0360E026E020ED9ECB0F0C70E1E6EDB
:1021E000FF0E1F6ED9ECA9F0330E1C6E370E1D6E5C
:1021F0003F0E1E6E000E1F6E1D0E49ECB0F0330E2A
:10220000216E370E226E3F0E236EFF0E246E1D0EC2
:102210006AECAAF04A0E096EFB0E0A6E050E0B6EF2
:10222000080E0C6E010E0D6E010E0E6E22ECAAF061
:10223000360E026E1F0ED9ECB0F0CC0E1E6EFF0EE5
:102240001F6ED9ECA9F0330E1C6E730E1D6E3F0E7F
:102250001E6E000E1F6E3A0E49ECB0F0330E216E6A
:10226000730E226E3F0E236EFF0E246E3A0E6AEC42
:10227000AAF04A0E096EFB0E0A6E050E0B6E080ED2
:102280000C6E010E0D6E010E0E6E22ECAAF0360ED3
:10229000026E3C0ED9ECB0F0460E1E6EFF0E1F6EA5
:1022A000D9ECA9F054EF91F01200000E136E00016A
:1022B000E65109E10A0EE55DD8A061EF91F063EF08
:1022C00091F064EF93F057EF93F01350090DF3CFB3
:1022D00008F0F4CF09F008500001EC250A6E09500F
:1022E000ED210B6E060E0A24D96E000E0B20DA6E5D
:1022F00002D885EF91F00500FA6EDE50FD6EDE50DB
:10230000FE6EDE50FF6EFA5012000009D8B48BEF5B
:1023100091F08EEF91F0010E8FEF91F0000E126EA2
:102320001204D8A496EF91F098EF91F069EF92F033
:102330001350090DF3CF08F0F4CF09F00850000155
:10234000EC25D96E0950ED21DA6EDFB8AAEF91F0D5
:10235000ACEF91F0DCEF91F0EEC001F0EF51D0EC7A
:10236000ACF0086E1350090DF3CF09F0F4CF0AF06A
:1023700009500001EC250B6E0A50ED210C6E010E88
:102380000B24D96E000E0C20DA6EDF2A0850DE5CBA
:10239000D8A0CDEF91F0CFEF91F0DCEF91F013509A
:1023A000090DF3CF08F0F4CF09F00850EC25D96EF1
:1023B0000950ED21DA6EDF881350090DF3CF08F0D4
:1023C000F4CF09F00850EC25D96E0950ED21DA6EF2
:1023D000DFA8EDEF91F0EFEF91F052EF92F0135094
:1023E000090DF3CF08F0F4CF09F00850EC25D96EB1
:1023F0000950ED21DA6EDF30E832030BE806D8A48D
:1024000004EF92F006EF92F052EF92F01350090DA4
:10241000F3CF08F0F4CF09F00850EC250A6E09500C
