:040000002EEF00F0EF
:100008005F82F2A40AEF00F00CEF00F02CEF00F092
:10001800FD0ED76E110ED66E0001E54BE62B0101E1
:10002800104B112BE80E105D030E1159D8A01FEFCD
:1000380000F021EF00F02BEF00F0000E116F000E22
:10004800106F010E0C27000E0D230E230F23F294C0
:080058005F92110098EFBDF06A
:10CA1000004361703A3534306D4168004379636C8E
:10CA2000653A322F34004375723A3233306D41002B
:10CA3000566F6C3A332C333556000E000000000060
:10CA400000000000000000000000000000000000E6
:10CA500000000000000000000000000000000000D6
:10CA600000000000000000000000000000000000C6
:10CA700000000000000000000000000000000000B6
:10CA800000000000000000000000000000000000A6
:10CA90000000000000000000000000000000000096
:10CAA0000000000000000005000000000000000081
:10CAB000FC7F0E00FC7F0F00FC7F070000000000E1
:10CAC0000000000000000000000000000000000066
:10CAD0000000000000000000000000000000000056
:10CAE0000000000000000000000000000000000046
:10CAF0000000000000000000000000000000000036
:10CB00000000000000000000000000000000000025
:10CB100000000000090000000000000000FC01000F
:10CB200000FC010000000000000000000000000008
:10CB300000FC010000FC01000000000000000000FB
:10CB400000000000000000000000000000000000E5
:10CB500000000000000000000000000000000000D5
:10CB600000000000000000000000000000000000C5
:10CB700000000000000000000000000000000000B5
:10CB80000011000000000060000080610000806172
:10CB90000C0080E10F0080FD0F00807F0000F86F27
:10CBA0000000FC610C008CE10F0080FD0F00807F15
:10CBB0000000F86F0000FC6100008C610000802123
:10CBC00000008001000000000000000000000000E4
:10CBD0000000000000000000000000000000000055
:10CBE0000000000000000000000000000000110034
:10CBF00000000000830100C0C70300E08F03007045
:10CC00000C0700300C0600180C060018040600FF84
:10CC1000FF7F00FEFF3F00180606001806030018FD
:10CC20000603003886030070FE010070FC0000005F
:10CC3000780000000000000000000000000000007C
:10CC400000000000000000000000000000000000E4
:10CC500000000000000000000000001500000000BF
:10CC6000E0000000F0010000F80300001C030400D5
:10CC70000C030E008C830F00FCC10300F8F00000D1
:10CC8000707C0000001E000080070300E0830700A6
:10CC9000F0C00F003CC00C001C600C0008600C00D1
:10CCA0000060060000E0070000C0030000800100F3
:10CCB0000000000000000000000000000000000074
:10CCC0000000000000000000160000000000E0036B
:10CCD0000000F0070000F80700701C0E00F80E0CB2
:10CCE00000F80F0C00DC070C008C070C000C0F0C7C
:10CCF000000C1F06008C1F0600CC390700F87103DA
:10CD000000F8F0030070E0010000E0010000F8030B
:10CD100000003C070000180E0000000E0000000795
:10CD20000000000000000000000000000000000003
:10CD30000000000000040000000000000000FC01F2
:10CD40000000FC01000000000000000000000000E6
:10CD500000000000000000000000000000000000D3
:10CD600000000000000000000000000000000000C3
:10CD700000000000000000000000000000000000B3
:10CD800000000000000000000000000000000000A3
:10CD90000000000000000000000000000000000093
:10CDA00000000B000000000000000000FC03000079
:10CDB000FF1F00C0FF3F00E003FC00F000E001386F
:10CDC00000C0013C0080031C00800308000000003C
:10CDD0000000000000000000000000000000000053
:10CDE0000000000000000000000000000000000043
:10CDF0000000000000000000000000000000000033
:10CE00000000000000000000000000000000000A18
:10CE100000000000080000001C0080033C008003AC
:10CE20003800C001F000F001E003FC00C0FF3F004B
:10CE300000FF1F0000FC03000000000000000000D5
:10CE400000000000000000000000000000000000E2
:10CE500000000000000000000000000000000000D2
:10CE600000000000000000000000000000000000C2
:10CE70000000000000000000000000000A000000A8
:10CE800000C0000000C00000004C020000D80300F9
:10CE900000F0010000FC000000AC010000300300C5
:10CEA0000030000000000000000000000000000052
:10CEB0000000000000000000000000000000000072
:10CEC0000000000000000000000000000000000062
:10CED0000000000000000000000000000000000052
:10CEE0000000000000000000000E000000000040F4
:10CEF00000000060000000600000006000000060B2
:10CF0000000000FF0F0000FF0F0000FF0F00006097
:10CF10000000006000000060000000600000006091
:10CF20000000000000000000000000000000000001
:10CF300000000000000000000000000000000000F1
:10CF400000000000000000000000000000000000E1
:10CF50000000000000000500000000000066000066
:10CF6000006F0000003F0000001E000000000000F5
:10CF700000000000000000000000000000000000B1
:10CF800000000000000000000000000000000000A1
:10CF90000000000000000000000000000000000091
:10CFA0000000000000000000000000000000000081
:10CFB0000000000000000000000000000000000071
:10CFC0000000000A000000000030000000700000B7
:10CFD0000030000000300000003000000030000091
:10CFE00000300000003000000030000000000000B1
:10CFF0000000000000000000000000000000000031
:10D000000000000000000000000000000000000020
:10D010000000000000000000000000000000000010
:10D020000000000000000000000000000000000000
:10D0300005000000000000000000000E0000000FCE
:10D0400000000007000000000000000000000000D9
:10D0500000000000000000000000000000000000D0
:10D0600000000000000000000000000000000000C0
:10D0700000000000000000000000000000000000B0
:10D0800000000000000000000000000000000000A0
:10D09000000000000000000000000000000B000085
:10D0A00000000000040000000F0000C00F0000F8A6
:10D0B0000100007E0000801F0000E0070000FC016E
:10D0C00000007C0000001C000000000000000000C8
:10D0D0000000000000000000000000000000000050
:10D0E0000000000000000000000000000000000040
:10D0F0000000000000000000000000000000000030
:10D100000000000000000000000016000000000009
:10D11000F8010000FF030080FF0700C0030700E0E4
:10D12000010E0070000C0030000C0038000C0018DC
:10D13000000C0008000C000C000C000C0006000C99
:10D140000006000C0007000C0003001C8003001800
:10D15000C0010038F00000F07F0000E03F0000C098
:10D160000F000000000000000000000000000000B0
:10D17000000000000000001000000000000000009F
:10D18000000000000000000000010000800300001B
:10D19000C0030000C0010000E0000000E00000004B
:10D1A000700000007000000038000000F8FF0F0061
:10D1B000FCFF0F00FCFF0F0000000000000000005B
:10D1C000000000000000000000000000000000005F
:10D1D000000000000000000000000000000000004F
:10D1E000000000001400000000000000000000002B
:10D1F00000E0000E00E0000F00F0C00F0038E00D6E
:10D200000018E00C0018700C000C300C000C380CEE
:10D21000000C380C000C1C0C000C1C0C000C0C0C32
:10D22000000C0E0C00180F0C00F8070E00F8030F8E
:10D2300000E0010E000000000000000000000000FF
:10D2400000000000000000000000000000000000DE
:10D250000015000000000000000000C003007CC0BA
:10D2600007007CC007007C000E000C000C000C00C6
:10D270000C000C0E0C000C060C000C070C000C072C
:10D280000C008C030C00CC030600EC0306007C03AE
:10D2900006003C0303001CC703000CFE010000FE57
:10D2A0000000007C00000000000000000000000002
:10D2B0000000000000000000000000000000160058
:10D2C000C0000000E0000000F0000000F8000000D6
:10D2D000F8000000FC000000EE0000006700008085
:10D2E000630000C0610000E0600000706000003872
:10D2F000700000FCFF0F00FCFF0F00FCFF0F0000A0
:10D300003000000030000000300000003800000055
:10D31000380000003800000000000000000000009D
:10D3200000000000000000000000001500000000E8
:10D330000000000000080300F81F0700F81F0700A6
:10D34000F80D0E00080E0C0008060C0008060C0074
:10D3500008020C0008030C0008030C0008030C0072
:10D36000080306000C0306000C0307000C0703006B
:10D370000CC603000CFE010000FC00000078000059
:10D38000000000000000000000000000000000009D
:10D3900000000000000000001600000000007800FF
:10D3A0000000FE030080FF0300C0C70700E0E107A4
:10D3B0000060700E0070300C0038380C00181C0C27
:10D3C00000180C0C000C0C0C000C060C000C060ECB
:10D3D000000C0606000C0606000C0607000C0603EF
:10D3E00000388E030078FC010030FC00000078005B
:10D3F000000000000000000000000000000000002D
:10D400000000000000160000000000000000000006
:10D410000000F8010000FC010000FC0000000C000E
:10D4200000000C0000000C0000000C000E000C803E
:10D430000F000CE007000CF001000CFC00000C3E9B
:10D4400000008C1F0000EC070000FC030000FC0043
:10D4500000003C0000000C00000004000000000080
:10D4600000000000000000000000000000000000BC
:10D470000000160000000000C0010000E0030000F2
:10D48000F00700C0790600F03B0E00F81F0C0038D2
:10D490000E0C00180C0C001C0C0C000C060C000CE4
:10D4A000060C000C0606000C0606000C0606001C06
:10D4B000070300F8070300F886030070CE010000A0
:10D4C000FC000000FC00000038000000000000002C
:10D4D0000000000000000000000000000000001636
:10D4E000000000000000010080830300E0870700C7
:10D4F000F00F0700700C0E00381C0C0018180C0000
:10D500001C180C000C180C000C180C000C180C004B
:10D510000C1804000C0C06000C0C06001C0C070078
:10D520001886030038C70300F0E30100F0FF000095
:10D53000E07F0000001F000000000000000000006D
:10D5400000000000000000000000000005000000D6
:10D550000000000000000C0E00001E0F00000C0771
:10D5600000000000000000000000000000000000BB
:10D5700000000000000000000000000000000000AB
:10D58000000000000000000000000000000000009B
:10D59000000000000000000000000000000000008B
:10D5A000000000000000000000000000000000007B
:10D5B0000000000000000000000500000000000066
:10D5C0006600000C6F00001E3F00000E1E000000F1
:10D5D000000000000000000000000000000000004B
:10D5E000000000000000000000000000000000003B
:10D5F000000000000000000000000000000000002B
:10D60000000000000000000000000000000000001A
:10D61000000000000000000000000000000000000A
:10D620000000000000000D000000000000000000ED
:10D630006000000070000000F0000000F801000031
:10D64000D80100009C0300000C0300000E0700003E
:10D65000070E0000070E000002020000000000009C
:10D6600000000000000000000000000000000000BA
:10D6700000000000000000000000000000000000AA
:10D68000000000000000000000000000000000009A
:10D690000000000D00000000008C0100008C010063
:10D6A000008C0100008C0100008C0100008C010046
:10D6B000008C0100008C0100008C0100008C010036
:10D6C000008C0100008C0100000000000000000040
:10D6D000000000000000000000000000000000004A
:10D6E000000000000000000000000000000000003A
:10D6F000000000000000000000000000000000002A
:10D700000D00000000000000000002020000070EF3
:10D710000000070E00000E0700000C0300009C0331
:10D720000000D8010000F8010000F00000007000C7
:10D730000000600000000000000000000000000089
:10D7400000000000000000000000000000000000D9
:10D7500000000000000000000000000000000000C9
:10D7600000000000000000000000000000100000A9
:10D7700000002000000070000000F0000000787041
:10D78000000018F8000018FC1C000CDC1E000CCE79
:10D790000E000CC700000CF700008C730000DC21A9
:10D7A0000000F8010000F800000070000000000018
:10D7B0000000000000000000000000000000000069
:10D7C0000000000000000000000000000000000059
:10D7D000000000000000000000001B00000000002E
:10D7E00080070000E01F0000783800001C300000B7
:10D7F0000E70000006670000C3670080E36F0080C2
:10D80000716C0080396C00C0186C00C00C6600C0E0
:10D810000C36006004330060863B006086110060B7
:10D82000C6070060FE0F0060FE0F00600E0C006077
:10D83000000C00C0000600C0010600808303000049
:10D84000FF0100007C00001500000E0000800F00AA
:10D8500000C00F0000F0010000780000003E000052
:10D86000001F0000801F0000E01B0000F8180000EF
:10D870007C1800007C180000F8180000E01B000075
:10D88000801F0000001F0000007C000000F8010065
:10D8900000E00F0000800F0000000E0000000000FC
:10D8A0000000000000000000000000000000000078
:10D8B00000000000150000000000000000F8FF0F4D
:10D8C00000FCFF0F00F8FF0F0018060C0018060CF4
:10D8D0000018070C000C0704000C0306000C0306DC
:10D8E000008C0306008C030700CC030300CC030369
:10D8F00000FC83030078C3010038E7010000FE004C
:10D9000000007E0000001C0000000000000000007D
:10D910000000000000000000000000000000000007
:10D92000001200000000007C000000FF0100C0FFAA
:10D930000700E0830700F0000E0030000E00380002
:10D940000C0018000C000C000C000C000C000C006B
:10D950000C000C0006000C0007000C00070018C0AB
:10D96000030038C0010038C00100000000000000C2
:10D9700000000000000000000000000000000000A7
:10D980000000000000000000000000000000150082
:10D9900000000000000000FCFF0F00FCFF0F00FC77
:10D9A000FF0F0038000C0018000C0018000C001CC1
:10D9B0000006000C0006000C0006000C0007000C1E
:10D9C0000003000C8003000C8003001CC001001841
:10D9D000E0010078F80000F07F0000E01F0000C0C8
:10D9E0000700000000000000000000000000000030
:10D9F0000000000000000000000000130000000014
:10DA000010000000FCFF0F00FCFF0F00FCFF0F00E8
:10DA1000180C0600180C0600180C0600180C06005E
:10DA2000180C0600180C0600180C0600180C06004E
:10DA3000180E06001C0E06001C0406001C00070041
:10DA400000000700000002000000000000000000CD
:10DA500000000000000000000000000000000000C6
:10DA600000000000000000001100000000000000A5
:10DA700000F8FF0F00FCFF0F00FCFF0F00381C0038
:10DA800000381C0000380C0000180C0000180C00B6
:10DA900000180C0000180C0000180E00001C0E00EE
:10DAA000001C0E00001C0E00001C00000000000006
:10DAB0000000000000000000000000000000000066
:10DAC0000000000000000000000000000000000056
:10DAD0000000000000170000000000F8000000FE39
:10DAE000010080FF0300C0870700E0010600E0009E
:10DAF0000E0070000C0030000C0038000C00180004
:10DB00000C0018000C000C100C000C1806000C186F
:10DB100006000C1806000C1803000C9803001CCC1F
:10DB2000010018EC010038FC0000107C0000001C13
:10DB300000000000000000000000000000000000E5
:10DB400000001400000000000C0000FCFF0F00FCAF
:10DB5000FF0F00FCFF0F00000E0000000E00000091
:10DB60000E0000000E0000000E0000000E0000007D
:10DB70000E00000006000000060000000600000085
:10DB800006000000060000FCFF0F00FCFF0F00FC79
:10DB9000FF0F000000000000000000000000000077
:10DBA0000000000000000000000000000000000570
:10DBB0000000000000000000FCFF0F00FCFF0F0051
:10DBC000FCFF0F000000000000000000000000004B
:10DBD0000000000000000000000000000000000045
:10DBE0000000000000000000000000000000000035
:10DBF0000000000000000000000000000000000025
:10DC00000000000000000000000000000000000014
:10DC100000000000000000000000000010000000F4
:10DC2000000080030000C0070000C00F0000001CBF
:10DC30000000001800000018000000180000001884
:10DC4000000000180000001C0000000E0000000F83
:10DC500000FCFF0700FCFF0300FCFF0100000000C8
:10DC600000000000000000000000000000000000B4
:10DC700000000000000000000000000000000000A4
:10DC80000000000000000000001300000000000081
:10DC90000000FCFF0F00FCFF0F00FCFF0F00800FD7
:10DCA0000000800F0000C01D0000E0380000E07898
:10DCB00000007070000030E0000038C0010018C0A3
:10DCC00003000C8003000C00070000000E000000A1
:10DCD0000E00000004000000000000000000000032
:10DCE0000000000000000000000000000000000034
:10DCF0000000000000000F0000000000000000FC19
:10DD0000FF0F00FCFF0F00FCFF0F0000000E0000E3
:10DD1000000E0000000600000006000000060000E3
:10DD200000060000000700000007000000070000D8
:10DD300000070000000000000000000000000000DC
:10DD400000000000000000000000000000000000D3
:10DD500000000000000000000000000000000000C3
:10DD6000000000190000000000000000F8FF0F0094
:10DD7000FCFF0F00FCFF0F00F0010000C0030000DB
:10DD8000800F0000001E0000007C000000F8010071
:10DD900000E0070000800F0000800F0000E0070097
:10DDA00000F0010000F80000003C0000001E000030
:10DDB000000F0000C0030000E0010000FCFF0F00A6
:10DDC000FCFF0F00FCFF0F0000000000000000003F
:10DDD000130000000000000000FCFF0F00FCFF0F1C
:10DDE00000FCFF0F00F0010000C0030000800700EE
:10DDF00000000F0000001E0000003C000000380082
:10DE0000000070000000F0000000E0010000C0030E
:10DE100000FCFF0700FCFF0F00FCFF0F00000000EC
:10DE200000000000000000000000000000000000F2
:10DE300000000000000000000000000000150000CD
:10DE4000000000F8000000FE010080FF0300C08316
:10DE50000700E001060070000E0030000C003800E2
:10DE60000C0018000C000C000C000C000C000C0046
:10DE700006000C0006000C0007001C00030018C080
:10DE8000030078E00100F0FF0000E07F0000801F49
:10DE90000000000000000000000000000000000082
:10DEA000000000000000000000001300000000C09F
:10DEB000000000FCFF0F00FCFF0F00FCFF0F00380C
:10DEC0001C0000380C0000180C0000180C000008A2
:10DED0000E00000C0E00000C0600000C0700000CE9
:10DEE0000300008C030000CC010000FC010000F8DE
:10DEF00000000038000000000000000000000000EA
:10DF00000000000000000000000000000000000011
:10DF100000000000000000170000000000F80000F2
:10DF200000FE030080FF0700C0070700E0010E00AD
:10DF3000E0000C0070000C0030000C0018000C0019
:10DF400018000C000C200C000C700E000CF00600E9
:10DF50000CE006000CC007001CC003001CC007003A
:10DF600078F00700F0FF0E00E03F1C00C00F1C001F
:10DF70000000080000000000000000000000000099
:10DF8000000000001500000000E0000000FCFF0F92
:10DF900000FCFF0F00FCFF0F00381C0000183E00C3
:10DFA00000183E0000187600000C7600000CE60019
:10DFB000000CE300000CC300008CC301008C810145
:10DFC00000CC810300FC000300F8000700380006C5
:10DFD0000000000E0000000E000000000000000025
:10DFE0000000000000000000000000000000000031
:10DFF00000150000000000070300C0870700E00FC5
:10E000000700700C0E00300C0C00180C0C00180CE3
:10E010000C00180C0C000C040C000C040C000C067A
:10E020000E000C0606000C0606000C0607001C0677
:10E0300007003886030038C6030010FE010000FC0C
:10E040000000003800000000000000000000000098
:10E05000000000000000000000000000000012307E
:10E0600000000030000000300000003000000030F0
:10E070000000001000000010000000F8FF0F00F882
:10E08000FF0F00F8FF0F0018000000080000000854
:10E09000000000080000000C0000000C0000000C54
:10E0A0000000000C00000000000000000000000064
:10E0B0000000000000000000000000000000000060
:10E0C000000000000000000000000012000000003E
:10E0D00000000000FCFF0300FCFF0700F8FF070042
:10E0E00000000E0000000C0000000C0000000C00FE
:10E0F00000000C0000000C0000000E0000000600F4
:10E100000000070000000700FCFF0300FCFF010007
:10E11000FCFF000000000000000000000000000004
:10E1200000000000000000000000000000000000EF
:10E13000000000000000000013000000003C000090
:10E1400000FC010000F8070000C01F0000007F0075
:10E150000000F80F0000C00F0000C00F0000F0002A
:10E1600000007C0000001E0000000F0000C0030043
:10E1700000E0010000F0000000780000003C00001A
:10E180000018000000000000000000000000000077
:10E19000000000000000000000000000000000007F
:10E1A00000000000001B000000007C000000FC03D9
:10E1B0000000FC1F000000FF000000F80F0000E05E
:10E1C0000F0000C00F0000F0010000780000003ECA
:10E1D0000000800F0000F8030000F8000000F803C2
:10E1E0000000800F0000003E000000FC000000F076
:10E1F000070000800F0000C00F0000F80300007E41
:10E200000000801F0000FC070000FC0100003C0033
:10E21000000011000004001C000E003C000F007CF8
:10E22000C00700F8E00300F0F10000C07B000080B0
:10E230003F0000001F0000001F0000C07F0000E042
:10E24000F10000F0E0010078C003003C800F001CEA
:10E25000000F001800040000000000000000000093
:10E2600000000000000000000000000000000000AE
:10E270000000000000000000000000000000001589
:10E28000180000001C0000003C00000078000000A6
:10E29000F0000000E0010000C00100008003000069
:10E2A0000007000000FF0F0000FE0F0000FE0F003F
:10E2B0000007000080030000C0010000E001000032
:10E2C000E000000070000000380000003C0000008A
:10E2D0001C00000000000000000000000000000022
:10E2E000000000000000000000000000140000001A
:10E2F0000000000E0038000F003C800F001CC00F13
:10E30000000CC00D000CE00C000C700C000C380C64
:10E31000000C3C0C000C1E0C000C0F0C008C070CAD
:10E3200000CC030C00EC010C00EC000C00FC000C19
:10E33000007C000E003C000F001C000600000000E6
:10E3400000000000000000000000000000000000CD
:10E350000000000000000000000C000000000000B1
:10E36000000000000000F8FFFF03FCFFFF03FCFFBC
:10E37000FF030C0000030C0000030C0000030C0062
:10E3800000030C00800300000001000000000000FA
:10E39000000000000000000000000000000000007D
:10E3A000000000000000000000000000000000006D
:10E3B000000000000000000000000000000000005D
:10E3C0000000000000000B080000001C0000007CA2
:10E3D000000000F0010000C0070000001F00000066
:10E3E0007C000000F0010000C00F0000000F0000E2
:10E3F0000004000000000000000000000000000019
:10E40000000000000000000000000000000000000C
:10E4100000000000000000000000000000000000FC
:10E4200000000000000000000000000000000000EC
:10E4300000000009000000000C0000030C000003B5
:10E440000C0000030C0000030C000003FCFFFF03A2
:10E45000FCFFFF03FCFFFF030000000000000000C2
:10E4600000000000000000000000000000000000AC
:10E47000000000000000000000000000000000009C
:10E48000000000000000000000000000000000008C
:10E49000000000000000000000000000000000007C
:10E4A0000D000000000001000080030000C0030018
:10E4B00000E0010000F0000000780000001C0000F7
:10E4C000007C000000F0000000E0030000C003003A
:10E4D0000000030000000000000000000000000039
:10E4E000000000000000000000000000000000002C
:10E4F000000000000000000000000000000000001C
:10E50000000000000000000000000000000D0000FE
:10E51000C0000000C0000000C0000000C0000000FB
:10E52000C0000000C0000000C0000000C0000000EB
:10E53000C0000000C0000000C0000000C0000000DB
:10E54000C00000000000000000000000000000000B
:10E5500000000000000000000000000000000000BB
:10E5600000000000000000000000000000000000AB
:10E570000000000000000000000008000000000093
:10E580000000000C0000001C00000018000000301B
:10E5900000000060000000600000000000000000BB
:10E5A000000000000000000000000000000000006B
:10E5B000000000000000000000000000000000005B
:10E5C000000000000000000000000000000000004B
:10E5D000000000000000000000000000000000003B
:10E5E000000000000000000F000000000000060016
:10E5F00000800F0000CC0F0000CE0C0000C60C0005
:10E6000000660C00006304000023060000330600CF
:10E610000033030000B3010000FF0F0000FE0F00F5
:10E6200000FE0F00000000000000000000000000DD
:10E6300000000000000000000000000000000000DA
:10E6400000000000000000000000000000000000CA
:10E6500000000000100000000000000000FCFF0FA0
:10E6600000FCFF0F00FCFF0F00001C0C00000E0C54
:10E6700000000606000006060000020300008303F7
:10E680000000C3010000E30000007F0000003F0025
:10E6900000000E000000000000000000000000006C
:10E6A000000000000000000000000000000000006A
:10E6B000000000000000000000000000000000005A
:10E6C000000F0000000000E0030000F0070000F869
:10E6D0000700003C0E00000E0C0000060C000007B6
:10E6E0000C0000030C0000030C00000306000003F4
:10E6F0000700008707000086030000860100000075
:10E700000000000000000000000000000000000009
:10E7100000000000000000000000000000000000F9
:10E7200000000000000000000000000000001000D9
:10E730000000000080070000C0070000E00F00009C
:10E74000780C0000380C00001C0C00000C0C0000C1
:10E750000C06000006060000060300008603000009
:10E76000C60100FCFF0F00FCFF0F00FCFF0F0000C4
:10E770000000000000000000000000000000000099
:10E780000000000000000000000000000000000089
:10E790000000000000000000000000100000000069
:10E7A00000C0030000F0070000F80F00007C0E001E
:10E7B000006C0C0000660C0000660C0000330C00BE
:10E7C00000330C0000330E00003306000033060057
:10E7D000009E0300009E0300000C010000000000EA
:10E7E0000000000000000000000000000000000029
:10E7F0000000000000000000000000000000000019
:10E8000000000000000000000D00040000000C00EB
:10E8100000000C0000000C0000C0FF0F00F0FF0F14
:10E8200000F8FF0F001C0600000C0600000C06009C
:10E83000000C060000380700001807000000000068
:10E8400000000000000000000000000000000000C8
:10E8500000000000000000000000000000000000B8
:10E8600000000000000000000000000000000000A8
:10E8700000000000000F000000000080070000E022
:10E880000F0000F0CF010078CC01001C8C03000CBD
:10E890000C0300060603000607030002030300C37F
:10E8A000830300F3C00100FFFF0100FFFF0000FF32
:10E8B0003F00000000000000000000000000000019
:10E8C0000000000000000000000000000000000048
:10E8D0000000000000000000000000000000000038
:10E8E00000000F0000000000000000FCFF0F00FC13
:10E8F000FF0F00FCFF0F00001C0000000E000000D6
:10E9000006000000060000000300000003000000F5
:10E9100003000000FF0F0000FF0F0000FE0F0000CB
:10E9200000000000000000000000000000000000E7
:10E9300000000000000000000000000000000000D7
:10E9400000000000000000000000000000000005C2
:10E95000000000000000000070FF0F0078FF0F00B3
:10E9600038FF0F0000000000000000000000000061
:10E970000000000000000000000000000000000097
:10E980000000000000000000000000000000000087
:10E990000000000000000000000000000000000077
:10E9A0000000000000000000000000000000000067
:10E9B0000000000000000000000000000600000051
:10E9C000060000000700FFFF0318FFFF033CFFFFE6
:10E9D000011C00000000000000000000000000001A
:10E9E0000000000000000000000000000000000027
:10E9F0000000000000000000000000000000000017
:10EA00000000000000000000000000000000000006
:10EA100000000000000000000000000000000000F6
:10EA20000000000000000000000E000000000000D8
:10EA30000000FCFF0F00FCFF0F00FCFF0F00007048
:10EA4000000000F8000000DC010000DC0100008E86
:10EA50000300000707008007070080030E00000185
:10EA60000C0000000000000000000000000000009A
:10EA70000000000000000000000000000000000096
:10EA80000000000000000000000000000000000086
:10EA9000000000000000050000000000000000FC75
:10EAA000FF0F00FCFF0F00FCFF0F00000000000044
:10EAB0000000000000000000000000000000000056
:10EAC0000000000000000000000000000000000046
:10EAD0000000000000000000000000000000000036
:10EAE0000000000000000000000000000000000026
:10EAF0000000000000000000000000000000000016
:10EB000000000018000000000000000000FF0F00DF
:10EB100000FF0F0000FF0F00001C0000000C0000B1
:10EB200000060000000600000002000000030000D4
:10EB300000FF0F0000FF0F0000FE0F000018000094
:10EB4000000C0000000C00000006000000020000A5
:10EB5000000300000003000000FF0F0000FF0F0093
:10EB600000FE0F0000000000000000000000000098
:10EB70000F000000000000000000FF0F0000FF0F6A
:10EB80000000FF0F00001C0000000C0000000E0041
:10EB90000000060000000200000003000000030067
:10EBA0000000FF0F0000FF0F0000FE0F000000003C
:10EBB0000000000000000000000000000000000055
:10EBC0000000000000000000000000000000000045
:10EBD0000000000000000000000000000010000025
:10EBE000000000C0030000F0070000F80700001C50
:10EBF0000E00000E0C0000060C0000060C000003C6
:10EC00000C0000030E00000306000003070000874D
:10EC1000030000FE010000FE00000078000000007C
:10EC200000000000000000000000000000000000E4
:10EC300000000000000000000000000000000000D4
:10EC400000000000000000000000110000000000B3
:10EC500000000000FFFF0F00FFFF0F00FFFF0F008D
:10EC6000380C00001C0C00000E0C0000060C00000C
:10EC7000030E0000030600000307000083030000EA
:10EC8000C7030000FF010000FE0000003C00000080
:10EC90000000000000000000000000000000000074
:10ECA0000000000000000000000000000000000064
:10ECB00000000000000000140000000000E003005D
:10ECC00000F0070000F80F00001C0E00000E0C0002
:10ECD00000060C0000070C000003060000030700FC
:10ECE0000083030000C3010000F3000000FFFF07E2
:10ECF00000FFFF0F00FEFF0F0000000600000003F2
:10ED000000008003000080010000000000000000FF
:10ED100000000000000000000000000000000000F3
:10ED2000000000000D000000000000000000FF0FC8
:10ED30000000FF0F0000FF0F0000180000000C0093
:10ED400000000600000002000000030000001F0099
:10ED500000001F0000000E00000000000000000086
:10ED600000000000000000000000000000000000A3
:10ED70000000000000000000000000000000000093
:10ED80000000000000000000000000000000000083
:10ED900000110000000000380600007C0700007C25
:10EDA0000600006E0C0000660C0000660C0000639C
:10EDB0000C0000230C0000330C000033060000336D
:10EDC0000600003306000033030000F2030000E0F9
:10EDD000010000E000000000000000000000000052
:10EDE0000000000000000000000000000000000023
:10EDF0000000000000000000000000000000110002
:10EE000000000000060000000600000006000000F0
:10EE1000070000E0FF0700E0FF0F00E0FF0F000029
:10EE2000030C0000030C0000030400000306008034
:10EE30000107008001030000C1030000C0010000C1
:10EE40008000000000000000000000000000000042
:10EE500000000000000000000000000000000000B2
:10EE600000000000000000000000000F0000000093
:10EE70000000000000FF070000FF070000FF0F0078
:10EE800000000C0000000C0000000C000000060058
:10EE900000000600000007000080030000FF0F00D4
:10EEA00000FF0F0000FF0F00000000000000000046
:10EEB0000000000000000000000000000000000052
:10EEC0000000000000000000000000000000000042
:10EED00000000000000000000F00060000001F00FE
:10EEE00000007F000000FE030000E00F0000800F24
:10EEF0000000000F0000C0070000E0010000F0006B
:10EF000000003C0000001E0000000F000000070091
:10EF100000000300000000000000000000000000EE
:10EF200000000000000000000000000000000000E1
:10EF300000000000000000000000000000000000D1
:10EF40000000000000160000000000070000001F85
:10EF5000000000FF000000F0070000C00F000000EC
:10EF60000F0000C0070000E0010000F80000003FB3
:10EF70000000001F0000007F000000F8010000E01A
:10EF8000070000800F0000800F0000E0030000F089
:10EF90000100007E0000001F0000000700000000CC
:10EFA0000000000000000000000000000000000061
:10EFB00000000F000000000002060000070E000025
:10EFC0000F0700009C030000F8010000F80100009A
:10EFD000F0000000F0000000F8010000DC0100007B
:10EFE0008E03000007070000070E0000000C000061
:10EFF0000000000000000000000000000000000011
:10F000000000000000000000000000000000000000
:10F0100000000000000000000000000000000010E0
:10F020000002E0000007E001001F8001003E8001B7
:10F030000078800100F0C00100E0E1000080F700EE
:10F0400000007F0000001F0000C00F0000F0030060
:10F0500000FC0000003F0000000F00000003000063
:10F0600000000000000000000000000000000000A0
:10F070000000000000000000000000000000000090
:10F080000000000000000000000000000F00000869
:10F0900000000E0C00000E0E0000060F0000060F10
:10F0A0000000860F0000C60D0000E60C0000760C84
:10F0B00000003E0C00003E0C00001E0C00000E0C78
:10F0C0000000070E0000030E00000000000000001A
:10F0D0000000000000000000000000000000000030
:10F0E0000000000000000000000000000000000020
:10F0F0000000000000000000000D000000000060A3
:10F100000000006000000060000000E0000000F06F
:10F11000FF01E0FFFF01F81FFF03F80F00031C00D1
:10F1200000030C0000030C0000030C0000010000B1
:10F1300000000000000000000000000000000000CF
:10F1400000000000000000000000000000000000BF
:10F1500000000000000000000000000000000000AF
:10F16000000000000000050000000000000000FF9B
:10F17000FFFF07FFFFFF07FFFFFF07000000000082
:10F18000000000000000000000000000000000007F
:10F19000000000000000000000000000000000006F
:10F1A000000000000000000000000000000000005F
:10F1B000000000000000000000000000000000004F
:10F1C000000000000000000000000000000000003F
:10F1D0000000000C080000030C0000030C000003FA
:10F1E0000C0080030C00FF01FC8FFF01F8FF7F0083
:10F1F000F0FF0000007000000060000000600000F0
:10F20000006000000000000000000000000000009E
:10F2100000000000000000000000000000000000EE
:10F2200000000000000000000000000000000000DE
:10F2300000000000000000000000000000000000CE
:10F240000D000000000080000000E0010000E00070
:10F25000000030000000300000007000000060007E
:10F260000000C0000000C0000000E00000007800C6
:10F270000000380000000000000000000000000056
:10F28000000000000000000000000000000000007E
:10F29000000000000000000000000000000000006E
:10F2A0000000000000000000000000000008000056
:10F2B0000000FEFF1F00FEFF1F0002001000020002
:10F2C000100002001000FEFF1F00FEFF1F000000E4
:10F2D000000000000000000000000000000000002E
:10F2E000000000000000000000000000000000001E
:10F2F000000000000000000000000000000000000E
:10F3000000000000000000000000000000000000FD
:10F3100000000000000000000000060000000000E7
:10F3200000000000000000000000000000000000DD
:10F33000000200007E03000000000000000000004A
:10F3400000000000000000000400000F0000000F9B
:10F3500000000000000000000000000000000008A5
:10F36000000040004803F8004E03F8004E0008007B
:10F370000000000000000618022402FF0F440244AF
:10F38000028401000000000000000000000B0000EB
:10F390001C00220022029C0160001000CC0122020D
:10F3A0002002C00108CC0132022202220252028C49
:10F3B00001E00100020000000000000200000F0058
:10F3C000000000000000000000000000000000003D
:10F3D0000000050000F0010C06020801100000000A
:10F3E00000000000000000000004011002080C06EC
:10F3F000F00100000000000000000000000000001C
:10F400000600000A0004001F0004000A00000000BB
:10F410000000000000000007200020002000FC0188
:10F42000200020002000000000000000000002007A
:10F4300008000700000000000000000000000000BD
:10F440000000000000042000200020002000000038
:10F4500000000000000000000000000002000000AA
:10F460000300000000000000000000000000000099
:10F4700000000005000C800360001C000300000079
:10F480000000000000000000000006FC0102020273
:10F490000202020202FC0100000000000000000065
:10F4A0000006000004020402FE0300020002000045
:10F4B0000000000000000000060403820242024235
:10F4C0000222021C020000000000000000000006F2
:10F4D00004010202220222022202DC0100000000DA
:10F4E000000000000000066000500048004400FEDC
:10F4F00003400000000000000000000000061E01A4
:10F500001202120212021202E201000000000000C8
:10F510000000000006F8011402120212021202E0BA
:10F5200001000000000000000000000602000202CE
:10F53000820162001A0006000000000000000000C6
:10F54000000006DC012202220222022202DC01006B
:10F55000000000000000000000063C0042024202E1
:10F5600042024201FC000000000000000000000018
:10F57000030000000018030000000000000000006D
:10F580000000000000000003000000081807000051
:10F590000000000000000000000000000000080063
:10F5A0000020002000500050008800880004010066
:10F5B0000000000000080000900090009000900003
:10F5C000900090009000000000000000080000047F
:10F5D000018800880050005000200020000000003A
:10F5E0000000000504004203220012000C0000008D
:10F5F000000000000000000000000BF0000C0304FD
:10F6000002F2040A050A050A05FA0504010C01F0D4
:10F6100000070003E000980086009800E000000367
:10F62000000000000000000006FE03220222022269
:10F63000023C02C0010000000000000000000007C2
:10F64000F8000401020202020202020204010000A8
:10F6500000000000000007FE030202020202020294
:10F66000020401F800000000000000000006FE0394
:10F6700022022202220222022202000000000000D6
:10F680000000000006FE03220022002200220022C9
:10F69000000000000000000000000007F800040166
:10F6A0000202020242024202C40300000000000003
:10F6B000000007FE0320002000200020002000FEA4
:10F6C000030000000000000000030202FE0302022B
:10F6D000000000000000000000000000000000002A
:10F6E00004000202020202FE01000000000000000D
:10F6F0000000000000000006FE032000500088000B
:10F70000040102020000000000000000000005FEED
:10F7100003000200020002000200000000000000DE
:10F72000000000000009FE030600180060008001D0
:10F73000600018000600FE030000000007FE03063C
:10F740000018002000C0000003FE030000000000BD
:10F7500000000008F8000401020202020202020294
:10F760000401F80000000000000006FE0322002251
:10F7700000220022001C0000000000000000000029
:10F780000008F8000401020202020206020A04094B
:10F79000F80800000000000007FE032200220062BB
:10F7A00000A2001C01000200000000000000000791
:10F7B0001C0122022202220222022202C4010000B3
:10F7C00000000000000007020002000200FE030229
:10F7D0000002000200000000000000000007FE0020
:10F7E00000010002000200020001FE000000000013
:10F7F00000000000070E003000C0000003C0003011
:10F80000000E0000000000000000000B1E00E001E0
:10F810000002C001380006003800C0010002E0010B
:10F820001E000702020401D8002000D800040102D3
:10F830000200000000000000000702000C001000A1
:10F84000E00310000C0002000000000000000000B7
:10F850000602038202620212020A0206020000008D
:10F8600000000000000000040000FF0F0108010874
:10F870000000000000000000000000000000050380
:10F88000001C0060008003000C000000000000006D
:10F89000000000000004000001080108FF0F000044
:10F8A000000000000000000000000000090000103F
:10F8B000000800040002000200040008001000001C
:10F8C0000000000700080008000800080008000801
:10F8D000000800000000000000000500000000001B
:10F8E0000001000200000000000000000000000015
:10F8F000000680014802480248024801F003000067
:10F90000000000000000000006FF031002080208CB
:10F91000020802F0010000000000000000000005E5
:10F92000F0010802080208020802000000000000BE
:10F9300000000000000006F00108020802080208AA
:10F9400001FF030000000000000000000006F001BD
:10F95000480248024802480270010000000000000E
:10F9600000000000050800FE030900090001000076
:10F97000000000000000000000000006F001081276
:10F98000081208120811F80F000000000000000023
:10F99000000006FF031000080008000800F0030044
:10F9A000000000000000000000020000FA03000058
:10F9B0000000000000000000000000000000000047
:10F9C0000300100810FA0F00000000000000000003
:10F9D0000000000000000005FF034000A00010012F
:10F9E000080200000000000000000000000002000B
:10F9F00000FF030000000000000000000000000005
:10FA000000000000000A0000F803100008000800D1
:10FA1000F003100008000800F003000006F80310CF
:10FA200000080008000800F00300000000000000CB
:10FA300000000006F0010802080208020802F001B6
:10FA40000000000000000000000006F81F1002087F
:10FA50000208020802F0010000000000000000009F
:10FA60000006F0010802080208020801F81F000061
:10FA7000000000000000000004F803100008000867
:10FA80000000000000000000000000000000000571
:10FA900030014802480248029001000000000000C6
:10FAA000000000000000040800FE01080208020037
:10FAB0000000000000000000000000000006F80147
:10FAC0000002000200020001F80300000000000034
:10FAD00000000000051800E0000003E0001800002E
:10FAE0000000000000000000000000091800E00015
:10FAF0000003E0001800E0000003E0001800000030
:10FB00000000050802B0014000B00108020000003A
:10FB1000000000000000000000051800E0180007C9
:10FB2000E0001800000000000000000000000000DD
:10FB3000050803880248022802180200000000009D
:10FB4000000000000000000540004000BE07010862
:10FB50000108000000000000000000000000030099
:10FB6000000000FF0F000000000000000000000087
:10FB700000000000000501080108BE074000400029
:10FB8000000000000000000000000000080000600D
:10FB90000010001000200040004000300000000075
:10FBA00000000003FF030102FF030000000000004B
:10FBB0000000000000000000000005000000000040
:10FBC0000500005F000005000700070005147F1412
:10FBD0007F1405242A7F2A12052313086462053640
:10FBE0004956205005080703000005001C2241006B
:10FBF000050041221C000514083E08140508083EB3
:10FC000008080500B070000005080808080805008D
:10FC100060600000052010080402053E5149453E81
:10FC20000500427F40000572494949460521414986
:10FC30004D33051814127F10052745454539053CFD
:10FC40004A494931054121110907053649494936D3
:10FC500005464949291E05000014000005004034EE
:10FC60000000050814224100051414141414054161
:10FC700022140800050201590906053E415D594E4E
:10FC8000057C1211127C057F49494936053E4141E8
:10FC90004122057F4141413E057F49494949057F50
:10FCA00009090909053E41415173057F0808087F8C
:10FCB0000500417F4100052040413F01057F0814B8
:10FCC0002241057F40404040057F020C027F057FB6
:10FCD0000408107F053E4141413E057F09090906A0
:10FCE000053E4151215E057F0919294605264949EE
:10FCF00049320501017F0101053F4040403F051F9A
:10FD00002040201F053F4038403F0563140814631E
:10FD100005030478040305615149454305007F410B
:10FD20004100050204081020050041417F00050440
:10FD30000201020405404040404005070B0000005E
:10FD4000052054547840057F2844443805384444FD
:10FD5000442805384444287F053854545418050075
:10FD6000087E09020518A4A49C78057F080404787D
:10FD70000500447D4000052040403D00057F1028DF
:10FD800044000500417F4000057C04780478057C30
:10FD90000804047805384444443805FC1824241821
:10FDA0000518242418FC057C08040408054854544C
:10FDB00054240504043F4424053C4040207C051C99
:10FDC0002040201C053C4030403C0544281028447D
:10FDD000054C9090907C054464544C4405000836D2
:10FDE00041000500007700000500413608000504C9
:10FDF0000204080405007F417F00566F6C3A2575A8
:10FE00002E253032752F25752E253032755600433C
:10FE1000686172672F44697363682F53746F72004F
:10FE20002530327568253032756D25303275730096
:10FE30004F4E2F4F46463A202558200A0D00524576
:10FE40005345543A202558200A0D0043656C6C2018
:10FE5000566F6C74613A004D696E44697363566FF6
:10FE60006C3A00547269636B6C65566F6C3A00545F
:10FE70007269636B6C654375723A0043656C6C2004
:10FE8000436F756E743A004375723A25752F257568
:10FE90006D41004361703A253034756D416800430F
:10FEA000686172672F4469736368004379636C65A6
:10FEB0003A25752F257500425553593A202558206B
:10FEC0000A0D004469736343757220313A00436838
:10FED000726743757220313A0044697363437572E7
:10FEE00020323A004368726743757220323A004408
:10FEF00069736343757220333A00436872674375D0
:10FF00007220333A004469736343757220343A00B7
:10FF10004368726743757220343A004261747420FA
:10FF2000747970653A0054656D703A2530327543C6
:10FF3000002530327568253032756D0053415645C5
:10FF40002645584954004F7074696F6E7320310014
:10FF50004F7074696F6E732032004F7074696F6EEA
:10FF6000732033004F7074696F6E732034004F70CC
:10FF700074696F6E732035004D61782054696D652A
:10FF80003A004368617267696E67004379636C6524
:10FF90003A004C692D496F6E0042415420310042B5
:10FFA00041542032004D6F64653A0054656D703ADB
:10FFB000004E692D4D480053544152540042414374
:10FFC0004B004E45585400257525250044495343A0
:10FFD0000049444C4500434852470054455354009F
:10FFE0004D454E550025754300504200575D002E8B
:0FFFF00020003120002564004E00500052000018
:020000040001F9
:10000000A7EC9FF0020E41ECC1F00009D8A40BEF61
:1000100080F00DEF80F018EF80F0030E41ECC1F09E
:100020000009D8B416EF80F018EF80F07BEF85F070
:100030000001EB05D8A41FEF80F021EF80F035EF31
:1000400081F0020E41ECC1F00009D8B42AEF80F033
:100050002CEF80F030EF80F00001FB073DEF80F0E7
:10006000030E41ECC1F00009D8B439EF80F03BEF4A
:1000700080F03DEF80F00001FB2B0001FB51D8A484
:1000800044EF80F046EF80F04AEF80F0050EFB6F02
:1000900054EF80F0050EFB6550EF80F052EF80F0DA
:1000A00054EF80F0010EFB6FFB05D8A45AEF80F0EF
:1000B0005CEF80F083EF80F0030EA2ECA5F07EC031
:1000C00022F07FC023F0010E246E53ECB1F07EC00D
:1000D00079F07FC07AF0000E00017B6F10ECB3F076
:1000E0007EC022F07FC023F0000E246EEFECB1F052
:1000F0007EC079F07FC07AF0000E00017B6F21ECAA
:10010000B5F077EF85F0020EFB19D8A48AEF80F0E6
:100110008CEF80F0A2EF80F0030EA2ECA5F07EC081
:1001200022F07FC023F0000E246E53ECB1F07EC0AD
:1001300079F07FC07AF0010E00017B6F10ECB3F014
:1001400070EF80F0030EFB19D8A4A9EF80F0ABEF9D
:1001500080F0D2EF80F0030EA2ECA5F07EC022F07A
:100160007FC023F0000E246E53ECB1F07EC079F016
:100170007FC07AF0000E00017B6F10ECB3F07EC000
:1001800022F07FC023F0010E246EEFECB1F07EC0B0
:1001900079F07FC07AF0000E00017B6F21ECB5F0A2
:1001A00077EF85F0040EFB19D8A4D9EF80F0DBEFD0
:1001B00080F002EF81F0030EA2ECA5F07EC022F0E9
:1001C0007FC023F0000E246E53ECB1F07EC079F0B6
:1001D0007FC07AF0000E00017B6F10ECB3F07EC0A0
:1001E00022F07FC023F0000E246EEFECB1F07EC051
:1001F00079F07FC07AF0010E00017B6F21ECB5F041
:1002000077EF85F0050EFB19D8A409EF81F00BEF0D
:1002100081F033EF81F07EC022F07FC023F0000E2A
:10022000246E53ECB1F07EC079F07FC07AF0000EFE
:1002300000017B6F10ECB3F00001EA51A2ECA5F0D5
:100240007EC022F07FC023F0000E246EEFECB1F0F0
:100250007EC079F07FC07AF0000E00017B6F21EC48
:10026000B5F077EF85F077EF85F0020EEB19D8A4A3
:100270003CEF81F03EEF81F066EF82F0020E41EC40
:10028000C1F00009D8B447EF81F049EF81F04DEF9C
:1002900081F00001FB075AEF81F0030E41ECC1F041
:1002A0000009D8B456EF81F058EF81F05AEF81F091
:1002B0000001FB2B0001FB51D8A461EF81F063EF3B
:1002C00081F067EF81F0050EFB6F71EF81F0050E95
:1002D000FB656DEF81F06FEF81F071EF81F0010E42
:1002E000FB6FFB05D8A477EF81F079EF81F0A1EFE8
:1002F00081F07EC079F07FC07AF0010E7B6F0DEC4B
:10030000B0F07EC079F07FC07AF0000E00017B6F04
:10031000B0ECB0F07EC079F07FC07AF0000E000142
:100320007B6F9DECB4F07EC079F07FC07AF0000E58
:1003300000017B6F6AECAFF0030E68EC9DF077EF85
:1003400085F0020EFB19D8A4A8EF81F0AAEF81F086
:10035000D2EF81F07EC079F07FC07AF0000E7B6F23
:100360000DECB0F07EC079F07FC07AF0010E000194
:100370007B6FB0ECB0F07EC079F07FC07AF0000EF9
:1003800000017B6F9DECB4F07EC079F07FC07AF005
:10039000000E00017B6F6AECAFF0030E68EC9DF07D
:1003A00077EF85F0030EFB19D8A4D9EF81F0DBEFCE
:1003B00081F003EF82F07EC079F07FC07AF0000E0A
:1003C0007B6F0DECB0F07EC079F07FC07AF0000E4C
:1003D00000017B6FB0ECB0F07EC079F07FC07AF0A6
:1003E000000E00017B6F9DECB4F07EC079F07FC001
:1003F0007AF0010E00017B6F6AECAFF0030E68EC3F
:100400009DF077EF85F0040EFB19D8A40AEF82F077
:100410000CEF82F034EF82F07EC079F07FC07AF08A
:10042000000E7B6F0DECB0F07EC079F07FC07AF0EB
:10043000000E00017B6FB0ECB0F07EC079F07FC0A1
:100440007AF0010E00017B6F9DECB4F07EC079F074
:100450007FC07AF0000E00017B6F6AECAFF0030EF4
:1004600068EC9DF077EF85F0050EFB19D8A43BEF03
:1004700082F03DEF82F033EF81F07EC079F07FC0F3
:100480007AF0000E7B6F0DECB0F07EC079F07FC08B
:100490007AF0000E00017B6FB0ECB0F07EC079F016
:1004A0007FC07AF0000E00017B6F9DECB4F07EC03F
:1004B00079F07FC07AF0000E00017B6F6AECAFF03C
:1004C0000001EA5168EC9DF077EF85F0030EEB191F
:1004D000D8A46DEF82F06FEF82F017EF83F0020E79
:1004E00041ECC1F00009D8B478EF82F07AEF82F0E5
:1004F0007EEF82F00001FB078BEF82F0030E41ECF0
:10050000C1F00009D8B487EF82F089EF82F08BEF59
:1005100082F00001FB2B030E0001FB19D8A493EF1E
:1005200082F095EF82F099EF82F0050EFB6FA4EF59
:1005300082F0040EFB19D8A4A0EF82F0A2EF82F0A3
:10054000A4EF82F0020EFB6FFB51D8A4AAEF82F059
:10055000ACEF82F0B0EF82F0050EFB6FBAEF82F0E5
:10056000050EFB65B6EF82F0B8EF82F0BAEF82F0CD
:10057000010EFB6FFB05D8A4C0EF82F0C2EF82F042
:10058000D8EF82F07EC079F07FC07AF0010E7B6FE9
:10059000C7ECAEF07EC079F07FC07AF0000E0001AB
:1005A0007B6F8BECB2F0030E68EC9DF077EF85F07B
:1005B000020EFB19D8A4DFEF82F0E1EF82F0F7EF33
:1005C00082F07EC079F07FC07AF0000E7B6FC7ECBE
:1005D000AEF07EC079F07FC07AF0010E00017B6F33
:1005E0008BECB2F0030E68EC9DF077EF85F0050E12
:1005F000FB19D8A4FEEF82F000EF83F033EF81F017
:100600007EC079F07FC07AF0000E7B6FC7ECAEF051
:100610007EC079F07FC07AF0000E00017B6F8BEC1A
:10062000B2F00001EA5168EC9DF077EF85F0040E1E
:10063000EB19D8A41EEF83F020EF83F048EF84F08D
:10064000020E41ECC1F00009D8B429EF83F02BEF82
:1006500083F02FEF83F00001FB073CEF83F0030EE4
:1006600041ECC1F00009D8B438EF83F03AEF83F0E1
:100670003CEF83F00001FB2B0001FB51D8A443EFBA
:1006800083F045EF83F049EF83F0050EFB6F53EFE6
:1006900083F0050EFB654FEF83F051EF83F053EFCE
:1006A00083F0010EFB6FFB05D8A459EF83F05BEFDD
:1006B00083F083EF83F07EC079F07FC07AF0010E83
:1006C0007B6F19ECB4F07EC079F07FC07AF0000E39
:1006D00000017B6F95ECB3F07EC079F07FC07AF0BB
:1006E000000E00017B6F22ECACF07EC079F07FC081
:1006F0007AF0000E00017B6F1EECAEF0030E68EC8A
:100700009DF077EF85F0020EFB19D8A48AEF83F0F5
:100710008CEF83F0B4EF83F07EC079F07FC07AF085
:10072000000E7B6F19ECB4F07EC079F07FC07AF0D8
:10073000010E00017B6F95ECB3F07EC079F07FC0B5
:100740007AF0000E00017B6F22ECACF07EC079F0F5
:100750007FC07AF0000E00017B6F1EECAEF0030E3E
:1007600068EC9DF077EF85F0030EFB19D8A4BBEF82
:1007700083F0BDEF83F0E5EF83F07EC079F07FC0BA
:100780007AF0000E7B6F19ECB4F07EC079F07FC078
:100790007AF0000E00017B6F95ECB3F07EC079F02B
:1007A0007FC07AF0010E00017B6F22ECACF07EC0BE
:1007B00079F07FC07AF0000E00017B6F1EECAEF086
:1007C000030E68EC9DF077EF85F0040EFB19D8A4BA
:1007D000ECEF83F0EEEF83F016EF84F07EC079F05B
:1007E0007FC07AF0000E7B6F19ECB4F07EC079F018
:1007F0007FC07AF0000E00017B6F95ECB3F07EC0F5
:1008000079F07FC07AF0000E00017B6F22ECACF033
:100810007EC079F07FC07AF0010E00017B6F1EEC84
:10082000AEF0030E68EC9DF077EF85F0050EFB1936
:10083000D8A41DEF84F01FEF84F033EF81F07EC069
:1008400079F07FC07AF0000E7B6F19ECB4F07EC0B7
:1008500079F07FC07AF0000E00017B6F95ECB3F069
:100860007EC079F07FC07AF0000E00017B6F22EC31
:10087000ACF07EC079F07FC07AF0000E00017B6F93
:100880001EECAEF00001EA5168EC9DF077EF85F0C8
:10089000050EEB19D8A44FEF84F051EF84F077EFF9
:1008A00085F0020E41ECC1F00009D8B45AEF84F093
:1008B0005CEF84F060EF84F00001FB076DEF84F0E3
:1008C000030E41ECC1F00009D8B469EF84F06BEF7E
:1008D00084F06DEF84F00001FB2B0001FB51D8A4E4
:1008E00074EF84F076EF84F07AEF84F0050EFB6FFE
:1008F00084EF84F0050EFB6580EF84F082EF84F0D6
:1009000084EF84F0010EFB6FFB05D8A48AEF84F01E
:100910008CEF84F0B4EF84F07EC079F07FC07AF081
:10092000010E7B6F78ECABF07EC079F07FC07AF07F
:10093000000E00017B6F75ECADF07EC079F07FC0DA
:100940007AF0000E00017B6FCEECAAF07EC079F049
:100950007FC07AF0000E00017B6FCCECACF0030E90
:100960007EECA4F077EF85F0020EFB19D8A4BBEF64
:1009700084F0BDEF84F0E5EF84F07EC079F07FC0B5
:100980007AF0000E7B6F78ECABF07EC079F07FC020
:100990007AF0010E00017B6F75ECADF07EC079F04E
:1009A0007FC07AF0000E00017B6FCEECAAF07EC013
:1009B00079F07FC07AF0000E00017B6FCCECACF0D8
:1009C000030E7EECA4F077EF85F0030EFB19D8A49C
:1009D000ECEF84F0EEEF84F016EF85F07EC079F056
:1009E0007FC07AF0000E7B6F78ECABF07EC079F0C0
:1009F0007FC07AF0000E00017B6F75ECADF07EC019
:100A000079F07FC07AF0010E00017B6FCEECAAF086
:100A10007EC079F07FC07AF0000E00017B6FCCECD5
:100A2000ACF0030E7EECA4F077EF85F0040EFB191A
:100A3000D8A41DEF85F01FEF85F047EF85F07EC04D
:100A400079F07FC07AF0000E7B6F78ECABF07EC05F
:100A500079F07FC07AF0000E00017B6F75ECADF08D
:100A60007EC079F07FC07AF0000E00017B6FCEEC83
:100A7000AAF07EC079F07FC07AF0010E00017B6F92
:100A8000CCECACF0030E7EECA4F077EF85F0050E15
:100A9000FB19D8A44EEF85F050EF85F033EF81F0CD
:100AA0007EC079F07FC07AF0000E7B6F78ECABF0FF
:100AB0007EC079F07FC07AF0000E00017B6F75EC8C
:100AC000ADF07EC079F07FC07AF0000E00017B6F40
:100AD000CEECAAF07EC079F07FC07AF0000E000163
:100AE0007B6FCCECACF00001EA517EECA4F07BEC27
:100AF000BEF0D7ECBFF0000E41ECC1F00009D8A465
:100B000084EF85F086EF85F09AEF85F0010E41ECD9
:100B1000C1F00009D8A48FEF85F091EF85F09AEF2E
:100B200085F00001E951D8A498EF85F09AEF85F09F
:100B30006BEF98F0010E0001E96FEB51D8A4A3EF21
:100B400085F0A5EF85F0CDEF85F0FC05D8A4ABEFDF
:100B500085F0ADEF85F0B8EF85F0FC5165ECA9F0BC
:100B6000000E0001FC6F010E0001EA6F67EF98F0C4
:100B7000FC51D8A4BEEF85F0C0EF85F067EF98F088
:100B8000FC5165ECA9F0010E0001FC6F000E0001A4
:100B9000EA6F67EF98F067EF98F0EB05D8A4D3EF12
:100BA00085F0D5EF85F01FEF88F0050EFB19D8A46E
:100BB000DCEF85F0DEEF85F002EF86F0020EFC1927
:100BC000D8A4E5EF85F0E7EF85F0F2EF85F0FC5172
:100BD000A2ECA5F0000E0001FC6F020E0001EA6F0E
:100BE00067EF98F0FC51D8A4F8EF85F0FAEF85F0A4
:100BF000CBEF85F0FC51A2ECA5F0020E0001FC6FDA
:100C0000C6EF85F0FB05D8A408EF86F00AEF86F062
:100C1000ADEF86F018EF86F0010EE76F37EF86F044
:100C2000020EE76F37EF86F0030EE76F37EF86F0BF
:100C300020EE04F07E51D9267F51DA22DF50806FFA
:100C4000816B8151000AD8B428EF86F037EF86F027
:100C50008051000AD8B40CEF86F0010AD8B410EF26
:100C600086F0030AD8B414EF86F037EF86F0010E51
:100C700041ECC1F00009D8B440EF86F042EF86F0B5
:100C800046EF86F00001E72B53EF86F0000E41ECB3
:100C9000C1F00009D8B44FEF86F051EF86F053EF62
:100CA00086F00001E7070001E751D8A45AEF86F06B
:100CB0005CEF86F060EF86F0030EE76F8AEF86F058
:100CC000030EE76566EF86F068EF86F08AEF86F040
:100CD000010EE76F8AEF86F020EE04F07E51D926F0
:100CE0007F51DA22000EDF6EA3EF86F020EE04F0D3
:100CF0007E51D9267F51DA22010EDF6EA3EF86F0F6
:100D000020EE04F07E51D9267F51DA22020EDF6EEA
:100D1000A3EF86F0E751806F816B8151000AD8B450
:100D200094EF86F0A3EF86F08051010AD8B46CEFFF
:100D300086F0030AD8B476EF86F0010AD8B480EFC3
:100D400086F0A3EF86F07EC022F07FC023F0010E74
:100D5000246E53ECB1F067EF98F0020EFB19D8A4A3
:100D6000B4EF86F0B6EF86F017EF87F0010E41EC96
:100D7000C1F00009D8B4BFEF86F0C1EF86F0CBEF29
:100D800086F0000120EE07F07E51D9267F51DA224D
:100D9000DF2ADEEF86F0000E41ECC1F00009D8B486
:100DA000D4EF86F0D6EF86F0DEEF86F0000120EE7D
:100DB00007F07E51D9267F51DA22DF06000120EEAE
:100DC00007F07E51D9267F51DA22DF50D8A4EBEF0D
:100DD00086F0EDEF86F0F7EF86F020EE07F07E511B
:100DE000D9267F51DA22050EDF6E0DEF87F020EE57
:100DF00007F07E51D9267F51DA22050EDF6403EF1A
:100E000087F005EF87F00DEF87F020EE07F07E51B9
:100E1000D9267F51DA22010EDF6E7EC079F07FC0C5
:100E20007AF0010E7B6F10ECB3F067EF98F0030ED1
:100E3000FB19D8A41EEF87F020EF87F0C3EF87F0EF
:100E40002EEF87F0010EE76F4DEF87F0020EE76F90
:100E50004DEF87F0030EE76F4DEF87F020EE06F0C1
:100E60007E51D9267F51DA22DF50806F816B81510C
:100E7000000AD8B43EEF87F04DEF87F08051000AAA
:100E8000D8B422EF87F0010AD8B426EF87F0030A1E
:100E9000D8B42AEF87F04DEF87F0010E41ECC1F096
:100EA0000009D8B456EF87F058EF87F05CEF87F071
:100EB0000001E72B69EF87F0000E41ECC1F000095B
:100EC000D8B465EF87F067EF87F069EF87F000012E
:100ED000E7070001E751D8A470EF87F072EF87F0C1
:100EE00076EF87F0030EE76FA0EF87F0030EE7655C
:100EF0007CEF87F07EEF87F0A0EF87F0010EE76FC1
:100F0000A0EF87F020EE06F07E51D9267F51DA223D
:100F1000000EDF6EB9EF87F020EE06F07E51D92685
:100F20007F51DA22010EDF6EB9EF87F020EE06F076
:100F30007E51D9267F51DA22020EDF6EB9EF87F09B
:100F4000E751806F816B8151000AD8B4AAEF87F016
:100F5000B9EF87F08051010AD8B482EF87F0030A15
:100F6000D8B48CEF87F0010AD8B496EF87F0B9EFC8
:100F700087F07EC022F07FC023F0010E246EEFECDC
:100F8000B1F067EF98F0040EFB19D8A4CAEF87F010
:100F9000CCEF87F0CBEF85F0010E41ECC1F00009FA
:100FA000D8B4D5EF87F0D7EF87F0DEEF87F07EC0BB
:100FB000D9FF7FC0DAFFDF2AEEEF87F0000E41ECA9
:100FC000C1F00009D8B4E7EF87F0E9EF87F0EEEF62
:100FD00087F07EC0D9FF7FC0DAFFDF067EC0D9FF71
:100FE0007FC0DAFFDF50D8A4F8EF87F0FAEF87F080
:100FF00002EF88F07EC0D9FF7FC0DAFF040EDF6EFB
:1010000014EF88F07EC0D9FF7FC0DAFF040EDF64E2
:101010000CEF88F00EEF88F014EF88F07EC0D9FF57
:101020007FC0DAFF010EDF6E7EC079F07FC07AF0FC
:10103000010E00017B6F21ECB5F067EF98F0020E16
:10104000EB19D8A426EF88F028EF88F026EF8BF074
:10105000050EFB19D8A42FEF88F031EF88F0C2EF0E
:1010600088F0000E41ECC1F00009D8B43AEF88F0E6
:101070003CEF88F040EF88F00001E8074DEF88F082
:10108000010E41ECC1F00009D8B449EF88F04BEFF4
:1010900088F04DEF88F00001E82B0001E851D8A45A
:1010A00054EF88F056EF88F05AEF88F0030EE86F9F
:1010B00081EF88F0040EE819D8A461EF88F063EF9F
:1010C00088F067EF88F0010EE86F81EF88F0040E7A
:1010D000E8656DEF88F06FEF88F073EF88F0020E2F
:1010E000E86F81EF88F081EF88F0010EFC6F9AEFD6
:1010F00088F0000EFC6F9AEF88F0020EFC6F9AEFFA
:1011000088F0E851806F816B8151000AD8B48BEF71
:1011100088F09AEF88F08051010AD8B475EF88F012
:10112000030AD8B479EF88F0010AD8B47DEF88F0CB
:101130009AEF88F0FC05D8A4A0EF88F0A2EF88F021
:10114000A7EF88F0FC5168EC9DF0B3EF85F0FC51FF
:10115000D8A4ADEF88F0AFEF88F0B4EF88F0FC5181
:1011600068EC9DF0C6EF85F0020EFC19D8A4BBEF29
:1011700088F0BDEF88F0CBEF85F0FC5168EC9DF076
:10118000EDEF85F0FB05D8A4C8EF88F0CAEF88F032
:1011900059EF89F0010E41ECC1F00009D8B4D3EF4A
:1011A00088F0D5EF88F0F0EF88F0000120EE0CF029
:1011B0007E51D9267F51DA22DECF80F0DDCF81F05B
:1011C000050E8027000E812320EE0CF07E51D926DB
:1011D0007F51DA2280C0DEFF81C0DDFF16EF89F08B
:1011E000000E41ECC1F00009D8B4F9EF88F0FBEF34
:1011F00088F016EF89F0000120EE0CF07E51D92620
:101200007F51DA22DECF80F0DDCF81F0FB0E80252A
:10121000826FFF0E8121836F20EE0CF07E51D92664
:101220007F51DA2282C0DEFF83C0DDFF000120EEA5
:101230000CF07E51D9267F51DA22990EDE5C010E28
:10124000DE58D8B026EF89F028EF89F034EF89F026
:1012500020EE0CF07E51D9267F51DA22AE0EDE6EE2
:10126000010EDD6E4FEF89F020EE0CF07E51D92695
:101270007F51DA22B00EDE5C010EDE58D8A043EFBB
:1012800089F045EF89F04FEF89F020EE0CF07E51A8
:10129000D9267F51DA229A0EDE6E010EDD6E7EC0F7
:1012A00079F07FC07AF0010E7B6F0DECB0F067EF44
:1012B00098F0020EFB19D8A460EF89F062EF89F074
:1012C000F2EF89F0010E41ECC1F00009D8B46BEFE8
:1012D00089F06DEF89F088EF89F0000120EE18F0B9
:1012E0007E51D9267F51DA22DECF80F0DDCF81F02A
:1012F000050E8027000E812320EE18F07E51D9269E
:101300007F51DA2280C0DEFF81C0DDFFAEEF89F0C1
:10131000000E41ECC1F00009D8B491EF89F093EFD1
:1013200089F0AEEF89F0000120EE18F07E51D92649
:101330007F51DA22DECF80F0DDCF81F0FB0E8025F9
:10134000826FFF0E8121836F20EE18F07E51D92627
:101350007F51DA2282C0DEFF83C0DDFF000120EE74
:1013600018F07E51D9267F51DA22010EDB5007E1B9
:10137000F90EDE5CD8B0BFEF89F0C1EF89F0CDEF98
:1013800089F020EE18F07E51D9267F51DA22400EE6
:10139000DE6E010EDD6EE8EF89F020EE18F07E5172
:1013A000D9267F51DA22420EDE5C010EDE58D8A02B
:1013B000DCEF89F0DEEF89F0E8EF89F020EE18F03D
:1013C0007E51D9267F51DA22FA0EDE6E000EDD6ED6
:1013D0007EC079F07FC07AF0010E7B6FB0ECB0F088
:1013E00067EF98F0030EFB19D8A4F9EF89F0FBEF33
:1013F00089F08CEF8AF0010E41ECC1F00009D8B4FD
:1014000004EF8AF006EF8AF021EF8AF0000120EE67
:1014100014F07E51D9267F51DA22DECF80F0DDCF65
:1014200081F0050E8027000E812320EE14F07E51FE
:10143000D9267F51DA2280C0DEFF81C0DDFF47EF71
:101440008AF0000E41ECC1F00009D8B42AEF8AF00E
:101450002CEF8AF047EF8AF0000120EE14F07E5165
:10146000D9267F51DA22DECF80F0DDCF81F0FB0E6E
:101470008025826FFF0E8121836F20EE14F07E5154
:10148000D9267F51DA2282C0DEFF83C0DDFF000152
:1014900020EE14F07E51D9267F51DA22010EDB5066
:1014A00007E1B30EDE5CD8B058EF8AF05AEF8AF04D
:1014B00066EF8AF020EE14F07E51D9267F51DA22B1
:1014C000FA0EDE6E000EDD6E82EF8AF020EE14F072
:1014D0007E51D9267F51DA22010EDB5009E1FC0E44
:1014E000DE5CD8A076EF8AF078EF8AF082EF8AF09F
:1014F00020EE14F07E51D9267F51DA22B40EDE6E32
:10150000000EDD6E7EC079F07FC07AF0010E7B6F39
:101510006AECAFF067EF98F0040EFB19D8A493EFD4
:101520008AF095EF8AF0CBEF85F0010E41ECC1F027
:101530000009D8B49EEF8AF0A0EF8AF0BBEF8AF0E2
:10154000000120EE16F07E51D9267F51DA22DECF3F
:1015500080F0DDCF81F0050E8027000E812320EE84
:1015600016F07E51D9267F51DA2280C0DEFF81C07D
:10157000DDFFE1EF8AF0000E41ECC1F00009D8B4C4
:10158000C4EF8AF0C6EF8AF0E1EF8AF0000120EEA6
:1015900016F07E51D9267F51DA22DECF80F0DDCFE2
:1015A00081F0FB0E8025826FFF0E8121836F20EE7C
:1015B00016F07E51D9267F51DA2282C0DEFF83C029
:1015C000DDFF000120EE16F07E51D9267F51DA2290
:1015D000010EDB5007E1040EDE5CD8B0F2EF8AF0BA
:1015E000F4EF8AF000EF8BF020EE16F07E51D92652
:1015F0007F51DA22320EDE6E000EDD6E1CEF8BF0B4
:1016000020EE16F07E51D9267F51DA22010EDB50F2
:1016100009E1340EDE5CD8A010EF8BF012EF8BF0F6
:101620001CEF8BF020EE16F07E51D9267F51DA2286
:10163000050EDE6E000EDD6E7EC079F07FC07AF0A2
:10164000010E7B6F9DECB4F067EF98F0030EEB1981
:10165000D8A42DEF8BF02FEF8BF0DBEF8CF0050E85
:10166000FB19D8A436EF8BF038EF8BF0C9EF8BF075
:10167000000E41ECC1F00009D8B441EF8BF043EF0C
:101680008BF047EF8BF00001E80754EF8BF0010E71
:1016900041ECC1F00009D8B450EF8BF052EF8BF061
:1016A00054EF8BF00001E82B0001E851D8A45BEF68
:1016B0008BF05DEF8BF061EF8BF0030EE86F88EF3E
:1016C0008BF0040EE819D8A468EF8BF06AEF8BF06A
:1016D0006EEF8BF0010EE86F88EF8BF0040EE8657B
:1016E00074EF8BF076EF8BF07AEF8BF0020EE86FF1
:1016F00088EF8BF088EF8BF0010EFC6FA1EF8BF081
:10170000000EFC6FA1EF8BF0020EFC6FA1EF8BF0CF
:10171000E851806F816B8151000AD8B492EF8BF051
:10172000A1EF8BF08051010AD8B47CEF8BF0030A53
:10173000D8B480EF8BF0010AD8B484EF8BF0A1EF1E
:101740008BF0FC05D8A4A7EF8BF0A9EF8BF0AEEFE0
:101750008BF0FC5168EC9DF0B3EF85F0FC51D8A400
:10176000B4EF8BF0B6EF8BF0BBEF8BF0FC5168EC75
:101770009DF0C6EF85F0020EFC19D8A4C2EF8BF0E5
:10178000C4EF8BF0CBEF85F0FC5168EC9DF0EDEFF2
:1017900085F0FB05D8A4CFEF8BF0D1EF8BF061EF94
:1017A0008CF0010E41ECC1F00009D8B4DAEF8BF0F7
:1017B000DCEF8BF0F7EF8BF0000120EE32F07E5182
:1017C000D9267F51DA22DECF80F0DDCF81F01E0EE8
:1017D0008027000E812320EE32F07E51D9267F51E2
:1017E000DA2280C0DEFF81C0DDFF1DEF8CF0000E2D
:1017F00041ECC1F00009D8B400EF8CF002EF8CF09E
:101800001DEF8CF0000120EE32F07E51D9267F5181
:10181000DA22DECF80F0DDCF81F0E20E8025826F0C
:10182000FF0E8121836F20EE32F07E51D9267F5149
:10183000DA2282C0DEFF83C0DDFF000120EE32F03D
:101840007E51D9267F51DA22010EDB5007E13C0E92
:10185000DE5CD8B02EEF8CF030EF8CF03CEF8CF0EB
:1018600020EE32F07E51D9267F51DA22400EDE6E14
:101870000B0EDD6E57EF8CF020EE32F07E51D92644
:101880007F51DA22410EDE5C0B0EDE58D8A04BEF02
:101890008CF04DEF8CF057EF8CF020EE32F07E5153
:1018A000D9267F51DA223C0EDE6E000EDD6E7EC040
:1018B00079F07FC07AF0010E7B6FC7ECAEF067EF76
:1018C00098F0020EFB19D8A468EF8CF06AEF8CF048
:1018D000CBEF85F0010E41ECC1F00009D8B473EFF5
:1018E0008CF075EF8CF087EF8CF0000120EE03F0A8
:1018F0007E51D9267F51DA2210EE03F07E51E12687
:101900007F51E222E750050FDF6EA2EF8CF0000E50
:1019100041ECC1F00009D8B490EF8CF092EF8CF05C
:10192000A2EF8CF0000120EE03F07E51D9267F510A
:10193000DA2210EE03F07E51E1267F51E222E750D9
:10194000FB0FDF6E000120EE03F07E51D9267F51A0
:10195000DA22040EDF60AFEF8CF0B1EF8CF0BBEF5A
:101960008CF020EE03F07E51D9267F51DA222D0E25
:10197000DF6ED1EF8CF020EE03F07E51D9267F513F
:10198000DA222E0EDF64C7EF8CF0C9EF8CF0D1EFB6
:101990008CF020EE03F07E51D9267F51DA22050E1D
:1019A000DF6E7EC079F07FC07AF0010E7B6F8BEC2A
:1019B000B2F067EF98F0040EEB19D8A4E2EF8CF0C8
:1019C000E4EF8CF03AEF92F0050EFB19D8A4EBEFA0
:1019D0008CF0EDEF8CF087EF8DF0000E41ECC1F054
:1019E0000009D8B4F6EF8CF0F8EF8CF0FCEF8CF037
:1019F0000001E80709EF8DF0010E41ECC1F000098C
:101A0000D8B405EF8DF007EF8DF009EF8DF00001F0
:101A1000E82B0001E851D8A410EF8DF012EF8DF003
:101A200016EF8DF0030EE86F3DEF8DF0040EE81910
:101A3000D8A41DEF8DF01FEF8DF023EF8DF0010E78
:101A4000E86F3DEF8DF0040EE86529EF8DF02BEF88
:101A50008DF02FEF8DF0020EE86F3DEF8DF03DEF32
:101A60008DF0010EFC6F56EF8DF0000EFC6F56EFFF
:101A70008DF0020EFC6F56EF8DF0E851806F816B98
:101A80008151000AD8B447EF8DF056EF8DF08051A8
:101A9000010AD8B431EF8DF0030AD8B435EF8DF0D8
:101AA000010AD8B439EF8DF056EF8DF0FC05D8A4BB
:101AB0005CEF8DF05EEF8DF066EF8DF0FC5168EC21
:101AC0009DF0010E0001EA6F87EF8DF0FC51D8A464
:101AD0006CEF8DF06EEF8DF076EF8DF0FC5168ECD1
:101AE0009DF0000E0001EA6F87EF8DF0020EFC19E9
:101AF000D8A47DEF8DF07FEF8DF087EF8DF0FC5156
:101B000068EC9DF0020E0001EA6F87EF8DF0FB0597
:101B1000D8A48DEF8DF08FEF8DF060EF8EF020EE7A
:101B20001CF07E51D9267F51DA22E80EDE5C030ECE
:101B3000DE58D8A09EEF8DF0A0EF8DF0A6EF8DF0CF
:101B4000000E856F640E846FD4EF8DF020EE1CF0D4
:101B50007E51D9267F51DA22010EDB5009E1640E55
:101B6000DE5CD8A0B6EF8DF0B8EF8DF0BEEF8DF053
:101B7000000E856F320E846FD4EF8DF020EE1CF0D6
:101B80007E51D9267F51DA22010EDB5007E1640E27
:101B9000DE5CD8B0CEEF8DF0D0EF8DF0D4EF8DF0CD
:101BA000000E856F0A0E846F010E41ECC1F0000932
:101BB000D8B4DDEF8DF0DFEF8DF0FAEF8DF000019E
:101BC00020EE1CF07E51D9267F51DA22DECF80F044
:101BD000DDCF81F0845180278551812320EE1CF0D8
:101BE0007E51D9267F51DA2280C0DEFF81C0DDFF21
:101BF0001EEF8EF0000E41ECC1F00009D8B403EFE7
:101C00008EF005EF8EF01EEF8EF0000120EE1CF03E
:101C10007E51D9267F51DA22DECF80F0DDCF81F0F0
:101C20008451805F8551815B20EE1CF07E51D92666
:101C30007F51DA2280C0DEFF81C0DDFF000120EE8F
:101C40001CF07E51D9267F51DA22010EDB5007E1CC
:101C50000A0EDE5CD8B02FEF8EF031EF8EF03DEF44
:101C60008EF020EE1CF07E51D9267F51DA22B80E7C
:101C7000DE6E0B0EDD6E58EF8EF020EE1CF07E5106
:101C8000D9267F51DA22B90EDE5C0B0EDE58D8A0C1
:101C90004CEF8EF04EEF8EF058EF8EF020EE1CF0F1
:101CA0007E51D9267F51DA220A0EDE6E000EDD6EDD
:101CB0007EC079F07FC07AF0010E7B6F19ECB4F032
:101CC000020E0001FB19D8A468EF8EF06AEF8EF0C7
:101CD0003BEF8FF020EE1EF07E51D9267F51DA22A5
:101CE000E80EDE5C030EDE58D8A079EF8EF07BEFB5
:101CF0008EF081EF8EF0000E856F640E846FAFEF73
:101D00008EF020EE1EF07E51D9267F51DA22010E90
:101D1000DB5009E1640EDE5CD8A091EF8EF093EF0A
:101D20008EF099EF8EF0000E856F320E846FAFEF5C
:101D30008EF020EE1EF07E51D9267F51DA22010E60
:101D4000DB5007E1640EDE5CD8B0A9EF8EF0ABEF9C
:101D50008EF0AFEF8EF0000E856F0A0E846F010ECD
:101D600041ECC1F00009D8B4B8EF8EF0BAEF8EF0B4
:101D7000D5EF8EF0000120EE1EF07E51D9267F5166
:101D8000DA22DECF80F0DDCF81F0845180278551CB
:101D9000812320EE1EF07E51D9267F51DA2280C0A9
:101DA000DEFF81C0DDFFF9EF8EF0000E41ECC1F0E7
:101DB0000009D8B4DEEF8EF0E0EF8EF0F9EF8EF090
:101DC000000120EE1EF07E51D9267F51DA22DECFAF
:101DD00080F0DDCF81F08451805F8551815B20EE02
:101DE0001EF07E51D9267F51DA2280C0DEFF81C0ED
:101DF000DDFF000120EE1EF07E51D9267F51DA2250
:101E0000010EDB5007E10A0EDE5CD8B00AEF8FF05E
:101E10000CEF8FF018EF8FF020EE1EF07E51D926D8
:101E20007F51DA22B80EDE6E0B0EDD6E33EF8FF0CF
:101E300020EE1EF07E51D9267F51DA22B90EDE5CEB
:101E40000B0EDE58D8A027EF8FF029EF8FF033EF7D
:101E50008FF020EE1EF07E51D9267F51DA220A0E35
:101E6000DE6E000EDD6E7EC079F07FC07AF0010E6E
:101E70007B6F95ECB3F0030E0001FB19D8A443EF80
:101E80008FF045EF8FF0A8EF90F020EE0BF07E5131
:101E9000D9267F51DA22DFA050EF8FF052EF8FF07A
:101EA0000BEF90F020EE20F07E51D9267F51DA2200
:101EB000E80EDE5C030EDE58D8A061EF8FF063EF12
:101EC0008FF069EF8FF0000E856F640E846F85EFE1
:101ED0008FF020EE20F07E51D9267F51DA22010EBC
:101EE000DB5009E1640EDE5CD8A079EF8FF07BEF68
:101EF0008FF081EF8FF0000E856F320E846F85EFCB
:101F00008FF0000E856F0A0E846F010E41ECC1F058
:101F10000009D8B48EEF8FF090EF8FF0ABEF8FF019
:101F2000000120EE20F07E51D9267F51DA22DECF4B
:101F300080F0DDCF81F0845180278551812320EE10
:101F400020F07E51D9267F51DA2280C0DEFF81C089
:101F5000DDFFCFEF8FF0000E41ECC1F00009D8B4E7
:101F6000B4EF8FF0B6EF8FF0CFEF8FF0000120EEDF
:101F700020F07E51D9267F51DA22DECF80F0DDCFEE
:101F800081F08451805F8551815B20EE20F07E518D
:101F9000D9267F51DA2280C0DEFF81C0DDFF00013B
:101FA00020EE20F07E51D9267F51DA22010EDB503F
:101FB00007E10A0EDE5CD8B0E0EF8FF0E2EF8FF0C1
:101FC000EEEF8FF020EE20F07E51D9267F51DA22FD
:101FD000B80EDE6E0B0EDD6EA0EF90F020EE20F05E
:101FE0007E51D9267F51DA22B90EDE5C0B0EDE5807
:101FF000D8A0FDEF8FF0FFEF8FF0A0EF90F020EE74
:1020000020F07E51D9267F51DA220A0EDE6E000EB4
:10201000DD6EA0EF90F020EE08F07E51D9267F51C2
:10202000DA22310EDF6417EF90F019EF90F01FEF16
:1020300090F0000E856F0A0E846F37EF90F020EE5F
:1020400008F07E51D9267F51DA22090EDF642BEF8A
:1020500090F02DEF90F033EF90F0000E856F050EAD
:10206000846F37EF90F0000E856F010E846F010EC4
:1020700041ECC1F00009D8B440EF90F042EF90F08D
:1020800054EF90F0000120EE08F07E51D9267F51E8
:10209000DA2210EE08F07E51E1267F51E222E7506D
:1020A0008425DF6E71EF90F0000E41ECC1F0000965
:1020B000D8B45DEF90F05FEF90F071EF90F0000119
:1020C00020EE08F07E51D9267F51DA2210EE08F07A
:1020D0007E51E1267F51E222E750806F8451805D7E
:1020E000DF6E000120EE08F07E51D9267F51DA2202
:1020F000DF50D8A47EEF90F080EF90F08AEF90F060
:1021000020EE08F07E51D9267F51DA22640EDF6E70
:10211000A0EF90F020EE08F07E51D9267F51DA2210
:10212000640EDF6496EF90F098EF90F0A0EF90F0DF
:1021300020EE08F07E51D9267F51DA22010EDF6EA3
:102140007EC079F07FC07AF0010E7B6F22ECACF09C
:10215000040E0001FB19D8A4B0EF90F0B2EF90F09C
:1021600067EF98F020EE0BF07E51D9267F51DA22EE
:10217000DFA2BDEF90F0BFEF90F078EF91F020EE8E
:1021800022F07E51D9267F51DA22E80EDE5C030E62
:10219000DE58D8A0CEEF90F0D0EF90F0D6EF90F0D0
:1021A000000E856F640E846FF2EF90F020EE22F047
:1021B0007E51D9267F51DA22010EDB5009E1640EEF
:1021C000DE5CD8A0E6EF90F0E8EF90F0EEEF90F054
:1021D000000E856F320E846FF2EF90F0000E856F67
:1021E0000A0E846F010E41ECC1F00009D8B4FBEF78
:1021F00090F0FDEF90F018EF91F0000120EE22F04A
:102200007E51D9267F51DA22DECF80F0DDCF81F0FA
:10221000845180278551812320EE22F07E51D926DA
:102220007F51DA2280C0DEFF81C0DDFF3CEF91F0FC
:10223000000E41ECC1F00009D8B421EF91F023EF7A
:1022400091F03CEF91F0000120EE22F07E51D92672
:102250007F51DA22DECF80F0DDCF81F08451805FC4
:102260008551815B20EE22F07E51D9267F51DA2202
:1022700080C0DEFF81C0DDFF000120EE22F07E5134
:10228000D9267F51DA22010EDB5007E10A0EDE5C0F
:10229000D8B04DEF91F04FEF91F05BEF91F020EE61
:1022A00022F07E51D9267F51DA22B80EDE6E0B0E57
:1022B000DD6E30EF92F020EE22F07E51D9267F5174
:1022C000DA22B90EDE5C0B0EDE58D8A06AEF91F070
:1022D0006CEF91F030EF92F020EE22F07E51D92693
:1022E0007F51DA220A0EDE6E000EDD6E30EF92F0C4
:1022F00020EE30F07E51D9267F51DA22010EDB50DC
:1023000009E1320EDE5CD8A088EF91F08AEF91F0FF
:1023100090EF91F0000E856F0A0E846FACEF91F094
:1023200020EE30F07E51D9267F51DA22010EDB50AB
:1023300009E10A0EDE5CD8A0A0EF91F0A2EF91F0C7
:10234000A8EF91F0000E856F050E846FACEF91F051
:10235000000E856F010E846F010E41ECC1F0000983
:10236000D8B4B5EF91F0B7EF91F0D2EF91F0000152
:1023700020EE30F07E51D9267F51DA22DECF80F078
:10238000DDCF81F0845180278551812320EE30F00C
:102390007E51D9267F51DA2280C0DEFF81C0DDFF69
:1023A000F6EF91F0000E41ECC1F00009D8B4DBEF7C
:1023B00091F0DDEF91F0F6EF91F0000120EE30F0BA
:1023C0007E51D9267F51DA22DECF80F0DDCF81F039
:1023D0008451805F8551815B20EE30F07E51D9269B
:1023E0007F51DA2280C0DEFF81C0DDFF000120EED8
:1023F00030F07E51D9267F51DA22010EDB5007E101
:10240000050EDE5CD8B007EF92F009EF92F015EF01
:1024100092F020EE30F07E51D9267F51DA222C0E38
:10242000DE6E010EDD6E30EF92F020EE30F07E5168
:10243000D9267F51DA222D0EDE5C010EDE58D8A09F
:1024400024EF92F026EF92F030EF92F020EE30F091
:102450007E51D9267F51DA22050EDE6E000EDD6E2A
:102460007EC079F07FC07AF0010E7B6F1EECAEF07B
:1024700067EF98F0050EEB19D8A441EF92F043EF07
:1024800092F067EF98F0050EFB19D8A44AEF92F08E
