:040000002DEF00F0F0
:100008005F82F2A40AEF00F00CEF00F02BEF00F093
:10001800FD0ED76E110ED66E0001D44BD52BD24BE8
:10002800D32BE80ED25D030ED359D8A01EEF00F0F3
:1000380020EF00F02AEF00F0000ED36F000ED26F11
:10004800010ECA27000ECB23CC23CD23F2945F9256
:06005800110024EF93F0FB
:10CABC00004361703A3534306D4168004379636CE2
:10CACC00653A322F34004375723A3233306D41007F
:10CADC00566F6C3A332C333556000E0000000000B4
:10CAEC00000000000000000000000000000000003A
:10CAFC00000000000000000000000000000000002A
:10CB0C000000000000000000000000000000000019
:10CB1C000000000000000000000000000000000009
:10CB2C0000000000000000000000000000000000F9
:10CB3C0000000000000000000000000000000000E9
:10CB4C0000000000000000050000000000000000D4
:10CB5C00FC7F0E00FC7F0F00FC7F07000000000034
:10CB6C0000000000000000000000000000000000B9
:10CB7C0000000000000000000000000000000000A9
:10CB8C000000000000000000000000000000000099
:10CB9C000000000000000000000000000000000089
:10CBAC000000000000000000000000000000000079
:10CBBC0000000000090000000000000000FC010063
:10CBCC0000FC01000000000000000000000000005C
:10CBDC0000FC010000FC010000000000000000004F
:10CBEC000000000000000000000000000000000039
:10CBFC000000000000000000000000000000000029
:10CC0C000000000000000000000000000000000018
:10CC1C000000000000000000000000000000000008
:10CC2C0000110000000000600000806100008061C5
:10CC3C000C0080E10F0080FD0F00807F0000F86F7A
:10CC4C000000FC610C008CE10F0080FD0F00807F68
:10CC5C000000F86F0000FC6100008C610000802176
:10CC6C000000800100000000000000000000000037
:10CC7C0000000000000000000000000000000000A8
:10CC8C000000000000000000000000000000110087
:10CC9C0000000000830100C0C70300E08F03007098
:10CCAC000C0700300C0600180C060018040600FFD8
:10CCBC00FF7F00FEFF3F0018060600180603001851
:10CCCC000603003886030070FE010070FC000000B3
:10CCDC0078000000000000000000000000000000D0
:10CCEC000000000000000000000000000000000038
:10CCFC000000000000000000000000150000000013
:10CD0C00E0000000F0010000F80300001C03040028
:10CD1C000C030E008C830F00FCC10300F8F0000024
:10CD2C00707C0000001E000080070300E0830700F9
:10CD3C00F0C00F003CC00C001C600C0008600C0024
:10CD4C000060060000E0070000C003000080010046
:10CD5C0000000000000000000000000000000000C7
:10CD6C000000000000000000160000000000E003BE
:10CD7C000000F0070000F80700701C0E00F80E0C05
:10CD8C0000F80F0C00DC070C008C070C000C0F0CCF
:10CD9C00000C1F06008C1F0600CC390700F871032D
:10CDAC0000F8F0030070E0010000E0010000F8035F
:10CDBC0000003C070000180E0000000E00000007E9
:10CDCC000000000000000000000000000000000057
:10CDDC000000000000040000000000000000FC0146
:10CDEC000000FC010000000000000000000000003A
:10CDFC000000000000000000000000000000000027
:10CE0C000000000000000000000000000000000016
:10CE1C000000000000000000000000000000000006
:10CE2C0000000000000000000000000000000000F6
:10CE3C0000000000000000000000000000000000E6
:10CE4C0000000B000000000000000000FC030000CC
:10CE5C00FF1F00C0FF3F00E003FC00F000E00138C2
:10CE6C0000C0013C0080031C00800308000000008F
:10CE7C0000000000000000000000000000000000A6
:10CE8C000000000000000000000000000000000096
:10CE9C000000000000000000000000000000000086
:10CEAC000000000000000000000000000000000A6C
:10CEBC0000000000080000001C0080033C00800300
:10CECC003800C001F000F001E003FC00C0FF3F009F
:10CEDC0000FF1F0000FC0300000000000000000029
:10CEEC000000000000000000000000000000000036
:10CEFC000000000000000000000000000000000026
:10CF0C000000000000000000000000000000000015
:10CF1C000000000000000000000000000A000000FB
:10CF2C0000C0000000C00000004C020000D803004C
:10CF3C0000F0010000FC000000AC01000030030018
:10CF4C0000300000000000000000000000000000A5
:10CF5C0000000000000000000000000000000000C5
:10CF6C0000000000000000000000000000000000B5
:10CF7C0000000000000000000000000000000000A5
:10CF8C000000000000000000000E00000000004047
:10CF9C000000006000000060000000600000006005
:10CFAC00000000FF0F0000FF0F0000FF0F000060EB
:10CFBC0000000060000000600000006000000060E5
:10CFCC000000000000000000000000000000000055
:10CFDC000000000000000000000000000000000045
:10CFEC000000000000000000000000000000000035
:10CFFC0000000000000005000000000000660000BA
:10D00C00006F0000003F0000001E00000000000048
:10D01C000000000000000000000000000000000004
:10D02C0000000000000000000000000000000000F4
:10D03C0000000000000000000000000000000000E4
:10D04C0000000000000000000000000000000000D4
:10D05C0000000000000000000000000000000000C4
:10D06C000000000A0000000000300000007000000A
:10D07C0000300000003000000030000000300000E4
:10D08C000030000000300000003000000000000004
:10D09C000000000000000000000000000000000084
:10D0AC000000000000000000000000000000000074
:10D0BC000000000000000000000000000000000064
:10D0CC000000000000000000000000000000000054
:10D0DC0005000000000000000000000E0000000F22
:10D0EC00000000070000000000000000000000002D
:10D0FC000000000000000000000000000000000024
:10D10C000000000000000000000000000000000013
:10D11C000000000000000000000000000000000003
:10D12C0000000000000000000000000000000000F3
:10D13C00000000000000000000000000000B0000D8
:10D14C0000000000040000000F0000C00F0000F8F9
:10D15C000100007E0000801F0000E0070000FC01C1
:10D16C0000007C0000001C0000000000000000001B
:10D17C0000000000000000000000000000000000A3
:10D18C000000000000000000000000000000000093
:10D19C000000000000000000000000000000000083
:10D1AC00000000000000000000001600000000005D
:10D1BC00F8010000FF030080FF0700C0030700E038
:10D1CC00010E0070000C0030000C0038000C001830
:10D1DC00000C0008000C000C000C000C0006000CED
:10D1EC000006000C0007000C0003001C8003001854
:10D1FC00C0010038F00000F07F0000E03F0000C0EC
:10D20C000F00000000000000000000000000000003
:10D21C0000000000000000100000000000000000F2
:10D22C00000000000000000000010000800300006E
:10D23C00C0030000C0010000E0000000E00000009E
:10D24C00700000007000000038000000F8FF0F00B4
:10D25C00FCFF0F00FCFF0F000000000000000000AE
:10D26C0000000000000000000000000000000000B2
:10D27C0000000000000000000000000000000000A2
:10D28C00000000001400000000000000000000007E
:10D29C0000E0000E00E0000F00F0C00F0038E00DC1
:10D2AC000018E00C0018700C000C300C000C380C42
:10D2BC00000C380C000C1C0C000C1C0C000C0C0C86
:10D2CC00000C0E0C00180F0C00F8070E00F8030FE2
:10D2DC0000E0010E00000000000000000000000053
:10D2EC000000000000000000000000000000000032
:10D2FC000015000000000000000000C003007CC00E
:10D30C0007007CC007007C000E000C000C000C0019
:10D31C000C000C0E0C000C060C000C070C000C077F
:10D32C000C008C030C00CC030600EC0306007C0301
:10D33C0006003C0303001CC703000CFE010000FEAA
:10D34C000000007C00000000000000000000000055
:10D35C0000000000000000000000000000001600AB
:10D36C00C0000000E0000000F0000000F800000029
:10D37C00F8000000FC000000EE00000067000080D8
:10D38C00630000C0610000E06000007060000038C5
:10D39C00700000FCFF0F00FCFF0F00FCFF0F0000F3
:10D3AC0030000000300000003000000038000000A9
:10D3BC0038000000380000000000000000000000F1
:10D3CC00000000000000000000000015000000003C
:10D3DC000000000000080300F81F0700F81F0700FA
:10D3EC00F80D0E00080E0C0008060C0008060C00C8
:10D3FC0008020C0008030C0008030C0008030C00C6
:10D40C00080306000C0306000C0307000C070300BE
:10D41C000CC603000CFE010000FC000000780000AC
:10D42C0000000000000000000000000000000000F0
:10D43C000000000000000000160000000000780052
:10D44C000000FE030080FF0300C0C70700E0E107F7
:10D45C000060700E0070300C0038380C00181C0C7A
:10D46C0000180C0C000C0C0C000C060C000C060E1E
:10D47C00000C0606000C0606000C0607000C060342
:10D48C0000388E030078FC010030FC0000007800AE
:10D49C000000000000000000000000000000000080
:10D4AC00000000000016000000000000000000005A
:10D4BC000000F8010000FC010000FC0000000C0062
:10D4CC0000000C0000000C0000000C000E000C8092
:10D4DC000F000CE007000CF001000CFC00000C3EEF
:10D4EC0000008C1F0000EC070000FC030000FC0097
:10D4FC0000003C0000000C000000040000000000D4
:10D50C00000000000000000000000000000000000F
:10D51C000000160000000000C0010000E003000045
:10D52C00F00700C0790600F03B0E00F81F0C003825
:10D53C000E0C00180C0C001C0C0C000C060C000C37
:10D54C00060C000C0606000C0606000C0606001C59
:10D55C00070300F8070300F886030070CE010000F3
:10D56C00FC000000FC00000038000000000000007F
:10D57C000000000000000000000000000000001689
:10D58C00000000000000010080830300E08707001A
:10D59C00F00F0700700C0E00381C0C0018180C0053
:10D5AC001C180C000C180C000C180C000C180C009F
:10D5BC000C1804000C0C06000C0C06001C0C0700CC
:10D5CC001886030038C70300F0E30100F0FF0000E9
:10D5DC00E07F0000001F00000000000000000000C1
:10D5EC00000000000000000000000000050000002A
:10D5FC000000000000000C0E00001E0F00000C07C5
:10D60C00000000000000000000000000000000000E
:10D61C0000000000000000000000000000000000FE
:10D62C0000000000000000000000000000000000EE
:10D63C0000000000000000000000000000000000DE
:10D64C0000000000000000000000000000000000CE
:10D65C0000000000000000000005000000000000B9
:10D66C006600000C6F00001E3F00000E1E00000044
:10D67C00000000000000000000000000000000009E
:10D68C00000000000000000000000000000000008E
:10D69C00000000000000000000000000000000007E
:10D6AC00000000000000000000000000000000006E
:10D6BC00000000000000000000000000000000005E
:10D6CC000000000000000D00000000000000000041
:10D6DC006000000070000000F0000000F801000085
:10D6EC00D80100009C0300000C0300000E07000092
:10D6FC00070E0000070E00000202000000000000F0
:10D70C00000000000000000000000000000000000D
:10D71C0000000000000000000000000000000000FD
:10D72C0000000000000000000000000000000000ED
:10D73C000000000D00000000008C0100008C0100B6
:10D74C00008C0100008C0100008C0100008C010099
:10D75C00008C0100008C0100008C0100008C010089
:10D76C00008C0100008C0100000000000000000093
:10D77C00000000000000000000000000000000009D
:10D78C00000000000000000000000000000000008D
:10D79C00000000000000000000000000000000007D
:10D7AC000D00000000000000000002020000070E47
:10D7BC000000070E00000E0700000C0300009C0385
:10D7CC000000D8010000F8010000F000000070001B
:10D7DC0000006000000000000000000000000000DD
:10D7EC00000000000000000000000000000000002D
:10D7FC00000000000000000000000000000000001D
:10D80C0000000000000000000000000000100000FC
:10D81C0000002000000070000000F0000000787094
:10D82C00000018F8000018FC1C000CDC1E000CCECC
:10D83C000E000CC700000CF700008C730000DC21FC
:10D84C000000F8010000F80000007000000000006B
:10D85C0000000000000000000000000000000000BC
:10D86C0000000000000000000000000000000000AC
:10D87C00000000000000000000001B000000000081
:10D88C0080070000E01F0000783800001C3000000A
:10D89C000E70000006670000C3670080E36F008015
:10D8AC00716C0080396C00C0186C00C00C6600C034
:10D8BC000C36006004330060863B0060861100600B
:10D8CC00C6070060FE0F0060FE0F00600E0C0060CB
:10D8DC00000C00C0000600C001060080830300009D
:10D8EC00FF0100007C00001500000E0000800F00FE
:10D8FC0000C00F0000F0010000780000003E0000A6
:10D90C00001F0000801F0000E01B0000F818000042
:10D91C007C1800007C180000F8180000E01B0000C8
:10D92C00801F0000001F0000007C000000F80100B8
:10D93C0000E00F0000800F0000000E00000000004F
:10D94C0000000000000000000000000000000000CB
:10D95C0000000000150000000000000000F8FF0FA0
:10D96C0000FCFF0F00F8FF0F0018060C0018060C47
:10D97C000018070C000C0704000C0306000C03062F
:10D98C00008C0306008C030700CC030300CC0303BC
:10D99C0000FC83030078C3010038E7010000FE009F
:10D9AC0000007E0000001C000000000000000000D1
:10D9BC00000000000000000000000000000000005B
:10D9CC00001200000000007C000000FF0100C0FFFE
:10D9DC000700E0830700F0000E0030000E00380056
:10D9EC000C0018000C000C000C000C000C000C00BF
:10D9FC000C000C0006000C0007000C00070018C0FF
:10DA0C00030038C0010038C0010000000000000015
:10DA1C0000000000000000000000000000000000FA
:10DA2C0000000000000000000000000000001500D5
:10DA3C0000000000000000FCFF0F00FCFF0F00FCCA
:10DA4C00FF0F0038000C0018000C0018000C001C14
:10DA5C000006000C0006000C0006000C0007000C71
:10DA6C000003000C8003000C8003001CC001001894
:10DA7C00E0010078F80000F07F0000E01F0000C01B
:10DA8C000700000000000000000000000000000083
:10DA9C000000000000000000000000130000000067
:10DAAC0010000000FCFF0F00FCFF0F00FCFF0F003C
:10DABC00180C0600180C0600180C0600180C0600B2
:10DACC00180C0600180C0600180C0600180C0600A2
:10DADC00180E06001C0E06001C0406001C00070095
:10DAEC000000070000000200000000000000000021
:10DAFC00000000000000000000000000000000001A
:10DB0C0000000000000000001100000000000000F8
:10DB1C0000F8FF0F00FCFF0F00FCFF0F00381C008B
:10DB2C0000381C0000380C0000180C0000180C0009
:10DB3C0000180C0000180C0000180E00001C0E0041
:10DB4C00001C0E00001C0E00001C00000000000059
:10DB5C0000000000000000000000000000000000B9
:10DB6C0000000000000000000000000000000000A9
:10DB7C000000000000170000000000F8000000FE8C
:10DB8C00010080FF0300C0870700E0010600E000F1
:10DB9C000E0070000C0030000C0038000C00180057
:10DBAC000C0018000C000C100C000C1806000C18C3
:10DBBC0006000C1806000C1803000C9803001CCC73
:10DBCC00010018EC010038FC0000107C0000001C67
:10DBDC000000000000000000000000000000000039
:10DBEC0000001400000000000C0000FCFF0F00FC03
:10DBFC00FF0F00FCFF0F00000E0000000E000000E5
:10DC0C000E0000000E0000000E0000000E000000D0
:10DC1C000E000000060000000600000006000000D8
:10DC2C0006000000060000FCFF0F00FCFF0F00FCCC
:10DC3C00FF0F0000000000000000000000000000CA
:10DC4C0000000000000000000000000000000005C3
:10DC5C000000000000000000FCFF0F00FCFF0F00A4
:10DC6C00FCFF0F000000000000000000000000009E
:10DC7C000000000000000000000000000000000098
:10DC8C000000000000000000000000000000000088
:10DC9C000000000000000000000000000000000078
:10DCAC000000000000000000000000000000000068
:10DCBC000000000000000000000000001000000048
:10DCCC00000080030000C0070000C00F0000001C13
:10DCDC0000000018000000180000001800000018D8
:10DCEC00000000180000001C0000000E0000000FD7
:10DCFC0000FCFF0700FCFF0300FCFF01000000001C
:10DD0C000000000000000000000000000000000007
:10DD1C0000000000000000000000000000000000F7
:10DD2C0000000000000000000013000000000000D4
:10DD3C000000FCFF0F00FCFF0F00FCFF0F00800F2A
:10DD4C000000800F0000C01D0000E0380000E078EB
:10DD5C0000007070000030E0000038C0010018C0F6
:10DD6C0003000C8003000C00070000000E000000F4
:10DD7C000E00000004000000000000000000000085
:10DD8C000000000000000000000000000000000087
:10DD9C000000000000000F0000000000000000FC6C
:10DDAC00FF0F00FCFF0F00FCFF0F0000000E000037
:10DDBC00000E000000060000000600000006000037
:10DDCC00000600000007000000070000000700002C
:10DDDC000007000000000000000000000000000030
:10DDEC000000000000000000000000000000000027
:10DDFC000000000000000000000000000000000017
:10DE0C00000000190000000000000000F8FF0F00E7
:10DE1C00FCFF0F00FCFF0F00F0010000C00300002E
:10DE2C00800F0000001E0000007C000000F80100C4
:10DE3C0000E0070000800F0000800F0000E00700EA
:10DE4C0000F0010000F80000003C0000001E000083
:10DE5C00000F0000C0030000E0010000FCFF0F00F9
:10DE6C00FCFF0F00FCFF0F00000000000000000092
:10DE7C00130000000000000000FCFF0F00FCFF0F6F
:10DE8C0000FCFF0F00F0010000C003000080070041
:10DE9C0000000F0000001E0000003C0000003800D5
:10DEAC00000070000000F0000000E0010000C00362
:10DEBC0000FCFF0700FCFF0F00FCFF0F0000000040
:10DECC000000000000000000000000000000000046
:10DEDC000000000000000000000000000015000021
:10DEEC00000000F8000000FE010080FF0300C0836A
:10DEFC000700E001060070000E0030000C00380036
:10DF0C000C0018000C000C000C000C000C000C0099
:10DF1C0006000C0006000C0007001C00030018C0D3
:10DF2C00030078E00100F0FF0000E07F0000801F9C
:10DF3C0000000000000000000000000000000000D5
:10DF4C00000000000000000000001300000000C0F2
:10DF5C00000000FCFF0F00FCFF0F00FCFF0F00385F
:10DF6C001C0000380C0000180C0000180C000008F5
:10DF7C000E00000C0E00000C0600000C0700000C3C
:10DF8C000300008C030000CC010000FC010000F831
:10DF9C00000000380000000000000000000000003D
:10DFAC000000000000000000000000000000000065
:10DFBC0000000000000000170000000000F8000046
:10DFCC0000FE030080FF0700C0070700E0010E0001
:10DFDC00E0000C0070000C0030000C0018000C006D
:10DFEC0018000C000C200C000C700E000CF006003D
:10DFFC000CE006000CC007001CC003001CC007008E
:10E00C0078F00700F0FF0E00E03F1C00C00F1C0072
:10E01C0000000800000000000000000000000000EC
:10E02C00000000001500000000E0000000FCFF0FE5
:10E03C0000FCFF0F00FCFF0F00381C0000183E0016
:10E04C0000183E0000187600000C7600000CE6006C
:10E05C00000CE300000CC300008CC301008C810198
:10E06C0000CC810300FC000300F800070038000618
:10E07C000000000E0000000E000000000000000078
:10E08C000000000000000000000000000000000084
:10E09C0000150000000000070300C0870700E00F18
:10E0AC000700700C0E00300C0C00180C0C00180C37
:10E0BC000C00180C0C000C040C000C040C000C06CE
:10E0CC000E000C0606000C0606000C0607001C06CB
:10E0DC0007003886030038C6030010FE010000FC60
:10E0EC0000000038000000000000000000000000EC
:10E0FC0000000000000000000000000000001230D2
:10E10C000000003000000030000000300000003043
:10E11C000000001000000010000000F8FF0F00F8D5
:10E12C00FF0F00F8FF0F00180000000800000008A7
:10E13C00000000080000000C0000000C0000000CA7
:10E14C000000000C000000000000000000000000B7
:10E15C0000000000000000000000000000000000B3
:10E16C000000000000000000000000120000000091
:10E17C0000000000FCFF0300FCFF0700F8FF070095
:10E18C0000000E0000000C0000000C0000000C0051
:10E19C0000000C0000000C0000000E000000060047
:10E1AC000000070000000700FCFF0300FCFF01005B
:10E1BC00FCFF000000000000000000000000000058
:10E1CC000000000000000000000000000000000043
:10E1DC00000000000000000013000000003C0000E4
:10E1EC0000FC010000F8070000C01F0000007F00C9
:10E1FC000000F80F0000C00F0000C00F0000F0007E
:10E20C0000007C0000001E0000000F0000C0030096
:10E21C0000E0010000F0000000780000003C00006D
:10E22C0000180000000000000000000000000000CA
:10E23C0000000000000000000000000000000000D2
:10E24C0000000000001B000000007C000000FC032C
:10E25C000000FC1F000000FF000000F80F0000E0B1
:10E26C000F0000C00F0000F0010000780000003E1D
:10E27C000000800F0000F8030000F8000000F80315
:10E28C000000800F0000003E000000FC000000F0C9
:10E29C00070000800F0000C00F0000F80300007E94
:10E2AC000000801F0000FC070000FC0100003C0087
:10E2BC00000011000004001C000E003C000F007C4C
:10E2CC00C00700F8E00300F0F10000C07B00008004
:10E2DC003F0000001F0000001F0000C07F0000E096
:10E2EC00F10000F0E0010078C003003C800F001C3E
:10E2FC00000F0018000400000000000000000000E7
:10E30C000000000000000000000000000000000001
:10E31C0000000000000000000000000000000015DC
:10E32C00180000001C0000003C00000078000000F9
:10E33C00F0000000E0010000C001000080030000BC
:10E34C000007000000FF0F0000FE0F0000FE0F0092
:10E35C000007000080030000C0010000E001000085
:10E36C00E000000070000000380000003C000000DD
:10E37C001C00000000000000000000000000000075
:10E38C00000000000000000000000000140000006D
:10E39C000000000E0038000F003C800F001CC00F66
:10E3AC00000CC00D000CE00C000C700C000C380CB8
:10E3BC00000C3C0C000C1E0C000C0F0C008C070C01
:10E3CC0000CC030C00EC010C00EC000C00FC000C6D
:10E3DC00007C000E003C000F001C0006000000003A
:10E3EC000000000000000000000000000000000021
:10E3FC000000000000000000000C00000000000005
:10E40C00000000000000F8FFFF03FCFFFF03FCFF0F
:10E41C00FF030C0000030C0000030C0000030C00B5
:10E42C0000030C008003000000010000000000004D
:10E43C0000000000000000000000000000000000D0
:10E44C0000000000000000000000000000000000C0
:10E45C0000000000000000000000000000000000B0
:10E46C000000000000000B080000001C0000007CF5
:10E47C00000000F0010000C0070000001F000000B9
:10E48C007C000000F0010000C00F0000000F000035
:10E49C00000400000000000000000000000000006C
:10E4AC000000000000000000000000000000000060
:10E4BC000000000000000000000000000000000050
:10E4CC000000000000000000000000000000000040
:10E4DC0000000009000000000C0000030C00000309
:10E4EC000C0000030C0000030C000003FCFFFF03F6
:10E4FC00FCFFFF03FCFFFF03000000000000000016
:10E50C0000000000000000000000000000000000FF
:10E51C0000000000000000000000000000000000EF
:10E52C0000000000000000000000000000000000DF
:10E53C0000000000000000000000000000000000CF
:10E54C000D000000000001000080030000C003006B
:10E55C0000E0010000F0000000780000001C00004A
:10E56C00007C000000F0000000E0030000C003008D
:10E57C00000003000000000000000000000000008C
:10E58C00000000000000000000000000000000007F
:10E59C00000000000000000000000000000000006F
:10E5AC00000000000000000000000000000D000052
:10E5BC00C0000000C0000000C0000000C00000004F
:10E5CC00C0000000C0000000C0000000C00000003F
:10E5DC00C0000000C0000000C0000000C00000002F
:10E5EC00C00000000000000000000000000000005F
:10E5FC00000000000000000000000000000000000F
:10E60C0000000000000000000000000000000000FE
:10E61C0000000000000000000000080000000000E6
:10E62C000000000C0000001C00000018000000306E
:10E63C00000000600000006000000000000000000E
:10E64C0000000000000000000000000000000000BE
:10E65C0000000000000000000000000000000000AE
:10E66C00000000000000000000000000000000009E
:10E67C00000000000000000000000000000000008E
:10E68C00000000000000000F000000000000060069
:10E69C0000800F0000CC0F0000CE0C0000C60C0058
:10E6AC0000660C0000630400002306000033060023
:10E6BC000033030000B3010000FF0F0000FE0F0049
:10E6CC0000FE0F0000000000000000000000000031
:10E6DC00000000000000000000000000000000002E
:10E6EC00000000000000000000000000000000001E
:10E6FC0000000000100000000000000000FCFF0FF4
:10E70C0000FCFF0F00FCFF0F00001C0C00000E0CA7
:10E71C00000006060000060600000203000083034A
:10E72C000000C3010000E30000007F0000003F0078
:10E73C0000000E00000000000000000000000000BF
:10E74C0000000000000000000000000000000000BD
:10E75C0000000000000000000000000000000000AD
:10E76C00000F0000000000E0030000F0070000F8BC
:10E77C000700003C0E00000E0C0000060C00000709
:10E78C000C0000030C0000030C0000030600000347
:10E79C0007000087070000860300008601000000C8
:10E7AC00000000000000000000000000000000005D
:10E7BC00000000000000000000000000000000004D
:10E7CC00000000000000000000000000000010002D
:10E7DC000000000080070000C0070000E00F0000F0
:10E7EC00780C0000380C00001C0C00000C0C000015
:10E7FC000C0600000606000006030000860300005D
:10E80C00C60100FCFF0F00FCFF0F00FCFF0F000017
:10E81C0000000000000000000000000000000000EC
:10E82C0000000000000000000000000000000000DC
:10E83C0000000000000000000000001000000000BC
:10E84C0000C0030000F0070000F80F00007C0E0071
:10E85C00006C0C0000660C0000660C0000330C0011
:10E86C0000330C0000330E000033060000330600AA
:10E87C00009E0300009E0300000C0100000000003D
:10E88C00000000000000000000000000000000007C
:10E89C00000000000000000000000000000000006C
:10E8AC0000000000000000000D00040000000C003F
:10E8BC0000000C0000000C0000C0FF0F00F0FF0F68
:10E8CC0000F8FF0F001C0600000C0600000C0600F0
:10E8DC00000C0600003807000018070000000000BC
:10E8EC00000000000000000000000000000000001C
:10E8FC00000000000000000000000000000000000C
:10E90C0000000000000000000000000000000000FB
:10E91C0000000000000F000000000080070000E075
:10E92C000F0000F0CF010078CC01001C8C03000C10
:10E93C000C0300060603000607030002030300C3D2
:10E94C00830300F3C00100FFFF0100FFFF0000FF85
:10E95C003F0000000000000000000000000000006C
:10E96C00000000000000000000000000000000009B
:10E97C00000000000000000000000000000000008B
:10E98C0000000F0000000000000000FCFF0F00FC66
:10E99C00FF0F00FCFF0F00001C0000000E00000029
:10E9AC000600000006000000030000000300000049
:10E9BC0003000000FF0F0000FF0F0000FE0F00001F
:10E9CC00000000000000000000000000000000003B
:10E9DC00000000000000000000000000000000002B
:10E9EC000000000000000000000000000000000516
:10E9FC00000000000000000070FF0F0078FF0F0007
:10EA0C0038FF0F00000000000000000000000000B4
:10EA1C0000000000000000000000000000000000EA
:10EA2C0000000000000000000000000000000000DA
:10EA3C0000000000000000000000000000000000CA
:10EA4C0000000000000000000000000000000000BA
:10EA5C0000000000000000000000000006000000A4
:10EA6C00060000000700FFFF0318FFFF033CFFFF39
:10EA7C00011C00000000000000000000000000006D
:10EA8C00000000000000000000000000000000007A
:10EA9C00000000000000000000000000000000006A
:10EAAC00000000000000000000000000000000005A
:10EABC00000000000000000000000000000000004A
:10EACC000000000000000000000E0000000000002C
:10EADC000000FCFF0F00FCFF0F00FCFF0F0000709C
:10EAEC00000000F8000000DC010000DC0100008EDA
:10EAFC000300000707008007070080030E000001D9
:10EB0C000C000000000000000000000000000000ED
:10EB1C0000000000000000000000000000000000E9
:10EB2C0000000000000000000000000000000000D9
:10EB3C00000000000000050000000000000000FCC8
:10EB4C00FF0F00FCFF0F00FCFF0F00000000000097
:10EB5C0000000000000000000000000000000000A9
:10EB6C000000000000000000000000000000000099
:10EB7C000000000000000000000000000000000089
:10EB8C000000000000000000000000000000000079
:10EB9C000000000000000000000000000000000069
:10EBAC0000000018000000000000000000FF0F0033
:10EBBC0000FF0F0000FF0F00001C0000000C000005
:10EBCC000006000000060000000200000003000028
:10EBDC0000FF0F0000FF0F0000FE0F0000180000E8
:10EBEC00000C0000000C00000006000000020000F9
:10EBFC00000300000003000000FF0F0000FF0F00E7
:10EC0C0000FE0F00000000000000000000000000EB
:10EC1C000F000000000000000000FF0F0000FF0FBD
:10EC2C000000FF0F00001C0000000C0000000E0094
:10EC3C0000000600000002000000030000000300BA
:10EC4C000000FF0F0000FF0F0000FE0F000000008F
:10EC5C0000000000000000000000000000000000A8
:10EC6C000000000000000000000000000000000098
:10EC7C000000000000000000000000000010000078
:10EC8C00000000C0030000F0070000F80700001CA3
:10EC9C000E00000E0C0000060C0000060C00000319
:10ECAC000C0000030E0000030600000307000087A1
:10ECBC00030000FE010000FE0000007800000000D0
:10ECCC000000000000000000000000000000000038
:10ECDC000000000000000000000000000000000028
:10ECEC000000000000000000000011000000000007
:10ECFC0000000000FFFF0F00FFFF0F00FFFF0F00E1
:10ED0C00380C00001C0C00000E0C0000060C00005F
:10ED1C00030E00000306000003070000830300003D
:10ED2C00C7030000FF010000FE0000003C000000D3
:10ED3C0000000000000000000000000000000000C7
:10ED4C0000000000000000000000000000000000B7
:10ED5C0000000000000000140000000000E00300B0
:10ED6C0000F0070000F80F00001C0E00000E0C0055
:10ED7C0000060C0000070C0000030600000307004F
:10ED8C000083030000C3010000F3000000FFFF0735
:10ED9C0000FFFF0F00FEFF0F000000060000000345
:10EDAC000000800300008001000000000000000053
:10EDBC000000000000000000000000000000000047
:10EDCC00000000000D000000000000000000FF0F1C
:10EDDC000000FF0F0000FF0F0000180000000C00E7
:10EDEC0000000600000002000000030000001F00ED
:10EDFC0000001F0000000E000000000000000000DA
:10EE0C0000000000000000000000000000000000F6
:10EE1C0000000000000000000000000000000000E6
:10EE2C0000000000000000000000000000000000D6
:10EE3C0000110000000000380600007C0700007C78
:10EE4C000600006E0C0000660C0000660C000063EF
:10EE5C000C0000230C0000330C00003306000033C0
:10EE6C000600003306000033030000F2030000E04C
:10EE7C00010000E0000000000000000000000000A5
:10EE8C000000000000000000000000000000000076
:10EE9C000000000000000000000000000000110055
:10EEAC000000000006000000060000000600000044
:10EEBC00070000E0FF0700E0FF0F00E0FF0F00007D
:10EECC00030C0000030C0000030400000306008088
:10EEDC000107008001030000C1030000C001000015
:10EEEC008000000000000000000000000000000096
:10EEFC000000000000000000000000000000000006
:10EF0C0000000000000000000000000F00000000E6
:10EF1C000000000000FF070000FF070000FF0F00CB
:10EF2C0000000C0000000C0000000C0000000600AB
:10EF3C0000000600000007000080030000FF0F0027
:10EF4C0000FF0F0000FF0F00000000000000000099
:10EF5C0000000000000000000000000000000000A5
:10EF6C000000000000000000000000000000000095
:10EF7C0000000000000000000F00060000001F0051
:10EF8C0000007F000000FE030000E00F0000800F77
:10EF9C000000000F0000C0070000E0010000F000BE
:10EFAC0000003C0000001E0000000F0000000700E5
:10EFBC000000030000000000000000000000000042
:10EFCC000000000000000000000000000000000035
:10EFDC000000000000000000000000000000000025
:10EFEC000000000000160000000000070000001FD9
:10EFFC00000000FF000000F0070000C00F00000040
:10F00C000F0000C0070000E0010000F80000003F06
:10F01C000000001F0000007F000000F8010000E06D
:10F02C00070000800F0000800F0000E0030000F0DC
:10F03C000100007E0000001F00000007000000001F
:10F04C0000000000000000000000000000000000B4
:10F05C0000000F000000000002060000070E000078
:10F06C000F0700009C030000F8010000F8010000ED
:10F07C00F0000000F0000000F8010000DC010000CE
:10F08C008E03000007070000070E0000000C0000B4
:10F09C000000000000000000000000000000000064
:10F0AC000000000000000000000000000000000054
:10F0BC000000000000000000000000000000001034
:10F0CC000002E0000007E001001F8001003E80010B
:10F0DC000078800100F0C00100E0E1000080F70042
:10F0EC0000007F0000001F0000C00F0000F00300B4
:10F0FC0000FC0000003F0000000F000000030000B7
:10F10C0000000000000000000000000000000000F3
:10F11C0000000000000000000000000000000000E3
:10F12C000000000000000000000000000F000008BC
:10F13C0000000E0C00000E0E0000060F0000060F63
:10F14C000000860F0000C60D0000E60C0000760CD7
:10F15C0000003E0C00003E0C00001E0C00000E0CCB
:10F16C000000070E0000030E00000000000000006D
:10F17C000000000000000000000000000000000083
:10F18C000000000000000000000000000000000073
:10F19C000000000000000000000D000000000060F6
:10F1AC000000006000000060000000E0000000F0C3
:10F1BC00FF01E0FFFF01F81FFF03F80F00031C0025
:10F1CC0000030C0000030C0000030C000001000005
:10F1DC000000000000000000000000000000000023
:10F1EC000000000000000000000000000000000013
:10F1FC000000000000000000000000000000000003
:10F20C00000000000000050000000000000000FFEE
:10F21C00FFFF07FFFFFF07FFFFFF070000000000D5
:10F22C0000000000000000000000000000000000D2
:10F23C0000000000000000000000000000000000C2
:10F24C0000000000000000000000000000000000B2
:10F25C0000000000000000000000000000000000A2
:10F26C000000000000000000000000000000000092
:10F27C000000000C080000030C0000030C0000034D
:10F28C000C0080030C00FF01FC8FFF01F8FF7F00D6
:10F29C00F0FF000000700000006000000060000043
:10F2AC0000600000000000000000000000000000F2
:10F2BC000000000000000000000000000000000042
:10F2CC000000000000000000000000000000000032
:10F2DC000000000000000000000000000000000022
:10F2EC000D000000000080000000E0010000E000C4
:10F2FC0000003000000030000000700000006000D2
:10F30C000000C0000000C0000000E0000000780019
:10F31C0000003800000000000000000000000000A9
:10F32C0000000000000000000000000000000000D1
:10F33C0000000000000000000000000000000000C1
:10F34C0000000000000000000000000000080000A9
:10F35C000000FEFF1F00FEFF1F0002001000020055
:10F36C00100002001000FEFF1F00FEFF1F00000037
:10F37C000000000000000000000000000000000081
:10F38C000000000000000000000000000000000071
:10F39C000000000000000000000000000000000061
:10F3AC000000000000000000000000000000000051
:10F3BC00000000000000000000000600000000003B
:10F3CC000000000000000000000000000000000031
:10F3DC00000200007E03000000000000000000009E
:10F3EC0000000000000000000400000F0000000FEF
:10F3FC0000000000000000000000000000000008F9
:10F40C00000040004803F8004E03F8004E000800CE
:10F41C000000000000000618022402FF0F44024402
:10F42C00028401000000000000000000000B00003E
:10F43C001C00220022029C0160001000CC01220260
:10F44C002002C00108CC0132022202220252028C9C
:10F45C0001E00100020000000000000200000F00AB
:10F46C000000000000000000000000000000000090
:10F47C000000050000F0010C06020801100000005D
:10F48C0000000000000000000004011002080C063F
:10F49C00F00100000000000000000000000000006F
:10F4AC000600000A0004001F0004000A000000000F
:10F4BC000000000000000007200020002000FC01DC
:10F4CC0020002000200000000000000000000200CE
:10F4DC000800070000000000000000000000000011
:10F4EC00000000000004200020002000200000008C
:10F4FC0000000000000000000000000002000000FE
:10F50C0003000000000000000000000000000000EC
:10F51C0000000005000C800360001C0003000000CC
:10F52C000000000000000000000006FC01020202C6
:10F53C000202020202FC01000000000000000000B8
:10F54C000006000004020402FE0300020002000098
:10F55C000000000000000000060403820242024288
:10F56C000222021C02000000000000000000000645
:10F57C0004010202220222022202DC01000000002D
:10F58C00000000000000066000500048004400FE2F
:10F59C0003400000000000000000000000061E01F7
:10F5AC001202120212021202E2010000000000001C
:10F5BC000000000006F8011402120212021202E00E
:10F5CC000100000000000000000000060200020222
:10F5DC00820162001A00060000000000000000001A
:10F5EC00000006DC012202220222022202DC0100BF
:10F5FC00000000000000000000063C004202420235
:10F60C0042024201FC00000000000000000000006B
:10F61C0003000000001803000000000000000000C0
:10F62C0000000000000000030000000818070000A4
:10F63C0000000000000000000000000000000800B6
:10F64C0000200020005000500088008800040100B9
:10F65C000000000000080000900090009000900056
:10F66C0090009000900000000000000008000004D2
:10F67C00018800880050005000200020000000008D
:10F68C000000000504004203220012000C000000E0
:10F69C00000000000000000000000BF0000C030450
:10F6AC0002F2040A050A050A05FA0504010C01F028
:10F6BC0000070003E000980086009800E0000003BB
:10F6CC00000000000000000006FE032202220222BD
:10F6DC00023C02C001000000000000000000000716
:10F6EC00F8000401020202020202020204010000FC
:10F6FC0000000000000007FE0302020202020202E8
:10F70C00020401F800000000000000000006FE03E7
:10F71C002202220222022202220200000000000029
:10F72C000000000006FE032200220022002200221C
:10F73C00000000000000000000000007F8000401B9
:10F74C000202020242024202C40300000000000056
:10F75C00000007FE0320002000200020002000FEF7
:10F76C00030000000000000000030202FE0302027E
:10F77C00000000000000000000000000000000007D
:10F78C0004000202020202FE010000000000000060
:10F79C000000000000000006FE032000500088005E
:10F7AC00040102020000000000000000000005FE41
:10F7BC000300020002000200020000000000000032
:10F7CC00000000000009FE03060018006000800124
:10F7DC00600018000600FE030000000007FE030690
:10F7EC000018002000C0000003FE03000000000011
:10F7FC0000000008F80004010202020202020202E8
:10F80C000401F80000000000000006FE03220022A4
:10F81C0000220022001C000000000000000000007C
:10F82C000008F8000401020202020206020A04099E
:10F83C00F80800000000000007FE0322002200620E
:10F84C0000A2001C010002000000000000000007E4
:10F85C001C0122022202220222022202C401000006
:10F86C0000000000000007020002000200FE03027C
:10F87C000002000200000000000000000007FE0073
:10F88C0000010002000200020001FE000000000066
:10F89C0000000000070E003000C0000003C0003064
:10F8AC00000E0000000000000000000B1E00E00134
:10F8BC000002C001380006003800C0010002E0015F
:10F8CC001E000702020401D8002000D80004010227
:10F8DC000200000000000000000702000C001000F5
:10F8EC00E00310000C00020000000000000000000B
:10F8FC000602038202620212020A020602000000E1
:10F90C0000000000000000040000FF0F01080108C7
:10F91C0000000000000000000000000000000503D3
:10F92C00001C0060008003000C00000000000000C0
:10F93C00000000000004000001080108FF0F000097
:10F94C000000000000000000000000000900001092
:10F95C00000800040002000200040008001000006F
:10F96C000000000700080008000800080008000854
:10F97C00000800000000000000000500000000006E
:10F98C000001000200000000000000000000000068
:10F99C00000680014802480248024801F0030000BA
:10F9AC00000000000000000006FF0310020802081F
:10F9BC00020802F001000000000000000000000539
:10F9CC00F001080208020802080200000000000012
:10F9DC0000000000000006F00108020802080208FE
:10F9EC0001FF030000000000000000000006F00111
:10F9FC004802480248024802700100000000000062
:10FA0C0000000000050800FE0309000900010000C9
:10FA1C00000000000000000000000006F0010812C9
:10FA2C00081208120811F80F000000000000000076
:10FA3C00000006FF031000080008000800F0030097
:10FA4C00000000000000000000020000FA030000AB
:10FA5C00000000000000000000000000000000009A
:10FA6C000300100810FA0F00000000000000000056
:10FA7C000000000000000005FF034000A000100182
:10FA8C00080200000000000000000000000002005E
:10FA9C0000FF030000000000000000000000000058
:10FAAC0000000000000A0000F80310000800080025
:10FABC00F003100008000800F003000006F8031023
:10FACC0000080008000800F003000000000000001F
:10FADC0000000006F0010802080208020802F0010A
:10FAEC000000000000000000000006F81F100208D3
:10FAFC000208020802F001000000000000000000F3
:10FB0C000006F0010802080208020801F81F0000B4
:10FB1C00000000000000000004F8031000080008BA
:10FB2C0000000000000000000000000000000005C4
:10FB3C003001480248024802900100000000000019
:10FB4C00000000000000040800FE0108020802008A
:10FB5C000000000000000000000000000006F8019A
:10FB6C000002000200020001F80300000000000087
:10FB7C0000000000051800E0000003E00018000081
:10FB8C000000000000000000000000091800E00068
:10FB9C000003E0001800E0000003E0001800000083
:10FBAC000000050802B0014000B00108020000008E
:10FBBC00000000000000000000051800E01800071D
:10FBCC00E000180000000000000000000000000031
:10FBDC0005080388024802280218020000000000F1
:10FBEC00000000000000000540004000BE070108B6
:10FBFC0001080000000000000000000000000300ED
:10FC0C00000000FF0F0000000000000000000000DA
:10FC1C0000000000000501080108BE07400040007C
:10FC2C000000000000000000000000000800006060
:10FC3C0000100010002000400040003000000000C8
:10FC4C0000000003FF030102FF030000000000009E
:10FC5C000000000000000000000005000000000093
:10FC6C000500005F000005000700070005147F1465
:10FC7C007F1405242A7F2A12052313086462053693
:10FC8C004956205005080703000005001C224100BE
:10FC9C00050041221C000514083E08140508083E06
:10FCAC0008080500B07000000508080808080500E1
:10FCBC0060600000052010080402053E5149453ED5
:10FCCC000500427F400005724949494605214149DA
:10FCDC004D33051814127F10052745454539053C51
:10FCEC004A49493105412111090705364949493627
:10FCFC0005464949291E0500001400000500403442
:10FD0C0000000508142241000514141414140541B4
:10FD1C0022140800050201590906053E415D594EA1
:10FD2C00057C1211127C057F49494936053E41413B
:10FD3C004122057F4141413E057F49494949057FA3
:10FD4C0009090909053E41415173057F0808087FDF
:10FD5C000500417F4100052040413F01057F08140B
:10FD6C002241057F40404040057F020C027F057F09
:10FD7C000408107F053E4141413E057F09090906F3
:10FD8C00053E4151215E057F091929460526494941
:10FD9C0049320501017F0101053F4040403F051FED
:10FDAC002040201F053F4038403F05631408146372
:10FDBC0005030478040305615149454305007F415F
:10FDCC004100050204081020050041417F00050494
:10FDDC000201020405404040404005070B000000B2
:10FDEC00052054547840057F284444380538444451
:10FDFC00442805384444287F0538545454180500C9
:10FE0C00087E09020518A4A49C78057F08040478D0
:10FE1C000500447D4000052040403D00057F102832
:10FE2C0044000500417F4000057C04780478057C83
:10FE3C000804047805384444443805FC1824241874
:10FE4C000518242418FC057C08040408054854549F
:10FE5C0054240504043F4424053C4040207C051CEC
:10FE6C002040201C053C4030403C054428102844D0
:10FE7C00054C9090907C054464544C440500083625
:10FE8C00410005000077000005004136080005041C
:10FE9C000204080405007F417F004D6F64653A2021
:10FEAC0043686172672F44697363682F53746F7270
:10FEBC0000566F6C3A25752E253032752F25752E10
:10FECC002530327556004D6F64653A204368617277
:10FEDC00672F44697363680042617474207479708D
:10FEEC00653A204C692D496F6E0042617474207420
:10FEFC007970653A204E692D4D48004375723A254C
:10FF0C003034752F253034756D41002530327568CD
:10FF1C00253032756D2530327573004D6F64653A3E
:10FF2C00204368617267696E670042617474207463
:10FF3C007970653A2050420043656C6C20436F75B4
:10FF4C006E743A2575004F4E2F4F46463A20255871
:10FF5C00200A0D0052455345543A202558200A0DCD
:10FF6C0000534156452026204558495400436170A2
:10FF7C003A253034756D4168004379636C653A25D8
:10FF8C00752F257500425553593A202558200A0DD6
:10FF9C000054656D703A2530327543004F707469AA
:10FFAC006F6E732031004379636C653A257500429E
:10FFBC004154203100424154203200535441525498
:10FFCC00004E45585400444953430049444C4500A5
:10FFDC00434852470054455354004D454E55005725
:10FFEC005D002E20003120002564004B004E005097
:04FFFC0000520000AF
:020000040001F9
:100000000F6E000E126E12C01DF01DC01AF01AC045
:1000100017F017C016F016C01CF01CC01BF01BC058
:1000200010F010C011F011C013F013C018F0196ACD
:10003000C0C013F0C1C010F010C011F0200E0F5E50
:100040000001C551C703F3CF09F0F4CF0AF0010E48
:100050000924016E000E0A20026E0FC003F0046A2C
:10006000FFEC97F001C014F002C015F0145000012D
:10007000C325096E1550C4210A6E09C0F6FF0AC0D7
:10008000F7FF000EF86E0800F5CF16F0144A152A97
:10009000C05116241D6E7F0E1D6451EF80F053EF8A
:1000A00080F056EF80F01D50800F165EC151070B97
:1000B0001A6EC6511AC009F00A6A0926000E0A22F1
:1000C000C751080D0950F35CF450800A0B6E0A50BA
:1000D000800A0B58D8B06FEF80F071EF80F075EFA9
:1000E00080F0C729176E77EF80F0C7C017F0C1C046
:1000F00001F0026A000E046E080E036E1AEC8FF017
:10010000015017241D6E080E1D6489EF80F08BEFDF
:1001100080F08EEF80F01D50F80F175E14C018F0BD
:1001200015C019F0000E1C6E52EF82F011C002F0E3
:100130001350B3EC98F0000E1B6E20EF82F01C50B1
:10014000D8A4A5EF80F0A7EF80F00BEF81F00001BD
:10015000C951D8A4AEEF80F0B0EF80F0CCEF80F0C2
:10016000C7511B02F3CF09F0F4CF0AF00950C325A1
:100170000B6E0A50C4210C6E18500B2619500C221D
:100180000BC0F6FF0CC0F7FF000EF86E0800F5502C
:10019000FF0A1D6EE5EF80F0C7511B02F3CF09F097
:1001A000F4CF0AF00950C3250B6E0A50C4210C6E1F
:1001B00018500B2619500C220BC0F6FF0CC0F7FF8D
:1001C000000EF86E0800F5CF1DF01A28096EEBEF4F
:1001D00080F0D8901D36092EE9EF80F00001C9515A
:1001E000D8A4F5EF80F0F7EF80F0F6EF81F01A5029
:1001F0000808096EFF0E0A6E000E0B6E092A04EF46
:1002000081F00B340B320A32092E01EF81F00A50D3
:100210001D12F6EF81F00001C951D8A412EF81F050
:1002200014EF81F03AEF81F0C7511B02F3CF09F0D0
:10023000F4CF0AF00950C3250B6E0A50C4210C6E8E
:100240001C500B26000E0C2218500B2619500C22A5
:10025000FF0E0B240D6EFF0E0C200E6E0DC0F6FF70
:100260000EC0F7FF000EF86E0800F550FF0A1D6E75
:100270005DEF81F0C7511B02F3CF09F0F4CF0AF014
:100280000950C3250B6E0A50C4210C6E1C500B265E
:10029000000E0C2218500B2619500C22FF0E0B24B6
:1002A0000D6EFF0E0C200E6E0DC0F6FF0EC0F7FF98
:1002B000000EF86E0800F5CF1DF01A500808096E00
:1002C00009280A6E66EF81F0D8901D320A2E64EF7D
:1002D00081F0010E0001C76570EF81F072EF81F0CF
:1002E000C2EF81F0C951D8A478EF81F07AEF81F0A4
:1002F0009AEF81F0C7511B02F3CF09F0F4CF0AF057
:100300000950C3250B6E0A50C4210C6E1C500B26DD
:10031000000E0C2218500B2619500C220BC0F6FFB1
:100320000CC0F7FF000EF86E0800F550FF0A126EC1
:10033000B7EF81F0C7511B02F3CF09F0F4CF0AF0F9
:100340000950C3250B6E0A50C4210C6E1C500B269D
:10035000000E0C2218500B2619500C220BC0F6FF71
:100360000CC0F7FF000EF86E0800F5CF12F01A2847
:10037000096EBDEF81F0D8901236092EBBEF81F0E7
:1003800012501D120001C951D8A4C9EF81F0CBEF62
:1003900081F0F6EF81F01C50096E0A6AFF0E1724F7
:1003A0000B6E0C6AFF0E0C2209500B1807E10A5065
:1003B0000C18D8A4DEEF81F0E0EF81F0F6EF81F0C9
:1003C0001A50D8B4E6EF81F0E8EF81F0F6EF81F053
:1003D0001AC009F0FF0E0A6E092AF1EF81F0D890D9
:1003E0000A36092EEFEF81F00A501D120001C805F0
:1003F000D8A4FDEF81F0FFEF81F015EF82F0C95135
:10040000D8A405EF82F007EF82F00FEF82F0C1C0B1
:1004100001F0C051B9EC97F01D1615EF82F0C1C084
:1004200001F0C051B9EC97F01D12C1C001F01DC020
:1004300002F00001C0519FEC97F00001C02B1B2A75
:1004400016501B5CD8A027EF82F029EF82F09FEFB7
:1004500080F00001C851D8A430EF82F032EF82F072
:1004600041EF82F0C951D8A438EF82F03AEF82F020
:100470003DEF82F01D6847EF82F0000E1D6E47EFE2
:1004800082F0C1C001F0C051B9EC97F01D6EC1C03F
:1004900001F01DC002F00001C0519FEC97F0080E62
:1004A00011261C2A17501C5CD8A059EF82F05BEF74
:1004B00082F096EF80F010C002F013501624096EFF
:1004C0000928B3EC98F01200000E136E0001D5510C
:1004D00009E10A0ED45DD8A070EF82F072EF82F0CD
:1004E00073EF84F066EF84F01350090DF3CF08F03A
:1004F000F4CF09F008500001D7250A6E0950D82121
:100500000B6E060E0A24D96E000E0B20DA6E02D88E
:1005100094EF82F00500FA6EDE50FD6EDE50FE6E46
:10052000DE50FF6EFA5012000009D8B49AEF82F044
:100530009DEF82F0010E9EEF82F0000E126E12040B
:10054000D8A4A5EF82F0A7EF82F078EF83F01350E4
:10055000090DF3CF08F0F4CF09F008500001D725BA
:10056000D96E0950D821DA6EDFB8B9EF82F0BBEF4F
:1005700082F0EBEF82F0D9C001F0DA51ABEC94F0ED
:10058000086E1350090DF3CF09F0F4CF0AF00950AB
:100590000001D7250B6E0A50D8210C6E010E0B24DA
:1005A000D96E000E0C20DA6EDF2A0850DE5CD8A06F
:1005B000DCEF82F0DEEF82F0EBEF82F01350090DFA
:1005C000F3CF08F0F4CF09F00850D725D96E0950C1
:1005D000D821DA6EDF881350090DF3CF08F0F4CF7D
:1005E00009F00850D725D96E0950D821DA6EDFA856
:1005F000FCEF82F0FEEF82F061EF83F01350090D03
:10060000F3CF08F0F4CF09F00850D725D96E095080
:10061000D821DA6EDF30E832030BE806D8A413EFF6
:1006200083F015EF83F061EF83F01350090DF3CFE2
:1006300008F0F4CF09F00850D7250A6E0950D821E8
:100640000B6E040E0A24D96E000E0B20DA6EDECF7C
:1006500001F0DDCF02F0D9C003F0046A0FEC94F092
:100660001350090DF3CF0CF0F4CF0DF00C50000136
:10067000D7250E6E0D50D8210F6E020E0E24D96EA6
:10068000000E0F20DA6EDE2A000EDD220150DE5C45
:100690000250DE58D8A04FEF83F051EF83F061EFA6
:1006A00083F01350090DF3CF08F0F4CF09F0085090
:1006B000D725D96E0950D821DA6EDF50FC0B02091C
:1006C000DF6E12C008F01350090DF3CF09F0F4CF1C
:1006D0000AF00950D725D96E0A50D821DA6E08469B
:1006E0000846DF500818F30B0818DF6E65EF84F03A
:1006F0001250D8A47EEF83F080EF83F065EF84F092
:100700001350090DF3CF08F0F4CF09F008500001A1
:10071000D725D96E0950D821DA6EDFA892EF83F081
:1007200094EF83F04FEF84F01350090DF3CF08F0EE
:10073000F4CF09F00850D7250A6E0950D8210B6E66
:10074000010E0A24D96E000E0B20DA6EDF50D8B4E9
:10075000ACEF83F0AEEF83F0C3EF83F01350090DDD
:10076000F3CF08F0F4CF09F00850D7250A6E0950EE
:10077000D8210B6E010E0A24D96E000E0B20DA6E02
:10078000DF0665EF84F01350090DF3CF08F0F4CFC6
:1007900009F00850D725D96E0950D821DA6EDF98B4
:1007A0001350090DF3CF08F0F4CF09F00850D72506
:1007B0000A6E0950D8210B6E040E0A24D96E000E61
:1007C0000B20DA6EDECF01F0DDCF02F0D9C003F0EE
:1007D000046A0FEC94F01350090DF3CF0CF0F4CF32
:1007E0000DF00C500001D7250E6E0D50D8210F6E64
:1007F000020E0E24D96E000E0F20DA6E0150DE5C60
:100800000250DE58D8B007EF84F009EF84F035EFDE
:1008100084F01350090DF3CF08F0F4CF09F008501D
:10082000D7250A6E0950D8210B6E010E0A24D96E05
:10083000000E0B20DA6EDF50D8A421EF84F023EFF6
:1008400084F065EF84F01350090DF3CF08F0F4CF76
:1008500009F00850D725D96E0950D821DA6EDF503B
:10086000FC0B0109DF6E65EF84F01350090DF3CF27
:1008700008F0F4CF09F00850D725D96E0950D821D7
:10088000DA6EDF50030B020AD8A449EF84F04BEF75
:1008900084F04DEF84F065EF84F065EF84F0135041
:1008A000090DF3CF08F0F4CF09F00850D7250A6EF0
:1008B0000950D8210B6E020E0A24D96E000E0B20AF
:1008C000DA6E000EDE6E000EDD6E132A040E136467
:1008D0006CEF84F06EEF84F074EF82F0000E000194
:1008E000D56F000ED46F120040C0D9FF41C0DAFFAF
:1008F000DECFF6FFDDCFF7FF000EF86E0800F550F3
:10090000250AD8A486EF84F088EF84F0C5EF85F03F
:1009100040C0D9FF41C0DAFFDE2A000EDD22000E02
:100920000001CF6F000ECE6FCEC05EF0D069D169EE
:10093000000E516E000E506ECAEF84F05E8240C011
:10094000D9FF41C0DAFFDE2A000EDD22CAEF84F0B3
:10095000000E516E010E506ECAEF84F040C0D9FFF8
:1009600041C0DAFFDECFF6FFDDCFF7FF000EF86EF5
:100970000800F550446E456A4550000AD8B4C3EFEC
:1009800084F0A8EF84F04450300AD8B49EEF84F08D
:10099000A8EF84F050505110D8B4D1EF84F0D3EFC9
:1009A00084F0AEEF84F040C0D9FF41C0DAFFDECF63
:1009B000F6FFDDCFF7FF000EF86E0800F5502A0AAB
:1009C000D8A4E5EF84F0E7EF84F011EF85F040C0A4
:1009D000D9FF41C0DAFFDE2A000EDD2242C0D9FF76
:1009E00043C0DAFFDFCF44F0020EDE26DFCF45F052
:1009F000000EDD2244C0D9FF45C0DAFFDECFCEF0C5
:100A0000DDCFCFF00001CFBF0AEF85F008EF85F012
:100A100046EF85F05E80CE6DCF1FD8B0CF2B46EF6E
:100A200085F040C0D9FF41C0DAFFDECF07F0DDCF4F
:100A300008F026EC8BF007C0CEF008C0CFF028EF0E
:100A400085F040C0D9FF41C0DAFFDE2A000EDD226A
:100A500040C0D9FF41C0DAFFDECFF6FFDDCFF7FFA0
:100A6000000EF86E0800F5CF44F0D00E4424456E19
:100A7000466AFF0E4622465009E10A0E455CD8A0A0
:100A800044EF85F046EF85F021EF85F040C0D9FFB7
:100A900041C0DAFFDECF52F0DDCF53F052C0F6FF97
:100AA00053C0F7FF000EF86E0800F550750AD8A481
:100AB0005CEF85F05EEF85F0BCEF85F042C0D9FFBA
:100AC00043C0DAFFDFCF44F0020EDE26DFCF45F071
:100AD000000EDD2244C0D9FF45C0DAFFDECF46F06C
:100AE000DDCF47F046C048F047C049F04A6A4B6A3C
:100AF0004C6A4D6A4E6A4F6A010E5224446E000ED3
:100B00005320456E40C0D9FF41C0DAFF44C0DEFF2C
:100B100045C0DDFFA4EF85F03EC01EF03FC01FF0D2
:100B200048C020F049C021F04AC022F04BC023F059
:100B30004CC024F04DC025F04EC026F04FC027F029
:100B400014EC87F0DBEF85F052C0F6FF53C0F7FFDF
:100B5000000EF86E0800F550446E456A4550000AD4
:100B6000D8B4B5EF85F0BCEF85F04450750AD8B421
:100B70008CEF85F0BCEF85F040C0D9FF41C0DAFFB3
:100B8000DE2A000EDD22DBEF85F040C0D9FF41C038
:100B9000DAFFDECFF6FFDDCFF7FF000EF86E0800BC
:100BA000F550036E046A3EC005F03FC006F0B5EC98
:100BB0008EF0BCEF85F01200186E800E1860E3EF27
:100BC00085F0E5EF85F013EF87F0800E0860EBEF1E
:100BD00085F0EDEF85F013EF87F0400E0760F3EF3F
:100BE00085F0F5EF85F013EF87F0400E0960FBEF1D
:100BF00085F0FDEF85F013EF87F00750095C0B6E71
:100C00000B281A6E1850085C0B6E0B28146E0750D8
:100C1000070B166E1650075E1968080E0B6E000E55
:100C20000C6E16500B5E000E0C5A1A500D6E0E6AAA
:100C30000B500D5C0E50800A0F6E0C50800A0F583E
:100C4000D8B025EF86F027EF86F037EF86F01A5000
:100C500008080B6E0B280C6E30EF86F0D890193216
:100C60000C2E2EEF86F01AC015F03AEF86F01650D3
:100C70000808156E16280B6E40EF86F0D8901936CE
:100C80000B2E3EEF86F007C002F01850B3EC98F040
:100C9000000E176E77EF86F0C1C001F00001C05161
:100CA000B9EC97F01B6E0A28D8B459EF86F05BEFC9
:100CB00086F064EF86F01950FF0A1B140B6E0B5080
:100CC000106E116A6AEF86F01B5019100B6E0B50F4
:100CD000106E116A10C01BF0C1C001F01BC002F001
:100CE0000001C0519FEC97F00001C02B172A14504F
:100CF000175CD8A07EEF86F080EF86F04CEF86F090
:100D0000A3EF86F0080E1526080E072607C002F08E
:100D10001850B3EC98F0000E176E9AEF86F0C1C031
:100D200001F00AC002F00001C0519FEC97F00001F1
:100D3000C02B172A1450175CD8A0A1EF86F0A3EFA0
:100D400086F08FEF86F015500B6E0C6A080E0B269E
:100D5000000E0C221A500D6E0E6A0B500D5C0E50D8
:100D6000800A0F6E0C50800A0F58D8B0BAEF86F088
:100D7000BCEF86F082EF86F01A50155CD8B0C3EF56
:100D800086F0C5EF86F013EF87F015501A5C0B6EF6
:100D9000FF0E0C6E0B2ACFEF86F0D8900C360B2E80
:100DA000CDEF86F00C50FF0A196E0750080F026E47
:100DB0001850B3EC98F0000E176E0AEF87F0C1C020
:100DC00001F00001C051B9EC97F01B6E0A28D8B4AD
:100DD000ECEF86F0EEEF86F0F7EF86F01950FF0AA1
:100DE0001B140B6E0B50126E136AFDEF86F01B5036
:100DF00019100B6E0B50126E136A12C01BF0C1C09B
:100E000001F01BC002F00001C0519FEC97F00001FF
:100E1000C02B172A1450175CD8A011EF87F013EFDE
:100E200087F0DFEF86F012000001D1BF1AEF87F0E4
:100E30001CEF87F01DEF87F05E92D1BF2AEF87F09D
:100E4000D15106E1D005D8B028EF87F02AEF87F01E
:100E500030EF87F0000E316E010E306E34EF87F008
:100E6000D0C030F0D1C031F0CEC032F0CFC033F0BE
:100E700020C034F021C035F022C036F023C037F056
:100E800024C038F025C039F026C03AF027C03BF026
:100E9000000E3D6E1F0E3C6E000E01014C6FC7EF41
:100EA00087F03C06D8A03D062D0E3C24D96E010EDD
:100EB0003D20DA6E34C001F035C002F036C003F0D8
:100EC00037C004F038C005F039C006F03AC007F06A
:100ED0003BC008F00A0E096E000E0A6E000E0B6E83
:100EE000000E0C6E000E0D6E000E0E6E000E0F6EDC
:100EF000000E106E4DEC8EF001C028F002C029F0FB
:100F000003C02AF004C02BF005C02CF006C02DF061
:100F100007C02EF008C02FF02850300FDF6E3006CB
:100F2000D8A031063206D8A0330634C001F035C04F
:100F300002F036C003F037C004F038C005F039C005
:100F400006F03AC007F03BC008F00A0E096E000E2A
:100F50000A6E000E0B6E000E0C6E000E0D6E000E73
:100F60000E6E000E0F6E000E106E6BEC8DF001C059
:100F700034F002C035F003C036F004C037F005C0CD
:100F800038F006C039F007C03AF008C03BF03C50DA
:100F90003D10D8B4CEEF87F0D0EF87F000EF88F0A7
:100FA0003450351036103710381039103A103B10C5
:100FB000D8A4DDEF87F0DFEF87F051EF87F031BE87
:100FC000ECEF87F0315006E13004D8B0EAEF87F05B
:100FD000ECEF87F051EF87F033BEF7EF87F0335037
:100FE00008E13204D8A0F7EF87F0F9EF87F000EFBF
:100FF00088F05EB2FEEF87F000EF88F051EF87F0E7
:101000001EC013F01FC014F02D0E3C24156E010EEF
:101010003D20166E32C017F033C018F090EC90F0FF
:101020001200948C948E9880988898860001D951EB
:10103000D8A41DEF88F01FEF88F025EF88F0000E90
:10104000086E0A0E076E28EF88F0D9C007F0086A0C
:1010500007C0D9F0DA51D8A430EF88F032EF88F029
:1010600038EF88F0000E0A6E140E096E3BEF88F020
:10107000DAC009F00A6A09C0DAF0DB51DC11D8A441
:1010800044EF88F046EF88F04CEF88F0030E0C6ECA
:10109000E80E0B6E50EF88F0DBC00BF0DCC00CF0FC
:1010A0000BC0DBF00CC0DCF0000E0F6E0F50090D12
:1010B000F3CF01F0F4CF02F00150D725D96E0250E2
:1010C000D821DA6EDF980F50090DF3CF01F0F4CF7D
:1010D00002F00150D725D96E0250D821DA6EF30EF6
:1010E000DF160F50090DF3CF01F0F4CF02F00150DD
:1010F000D725036E0250D821046E020E0324D96E48
:10110000000E0420DA6E000EDE6E000EDD6E0F5053
:10111000090DF3CF01F0F4CF02F00150D725036E93
:101120000250D821046E010E0324D96E000E042053
:10113000DA6E000EDF6E0F50090DF3CF01F0F4CF21
:1011400002F00150D725036E0250D821046E040E20
:101150000324D96E000E0420DA6EDE50DE10D8A40F
:10116000B4EF88F0B6EF88F0BCEF88F0DBC00DF08C
:10117000DCC00EF0D2EF88F00F50090DF3CF01F074
:10118000F4CF02F00150D725036E0250D821046E2F
:10119000040E0324D96E000E0420DA6EDECF0DF0AB
:1011A000DDCF0EF00F50090DF3CF01F0F4CF02F0B8
:1011B0000150D725036E0250D821046E040E03247B
:1011C000D96E000E0420DA6E0DC0DEFF0EC0DDFF0A
:1011D0000F2A040E0F64EFEF88F0F1EF88F056EF5E
:1011E00088F01200266E2650D8A4F9EF88F0FBEFA5
:1011F00088F052EF89F0330E1C6E200E1D6E3F0EEC
:101200001E6EFF0E1F6E000E24EC98F0660E096E27
:10121000FC0E0A6E050E0B6E080E0C6E010E0D6EA6
:10122000000E0E6ECDEC91F0360E026E020EB3EC97
:1012300098F0CD0E1E6EFF0E1F6E84EC91F0330EF3
:101240001C6E6A0E1D6E3F0E1E6E000E1F6E230E6C
:1012500024EC98F0330E216E6A0E226E3F0E236E40
:10126000FF0E246E230E15EC92F0660E096EFC0E36
:101270000A6E050E0B6E080E0C6E010E0D6E010E41
:101280000E6ECDEC91F0360E026E250EB3EC98F09A
:101290006D0E1E6EFF0E1F6E84EC91F07BEC94F0D1
:1012A000AFEF89F02604D8A458EF89F05AEF89F0FF
:1012B000AFEF89F0330E1C6E200E1D6E3F0E1E6EBA
:1012C000000E1F6E000E24EC98F0330E216E200EDF
:1012D000226E3F0E236EFF0E246E000E15EC92F070
:1012E000660E096EFC0E0A6E050E0B6E080E0C6E75
:1012F000010E0D6E010E0E6ECDEC91F0360E026EEB
:10130000020EB3EC98F0CD0E1E6EFF0E1F6E84EC35
:1013100091F0330E1C6E6A0E1D6E3F0E1E6EFF0E98
:101320001F6E230E24EC98F0660E096EFC0E0A6EFA
:10133000050E0B6E080E0C6E010E0D6E000E0E6E7D
:10134000CDEC91F0360E026E250EB3EC98F06D0EDA
:101350001E6EFF0E1F6E84EC91F07BEC94F0120079
:10136000266E2604D8A4B7EF89F0B9EF89F010EF04
:101370008AF0330E1C6E200E1D6E3F0E1E6EFF0E89
:101380001F6E000E24EC98F0660E096EFC0E0A6EBD
:10139000050E0B6E080E0C6E010E0D6E000E0E6E1D
:1013A000CDEC91F0360E026E020EB3EC98F0C70E43
:1013B0001E6EFF0E1F6E84EC91F0330E1C6E3D0E00
:1013C0001D6E3F0E1E6E000E1F6E230E24EC98F055
:1013D000330E216E3D0E226E3F0E236EFF0E246EE5
:1013E000230E15EC92F0660E096EFC0E0A6E050EC9
:1013F0000B6E080E0C6E010E0D6E010E0E6ECDEC16
:1014000091F0360E026E250EB3EC98F0E60E1E6ECD
:10141000FF0E1F6E84EC91F07BEC94F06DEF8AF080
:101420002650D8A416EF8AF018EF8AF06DEF8AF0F4
:10143000330E1C6E200E1D6E3F0E1E6E000E1F6EB4
:10144000000E24EC98F0330E216E200E226E3F0E1B
:10145000236EFF0E246E000E15EC92F0660E096EE0
:10146000FC0E0A6E050E0B6E080E0C6E010E0D6E54
:10147000010E0E6ECDEC91F0360E026E020EB3EC44
:1014800098F0C70E1E6EFF0E1F6E84EC91F0330EA7
:101490001C6E3D0E1D6E3F0E1E6EFF0E1F6E230E48
:1014A00024EC98F0660E096EFC0E0A6E050E0B6EAB
:1014B000080E0C6E010E0D6E000E0E6ECDEC91F04E
:1014C000360E026E250EB3EC98F0E60E1E6EFF0E81
:1014D0001F6E84EC91F07BEC94F0120012EC98F00B
:1014E000660E096EFC0E0A6E050E0B6E080E0C6E73
:1014F000010E0D6E010E0E6ECDEC91F0000E226EFF
:10150000020E38EC90F0020E026E020EB3EC98F070
:10151000BB0E1E6EFF0E1F6E84EC91F0000E216E4E
:101520001F0E226E0A0E236EFF0E246E000E15ECA7
:1015300092F0330E1C6E200E1D6E3F0E1E6EFF0EBF
:101540001F6E000E24EC98F0360E026E020EB3EC05
:1015500098F0660E096EFC0E0A6E050E0B6E080EF4
:101560000C6E010E0D6E000E0E6ECDEC91F0C70EDE
:101570001E6EFF0E1F6E84EC91F0660E096EFC0E5F
:101580000A6E050E0B6E080E0C6E010E0D6E010E2E
:101590000E6ECDEC91F0360E026E250EB3EC98F087
:1015A000E60E1E6EFF0E1F6E84EC91F0330E216E60
:1015B0003D0E226E3F0E236EFF0E246E230E15ECA1
:1015C00092F00D0E026E000EB3EC98F07BC079F035
:1015D0007CC07AF0E3EC8DF0160E026E000EB3ECD8
:1015E00098F07BC079F07CC07AF031EC95F01F0E5A
:1015F000026E000EB3EC98F07BC079F07CC07AF0FC
:10160000ACEC96F0280E026E000EB3EC98F07BC0A6
:1016100079F07CC07AF006EC95F0000E026E4A0E6E
:10162000B3EC98F07BC079F07CC07AF0ECEC8CF0F5
:10163000280E026E4E0EB3EC98F07BC079F07CC0A1
:101640007AF046EC96F07BEC94F01200000E0F6EF0
:10165000000E0E6E000E0D6E000E0C6E32EF8BF053
:10166000074A082A07C0F6FF08C0F7FF000EF86E09
:101670000800F550200AD8B440EF8BF042EF8BF011
:1016800030EF8BF007C0F6FF08C0F7FF000EF86ED2
:101690000800F5CF09F0F70E09240A6E0B6AFF0E59
:1016A0000B220B5009E1050E0A5CD8A05AEF8BF013
:1016B0005CEF8BF030EF8BF066EF8BF0000E0D6E71
:1016C000010E0C6E074A082A9FEF8BF007C0F6FF49
:1016D00008C0F7FF000EF86E0800F550096E0A6AA0
:1016E0000A50000AD8B477EF8BF09FEF8BF00950C7
:1016F0002B0AD8B462EF8BF0060AD8B45EEF8BF0F9
:101700009FEF8BF00EC001F00FC002F0000E046ED0
:101710000A0E036EFFEC97F007C0F6FF08C0F7FF54
:10172000000EF86E0800F550015E000E025A300EF1
:1017300001240E6E000E02200F6E62EF8BF007C0C8
:10174000F6FF08C0F7FF000EF86E0800F5CF09F0AD
:10175000D00E09240A6E0B6AFF0E0B220B5009E112
:101760000A0E0A5CD8A0B7EF8BF0B9EF8BF082EFCE
:101770008BF00C500D10D8A4C0EF8BF0C2EF8BF0A3
:10178000D0EF8BF00EC009F00FC00AF0091E0A1E40
:10179000094A0A2A09C007F00AC008F0D4EF8BF002
:1017A0000EC007F00FC008F0120001C0D9FF02C040
:1017B000DAFF010EDF6E20EE01F00150D926025053
:1017C000DA22010EDF6E20EE02F00150D92602501F
:1017D000DA22140EDF6E20EE03F00150D9260250FB
:1017E000DA22230EDF6E20EE04F00150D9260250DB
:1017F000DA22000EDF6E20EE05F00150D9260250ED
:10180000DA22460EDF6E20EE06F00150D926025095
:10181000DA22010EDF6E20EE07F00150D9260250C9
:10182000DA22010EDF6E20EE08F00150D9260250B8
:10183000DA22A40EDE6E010EDD6E20EE0AF00150FB
:10184000D9260250DA22E80EDE6E030EDD6E20EE9F
:101850000CF00150D9260250DA22720EDE6E010E13
:10186000DD6E20EE0EF00150D9260250DA22AE0EC7
:10187000DE6E010EDD6E20EE10F00150D926025012
:10188000DA220E0EDE6E010EDD6E20EE12F0015039
:10189000D9260250DA221E0EDE6E000EDD6E20EE1C
:1018A00014F00150D9260250DA220E0EDE6E010E1F
:1018B000DD6E20EE16F00150D9260250DA22E80E35
:1018C000DE6E030EDD6E120064EC82F0000E83EC1F
:1018D00097F00009D8A46FEF8CF071EF8CF07CEFDB
:1018E0008CF0010E83EC97F00009D8B47AEF8CF0FD
:1018F0007CEF8CF0C9EF8CF0D7EC95F00001D6515D
:10190000D8A485EF8CF087EF8CF0A7EF8CF0E6057C
:10191000D8A48DEF8CF08FEF8CF097EF8CF0E65120
:10192000B0EC89F0000E0001E66FC9EF8CF0E651D3
:10193000D8A49DEF8CF09FEF8CF0C9EF8CF0E651AE
:10194000B0EC89F0010E0001E66FC9EF8CF0D6050E
:10195000D8A4ADEF8CF0AFEF8CF0C9EF8CF0E605BA
:10196000D8A4B5EF8CF0B7EF8CF0BCEF8CF0E6515B
:10197000F2EC88F092EF8CF0E605D8A4C2EF8CF080
:10198000C4EF8CF0C9EF8CF0E651F2EC88F092EFE6
:101990008CF0040E83EC97F00009D8B4D2EF8CF0F1
:1019A000D4EF8CF0EBEF8CF0D7EC95F00001E6056E
:1019B000D8A4DDEF8CF0DFEF8CF0EBEF8CF07DC086
:1019C0007BF07EC07CF07CEC8FF0000EF2EC88F0B7
:1019D000010E0001D66F12001C0E00017925606F08
:1019E000000E7A21616F170E626FFF0E636F20EE9B
:1019F00018F07951D9267A51DA22DECF0AF0DECFFB
:101A00000BF0DECF0CF0DECF0DF0100E0E6E0E0ED2
:101A10000F6E000E106E000E116EE5EC90F00AC015
:101A200064F00BC065F0100E056E0E0E066E000E13
:101A3000076E000E086E000120EE18F07951D926CD
:101A40007A51DA22DECF01F0DECF02F0DECF03F0F2
:101A5000DECF04F05BEC92F001C00AF002C00BF0A4
:101A600003C00CF004C00DF03C0E0E6E000E0F6EA5
:101A7000000E106E000E116EE5EC90F00AC066F0DC
:101A80000BC067F0000120EE18F07951D9267A5189
:101A9000DA22DECF01F0DECF02F0DECF03F0DECFC0
:101AA00004F03C0E056E000E066E000E076E000E72
:101AB000086E5BEC92F001C068F002C069F085EC42
:101AC00095F01C0E000179251E6E000E7A211F6E06
:101AD00084EC91F0120020EE11F0070EDE6AE806A9
:101AE000FDE209500A100B100C100D100E100F1013
:101AF0001010D8B47EEF8DF080EF8DF0D2EF8DF026
:101B0000010E196E8EEF8DF0D89009360A360B361D
:101B10000C360D360E360F361036192A10AE93EFEE
:101B20008DF095EF8DF084EF8DF0D8901136123650
:101B30001336143615361636173618360950015C2A
:101B40000A5002580B5003580C5004580D500558B9
:101B50000E5006580F50075810500858D8A0B3EF31
:101B60008DF0B5EF8DF0C6EF8DF00950015E0A5093
:101B7000025A0B50035A0C50045A0D50055A0E507D
:101B8000065A0F50075A1050085A1180D890103238
:101B90000F320E320D320C320B320A320932192E4C
:101BA00095EF8DF011C001F012C002F013C003F0E8
:101BB00014C004F015C005F016C006F017C007F0F9
:101BC00018C008F012001C0E00017925606F000E8D
:101BD0007A21616FBD0E626FFE0E636F20EE08F01A
:101BE0007951D9267A51DA22DECF01F0DDCF02F029
:101BF000000E046E640E036E0FEC94F001C064F0EE
:101C000002C065F0000120EE08F07951D9267A5122
:101C1000DA22DECF01F0DDCF02F0000E046E640E9A
:101C2000036E49EC94F001C066F002C067F0000159
:101C300020EE0CF07951D9267A51DA22DECF01F06C
:101C4000DDCF02F0000E046E640E036E0FEC94F014
:101C500001C068F002C069F0000120EE0CF079517B
:101C6000D9267A51DA22DECF01F0DDCF02F0000E64
:101C7000046E640E036E49EC94F001C06AF002C079
:101C80006BF085EC95F01C0E000179251E6E000EA0
:101C90007A211F6E84EC91F0120009500A100B108B
:101CA0000C100D100E100F101010D8B45AEF8EF04B
:101CB0005CEF8EF0A4EF8EF0010E116E6AEF8EF0E5
:101CC000D89009360A360B360C360D360E360F36DE
:101CD0001036112A10AE6FEF8EF071EF8EF060EFBC
:101CE0008EF00950015C0A5002580B5003580C50FA
:101CF00004580D5005580E5006580F5007581050F4
:101D00000858D8A086EF8EF088EF8EF098EF8EF00E
:101D10000950015E0A50025A0B50035A0C50045AE3
:101D20000D50055A0E50065A0F50075A1050085AB7
:101D3000D89010320F320E320D320C320B320A3282
:101D40000932112E71EF8EF001C001F002C002F0D5
:101D500003C003F004C004F005C005F006C006F09F
:101D600007C007F008C008F0120005500610D8B4EC
:101D7000BCEF8EF0BEEF8EF0C7EF8EF00550061070
:101D8000D8A4C5EF8EF0C7EF8EF0CCEF8EF00350E5
:101D9000C2EC98F019EF8FF020EE09F00550D9262B
:101DA0000650DA22DE50DE10D8B4D9EF8EF0DBEF29
:101DB0008EF0F6EF8EF020EE09F00550D926065091
:101DC000DA2210EE03F00550E1260650E222DE5042
:101DD000E65CE650800A0B6EDE50800A0B58D8B0E5
:101DE000F4EF8EF0F6EF8EF019EF8FF020EE03F0A7
:101DF0000550D9260650DA22DECF07F0DDCF08F0F5
:101E000005C0D9FF06C0DAFFDECF09F0DDCF0AF04A
:101E100007500924D96E08500A20DA6E03C0DFFF8C
:101E200020EE03F00550D9260650DA22DE2A000EF5
:101E3000DD221200000E066E04BE23EF8FF021EFAC
:101E40008FF029EF8FF0036C041ED8B0042A010E26
:101E5000066E02BE30EF8FF02EEF8FF036EF8FF070
:101E6000016C021ED8B0022A010E061A000E086E7E
:101E7000000E076E03500410D8B441EF8FF043EF0B
:101E80008FF06BEF8FF0010E056E4BEF8FF0D89057
:101E900003360436052A04AE50EF8FF052EF8FF070
:101EA00047EF8FF0D890073608360350015C045096
:101EB0000258D8A05EEF8FF060EF8FF065EF8FF0E3
:101EC0000350015E0450025A0780D8900432033256
:101ED000052E52EF8FF00650D8B471EF8FF073EFEC
:101EE0008FF077EF8FF0076C081ED8B0082A07C074
:101EF00001F008C002F0120012EC98F0660E096EB4
:101F0000FC0E0A6E050E0B6E080E0C6E010E0D6EA9
:101F1000010E0E6ECDEC91F0020E026E020EB3ECCD
:101F200098F0BB0E1E6EFF0E1F6E84EC91F0000E3B
:101F3000216E1F0E226E0A0E236EFF0E246E000EFF
:101F400015EC92F0020E026E230EB3EC98F0A80E80
:101F50001E6EFF0E1F6E84EC91F00D0E026E000ED1
:101F6000B3EC98F07BC022F07CC023F09BEC93F0A4
:101F7000160E026E000EB3EC98F07BC079F07CC0B8
:101F80007AF068EC96F01F0E026E000EB3EC98F03B
:101F90007BC022F07CC023F0D5EC93F0280E026EBB
:101FA000000EB3EC98F07BC079F07CC07AF0EDECD9
:101FB00096F07BEC94F01200016E01A0E2EF8FF03E
:101FC000E4EF8FF0E7EF8FF08D80E8EF8FF08D90EA
:101FD00001A2EDEF8FF0EFEF8FF0F2EF8FF08D8237
:101FE000F3EF8FF08D9201A4F8EF8FF0FAEF8FF0FE
:101FF000FDEF8FF08D84FEEF8FF08D9401A603EF3F
:1020000090F005EF90F008EF90F08D8609EF90F0DA
:102010008D9601A80EEF90F010EF90F013EF90F076
:102020008D8814EF90F08D9801AA19EF90F01BEFB6
:1020300090F01EEF90F08D8A1FEF90F08D9A01AC1A
:1020400024EF90F026EF90F029EF90F08D8C2AEF9E
:1020500090F08D9C01AE2FEF90F031EF90F034EFC7
:1020600090F08D8E35EF90F08D9E9AEC98F01200E6
:10207000256E49EF90F0020E026E230EB3EC98F03D
:1020800076EF90F0020E026E660EB3EC98F076EFEB
:1020900090F02250236E246A2450000AD8B453EFE3
:1020A00090F076EF90F02350000AD8B43BEF90F018
:1020B000010AD8B442EF90F076EF90F0DC0E1E6E7D
:1020C000FF0E1F6E84EC91F08FEF90F0D20E1E6E1B
:1020D000FF0E1F6E84EC91F08FEF90F0D70E1E6E06
:1020E000FF0E1F6E84EC91F08FEF90F02550236E61
:1020F000246A2450000AD8B480EF90F08FEF90F05B
:102100002350000AD8B45EEF90F0010AD8B466EF0D
:1021100090F0030AD8B46EEF90F08FEF90F01200B9
:102120005EA095EF90F097EF90F0A1EF90F015C0C2
:102130000CF016C00DF013C00EF014C00FF08AECB6
:1021400096F018BEA6EF90F0A8EF90F0AEEF90F0EA
:1021500017C01CF018C01DF0B2EF90F0000E1D6EFD
:10216000000E1C6E000E1B6E000E1A6EC4EF90F077
:10217000000E046E200E036E13C005F014C006F0AE
:10218000B5EC8EF01A4A1B2A1C501A5C1B50800AB0
:10219000196E1D50800A1958D8A0D1EF90F0D3EFD6
:1021A00090F0B8EF90F05EB0D8EF90F0DAEF90F0EA
:1021B000E4EF90F015C00CF016C00DF013C00EF057
:1021C00014C00FF08AEC96F01200000E126E000E92
:1021D000136E000E146E000E156E0E500F101010C0
:1021E0001110D8B4F6EF90F0F8EF90F02EEF91F0D8
:1021F000010E166E02EF91F0D8900E360F361036A3
:102200001136162A11AE07EF91F009EF91F0FCEFAD
:1022100090F0D89012361336143615360E500A5CEC
:102220000F500B5810500C5811500D58D8A01BEFE0
:1022300091F01DEF91F026EF91F00E500A5E0F50D5
:102240000B5A10500C5A11500D5A1280D89011325E
:1022500010320F320E32162E09EF91F012C00AF032
:1022600013C00BF014C00CF015C00DF01200146E6A
:10227000020E0F18D8B43FEF91F041EF91F046EF06
:1022800091F00F50D9EC94F04CEF91F0000ED9EC96
:1022900094F0010ED9EC94F00F500DEC97F08C886F
:1022A0008C960001C205D8B458EF91F05AEF91F026
:1022B00063EF91F01450106E116A101C126E111C15
:1022C000136E66EF91F014C012F0136A1250DCEC3A
:1022D0008FF00001C02B400EC019D8A472EF91F00E
:1022E00074EF91F079EF91F0C05160EC93F083EFCF
:1022F00091F07F0EC0657FEF91F081EF91F083EF59
:1023000091F07F0EC06F1200B3EF91F00001C55144
:10231000C0C020F0216A2026000E212221BE9AEFA3
:1023200091F0215009E1800E205CD8A09AEF91F045
:102330009CEF91F09EEF91F0CCEF91F01EC0F6FF74
:102340001FC0F7FF000EF86E0F0EF76403D00800F1
:10235000F55005D0F6CFE9FFF7CFEAFFEF5000ECDC
:1023600080F01E4A1F2A1EC0F6FF1FC0F7FF000E96
:10237000F86E0F0EF76403D00800F55005D0F6CFC5
:10238000E9FFF7CFEAFFEF500009D8A4CAEF91F0B8
:10239000CCEF91F086EF91F01200800E0B60D3EF3E
:1023A00091F0D5EF91F014EF92F0400E0C60DBEF5E
:1023B00091F0DDEF91F014EF92F00D50D8B4E3EF0F
:1023C00091F0E5EF91F0EDEF91F00D04D8A4EBEF73
:1023D00091F0EDEF91F014EF92F009C0C3F00AC054
:1023E000C4F00BC0C5F00CC0C6F00CC00FF0070E57
:1023F0000F16D8A4FEEF91F002EF92F0106A102AA7
:1024000003EF92F0106A0CC001F0026A000E046E35
:10241000080E036E1AEC8FF0015010240001C76FF4
:102420000DC0C8F00EC0C9F01200256E800E2560E8
:102430001CEF92F01EEF92F05AEF92F0800E2260A5
:1024400024EF92F026EF92F05AEF92F0400E2160C6
:102450002CEF92F02EEF92F05AEF92F0400E2360A4
:1024600034EF92F036EF92F05AEF92F022C00DF076
:1024700021C00EF024C00FF02550FFEC95F022C0D3
:102480000DF023C00EF024C00FF02550FFEC95F0A6
:1024900023C01CF025C01DF024C01EF0215067ECA5
:1024A00097F023C01CF022C01DF024C01EF0215064
:1024B00067EC97F012000550061007100810D8B40A
:1024C00064EF92F066EF92F096EF92F0010E096ED3
:1024D00070EF92F0D8900536063607360836092A8E
:1024E00008AE75EF92F077EF92F06AEF92F0055038
:1024F000015C065002580750035808500458D8A0F1
:1025000084EF92F086EF92F08EEF92F00550015E2C
:102510000650025A0750035A0850045AD8900832FD
:10252000073206320532092E77EF92F001C001F032
