:0400000031EF00F0EC
:100008005F82F2A40AEF00F00CEF00F02FEF00F08F
:10001800FD0ED76E110ED66E0001804B812B7E4BE4
:100028007F2B0101E04BE12BE80E00017E5D030E02
:100038007F59D8A022EF00F024EF00F02EEF00F057
:10004800000E7F6F000E7E6F010E7627000E77235D
:0E00580078237923F2945F92110052EFC4F0E6
:10C96200004361703A3534306D4168004379636C3D
:10C97200653A322F34004375723A3233306D4100DA
:10C98200566F6C3A332C333556000E00000000000F
:10C992000000000000000000000000000000000095
:10C9A2000000000000000000000000000000000085
:10C9B2000000000000000000000000000000000075
:10C9C2000000000000000000000000000000000065
:10C9D2000000000000000000000000000000000055
:10C9E2000000000000000000000000000000000045
:10C9F2000000000000000005000000000000000030
:10CA0200FC7F0E00FC7F0F00FC7F0700000000008F
:10CA12000000000000000000000000000000000014
:10CA22000000000000000000000000000000000004
:10CA320000000000000000000000000000000000F4
:10CA420000000000000000000000000000000000E4
:10CA520000000000000000000000000000000000D4
:10CA620000000000090000000000000000FC0100BE
:10CA720000FC0100000000000000000000000000B7
:10CA820000FC010000FC01000000000000000000AA
:10CA92000000000000000000000000000000000094
:10CAA2000000000000000000000000000000000084
:10CAB2000000000000000000000000000000000074
:10CAC2000000000000000000000000000000000064
:10CAD2000011000000000060000080610000806121
:10CAE2000C0080E10F0080FD0F00807F0000F86FD6
:10CAF2000000FC610C008CE10F0080FD0F00807FC4
:10CB02000000F86F0000FC6100008C6100008021D1
:10CB12000000800100000000000000000000000092
:10CB22000000000000000000000000000000000003
:10CB320000000000000000000000000000001100E2
:10CB420000000000830100C0C70300E08F030070F3
:10CB52000C0700300C0600180C060018040600FF33
:10CB6200FF7F00FEFF3F00180606001806030018AC
:10CB72000603003886030070FE010070FC0000000E
:10CB8200780000000000000000000000000000002B
:10CB92000000000000000000000000000000000093
:10CBA200000000000000000000000015000000006E
:10CBB200E0000000F0010000F80300001C03040084
:10CBC2000C030E008C830F00FCC10300F8F0000080
:10CBD200707C0000001E000080070300E083070055
:10CBE200F0C00F003CC00C001C600C0008600C0080
:10CBF2000060060000E0070000C0030000800100A2
:10CC02000000000000000000000000000000000022
:10CC12000000000000000000160000000000E00319
:10CC22000000F0070000F80700701C0E00F80E0C60
:10CC320000F80F0C00DC070C008C070C000C0F0C2A
:10CC4200000C1F06008C1F0600CC390700F8710388
:10CC520000F8F0030070E0010000E0010000F803BA
:10CC620000003C070000180E0000000E0000000744
:10CC720000000000000000000000000000000000B2
:10CC82000000000000040000000000000000FC01A1
:10CC92000000FC0100000000000000000000000095
:10CCA2000000000000000000000000000000000082
:10CCB2000000000000000000000000000000000072
:10CCC2000000000000000000000000000000000062
:10CCD2000000000000000000000000000000000052
:10CCE2000000000000000000000000000000000042
:10CCF20000000B000000000000000000FC03000028
:10CD0200FF1F00C0FF3F00E003FC00F000E001381D
:10CD120000C0013C0080031C0080030800000000EA
:10CD22000000000000000000000000000000000001
:10CD320000000000000000000000000000000000F1
:10CD420000000000000000000000000000000000E1
:10CD52000000000000000000000000000000000AC7
:10CD620000000000080000001C0080033C0080035B
:10CD72003800C001F000F001E003FC00C0FF3F00FA
:10CD820000FF1F0000FC0300000000000000000084
:10CD92000000000000000000000000000000000091
:10CDA2000000000000000000000000000000000081
:10CDB2000000000000000000000000000000000071
:10CDC2000000000000000000000000000A00000057
:10CDD20000C0000000C00000004C020000D80300A8
:10CDE20000F0010000FC000000AC01000030030074
:10CDF2000030000000000000000000000000000001
:10CE02000000000000000000000000000000000020
:10CE12000000000000000000000000000000000010
:10CE22000000000000000000000000000000000000
:10CE32000000000000000000000E000000000040A2
:10CE42000000006000000060000000600000006060
:10CE5200000000FF0F0000FF0F0000FF0F00006046
:10CE62000000006000000060000000600000006040
:10CE720000000000000000000000000000000000B0
:10CE820000000000000000000000000000000000A0
:10CE92000000000000000000000000000000000090
:10CEA2000000000000000500000000000066000015
:10CEB200006F0000003F0000001E000000000000A4
:10CEC2000000000000000000000000000000000060
:10CED2000000000000000000000000000000000050
:10CEE2000000000000000000000000000000000040
:10CEF2000000000000000000000000000000000030
:10CF0200000000000000000000000000000000001F
:10CF12000000000A00000000003000000070000065
:10CF2200003000000030000000300000003000003F
:10CF3200003000000030000000300000000000005F
:10CF420000000000000000000000000000000000DF
:10CF520000000000000000000000000000000000CF
:10CF620000000000000000000000000000000000BF
:10CF720000000000000000000000000000000000AF
:10CF820005000000000000000000000E0000000F7D
:10CF92000000000700000000000000000000000088
:10CFA200000000000000000000000000000000007F
:10CFB200000000000000000000000000000000006F
:10CFC200000000000000000000000000000000005F
:10CFD200000000000000000000000000000000004F
:10CFE200000000000000000000000000000B000034
:10CFF20000000000040000000F0000C00F0000F855
:10D002000100007E0000801F0000E0070000FC011C
:10D0120000007C0000001C00000000000000000076
:10D0220000000000000000000000000000000000FE
:10D0320000000000000000000000000000000000EE
:10D0420000000000000000000000000000000000DE
:10D0520000000000000000000000160000000000B8
:10D06200F8010000FF030080FF0700C0030700E093
:10D07200010E0070000C0030000C0038000C00188B
:10D08200000C0008000C000C000C000C0006000C48
:10D092000006000C0007000C0003001C80030018AF
:10D0A200C0010038F00000F07F0000E03F0000C047
:10D0B2000F0000000000000000000000000000005F
:10D0C200000000000000001000000000000000004E
:10D0D20000000000000000000001000080030000CA
:10D0E200C0030000C0010000E0000000E0000000FA
:10D0F200700000007000000038000000F8FF0F0010
:10D10200FCFF0F00FCFF0F00000000000000000009
:10D11200000000000000000000000000000000000D
:10D1220000000000000000000000000000000000FD
:10D1320000000000140000000000000000000000D9
:10D1420000E0000E00E0000F00F0C00F0038E00D1C
:10D152000018E00C0018700C000C300C000C380C9D
:10D16200000C380C000C1C0C000C1C0C000C0C0CE1
:10D17200000C0E0C00180F0C00F8070E00F8030F3D
:10D1820000E0010E000000000000000000000000AE
:10D19200000000000000000000000000000000008D
:10D1A2000015000000000000000000C003007CC069
:10D1B20007007CC007007C000E000C000C000C0075
:10D1C2000C000C0E0C000C060C000C070C000C07DB
:10D1D2000C008C030C00CC030600EC0306007C035D
:10D1E20006003C0303001CC703000CFE010000FE06
:10D1F2000000007C000000000000000000000000B1
:10D202000000000000000000000000000000160006
:10D21200C0000000E0000000F0000000F800000084
:10D22200F8000000FC000000EE0000006700008033
:10D23200630000C0610000E0600000706000003820
:10D24200700000FCFF0F00FCFF0F00FCFF0F00004E
:10D252003000000030000000300000003800000004
:10D26200380000003800000000000000000000004C
:10D272000000000000000000000000150000000097
:10D282000000000000080300F81F0700F81F070055
:10D29200F80D0E00080E0C0008060C0008060C0023
:10D2A20008020C0008030C0008030C0008030C0021
:10D2B200080306000C0306000C0307000C0703001A
:10D2C2000CC603000CFE010000FC00000078000008
:10D2D200000000000000000000000000000000004C
:10D2E20000000000000000001600000000007800AE
:10D2F2000000FE030080FF0300C0C70700E0E10753
:10D302000060700E0070300C0038380C00181C0CD5
:10D3120000180C0C000C0C0C000C060C000C060E79
:10D32200000C0606000C0606000C0607000C06039D
:10D3320000388E030078FC010030FC000000780009
:10D3420000000000000000000000000000000000DB
:10D3520000000000001600000000000000000000B5
:10D362000000F8010000FC010000FC0000000C00BD
:10D3720000000C0000000C0000000C000E000C80ED
:10D382000F000CE007000CF001000CFC00000C3E4A
:10D3920000008C1F0000EC070000FC030000FC00F2
:10D3A20000003C0000000C0000000400000000002F
:10D3B200000000000000000000000000000000006B
:10D3C2000000160000000000C0010000E0030000A1
:10D3D200F00700C0790600F03B0E00F81F0C003881
:10D3E2000E0C00180C0C001C0C0C000C060C000C93
:10D3F200060C000C0606000C0606000C0606001CB5
:10D40200070300F8070300F886030070CE0100004E
:10D41200FC000000FC0000003800000000000000DA
:10D4220000000000000000000000000000000016E4
:10D43200000000000000010080830300E087070075
:10D44200F00F0700700C0E00381C0C0018180C00AE
:10D452001C180C000C180C000C180C000C180C00FA
:10D462000C1804000C0C06000C0C06001C0C070027
:10D472001886030038C70300F0E30100F0FF000044
:10D48200E07F0000001F000000000000000000001C
:10D492000000000000000000000000000500000085
:10D4A2000000000000000C0E00001E0F00000C0720
:10D4B200000000000000000000000000000000006A
:10D4C200000000000000000000000000000000005A
:10D4D200000000000000000000000000000000004A
:10D4E200000000000000000000000000000000003A
:10D4F200000000000000000000000000000000002A
:10D502000000000000000000000500000000000014
:10D512006600000C6F00001E3F00000E1E0000009F
:10D5220000000000000000000000000000000000F9
:10D5320000000000000000000000000000000000E9
:10D5420000000000000000000000000000000000D9
:10D5520000000000000000000000000000000000C9
:10D5620000000000000000000000000000000000B9
:10D572000000000000000D0000000000000000009C
:10D582006000000070000000F0000000F8010000E0
:10D59200D80100009C0300000C0300000E070000ED
:10D5A200070E0000070E000002020000000000004B
:10D5B2000000000000000000000000000000000069
:10D5C2000000000000000000000000000000000059
:10D5D2000000000000000000000000000000000049
:10D5E2000000000D00000000008C0100008C010012
:10D5F200008C0100008C0100008C0100008C0100F5
:10D60200008C0100008C0100008C0100008C0100E4
:10D61200008C0100008C01000000000000000000EE
:10D6220000000000000000000000000000000000F8
:10D6320000000000000000000000000000000000E8
:10D6420000000000000000000000000000000000D8
:10D652000D00000000000000000002020000070EA2
:10D662000000070E00000E0700000C0300009C03E0
:10D672000000D8010000F8010000F0000000700076
:10D682000000600000000000000000000000000038
:10D692000000000000000000000000000000000088
:10D6A2000000000000000000000000000000000078
:10D6B2000000000000000000000000000010000058
:10D6C20000002000000070000000F00000007870F0
:10D6D200000018F8000018FC1C000CDC1E000CCE28
:10D6E2000E000CC700000CF700008C730000DC2158
:10D6F2000000F8010000F8000000700000000000C7
:10D702000000000000000000000000000000000017
:10D712000000000000000000000000000000000007
:10D72200000000000000000000001B0000000000DC
:10D7320080070000E01F0000783800001C30000065
:10D742000E70000006670000C3670080E36F008070
:10D75200716C0080396C00C0186C00C00C6600C08F
:10D762000C36006004330060863B00608611006066
:10D77200C6070060FE0F0060FE0F00600E0C006026
:10D78200000C00C0000600C00106008083030000F8
:10D79200FF0100007C00001500000E0000800F0059
:10D7A20000C00F0000F0010000780000003E000001
:10D7B200001F0000801F0000E01B0000F81800009E
:10D7C2007C1800007C180000F8180000E01B000024
:10D7D200801F0000001F0000007C000000F8010014
:10D7E20000E00F0000800F0000000E0000000000AB
:10D7F2000000000000000000000000000000000027
:10D8020000000000150000000000000000F8FF0FFB
:10D8120000FCFF0F00F8FF0F0018060C0018060CA2
:10D822000018070C000C0704000C0306000C03068A
:10D83200008C0306008C030700CC030300CC030317
:10D8420000FC83030078C3010038E7010000FE00FA
:10D8520000007E0000001C0000000000000000002C
:10D8620000000000000000000000000000000000B6
:10D87200001200000000007C000000FF0100C0FF59
:10D882000700E0830700F0000E0030000E003800B1
:10D892000C0018000C000C000C000C000C000C001A
:10D8A2000C000C0006000C0007000C00070018C05A
:10D8B200030038C0010038C0010000000000000071
:10D8C2000000000000000000000000000000000056
:10D8D2000000000000000000000000000000150031
:10D8E20000000000000000FCFF0F00FCFF0F00FC26
:10D8F200FF0F0038000C0018000C0018000C001C70
:10D902000006000C0006000C0006000C0007000CCC
:10D912000003000C8003000C8003001CC0010018EF
:10D92200E0010078F80000F07F0000E01F0000C076
:10D9320007000000000000000000000000000000DE
:10D9420000000000000000000000001300000000C2
:10D9520010000000FCFF0F00FCFF0F00FCFF0F0097
:10D96200180C0600180C0600180C0600180C06000D
:10D97200180C0600180C0600180C0600180C0600FD
:10D98200180E06001C0E06001C0406001C000700F0
:10D99200000007000000020000000000000000007C
:10D9A2000000000000000000000000000000000075
:10D9B2000000000000000000110000000000000054
:10D9C20000F8FF0F00FCFF0F00FCFF0F00381C00E7
:10D9D20000381C0000380C0000180C0000180C0065
:10D9E20000180C0000180C0000180E00001C0E009D
:10D9F200001C0E00001C0E00001C000000000000B5
:10DA02000000000000000000000000000000000014
:10DA12000000000000000000000000000000000004
:10DA22000000000000170000000000F8000000FEE7
:10DA3200010080FF0300C0870700E0010600E0004C
:10DA42000E0070000C0030000C0038000C001800B2
:10DA52000C0018000C000C100C000C1806000C181E
:10DA620006000C1806000C1803000C9803001CCCCE
:10DA7200010018EC010038FC0000107C0000001CC2
:10DA82000000000000000000000000000000000094
:10DA920000001400000000000C0000FCFF0F00FC5E
:10DAA200FF0F00FCFF0F00000E0000000E00000040
:10DAB2000E0000000E0000000E0000000E0000002C
:10DAC2000E00000006000000060000000600000034
:10DAD20006000000060000FCFF0F00FCFF0F00FC28
:10DAE200FF0F000000000000000000000000000026
:10DAF200000000000000000000000000000000051F
:10DB02000000000000000000FCFF0F00FCFF0F00FF
:10DB1200FCFF0F00000000000000000000000000F9
:10DB220000000000000000000000000000000000F3
:10DB320000000000000000000000000000000000E3
:10DB420000000000000000000000000000000000D3
:10DB520000000000000000000000000000000000C3
:10DB620000000000000000000000000010000000A3
:10DB7200000080030000C0070000C00F0000001C6E
:10DB82000000001800000018000000180000001833
:10DB9200000000180000001C0000000E0000000F32
:10DBA20000FCFF0700FCFF0300FCFF010000000077
:10DBB2000000000000000000000000000000000063
:10DBC2000000000000000000000000000000000053
:10DBD2000000000000000000001300000000000030
:10DBE2000000FCFF0F00FCFF0F00FCFF0F00800F86
:10DBF2000000800F0000C01D0000E0380000E07847
:10DC020000007070000030E0000038C0010018C051
:10DC120003000C8003000C00070000000E0000004F
:10DC22000E000000040000000000000000000000E0
:10DC320000000000000000000000000000000000E2
:10DC42000000000000000F0000000000000000FCC7
:10DC5200FF0F00FCFF0F00FCFF0F0000000E000092
:10DC6200000E000000060000000600000006000092
:10DC72000006000000070000000700000007000087
:10DC8200000700000000000000000000000000008B
:10DC92000000000000000000000000000000000082
:10DCA2000000000000000000000000000000000072
:10DCB200000000190000000000000000F8FF0F0043
:10DCC200FCFF0F00FCFF0F00F0010000C00300008A
:10DCD200800F0000001E0000007C000000F8010020
:10DCE20000E0070000800F0000800F0000E0070046
:10DCF20000F0010000F80000003C0000001E0000DF
:10DD0200000F0000C0030000E0010000FCFF0F0054
:10DD1200FCFF0F00FCFF0F000000000000000000ED
:10DD2200130000000000000000FCFF0F00FCFF0FCA
:10DD320000FCFF0F00F0010000C00300008007009C
:10DD420000000F0000001E0000003C000000380030
:10DD5200000070000000F0000000E0010000C003BD
:10DD620000FCFF0700FCFF0F00FCFF0F000000009B
:10DD720000000000000000000000000000000000A1
:10DD8200000000000000000000000000001500007C
:10DD9200000000F8000000FE010080FF0300C083C5
:10DDA2000700E001060070000E0030000C00380091
:10DDB2000C0018000C000C000C000C000C000C00F5
:10DDC20006000C0006000C0007001C00030018C02F
:10DDD200030078E00100F0FF0000E07F0000801FF8
:10DDE2000000000000000000000000000000000031
:10DDF200000000000000000000001300000000C04E
:10DE0200000000FCFF0F00FCFF0F00FCFF0F0038BA
:10DE12001C0000380C0000180C0000180C00000850
:10DE22000E00000C0E00000C0600000C0700000C97
:10DE32000300008C030000CC010000FC010000F88C
:10DE42000000003800000000000000000000000098
:10DE520000000000000000000000000000000000C0
:10DE620000000000000000170000000000F80000A1
:10DE720000FE030080FF0700C0070700E0010E005C
:10DE8200E0000C0070000C0030000C0018000C00C8
:10DE920018000C000C200C000C700E000CF0060098
:10DEA2000CE006000CC007001CC003001CC00700E9
:10DEB20078F00700F0FF0E00E03F1C00C00F1C00CE
:10DEC2000000080000000000000000000000000048
:10DED200000000001500000000E0000000FCFF0F41
:10DEE20000FCFF0F00FCFF0F00381C0000183E0072
:10DEF20000183E0000187600000C7600000CE600C8
:10DF0200000CE300000CC300008CC301008C8101F3
:10DF120000CC810300FC000300F800070038000673
:10DF22000000000E0000000E0000000000000000D3
:10DF320000000000000000000000000000000000DF
:10DF420000150000000000070300C0870700E00F73
:10DF52000700700C0E00300C0C00180C0C00180C92
:10DF62000C00180C0C000C040C000C040C000C0629
:10DF72000E000C0606000C0606000C0607001C0626
:10DF820007003886030038C6030010FE010000FCBB
:10DF92000000003800000000000000000000000047
:10DFA200000000000000000000000000000012302D
:10DFB200000000300000003000000030000000309F
:10DFC2000000001000000010000000F8FF0F00F831
:10DFD200FF0F00F8FF0F0018000000080000000803
:10DFE200000000080000000C0000000C0000000C03
:10DFF2000000000C00000000000000000000000013
:10E00200000000000000000000000000000000000E
:10E0120000000000000000000000001200000000EC
:10E0220000000000FCFF0300FCFF0700F8FF0700F0
:10E0320000000E0000000C0000000C0000000C00AC
:10E0420000000C0000000C0000000E0000000600A2
:10E052000000070000000700FCFF0300FCFF0100B6
:10E06200FCFF0000000000000000000000000000B3
:10E07200000000000000000000000000000000009E
:10E08200000000000000000013000000003C00003F
:10E0920000FC010000F8070000C01F0000007F0024
:10E0A2000000F80F0000C00F0000C00F0000F000D9
:10E0B20000007C0000001E0000000F0000C00300F2
:10E0C20000E0010000F0000000780000003C0000C9
:10E0D2000018000000000000000000000000000026
:10E0E200000000000000000000000000000000002E
:10E0F20000000000001B000000007C000000FC0388
:10E102000000FC1F000000FF000000F80F0000E00C
:10E112000F0000C00F0000F0010000780000003E78
:10E122000000800F0000F8030000F8000000F80370
:10E132000000800F0000003E000000FC000000F024
:10E14200070000800F0000C00F0000F80300007EEF
:10E152000000801F0000FC070000FC0100003C00E2
:10E16200000011000004001C000E003C000F007CA7
:10E17200C00700F8E00300F0F10000C07B0000805F
:10E182003F0000001F0000001F0000C07F0000E0F1
:10E19200F10000F0E0010078C003003C800F001C99
:10E1A200000F001800040000000000000000000042
:10E1B200000000000000000000000000000000005D
:10E1C2000000000000000000000000000000001538
:10E1D200180000001C0000003C0000007800000055
:10E1E200F0000000E0010000C00100008003000018
:10E1F2000007000000FF0F0000FE0F0000FE0F00EE
:10E202000007000080030000C0010000E0010000E0
:10E21200E000000070000000380000003C00000038
:10E222001C000000000000000000000000000000D0
:10E2320000000000000000000000000014000000C8
:10E242000000000E0038000F003C800F001CC00FC1
:10E25200000CC00D000CE00C000C700C000C380C13
:10E26200000C3C0C000C1E0C000C0F0C008C070C5C
:10E2720000CC030C00EC010C00EC000C00FC000CC8
:10E28200007C000E003C000F001C00060000000095
:10E29200000000000000000000000000000000007C
:10E2A2000000000000000000000C00000000000060
:10E2B200000000000000F8FFFF03FCFFFF03FCFF6B
:10E2C200FF030C0000030C0000030C0000030C0011
:10E2D20000030C00800300000001000000000000A9
:10E2E200000000000000000000000000000000002C
:10E2F200000000000000000000000000000000001C
:10E30200000000000000000000000000000000000B
:10E312000000000000000B080000001C0000007C50
:10E32200000000F0010000C0070000001F00000014
:10E332007C000000F0010000C00F0000000F000090
:10E3420000040000000000000000000000000000C7
:10E3520000000000000000000000000000000000BB
:10E3620000000000000000000000000000000000AB
:10E37200000000000000000000000000000000009B
:10E3820000000009000000000C0000030C00000364
:10E392000C0000030C0000030C000003FCFFFF0351
:10E3A200FCFFFF03FCFFFF03000000000000000071
:10E3B200000000000000000000000000000000005B
:10E3C200000000000000000000000000000000004B
:10E3D200000000000000000000000000000000003B
:10E3E200000000000000000000000000000000002B
:10E3F2000D000000000001000080030000C00300C7
:10E4020000E0010000F0000000780000001C0000A5
:10E41200007C000000F0000000E0030000C00300E8
:10E4220000000300000000000000000000000000E7
:10E4320000000000000000000000000000000000DA
:10E4420000000000000000000000000000000000CA
:10E45200000000000000000000000000000D0000AD
:10E46200C0000000C0000000C0000000C0000000AA
:10E47200C0000000C0000000C0000000C00000009A
:10E48200C0000000C0000000C0000000C00000008A
:10E49200C0000000000000000000000000000000BA
:10E4A200000000000000000000000000000000006A
:10E4B200000000000000000000000000000000005A
:10E4C2000000000000000000000008000000000042
:10E4D2000000000C0000001C0000001800000030CA
:10E4E200000000600000006000000000000000006A
:10E4F200000000000000000000000000000000001A
:10E502000000000000000000000000000000000009
:10E5120000000000000000000000000000000000F9
:10E5220000000000000000000000000000000000E9
:10E53200000000000000000F0000000000000600C4
:10E5420000800F0000CC0F0000CE0C0000C60C00B3
:10E5520000660C000063040000230600003306007E
:10E562000033030000B3010000FF0F0000FE0F00A4
:10E5720000FE0F000000000000000000000000008C
:10E582000000000000000000000000000000000089
:10E592000000000000000000000000000000000079
:10E5A20000000000100000000000000000FCFF0F4F
:10E5B20000FCFF0F00FCFF0F00001C0C00000E0C03
:10E5C20000000606000006060000020300008303A6
:10E5D2000000C3010000E30000007F0000003F00D4
:10E5E20000000E000000000000000000000000001B
:10E5F2000000000000000000000000000000000019
:10E602000000000000000000000000000000000008
:10E61200000F0000000000E0030000F0070000F817
:10E622000700003C0E00000E0C0000060C00000764
:10E632000C0000030C0000030C00000306000003A2
:10E642000700008707000086030000860100000023
:10E6520000000000000000000000000000000000B8
:10E6620000000000000000000000000000000000A8
:10E672000000000000000000000000000000100088
:10E682000000000080070000C0070000E00F00004B
:10E69200780C0000380C00001C0C00000C0C000070
:10E6A2000C060000060600000603000086030000B8
:10E6B200C60100FCFF0F00FCFF0F00FCFF0F000073
:10E6C2000000000000000000000000000000000048
:10E6D2000000000000000000000000000000000038
:10E6E2000000000000000000000000100000000018
:10E6F20000C0030000F0070000F80F00007C0E00CD
:10E70200006C0C0000660C0000660C0000330C006C
:10E7120000330C0000330E00003306000033060005
:10E72200009E0300009E0300000C01000000000098
:10E7320000000000000000000000000000000000D7
:10E7420000000000000000000000000000000000C7
:10E7520000000000000000000D00040000000C009A
:10E7620000000C0000000C0000C0FF0F00F0FF0FC3
:10E7720000F8FF0F001C0600000C0600000C06004B
:10E78200000C060000380700001807000000000017
:10E792000000000000000000000000000000000077
:10E7A2000000000000000000000000000000000067
:10E7B2000000000000000000000000000000000057
:10E7C20000000000000F000000000080070000E0D1
:10E7D2000F0000F0CF010078CC01001C8C03000C6C
:10E7E2000C0300060603000607030002030300C32E
:10E7F200830300F3C00100FFFF0100FFFF0000FFE1
:10E802003F000000000000000000000000000000C7
:10E8120000000000000000000000000000000000F6
:10E8220000000000000000000000000000000000E6
:10E8320000000F0000000000000000FCFF0F00FCC1
:10E84200FF0F00FCFF0F00001C0000000E00000084
:10E8520006000000060000000300000003000000A4
:10E8620003000000FF0F0000FF0F0000FE0F00007A
:10E872000000000000000000000000000000000096
:10E882000000000000000000000000000000000086
:10E892000000000000000000000000000000000571
:10E8A200000000000000000070FF0F0078FF0F0062
:10E8B20038FF0F0000000000000000000000000010
:10E8C2000000000000000000000000000000000046
:10E8D2000000000000000000000000000000000036
:10E8E2000000000000000000000000000000000026
:10E8F2000000000000000000000000000000000016
:10E9020000000000000000000000000006000000FF
:10E91200060000000700FFFF0318FFFF033CFFFF94
:10E92200011C0000000000000000000000000000C8
:10E9320000000000000000000000000000000000D5
:10E9420000000000000000000000000000000000C5
:10E9520000000000000000000000000000000000B5
:10E9620000000000000000000000000000000000A5
:10E972000000000000000000000E00000000000087
:10E982000000FCFF0F00FCFF0F00FCFF0F000070F7
:10E99200000000F8000000DC010000DC0100008E35
:10E9A2000300000707008007070080030E00000134
:10E9B2000C00000000000000000000000000000049
:10E9C2000000000000000000000000000000000045
:10E9D2000000000000000000000000000000000035
:10E9E200000000000000050000000000000000FC24
:10E9F200FF0F00FCFF0F00FCFF0F000000000000F3
:10EA02000000000000000000000000000000000004
:10EA120000000000000000000000000000000000F4
:10EA220000000000000000000000000000000000E4
:10EA320000000000000000000000000000000000D4
:10EA420000000000000000000000000000000000C4
:10EA520000000018000000000000000000FF0F008E
:10EA620000FF0F0000FF0F00001C0000000C000060
:10EA72000006000000060000000200000003000083
:10EA820000FF0F0000FF0F0000FE0F000018000043
:10EA9200000C0000000C0000000600000002000054
:10EAA200000300000003000000FF0F0000FF0F0042
:10EAB20000FE0F0000000000000000000000000047
:10EAC2000F000000000000000000FF0F0000FF0F19
:10EAD2000000FF0F00001C0000000C0000000E00F0
:10EAE2000000060000000200000003000000030016
:10EAF2000000FF0F0000FF0F0000FE0F00000000EB
:10EB02000000000000000000000000000000000003
:10EB120000000000000000000000000000000000F3
:10EB220000000000000000000000000000100000D3
:10EB3200000000C0030000F0070000F80700001CFE
:10EB42000E00000E0C0000060C0000060C00000374
:10EB52000C0000030E0000030600000307000087FC
:10EB6200030000FE010000FE00000078000000002B
:10EB72000000000000000000000000000000000093
:10EB82000000000000000000000000000000000083
:10EB92000000000000000000000011000000000062
:10EBA20000000000FFFF0F00FFFF0F00FFFF0F003C
:10EBB200380C00001C0C00000E0C0000060C0000BB
:10EBC200030E000003060000030700008303000099
:10EBD200C7030000FF010000FE0000003C0000002F
:10EBE2000000000000000000000000000000000023
:10EBF2000000000000000000000000000000000013
:10EC020000000000000000140000000000E003000B
:10EC120000F0070000F80F00001C0E00000E0C00B0
:10EC220000060C0000070C000003060000030700AA
:10EC32000083030000C3010000F3000000FFFF0790
:10EC420000FFFF0F00FEFF0F0000000600000003A0
:10EC520000008003000080010000000000000000AE
:10EC620000000000000000000000000000000000A2
:10EC7200000000000D000000000000000000FF0F77
:10EC82000000FF0F0000FF0F0000180000000C0042
:10EC920000000600000002000000030000001F0048
:10ECA20000001F0000000E00000000000000000035
:10ECB2000000000000000000000000000000000052
:10ECC2000000000000000000000000000000000042
:10ECD2000000000000000000000000000000000032
:10ECE20000110000000000380600007C0700007CD4
:10ECF2000600006E0C0000660C0000660C0000634B
:10ED02000C0000230C0000330C000033060000331B
:10ED12000600003306000033030000F2030000E0A7
:10ED2200010000E000000000000000000000000000
:10ED320000000000000000000000000000000000D1
:10ED420000000000000000000000000000001100B0
:10ED5200000000000600000006000000060000009F
:10ED6200070000E0FF0700E0FF0F00E0FF0F0000D8
:10ED7200030C0000030C00000304000003060080E3
:10ED82000107008001030000C1030000C001000070
:10ED920080000000000000000000000000000000F1
:10EDA2000000000000000000000000000000000061
:10EDB20000000000000000000000000F0000000042
:10EDC2000000000000FF070000FF070000FF0F0027
:10EDD20000000C0000000C0000000C000000060007
:10EDE20000000600000007000080030000FF0F0083
:10EDF20000FF0F0000FF0F000000000000000000F5
:10EE02000000000000000000000000000000000000
:10EE120000000000000000000000000000000000F0
:10EE220000000000000000000F00060000001F00AC
:10EE320000007F000000FE030000E00F0000800FD2
:10EE42000000000F0000C0070000E0010000F00019
:10EE520000003C0000001E0000000F000000070040
:10EE6200000003000000000000000000000000009D
:10EE72000000000000000000000000000000000090
:10EE82000000000000000000000000000000000080
:10EE92000000000000160000000000070000001F34
:10EEA200000000FF000000F0070000C00F0000009B
:10EEB2000F0000C0070000E0010000F80000003F62
:10EEC2000000001F0000007F000000F8010000E0C9
:10EED200070000800F0000800F0000E0030000F038
:10EEE2000100007E0000001F00000007000000007B
:10EEF2000000000000000000000000000000000010
:10EF020000000F000000000002060000070E0000D3
:10EF12000F0700009C030000F8010000F801000048
:10EF2200F0000000F0000000F8010000DC01000029
:10EF32008E03000007070000070E0000000C00000F
:10EF420000000000000000000000000000000000BF
:10EF520000000000000000000000000000000000AF
:10EF6200000000000000000000000000000000108F
:10EF72000002E0000007E001001F8001003E800166
:10EF82000078800100F0C00100E0E1000080F7009D
:10EF920000007F0000001F0000C00F0000F003000F
:10EFA20000FC0000003F0000000F00000003000012
:10EFB200000000000000000000000000000000004F
:10EFC200000000000000000000000000000000003F
:10EFD2000000000000000000000000000F00000818
:10EFE20000000E0C00000E0E0000060F0000060FBF
:10EFF2000000860F0000C60D0000E60C0000760C33
:10F0020000003E0C00003E0C00001E0C00000E0C26
:10F012000000070E0000030E0000000000000000C8
:10F0220000000000000000000000000000000000DE
:10F0320000000000000000000000000000000000CE
:10F042000000000000000000000D00000000006051
:10F052000000006000000060000000E0000000F01E
:10F06200FF01E0FFFF01F81FFF03F80F00031C0080
:10F0720000030C0000030C0000030C000001000060
:10F08200000000000000000000000000000000007E
:10F09200000000000000000000000000000000006E
:10F0A200000000000000000000000000000000005E
:10F0B200000000000000050000000000000000FF4A
:10F0C200FFFF07FFFFFF07FFFFFF07000000000031
:10F0D200000000000000000000000000000000002E
:10F0E200000000000000000000000000000000001E
:10F0F200000000000000000000000000000000000E
:10F1020000000000000000000000000000000000FD
:10F1120000000000000000000000000000000000ED
:10F122000000000C080000030C0000030C000003A8
:10F132000C0080030C00FF01FC8FFF01F8FF7F0031
:10F14200F0FF00000070000000600000006000009E
:10F15200006000000000000000000000000000004D
:10F16200000000000000000000000000000000009D
:10F17200000000000000000000000000000000008D
:10F18200000000000000000000000000000000007D
:10F192000D000000000080000000E0010000E0001F
:10F1A200000030000000300000007000000060002D
:10F1B2000000C0000000C0000000E0000000780075
:10F1C2000000380000000000000000000000000005
:10F1D200000000000000000000000000000000002D
:10F1E200000000000000000000000000000000001D
:10F1F2000000000000000000000000000008000005
:10F202000000FEFF1F00FEFF1F00020010000200B0
:10F21200100002001000FEFF1F00FEFF1F00000092
:10F2220000000000000000000000000000000000DC
:10F2320000000000000000000000000000000000CC
:10F2420000000000000000000000000000000000BC
:10F2520000000000000000000000000000000000AC
:10F262000000000000000000000006000000000096
:10F27200000000000000000000000000000000008C
:10F28200000200007E0300000000000000000000F9
:10F2920000000000000000000400000F0000000F4A
:10F2A2000000000000000000000000000000000854
:10F2B200000040004803F8004E03F8004E0008002A
:10F2C2000000000000000618022402FF0F4402445E
:10F2D200028401000000000000000000000B00009A
:10F2E2001C00220022029C0160001000CC012202BC
:10F2F2002002C00108CC0132022202220252028CF8
:10F3020001E00100020000000000000200000F0006
:10F3120000000000000000000000000000000000EB
:10F322000000050000F0010C0602080110000000B8
:10F3320000000000000000000004011002080C069A
:10F34200F0010000000000000000000000000000CA
:10F352000600000A0004001F0004000A000000006A
:10F362000000000000000007200020002000FC0137
:10F372002000200020000000000000000000020029
:10F38200080007000000000000000000000000006C
:10F3920000000000000420002000200020000000E7
:10F3A2000000000000000000000000000200000059
:10F3B2000300000000000000000000000000000048
:10F3C20000000005000C800360001C000300000028
:10F3D2000000000000000000000006FC0102020222
:10F3E2000202020202FC0100000000000000000014
:10F3F2000006000004020402FE03000200020000F4
:10F4020000000000000000000604038202420242E3
:10F412000222021C020000000000000000000006A0
:10F4220004010202220222022202DC010000000088
:10F43200000000000000066000500048004400FE8A
:10F4420003400000000000000000000000061E0152
:10F452001202120212021202E20100000000000077
:10F462000000000006F8011402120212021202E069
:10F47200010000000000000000000006020002027D
:10F48200820162001A000600000000000000000075
:10F49200000006DC012202220222022202DC01001A
:10F4A200000000000000000000063C004202420290
:10F4B20042024201FC0000000000000000000000C7
:10F4C200030000000018030000000000000000001C
:10F4D2000000000000000003000000081807000000
:10F4E2000000000000000000000000000000080012
:10F4F2000020002000500050008800880004010015
:10F5020000000000000800009000900090009000B1
:10F51200900090009000000000000000080000042D
:10F5220001880088005000500020002000000000E8
:10F532000000000504004203220012000C0000003B
:10F54200000000000000000000000BF0000C0304AB
:10F5520002F2040A050A050A05FA0504010C01F083
:10F5620000070003E000980086009800E000000316
:10F57200000000000000000006FE03220222022218
:10F58200023C02C001000000000000000000000771
:10F59200F800040102020202020202020401000057
:10F5A20000000000000007FE030202020202020243
:10F5B200020401F800000000000000000006FE0343
:10F5C2002202220222022202220200000000000085
:10F5D2000000000006FE0322002200220022002278
:10F5E200000000000000000000000007F800040115
:10F5F2000202020242024202C403000000000000B2
:10F60200000007FE0320002000200020002000FE52
:10F61200030000000000000000030202FE030202D9
:10F6220000000000000000000000000000000000D8
:10F6320004000202020202FE0100000000000000BB
:10F642000000000000000006FE03200050008800B9
:10F65200040102020000000000000000000005FE9C
:10F66200030002000200020002000000000000008D
:10F67200000000000009FE0306001800600080017F
:10F68200600018000600FE030000000007FE0306EB
:10F692000018002000C0000003FE0300000000006C
:10F6A20000000008F8000401020202020202020243
:10F6B2000401F80000000000000006FE0322002200
:10F6C20000220022001C00000000000000000000D8
:10F6D2000008F8000401020202020206020A0409FA
:10F6E200F80800000000000007FE0322002200626A
:10F6F20000A2001C01000200000000000000000740
:10F702001C0122022202220222022202C401000061
:10F7120000000000000007020002000200FE0302D7
:10F722000002000200000000000000000007FE00CE
:10F7320000010002000200020001FE0000000000C1
:10F7420000000000070E003000C0000003C00030BF
:10F75200000E0000000000000000000B1E00E0018F
:10F762000002C001380006003800C0010002E001BA
:10F772001E000702020401D8002000D80004010282
:10F782000200000000000000000702000C00100050
:10F79200E00310000C000200000000000000000066
:10F7A2000602038202620212020A0206020000003C
:10F7B20000000000000000040000FF0F0108010823
:10F7C200000000000000000000000000000005032F
:10F7D200001C0060008003000C000000000000001C
:10F7E200000000000004000001080108FF0F0000F3
:10F7F20000000000000000000000000009000010EE
:10F8020000080004000200020004000800100000CA
:10F8120000000007000800080008000800080008AF
:10F8220000080000000000000000050000000000C9
:10F8320000010002000000000000000000000000C3
:10F84200000680014802480248024801F003000015
:10F85200000000000000000006FF0310020802087A
:10F86200020802F001000000000000000000000594
:10F87200F00108020802080208020000000000006D
:10F8820000000000000006F0010802080208020859
:10F8920001FF030000000000000000000006F0016C
:10F8A20048024802480248027001000000000000BD
:10F8B20000000000050800FE030900090001000025
:10F8C200000000000000000000000006F001081225
:10F8D200081208120811F80F0000000000000000D2
:10F8E200000006FF031000080008000800F00300F3
:10F8F200000000000000000000020000FA03000007
:10F9020000000000000000000000000000000000F5
:10F912000300100810FA0F000000000000000000B1
:10F922000000000000000005FF034000A0001001DD
:10F9320008020000000000000000000000000200B9
:10F9420000FF0300000000000000000000000000B3
:10F9520000000000000A0000F80310000800080080
:10F96200F003100008000800F003000006F803107E
:10F9720000080008000800F003000000000000007A
:10F9820000000006F0010802080208020802F00165
:10F992000000000000000000000006F81F1002082E
:10F9A2000208020802F0010000000000000000004E
:10F9B2000006F0010802080208020801F81F000010
:10F9C200000000000000000004F803100008000816
:10F9D2000000000000000000000000000000000520
:10F9E2003001480248024802900100000000000075
:10F9F200000000000000040800FE010802080200E6
:10FA02000000000000000000000000000006F801F5
:10FA12000002000200020001F803000000000000E2
:10FA220000000000051800E0000003E000180000DC
:10FA32000000000000000000000000091800E000C3
:10FA42000003E0001800E0000003E00018000000DE
:10FA52000000050802B0014000B0010802000000E9
:10FA6200000000000000000000051800E018000778
:10FA7200E00018000000000000000000000000008C
:10FA8200050803880248022802180200000000004C
:10FA9200000000000000000540004000BE07010811
:10FAA2000108000000000000000000000000030048
:10FAB200000000FF0F000000000000000000000036
:10FAC20000000000000501080108BE0740004000D8
:10FAD20000000000000000000000000008000060BC
:10FAE2000010001000200040004000300000000024
:10FAF20000000003FF030102FF03000000000000FA
:10FB020000000000000000000000050000000000EE
:10FB12000500005F000005000700070005147F14C0
:10FB22007F1405242A7F2A120523130864620536EE
:10FB32004956205005080703000005001C22410019
:10FB4200050041221C000514083E08140508083E61
:10FB520008080500B070000005080808080805003C
:10FB620060600000052010080402053E5149453E30
:10FB72000500427F40000572494949460521414935
:10FB82004D33051814127F10052745454539053CAC
:10FB92004A49493105412111090705364949493682
:10FBA20005464949291E050000140000050040349D
:10FBB2000000050814224100051414141414054110
:10FBC20022140800050201590906053E415D594EFD
:10FBD200057C1211127C057F49494936053E414197
:10FBE2004122057F4141413E057F49494949057FFF
:10FBF20009090909053E41415173057F0808087F3B
:10FC02000500417F4100052040413F01057F081466
:10FC12002241057F40404040057F020C027F057F64
:10FC22000408107F053E4141413E057F090909064E
:10FC3200053E4151215E057F09192946052649499C
:10FC420049320501017F0101053F4040403F051F48
:10FC52002040201F053F4038403F056314081463CD
:10FC620005030478040305615149454305007F41BA
:10FC72004100050204081020050041417F000504EF
:10FC82000201020405404040404005070B0000000D
:10FC9200052054547840057F2844443805384444AC
:10FCA200442805384444287F053854545418050024
:10FCB200087E09020518A4A49C78057F080404782C
:10FCC2000500447D4000052040403D00057F10288E
:10FCD20044000500417F4000057C04780478057CDF
:10FCE2000804047805384444443805FC18242418D0
:10FCF2000518242418FC057C0804040805485454FB
:10FD020054240504043F4424053C4040207C051C47
:10FD12002040201C053C4030403C0544281028442B
:10FD2200054C9090907C054464544C440500083680
:10FD32004100050000770000050041360800050477
:10FD42000204080405007F417F004D616E75666103
:10FD520063757265722049443A202578200D0A4461
:10FD620065766963652049443A202578200D0A4D5D
:10FD7200656D6F72792043617061636974793A20AD
:10FD82002578200D0A004D616E7566616374757287
:10FD920065722049443A202578200D0A4465766927
:10FDA20063652049443A202578200D0A00433A250C
:10FDB2003034752F253034752F253034752F25308A
:10FDC200347500566F6C3A25752E253032752F2505
:10FDD200752E253032755600433A253034752F255D
:10FDE2003034752F253034756D416800434C4541E0
:10FDF20052204D454D4F525921200A0D004361704A
:10FE02003A253034752F253034756D4168004368CA
:10FE12006172672F44697363682F53746F72002590
:10FE220030327568253032756D2530327573004F6A
:10FE32004E2F4F46463A202558200A0D0052455370
:10FE420045543A202558200A0D0043656C6C205613
:10FE52006F6C74613A004D696E44697363566F6CDE
:10FE62003A00547269636B6C65566F6C3A00547257
:10FE720069636B6C654375723A0043656C6C204331
:10FE82006F756E743A004375723A25752F25756D3C
:10FE920041004361703A253034756D416800436812
:10FEA2006172672F4469736368004379636C653AD2
:10FEB20025752F257500425553593A202558200A99
:10FEC2000D004469736343757220313A00436872CE
:10FED2006743757220313A00446973634375722037
:10FEE200323A004368726743757220323A004469BD
:10FEF200736343757220333A0043687267437572C5
:10FF020020333A004469736343757220343A0043E4
:10FF120068726743757220343A00426174742074C7
:10FF22007970653A0054656D703A25303275430038
:10FF32002530327568253032756D0053415645269D
:10FF420045584954004F7074696F6E732031004FE9
:10FF52007074696F6E732032004F7074696F6E73C4
:10FF62002033004F7074696F6E732034004F7074C9
:10FF7200696F6E732035004D61782054696D653A62
:10FF8200004368617267696E67004379636C653A22
:10FF9200004C692D496F6E004241542031004241AC
:10FFA200542032004D6F64653A0054656D703A001A
:10FFB2004E692D4D48005354415254004241434B27
:10FFC200004E4558540025752525004449534300E9
:10FFD20049444C4500434852470054455354004D50
:10FFE200454E550025754300504200575D002E20B6
:0EFFF200003120002564004E00500052000037
:020000040001F9
:1000000090ECA5F0020E3BECC7F00009D8A40BEF72
:1000100080F00DEF80F018EF80F0030E3BECC7F09E
:100020000009D8B416EF80F018EF80F07BEF85F070
:1000300000018605D8A41FEF80F021EF80F035EF96
:1000400081F0020E3BECC7F00009D8B42AEF80F033
:100050002CEF80F030EF80F00001DC073DEF80F006
:10006000030E3BECC7F00009D8B439EF80F03BEF4A
:1000700080F03DEF80F00001DC2B0001DC51D8A4C2
:1000800044EF80F046EF80F04AEF80F0050EDC6F21
:1000900054EF80F0050EDC6550EF80F052EF80F0F9
:1000A00054EF80F0010EDC6FDC05D8A45AEF80F02D
:1000B0005CEF80F083EF80F0030E8BECABF0C5C0FB
:1000C00022F0C6C023F0010E246E46ECB7F0C5C086
:1000D000C0F0C6C0C1F0000E0001C26F88ECB9F0DC
:1000E000C5C022F0C6C023F0000E246EE2ECB7F0CB
:1000F000C5C0C0F0C6C0C1F0000E0001C26F03EC65
:10010000B9F077EF85F0020EDC19D8A48AEF80F001
:100110008CEF80F0A2EF80F0030E8BECABF0C5C04B
:1001200022F0C6C023F0000E246E46ECB7F0C5C026
:10013000C0F0C6C0C1F0010E0001C26F88ECB9F07A
:1001400070EF80F0030EDC19D8A4A9EF80F0ABEFBC
:1001500080F0D2EF80F0030E8BECABF0C5C022F044
:10016000C6C023F0000E246E46ECB7F0C5C0C0F048
:10017000C6C0C1F0000E0001C26F88ECB9F0C5C066
:1001800022F0C6C023F0010E246EE2ECB7F0C5C029
:10019000C0F0C6C0C1F0000E0001C26F03ECB9F0A0
:1001A00077EF85F0040EDC19D8A4D9EF80F0DBEFEF
:1001B00080F002EF81F0030E8BECABF0C5C022F0B3
:1001C000C6C023F0000E246E46ECB7F0C5C0C0F0E8
:1001D000C6C0C1F0000E0001C26F88ECB9F0C5C006
:1001E00022F0C6C023F0000E246EE2ECB7F0C5C0CA
:1001F000C0F0C6C0C1F0010E0001C26F03ECB9F03F
:1002000077EF85F0050EDC19D8A409EF81F00BEF2C
:1002100081F033EF81F0C5C022F0C6C023F0000E9C
:10022000246E46ECB7F0C5C0C0F0C6C0C1F0000EE9
:100230000001C26F88ECB9F0000185518BECABF086
:10024000C5C022F0C6C023F0000E246EE2ECB7F069
:10025000C5C0C0F0C6C0C1F0000E0001C26F03EC03
:10026000B9F077EF85F077EF85F0020E8619D8A404
:100270003CEF81F03EEF81F066EF82F0020E3BEC46
:10028000C7F00009D8B447EF81F049EF81F04DEF96
:1002900081F00001DC075AEF81F0030E3BECC7F060
:1002A0000009D8B456EF81F058EF81F05AEF81F091
:1002B0000001DC2B0001DC51D8A461EF81F063EF79
:1002C00081F067EF81F0050EDC6F71EF81F0050EB4
:1002D000DC656DEF81F06FEF81F071EF81F0010E61
:1002E000DC6FDC05D8A477EF81F079EF81F0A1EF26
:1002F00081F0C5C0C0F0C6C0C1F0010EC26F00ECF5
:10030000B6F0C5C0C0F0C6C0C1F0000E0001C26F9B
:10031000A3ECB6F0C5C0C0F0C6C0C1F0000E00012D
:10032000C26F15ECBBF0C5C0C0F0C6C0C1F0000E76
:100330000001C26F5DECB5F0030E51ECA3F077EF56
:1003400085F0020EDC19D8A4A8EF81F0AAEF81F0A5
:10035000D2EF81F0C5C0C0F0C6C0C1F0000EC26FC0
:1003600000ECB6F0C5C0C0F0C6C0C1F0010E00017F
:10037000C26FA3ECB6F0C5C0C0F0C6C0C1F0000E9D
:100380000001C26F15ECBBF0C5C0C0F0C6C0C1F023
:10039000000E0001C26F5DECB5F0030E51ECA3F04E
:1003A00077EF85F0030EDC19D8A4D9EF81F0DBEFED
:1003B00081F003EF82F0C5C0C0F0C6C0C1F0000EEE
:1003C000C26F00ECB6F0C5C0C0F0C6C0C1F0000EF0
:1003D0000001C26FA3ECB6F0C5C0C0F0C6C0C1F04A
:1003E000000E0001C26F15ECBBF0C5C0C0F0C6C066
:1003F000C1F0010E0001C26F5DECB5F0030E51ECCF
:10040000A3F077EF85F0040EDC19D8A40AEF82F090
:100410000CEF82F034EF82F0C5C0C0F0C6C0C1F06E
:10042000000EC26F00ECB6F0C5C0C0F0C6C0C1F08F
:10043000000E0001C26FA3ECB6F0C5C0C0F0C6C08C
:10044000C1F0010E0001C26F15ECBBF0C5C0C0F0D9
:10045000C6C0C1F0000E0001C26F5DECB5F0030E26
:1004600051ECA3F077EF85F0050EDC19D8A43BEF33
:1004700082F03DEF82F033EF81F0C5C0C0F0C6C01E
:10048000C1F0000EC26F00ECB6F0C5C0C0F0C6C02F
:10049000C1F0000E0001C26FA3ECB6F0C5C0C0F001
:1004A000C6C0C1F0000E0001C26F15ECBBF0C5C0A4
:1004B000C0F0C6C0C1F0000E0001C26F5DECB5F027
:1004C0000001855151ECA3F077EF85F0030E8619FA
:1004D000D8A46DEF82F06FEF82F017EF83F0020E79
:1004E0003BECC7F00009D8B478EF82F07AEF82F0E5
:1004F0007EEF82F00001DC078BEF82F0030E3BEC15
:10050000C7F00009D8B487EF82F089EF82F08BEF53
:1005100082F00001DC2B030E0001DC19D8A493EF5C
:1005200082F095EF82F099EF82F0050EDC6FA4EF78
:1005300082F0040EDC19D8A4A0EF82F0A2EF82F0C2
:10054000A4EF82F0020EDC6FDC51D8A4AAEF82F097
:10055000ACEF82F0B0EF82F0050EDC6FBAEF82F004
:10056000050EDC65B6EF82F0B8EF82F0BAEF82F0EC
:10057000010EDC6FDC05D8A4C0EF82F0C2EF82F080
:10058000D8EF82F0C5C0C0F0C6C0C1F0010EC26F86
:10059000BAECB4F0C5C0C0F0C6C0C1F0000E000196
:1005A000C26F7EECB8F0030E51ECA3F077EF85F04C
:1005B000020EDC19D8A4DFEF82F0E1EF82F0F7EF52
:1005C00082F0C5C0C0F0C6C0C1F0000EC26FBAEC68
:1005D000B4F0C5C0C0F0C6C0C1F0010E0001C26FCA
:1005E0007EECB8F0030E51ECA3F077EF85F0050E2A
:1005F000DC19D8A4FEEF82F000EF83F033EF81F036
:10060000C5C0C0F0C6C0C1F0000EC26FBAECB4F0F5
:10061000C5C0C0F0C6C0C1F0000E0001C26F7EECC4
:10062000B8F00001855151ECA3F077EF85F0040E8E
:100630008619D8A41EEF83F020EF83F048EF84F0F2
:10064000020E3BECC7F00009D8B429EF83F02BEF82
:1006500083F02FEF83F00001DC073CEF83F0030E03
:100660003BECC7F00009D8B438EF83F03AEF83F0E1
:100670003CEF83F00001DC2B0001DC51D8A443EFF8
:1006800083F045EF83F049EF83F0050EDC6F53EF05
:1006900083F0050EDC654FEF83F051EF83F053EFED
:1006A00083F0010EDC6FDC05D8A459EF83F05BEF1B
:1006B00083F083EF83F0C5C0C0F0C6C0C1F0010E67
:1006C000C26F91ECBAF0C5C0C0F0C6C0C1F0000E58
:1006D0000001C26F0DECBAF0C5C0C0F0C6C0C1F0D9
:1006E000000E0001C26F15ECB2F0C5C0C0F0C6C06C
:1006F000C1F0000E0001C26F11ECB4F0030E51EC1A
:10070000A3F077EF85F0020EDC19D8A48AEF83F00E
:100710008CEF83F0B4EF83F0C5C0C0F0C6C0C1F069
:10072000000EC26F91ECBAF0C5C0C0F0C6C0C1F0F7
:10073000010E0001C26F0DECBAF0C5C0C0F0C6C01A
:10074000C1F0000E0001C26F15ECB2F0C5C0C0F0E0
:10075000C6C0C1F0000E0001C26F11ECB4F0030E70
:1007600051ECA3F077EF85F0030EDC19D8A4BBEFB2
:1007700083F0BDEF83F0E5EF83F0C5C0C0F0C6C0E5
:10078000C1F0000EC26F91ECBAF0C5C0C0F0C6C097
:10079000C1F0000E0001C26F0DECBAF0C5C0C0F090
:1007A000C6C0C1F0010E0001C26F15ECB2F0C5C0A9
:1007B000C0F0C6C0C1F0000E0001C26F11ECB4F071
:1007C000030E51ECA3F077EF85F0040EDC19D8A4EA
:1007D000ECEF83F0EEEF83F016EF84F0C5C0C0F0CD
:1007E000C6C0C1F0000EC26F91ECBAF0C5C0C0F037
:1007F000C6C0C1F0000E0001C26F0DECBAF0C5C05A
:10080000C0F0C6C0C1F0000E0001C26F15ECB2F01E
:10081000C5C0C0F0C6C0C1F0010E0001C26F11EC2E
:10082000B4F0030E51ECA3F077EF85F0050EDC1960
:10083000D8A41DEF84F01FEF84F033EF81F0C5C022
:10084000C0F0C6C0C1F0000EC26F91ECBAF0C5C0D6
:10085000C0F0C6C0C1F0000E0001C26F0DECBAF0CE
:10086000C5C0C0F0C6C0C1F0000E0001C26F15ECDB
:10087000B2F0C5C0C0F0C6C0C1F0000E0001C26F2A
:1008800011ECB4F00001855151ECA3F077EF85F045
:10089000050E8619D8A44FEF84F051EF84F077EF5E
:1008A00085F0020E3BECC7F00009D8B45AEF84F093
:1008B0005CEF84F060EF84F00001DC076DEF84F002
:1008C000030E3BECC7F00009D8B469EF84F06BEF7E
:1008D00084F06DEF84F00001DC2B0001DC51D8A422
:1008E00074EF84F076EF84F07AEF84F0050EDC6F1D
:1008F00084EF84F0050EDC6580EF84F082EF84F0F5
:1009000084EF84F0010EDC6FDC05D8A48AEF84F05C
:100910008CEF84F0B4EF84F0C5C0C0F0C6C0C1F065
:10092000010EC26F6BECB1F0C5C0C0F0C6C0C1F023
:10093000000E0001C26F68ECB3F0C5C0C0F0C6C0C5
:10094000C1F0000E0001C26FC1ECB0F0C5C0C0F034
:10095000C6C0C1F0000E0001C26FBFECB2F0030EC2
:1009600067ECAAF077EF85F0020EDC19D8A4BBEF94
:1009700084F0BDEF84F0E5EF84F0C5C0C0F0C6C0E0
:10098000C1F0000EC26F6BECB1F0C5C0C0F0C6C0C4
:10099000C1F0010E0001C26F68ECB3F0C5C0C0F039
:1009A000C6C0C1F0000E0001C26FC1ECB0F0C5C0FE
:1009B000C0F0C6C0C1F0000E0001C26FBFECB2F0C3
:1009C000030E67ECAAF077EF85F0030EDC19D8A4CC
:1009D000ECEF84F0EEEF84F016EF85F0C5C0C0F0C8
:1009E000C6C0C1F0000EC26F6BECB1F0C5C0C0F064
:1009F000C6C0C1F0000E0001C26F68ECB3F0C5C004
:100A0000C0F0C6C0C1F0010E0001C26FC1ECB0F071
:100A1000C5C0C0F0C6C0C1F0000E0001C26FBFEC7F
:100A2000B2F0030E67ECAAF077EF85F0040EDC1944
:100A3000D8A41DEF85F01FEF85F047EF85F0C5C006
:100A4000C0F0C6C0C1F0000EC26F6BECB1F0C5C003
:100A5000C0F0C6C0C1F0000E0001C26F68ECB3F078
:100A6000C5C0C0F0C6C0C1F0000E0001C26FC1EC2D
:100A7000B0F0C5C0C0F0C6C0C1F0010E0001C26F29
:100A8000BFECB2F0030E67ECAAF077EF85F0050E2D
:100A9000DC19D8A44EEF85F050EF85F033EF81F0EC
:100AA000C5C0C0F0C6C0C1F0000EC26F6BECB1F0A3
:100AB000C5C0C0F0C6C0C1F0000E0001C26F68EC36
:100AC000B3F0C5C0C0F0C6C0C1F0000E0001C26FD7
:100AD000C1ECB0F0C5C0C0F0C6C0C1F0000E00014E
:100AE000C26FBFECB2F00001855167ECAAF0BDEC1B
:100AF000C4F0F2ECC5F0000E3BECC7F00009D8A43E
:100B000084EF85F086EF85F09AEF85F0010E3BECDF
:100B1000C7F00009D8A48FEF85F091EF85F09AEF28
:100B200085F000018451D8A498EF85F09AEF85F004
:100B3000D7EF98F0010E0001846F8651D8A4A3EF7F
:100B400085F0A5EF85F0CDEF85F0DD05D8A4ABEFFE
:100B500085F0ADEF85F0B8EF85F0DD5158ECAFF0E2
:100B6000000E0001DD6F010E0001856FD3EF98F0DC
:100B7000DD51D8A4BEEF85F0C0EF85F0D3EF98F03B
:100B8000DD5158ECAFF0010E0001DD6F000E0001E9
:100B9000856FD3EF98F0D3EF98F08605D8A4D3EF04
:100BA00085F0D5EF85F08BEF88F0050EDC19D8A421
:100BB000DCEF85F0DEEF85F002EF86F0020EDD1946
:100BC000D8A4E5EF85F0E7EF85F0F2EF85F0DD5191
:100BD0008BECABF0000E0001DD6F020E0001856FA3
:100BE000D3EF98F0DD51D8A4F8EF85F0FAEF85F057
:100BF000CBEF85F0DD518BECABF0020E0001DD6F29
:100C0000C6EF85F0DC05D8A408EF86F00AEF86F081
:100C1000CDEF86F018EF86F0010E826F37EF86F089
:100C2000020E826F37EF86F0030E826F37EF86F089
:100C300020EE0CF0C551D926C651DA22DF50C76F1D
:100C4000C86BC851000AD8B428EF86F037EF86F099
:100C5000C751000AD8B40CEF86F0010AD8B410EFDF
:100C600086F0030AD8B414EF86F037EF86F0010E51
:100C70003BECC7F00009D8B440EF86F042EF86F0B5
:100C800046EF86F00001822B53EF86F0000E3BEC1E
:100C9000C7F00009D8B44FEF86F051EF86F053EF5C
:100CA00086F00001820700018251D8A45AEF86F035
:100CB0005CEF86F060EF86F0030E826F8AEF86F0BD
:100CC000030E826566EF86F068EF86F08AEF86F0A5
:100CD000010E826F8AEF86F020EE0CF0C551D92606
:100CE000C651DA22000EDF6EA3EF86F020EE0CF084
:100CF000C551D926C651DA22010EDF6EA3EF86F068
:100D000020EE0CF0C551D926C651DA22020EDF6E54
:100D1000A3EF86F08251C76FC86BC851000AD8B4E0
:100D200094EF86F0A3EF86F0C751010AD8B46CEFB8
:100D300086F0030AD8B476EF86F0010AD8B480EFC3
:100D400086F0A3EF86F0C5C001F0C6C002F070ECDB
:100D50009BF0C5C022F0C6C023F0010E246E46EC05
:100D6000B7F0C5C0C0F0C6C0C1F0000E0001C26F30
:100D700088ECB9F0C5C022F0C6C023F0000E246E86
:100D8000E2ECB7F0C5C0C0F0C6C0C1F0000E000173
:100D9000C26F03ECB9F0D3EF98F0020EDC19D8A4BF
:100DA000D4EF86F0D6EF86F075EF87F0010E3BECBE
:100DB000C7F00009D8B4DFEF86F0E1EF86F0EBEF83
:100DC00086F0000120EE0FF0C551D926C651DA2277
:100DD000DF2AFEEF86F0000E3BECC7F00009D8B426
:100DE000F4EF86F0F6EF86F0FEEF86F0000120EEDD
:100DF0000FF0C551D926C651DA22DF06000120EED8
:100E00000CF0C551D926C651DA22DE04D8A40BEF66
:100E100087F00DEF87F03DEF87F020EE0FF0C55122
:100E2000D926C651DA22DF50D8A419EF87F01BEF7C
:100E300087F025EF87F020EE0FF0C551D926C65177
:100E4000DA22010EDF6E6BEF87F020EE0FF0C55156
:100E5000D926C651DA22010EDF6431EF87F033EF75
:100E600087F06BEF87F020EE0FF0C551D926C65101
:100E7000DA22010EDF6E6BEF87F020EE0FF0C55126
:100E8000D926C651DA22DF50D8A449EF87F04BEFBC
:100E900087F055EF87F020EE0FF0C551D926C651E7
:100EA000DA22050EDF6E6BEF87F020EE0FF0C551F2
:100EB000D926C651DA22050EDF6461EF87F063EFB1
:100EC00087F06BEF87F020EE0FF0C551D926C651A1
:100ED000DA22010EDF6EC5C0C0F0C6C0C1F0010E3F
:100EE000C26F88ECB9F0D3EF98F0030EDC19D8A4E8
:100EF0007CEF87F07EEF87F021EF88F08CEF87F0B2
:100F0000010E826FABEF87F0020E826FABEF87F0BE
:100F1000030E826FABEF87F020EE0EF0C551D9269D
:100F2000C651DA22DF50C76FC86BC851000AD8B467
:100F30009CEF87F0ABEF87F0C751000AD8B480EF81
:100F400087F0010AD8B484EF87F0030AD8B488EF99
:100F500087F0ABEF87F0010E3BECC7F00009D8B487
:100F6000B4EF87F0B6EF87F0BAEF87F00001822B7D
:100F7000C7EF87F0000E3BECC7F00009D8B4C3EF11
:100F800087F0C5EF87F0C7EF87F000018207000107
:100F90008251D8A4CEEF87F0D0EF87F0D4EF87F05E
:100FA000030E826FFEEF87F0030E8265DAEF87F0A3
:100FB000DCEF87F0FEEF87F0010E826FFEEF87F027
:100FC00020EE0EF0C551D926C651DA22000EDF6E92
:100FD00017EF88F020EE0EF0C551D926C651DA225F
:100FE000010EDF6E17EF88F020EE0EF0C551D92606
:100FF000C651DA22020EDF6E17EF88F08251C76FFA
:10100000C86BC851000AD8B408EF88F017EF88F011
:10101000C751010AD8B4E0EF87F0030AD8B4EAEF69
:1010200087F0010AD8B4F4EF87F017EF88F0C5C055
:1010300022F0C6C023F0010E246EE2ECB7F0D3EF2D
:1010400098F0040EDC19D8A428EF88F02AEF88F075
:10105000CBEF85F0010E3BECC7F00009D8B433EFBD
:1010600088F035EF88F03FEF88F0000120EE08F0BF
:10107000C551D926C651DA22DF2A52EF88F0000E78
:101080003BECC7F00009D8B448EF88F04AEF88F08D
:1010900052EF88F0000120EE08F0C551D926C65164
:1010A000DA22DF06000120EE08F0C551D926C6512C
:1010B000DA22DF50D8A45FEF88F061EF88F06BEFA1
:1010C00088F020EE08F0C551D926C651DA22040E68
:1010D000DF6E81EF88F020EE08F0C551D926C651A9
:1010E000DA22040EDF6477EF88F079EF88F081EF81
:1010F00088F020EE08F0C551D926C651DA22010E3B
:10110000DF6EC5C0C0F0C6C0C1F0010EC26F03ECF7
:10111000B9F0D3EF98F0020E8619D8A492EF88F0B8
:1011200094EF88F092EF8BF0050EDC19D8A49BEFBA
:1011300088F09DEF88F02EEF89F0000E3BECC7F0B1
:101140000009D8B4A6EF88F0A8EF88F0ACEF88F0DB
:1011500000018307B9EF88F0010E3BECC7F00009EE
:10116000D8B4B5EF88F0B7EF88F0B9EF88F0000198
:10117000832B00018351D8A4C0EF88F0C2EF88F020
:10118000C6EF88F0030E836FEDEF88F0040E83192D
:10119000D8A4CDEF88F0CFEF88F0D3EF88F0010E20
:1011A000836FEDEF88F0040E8365D9EF88F0DBEFF5
:1011B00088F0DFEF88F0020E836FEDEF88F0EDEF3F
:1011C00088F0010EDD6F06EF89F0000EDD6F06EF8F
:1011D00089F0020EDD6F06EF89F08351C76FC86B8F
:1011E000C851000AD8B4F7EF88F006EF89F0C7516C
:1011F000010AD8B4E1EF88F0030AD8B4E5EF88F02B
:10120000010AD8B4E9EF88F006EF89F0DD05D8A42B
:101210000CEF89F00EEF89F013EF89F0DD5151ECFE
:10122000A3F0B3EF85F0DD51D8A419EF89F01BEFDF
:1012300089F020EF89F0DD5151ECA3F0C6EF85F085
:10124000020EDD19D8A427EF89F029EF89F0CBEF42
:1012500085F0DD5151ECA3F0EDEF85F0DC05D8A46D
:1012600034EF89F036EF89F0C5EF89F0010E3BECE1
:10127000C7F00009D8B43FEF89F041EF89F05CEF87
:1012800089F0000120EE14F0C551D926C651DA22AA
:10129000DECFC7F0DDCFC8F0050EC727000EC8238C
:1012A00020EE14F0C551D926C651DA22C7C0DEFFA0
:1012B000C8C0DDFF82EF89F0000E3BECC7F00009EB
:1012C000D8B465EF89F067EF89F082EF89F000010B
:1012D00020EE14F0C551D926C651DA22DECFC7F070
:1012E000DDCFC8F0FB0EC725C96FFF0EC821CA6F3E
:1012F00020EE14F0C551D926C651DA22C9C0DEFF4E
:10130000CAC0DDFF000120EE14F0C551D926C65138
:10131000DA22990EDE5C010EDE58D8B092EF89F029
:1013200094EF89F0A0EF89F020EE14F0C551D92692
:10133000C651DA22AE0EDE6E010EDD6EBBEF89F015
:1013400020EE14F0C551D926C651DA22B00EDE5C6B
:10135000010EDE58D8A0AFEF89F0B1EF89F0BBEFF6
:1013600089F020EE14F0C551D926C651DA229A0E22
:10137000DE6E010EDD6EC5C0C0F0C6C0C1F0010E4C
:10138000C26F00ECB6F0D3EF98F0020EDC19D8A4CF
:10139000CCEF89F0CEEF89F05EEF8AF0010E3BECE6
:1013A000C7F00009D8B4D7EF89F0D9EF89F0F4EF8E
:1013B00089F0000120EE20F0C551D926C651DA226D
:1013C000DECFC7F0DDCFC8F0050EC727000EC8235B
:1013D00020EE20F0C551D926C651DA22C7C0DEFF63
:1013E000C8C0DDFF1AEF8AF0000E3BECC7F0000921
:1013F000D8B4FDEF89F0FFEF89F01AEF8AF0000111
:1014000020EE20F0C551D926C651DA22DECFC7F032
:10141000DDCFC8F0FB0EC725C96FFF0EC821CA6F0C
:1014200020EE20F0C551D926C651DA22C9C0DEFF10
:10143000CAC0DDFF000120EE20F0C551D926C651FB
:10144000DA22010EDB5007E1F90EDE5CD8B02BEF9B
:101450008AF02DEF8AF039EF8AF020EE20F0C551A6
:10146000D926C651DA22400EDE6E010EDD6E54EF33
:101470008AF020EE20F0C551D926C651DA22420E5C
:10148000DE5C010EDE58D8A048EF8AF04AEF8AF001
:1014900054EF8AF020EE20F0C551D926C651DA2249
:1014A000FA0EDE6E000EDD6EC5C0C0F0C6C0C1F023
:1014B000010EC26FA3ECB6F0D3EF98F0030EDC1967
:1014C000D8A465EF8AF067EF8AF0F8EF8AF0010E92
:1014D0003BECC7F00009D8B470EF8AF072EF8AF0E5
:1014E0008DEF8AF0000120EE1CF0C551D926C651BF
:1014F000DA22DECFC7F0DDCFC8F0050EC727000E19
:10150000C82320EE1CF0C551D926C651DA22C7C027
:10151000DEFFC8C0DDFFB3EF8AF0000E3BECC7F082
:101520000009D8B496EF8AF098EF8AF0B3EF8AF00A
:10153000000120EE1CF0C551D926C651DA22DECFBB
:10154000C7F0DDCFC8F0FB0EC725C96FFF0EC8215D
:10155000CA6F20EE1CF0C551D926C651DA22C9C087
:10156000DEFFCAC0DDFF000120EE1CF0C551D92608
:10157000C651DA22010EDB5007E1B30EDE5CD8B0B3
:10158000C4EF8AF0C6EF8AF0D2EF8AF020EE1CF0AA
:10159000C551D926C651DA22FA0EDE6E000EDD6E76
:1015A000EEEF8AF020EE1CF0C551D926C651DA22A2
:1015B000010EDB5009E1FC0EDE5CD8A0E2EF8AF000
:1015C000E4EF8AF0EEEF8AF020EE1CF0C551D92648
:1015D000C651DA22B40EDE6E000EDD6EC5C0C0F05C
:1015E000C6C0C1F0010EC26F5DECB5F0D3EF98F04C
:1015F000040EDC19D8A4FFEF8AF001EF8BF0CBEFDB
:1016000085F0010E3BECC7F00009D8B40AEF8BF06F
:101610000CEF8BF027EF8BF0000120EE1EF0C55190
:10162000D926C651DA22DECFC7F0DDCFC8F0050ECD
:10163000C727000EC82320EE1EF0C551D926C6517B
:10164000DA22C7C0DEFFC8C0DDFF4DEF8BF0000E11
:101650003BECC7F00009D8B430EF8BF032EF8BF0E1
:101660004DEF8BF0000120EE1EF0C551D926C6517A
:10167000DA22DECFC7F0DDCFC8F0FB0EC725C96F79
:10168000FF0EC821CA6F20EE1EF0C551D926C651E3
:10169000DA22C9C0DEFFCAC0DDFF000120EE1EF065
:1016A000C551D926C651DA22010EDB5007E1040EDE
:1016B000DE5CD8B05EEF8BF060EF8BF06CEF8BF000
:1016C00020EE1EF0C551D926C651DA22320EDE6E4A
:1016D000000EDD6E88EF8BF020EE1EF0C551D9268E
:1016E000C651DA22010EDB5009E1340EDE5CD8A0CF
:1016F0007CEF8BF07EEF8BF088EF8BF020EE1EF00E
:10170000C551D926C651DA22050EDE6E000EDD6EF9
:10171000C5C0C0F0C6C0C1F0010EC26F15ECBBF071
:10172000D3EF98F0030E8619D8A499EF8BF09BEFB6
:101730008BF047EF8DF0050EDC19D8A4A2EF8BF0EB
:10174000A4EF8BF035EF8CF0000E3BECC7F00009F6
:10175000D8B4ADEF8BF0AFEF8BF0B3EF8BF00001AF
:101760008307C0EF8BF0010E3BECC7F00009D8B443
:10177000BCEF8BF0BEEF8BF0C0EF8BF00001832B42
:1017800000018351D8A4C7EF8BF0C9EF8BF0CDEFE8
:101790008BF0030E836FF4EF8BF0040E8319D8A443
:1017A000D4EF8BF0D6EF8BF0DAEF8BF0010E836F76
:1017B000F4EF8BF0040E8365E0EF8BF0E2EF8BF03B
:1017C000E6EF8BF0020E836FF4EF8BF0F4EF8BF00B
:1017D000010EDD6F0DEF8CF0000EDD6F0DEF8CF064
:1017E000020EDD6F0DEF8CF08351C76FC86BC851CF
:1017F000000AD8B4FEEF8BF00DEF8CF0C751010A50
:10180000D8B4E8EF8BF0030AD8B4ECEF8BF0010A00
:10181000D8B4F0EF8BF00DEF8CF0DD05D8A413EF0A
:101820008CF015EF8CF01AEF8CF0DD5151ECA3F039
:10183000B3EF85F0DD51D8A420EF8CF022EF8CF0CF
:1018400027EF8CF0DD5151ECA3F0C6EF85F0020ECE
:10185000DD19D8A42EEF8CF030EF8CF0CBEF85F0B3
:10186000DD5151ECA3F0EDEF85F0DC05D8A43BEFA2
:101870008CF03DEF8CF0CDEF8CF0010E3BECC7F01F
:101880000009D8B446EF8CF048EF8CF063EF8CF091
:10189000000120EE40F0C551D926C651DA22DECF34
:1018A000C7F0DDCFC8F01E0EC727000EC82320EEFC
:1018B00040F0C551D926C651DA22C7C0DEFFC8C0E4
:1018C000DDFF89EF8CF0000E3BECC7F00009D8B4C7
:1018D0006CEF8CF06EEF8CF089EF8CF0000120EE55
:1018E00040F0C551D926C651DA22DECFC7F0DDCF90
:1018F000C8F0E20EC725C96FFF0EC821CA6F20EEDF
:1019000040F0C551D926C651DA22C9C0DEFFCAC08F
:10191000DDFF000120EE40F0C551D926C651DA2284
:10192000010EDB5007E13C0EDE5CD8B09AEF8CF084
:101930009CEF8CF0A8EF8CF020EE40F0C551D9263A
:10194000C651DA22400EDE6E0B0EDD6EC3EF8CF058
:1019500020EE40F0C551D926C651DA22410EDE5C98
:101960000B0EDE58D8A0B7EF8CF0B9EF8CF0C3EFB8
:101970008CF020EE40F0C551D926C651DA223C0E3B
:10198000DE6E000EDD6EC5C0C0F0C6C0C1F0010E37
:10199000C26FBAECB4F0D3EF98F0020EDC19D8A401
:1019A000D4EF8CF0D6EF8CF0CBEF85F0010E3BEC52
:1019B000C7F00009D8B4DFEF8CF0E1EF8CF0F3EF63
:1019C0008CF0000120EE0BF0C551D926C651DA2269
:1019D00010EE0BF0C551E126C651E222E750050F8B
:1019E000DF6E0EEF8DF0000E3BECC7F00009D8B4AF
:1019F000FCEF8CF0FEEF8CF00EEF8DF0000120EE8E
:101A00000BF0C551D926C651DA2210EE0BF0C551A4
:101A1000E126C651E222E750FB0FDF6E000120EE07
:101A20000BF0C551D926C651DA22040EDF601BEF38
:101A30008DF01DEF8DF027EF8DF020EE0BF0C551EE
:101A4000D926C651DA222D0EDF6E3DEF8DF020EE45
:101A50000BF0C551D926C651DA222E0EDF6433EFC2
:101A60008DF035EF8DF03DEF8DF020EE0BF0C55190
:101A7000D926C651DA22050EDF6EC5C0C0F0C6C039
:101A8000C1F0010EC26F7EECB8F0D3EF98F0040EF7
:101A90008619D8A44EEF8DF050EF8DF0A6EF92F09E
:101AA000050EDC19D8A457EF8DF059EF8DF0F3EF48
:101AB0008DF0000E3BECC7F00009D8B462EF8DF05A
:101AC00064EF8DF068EF8DF00001830775EF8DF006
:101AD000010E3BECC7F00009D8B471EF8DF073EF45
:101AE0008DF075EF8DF00001832B00018351D8A498
:101AF0007CEF8DF07EEF8DF082EF8DF0030E836F23
:101B0000A9EF8DF0040E8319D8A489EF8DF08BEF27
:101B10008DF08FEF8DF0010E836FA9EF8DF0040E25
:101B2000836595EF8DF097EF8DF09BEF8DF0020EB2
:101B3000836FA9EF8DF0A9EF8DF0010EDD6FC2EF7D
:101B40008DF0000EDD6FC2EF8DF0020EDD6FC2EF83
:101B50008DF08351C76FC86BC851000AD8B4B3EF7A
:101B60008DF0C2EF8DF0C751010AD8B49DEF8DF012
:101B7000030AD8B4A1EF8DF0010AD8B4A5EF8DF017
:101B8000C2EF8DF0DD05D8A4C8EF8DF0CAEF8DF05F
:101B9000D2EF8DF0DD5151ECA3F0010E0001856F05
:101BA000F3EF8DF0DD51D8A4D8EF8DF0DAEF8DF0A2
:101BB000E2EF8DF0DD5151ECA3F0000E0001856FD6
:101BC000F3EF8DF0020EDD19D8A4E9EF8DF0EBEF05
:101BD0008DF0F3EF8DF0DD5151ECA3F0020E00011A
:101BE000856FF3EF8DF0DC05D8A4F9EF8DF0FBEFF6
:101BF0008DF0CCEF8EF020EE2AF0C551D926C651DB
:101C0000DA22E80EDE5C030EDE58D8A00AEF8EF072
:101C10000CEF8EF012EF8EF0000ECC6F640ECB6FD7
:101C200040EF8EF020EE2AF0C551D926C651DA22B7
:101C3000010EDB5009E1640EDE5CD8A022EF8EF0CD
:101C400024EF8EF02AEF8EF0000ECC6F320ECB6FA9
:101C500040EF8EF020EE2AF0C551D926C651DA2287
:101C6000010EDB5007E1640EDE5CD8B03AEF8EF077
:101C70003CEF8EF040EF8EF0000ECC6F0A0ECB6F73
:101C8000010E3BECC7F00009D8B449EF8EF04BEFE2
:101C90008EF066EF8EF0000120EE2AF0C551D926B5
:101CA000C651DA22DECFC7F0DDCFC8F0CB51C7274F
:101CB000CC51C82320EE2AF0C551D926C651DA22CC
:101CC000C7C0DEFFC8C0DDFF8AEF8EF0000E3BEC20
:101CD000C7F00009D8B46FEF8EF071EF8EF08AEF85
:101CE0008EF0000120EE2AF0C551D926C651DA2225
:101CF000DECFC7F0DDCFC8F0CB51C75FCC51C85B9A
:101D000020EE2AF0C551D926C651DA22C7C0DEFF1F
:101D1000C8C0DDFF000120EE2AF0C551D926C6510A
:101D2000DA22010EDB5007E10A0EDE5CD8B09BEF31
:101D30008EF09DEF8EF0A9EF8EF020EE2AF0C551C7
:101D4000D926C651DA22B80EDE6E0B0EDD6EC4EF58
:101D50008EF020EE2AF0C551D926C651DA22B90EEE
:101D6000DE5C0B0EDE58D8A0B8EF8EF0BAEF8EF026
:101D7000C4EF8EF020EE2AF0C551D926C651DA22E2
:101D80000A0EDE6E000EDD6EC5C0C0F0C6C0C1F02A
:101D9000010EC26F91ECBAF0020E0001DC19D8A45A
:101DA000D4EF8EF0D6EF8EF0A7EF8FF020EE2CF070
:101DB000C551D926C651DA22E80EDE5C030EDE5884
:101DC000D8A0E5EF8EF0E7EF8EF0EDEF8EF0000E8D
:101DD000CC6F640ECB6F1BEF8FF020EE2CF0C55153
:101DE000D926C651DA22010EDB5009E1640EDE5C11
:101DF000D8A0FDEF8EF0FFEF8EF005EF8FF0000E14
:101E0000CC6F320ECB6F1BEF8FF020EE2CF0C55154
:101E1000D926C651DA22010EDB5007E1640EDE5CE2
:101E2000D8B015EF8FF017EF8FF01BEF8FF0000E8B
:101E3000CC6F0A0ECB6F010E3BECC7F00009D8B493
:101E400024EF8FF026EF8FF041EF8FF0000120EEAE
:101E50002CF0C551D926C651DA22DECFC7F0DDCF2E
:101E6000C8F0CB51C727CC51C82320EE2CF0C55168
:101E7000D926C651DA22C7C0DEFFC8C0DDFF65EF34
:101E80008FF0000E3BECC7F00009D8B44AEF8FF09A
:101E90004CEF8FF065EF8FF0000120EE2CF0C55174
:101EA000D926C651DA22DECFC7F0DDCFC8F0CB513C
:101EB000C75FCC51C85B20EE2CF0C551D926C65166
:101EC000DA22C7C0DEFFC8C0DDFF000120EE2CF023
:101ED000C551D926C651DA22010EDB5007E10A0EA0
:101EE000DE5CD8B076EF8FF078EF8FF084EF8FF074
:101EF00020EE2CF0C551D926C651DA22B80EDE6E7E
:101F00000B0EDD6E9FEF8FF020EE2CF0C551D92621
:101F1000C651DA22B90EDE5C0B0EDE58D8A093EF64
:101F20008FF095EF8FF09FEF8FF020EE2CF0C551E2
:101F3000D926C651DA220A0EDE6E000EDD6EC5C04D
:101F4000C0F0C6C0C1F0010EC26F0DECBAF0030EB6
:101F50000001DC19D8A4AFEF8FF0B1EF8FF014EFD0
:101F600091F020EE13F0C551D926C651DA22DFA038
:101F7000BCEF8FF0BEEF8FF077EF90F020EE2EF0F9
:101F8000C551D926C651DA22E80EDE5C030EDE58B2
:101F9000D8A0CDEF8FF0CFEF8FF0D5EF8FF0000E00
:101FA000CC6F640ECB6FF1EF8FF020EE2EF0C551A9
:101FB000D926C651DA22010EDB5009E1640EDE5C3F
:101FC000D8A0E5EF8FF0E7EF8FF0EDEF8FF0000E88
:101FD000CC6F320ECB6FF1EF8FF0000ECC6F0A0E8C
:101FE000CB6F010E3BECC7F00009D8B4FAEF8FF0CD
:101FF000FCEF8FF017EF90F0000120EE2EF0C551AE
:10200000D926C651DA22DECFC7F0DDCFC8F0CB51DA
:10201000C727CC51C82320EE2EF0C551D926C65172
:10202000DA22C7C0DEFFC8C0DDFF3BEF90F0000E34
:102030003BECC7F00009D8B420EF90F022EF90F00D
:102040003BEF90F0000120EE2EF0C551D926C6518D
:10205000DA22DECFC7F0DDCFC8F0CB51C75FCC515D
:10206000C85B20EE2EF0C551D926C651DA22C7C072
:10207000DEFFC8C0DDFF000120EE2EF0C551D926DD
:10208000C651DA22010EDB5007E10A0EDE5CD8B041
:102090004CEF90F04EEF90F05AEF90F020EE2EF0D3
:1020A000C551D926C651DA22B80EDE6E0B0EDD6E92
:1020B0000CEF91F020EE2EF0C551D926C651DA2250
:1020C000B90EDE5C0B0EDE58D8A069EF90F06BEF16
:1020D00090F00CEF91F020EE2EF0C551D926C651AC
:1020E000DA220A0EDE6E000EDD6E0CEF91F020EEAD
:1020F00010F0C551D926C651DA22310EDF6483EFC4
:1021000090F085EF90F08BEF90F0000ECC6F0A0E00
:10211000CB6FA3EF90F020EE10F0C551D926C65139
:10212000DA22090EDF6497EF90F099EF90F09FEFBD
:1021300090F0000ECC6F050ECB6FA3EF90F0000E69
:10214000CC6F010ECB6F010E3BECC7F00009D8B489
:10215000ACEF90F0AEEF90F0C0EF90F0000120EE09
:1021600010F0C551D926C651DA2210EE10F0C55133
:10217000E126C651E222E750CB25DF6EDDEF90F07D
:10218000000E3BECC7F00009D8B4C9EF90F0CBEFDC
:1021900090F0DDEF90F0000120EE10F0C551D9264F
:1021A000C651DA2210EE10F0C551E126C651E222E6
:1021B000E750C76FCB51C75DDF6E000120EE10F016
:1021C000C551D926C651DA22DF50D8A4EAEF90F0E3
:1021D000ECEF90F0F6EF90F020EE10F0C551D9261C
:1021E000C651DA22640EDF6E0CEF91F020EE10F093
:1021F000C551D926C651DA22640EDF6402EF91F090
:1022000004EF91F00CEF91F020EE10F0C551D926BB
:10221000C651DA22010EDF6EC5C0C0F0C6C0C1F0E3
:10222000010EC26F15ECB2F0040E0001DC19D8A447
:102230001CEF91F01EEF91F0D3EF98F020EE13F029
:10224000C551D926C651DA22DFA229EF91F02BEF32
:1022500091F0E4EF91F020EE30F0C551D926C6514F
:10226000DA22E80EDE5C030EDE58D8A03AEF91F0D9
:102270003CEF91F042EF91F0000ECC6F640ECB6F0B
:102280005EEF91F020EE30F0C551D926C651DA222A
:10229000010EDB5009E1640EDE5CD8A052EF91F034
:1022A00054EF91F05AEF91F0000ECC6F320ECB6FDD
:1022B0005EEF91F0000ECC6F0A0ECB6F010E3BEC7F
:1022C000C7F00009D8B467EF91F069EF91F084EF9F
:1022D00091F0000120EE30F0C551D926C651DA2226
:1022E000DECFC7F0DDCFC8F0CB51C727CC51C82314
:1022F00020EE30F0C551D926C651DA22C7C0DEFF24
:10230000C8C0DDFFA8EF91F0000E3BECC7F000095C
:10231000D8B48DEF91F08FEF91F0A8EF91F000011C
:1023200020EE30F0C551D926C651DA22DECFC7F0F3
:10233000DDCFC8F0CB51C75FCC51C85B20EE30F089
:10234000C551D926C651DA22C7C0DEFFC8C0DDFF9D
:10235000000120EE30F0C551D926C651DA22010E17
:10236000DB5007E10A0EDE5CD8B0B9EF91F0BBEFAD
:1023700091F0C7EF91F020EE30F0C551D926C6514B
:10238000DA22B80EDE6E0B0EDD6E9CEF92F020EEC0
:1023900030F0C551D926C651DA22B90EDE5C0B0EDB
:1023A000DE58D8A0D6EF91F0D8EF91F09CEF92F0E4
:1023B00020EE30F0C551D926C651DA220A0EDE6E63
:1023C000000EDD6E9CEF92F020EE3EF0C551D92656
