:040000001FEF8AF074
:10CB6600004375723A313035302F313130306D41F6
:10CB760000566F6C3A332C33352F342C3232560034
:10CB86004361703A313534306D41680054696D65E2
:10CB96003A316833356D004361703A3534306D4152
:10CBA60068004379636C653A322F34004379636CCD
:10CBB600653A322F34004375723A3233306D410094
:10CBC600566F6C3A332C3335560054656D703A33D4
:10CBD6003543000E000000000000000000000000C9
:10CBE600000000000000000000000000000000003F
:10CBF600000000000000000000000000000000002F
:10CC0600000000000000000000000000000000001E
:10CC1600000000000000000000000000000000000E
:10CC260000000000000000000000000000000000FE
:10CC360000000000000000000000000000000000EE
:10CC4600050000000000000000FC7F0E00FC7F0FC6
:10CC560000FC7F070000000000000000000000004C
:10CC660000000000000000000000000000000000BE
:10CC760000000000000000000000000000000000AE
:10CC8600000000000000000000000000000000009E
:10CC9600000000000000000000000000000000008E
:10CCA6000000000000000000000000000009000075
:10CCB600000000000000FC010000FC010000000074
:10CCC60000000000000000000000FC010000FC0164
:10CCD600000000000000000000000000000000004E
:10CCE600000000000000000000000000000000003E
:10CCF600000000000000000000000000000000002E
:10CD0600000000000000000000000000000000001D
:10CD160000000000000000000000110000000000FC
:10CD26006000008061000080610C0080E10F0080DF
:10CD3600FD0F00807F0000F86F0000FC610C008C86
:10CD4600E10F0080FD0F00807F0000F86F0000FCFF
:10CD56006100008C6100008021000080010000005D
:10CD660000000000000000000000000000000000BD
:10CD760000000000000000000000000000000000AD
:10CD86000000000000000011000000000083010008
:10CD9600C0C70300E08F0300700C0700300C0600CC
:10CDA600180C060018040600FFFF7F00FEFF3F0078
:10CDB6001806060018060300180603003886030046
:10CDC60070FE010070FC000000780000000000000A
:10CDD600000000000000000000000000000000004D
:10CDE600000000000000000000000000000000003D
:10CDF600000000001500000000E0000000F0010047
:10CE060000F80300001C0304000C030E008C830FC3
:10CE160000FCC10300F8F00000707C0000001E005A
:10CE26000080070300E0830700F0C00F003CC00C41
:10CE3600001C600C0008600C000060060000E007A3
:10CE46000000C00300008001000000000000000098
:10CE560000000000000000000000000000000000CC
:10CE660000160000000000E0030000F0070000F8D4
:10CE76000700701C0E00F80E0C00F80F0C00DC0703
:10CE86000C008C070C000C0F0C000C1F06008C1FEE
:10CE96000600CC390700F8710300F8F0030070E0D3
:10CEA600010000E0010000F80300003C0700001844
:10CEB6000E0000000E000000070000000000000049
:10CEC6000000000000000000000000000000040058
:10CED60000000000000000FC010000FC0100000052
:10CEE600000000000000000000000000000000003C
:10CEF600000000000000000000000000000000002C
:10CF0600000000000000000000000000000000001B
:10CF1600000000000000000000000000000000000B
:10CF260000000000000000000000000000000000FB
:10CF360000000000000000000000000B00000000E0
:10CF46000000000000FC030000FF1F00C0FF3F00C0
:10CF5600E003FC00F000E0013800C0013C00800363
:10CF66001C00800308000000000000000000000014
:10CF760000000000000000000000000000000000AB
:10CF8600000000000000000000000000000000009B
:10CF9600000000000000000000000000000000008B
:10CFA60000000000000000000A0000000008000069
:10CFB600001C0080033C0080033800C001F000F034
:10CFC60001E003FC00C0FF3F0000FF1F0000FC0360
:10CFD600000000000000000000000000000000004B
:10CFE600000000000000000000000000000000003B
:10CFF600000000000000000000000000000000002B
:10D00600000000000000000000000000000000001A
:10D0160000000000000A00000000C0000000C00080
:10D0260000004C020000D8030000F0010000FC00E4
:10D036000000AC01000030030000300000000000DA
:10D0460000000000000000000000000000000000DA
:10D0560000000000000000000000000000000000CA
:10D0660000000000000000000000000000000000BA
:10D0760000000000000000000000000000000000AA
:10D0860000000E00000000004000000060000000EC
:10D09600600000006000000060000000FF0F00005C
:10D0A600FF0F0000FF0F000060000000600000009E
:10D0B600600000006000000060000000000000004A
:10D0C600000000000000000000000000000000005A
:10D0D600000000000000000000000000000000004A
:10D0E6000000000000000000000000000000000535
:10D0F600000000000000660000006F0000003F0016
:10D1060000001E00000000000000000000000000FB
:10D116000000000000000000000000000000000009
:10D1260000000000000000000000000000000000F9
:10D1360000000000000000000000000000000000E9
:10D1460000000000000000000000000000000000D9
:10D156000000000000000000000000000A000000BF
:10D1660000003000000070000000300000003000B9
:10D1760000003000000030000000300000003000E9
:10D186000000300000000000000000000000000069
:10D196000000000000000000000000000000000089
:10D1A6000000000000000000000000000000000079
:10D1B6000000000000000000000000000000000069
:10D1C6000000000000000000000500000000000054
:10D1D600000000000E0000000F0000000700000025
:10D1E6000000000000000000000000000000000039
:10D1F6000000000000000000000000000000000029
:10D206000000000000000000000000000000000018
:10D216000000000000000000000000000000000008
:10D2260000000000000000000000000000000000F8
:10D236000000000000000B000000000000040000D9
:10D24600000F0000C00F0000F80100007E00008003
:10D256001F0000E0070000FC0100007C0000001C2D
:10D2660000000000000000000000000000000000B8
:10D2760000000000000000000000000000000000A8
:10D286000000000000000000000000000000000098
:10D296000000000000000000000000000000000088
:10D2A600000000160000000000F8010000FF030067
:10D2B60080FF0700C0030700E0010E0070000C00AD
:10D2C60030000C0038000C0018000C0008000C00A0
:10D2D6000C000C000C0006000C0006000C000700F9
:10D2E6000C0003001C80030018C0010038F0000089
:10D2F600F07F0000E03F0000C00F000000000000CB
:10D306000000000000000000000000000000000017
:10D3160010000000000000000000000000000000F7
:10D32600000001000080030000C0030000C00100EF
:10D3360000E0000000E00000007000000070000047
:10D346000038000000F8FF0F00FCFF0F00FCFF0F85
:10D3560000000000000000000000000000000000C7
:10D3660000000000000000000000000000000000B7
:10D376000000000000000000000000000014000093
:10D3860000000000000000000000E0000E00E000C9
:10D396000F00F0C00F0038E00D0018E00C00187008
:10D3A6000C000C300C000C380C000C380C000C1C5B
:10D3B6000C000C1C0C000C0C0C000C0E0C00180FB6
:10D3C6000C00F8070E00F8030F00E0010E00000045
:10D3D6000000000000000000000000000000000047
:10D3E6000000000000000000000015000000000022
:10D3F60000000000C003007CC007007CC007007C62
:10D40600000E000C000C000C000C000C0E0C000CA6
:10D41600060C000C070C000C070C008C030C00CC4F
:10D42600030600EC0306007C0306003C0303001C15
:10D43600C703000CFE010000FE0000007C00000097
:10D4460000000000000000000000000000000000D6
:10D45600000000000000001600C0000000E0000010
:10D4660000F0000000F8000000F8000000FC0000DA
:10D4760000EE00000067000080630000C06100004D
:10D48600E06000007060000038700000FCFF0F00D4
:10D49600FCFF0F00FCFF0F00003000000030000012
:10D4A600003000000038000000380000003800009E
:10D4B6000000000000000000000000000000000066
:10D4C6000000000015000000000000000000080336
:10D4D60000F81F0700F81F0700F80D0E00080E0CD5
:10D4E6000008060C0008060C0008020C0008030CD5
:10D4F6000008030C0008030C00080306000C0306D2
:10D50600000C0307000C0703000CC603000CFE0109
:10D516000000FC0000007800000000000000000091
:10D5260000000000000000000000000000000000F5
:10D536000016000000000078000000FE030080FFD7
:10D546000300C0C70700E0E1070060700E007030FE
:10D556000C0038380C00181C0C00180C0C000C0CB5
:10D566000C000C060C000C060E000C0606000C0641
:10D5760006000C0607000C060300388E030078FC34
:10D58600010030FC000000780000000000000000F0
:10D59600000000000000000000000000000016006F
:10D5A6000000000000000000000000F8010000FC80
:10D5B600010000FC0000000C0000000C0000000C44
:10D5C6000000000C000E000C800F000CE007000CA1
:10D5D600F001000CFC00000C3E00008C1F0000EC6B
:10D5E600070000FC030000FC0000003C0000000CEB
:10D5F6000000000400000000000000000000000021
:10D6060000000000000000000000001600000000FE
:10D6160000C0010000E0030000F00700C07906002A
:10D62600F03B0E00F81F0C00380E0C00180C0C0016
:10D636001C0C0C000C060C000C060C000C0606005C
:10D646000C0606000C0606001C070300F80703007C
:10D65600F886030070CE010000FC000000FC00000C
:10D66600003800000000000000000000000000007C
:10D67600000000000000000016000000000000018D
:10D686000080830300E0870700F00F0700700C0E90
:10D6960000381C0C0018180C001C180C000C180C78
:10D6A600000C180C000C180C000C1804000C0C06CE
:10D6B600000C0C06001C0C07001886030038C70374
:10D6C60000F0E30100F0FF0000E07F0000001F0013
:10D6D6000000000000000000000000000000000044
:10D6E6000000000000050000000000000000000C23
:10D6F6000E00001E0F00000C0700000000000000D6
:10D706000000000000000000000000000000000013
:10D716000000000000000000000000000000000003
:10D7260000000000000000000000000000000000F3
:10D7360000000000000000000000000000000000E3
:10D7460000000000000000000000000000000000D3
:10D756000000050000000000006600000C6F0000DD
:10D766001E3F00000E1E000000000000000000002A
:10D7760000000000000000000000000000000000A3
:10D786000000000000000000000000000000000093
:10D796000000000000000000000000000000000083
:10D7A6000000000000000000000000000000000073
:10D7B6000000000000000000000000000000000D56
:10D7C6000000000000000000006000000070000083
:10D7D60000F0000000F8010000D80100009C0300E2
:10D7E600000C0300000E070000070E0000070E00E5
:10D7F600000202000000000000000000000000001F
:10D806000000000000000000000000000000000012
:10D816000000000000000000000000000000000002
:10D826000000000000000000000000000D000000E5
:10D8360000008C0100008C0100008C0100008C01AE
:10D8460000008C0100008C0100008C0100008C019E
:10D8560000008C0100008C0100008C0100008C018E
:10D8660000000000000000000000000000000000B2
:10D8760000000000000000000000000000000000A2
:10D886000000000000000000000000000000000092
:10D896000000000000000000000D00000000000075
:10D8A60000000002020000070E0000070E00000E36
:10D8B6000700000C0300009C030000D8010000F8DC
:10D8C600010000F000000070000000600000000091
:10D8D6000000000000000000000000000000000042
:10D8E6000000000000000000000000000000000032
:10D8F6000000000000000000000000000000000022
:10D906000000000000001000000000200000007071
:10D91600000000F00000007870000018F800001801
:10D92600FC1C000CDC1E000CCE0E000CC700000C0C
:10D93600F700008C730000DC210000F8010000F8FD
:10D946000000007000000000000000000000000061
:10D9560000000000000000000000000000000000C1
:10D9660000000000000000000000000000000000B1
:10D976000000001B000000000080070000E01F0000
:10D9860000783800001C3000000E700000066700AA
:10D9960000C3670080E36F0080716C0080396C0003
:10D9A600C0186C00C00C6600C00C36006004330062
:10D9B60060863B006086110060C6070060FE0F00AF
:10D9C60060FE0F00600E0C0060000C00C000060038
:10D9D600C00106008083030000FF0100007C0000F8
:10D9E6001500000E0000800F0000C00F0000F001BF
:10D9F6000000780000003E0000001F0000801F00AD
:10DA060000E01B0000F81800007C1800007C1800DD
:10DA160000F8180000E01B0000801F0000001F0037
:10DA260000007C000000F8010000E00F0000800FFD
:10DA36000000000E000000000000000000000000D2
:10DA460000000000000000000000000000150000BB
:10DA5600000000000000F8FF0F00FCFF0F00F8FFB9
:10DA66000F0018060C0018060C0018070C000C070F
:10DA760004000C0306000C0306008C0306008C034E
:10DA86000700CC030300CC030300FC83030078C328
:10DA9600010038E7010000FE0000007E0000001CC7
:10DAA6000000000000000000000000000000000070
:10DAB600000000000000000000001200000000004E
:10DAC6007C000000FF0100C0FF0700E0830700F0B4
:10DAD600000E0030000E0038000C0018000C000C80
:10DAE600000C000C000C000C000C000C0006000CD6
:10DAF6000007000C00070018C0030038C0010038FA
:10DB0600C00100000000000000000000000000004E
:10DB160000000000000000000000000000000000FF
:10DB260000000000000000150000000000000000DA
:10DB3600FCFF0F00FCFF0F00FCFF0F0038000C007D
:10DB460018000C0018000C001C0006000C00060053
:10DB56000C0006000C0007000C0003000C800300FC
:10DB66000C8003001CC0010018E0010078F80000DA
:10DB7600F07F0000E01F0000C0070000000000006A
:10DB8600000000000000000000000000000000008F
:10DB960000000000130000000010000000FCFF0F52
:10DBA60000FCFF0F00FCFF0F00180C0600180C0607
:10DBB60000180C0600180C0600180C0600180C06B7
:10DBC60000180C0600180C0600180E06001C0E069F
:10DBD600001C0406001C00070000000700000002ED
:10DBE600000000000000000000000000000000002F
:10DBF600000000000000000000000000000000001F
:10DC060000110000000000000000F8FF0F00FCFFFC
:10DC16000F00FCFF0F00381C0000381C0000380CF9
:10DC26000000180C0000180C0000180C0000180C5E
:10DC36000000180E00001C0E00001C0E00001C0E3A
:10DC460000001C00000000000000000000000000B2
:10DC560000000000000000000000000000000000BE
:10DC66000000000000000000000000000000170097
:10DC760000000000F8000000FE010080FF0300C065
:10DC8600870700E0010600E0000E0070000C00307F
:10DC9600000C0038000C0018000C0018000C000CDA
:10DCA600100C000C1806000C1806000C1806000CC8
:10DCB6001803000C9803001CCC010018EC01003876
:10DCC600FC0000107C0000001C00000000000000AA
:10DCD600000000000000000000000014000000002A
:10DCE600000C0000FCFF0F00FCFF0F00FCFF0F0004
:10DCF600000E0000000E0000000E0000000E0000E6
:10DD0600000E0000000E0000000E000000060000DD
:10DD160000060000000600000006000000060000E5
:10DD2600FCFF0F00FCFF0F00FCFF0F0000000000CF
:10DD360000000000000000000000000000000000DD
:10DD460000000000000000000500000000000000C8
:10DD560000FCFF0F00FCFF0F00FCFF0F000000009F
:10DD660000000000000000000000000000000000AD
:10DD7600000000000000000000000000000000009D
:10DD8600000000000000000000000000000000008D
:10DD9600000000000000000000000000000000007D
:10DDA600000000000000000000000000000000006D
:10DDB600000000000010000000000080030000C00A
:10DDC600070000C00F0000001C0000001800000043
:10DDD60018000000180000001800000018000000DD
:10DDE6001C0000000E0000000F00FCFF0700FCFFF7
:10DDF6000300FCFF0100000000000000000000001E
:10DE0600000000000000000000000000000000000C
:10DE160000000000000000000000000000000000FC
:10DE26000000130000000000000000FCFF0F00FCD3
:10DE3600FF0F00FCFF0F00800F0000800F0000C0E6
:10DE46001D0000E0380000E078000070700000302F
:10DE5600E0000038C0010018C003000C8003000C6D
:10DE660000070000000E0000000E00000004000085
:10DE7600000000000000000000000000000000009C
:10DE86000000000000000000000000000000000F7D
:10DE96000000000000000000FCFF0F00FCFF0F0068
:10DEA600FCFF0F0000000E0000000E000000060040
:10DEB6000000060000000600000006000000070043
:10DEC6000000070000000700000007000000000037
:10DED600000000000000000000000000000000003C
:10DEE600000000000000000000000000000000002C
:10DEF6000000000000000000000000001900000003
:10DF06000000000000F8FF0F00FCFF0F00FCFF0FF1
:10DF160000F0010000C0030000800F0000001E009A
:10DF260000007C000000F8010000E0070000800F00
:10DF36000000800F0000E0070000F0010000F8007C
:10DF460000003C0000001E0000000F0000C003009F
:10DF560000E0010000FCFF0F00FCFF0F00FCFF0FBC
:10DF66000000000000000000001300000000000098
:10DF76000000FCFF0F00FCFF0F00FCFF0F00F0018C
:10DF86000000C003000080070000000F0000001E14
:10DF96000000003C0000003800000070000000F0A7
:10DFA600000000E0010000C00300FCFF0700FCFFCA
:10DFB6000F00FCFF0F000000000000000000000042
:10DFC600000000000000000000000000000000004B
:10DFD600000000000000150000000000F80000002E
:10DFE600FE010080FF0300C0830700E00106007009
:10DFF600000E0030000C0038000C0018000C000C5D
:10E00600000C000C000C000C0006000C0006000CB6
:10E016000007001C00030018C0030078E00100F0B0
:10E02600FF0000E07F0000801F00000000000000ED
:10E0360000000000000000000000000000000000DA
:10E046000000001300000000C0000000FCFF0F00ED
:10E05600FCFF0F00FCFF0F00381C0000380C00000E
:10E06600180C0000180C0000080E00000C0E000032
:10E076000C0600000C0700000C0300008C030000D7
:10E08600CC010000FC010000F80000003800000090
:10E09600000000000000000000000000000000007A
:10E0A600000000000000000000000000000000006A
:10E0B600170000000000F8000000FE030080FF07C4
:10E0C60000C0070700E0010E00E0000C0070000C25
:10E0D6000030000C0018000C0018000C000C200C7E
:10E0E600000C700E000CF006000CE006000CC007D9
:10E0F600001CC003001CC0070078F00700F0FF0EEC
:10E1060000E03F1C00C00F1C0000000800000000DB
:10E1160000000000000000000000000000150000E4
:10E126000000E0000000FCFF0F00FCFF0F00FCFFFA
:10E136000F00381C0000183E0000183E000018763C
:10E1460000000C7600000CE600000CE300000CC397
:10E1560000008CC301008C810100CC810300FC000F
:10E166000300F80007003800060000000E0000005B
:10E176000E0000000000000000000000000000008B
:10E186000000000000000000000015000000000074
:10E19600070300C0870700E00F0700700C0E003071
:10E1A6000C0C00180C0C00180C0C00180C0C000CB5
:10E1B600040C000C040C000C060E000C0606000CE9
:10E1C6000606000C0607001C060700388603003802
:10E1D600C6030010FE010000FC000000380000002D
:10E1E6000000000000000000000000000000000029
:10E1F60000000000000000123000000030000000A7
:10E206003000000030000000300000001000000068
:10E2160010000000F8FF0F00F8FF0F00F8FF0F00D6
:10E2260018000000080000000800000008000000B8
:10E236000C0000000C0000000C0000000C000000A8
:10E2460000000000000000000000000000000000C8
:10E2560000000000000000000000000000000000B8
:10E2660000000000120000000000000000FCFF0398
:10E2760000FCFF0700F8FF070000000E0000000C7E
:10E286000000000C0000000C0000000C0000000C58
:10E296000000000E00000006000000070000000756
:10E2A60000FCFF0300FCFF0100FCFF000000000073
:10E2B6000000000000000000000000000000000058
:10E2C6000000000000000000000000000000000048
:10E2D6000013000000003C000000FC010000F807ED
:10E2E6000000C01F0000007F000000F80F0000C003
:10E2F6000F0000C00F0000F00000007C0000001EB0
:10E306000000000F0000C0030000E0010000F00064
:10E316000000780000003C0000001800000000002B
:10E3260000000000000000000000000000000000E7
:10E3360000000000000000000000000000001B00BC
:10E346000000007C000000FC030000FC1F00000031
:10E35600FF000000F80F0000E00F0000C00F0000F3
:10E36600F0010000780000003E0000800F0000F879
:10E37600030000F8000000F8030000800F00000012
:10E386003E000000FC000000F0070000800F0000C7
:10E39600C00F0000F80300007E0000801F0000FC94
:10E3A600070000FC0100003C000000110000040012
:10E3B6001C000E003C000F007CC00700F8E00300C4
:10E3C600F0F10000C07B0000803F0000001F00004D
:10E3D600001F0000C07F0000E0F10000F0E0010037
:10E3E60078C003003C800F001C000F0018000400DA
:10E3F6000000000000000000000000000000000017
:10E406000000000000000000000000000000000006
:10E41600000000000000000015180000001C0000AD
:10E42600003C00000078000000F0000000E0010061
:10E4360000C0010000800300000007000000FF0F7D
:10E446000000FE0F0000FE0F000007000080030022
:10E4560000C0010000E0010000E0000000700000C4
:10E4660000380000003C0000001C00000000000016
:10E476000000000000000000000000000000000096
:10E486000000000000140000000000000E0038002C
:10E496000F003C800F001CC00F000CC00D000CE0EC
:10E4A6000C000C700C000C380C000C3C0C000C1E04
:10E4B6000C000C0F0C008C070C00CC030C00EC01BC
:10E4C6000C00EC000C00FC000C007C000E003C0074
:10E4D6000F001C0006000000000000000000000005
:10E4E6000000000000000000000000000000000026
:10E4F60000000C000000000000000000000000F812
:10E50600FFFF03FCFFFF03FCFFFF030C0000030CEF
:10E516000000030C0000030C0000030C0080030045
:10E5260000000100000000000000000000000000E4
:10E5360000000000000000000000000000000000D5
:10E5460000000000000000000000000000000000C5
:10E556000000000000000000000000000000000BAA
:10E56600080000001C0000007C000000F001000014
:10E57600C0070000001F0000007C000000F0010042
:10E5860000C00F0000000F000000040000000000A3
:10E596000000000000000000000000000000000075
:10E5A6000000000000000000000000000000000065
:10E5B6000000000000000000000000000000000055
:10E5C600000000000000000000000000090000003C
:10E5D600000C0000030C0000030C0000030C0000FC
:10E5E600030C000003FCFFFF03FCFFFF03FCFFFF1F
:10E5F6000300000000000000000000000000000012
:10E606000000000000000000000000000000000004
:10E6160000000000000000000000000000000000F4
:10E6260000000000000000000000000000000000E4
:10E636000000000000000000000D000000000001C6
:10E64600000080030000C0030000E0010000F000AD
:10E656000000780000001C0000007C000000F000B4
:10E666000000E0030000C0030000000300000000FB
:10E676000000000000000000000000000000000094
:10E686000000000000000000000000000000000084
:10E696000000000000000000000000000000000074
:10E6A6000000000000000D0000C0000000C00000D7
:10E6B60000C0000000C0000000C0000000C0000054
:10E6C60000C0000000C0000000C0000000C0000044
:10E6D60000C0000000C0000000C0000000000000F4
:10E6E6000000000000000000000000000000000024
:10E6F6000000000000000000000000000000000014
:10E706000000000000000000000000000000000003
:10E716000000000800000000000000000C000000DF
:10E726001C0000001800000030000000600000001F
:10E736006000000000000000000000000000000073
:10E7460000000000000000000000000000000000C3
:10E7560000000000000000000000000000000000B3
:10E7660000000000000000000000000000000000A3
:10E776000000000000000000000000000000000093
:10E786000F000000000000060000800F0000CC0F04
:10E796000000CE0C0000C60C0000660C00006304EE
:10E7A6000000230600003306000033030000B30117
:10E7B6000000FF0F0000FE0F0000FE0F000000002B
:10E7C6000000000000000000000000000000000043
:10E7D6000000000000000000000000000000000033
:10E7E6000000000000000000000000000010000013
:10E7F600000000000000FCFF0F00FCFF0F00FCFF04
:10E806000F00001C0C00000E0C000006060000069F
:10E816000600000203000083030000C3010000E3BA
:10E826000000007F0000003F0000000E0000000016
:10E8360000000000000000000000000000000000D2
:10E8460000000000000000000000000000000000C2
:10E85600000000000000000000000F0000000000A3
:10E86600E0030000F0070000F80700003C0E00007F
:10E876000E0C0000060C0000070C0000030C000044
:10E88600030C0000030600000307000087070000D2
:10E896008603000086010000000000000000000062
:10E8A6000000000000000000000000000000000062
:10E8B6000000000000000000000000000000000052
:10E8C60000000000000000100000000000800700AB
:10E8D60000C0070000E00F0000780C0000380C00B4
:10E8E600001C0C00000C0C00000C060000060600C4
:10E8F600000603000086030000C60100FCFF0F00AF
:10E90600FCFF0F00FCFF0F000000000000000000ED
:10E9160000000000000000000000000000000000F1
:10E9260000000000000000000000000000000000E1
:10E9360000000000100000000000C0030000F00707
:10E946000000F80F00007C0E00006C0C0000660C46
:10E956000000660C0000330C0000330C0000330E80
:10E96600000033060000330600009E0300009E03ED
:10E9760000000C0100000000000000000000000084
:10E986000000000000000000000000000000000081
:10E996000000000000000000000000000000000071
:10E9A600000D00040000000C0000000C0000000C2C
:10E9B6000000C0FF0F00F0FF0F00F8FF0F001C065D
:10E9C60000000C0600000C0600000C0600003807CC
:10E9D6000000180700000000000000000000000012
:10E9E6000000000000000000000000000000000021
:10E9F6000000000000000000000000000000000011
:10EA060000000000000000000000000000000F00F1
:10EA16000000000080070000E00F0000F0CF0100BA
:10EA260078CC01001C8C03000C0C030006060300C6
:10EA36000607030002030300C3830300F3C00100BB
:10EA4600FFFF0100FFFF0000FF3F00000000000085
:10EA560000000000000000000000000000000000B0
:10EA660000000000000000000000000000000000A0
:10EA760000000000000000000000000F0000000081
:10EA860000000000FCFF0F00FCFF0F00FCFF0F0062
:10EA9600001C0000000E000000060000000600003A
:10EAA60000030000000300000003000000FF0F0049
:10EAB60000FF0F0000FE0F00000000000000000035
:10EAC6000000000000000000000000000000000040
:10EAD6000000000000000000000000000000000030
:10EAE600000000000000000005000000000000001B
:10EAF6000070FF0F0078FF0F0038FF0F00000000C6
:10EB060000000000000000000000000000000000FF
:10EB160000000000000000000000000000000000EF
:10EB260000000000000000000000000000000000DF
:10EB360000000000000000000000000000000000CF
:10EB460000000000000000000000000000000000BF
:10EB5600000000000006000000060000000700FF9D
:10EB6600FF0318FFFF033CFFFF011C00000000002D
:10EB7600000000000000000000000000000000008F
:10EB8600000000000000000000000000000000007F
:10EB9600000000000000000000000000000000006F
:10EBA600000000000000000000000000000000005F
:10EBB600000000000000000000000000000000004F
:10EBC60000000E0000000000000000FCFF0F00FC2B
:10EBD600FF0F00FCFF0F000070000000F8000000AF
:10EBE600DC010000DC0100008E0300000707008046
:10EBF60007070080030E0000010C00000000000063
:10EC060000000000000000000000000000000000FE
:10EC160000000000000000000000000000000000EE
:10EC260000000000000000000000000000000005D9
:10EC36000000000000000000FCFF0F00FCFF0F00BA
:10EC4600FCFF0F00000000000000000000000000B4
:10EC560000000000000000000000000000000000AE
:10EC6600000000000000000000000000000000009E
:10EC7600000000000000000000000000000000008E
:10EC8600000000000000000000000000000000007E
:10EC96000000000000000000000000001800000056
:10ECA600000000000000FF0F0000FF0F0000FF0F34
:10ECB60000001C0000000C0000000600000006001A
:10ECC60000000200000003000000FF0F0000FF0F1D
:10ECD6000000FE0F0000180000000C0000000C00F1
:10ECE6000000060000000200000003000000030010
:10ECF6000000FF0F0000FF0F0000FE0F00000000E5
:10ED06000000000000000000000F000000000000EE
:10ED1600000000FF0F0000FF0F0000FF0F00001CA7
:10ED26000000000C0000000E0000000600000002BB
:10ED36000000000300000003000000FF0F0000FFBA
:10ED46000F0000FE0F0000000000000000000000A1
:10ED560000000000000000000000000000000000AD
:10ED6600000000000000000000000000000000009D
:10ED7600000000000000100000000000C0030000BA
:10ED8600F0070000F80700001C0E00000E0C000043
:10ED9600060C0000060C0000030C0000030E000029
:10EDA600030600000307000087030000FE010000C1
:10EDB600FE000000780000000000000000000000D7
:10EDC600000000000000000000000000000000003D
:10EDD600000000000000000000000000000000002D
:10EDE60000000011000000000000000000FFFF0FFF
:10EDF60000FFFF0F00FFFF0F00380C00001C0C0087
:10EE0600000E0C0000060C0000030E0000030600B6
:10EE1600000307000083030000C7030000FF010092
:10EE260000FE0000003C00000000000000000000A2
:10EE360000000000000000000000000000000000CC
:10EE460000000000000000000000000000000000BC
:10EE5600140000000000E0030000F0070000F80FB7
:10EE660000001C0E00000E0C0000060C0000070C33
:10EE76000000030600000307000083030000C3012F
:10EE86000000F3000000FFFF0700FFFF0F00FEFF7A
:10EE96000F00000006000000030000800300008051
:10EEA600010000000000000000000000000000005B
:10EEB600000000000000000000000000000D00003F
:10EEC60000000000000000FF0F0000FF0F0000FF21
:10EED6000F0000180000000C0000000600000002F1
:10EEE600000000030000001F0000001F0000000ECD
:10EEF600000000000000000000000000000000000C
:10EF060000000000000000000000000000000000FB
:10EF160000000000000000000000000000000000EB
:10EF260000000000000000000000110000000000CA
:10EF3600380600007C0700007C0600006E0C00000E
:10EF4600660C0000660C0000630C0000230C000039
:10EF5600330C0000330600003306000033060000C1
:10EF660033030000F2030000E0010000E0000000AF
:10EF7600000000000000000000000000000000008B
:10EF8600000000000000000000000000000000007B
:10EF96000000000000000011000000000006000054
:10EFA600000600000006000000070000E0FF070062
:10EFB600E0FF0F00E0FF0F0000030C0000030C0051
:10EFC600000304000003060080010700800103001F
:10EFD60000C1030000C00100008000000000000026
:10EFE600000000000000000000000000000000001B
:10EFF600000000000000000000000000000000000B
:10F00600000000000F000000000000000000FF07E5
:10F016000000FF070000FF0F0000000C0000000CBE
:10F026000000000C000000060000000600000007BB
:10F03600000080030000FF0F0000FF0F0000FF0F1D
:10F0460000000000000000000000000000000000BA
:10F0560000000000000000000000000000000000AA
:10F06600000000000000000000000000000000009A
:10F07600000F00060000001F0000007F000000FED9
:10F08600030000E00F0000800F0000000F0000C02A
:10F09600070000E0010000F00000003C0000001E38
:10F0A6000000000F00000007000000030000000041
:10F0B600000000000000000000000000000000004A
:10F0C600000000000000000000000000000000003A
:10F0D6000000000000000000000000000000160014
:10F0E60000000000070000001F000000FF000000F5
:10F0F600F0070000C00F0000000F0000C00700006E
:10F10600E0010000F80000003F0000001F000000C2
:10F116007F000000F8010000E0070000800F0000FB
:10F12600800F0000E0030000F00100007E000000F8
:10F136001F000000070000000000000000000000A3
:10F1460000000000000000000000000F00000000AA
:10F156000002060000070E00000F0700009C0300D7
:10F1660000F8010000F8010000F0000000F00000C7
:10F1760000F8010000DC0100008E03000007070014
:10F1860000070E0000000C00000000000000000058
:10F196000000000000000000000000000000000069
:10F1A6000000000000000000000000000000000059
:10F1B6000000000000000000100002E0000007E070
:10F1C60001001F8001003E80010078800100F0C030
:10F1D6000100E0E1000080F70000007F0000001F52
:10F1E6000000C00F0000F0030000FC0000003F001C
:10F1F60000000F00000003000000000000000000F7
:10F2060000000000000000000000000000000000F8
:10F2160000000000000000000000000000000000E8
:10F2260000000000000F00000800000E0C00000E99
:10F236000E0000060F0000060F0000860F0000C635
:10F246000D0000E60C0000760C00003E0C00003EAF
:10F256000C00001E0C00000E0C0000070E00000340
:10F266000E0000000000000000000000000000008A
:10F276000000000000000000000000000000000088
:10F286000000000000000000000000000000000078
:10F2960000000D000000000060000000600000009B
:10F2A60060000000E0000000F0FF01E0FFFF01F851
:10F2B6001FFF03F80F00031C0000030C0000030CE3
:10F2C6000000030C00000100000000000000000028
:10F2D6000000000000000000000000000000000028
:10F2E6000000000000000000000000000000000018
:10F2F6000000000000000000000000000000000503
:10F306000000000000000000FFFFFF07FFFFFF07EF
:10F31600FFFFFF07000000000000000000000000E3
:10F3260000000000000000000000000000000000D7
:10F3360000000000000000000000000000000000C7
:10F3460000000000000000000000000000000000B7
:10F3560000000000000000000000000000000000A7
:10F366000000000000000000000000000C08000083
:10F37600030C0000030C0000030C0080030C00FFCC
:10F3860001FC8FFF01F8FF7F00F0FF000000700016
:10F396000000600000006000000060000000000047
:10F3A6000000000000000000000000000000000057
:10F3B6000000000000000000000000000000000047
:10F3C6000000000000000000000000000000000037
:10F3D6000000000000000000000D0000000000809A
:10F3E600000000E0010000E00000003000000030F6
:10F3F6000000007000000060000000C0000000C0B7
:10F40600000000E000000078000000380000000066
:10F4160000000000000000000000000000000000E6
:10F4260000000000000000000000000000000000D6
:10F4360000000000000000000000000000000000C6
:10F446000000000000000800000000FEFF1F00FE94
:10F45600FF1F00020010000200100002001000FE54
:10F46600FF1F00FEFF1F000000000000000000005C
:10F476000000000000000000000000000000000086
:10F486000000000000000000000000000000000076
:10F496000000000000000000000000000000000066
:10F4A6000000000000000000000000000000000056
:10F4B6000000000600000000000000000000000040
:10F4C600000000000000000000000200007E0300B3
:10F4D6000000000000000000000000000000000026
:10F4E600000400000F0000000F00000000000000F4
:10F4F600000000000000000008000040004803F87B
:10F50600004E03F8004E0008000000000000000650
:10F5160018022402FF0F4402440284010000000086
:10F526000000000000000B00001C00220022029CCC
:10F536000160001000CC0122022002C00108CC01AB
:10F5460032022202220252028C01E0010002000075
:10F55600000000000200000F000000000000000094
:10F566000000000000000000000000050000F0019F
:10F576000C06020801100000000000000000000058
:10F58600000004011002080C06F001000000000053
:10F596000000000000000000000600000A00040051
:10F5A6001F0004000A000000000000000000000028
:10F5B60007200020002000FC012000200020000081
:10F5C6000000000000000002000800070000000024
:10F5D6000000000000000000000000000000042001
:10F5E60000200020002000000000000000000000B5
:10F5F6000000000000020000000300000000000000
:10F6060000000000000000000000000005000C8063
:10F616000360001C00030000000000000000000062
:10F6260000000006FC010202020202020202FC01C4
:10F6360000000000000000000000060000040204B4
:10F6460002FE0300020002000000000000000000AD
:10F656000006040382024202420222021C02000049
:10F66600000000000000000006040102022202223F
:10F67600022202DC0100000000000000000000067B
:10F686006000500048004400FE03400000000000F7
:10F69600000000000000061E0112021202120212F1
:10F6A60002E2010000000000000000000006F80170
:10F6B6001402120212021202E00100000000000011
:10F6C600000000000602000202820162001A000623
:10F6D600000000000000000000000006DC0122021D
:10F6E600220222022202DC010000000000000000CB
:10F6F6000000063C004202420242024201FC0000B7
:10F7060000000000000000000003000000001803D5
:10F7160000000000000000000000000000000000E3
:10F7260003000000081807000000000000000000A9
:10F73600000000000000000800002000200050002B
:10F746005000880088000401000000000000080046
:10F7560000900090009000900090009000900000B3
:10F766000000000000080000040188008800500026
:10F7760050002000200000000000000005040042A8
:10F7860003220012000C0000000000000000000030
:10F796000000000BF0000C030402F2040A050A053F
:10F7A6000A05FA0504010C01F000070003E00098C1
:10F7B6000086009800E00000030000000000000042
:10F7C6000006FE032202220222023C02C0010000C1
:10F7D600000000000000000007F800040102020219
:10F7E60002020202020401000000000000000007FD
:10F7F600FE0302020202020202020401F8000000F5
:10F8060000000000000006FE03220222022202225D
:10F816000222020000000000000000000006FE03B5
:10F826002200220022002200220000000000000028
:10F836000000000007F80004010202020242024230
:10F8460002C403000000000000000007FE032000C1
:10F856002000200020002000FE0300000000000021
:10F866000000030202FE0302020000000000000086
:10F876000000000000000000000400020202020274
:10F88600FE01000000000000000000000000000073
:10F8960006FE03200050008800040102020000005A
:10F8A6000000000000000005FE0300020002000246
:10F8B600000200000000000000000000000009FE39
:10F8C600030600180060008001600018000600FEB4
:10F8D600030000000007FE03060018002000C00019
:10F8E6000003FE03000000000000000008F800040A
:10F8F6000102020202020202020401F800000000F4
:10F9060000000006FE0322002200220022001C0046
:10F916000000000000000000000008F800040102DA
:10F926000202020206020A0409F8080000000000AA
:10F936000007FE03220022006200A2001C01000252
:10F946000000000000000000071C01220222022223
:10F956000222022202C4010000000000000000078B
:10F96600020002000200FE03020002000200000084
:10F9760000000000000007FE000001000200020077
:10F98600020001FE000000000000000000070E005B
:10F996003000C0000003C00030000E000000000070
:10F9A600000000000B1E00E0010002C00138000646
:10F9B600003800C0010002E0011E00070202040137
:10F9C600D8002000D8000401020200000000000058
:10F9D60000000702000C001000E00310000C0002FB
:10F9E600000000000000000000060203820262021E
:10F9F60012020A02060200000000000000000000D9
:10FA0600040000FF0F0108010800000000000000CC
:10FA1600000000000000000503001C0060008003D9
:10FA2600000C0000000000000000000000000400C0
:10FA36000001080108FF0F000000000000000000A0
:10FA46000000000000090000100008000400020089
:10FA56000200040008001000000000000700080073
:10FA66000800080008000800080008000000000060
:10FA76000000000500000000000001000200000078
:10FA86000000000000000000000006800148024857
:10FA96000248024801F003000000000000000000D8
:10FAA6000006FF031002080208020802F001000027
:10FAB600000000000000000005F00108020802082E
:10FAC600020802000000000000000000000000061E
:10FAD600F0010802080208020801FF030000000006
:10FAE60000000000000006F00148024802480248F3
:10FAF6000270010000000000000000000005080080
:10FB0600FE030900090001000000000000000000DB
:10FB16000000000006F0010812081208120811F889
:10FB26000F0000000000000000000006FF031000A8
:10FB3600080008000800F0030000000000000000B4
:10FB46000000020000FA03000000000000000000B0
:10FB56000000000000000000000300100810FA0F6B
:10FB6600000000000000000000000000000000008F
:10FB760005FF034000A0001001080200000000007D
:10FB860000000000000000020000FF03000000006B
:10FB960000000000000000000000000000000A0055
:10FBA60000F803100008000800F003100008000821
:10FBB60000F003000006F803100008000800080023
:10FBC600F0030000000000000000000006F001083D
:10FBD60002080208020802F001000000000000000E
:10FBE60000000006F81F1002080208020802F001D1
:10FBF6000000000000000000000006F001080208F6
:10FC06000208020801F81F000000000000000000C2
:10FC16000004F803100008000800000000000000BF
:10FC260000000000000000000530014802480248BC
:10FC36000290010000000000000000000000000427
:10FC46000800FE0108020802000000000000000093
:10FC560000000000000006F8010002000200020099
:10FC660001F8030000000000000000000005180075
:10FC7600E0000003E00018000000000000000000A3
:10FC860000000000091800E0000003E0001800E092
:10FC9600000003E000180000000000050802B001A3
:10FCA6004000B00108020000000000000000000053
:10FCB6000000051800E0180007E00018000000002A
:10FCC600000000000000000000050803880248024A
:10FCD60028021802000000000000000000000000DA
:10FCE6000540004000BE07010801080000000000B2
:10FCF600000000000000000300000000FF0F0000ED
:10FD060000000000000000000000000000000501E7
:10FD1600080108BE07400040000000000000000087
:10FD26000000000000080000600010001000200025
:10FD360040004000300000000000000003FF030107
:10FD460002FF0300000000000000000000000000A9
:10FD56000000000500000000000500005F0000052F
:10FD6600000700070005147F147F1405242A7F2A44
:10FD76001205231308646205364956205005080704
:10FD860003000005001C224100050041221C00055D
:10FD960014083E08140508083E08080500B070005F
:10FDA6000005080808080805006060000005201026
:10FDB600080402053E5149453E0500427F400005C4
:10FDC6007249494946052141494D33051814127FA8
:10FDD60010052745454539053C4A49493105412124
:10FDE60011090705364949493605464949291E0577
:10FDF60000001400000500403400000508142241EC
:10FE060000051414141414054122140800050201F7
:10FE1600590906053E415D594E057C1211127C05B5
:10FE26007F49494936053E41414122057F414141CD
:10FE36003E057F49494949057F09090909053E41AA
:10FE4600415173057F0808087F0500417F41000581
:10FE56002040413F01057F08142241057F40404074
:10FE660040057F020C027F057F0408107F053E4196
:10FE760041413E057F09090906053E4151215E05BE
:10FE86007F091929460526494949320501017F019D
:10FE960001053F4040403F051F2040201F053F40D1
:10FEA60038403F056314081463050304780403050A
:10FEB600615149454305007F414100050204081090
:10FEC60020050041417F000504020102040540406F
:10FED60040404005070B00000005205454784005BB
:10FEE6007F28444438053844444428053844442887
:10FEF6007F0538545454180500087E09020518A4D5
:10FF0600A49C78057F080404780500447D4000051C
:10FF16002040403D00057F102844000500417F40F9
:10FF260000057C04780478057C08040478053844C8
:10FF360044443805FC182424180518242418FC0504
:10FF46007C080404080548545454240504043F441A
:10FF560024053C4040207C051C2040201C053C40DC
:10FF660030403C054428102844054C9090907C0570
:10FF76004464544C440500083641000500007700EF
:10FF86000005004136080005040204080405007F48
:10FF9600417F004F4E2F4F46463A202558200A0DE6
:10FFA6000052455345543A202558200A0D00425523
:10FFB60053593A202558200A0D0042415420310059
:10FFC6004241542032005354415254004449534351
:10FFD6000049444C45004348524700544553540099
:10FFE6004D454E5500575D002E20003120002564FA
:0AFFF600004B004E005000520000C6
:020000040001F9
:100000000F6E000E126E12C01DF01DC01AF01AC045
:1000100017F017C016F016C01CF01CC01BF01BC058
:1000200010F010C011F011C015F015C018F0196AC9
:1000300048C015F049C010F010C011F0200E0F5E3E
:100040004D504F02F3CF09F0F4CF0AF0010E09240E
:10005000016E000E0A20026E0FC003F0046A32EC3B
:100060008AF001C013F002C014F013504B24096E43
:1000700014504C200A6E09C0F6FF0AC0F7FF000EAC
:10008000F86E0800F5CF16F0134A142A48501624CB
:100090001D6E7F0E1D644FEF80F051EF80F054EF26
:1000A00080F01D50800F165E4950070B1A6E4E509F
:1000B0001AC009F00A6A0926000E0A224F50080DDC
:1000C0000950F35CF450800A0B6E0A50800A0B58FA
:1000D000D8B06DEF80F06FEF80F073EF80F04F28B5
:1000E000176E75EF80F04FC017F049C001F0026A3B
:1000F000000E046E080E036EC3EC85F00150172449
:100100001D6E080E1D6487EF80F089EF80F08CEF84
:1001100080F01D50F80F175E13C018F014C019F0CE
:10012000000E1C6E46EF82F011C002F0155095ECE7
:100130008AF0000E1B6E16EF82F01C50D8A4A3EFBD
:1001400080F0A5EF80F007EF81F05150D8A4ABEF1D
:1001500080F0ADEF80F0C9EF80F04F501B02F3CF7D
:1001600009F0F4CF0AF009504B240B6E0A504C20D2
:100170000C6E18500B2619500C220BC0F6FF0CC049
:10018000F7FF000EF86E0800F550FF0A1D6EE2EF53
:1001900080F04F501B02F3CF09F0F4CF0AF0095062
:1001A0004B240B6E0A504C200C6E18500B26195025
:1001B0000C220BC0F6FF0CC0F7FF000EF86E080013
:1001C000F5CF1DF01A28096EE8EF80F0D8901D36A3
:1001D000092EE6EF80F05150D8A4F1EF80F0F3EF54
:1001E00080F0EFEF81F01A500808096EFF0E0A6EDA
:1001F000000E0B6E092A00EF81F00B340B320A322D
:10020000092EFDEF80F00A501D12EFEF81F05150E2
:10021000D8A40DEF81F00FEF81F035EF81F04F5052
:100220001B02F3CF09F0F4CF0AF009504B240B6EF8
:100230000A504C200C6E1C500B26000E0C2218503D
:100240000B2619500C22FF0E0B240D6EFF0E0C20F6
:100250000E6E0DC0F6FF0EC0F7FF000EF86E080020
:10026000F550FF0A1D6E58EF81F04F501B02F3CF7F
:1002700009F0F4CF0AF009504B240B6E0A504C20C1
:100280000C6E1C500B26000E0C2218500B26195019
:100290000C22FF0E0B240D6EFF0E0C200E6E0DC0F7
:1002A000F6FF0EC0F7FF000EF86E0800F5CF1DF048
:1002B0001A500808096E09280A6E61EF81F0D8907B
:1002C0001D320A2E5FEF81F0010E4F646AEF81F05C
:1002D0006CEF81F0BCEF81F05150D8A472EF81F047
:1002E00074EF81F094EF81F04F501B02F3CF09F0CF
:1002F000F4CF0AF009504B240B6E0A504C200C6EC0
:100300001C500B26000E0C2218500B2619500C22E4
:100310000BC0F6FF0CC0F7FF000EF86E0800F5509A
:10032000FF0A126EB1EF81F04F501B02F3CF09F0BC
:10033000F4CF0AF009504B240B6E0A504C200C6E7F
:100340001C500B26000E0C2218500B2619500C22A4
:100350000BC0F6FF0CC0F7FF000EF86E0800F5CFDB
:1003600012F01A28096EB7EF81F0D8901236092ED4
:10037000B5EF81F012501D125150D8A4C2EF81F098
:10038000C4EF81F0EFEF81F01C50096E0A6AFF0E96
:1003900017240B6E0C6AFF0E0C2209500B1807E194
:1003A0000A500C18D8A4D7EF81F0D9EF81F0EFEF05
:1003B00081F01A50D8B4DFEF81F0E1EF81F0EFEF78
:1003C00081F01AC009F0FF0E0A6E092AEAEF81F0E7
:1003D000D8900A36092EE8EF81F00A501D12500419
:1003E000D8A4F5EF81F0F7EF81F00DEF82F05150D6
:1003F000D8A4FDEF81F0FFEF81F007EF82F049C054
:1004000001F0485006EC8AF01D160DEF82F049C04D
:1004100001F0485006EC8AF01D1249C001F01DC0E1
:1004200002F04850ECEC89F0482A1B2A16501B5C5D
:10043000D8A01DEF82F01FEF82F09DEF80F05050AA
:10044000D8A425EF82F027EF82F036EF82F05150EA
:10045000D8A42DEF82F02FEF82F032EF82F01D68EA
:100460003CEF82F0000E1D6E3CEF82F049C001F0BF
:10047000485006EC8AF01D6E49C001F01DC002F024
:100480004850ECEC89F0080E11261C2A17501C5C11
:10049000D8A04DEF82F04FEF82F094EF80F010C0C3
:1004A00002F015501624096E092895EC8AF0120006
:1004B000186E800E18605FEF82F061EF82F087EFB8
:1004C00083F0800E086067EF82F069EF82F087EFBB
:1004D00083F0400E07606FEF82F071EF82F087EFDC
:1004E00083F0400E096077EF82F079EF82F087EFBA
:1004F00083F00750095C0B6E0B281A6E1850085CCD
:100500000B6E0B28146E0750070B166E1650075E05
:100510001968080E0B6E000E0C6E16500B5E000E66
:100520000C5A1A500D6E0E6A0B500D5C0E50800A5C
:100530000F6E0C50800A0F58D8B0A1EF82F0A3EFD5
:1005400082F0B3EF82F01A5008080B6E0B280C6E85
:10055000ACEF82F0D89019320C2EAAEF82F01AC0BC
:1005600015F0B6EF82F016500808156E16280B6EBF
:10057000BCEF82F0D89019360B2EBAEF82F007C08C
:1005800002F0185095EC8AF0000E176EF0EF82F032
:1005900049C001F0485006EC8AF01B6E0A28D8B416
:1005A000D4EF82F0D6EF82F0DFEF82F01950FF0A2D
:1005B0001B140B6E0B50106E116AE5EF82F01B508E
:1005C00019100B6E0B50106E116A10C01BF049C051
:1005D00001F01BC002F04850ECEC89F0482A172AC1
:1005E0001450175CD8A0F7EF82F0F9EF82F0C8EF53
:1005F00082F01AEF83F0080E1526080E072607C0B2
:1006000002F0185095EC8AF0000E176E11EF83F08F
:1006100049C001F00AC002F04850ECEC89F0482AC9
:10062000172A1450175CD8A018EF83F01AEF83F044
:1006300008EF83F015500B6E0C6A080E0B26000EA7
:100640000C221A500D6E0E6A0B500D5C0E50800A73
:100650000F6E0C50800A0F58D8B031EF83F033EF93
:1006600083F0FBEF82F01A50155CD8B03AEF83F0BC
:100670003CEF83F087EF83F015501A5C0B6EFF0E92
:100680000C6E0B2A46EF83F0D8900C360B2E44EFFD
:1006900083F00C50FF0A196E0750080F026E1850B5
:1006A00095EC8AF0000E176E7EEF83F049C001F0E2
:1006B000485006EC8AF01B6E0A28D8B462EF83F02B
:1006C00064EF83F06DEF83F01950FF0A1B140B6E7B
:1006D0000B50126E136A73EF83F01B5019100B6EE0
:1006E0000B50126E136A12C01BF049C001F01BC000
:1006F00002F04850ECEC89F0482A172A1450175C95
:10070000D8A085EF83F087EF83F056EF83F01200D7
:10071000396E800E39608FEF83F091EF83F0ABEF8D
:1007200084F0800E226097EF83F099EF83F0ABEFB7
:1007300084F0400E21609FEF83F0A1EF83F0ABEFD8
:1007400084F0400E2360A7EF83F0A9EF83F0ABEFB6
:1007500084F022503918D8A4B0EF83F0B2EF83F0C0
:10076000BDEF83F023C01CF039C01DF024C01EF083
:100770002150D0EC89F0ABEF84F023502118D8A49D
:10078000C4EF83F0C6EF83F0D1EF83F022C00DF009
:1007900021C00EF024C00FF0395013EC89F0ABEFFC
:1007A00084F02150235CD8A0D8EF83F0DAEF83F0F7
:1007B000E2EF83F02150235C266E276AD8A027063B
:1007C000E8EF83F02350215C266E276AD8A0270625
:1007D0003950225CD8A0EFEF83F0F1EF83F0F9EF0E
:1007E00083F03950225C286E296AD8A02906FFEFD1
:1007F00083F02250395C286E296AD8A02906265039
:10080000285C2950800A256E2750800A2558D8A0D8
:100810000CEF84F00FEF84F0010E10EF84F0000E67
:10082000356E3550D8B417EF84F019EF84F025EF0A
:1008300084F039C030F021C039F030C021F022C03E
:1008400031F023C022F031C023F03950225CD8B0FF
:100850002CEF84F02EEF84F03AEF84F039C032F0C0
:1008600022C039F032C022F021C033F023C021F081
:1008700033C023F03950225C346E2350215CD8A061
:1008800044EF84F046EF84F04EEF84F02350215C77
:100890002A6E2B6AD8A02B0654EF84F02150235CDB
:1008A0002A6E2B6AD8A02B062AC02EF034C001F085
:1008B000026A000E046E020E036EC3EC85F0015056
:1008C000366E21C038F02350215CD8A06AEF84F046
:1008D0006CEF84F070EF84F02C682D6874EF84F076
:1008E000000E2D6E010E2C6E2CC02FF039C037F08B
:1008F000A2EF84F03550D8B480EF84F082EF84F01A
:100900008BEF84F037C007F024C008F038503CEC7F
:1009100088F092EF84F038C007F024C008F0375018
:100920003CEC88F02E50365E36BE9BEF84F099EF9B
:1009300084F0A1EF84F02F503824386E34503624E0
:10094000366E372A3750225CD8B0A9EF84F0ABEF6F
:1009500084F07AEF84F01200770EF66ECB0EF76E0D
:10096000000EF86E20EE70F00E0E0900F5CFDEFFDF
:10097000E806FBE2670EF66ECB0EF76E000EF86E21
:1009800020EE60F00F0E0900F5CFDEFFE806FBE277
:10099000860EF66ECB0EF76E000EF86E20EE7FF030
:1009A0000B0E0900F5CFDEFFE806FBE2A80EF66E9F
:1009B000CB0EF76E000EF86E20EE96F0090E0900D1
:1009C000F5CFDEFFE806FBE2D00EF66ECB0EF76E3B
:1009D000000EF86E20EEA0F0080E0900F5CFDEFF45
:1009E000E806FBE2920EF66ECB0EF76E000EF86E86
:1009F00020EE8BF00A0E0900F5CFDEFFE806FBE2E1
:100A000045EC8AF0590E096EFD0E0A6E050E0B6E4E
:100A1000080E0C6E010E0D6E010E0E6E6CEC87F062
:100A2000000E226E020E81EC86F0020E026E020EA5
:100A300095EC8AF0C00E1E6EFF0E1F6E24EC87F040
:100A4000000E216E1F0E226E0A0E236EFF0E246E04
:100A5000000EB3EC87F0330E1C6E200E1D6E3F0EA1
:100A60001E6EFF0E1F6E000E56EC8AF0360E026EE2
:100A7000020E95EC8AF0590E096EFD0E0A6E050EF7
:100A80000B6E080E0C6E010E0D6E000E0E6E6CECF1
:100A900087F0CC0E1E6EFF0E1F6E24EC87F0590EF1
:100AA000096EFD0E0A6E050E0B6E080E0C6E010E21
:100AB0000D6E010E0E6E6CEC87F0360E026E250E7A
:100AC00095EC8AF0E60E1E6EFF0E1F6E24EC87F08A
:100AD000330E216E3D0E226E3F0E236EFF0E246EEE
:100AE000230EB3EC87F00D0E026E000E95EC8AF02B
:100AF000700E1E6E000E1F6E24EC87F0160E026E36
:100B0000000E95EC8AF0600E1E6E000E1F6E24EC37
:100B100087F01F0E026E000E95EC8AF07F0E1E6E9F
:100B2000000E1F6E24EC87F0280E026E000E95EC6E
:100B30008AF0960E1E6E000E1F6E24EC87F01F0EBC
:100B4000026E440E95EC8AF08B0E1E6E000E1F6E28
:100B500024EC87F0280E026E440E95EC8AF0A00E6D
:100B60001E6E000E1F6E24EC87F01F0E216E420ECB
:100B7000226E2F0E236EFF0E246E420E88EC83F041
:100B8000B6EC88F01200000E066E04BECCEF85F0C5
:100B9000CAEF85F0D2EF85F0036C041ED8B0042AAA
:100BA000010E066E02BED9EF85F0D7EF85F0DFEFBC
:100BB00085F0016C021ED8B0022A010E061A000E42
:100BC000086E000E076E03500410D8B4EAEF85F0EB
:100BD000ECEF85F014EF86F0010E056EF4EF85F072
:100BE000D89003360436052A04AEF9EF85F0FBEF02
:100BF00085F0F0EF85F0D890073608360350015C99
:100C000004500258D8A007EF86F009EF86F00EEFE7
:100C100086F00350015E0450025A0780D8900432D7
:100C20000332052EFBEF85F00650D8B41AEF86F09C
:100C30001CEF86F020EF86F0076C081ED8B0082A5B
:100C400007C001F008C002F01200016E01A02BEFF6
:100C500086F02DEF86F030EF86F08D8031EF86F054
:100C60008D9001A236EF86F038EF86F03BEF86F0EC
:100C70008D823CEF86F08D9201A441EF86F043EF28
:100C800086F046EF86F08D8447EF86F08D9401A6BE
:100C90004CEF86F04EEF86F051EF86F08D8652EFE6
:100CA00086F08D9601A857EF86F059EF86F05CEF3D
:100CB00086F08D885DEF86F08D9801AA62EF86F050
:100CC00064EF86F067EF86F08D8A68EF86F08D9A84
:100CD00001AC6DEF86F06FEF86F072EF86F08D8CD1
:100CE00073EF86F08D9C01AE78EF86F07AEF86F098
:100CF0007DEF86F08D8E7EEF86F08D9E84EC8AF0FF
:100D00001200256E92EF86F0020E026E230E95EC15
:100D10008AF0BFEF86F0020E026E660E95EC8AF046
:100D2000BFEF86F02250236E246A2450000AD8B404
:100D30009CEF86F0BFEF86F02350000AD8B484EF12
:100D400086F0010AD8B48BEF86F0BFEF86F0DC0E98
:100D50001E6EFF0E1F6E24EC87F0D8EF86F0D20EC9
:100D60001E6EFF0E1F6E24EC87F0D8EF86F0D70EB4
:100D70001E6EFF0E1F6E24EC87F0D8EF86F0255014
:100D8000236E246A2450000AD8B4C9EF86F0D8EF45
:100D900086F02350000AD8B4A7EF86F0010AD8B431
:100DA000AFEF86F0030AD8B4B7EF86F0D8EF86F03D
:100DB0001200146E020E0F18D8B4E1EF86F0E3EFC4
:100DC00086F0E8EF86F00F50E6EC88F0EEEF86F064
:100DD000000EE6EC88F0010EE6EC88F00F5076ECA1
:100DE00089F08C888C964A04D8B4F9EF86F0FBEF32
:100DF00086F004EF87F01450106E116A101C126E0A
:100E0000111C136E07EF87F014C012F0136A125012
:100E100025EC86F0482A400E4818D8A412EF87F037
:100E200014EF87F019EF87F048507BEC88F023EF40
:100E300087F07F0E48641FEF87F021EF87F023EFE4
:100E400087F07F0E486E120052EF87F04D5048C079
:100E500020F0216A2026000E212221BE39EF87F0E2
:100E6000215009E1800E205CD8A039EF87F03BEFDC
:100E700087F03DEF87F06BEF87F01EC0F6FF1FC0D5
:100E8000F7FF000EF86E0F0EF76403D00800F55060
:100E900005D0F6CFE9FFF7CFEAFFEF5000EC80F086
:100EA0001E4A1F2A1EC0F6FF1FC0F7FF000EF86E75
:100EB0000F0EF76403D00800F55005D0F6CFE9FF18
:100EC000F7CFEAFFEF500009D8A469EF87F06BEF86
:100ED00087F026EF87F01200800E0B6072EF87F02C
:100EE00074EF87F0B2EF87F0400E0C607AEF87F076
:100EF0007CEF87F0B2EF87F00D50D8B482EF87F027
:100F000084EF87F08CEF87F00D04D8A48AEF87F088
:100F10008CEF87F0B2EF87F009C04BF00AC04CF0BD
:100F20000BC04DF00CC04EF00CC00FF0070E0F16AA
:100F3000D8A49DEF87F0A1EF87F0106A102AA2EFE6
:100F400087F0106A0CC001F0026A000E046E080EF1
:100F5000036EC3EC85F0015010244F6E0DC050F0AD
:100F60000EC051F01200256E800E2560BAEF87F09A
:100F7000BCEF87F0F8EF87F0800E2260C2EF87F0B9
:100F8000C4EF87F0F8EF87F0400E2160CAEF87F0DA
:100F9000CCEF87F0F8EF87F0400E2360D2EF87F0B8
:100FA000D4EF87F0F8EF87F022C00DF021C00EF0EB
:100FB00024C00FF0255013EC89F022C00DF023C09F
:100FC0000EF024C00FF0255013EC89F023C01CF064
:100FD00025C01DF024C01EF02150D0EC89F023C0A4
:100FE0001CF022C01DF024C01EF02150D0EC89F06E
:100FF000120096909692969496969698969A969CAB
:10100000969E959095929598959E959695948C9888
:101010008C968C9E8C94270E086EF50EE82EFED7CB
:10102000082EFCD700F08C84020E096E860E086E26
:10103000990EE82EFED7082EFCD7092EFAD700F01D
:10104000020E066E3F0E95EC89F0020E066EC00E83
:1010500095EC89F0000E026E000E95EC8AF0010E00
:101060004A6E000E4F6E4FC04EF04EC04DF04DC058
:1010700049F049C048F012000B6E07C002F00B5057
:1010800095EC8AF049C001F0485006EC8AF00C6EED
:101090000828D8A44EEF88F050EF88F062EF88F06F
:1010A00007C009F0070E0916010E0A6E092A5BEF48
:1010B00088F0D8900A36092E59EF88F00A500C12A1
:1010C00073EF88F007C009F0070E0916010E0A6ECB
:1010D000092A6DEF88F0D8900A36092E6BEF88F058
:1010E0000A50FF0A0C1649C001F00CC002F048502B
:1010F000ECEC89F012000E6E800E0E6082EF88F02C
:1011000084EF88F0B5EF88F0400E0E608AEF88F02B
:101110008DEF88F0010E8EEF88F0000E0D6E0D50F1
:10112000D8B495EF88F097EF88F0A4EF88F0C00E60
:101130000E24086E096AFF0E0922400E08100A6E7E
:1011400009500B6EACEF88F0400E0EC008F0096A33
:1011500008100A6E09500B6E0AC00CF00EC048F061
:101160000DC006F00C5095EC89F01200000E156EC3
:10117000000E7BEC88F01550B3EC89F0000E166E73
:10118000400E1660C6EF88F0C9EF88F0010ECAEF76
:1011900088F0000E0F6E49C001F0165006EC8AF080
:1011A000D9EC86F0162A7F0E1664D9EF88F0DBEFB3
:1011B00088F0C0EF88F0080E15263F0E1564E3EFA7
:1011C00088F0E5EF88F0B8EF88F01200046E045064
:1011D00076EC89F0968E8C988C868C9E140EE82E78
:1011E000FED78C8E140EE82EFED784BEFAEF88F060
:1011F000FEEF88F0036A032AFFEF88F0036A000E0F
:1012000003B0800E036E0350056E8C9EA00EE82E78
:10121000FED705BE0EEF89F010EF89F0F1EF88F0F0
:101220008C96969E1200116E11500D5CD8B01BEF7B
:1012300089F01DEF89F02DEF89F011C010F00DC07D
:1012400011F010C00DF02DEF89F00EC007F00FC0A7
:1012500008F011503CEC88F0112A11500D5CD8B008
:1012600034EF89F036EF89F025EF89F01200076E30
:10127000000E096E000E086E09C001F007C002F0F2
:101280000850ECEC89F0082A7F0E08644AEF89F0D8
:101290004CEF89F03CEF89F0080E09263F0E0964F7
:1012A00054EF89F056EF89F03AEF89F01200A7EC7D
:1012B0008AF0A4EC8AF0F9EC87F08DEC8AF09DECD2
:1012C0008AF07BEC8AF0898CACEC84F05C0E3B6E8F
:1012D000510E3A6E600EE82EFED73A2EFCD73B2E0A
:1012E000FAD700D064EF89F000EF00F0016E010E34
:1012F000026E0150D8A47FEF89F081EF89F085EF6D
:1013000089F08C828C9094EF89F00104D8A48BEF43
:1013100089F08DEF89F091EF89F08C808C9294EFB9
:1013200089F08C908EEF89F01200076E020E06187D
:10133000D8B49DEF89F09FEF89F0A4EF89F00650B3
:10134000E6EC88F0AAEF89F0000EE6EC88F0010EDA
:10135000E6EC88F0065076EC89F08C988C96075075
:1013600025EC86F012000A6E400E0A60BAEF89F092
:10137000BCEF89F0CFEF89F00AC001F0026A000EDD
:10138000046E080E036EC3EC85F00150B809096EB7
:101390000AC049F0020E066E095095EC89F0120061
:1013A000206E20501C5CD8B0D8EF89F0DAEF89F0BD
:1013B000E0EF89F020C01FF01CC020F01FC01CF01F
:1013C00020C007F01DC008F01CC009F01EC00AF0C4
:1013D0001D5058EC82F01200066E01C003F0D89048
:1013E0000332D8900332D89003320650080DA90E6C
:1013F000F324046E000EF420056E03500424D96E0D
:10140000000E0520DA6E02C0DFFF1200056E01C07B
:1014100002F0D8900232D8900232D89002320550B1
:10142000080DA90EF324036E000EF420046E025082
:101430000324D96E000E0420DA6EDF50120000EE95
:10144000A9F014EE00F0EE6AE550E150FCE1E25044
:10145000FAE100EE3CF0160EEE6AE806FDE100014E
:1014600057EF89F001500302F3CF05F0F4CF06F0F7
:1014700001500402F350062602500302F3500626E0
:1014800005C001F006C002F012004A04D8B44BEFC8
:101490008AF04DEF8AF050EF8AF00A6852EF8AF036
:1014A000000E0A6E0A5037EC89F01200206E1CC044
:1014B00007F01DC008F01EC009F01FC00AF0205040
:1014C00058EC82F01200016E400E49606AEF8AF01B
:1014D0006CEF8AF06EEF8AF001C049F01200016EE5
:1014E000800E016076EF8AF078EF8AF07AEF8AF06A
:1014F00001C048F012009890CA84B190B192B184B2
:10150000B186C80ECB6E12008C8E140EE82EFED75C
:101510008C9E140EE82EFED7120098929B0EAB6E96
:10152000A884A88A9C8EA8981200036E03506FECC2
:101530008AF0025063EC8AF01200D388D38AD38CED
:10154000D390D3929B8C12009594929C120012001F
:06FFF8008CF602F0F8F1A6
:00000001FF
